:0200000490006A
:100000006F0000406F00C01F6F0040256F0000258B
:100010006F0020206F0080246F0040246F000024B8
:100020006F0040206F0080236F0040236F0000238B
:100030006F0080206F0080226F0040226F0000223E
:100040006F00C0216F0060206F0020206F00E01F54
:100050006F00A01F6F00601F6F00201F6F00E01E69
:100060006F00A01E6F00601E6F00201E6F00E01D5D
:100070006F00A01D6F00601D6F00201D6F00E01C51
:100080006F00A01C6F00601C6F00201C6F00E01B45
:100090006F00A01B6F00601B6F00201B6F00E01A39
:1000A0006F00A01A6F00601A6F00201A6F00E0192D
:1000B0006F00A0196F0060196F0020196F00E01821
:1000C0006F00A0186F0060186F0020186F00E01715
:1000D0006F00A0176F0060176F0020176F00E01609
:1000E0006F00A0166F0060166F0020166F00E015FD
:1000F0006F00A0156F0060156F0020156F00E014F1
:100100006F00A0146F0060146F0020146F00E013E4
:100110006F00A0136F0060136F0020136F00E012D8
:100120006F00A0126F0060126F0020126F00E011CC
:100130006F00A0116F0060116F0020116F00E010C0
:080140006F00A0100000000098
:10015000000000000000000000000000000000009F
:10016000000000000000000000000000000000008F
:10017000000000000000000000000000000000007F
:10018000000000000000000000000000000000006F
:10019000000000000000000000000000000000005F
:1001A000000000000000000000000000000000004F
:1001B000000000000000000000000000000000003F
:1001C000000000000000000000000000000000002F
:1001D000000000000000000000000000000000001F
:1001E000000000000000000000000000000000000F
:1001F00000000000000000000000000000000000FF
:10020000F3900034A928C5284D20F39000347300E2
:100210002030F3900034A120C5204128F390003411
:1002200073002030F39000341D28EF204063B52880
:10023000F390003473002030F39000340D207D28BB
:10024000AD20F390003473002030F3900034012887
:100250007D20A128F39000347300203001A0F3909A
:100260000034130141F806C00AC20EC412C616C8F3
:100270001ACA1ECC22CE26D02AD22ED432D636D8B6
:100280003ADA3EDC42DEC6C0CAC2CEC4D2C6D6C846
:10029000DACADECCE2CEE6D0EAD2EED4F2D6F6D896
:1002A000FADAFEDCF39000348280F390003482406E
:1002B0001241A2413242C2425243E243724482544A
:1002C0001255A2553256C2565257E25772588648B6
:1002D0001649A649364AC64A564BE64B764C865CCA
:1002E000165DA65D365EC65E565FE65F1301C1070A
:1002F000F3900034828082808280828082807324A6
:100300001034F3240030732510BF411106C022C2FF
:1003100026C42AC6F3670430EF20E05AF37704308E
:1003200082401244A24432454101731005BF7390CC
:0C033000043073101434828000000000C0
:10033C0000000000000000000000000000000000B1
:10034C0000000000000000000000000000000000A1
:10035C000000000000000000000000000000000091
:10036C000000000000000000000000000000000081
:10037C000000000000000000000000000000000071
:10038C000000000000000000000000000000000061
:10039C000000000000000000000000000000000051
:1003AC000000000000000000000000000000000041
:1003BC000000000000000000000000000000000031
:1003CC000000000000000000000000000000000021
:1003DC000000000000000000000000000000000011
:1003EC000000000000000000000000000000000001
:1003FC0000000000970100F09381014017C100F04C
:10040C00130181BF174500001305858E970500F079
:10041C00938585BE170600F0130606BE63FAC50069
:10042C008322050023A0550011059105E3EAC5FEC2
:10043C00170500F0130545BC970500F0938585BDA5
:10044C006377B500232005001105E36DB5FE970217
:10045C0000009382A2BA93E2120073905230592892
:10046C007155B7E2ADDE9382D2EA23205500F5BF79
:04047C00000000007C
:10048000000000000000000000000000000000006C
:10049000000000000000000000000000000000005C
:1004A000000000000000000000000000000000004C
:1004B000000000000000000000000000000000003C
:1004C000000000000000000000000000000000002C
:1004D000000000000000000000000000000000001C
:1004E000000000000000000000000000000000000C
:1004F00000000000000000000000000000000000FC
:100500006D712326111023248110000AEF10507FF3
:10051000EF20A04FEF20E02AB7470090138507A0F7
:10052000EF30C03FB74700901385C7A1EF30003FC1
:1005300001A0937735002A8795EFB7867F7F938652
:10054000F6F7FD5510431107B377D600B697D18F54
:10055000D58FE389B7FE8346C7FF0346D7FF83479E
:10056000E7FF098F8DC60DC23335F0003A95791536
:100570008280E1D683470700050793763700F5FBB5
:10058000098F1305F7FF82801305D7FF82801305BB
:10059000C7FF8280AA88AE873288368546836396F5
:1005A0000620B7460090938686B163FFC50A41676F
:1005B0006375E60A1307F00F3337C7000E0733558C
:1005C000E600AA9683C60600130500023697B30616
:1005D000E540630BE500B395D70033D7E800331847
:1005E000D600D98D3393D80093580801B3D615039C
:1005F0001316080141829357030133F7150336851B
:10060000B305D6024207D98F63FCB700C2971385A2
:10061000F6FF63E7070163F5B7001385E6FFC297AE
:100620008D8F33F71703420313530301B3D7170317
:10063000420733636700B306F6023E86637BD3004E
:1006400042931386F7FF636603016374D300138636
:10065000E7FF4205518D81455DA8370500014147FF
:10066000E36FA6F46147A1BF01E605473358C7020F
:100670004167637FE8081307F00F637307012145A3
:100680003357A800BA9603C70600130600022A973C
:10069000B306E6406315E608B387074185459358DE
:1006A000080113160801418213570301B3F617031B
:1006B000B3D71703C206558F330EF6023E85637C0F
:1006C000C70142971385F7FF636707016375C70189
:1006D0001385E7FF42973307C741B37717034203F8
:1006E0001353030133571703C20733E36700B306FD
:1006F000E6023A86637BD30042931306F7FF6366F4
:1007000003016374D3001306E7FF4205518D828015
:10071000370700014145E365E8F6614595B73318B1
:10072000D80033D5E7003393D800B397D70033D739
:10073000E800935808013366F700337715039317E1
:100740000801C183935506013355150342074D8FA8
:10075000B386A702AA85637CD70042979305F5FF6D
:10076000636707016375D7009305E5FF4297B306FA
:10077000D74033F7160342064182B3D61603420729
:100780003385D702B367C700368763FCA700C297DB
:100790001387F6FF63E7070163F5A7001387E6FFFA
:1007A000C297C205898FD98DDDBD63E2D51441673B
:1007B00063FFE6021307F00FB335D7008E05374706
:1007C000009033D5B600130787B12A970347070077
:1007D000130500022E97B305E5406311E5020545B8
:1007E000E3E7F6F233B5C800134515000DB7370738
:1007F0000001C145E3E5E6FCE145D1B73358E60029
:10080000B396B6003368D80033DEE700935E080184
:10081000B376DE03B397B70033D7E8003313B600DF
:100820003366F70093170801C18313570601335E3F
:10083000DE03C206558F338FC7037285637CE701E1
:1008400042971305FEFF636707016375E701130510
:10085000EEFF42973307E741B376D7033357D70309
:10086000C206338EE70293170601C183D58F3A86FD
:1008700063FCC701C2971306F7FF63E7070163F53F
:10088000C7011306E7FFC2974205C16E518D9386DB
:10089000FEFF3378D50013560501B376D30013530A
:1008A0000301B387C741330ED802B306D6021357EC
:1008B0000E01330868023698429733066602637366
:1008C000D700769693560701369663E0C702E39405
:1008D000C7D8C167FD177D8F4207337EFE00B398EE
:1008E000B80072978145E3F4E8E27D15ADB3814528
:1008F000014531BDAA8E2E833288B6876392061CCD
:1009000037470090130787B163F5C50AC166637B5B
:10091000D6089306F00F63F3C600A147B356F6005E
:10092000369703470700BA9713070002B308F7404A
:10093000630BF700B3151301B3D7FE00331816018C
:10094000DD8D33951E0193560801B3F7D5021316BA
:100950000801418213570501B3D5D502C2075D8F47
:10096000B305B6026378B700429763650701637306
:10097000B70042970D8FB377D702420541813357B5
:10098000D702C2075D8D3307E6026378E500429522
:10099000636505016373E5004295198D33551501B3
:1009A00081458280B7060001C147E369D6F6E14779
:1009B000B5B701E6854633D8C602C166637BD80E5B
:1009C0009306F00F63F30601A147B356F80036977C
:1009D00003460700B30503413E9693070002B38820
:1009E000C740638AC70633181801B357C300B3154D
:1009F00013011353080133D6CE004D8E9315080111
:100A0000C18133951E01B3D6670233F7670293574E
:100A10000601B386D50242075D8F6378D7004297FF
:100A2000636507016373D7004297B306D74033F776
:100A3000660242064182B3D666024207B386D502F9
:100A4000B365C70063F8D500C29563E5050163F39C
:100A5000D500C295958D9356080133F7D5029317AB
:100A60000801C18313560501B3D5D5024207518F42
:100A7000B385B7026378B700429763650701637374
:100A8000B7004297B305B74033F7D502420541811D
:100A9000B3D5D502B385B702931707015D8D63788F
:100AA000B5004295636505016373B50042950D8DF0
:100AB000F5B5B7060001C147E369D8F0E14731B7A2
:100AC000E3E1D5EEC16763F4F6049308F00FB3B722
:100AD000D8008E073747009033D8F600130787B148
:100AE000429783480700BE98930700023388174156
:100AF0006396170363E46600E3E5CEEA3385CE40F0
:100B0000B305D340B3BEAE00B385D54159BD370759
:100B10000001C147E3E0E6FCE1476DBFB3571601B2
:100B2000B396060133EED700335F1301B3D71E012E
:100B300033950E01935E0E01B31503013353DF03AA
:100B4000CD8F93150E01C18113D70701331606010E
:100B5000B376DF03338F6502C206558F9A86637CB6
:100B6000E70172979306F3FF6367C7016375E701B7
:100B70009306E3FF72973307E7413373D703C20746
:100B8000C1833357D70342033363F300B385E502D0
:100B9000BA87637CB30072939307F7FF6367C3015F
:100BA0006375B3009307E7FF7293C206416FDD8E52
:100BB000B305B3401303FFFFB3FE660013570601EE
:100BC000C18233736600B3876E0233836602B38ECD
:100BD000EE02B386E6029A9E13D7070176976373F7
:100BE0006700FA96135307019A9641637D13337792
:100BF00067004207B3F76700BA9763E6D500639BC7
:100C0000D5006379F5003386C740B3B7C700F297C4
:100C10009D8EB287B307F5403335F500958D898DEC
:100C2000B398150133D5070133E5A800B3D5050105
:100C30008DBB370810007D180111B377B80013D7AA
:100C400045013378D80013D3460122CC8E071374A4
:100C5000F77F1357D5010E0826CAD98F93D4F50113
:100C60001357D6011373F37F06CE4AC84EC6FD82D2
:100C700033670701931535000E0633086440639807
:100C8000D4226353000F63180302B366C700638363
:100C900006581305F8FF09E92E963335B600BA97C2
:100CA000AA97B2850544B9A89306F07F631DD800C2
:100CB0001304F07F4DA29306F07F630ED418B7069D
:100CC0008000558F42859306800363CBA608FD46BE
:100CD00063C2A606130800023308A840B316070132
:100CE000B358A60033160601B3E616013336C0002A
:100CF000558E3357A7002E963335B6003E97B3076F
:100D0000A700B285370780007D8F630607140504AE
:100D10001307F07F630DE448370780FF7D17F98FD5
:100D200013F5150013D71500598D9395F701C98D4B
:100D3000858315A2930605FE93080002B356D700DB
:100D4000014863081501130800043305A84033184F
:100D5000A7003366C8003336C000558E014761BF17
:100D6000598E3336C000DDBF630B080A330583405C
:100D70000DE4B3E6B700638306429306F5FF99E6F8
:100D8000B295BA9733B6C500B29729BF1308F07F62
:100D9000631D0501BA87B28521BF9306F07FE30B7F
:100DA000D3FEB7068000D58FAA8613058003634360
:100DB000D5067D45634BD502130800023308D840A1
:100DC00033950701B3D8D500B395050133651501F7
:100DD000B335B0004D8DB3D7D700B305C500BA9772
:100DE00033B6C500B2971A8431BF138506FE930847
:100DF000000233D8A70001456387160113050004DC
:100E0000158D3395A7004D8D3335A0003365A800AF
:100E10008147E1B733E5B7003335A000D5BF93066E
:100E2000140013F5E67F3DE1B3E6B70029E4638BD8
:100E30000636B366C70085C22E96BA973335B6001C
:100E4000AA97370780007D8FB28511C7370780FFCB
:100E50007D17F98F054413F77500630C073413F7FA
:100E6000F50091466307D734138745003335B70043
:100E7000AA97BA853DAE99DE598EE30B06E281440E
:100E8000B707400081451304F07F25A61305F07FC6
:100E9000638DA6302E963335B600BA97AA97139570
:100EA000F7010582B365C500858336846DB7635647
:100EB000000D63110308B366C700638D0634130584
:100EC000F8FF11E93386C54033B5C500998F898F86
:100ED000B2850544B1A09306F07FE30BD8DC9306FE
:100EE000800363C8A608FD4663CFA604130800026A
:100EF0003308A840B3160701B358A60033160601FD
:100F0000B3E616013336C000558E3357A70033863B
:100F1000C54033B5C5003387E740B307A740B28566
:100F20003709800033F727011DD77D1933F92701D1
:100F3000AE895DAA9306F07FE30FD4F0B706800078
:100F4000558F428569BF930605FE93080002B3568C
:100F5000D700014863081501130800043305A840B1
:100F60003318A7003366C8003336C000558E0147DA
:100F700079BF598E3336C000DDBF6305080C3305D9
:100F800083401DE833E8B700630808281308F5FF1D
:100F9000631B0800B305B640B307F7403336B6000D
:100FA000918FB6843DB79308F07F63101503BA871D
:100FB000B2851304F07F7DA01308F07FE30903FFDF
:100FC00037088000B3E707012A88130580036346CA
:100FD00005077D45634D050393080002B38808416A
:100FE0003395170133DE0501B39515013365C5014E
:100FF000B335B0004D8DB3D70701B305A640B30795
:10100000F7403336B600918F1A84B68411BF1305AA
:1010100008FE130E0002B3D8A70001456308C801FB
:1010200013050004330505413395A7004D8D333575
:10103000A00033E5A8008147C9B733E5B7003335D1
:10104000A000D5BF130514001375E57F25E933E82B
:10105000B7003365C70021E8631808006302051C68
:10106000BA87B285B684C5BBE30705DE3388C540C1
:10107000B3B805013385E74033051541B708800053
:10108000B3781501638A0800B305B640B307F7408B
:101090003336B600918FF9B7B365A800638605189B
:1010A000AA87C2854DBB6318080063010518BA877B
:1010B000B285B684F5BEE30D05BED1B3B389C54094
:1010C00033B535013389E7403309A940370580003E
:1010D0003375A90025C9B309B640B307F7403336C5
:1010E00036013389C740B684630409064A85EF1088
:1010F000E039130785FFFD4763C2E7069307000247
:10110000998F3319E900B3D7F900B3E72701B395F5
:10111000E900634F8706018F930617007D466345FC
:10112000D60413070002158F3396E70033D5D50098
:10113000B395E500498EB335B000D18DB3D7D70054
:10114000014411BBB3E52901C5F181470144D9A888
:101150004E85EF10A0331305050261BF930785FD8F
:10116000B397F900814575B705171306000233D709
:10117000E70001456387C60013050004158D33950C
:10118000A7004D8D3335A000B365A70081474DBF43
:10119000198C370780FF7D17F98F75B9BA87B2852B
:1011A0002A8455B9BA87B2857DB11304F07F81478F
:1011B0008145370780007D8F11CB05041307F07F31
:1011C000630BE406370780FF7D17F98F1397D7016C
:1011D00013D53500598D1307F07F8D836319E40013
:1011E0005D8D814709C5B707080001458144131784
:1011F0004401B706F07FB207F2406244758FB183B5
:10120000FE04D98F33E797004249D244B249BA85E8
:1012100005618280428481B1BA87B2852A8499B5FA
:1012200081478145814471B78147EDBF8145814444
:10123000B707400089B98147814549BF79714AD0D4
:1012400013D9450126D24ECE52CC5AC862C49394CB
:10125000C50006D622D456CA5EC61379F97F2A8AFB
:10126000328B368CB18093D9F5016303090893075B
:10127000F07F6309F90C935AD5018E04B3E49A0008
:10128000B70A8000B3EA540113143500130919C0DA
:10129000814B1315CC009354C50013554C01937525
:1012A000F57F135CFC01F1C19307F07F638AF510B1
:1012B000139534009357DB015D8DB7048000C98C12
:1012C000931F3B00138515C0814713972B005D8F3B
:1012D0007D173946B3C68901B305A9406364E6109A
:1012E000374600900A07130606AA3297184302876A
:1012F000B3EAA40063820A069DC82685EF10001990
:10130000930755FF71476349F702F54A130485FFB8
:10131000B38AFA40B3948400B35A5A01B3EA9A00EC
:1013200033148A009305D0C03389A54095B7EF10D8
:10133000E01513050502E9B7930485FDB31A9A0079
:101340000144CDB7B3EAA400638C0A002A84A68ABC
:101350001309F07F8D4B35BF01440149854B15BF03
:1013600001441309F07F894B2DB7B3EF6401638209
:101370000F069DC82685EF106011AA85938755FF3B
:1013800071476349F702F546938F85FF9D8E33952C
:10139000F401B356DB00B3E4A600B31FFB019306D0
:1013A000D0C03385B6400DB75A85EF10200E930597
:1013B0000502E9B7138585FDB314AB00814FC5B7AE
:1013C000B3EF6401638B0F00DA8F1305F07F8D4755
:1013D000EDBD814401458547CDBD81441305F07FB6
:1013E0008947E5B563E6540163969A2A6364F42B52
:1013F0001396FA01135714009317F40193DA1A00A5
:101400003364E6001395840093D88F01B3E8A800F5
:10141000418133DEAA02939E080193DE0E01135729
:10142000040113938F00B3FAAA0272863388CE03A5
:10143000C20A33675701637C070146971306FEFF14
:1014400063671701637507011306EEFF46973307BD
:101450000741335EA702420441803377A702F2823C
:101460003388CE034207418F637C0701469793027E
:10147000FEFF63671701637507019302EEFF46974E
:101480003304074142064168B3625600130EF8FF69
:1014900013D6020133F7C201135F0301337EC30188
:1014A000B303EE02B304C6033307EF02B30FE60340
:1014B0003306970013D70301329763739700C29FD7
:1014C000135607017E96C16FFD1F3378F70142085E
:1014D000B3F3F3011E986367C4009684631EC402CD
:1014E00063FC07039A9733B7670046973A9493844F
:1014F000F2FF63E688006391880263EF670063662A
:10150000C400631B860063F907019A9733B767002D
:1015100046979384E2FF3A9433880741118CB3B71E
:1015200007011D8CFD5F6387880EB35FA40213570C
:1015300008013374A4027E86B387FE034204598CEB
:10154000637CF40046941386FFFF636714016375A0
:10155000F4001386EFFF46941D8C3357A402420813
:10156000135808013374A402BA87B38EEE02420402
:1015700033648800637CD40146949307F7FF636764
:1015800014016375D4019307E7FF469442065D8E0C
:1015900093170601C183135706013308EF02330482
:1015A000D441330FFF02B38EC703330EC70393D763
:1015B0000E01729FFA9763F4C70141673A9813D7F7
:1015C0000701429741687D1833F507014205B3FED4
:1015D0000E0176956366E400631FE418B28F1DC99F
:1015E0004694930FF6FF636114036366E40063138C
:1015F000E418637DA3009317130033B367009A9830
:10160000930FE6FF46943E836314E4006304650091
:1016100093EF1F009387F53F635BF00A13F77F009A
:1016200001CF13F7FF0011466308C70013864F0070
:10163000B33FF601FE94B28F37070001658F19C7DB
:10164000B70700FFFD17FD8C938705401307E07F68
:101650006342F70693DF3F001397D4013367F70126
:1016600013D53400D2073706F07F3205B25022542A
:10167000F18F31815D8DFE06B367D500925402591A
:10168000F249624AD24A424BB24B224C3A85BE855D
:1016900045618280FD158147B5B3CE86D684A28F81
:1016A000DE870D47638AE70A0547638EE70A094725
:1016B000E392E7F6014501479307F07F65B7E286BD
:1016C000CDB7B7040800814F81468D47D9BF054586
:1016D0001D8D130780036348A7087D476349A7044E
:1016E0009385E541B397B40033D7AF00B395BF00FE
:1016F000D98FB335B000CD8F33D5A40013F7770061
:1017000001CF13F7F70011466308C700138747009E
:10171000B337F7003E95BA8737078000698F39E7FE
:101720001317D5018D835D8F0D81814725BF055727
:10173000B307F74013060002B3D7F400014763066E
:10174000C5001387E5433397E4003367F701333768
:10175000E000D98F01455DB73705080001479307C1
:10176000F07F814601B701450147C1B701450147F7
:101770008547CDBD7E86B28F61BD13D74501B707C2
:101780001000FD1713D846012A83AA8E1377F77F1E
:101790001305F07FB3F8B700328FF58FFD81137812
:1017A000F87FFD82631AA70033EE680005456314D5
:1017B0000E006305E80082806315A8005D8E054574
:1017C0007DFA0545E31907FFE397F8FEE395EEFF81
:1017D0006388D5006DF333E568003335A00082805F
:1017E00001458280370710007D1713D84501B37873
:1017F000B700AA872A831378F87F13D5F501930ED3
:10180000F07F93D54601758F328E93F5F57FFD827B
:101810006318D801B3EEF80063840E067955828010
:101820006396D501B36EC700E39A0EFE631C0804ED
:10183000B3E7F80093B7170099E1598E0DCE81EB0D
:101840006314D50063D905010DC57D5582807D5592
:1018500091C6368582806354B80065D98280E3657D
:1018600017FF639CE800E3616EFEE368C3FF014578
:10187000828005458280E5FFC1BFE3E0E8FEC5BF89
:10188000E38205FBD5FD81474DBF370710007D176B
:1018900013D84501B378B700AA872A831378F87F55
:1018A00013D5F501930EF07F93D54601758F328ED7
:1018B00093F5F57FFD826318D801B3EEF8006384D9
:1018C0000E06094582806396D501B36EC700E39A80
:1018D0000EFE631C0804B3E7F80093B7170099E104
:1018E000598E0DCE81EB6314D50063D905010DC56A
:1018F0007D5582807D5591C6368582806354B800BF
:1019000065D98280E36517FF639CE800E3616EFEA2
:10191000E368C3FF0145828005458280E5FFC1BFC2
:10192000E3E0E8FEC5BFE38205FBD5FD81474DBF7F
:1019300079714ECE93D9450122D426D252CC56CAC3
:101940005EC69394C50006D64AD05AC893F9F97F6B
:101950002A84B28BB68AB18013DAF5016380090854
:101960009307F07F6384F90C9357D5018E04DD8CC7
:10197000B7078000DD8C13193500938919C0014B1E
:1019800013D54A011394CA001375F57F318093DA99
:10199000FA015DCD9307F07F6304F51093D7DB0167
:1019A0000E045D8CB70780005D8C130515C09397FE
:1019B0003B00014793162B00D98E4E95FD163948F2
:1019C00033465A0193051500636DD80E37450090D4
:1019D0008A061305C5ADAA969442828633E9A4000F
:1019E000630F09048DC82685EF00502A130755FFA1
:1019F000F14763C7E702F547130985FF998FB39451
:101A00002401B357F400DD8C331924019309D0C0AD
:101A1000B389A940ADB7EF00702713050502F9B7E8
:101A2000930485FDB31494000149CDB733E9A400B4
:101A3000630B09002A899309F07F0D4B91B781440C
:101A40008149054B35BF81449309F07F094B0DBF98
:101A5000B3677401B1CF0DC82285EF003023930620
:101A600055FFF14763C8D7027547930785FF158F68
:101A70003314F40033D7EB00598CB397FB001307F2
:101A8000D0C03305A74035B75E85EF003020130581
:101A90000502F1B7130485FD33948B008147C5B768
:101AA000B367740191CBDE871305F07F0D4719B73B
:101AB000014401450547FDBD01441305F07F094779
:101AC000D5BD416F930EFFFF1357090193D807014E
:101AD0003379D901B3F7D70133882803B306F90264
:101AE000B30FF7023303F80113D806011A98330E27
:101AF00017036373F8017A9E935308013378D80172
:101B0000B3F6D601135F0401B372D40142083698CC
:101B1000B30E5702B306590233092F033303D90119
:101B200013D906011A993307E7036374D901416396
:101B30001A97935E0901C169BA9E1387F9FF337939
:101B4000E900F98E13D404014209F98C3387970216
:101B50003699CA933303F402B3869802B387880296
:101B6000B388660093560701C69663F36600CE9766
:101B700093D80601C169B38FF8009387F9FFB38842
:101B80009202FD8E7D8FC206BA96B3075402B3044B
:101B90009F0233038F02BE9413D40801A29463F30F
:101BA000F4004E93C167FD1733F7F400B3F8F80063
:101BB00042071E9E469733392E017697330427013C
:101BC000369EB336DE00B308F401338FD8003337C6
:101BD000D70133342401598CC180B3B8F801B3362E
:101BE000DF002694B3E6D80036941A9493577F0109
:101BF00026045D8C93179E00B3E70701B337F0000E
:101C0000135E7E0113179F00B3E7C701D98F370713
:101C10000001618F4DCB13D71700858BD98F131718
:101C2000F401D98F05809386F53F6350D00A13F7EE
:101C3000770001CF13F7F70011456308A70013875A
:101C40004700B337F7003E94BA8737070001618F2A
:101C500019C7370700FF7D17798C93860540130756
:101C6000E07F634ED70E13D737009317D401D98F77
:101C70000D80139746013204B706F07F758F3180CF
:101C8000598C7E06B2503367C400225492540259D4
:101C9000F249624AD24A424BB24B3E85BA8545610F
:101CA000828052862684CA875A8789466309D70A62
:101CB0008D46630FD7088546E317D7F60144814761
:101CC0009DA05686DDB7AA85B9BF0545158D1307BA
:101CD0008003E345A7FE7D476349A7049385E5415B
:101CE0003317B400B3D6A700B397B700558FB337F7
:101CF000F000D98F3354A40013F7770001CF13F706
:101D0000F70091466308D70013874700B337F70001
:101D10003E94BA8737078000618F39E71317D401E3
:101D20008D83D98F0D808146A9B70557158F13086C
:101D300000023357E4008146630605019385E543BD
:101D4000B316B400D58FB337F000D98F01446DB707
:101D50003704080081479306F07F014619BF01440C
:101D600081479306F07F31B701448147854611B71B
:101D7000370810007D180111B377B80013D745015B
:101D80003378D80013D3460122CC8E071374F77F23
:101D90001357D50126CAD98F93D4F5011357D6010D
:101DA000931535000E0806CE4AC84EC61373F37F4E
:101DB0001305F07FFD82336707010E066315A3004C
:101DC0003365C70019E193C6160033086440639871
:101DD00096226353000F63180302B366C700638142
:101DE00006581305F8FF09E92E963335B600BA9761
:101DF000AA97B2850544B9A89306F07F631DD80061
:101E00001304F07F4DA29306F07F630ED418B7063B
:101E10008000558F42859306800363CBA608FD465C
:101E200063C2A606130800023308A840B3160701D0
:101E3000B358A60033160601B3E616013336C000C8
:101E4000558E3357A7002E963335B6003E97B3070D
:101E5000A700B285370780007D8F6306071405044D
:101E60001307F07F630BE448370780FF7D17F98F76
:101E700013F5150013D71500598D9395F701C98DEA
:101E8000858315A2930605FE93080002B356D7007A
:101E9000014863081501130800043305A8403318EE
:101EA000A7003366C8003336C000558E014761BFB6
:101EB000598E3336C000DDBF630B080A33058340FB
:101EC0000DE4B3E6B700638106429306F5FF99E699
:101ED000B295BA9733B6C500B29729BF1308F07F01
:101EE000631D0501BA87B28521BF9306F07FE30B1E
:101EF000D3FEB7068000D58FAA86130580036343FF
:101F0000D5067D45634BD502130800023308D8403F
:101F100033950701B3D8D500B39505013365150195
:101F2000B335B0004D8DB3D7D700B305C500BA9710
:101F300033B6C500B2971A8431BF138506FE9308E5
:101F4000000233D8A700014563871601130500047A
:101F5000158D3395A7004D8D3335A0003365A8004E
:101F60008147E1B733E5B7003335A000D5BF93060D
:101F7000140013F5E67F3DE1B3E6B70029E4638979
:101F80000636B366C70085C22E96BA973335B600BB
:101F9000AA97370780007D8FB28511C7370780FF6A
:101FA0007D17F98F054413F77500630A073413F79B
:101FB000F50091466305D734138745003335B700E4
:101FC000AA97BA852DAE99DE598EE30B06E28144BD
:101FD000B707400081451304F07F15A61305F07F75
:101FE000638BA6302E963335B600BA97AA97139511
:101FF000F7010582B365C500858336846DB76356E6
:10200000000D63110308B366C700638B0634130524
:10201000F8FF11E93386C54033B5C500998F898F24
:10202000B2850544B1A09306F07FE30BD8DC93069C
:10203000800363C8A608FD4663CFA6041308000208
:102040003308A840B3160701B358A600331606019B
:10205000B3E616013336C000558E3357A7003386DA
:10206000C54033B5C5003387E740B307A740B28505
:102070003709800033F727011DD77D1933F9270170
:10208000AE895DAA9306F07FE30FD4F0B706800017
:10209000558F428569BF930605FE93080002B3562B
:1020A000D700014863081501130800043305A84050
:1020B0003318A7003366C8003336C000558E014779
:1020C00079BF598E3336C000DDBF6305080C330578
:1020D00083401DE833E8B700630608281308F5FFBE
:1020E000631B0800B305B640B307F7403336B600AC
:1020F000918FB6843DB79308F07F63101503BA87BC
:10210000B2851304F07F7DA01308F07FE30903FF7D
:1021100037088000B3E707012A8813058003634668
:1021200005077D45634D050393080002B388084108
:102130003395170133DE0501B39515013365C501EC
:10214000B335B0004D8DB3D70701B305A640B30733
:10215000F7403336B600918F1A84B68411BF130549
:1021600008FE130E0002B3D8A70001456308C8019A
:1021700013050004330505413395A7004D8D333514
:10218000A00033E5A8008147C9B733E5B700333570
:10219000A000D5BF130514001375E57F25E933E8CA
:1021A000B7003365C70021E8631808006300051C09
:1021B000BA87B285B684C5BBE30705DE3388C54060
:1021C000B3B805013385E74033051541B7088000F2
:1021D000B3781501638A0800B305B640B307F7402A
:1021E0003336B600918FF9B7B365A800638405183C
:1021F000AA87C2854DBB63180800630F0516BA870E
:10220000B285B684F5BEE30D05BED1B3B389C54032
:1022100033B535013389E7403309A94037058000DC
:102220003375A9003DC5B309B640B307F74033364F
:1022300036013389C740B684630309064A85B92449
:10224000130785FFFD4763C1E70693070002998FD7
:102250003319E900B3D7F900B3E72701B395E900D3
:10226000634E8706018F930617007D466344D604AC
:1022700013070002158F3396E70033D5D500B395C9
:10228000E500498EB335B000D18DB3D7D7000144F6
:1022900019BBB3E52901CDF181470144D1A84E8591
:1022A000F5221305050269BF930785FDB397F90071
:1022B00081457DB705171306000233D7E7000145B6
:1022C0006387C60013050004158D3395A7004D8D57
:1022D0003335A000B365A700814755BF198C370778
:1022E00080FF7D17F98FC1B1BA87B2852A8465B99D
:1022F000BA87B2854DB91304F07F8147814537070E
:1023000080007D8F11CB05041307F07F630BE4067B
:10231000370780FF7D17F98F1397D70113D5350045
:10232000598D1307F07F8D836319E4005D8D81471C
:1023300009C5B70708000145814413174401B706D2
:10234000F07FB207F2406244758FB183FE04D98FEB
:1023500033E797004249D244B249BA850561828089
:10236000428491B1BA87B2852A84A9B58147814553
:10237000814471B78147EDBF81458144B707400073
:1023800099B98147814549BF370710009307F7FF87
:1023900033F7B700D181F58F93F5F57FD18213081C
:1023A000F07F93F6F67F63950501498F054509EBAC
:1023B0001307F07F01456395E600D18F3335F000B8
:1023C000828013D74501B70610009387F6FF137775
:1023D000F77F1306E03FED8FFD816354E60413069B
:1023E000D0416358E600370500801345F5FF2E9570
:1023F0008280D58F93063043998E7D46634DD600FB
:102400001307D7BEB397E7003355D5005D8D99C943
:102410003305A040828013053041198D33D5A700C4
:10242000FDB701458280411106C622C426C221CDD6
:102430009357F54133C4A7001D8C9354F5012285B1
:10244000B1201307E041A947098F63C8A702AD4730
:10245000898F5505B357F4003314A4002685B207BD
:102460005207B1837E05D98FB24033E7A70022859A
:1024700022449244BA85410182805515B317A400C5
:1024800026850144E9BF01478147E5BFC1676376FF
:10249000F5029307F00FB3B7A7008E0737470090F8
:1024A000930600029D8E3355F500930787B13E9544
:1024B000034505003385A640828037070001C147E8
:1024C000E36EE5FCE147D9BF011122CE00102326BF
:1024D000A4FE2324B4FE8327C4FE032784FE98C3EE
:1024E0000100724405618280011122CE0010232672
:1024F000A4FE8327C4FE9C433E857244056182800E
:10250000411106C622C400088145370500A06D3F71
:102510008145B70700A0138547007D378145B70780
:1025200000A0138587004D37FD55B70700A0138520
:102530000701593FB70700049385F7FFB70700A0CD
:102540001385470151378145B70700A013858701DF
:10255000A53F0145952A014531200100B2402244A2
:1025600041018280797106D622D40018232EA4FC62
:102570008327C4FD93F7F70FBD8BA307F4FE8327D2
:10258000C4FD918393F7F70FBD8B2307F4FE8327D8
:10259000C4FDA18393F7F70FBD8BA306F4FE832739
:1025A000C4FDB18393F7F70FBD8B2306F4FE832799
:1025B000C4FDC18393F7F70FBD8BA305F4FE8327FA
:1025C000C4FDD18393F7F70FBD8B2305F4FE83473A
:1025D000F4FE37470090130787C1BA9783C70700F7
:1025E000A307F4FE8347E4FE37470090130787C133
:1025F000BA9783C707002307F4FE8347D4FE374703
:102600000090130787C1BA9783C70700A306F4FE9B
:102610008347C4FE37470090130787C1BA9783C723
:1026200007002306F4FE8347B4FE374700901307E4
:1026300087C1BA9783C70700A305F4FE8347A4FEAA
:1026400037470090130787C1BA9783C70700230550
:10265000F4FE8347C4FE139787018347D4FEC20765
:102660005D8F8347E4FEA2075D8F8347F4FED98F19
:102670002322F4FE832544FE370500A0B135B707B9
:1026800000A0138547008D352322A4FE032744FEB6
:10269000C177F98F2322F4FE8347A4FEA2073E8769
:1026A000832744FE5D8F8347B4FED98F2322F4FE37
:1026B000832544FEB70700A013854700313501008C
:1026C000B250225445618280797106D622D4001816
:1026D000232EA4FC8327C4FD93F7F73F232EF4FC9D
:1026E000B70700A01385470001352326A4FE032762
:1026F000C4FEB70701FCFD17F98F2326F4FE8327DC
:10270000C4FDC2070327C4FED98F2326F4FE832508
:10271000C4FEB70700A0138547007D330100B25007
:10272000225445618280011106CE22CC0010B707E9
:1027300000A0138587004D3B2326A4FE8327C4FEFB
:1027400093C7F7FFA983858B2326F4FE8327C4FE56
:102750003E85F240624405618280011106CE22CCA2
:102760000010B70700A013858700BD3B2326A4FEF9
:102770008327C4FE93F7F73F2326F4FE8327C4FE86
:102780003E85F240624405618280011122CE001034
:102790002326A4FE2324B4FE8327C4FE032784FE3D
:1027A00098C30100724405618280011122CE00109D
:1027B0002326A4FE8327C4FE9C433E857244056104
:1027C0008280011106CE22CC00108547739087BF0E
:1027D0008147739007BF8547739047BF85477390C4
:1027E00027BFF32740302326F4FE8327C4FE93E758
:1027F000070873904730F32700302324F4FE832723
:1028000084FE93E7870073900730A545B70700491A
:10281000138547009D3F8145B70700491385870011
:10282000AD378145B70700491385C700B93FB717D2
:102830000300938507D4B707004913850701B13713
:102840008145B7070049138547018137954537050D
:102850000049253F0100F240624405618280411138
:1028600006C622C426C20008B707008083A7070057
:102870003E85993D4D3DAA8789EFC5352A87B70723
:10288000008083A707003E97B707008023A0E700DA
:1028900029A8B707008083A40700C135AA8733871A
:1028A000F440B707008023A0E70037050049F53D55
:1028B000AA87BE8537050049C93D0100B2402244C0
:1028C000924441018280011106CE22CC0010F327F0
:1028D00060BF2326F4FE8327C4FE2324F4FE83274F
:1028E00084FE858B89C759288547739067BF01008F
:1028F000F240624405618280011122CE0010F3276C
:1029000010302326F4FE8327C4FE2324F4FE8327FD
:1029100084FE93F7070291C7B757FE009387B7026B
:1029200029A0B7373101938707D02322F4FE8327EC
:1029300044FE3E85724405618280011122CE001062
:102940002326A4FEAE87A305F4FE8327C4FE034717
:10295000B4FE2380E700010072440561828001110A
:1029600022CE00102326A4FE8327C4FE83C70700BF
:1029700093F7F70F3E85724405618280011106CE00
:1029800022CC0010B707008003A74700B7070080DC
:1029900023A4E700B707008003A7C700B70700809C
:1029A00023A2E7001D22AA873E87B707008023A63F
:1029B000E700B707008083A7870013970701B707D1
:1029C000008083A74700A2073E97B707008083A730
:1029D000C700BA972326F4FE0325C4FE6136B70765
:1029E000008083A7C70093F7F70F3E856520B707E0
:1029F000008003A7C700B5476314F700294559288D
:102A00000100F240624405618280011106CE22CCB1
:102A10000010DD352326A4FE0327C4FEB73731019D
:102A2000938707D0631FF700C945B70700B0138528
:102A300027002137E945B70700B013853700F53D7A
:102A400031A893055005B70700B013852700F53569
:102A50009545B70700B013853700C53593050004C9
:102A6000B70700B013851700C93DB7070080373797
:102A70000090130747A923A8E700B707008037375E
:102A800000901307A7AC23ACE7000100F2406244BA
:102A900005618280011106CE22CC0010AA87A3070F
:102AA000F4FE0100B70700B0138517004D3DAA875B
:102AB000898BEDDB8347F4FEBE85370500B0B53D5D
:102AC0000100F240624405618280411106C622C4C1
:102AD00000080100B70700B0138517004935AA8721
:102AE000858BEDDB370500B09D3DAA873E85B24062
:102AF000224441018280797106D622D40018232C09
:102B0000A4FC232EB4FC232604FEBDA8B7470090E6
:102B100003A607A783A647A7032584FD8325C4FD35
:102B2000EFE05FCCAA8763CA0702B747009003A60D
:102B300007A783A647A7032584FD8325C4FDEFE0EF
:102B4000EFEF2A87AE87232CE4FC232EF4FC8327A7
:102B5000C4FE95072326F4FE05A8B747009003A6F8
:102B600087A783A6C7A7032584FD8325C4FDEFE0BF
:102B7000EFEC2A87AE87232CE4FC232EF4FC83277A
:102B8000C4FE85072326F4FEB747009003A687A757
:102B900083A6C7A7032584FD8325C4FDEFE09FC45A
:102BA000AA87E3D507F6BDA8B747009003A607A8F4
:102BB00083A647A8032584FD8325C4FDEFE0FFCC51
:102BC000AA8763DA0702B747009003A607A783A680
:102BD00047A7032584FD8325C4FDEFE07FD52A8721
:102BE000AE87232CE4FC232EF4FC8327C4FEED17D0
:102BF0002326F4FE05A8B747009003A687A783A65F
:102C0000C7A7032584FD8325C4FDEFE07FD22A8773
:102C1000AE87232CE4FC232EF4FC8327C4FEFD178F
:102C20002326F4FEB747009003A687A883A6C7A86B
:102C3000032584FD8325C4FDEFE03FC5AA87E3C5D6
:102C400007F68327C4FE3E85B25022544561828038
:102C5000797106D622D40018232EA4FCB747009021
:102C600003A787A883A7C7A82324E4FE2326F4FE8E
:102C7000ADA00327C4FD914763DAE702B747009090
:102C800003A607A783A647A7032584FE8325C4FEC2
:102C9000EFE01FCA2A87AE872324E4FE2326F4FE32
:102CA0008327C4FDED17232EF4FC05A8B747009039
:102CB00003A687A783A6C7A7032584FE8325C4FE92
:102CC000EFE01FC72A87AE872324E4FE2326F4FE05
:102CD0008327C4FDFD17232EF4FC8327C4FDE34A9C
:102CE000F0F8ADA00327C4FDF157635AF702B747C8
:102CF000009003A607A783A647A7032584FE832584
:102D0000C4FEEFE0AFD32A87AE872324E4FE232658
:102D1000F4FE8327C4FD9507232EF4FC05A8B747CE
:102D2000009003A687A783A6C7A7032584FE832553
:102D3000C4FEEFE0AFD02A87AE872324E4FE23262B
:102D4000F4FE8327C4FD8507232EF4FC8327C4FDEE
:102D5000E3CA07F8032784FE8327C4FE3A85BE85AD
:102D6000B2502254456182801D7186CEA2CCA6CA83
:102D7000CAC8CEC68010232EA4FA2328B4FA232A68
:102D8000C4FA232CD4FABA87A307F4FA232E04FC3E
:102D9000232C04FCA30B04FC232804FC032604FBC3
:102DA000832644FB032504FB832544FBEFF0CFDDA2
:102DB000AA8781CBB7470090938787A32328F4FC89
:102DC00065AE832784FB63D507009947232CF4FA6B
:102DD00001468146032504FB832544FBEFE0FFAA5F
:102DE000AA8763D20702832704FB2328F4FA032768
:102DF00044FBB7070080B98F232AF4FA9307D00267
:102E0000A30BF4FC29A09307B002A30BF4FC032945
:102E100004FB032744FBB707008093C7F7FFB37990
:102E2000F7008544B747009003A607A983A647A9E2
:102E30004A85CE85EFF04FD5AA8799EFB747009026
:102E400003A607A983A647A94A85CE85EFE0FFA37D
:102E5000AA876353F000814493F7F40F93C71700D8
:102E600093F7F70F81CBB74700909387C7A3232829
:102E7000F4FCA9AA0307F4FA930760066310F708A5
:102E8000832784FBB307F0403E85D9332A87AE877A
:102E9000B746009003A686A983A6C6A93A85BE8533
:102EA000EFE0CFB92A87AE873A86BE86032504FBBA
:102EB000832544FBEFD0FFD72A87AE872328E4FA87
:102EC000232AF4FA032504FB832544FB2D31232C0C
:102ED000A4FC832784FD63D40700232C04FC032770
:102EE00084FD832784FB3E97F14763D1E70EB74704
:102EF0000090938707A42328F4FCC9A801468146C3
:102F0000032504FB832544FBEFE03F87AA87DDCF41
:102F1000032504FB832544FBF93E2A87832784FB92
:102F2000B307F7403E852D332A87AE87B74600901A
:102F300003A686A983A6C6A93A85BE85EFE00FB091
:102F40002A87AE873A86BE86032504FB832544FB89
:102F5000EFD03FCE2A87AE872328E4FA232AF4FA5B
:102F6000032504FB832544FB7936232EA4FC032789
:102F7000C4FD9307300663C7E700032784FBE547DA
:102F800063D9E700B7470090938707A42328F4FC90
:102F900035A80327C4FD9307D0F96356F7009307BC
:102FA000D0F9232EF4FC0325C4FD5D312A87AE87BA
:102FB0003A86BE86032504FB832544FBEFE00FA879
:102FC0002A87AE872328E4FA232AF4FA832704FD0C
:102FD0006394071A030774FD9307D002631CF7007C
:102FE0008327C4FB13871700232EE4FA034774FDDD
:102FF0002380E700032584FDA1392324A4FC232694
:10300000B4FC032684FC8326C4FC032504FB83252F
:1030100044FBEFE0AFA22A87AE873A85BE85EFF08A
:103020004FBAAA872322F4FC032544FCEFF0AFBF7C
:103030002A87AE87032684FC8326C4FC3A85BE8596
:10304000EFE01F8F2A87AE873A86BE86032504FBF2
:10305000832544FBEFE0DFD12A87AE872328E4FAFB
:10306000232AF4FA032784FDFD57631CF700832706
:10307000C4FB13871700232EE4FA1307E002238012
:10308000E700832744FC93F7F70F9387070393F632
:10309000F70F8327C4FB13871700232EE4FA139737
:1030A000860161872380E700832784FDFD17232C99
:1030B000F4FC832784FBB307F040032784FDE35B24
:1030C000F7F20307F4FA930760066307F70A83270A
:1030D000C4FB13871700232EE4FA0347F4FA238076
:1030E000E7008327C4FD63D307028327C4FDB3072A
:1030F000F040232EF4FC8327C4FB13871700232EF4
:10310000E4FA1307D0022380E70019A88327C4FB41
:1031100013871700232EE4FA1307B0022380E70079
:103120000327C4FDA947B347F70293F7F70F938727
:10313000070393F6F70F8327C4FB13871700232E8B
:10314000E4FA1397860161872380E7000327C4FD13
:10315000A947B367F70293F7F70F9387070393F62F
:10316000F70F8327C4FB13871700232EE4FA139766
:10317000860161872380E700832704FDB9C38307A5
:1031800074FD99CB8327C4FB13871700232EE4FA21
:10319000034774FD2380E700032704FD930717000E
:1031A0002328F4FC8327C4FB93861700232ED4FA2C
:1031B000030707002380E700832704FD83870700B8
:1031C000E1FF8327C4FB238007000100F64066442B
:1031D000D6444649B64925618280011106CE22CCEB
:1031E00000102326A4FE2324B4FE032784FEA9474F
:1031F0006316F700B5450325C4FEC5378327C4FE13
:1032000099C78327C4FE032584FE829735A0B7079C
:10321000008083A747018DC3B707008083A74701BC
:103220009386170037070080232AD700032784FEE0
:10323000620761872380E7000100F2406244056174
:103240008280357106CF22CD4ACB4EC952C756C5B2
:103250005AC35EC1E2DEE6DC00112326A4F6232475
:10326000B4F62322C4F6832784F613871700232499
:10327000E4F683C70700A309F4FA830734FB638FDE
:103280000766030734FB930750026309F7008307BF
:1032900034FBBE850325C4F6893785A5232004FCAD
:1032A000832704FC232EF4FA93070002A305F4FA03
:1032B000FD57232AF4FA832784F613871700232463
:1032C000E4F683C70700A309F4FA030734FB930766
:1032D00000036311F70293070003A305F4FA8327A1
:1032E00084F6138717002324E4F683C70700A30995
:1032F000F4FA25A0030734FB9307D002631FF700FD
:103300008947232EF4FA832784F613871700232492
:10331000E4F683C70700A309F4FA030734FB930715
:10332000A002631FF706832744F613874700232272
:10333000E4F69C43232CF4FA832784FB63DB070029
:10334000832784FBB307F040232CF4FA8947232E0C
:10335000F4FA832784FB2320F4FC832784F6138765
:1033600017002324E4F683C70700A309F4FAA9A0F1
:10337000032704FCBA878A07BA9786073E87830724
:1033800034FBBA97938707FD2320F4FC832784F648
:10339000138717002324E4F683C70700A309F4FA70
:1033A000030734FB9307F00263D8E700030734FBFD
:1033B00093079003E3DEE7FA030734FB9307E00289
:1033C000631DF708832784F6138717002324E4F688
:1033D00083C70700A309F4FA030734FB9307A0028D
:1033E0006316F702832744F6138747002322E4F687
:1033F0009C43232AF4FA832784F613871700232497
:10340000E4F683C70700A309F4FA81A8232A04FA83
:103410000DA8032744FBBA878A07BA9786073E8719
:10342000830734FBBA97938707FD232AF4FA83278F
:1034300084F6138717002324E4F683C70700A30943
:10344000F4FA030734FB9307F00263D8E70003079D
:1034500034FB93079003E3DEE7FA030734FB93079B
:10346000C0066318F7048327C4FB93E74700232EA5
:10347000F4FA832784F6138717002324E4F683C71E
:103480000700A309F4FA030734FB9307C00663128D
:10349000F7028327C4FB93E78700232EF4FA8327E0
:1034A00084F6138717002324E4F683C70700A309D3
:1034B000F4FA830734FB63850744830734FB93875F
:1034C000B7FB130730036367F71C13972700B74751
:1034D0000090938787C2BA979C43828789472326A7
:1034E000F4FCC1A2A1472326F4FC65AAA947232620
:1034F000F4FC45AAC1472326F4FC65A2832744F6C1
:10350000138747002322E4F69C43E207E187BE8548
:103510000325C4F6D931D5A6832744F6138747007F
:103520002322E4F69C432326F4FA8327C4FA99E77E
:10353000B7470090938747A42326F4FA0325C4FADB
:10354000EFC03FFF2322A4FC832744FB63C807028C
:10355000832744FB032744FC63F2E702832744FBF1
:103560002322F4FC21A88307B4FABE850325C4F600
:10357000AD31832744FC85072322F4FC8327C4FB59
:10358000898B85E7032744FC832704FCE36DF7FC64
:1035900029A88327C4FA138717002326E4FA838710
:1035A0000700BE850325C4F60D398327C4FA838737
:1035B000070091CF832744FB1387F7FF232AE4FA00
:1035C000E9FB31A0930500020325C4F639318327B6
:1035D00044FC138717002322E4FC032704FCE3E3E5
:1035E000E7FE21AE930784F72326F4FA832744F6F7
:1035F0009D07E19B138787002322E4F68843CC4391
:10360000830734FB3E87832644FB2E86AA85032549
:10361000C4FAEFF06FF50325C4FAEFC09FF123223F
:10362000A4FC21A88307B4FABE850325C4F6753629
:10363000832744FC85072322F4FC8327C4FB898B62
:1036400085E7032744FC832704FCE36DF7FC29A8E6
:103650008327C4FA138717002326E4FA8387070019
:10366000BE850325C4F6953E8327C4FA83870700E9
:10367000E5F331A0930500020325C4F6B93E832784
:1036800044FC138717002322E4FC032704FCE3E334
:10369000E7FEA5A4830734FBBE850325C4F6353EAB
:1036A000A9AC8327C4FBA18B85C3832744F69D0760
:1036B000E19B138787002322E4F69843DC43232011
:1036C000E4FA2322F4FA51A08327C4FB918BA1C30F
:1036D000030734FB93074006631DF700832744F676
:1036E000138747002322E4F69C433E89FD87BE8969
:1036F00011A8832744F6138747002322E4F69C434E
:103700003E898149232024FB232234FB3DA8030763
:1037100034FB93074006631DF700832744F61387A5
:1037200047002322E4F69C433E8AFD87BE8A11A807
:10373000832744F6138747002322E4F69C433E8AFE
:10374000814A232044FB232254FB030734FB9307C5
:1037500040066310F704832744FA63DC070201463E
:103760008146032504FA832544FA3307A6403A88A4
:1037700033380601B387B640B3860741B6872320A6
:10378000E4FA2322F4FA8327C4FB93E71700232EDD
:10379000F4FA232404FC032704FA832744FA232C95
:1037A000E4F8232EF4F88327C4FC3E8B814B0327D7
:1037B00084F98327C4F95A86DE863A85BE85EFD020
:1037C0006F932A87AE872309E4FA8327C4FC3E8CD3
:1037D000814C6286E686032584F98325C4F9EFC00F
:1037E0007FDB2A87AE87232CE4F8232EF4F8030727
:1037F00024FBA54763D3E702030734FB9307800745
:103800006315F7009307700211A09D47034724FB3F
:10381000BA9793F7F70F2309F4FA834724FB9387AA
:10382000070393F6F70F832784FC138717002324DD
:10383000E4FC139786016187930604FDB697238401
:10384000E7FA832784F90327C4F9D98F91C703279F
:1038500084FCFD47E3F9E7F48327C4FB858B91CF14
:10386000832784FC138717002324E4FC130704FD3B
:10387000BA971307D0022384E7FA832784FC232214
:10388000F4FC29A88307B4FABE850325C4F6EFF03B
:10389000DF94832744FC85072322F4FC8327C4FBA1
:1038A000898B99E7032744FC832704FCE36CF7FC2E
:1038B000832784FCFD172324F4FC832784FC13074F
:1038C00004FDBA97838787FABE850325C4F6EFF017
:1038D000DF90832784FCE9FF39A0930500020325CC
:1038E000C4F6EFF09F8F832744FC13871700232231
:1038F000E4FC032704FCE3E2E7FEB5B2010011A0FB
:1039000001000100FA406A445A49CA493A4AAA4A9F
:103910001A4B8A4B765CE65C0D6182805D7106D63F
:1039200022D40018232EA4FC4CC010C454C418C8C0
:103930005CC8232C0401232E140193070402232CBA
:10394000F4FC832784FD91172326F4FEB70700803B
:1039500083A707010327C4FE3A868325C4FD3E855D
:0E396000EFF03F8E0100B25022546161828070
:103970000000000000000000000000000000000047
:103980000000000000000000000000000000000037
:103990000000000000000000000000000000000027
:1039A0000000000000000000000000000000000017
:1039B0000000000000000000000000000000000007
:1039C00000000000000000000000000000000000F7
:1039D00000000000000000000000000000000000E7
:1039E00000000000000000000000000000000000D7
:1039F00000000000000000000000000000000000C7
:103A00003D3D3D3D3D3D3D3D206D6D524953432083
:103A10003D3D3D3D3D3D3D3D0A000000496E707518
:103A20007420616E79204368617261637465723AD3
:103A30000A000000000000004E614E00494E4600A2
:103A40004F560000000000002530386C5820000060
:103A5000202530325800000020200000202530347E
:103A600058000000202530384C58000000000000AD
:103A700000000000006AF840000000000000244040
:103A8000F168E388B5F8E43E000000000000F03F74
:103A9000FFFFFFFFFFFFEF7F00000000000000407E
:103AA000B416009066170090BE160090661700903E
:103AB0005817009066170090BE160090B41600903C
:103AC000B416009058170090BE1600909A160090F9
:103AD0009A1600909A160090C2160090AA1C0090A8
:103AE000AA1C0090C21C0090A41C0090A41C009072
:103AF000501D0090C21C0090A41C0090501D00900E
:103B0000A41C0090C21C0090A21C0090A21C00905B
:103B1000A21C0090501D0090000102020303030349
:103B2000040404040404040405050505050505054D
:103B3000050505050505050506060606060606062D
:103B40000606060606060606060606060606060615
:103B500006060606060606060707070707070707FD
:103B600007070707070707070707070707070707E5
:103B700007070707070707070707070707070707D5
:103B800007070707070707070707070707070707C5
:103B900007070707070707070808080808080808AD
:103BA0000808080808080808080808080808080895
:103BB0000808080808080808080808080808080885
:103BC0000808080808080808080808080808080875
:103BD0000808080808080808080808080808080865
:103BE0000808080808080808080808080808080855
:103BF0000808080808080808080808080808080845
:103C00000808080808080808080808080808080834
:103C10000808080808080808C0F9A4B0999282F8B2
:103C200080908883C6A1868EE435009094360090FB
:103C3000943600909436009094360090943600901C
:103C4000943600909436009094360090943600900C
:103C500094360090943600909436009094360090FC
:103C600094360090943600909436009094360090EC
:103C700094360090F434009094360090943600907E
:103C800094360090943600909436009094360090CC
:103C9000943600909436009094360090DC34009076
:103CA000FC340090EC340090E4350090E435009052
:103CB000943600909436009094360090943600909C
:103CC000943600909436009094360090943600908C
:103CD000E43400909436009094360090943600902E
:103CE0001835009094360090EC3400909436009093
:083CF00094360090F4340090BA
:040000059000040063
:00000001FF
