:0200000490006A
:100000006F0000406F00C01F6F0040256F0000258B
:100010006F0020206F0080246F0040246F000024B8
:100020006F0040206F0080236F0040236F0000238B
:100030006F0080206F0080226F0040226F0000223E
:100040006F00C0216F0060206F0020206F00E01F54
:100050006F00A01F6F00601F6F00201F6F00E01E69
:100060006F00A01E6F00601E6F00201E6F00E01D5D
:100070006F00A01D6F00601D6F00201D6F00E01C51
:100080006F00A01C6F00601C6F00201C6F00E01B45
:100090006F00A01B6F00601B6F00201B6F00E01A39
:1000A0006F00A01A6F00601A6F00201A6F00E0192D
:1000B0006F00A0196F0060196F0020196F00E01821
:1000C0006F00A0186F0060186F0020186F00E01715
:1000D0006F00A0176F0060176F0020176F00E01609
:1000E0006F00A0166F0060166F0020166F00E015FD
:1000F0006F00A0156F0060156F0020156F00E014F1
:100100006F00A0146F0060146F0020146F00E013E4
:100110006F00A0136F0060136F0020136F00E012D8
:100120006F00A0126F0060126F0020126F00E011CC
:100130006F00A0116F0060116F0020116F00E010C0
:080140006F00A0100000000098
:10015000000000000000000000000000000000009F
:10016000000000000000000000000000000000008F
:10017000000000000000000000000000000000007F
:10018000000000000000000000000000000000006F
:10019000000000000000000000000000000000005F
:1001A000000000000000000000000000000000004F
:1001B000000000000000000000000000000000003F
:1001C000000000000000000000000000000000002F
:1001D000000000000000000000000000000000001F
:1001E000000000000000000000000000000000000F
:1001F00000000000000000000000000000000000FF
:10020000F3900034A928C5284D20F39000347300E2
:100210002030F3900034A120C5204128F390003411
:1002200073002030F39000341D28EF209051B52842
:10023000F390003473002030F39000340D207D28BB
:10024000AD20F390003473002030F3900034012887
:100250007D20A128F39000347300203001A0F3909A
:100260000034130141F806C00AC20EC412C616C8F3
:100270001ACA1ECC22CE26D02AD22ED432D636D8B6
:100280003ADA3EDC42DEC6C0CAC2CEC4D2C6D6C846
:10029000DACADECCE2CEE6D0EAD2EED4F2D6F6D896
:1002A000FADAFEDCF39000348280F390003482406E
:1002B0001241A2413242C2425243E243724482544A
:1002C0001255A2553256C2565257E25772588648B6
:1002D0001649A649364AC64A564BE64B764C865CCA
:1002E000165DA65D365EC65E565FE65F1301C1070A
:1002F000F3900034828082808280828082807324A6
:100300001034F3240030732510BF411106C022C2FF
:1003100026C42AC6F3670430EF201061F377043057
:1003200082401244A24432454101731005BF7390CC
:0C033000043073101434828000000000C0
:10033C0000000000000000000000000000000000B1
:10034C0000000000000000000000000000000000A1
:10035C000000000000000000000000000000000091
:10036C000000000000000000000000000000000081
:10037C000000000000000000000000000000000071
:10038C000000000000000000000000000000000061
:10039C000000000000000000000000000000000051
:1003AC000000000000000000000000000000000041
:1003BC000000000000000000000000000000000031
:1003CC000000000000000000000000000000000021
:1003DC000000000000000000000000000000000011
:1003EC000000000000000000000000000000000001
:1003FC0000000000970100F893810140170100F400
:10040C00130181BF174500001305C551970500F86E
:10041C00938585BE170600F8130606BE63FAC50061
:10042C008322050023A0550011059105E3EAC5FEC2
:10043C00170500F0130545BC970500F0938545BDE5
:10044C006377B500232005001105E36DB5FE970217
:10045C0000009382A2BA93E2120073905230592892
:10046C007155B7E2ADDE9382D2EA23205500F5BF79
:04047C00000000007C
:10048000000000000000000000000000000000006C
:10049000000000000000000000000000000000005C
:1004A000000000000000000000000000000000004C
:1004B000000000000000000000000000000000003C
:1004C000000000000000000000000000000000002C
:1004D000000000000000000000000000000000001C
:1004E000000000000000000000000000000000000C
:1004F00000000000000000000000000000000000FC
:10050000397106DE22DC8000EF20200EEF20906B98
:10051000EF204036EF205011B74700901385076455
:10052000EF30B05BB74700901385C765EF30F05AE6
:10053000232604FEF32700B02324F4FE832784FE41
:100540002320F4FE232204FEF32700B8232EF4FC1C
:100550008327C4FD2328F4FC232A04FC930664FCAF
:10056000130784FC9307A4FC3686BA853E85EF20EA
:10057000A032832504FD032604FE8317A4FCBE8657
:10058000831784FC3E87831764FC3745009013056E
:100590004567EF309054B707008083A78700139713
:1005A00007018326C4FEC167FD17F58FBA9723267E
:1005B000F4FC0325C4FCEF208009B7E7ADDE93858A
:1005C000D7EA7155EF20503E8327C4FE85072326C6
:1005D000F4FE13054006EF205043A9BFAA882E83DE
:1005E00032872A88AE8763960620B74500909385A8
:1005F000C5746371C30CC1666377D60A933606105F
:1006000093C616008E063355D600AA9583C50500FD
:1006100013050002AE96B305D540630BD500B317A2
:10062000B300B3D6D8003317B600D58F3398B800CF
:100630009355070133D3B702131607014182B3F76D
:10064000B7021A85B308660293960701935708010B
:10065000D58F63FC1701BA971305F3FF63E7E70033
:1006600063F517011305E3FFBA97B3871741B3D8B2
:10067000B702420813580801B3F7B702B3061603CE
:10068000C2073368F800C687637BD8003A9893871F
:10069000F8FF6366E8006374D8009387E8FF4205BB
:1006A0005D8D8145828037050001C146E36DA6F46A
:1006B000E14691BF814609CAC167637FF608933658
:1006C000061093C616008E06B357D600BE9583C794
:1006D0000500B69793060002B385F6406395F608C9
:1006E000B307C34085459358070133DE170313163C
:1006F0000701418293560801B3F71703728533034C
:10070000C603C207D58F63FC6700BA971305FEFFC7
:1007100063E7E70063F567001305EEFFBA97B38759
:10072000674033D31703420813580801B3F7170380
:10073000B3066602C2073368F8009A87637BD80065
:100740003A989307F3FF6366E8006374D800930751
:10075000E3FF42055D8D8280B7070001C146E36576
:10076000F6F6E14695B73317B600B356F3001355C6
:1007700007013313B300B3D7F800B3E7670033D3EF
:10078000A6021316070141823398B800B3F6A602F9
:10079000B30866029395060193D60701CD8E9A851C
:1007A00063FC1601BA969305F3FF63E7E60063F571
:1007B00016019305E3FFBA96B3861641B3D8A60295
:1007C000C207C183B3F6A60233061603C206D58F4D
:1007D000C68663FCC700BA979386F8FF63E7E70015
:1007E00063F5C7009386E8FFBA97C205918FD58D50
:1007F000DDBD63E1D514C16763FFF60213B70610D0
:10080000134717000E07B7470090B3D5E60093874C
:10081000C774AE9783C70700BA9713070002B305E2
:10082000F7406311F7020545E3EE66E633B5C8000D
:10083000134515008280B70700014147E3E5F6FC48
:100840006147D1B73357F600B396B600D98E335708
:10085000F3003313B300B3D7F800B3E7670013D343
:100860000601B35E67021398060113580801331698
:10087000B60033776702330ED8031315070113D779
:100880000701498F7685637CC70136971385FEFF84
:100890006367D7006375C7011385EEFF369733078B
:1008A000C741335E6702C207C183337767023308EB
:1008B000C8034207D98F728763FC0701B6971307F5
:1008C000FEFF63E7D70063F507011307EEFFB69756
:1008D0004205416E598D9306FEFF3377D500B387ED
:1008E0000741F18E1358050141823303D702B30645
:1008F000D8023307C7023308C8023306D70013579C
:10090000030132976373D700729893560701C2961A
:1009100063E0D702E397D7D8C167FD177D8F420701
:100920003373F300B398B8001A978145E3FCE8D617
:100930007D1585BB8145014582803288AA872E8737
:100940006393061AB74800909388C87463F6C50A83
:10095000C166637CD6089336061093C616008E06D1
:100960003353D6009A9883C8080013030002C69632
:10097000B308D340630BD30033971501B356D500AA
:1009800033181601558FB317150113560801B356C6
:10099000C7021315080141813377C702B386A60247
:1009A0009315070113D707014D8F6378D70042973E
:1009B000636507016373D7004297158FB356C7026B
:1009C0003377C702B386A602C2074207C183D98F15
:1009D00063F8D700C29763E5070163F3D700C297B6
:1009E000958F33D517018145828037030001C146B9
:1009F000E36866F6E146ADB7814609CA41676374AC
:100A0000E6069336061093C616008E063357D600B8
:100A1000BA9803C70800369793060002B388E640E9
:100A2000639AE6043387C540935508013356B702ED
:100A300013150801418193D607013377B7023306B6
:100A4000A6024207558F6378C70042976365070186
:100A50006373C7004297118FB356B7023377B7025B
:100A6000B386A60295B737070001C146E360E6FAF0
:100A7000E14669BF33181601B3D6E500B317150177
:100A8000B39515013357E500135508014D8FB3D5C4
:100A9000A6021313080113530301B3F6A602B3858C
:100AA00065021396060193560701D18E63F8B600CE
:100AB000C29663E5060163F3B600C2968D8E33D607
:100AC000A60242074183B3F6A60233066602C206B7
:100AD000558F6378C7004297636507016373C7004A
:100AE0004297118F91B763EDD516416863F70605FC
:100AF00013B80610134818000E08B748009033D3F7
:100B000006019388C8749A9883C8080013030002EA
:100B1000C298330813416319130363E4B600636B8F
:100B2000C5003306C540B386D5403337C500B2870C
:100B30003387E6403E85BA858280B7080001414888
:100B4000E3ED16FB614855BFB3571601B396060196
:100B5000DD8E33D7150113DE0601335FC703139310
:100B6000060113530301B3970501B3551501DD8D3C
:100B700093D7050133160601331505013377C703F3
:100B8000B30EE3034207D98F7A8763FCD701B69788
:100B90001307FFFF63E7D70063F5D7011307EFFFE4
:100BA000B697B387D741B3DEC703C205C181B3F798
:100BB000C703768E3303D303C207DD8D63FC650064
:100BC000B695138EFEFF63E7D50063F56500138EBF
:100BD000EEFFB69593170701416FB3E7C701B385E1
:100BE00065401303FFFF33F76700135E0601C183FF
:100BF00033736600B30E6702338367023307C7039C
:100C0000B387C703330E670013D70E017297637360
:100C10006700FA97135307019A9741637D1333775F
:100C200067004207B3FE6E00769763E6F500639BAC
:100C3000F5006379E5003306C7403333C7009A9661
:100C40003287958F3307E5403335E5009D8D898DDB
:100C5000B39815013357070133E5E800B3D5050113
:100C60008280370710007D170111B377B70093D842
:100C70004601758F22CC26CA13D4450193D4F501C1
:100C8000939537009357D5011374F47FCD8F93F864
:100C9000F87F9315370006CE1357D6014AC84EC6C3
:100CA000FD824D8F0E050E06B30514416398D426C0
:100CB0006352B012639E0806B366C7006389065884
:100CC0009386F5FFB9EE2A96B336A6003E97B30792
:100CD000D700370780007D8F3285631307220544D4
:100CE0001377750001CF1377F50091466308D7009D
:100CF00013074500B336A700B6973A85B7058000BD
:100D0000FD8D638F055405041307F07F6304E40829
:100D1000370780FF7D17F98F0D819395D701C98D16
:100D2000D5A91308F07F639905071304F07F4DBF21
:100D30009306F07FE306D4FA9306800363C2B606F7
:100D4000B7068000558FAE86FD4563CED5041308E7
:100D500000023308D840B358D600B3150701331842
:100D60000601B3E515013338000133E60501B3563A
:100D7000D7003295BE963336C500B387C600370715
:100D800080007D8F31DF05041307F07F631BE416BD
:100D90001304F07F814791A293058003E3D6D5FA2F
:100DA00081460546F9B7938506FE93080002B355C0
:100DB000B700014863881601130800043308D840BF
:100DC000331807013368C8003338000133E60501E2
:100DD000814645B7DDC9B385884005E0B3E6A70085
:100DE000638506469386F5FFE38F06EC1308F07FD4
:100DF000639F0505BA8732850DBF9306F07FE38BAD
:100E0000D8FE9306800363C8B604B7068000D58F6A
:100E1000AE86FD4563C4D504130800023308D840EC
:100E2000B39507013353D50033180501B3E56500C9
:100E300033380001B3E50501B3D6D7002E96BA9634
:100E4000B335B6003285B387B60046840DBF93052F
:100E50008003E3D0D5FC81468545CDB7938506FE5A
:100E600013030002B3D5B700014863886600130876
:100E700000043308D840339807013368A80033389A
:100E80000001B3E50501814655BF9306140093F5B3
:100E9000E67FB1E5B3E6A70005E8638C063AB366E2
:100EA000C700E38F06E22A96B336A6003E97B30743
:100EB000D700370780007D8F3285E30307E23707CD
:100EC00080FF7D17F98F21BD95D6598EE30F06E47B
:100ED00081441304F07FB707080081452DAE9305C8
:100EE000F07FE387B6EA2A963335A6003E972A9725
:100EF0001315F7010582518D935717003684CDB332
:100F00000944370780FF7D17F98F135715000589AE
:100F1000498F1395F701598D8583D9B3635DB00C63
:100F2000639F0802B366C700638306329386F5FFAA
:100F300081EE3306C540B336C5003387E7403285BE
:100F4000B307D7400544B5A01308F07FE38F05DD54
:100F50009305800363D1D5028146054691A093068F
:100F6000F07FE30FD4D693068003E3C7B6FEB7063F
:100F70008000558FAE86FD4563C8D5041308000276
:100F80003308D840B358D600B3150701331806010B
:100F9000B3E515013338000133E60501B356D70038
:100FA0003306C5403337C500B386D7403285B38793
:100FB000E64037078000B3F6E700E38306D27D17EB
:100FC000B3F9E7002A8979AA938506FE93080002FF
:100FD000B355B700014863881601130800043308AD
:100FE000D840331807013368C8003338000133E6AE
:100FF0000501814675B7F9C53388884015E8B3E522
:10100000A700638B05249305F8FF91E93305A640FB
:101010001D8F3336A600B307C740B68425B7130328
:10102000F07F63136806BA8732851304F07F55A8F2
:101030009305F07FE389B8FE9305800363CA050535
:10104000B7058000CD8FC2857D486346B804130381
:1010500000023303B340335EB500339867003313A7
:1010600065003368C8013333600033656800B3D569
:10107000B7003305A640B305B7403336A600B387A3
:10108000C5404684B68435B713088003E35EB8FADA
:1010900081450545F9BF138805FE130E000233D8BC
:1010A000070101436388C501130300043303B34000
:1010B000339367003363A300333360003365680004
:1010C000814545BF9305140093F5E57FADE533E811
:1010D000A700B365C70029E463170800F1CDBA87FC
:1010E0003285B684F5BEE38D05BEB308C540B33581
:1010F00015013388E7403308B840B7058000B37561
:10110000B80089C93305A6401D8F3336A600B30742
:10111000C740C1BFB3E50801C5C1C2874685C9B68E
:1011200063180800638E0514BA873285B684F5BE4D
:10113000E38D05BE71BBB305C5403338B500B38937
:10114000E740B38909413708800033F809012E8947
:10115000630008063309A6401D8F33362601B30904
:10116000C740B684638C09044E85EF10C0409307D6
:1011700085FF930600029D8E3397F900B356D90080
:10118000D98EB319F90063CB870A818F85071307BE
:1011900000021D8F3395E60033D6F9003397E9003E
:1011A000518D3337E000598DB3D7F60001440DBEA1
:1011B000B3E53501C5F901448147C9A04A85EF105F
:1011C000803B930785017D47E355F7FA6115B31618
:1011D000A90063CA87023385874093071500E35847
:1011E000F7FA05151306000233D7A60001456387F9
:1011F000C700130500041D8D3395A6003335A000EC
:10120000598D814765B71D8CB70780FFFD17F58F96
:101210009395D7018D8352043707F07FB207B183CE
:10122000798C5D8CFE04B3679400F2406244D24432
:101230004249B2492E85BE85056182801D8CB70763
:1012400080FFFD17F58F4E8561BCBA8732852E84ED
:1012500041BCBA87328569B4BA873285428451B5B8
:101260001397D7010D819306F07F498F8D83631FFC
:10127000D4005D8FB7070800E30C07B0814461BF5D
:1012800081441304F07FB707080071B7BA8561B7CE
:1012900079715EC6B28B13D6450122D44AD04ECEA8
:1012A0005AC81394C50006D626D252CC56CA137615
:1012B000F67F2A8B3689318093D9F5013DCE93078D
:1012C000F07F6306F60C9356D5010E04C18EB70766
:1012D000800033EAF60093143500930A16C0014BE0
:1012E000935749011314C90093F7F77F31801359BD
:1012F000F901E9C31307F07F6388E7100E0413D7E1
:10130000DB01418F37048000598C139F3B0093868B
:1013100017C0814593172B00CD8F3386DA40FD1718
:10132000B94633C7290163E2F612B74600908A072F
:1013300093860671B6979C438287336AA400630242
:101340000A0605C82285EF100023930755FFF546CE
:10135000130785FF9D8E3314E400B356DB0033EA98
:1013600086003314EB001306D0C0B30AA640A28453
:10137000BDB7EF1040202A8A93075A017147130521
:101380000502E356F7FC611A331A4B01E9BF336AD1
:10139000A400630C0A00AA84228A930AF07F0D4BF2
:1013A00081B78144814A054B25BF8144930AF07F70
:1013B000094B3DB7336F740163010F061DC42285CD
:1013C000EF10601B130755FFF547930685FF998FB4
:1013D0003314D400B3D7FB00C18F3394DB009306E2
:1013E000D0C0228F898E3E842DB75E85EF10A01865
:1013F000AA8713875701F14613050502E3D6E6FCD9
:10140000E117B397FB00E1BF336F7401630B0F006B
:101410005E8F9306F07F8D45F5BD0144814685457D
:10142000D5BD01449306F07F8945EDB54E875284C2
:10143000268F89476306FB368D47630CFB3485474F
:101440006310FB240144814631AE6366440163149A
:101450008A2A63E2E42B9316FA0193D714001393BC
:10146000F401135A1A00B3E4F6002204935804015D
:10147000B35E1A0393558F01C18D1398050113585C
:10148000080193D7040113158F00B3761A03330EA6
:10149000D803C206D58FF68663FCC701AE97938644
:1014A000FEFF63E7B70063F5C7019386EEFFAE97D3
:1014B000B387C741B3DE1703C204C180B3F7170374
:1014C000330ED803C207DD8CF68763FCC401AE94EB
:1014D0009387FEFF63E7B40063F5C4019387EEFFD3
:1014E000AE94C206C163B3EFF600B384C441138E59
:1014F000F3FFB3F7CF0113DF0F01935E0501337ED6
:10150000C501B302FE023304CF0393D60201B387B1
:10151000FE02A297BE96330FDF0363F386001E9F81
:1015200093D70601FA97416F7D1FB3F6E601C20615
:10153000B3F2E201969663E7F4007E846392F404CA
:101540006370D304330FA300B3326F00B383B200D0
:101550009E941384FFFF7A8363E69500639295025D
:101560006390020263E6F400639C9700637ADF00F5
:101570002A9F7A83333FAF002E9F1384EFFFFA94A4
:10158000B306D3409D8C3333D300B38464407D5F76
:101590006388950EB3DF140393D70601B3F41403E5
:1015A0007E83330FF803C204C58F63FCE701AE9757
:1015B0001383FFFF63E7B70063F5E7011383EFFFD2
:1015C000AE97B387E74133DF1703C206C182B3F793
:1015D00017033308E803C207D58FFA8663FC0701B7
:1015E000AE979306FFFF63E7B70063F50701930625
:1015F000EFFFAE9742033363D30093160301C1821A
:1016000093580301338FC603B3870741338EC80352
:10161000B3881E03B38EDE0293560F01F29EF69638
:1016200063F4C6014168C29813D806014698C168A0
:10163000FD18B3F61601C206337F1F01FA9663E662
:1016400007011A8F639C070385CEAE97130FF3FF34
:10165000BE8863E1B70263E6070163910703637D18
:10166000D500130FE3FF13131500B338A300AE9892
:10167000BE981A85639408016384A600136F1F0047
:101680009307F63F635FF00693767F0081CE9376F3
:10169000FF0091456388B60093064F00B3B5E6019D
:1016A0002E94368FB7060001E18E99C6B70700FF6A
:1016B000FD177D8C930706409306E07F63C2F60E0C
:1016C0009316D401135F3F00B3E6E6010D803204A8
:1016D0003180D207B250C18F22547E0733E6E70033
:1016E00092540259F249624AD24A424BB24B368571
:1016F000B285456182807D16014385BB4A872E8B6A
:101700000DBB854589CB9D8D93068003E3CCB6D276
:10171000FD4663CBB6041306E641B357BF00331F43
:10172000CF00333FE0013316C400336FCF00B3E77F
:10173000E7013354B40093F6770081CE93F6F700B7
:1017400011466388C6009386470033B6F60032948C
:10175000B687B7068000E18EA9EA9316D4018D837F
:10176000DD8E0D808147A5B78556B387F6401305FA
:101770000002B357F40081466386A5001306E643D2
:10178000B316C400B3E6E601B336D000D58F0144EA
:101790005DB73704080081469307F07F014705BF16
:1017A000014481469307F07F1DB701448146854778
:1017B00039BF13D84501370710007D1713D34601F1
:1017C0001378F87F130EF07FB377B700AA88758F70
:1017D000FD811373F37FFD8205456305C801631E18
:1017E000C3018280631C0303D98FD18FB3E7170134
:1017F00095E7958D3335B00082800545631068020A
:10180000639EE700639CC8006389D50063180800E5
:10181000B3E717013335F00082800145828093D70A
:10182000460113D34501370710007D172A882A8EF9
:101830001373F37F13F5F77F9307F07FB378B70047
:10184000B28E758FFD81FD826313F302B3E8080148
:1018500063970808630665000545C9C17D55828008
:10186000518F795525EFE399D5FE014582806315A7
:10187000F502518F79553DE363080300E39ED5FCE3
:101880007D55A9CD2E858280B3E80801E39808FE36
:101890007D55A9C6368582806303030255DDE39D2D
:1018A000D5FAE34B65FAE34DA3FCE36717FBE39935
:1018B000E8FCE3E3CEFB01456372DE03D1B733E816
:1018C000080101C5E30608FC55BF598E11C6E301A6
:1018D00008FCE38CD5FC49B7E31008F88280795501
:1018E000828093D7460113D34501370710007D1737
:1018F0002A882A8E1373F37F13F5F77F9307F07FFF
:10190000B378B700B28E758FFD81FD826313F30249
:10191000B3E8080163970808630665000545C9C177
:101920007D558280518F094525EFE399D5FE01450C
:1019300082806315F502518F09453DE3630803007A
:10194000E39ED5FC7D55A9CD2E858280B3E80801A4
:10195000E39808FE7D55A9C636858280630303029D
:1019600055DDE39DD5FAE34B65FAE34DA3FCE36750
:1019700017FBE399E8FCE3E3CEFB01456372DE036A
:10198000D1B733E8080101C5E30608FC55BF598EFD
:1019900011C6E30108FCE38CD5FC49B7E31008F855
:1019A000828009458280797156CA93DA450122D432
:1019B00026D24ECE52CC5AC89394C50006D64AD0F1
:1019C0005EC693FAFA7F2A84328BB689B18013DA25
:1019D000F50163860A249307F07F638CFA288E044E
:1019E0009357D501C58FB7048000DD8C13193500DE
:1019F000938A1AC0814B13D749011394C9001377F6
:101A0000F77F318093D9F901630707289307F07FA7
:101A1000630CF72C0E049357DB01C18F3704800051
:101A20005D8C930617C093173B00014513972B005D
:101A3000B69A498FA94633463A0193851A0063C185
:101A4000E630894663C3E62C7D17854663FEE62CA7
:101A50004168930EF8FF9356090193D80701337933
:101A6000D90133FFD701B307E9033383E60313D565
:101A70000701338728031A973A95338E1603637349
:101A80006500429E135705013375D501B3F7D701A1
:101A900013580401B37ED40142053E95B30FD90318
:101AA000B387D60333092803338306033E9993D6BD
:101AB0000F01CA9663F4F600C1673E93C16393D7E2
:101AC00006019382F3FF3E93B3F75600B3FF5F0026
:101AD00013D90401B3F25400C207FE9733842803DC
:101AE0003E97B30F5F02B388580293D60F01330FAE
:101AF000E903FA98C69663F3E6011E94B3835E0287
:101B000013DF0601C164229F1384F4FFE18EC20635
:101B1000B3FF8F00B69FB30ED90393D60301B3086A
:101B2000280333085802769836986373D801A6982C
:101B3000B3768800B3F38300C20672979E963693FD
:101B4000B337F7009A97B336D30033B3670013580F
:101B50000801B3E66600C2963308F7013E9F3337AB
:101B6000E8007A973334FF00333FE7013364E40140
:101B7000369446949357770126045D8C931798000A
:101B8000C98FB337F000135878012607B3E7070170
:101B9000D98F37070001618F630F071A13D717001A
:101BA000858B5D8F9317F401D98F05809386F53F60
:101BB0006355D01A13F7770001CF13F7F7001145DB
:101BC0006308A700138747003335F7002A94BA87C4
:101BD00037070001618F19C7370700FF7D17798C20
:101BE000938605401307E07F6348D7201317D4017D
:101BF0008D835D8F0D8032043180D206B250C18E4C
:101C000022547E06B3E7C60092540259F249624A52
:101C1000D24A424BB24B3A85BE854561828033E958
:101C2000A4006301090685C82685EF00D0141307B8
:101C300055FFF547930685FF998FB394D400B357AA
:101C4000F400C58FB314D400930AD0C02689B38A98
:101C5000AA40BE8445B3EF001012AA87138757012C
:101C6000F14613050502E3D6E6FCE117B317F400CD
:101C7000E1BF33E9A400630B09002A89930AF07FCE
:101C80008D4B95BB8144814A854BB5B38144930A02
:101C9000F07F894B8DB3B3676401B9CF1DC4228532
:101CA000EF00700D930655FF7547930785FF158F5D
:101CB0003314F4003357EB00418F3314FB009306C9
:101CC000D0C0A287898E3A848DB35A85EF00B00ABE
:101CD000AA8793865701714713050502E356D7FC7F
:101CE000E1173317FB00E1BFB367640191CBDA87DB
:101CF0009306F07F0D451DBB0144814605453DB36C
:101D000001449306F07F094515B38546B396E60076
:101D100013F706530DEF13F806246315080C93F61A
:101D20008608E38706D24E8609476307E50C0D4710
:101D30006300E50C0547E31BE5E601440147ADA858
:101D4000BD466307D70AAD465286E30ED7FC26840C
:101D5000CA875E85D1BFD68591BD054589CA158DD7
:101D600013078003E34BA7FC7D476349A7049385D2
:101D7000E54133D7A700B397B700B337F000B315E9
:101D8000B400CD8FD98F3354A40013F7770001CF5F
:101D900013F7F70091466308D70013874700B3365F
:101DA000F7003694BA8737078000618F39EB131735
:101DB000D4018D835D8F0D80814635BD0557158F0C
:101DC000130800023357E40081466306050193853A
:101DD000E543B316B400DD8EB336D000B367D70049
:101DE000014465B7370408009306F07F014621B52A
:101DF000370408000147CDBF014401479306F07F37
:101E0000DDBB014401478546FDB3370810007D184E
:101E10000111B378B80013D745019357D50122CCEF
:101E200026CA1374F77F93D4F50113973800B3755E
:101E3000D80013D84601D98F8E051357D60106CE88
:101E40004AC84EC61378F87F9308F07F0E05FD82CE
:101E50004D8F0E0663101807B368C70093051480F2
:101E6000638C080036836391D436638D051E63133B
:101E7000045C1304F07F59AA13C31600639E6434F4
:101E80006382051E7DD4814701451304F07FB706A8
:101E90008000FD8E6385065A05041307F07F630DED
:101EA000E40C370780FF7D17F98F0D819396D701DA
:101EB000C98EA9A313C31600B3050441639D642210
:101EC000635CB00E631A0804B366C70063870656E6
:101ED0009386F5FF8DEE2A96B336A6003E97B3079C
:101EE000D700370780007D8F32856318071E0544B1
:101EF0001377750049DF1377F5009146E309D7F8AA
:101F000013074500B336A700B6973A8549B76397DC
:101F100015071304F07FE9BFE30C14FD930680035B
:101F200063C2B606B7068000558FAE86FD4563CE08
:101F3000D504130800023308D840B358D600B315AF
:101F4000070133180601B3E515013338000133E604
:101F50000501B356D7003295BE963336C500B38718
:101F6000C600370780007D8F41D705041307F07F37
:101F70006316E4161304F07F81472DAA93058003AE
:101F8000E3D6D5FA81460546F9B7938506FE930850
:101F90000002B355B7000148638816011308000416
:101FA0003308D840331807013368C80033380001BC
:101FB00033E60501814645B7D5C5B306884031C42F
:101FC0009305800363C6D506B7058000CD8FFD4518
:101FD00063C3D50693080002B388D840B3951701B0
:101FE0003353D500B3181501B3E56500B3381001BC
:101FF000B3E51501B3D6D7002E96BA96B335B60021
:102000003285B387B6004284A9BF3684B3E6A70001
:1020100089CA9306F4FFE38006EC9305F07F63150D
:10202000B400BA873285E9B593058003E3D1D5FAC8
:1020300081468545D1B7938506FE13030002B3D5CB
:10204000B70081486388660093080004B388D840CD
:10205000B3981701B3E8A800B3381001B3E5150130
:10206000814659BF9306140093F5E67FB1E5B3E6C8
:10207000A7001DE4DDD6B366C700E38B06E62A960B
:10208000B336A6003E97B307D700370780007D8F91
:102090003285E30F07E4370780FF7D17F98F81BD95
:1020A000638A0638598EE30606E681441304F07FFE
:1020B000B70708008146A1A69305F07FE38CB6EA36
:1020C0002A963335A6003E972A971315F701058205
:1020D000518D93571700368421BD0944370780FF7F
:1020E0007D17F98F135715000589498F1395F7014F
:1020F000598D8583F5BB6359B00E631D0802B36625
:10210000C700638C06329386F5FF81EE3306C54027
:10211000B336C5003387E7403285B307D74005445F
:1021200095A0E38815DF9305800363DFD500814622
:10213000054681A0E30E14DB93068003E3C9B6FED7
:10214000B7068000558FAE86FD4563C8D5041308D9
:1021500000023308D840B358D600B315070133182E
:102160000601B3E515013338000133E60501B35626
:10217000D7003306C5403337C500B386D740328514
:10218000B387E64037078000B3F6E700E38206D660
:102190007D17B3F9E7002A8965AA938506FE93089F
:1021A0000002B355B7000148638816011308000404
:1021B0003308D840331807013368C80033380001AA
:1021C00033E60501814675B7FDC521C4BA8732855E
:1021D0001304F07FB68429BBF9CD21C081470145A6
:1021E0001304F07F9A8465B1F9C5B306884039E0DD
:1021F0009A843684B3E6A700E38506E29306F4FFEB
:1022000099EE3305A6401D8F3336A600B307C740AD
:1022100039B7B6841304F07FF1BF9A84E5BF930504
:10222000F07FE300B4E09305800363DDD5008146D1
:10223000854535A89305800363CDD506B705800095
:10224000CD8F9A84FD4563CFD50293080002B388F1
:10225000D840B39517013353D500B3181501B3E532
:102260006500B3381001B3E51501B3D6D700B30547
:10227000B640B306D7403336B6002E85B387C64086
:10228000428409B7938506FE13030002B3D5B70055
:1022900081486388660093080004B388D840B398E7
:1022A0001701B3E8A800B3381001B3E51501814662
:1022B0007DBF9A84ADBF9306140093F6E67FBDE21E
:1022C000B366C700B3E5A70021E499E56389061862
:1022D000BA8732859A8429B9E38C06C03308C54091
:1022E000B3360501B385E740958DB7068000ED8EC6
:1022F00089CA3305A6401D8F3336A600B307C740F1
:10230000D1BFB366B800638C0614AE874285CDB6E4
:1023100099E563880614BA8732859A84DDBEE38A1C
:1023200006BE61B3B306C540B335D500B389E740F7
:10233000B389B940B7058000B3F5B9003689B1CD8E
:102340003309A6401D8F33362601B309C7409A844E
:10235000638B09044E850524930785FF93060002CD
:102360009D8E3397F900B356D900D98EB319F90071
:1023700063CB870A818F8507130700021D8F339572
:10238000E60033D6F9003397E900518D3337E0008A
:10239000598DB3D7F6000144A1BEB3E63601CDFA9C
:1023A000814701445DA84A85F922930785017D474D
:1023B000E356F7FA6115B316A90063CA870233859D
:1023C000874093071500E359F7FA05151306000235
:1023D00033D7A60001456387C700130500041D8D90
:1023E0003395A6003335A000598D81476DB71D8CFC
:1023F000B70780FFFD17F58F9396D7018D831317CD
:1024000044013706F07FB207F2406244718FB18316
:10241000FE04D98F33E797004249D244B24936854A
:10242000BA85056182801D8CB70780FFFD17F58F87
:102430004E857DBCBA873285E9BC2E8455BC139786
:10244000D7010D811306F07F498F8D836311C4027C
:102450005D8FB7070800E30F07B081444DB7814790
:10246000EDBF81441304F07FB707080049BFBA8667
:1024700079B7B7071000FD1733F7B700D181F58F93
:1024800093F5F57FD1821308F07F93F6F67F63957D
:102490000501498F054509EB1307F07F0145639559
:1024A000E600D18F3335F000828013D74501B7069F
:1024B00010009387F6FF1377F77F1306E03FED8F49
:1024C000FD816355E6041306D0416358E6003705E5
:1024D00000801345F5FF2E958280D58F93063043FB
:1024E000998E7D46634DD6001307D7BEB397E7009C
:1024F0003355D5005D8D81CD3305A0408280930694
:1025000030413387E64033D5E700F5B70145828097
:10251000411106C622C426C221CD9357F54133C4CA
:10252000A7001D8C9354F5012285B1201307E041CB
:10253000A947098F63C8A702AD47898F5505B357CF
:10254000F4003314A4002685B207B18352077E0538
:102550005D8FB240B367A700228522449244BE85B6
:10256000410182805515B317A40026850144E9BFB7
:1025700001478147E5BFC1676376F50293370510D0
:1025800093C717008E0737470090930600029D8E71
:102590003355F5009307C774AA9703C50700338521
:1025A000A640828037070001C147E36EE5FCE147A2
:1025B000D9BF011122CE00102326A4FE2324B4FE8D
:1025C0008327C4FE032784FE98C30100724405617B
:1025D0008280011122CE00102326A4FE8327C4FE90
:1025E0009C433E85724405618280411106C622C427
:1025F00000088145370500A06D3F8145B70700A061
:10260000138547007D378145B70700A013858700F4
:102610004D37FD55B70700A013850701593FB70790
:1026200000049385F7FFB70700A0138547015137D2
:102630008145B70700A013858701A53F0145952A6D
:10264000014531200100B24022444101828079716C
:1026500006D622D40018232EA4FC8327C4FD93F7AA
:10266000F70FBD8BA307F4FE8327C4FD918393F777
:10267000F70FBD8B2307F4FE8327C4FDA18393F7D7
:10268000F70FBD8BA306F4FE8327C4FDB18393F738
:10269000F70FBD8B2306F4FE8327C4FDC18393F798
:1026A000F70FBD8BA305F4FE8327C4FDD18393F7F9
:1026B000F70FBD8B2305F4FE8347F4FE37570090D8
:1026C0001307C784BA9783C70700A307F4FE83479D
:1026D000E4FE375700901307C784BA9783C70700F3
:1026E0002307F4FE8347D4FE375700901307C784AF
:1026F000BA9783C70700A306F4FE8347C4FE375783
:1027000000901307C784BA9783C707002306F4FE17
:102710008347B4FE375700901307C784BA9783C71F
:102720000700A305F4FE8347A4FE37570090130764
:10273000C784BA9783C707002305F4FE8347C4FE06
:10274000139787018347D4FEC2075D8F8347E4FE5A
:10275000A2075D8F8347F4FED98F2322F4FE8325E1
:1027600044FE370500A0B135B70700A01385470028
:102770008D352322A4FE032744FEC177F98F23223F
:10278000F4FE8347A4FE13978700832744FE5D8FE2
:102790008347B4FED98F2322F4FE832544FEB70776
:1027A00000A01385470031350100B2502254456125
:1027B0008280797106D622D40018232EA4FC8327A8
:1027C000C4FD93F7F73F232EF4FCB70700A0138551
:1027D000470001352326A4FE0327C4FEB70701FCEA
:1027E000FD17F98F2326F4FE8327C4FDC2070327B4
:1027F000C4FED98F2326F4FE8325C4FEB70700A0AC
:10280000138547007D330100B25022544561828018
:10281000011106CE22CC0010B70700A01385870057
:102820004D3B2326A4FE8327C4FE93C7F7FFA9834D
:10283000858B2326F4FE8327C4FE3E85F240624446
:1028400005618280011106CE22CC0010B70700A0DE
:1028500013858700BD3B2326A4FE8327C4FE93F780
:10286000F73F2326F4FE8327C4FE3E85F2406244F0
:1028700005618280411106C622C400089305300517
:102880000145CD2821469305D0020145852A010046
:10289000B240224441018280797106D622D40018C8
:1028A000232EA4FC232CB4FC232AC4FC930784FE0F
:1028B000BE8619469305200301454524834784FEBF
:1028C0003E87834794FEA207C207C183BA97C20717
:1028D000C1831397070141878327C4FD2390E70035
:1028E0008347A4FE3E878347B4FEA207C207C18385
:1028F000BA97C207C183139707014187832784FDD5
:102900002390E7008347C4FE3E878347D4FEA20797
:10291000C207C183BA97C207C183139707014187D2
:10292000832744FD2390E7000100B2502254456103
:102930008280011122CE00102326A4FEAE87A305BB
:10294000F4FE8327C4FE0347B4FE2380E7000100A2
:10295000724405618280011122CE00102326A4FE5C
:102960008327C4FE83C7070093F7F70F3E857244A1
:1029700005618280011106CE22CC00102326A4FE20
:10298000AE87A305F4FE8327C4FE81E7B70700D016
:1029900029A0B70700D093870710930570023E85E2
:1029A000493F8327C4FE89E7B70700D0910729A0D4
:1029B000B70700D09387471081453E859D3F832709
:1029C000C4FE89E7B70700D0A10729A0B70700D048
:1029D00093878710930500083E85A13FB7070080C5
:1029E000138707008327C4FEBA970347B4FE2380EA
:1029F000E7000100F240624405618280011106CEC9
:102A000022CC00102326A4FEAE873287A305F4FE55
:102A1000BA872305F4FE8327C4FE89E7B70700D0F1
:102A2000B10729A0B70700D09387C71037070080E8
:102A3000930607000327C4FE3697034707000607DF
:102A40001377F70FBA853E85ED358327C4FE89E7F6
:102A5000B70700D0C10729A0B70700D09387071197
:102A6000930500093E85F135010001008327C4FE6E
:102A700089E7B70700D0C10729A0B70700D093871F
:102A800007113E85C93DAA87898BEDF38327C4FED4
:102A900089E7B70700D0B10729A0B70700D093870F
:102AA000C7100347B4FEBA853E8561358327C4FE4F
:102AB00089E7B70700D0C10729A0B70700D09387DF
:102AC0000711C1453E85B535010001008327C4FECD
:102AD00089E7B70700D0C10729A0B70700D09387BF
:102AE00007113E858D3DAA87898BEDF38327C4FEB0
:102AF00089E7B70700D0B10729A0B70700D09387AF
:102B0000C7100347A4FEBA853E8525358327C4FE3A
:102B100089E7B70700D0C10729A0B70700D093877E
:102B20000711930500053E85293501000100832723
:102B3000C4FE89E7B70700D0C10729A0B70700D0B6
:102B4000938707113E85013DAA87898BEDF301002C
:102B50000100F240624405618280797106D622D478
:102B600026D20018232EA4FCAE873287232AD4FC59
:102B7000A30DF4FCBA87230DF4FC8327C4FD89E779
:102B8000B70700D0B10729A0B70700D09387C710B7
:102B900037070080930607000327C4FD36970347D5
:102BA000070006071377F70FBA853E855933832749
:102BB000C4FD89E7B70700D0C10729A0B70700D037
:102BC00093870711930500093E85A5330100010095
:102BD0008327C4FD89E7B70700D0C10729A0B7073D
:102BE00000D0938707113E85BD33AA87898BEDF30B
:102BF0008327C4FD89E7B70700D0B10729A0B7072D
:102C000000D09387C7100347B4FDBA853E851533BE
:102C10008327C4FD89E7B70700D0C10729A0B707FC
:102C200000D093870711C1453E8521330100010083
:102C30008327C4FD89E7B70700D0C10729A0B707DC
:102C400000D0938707113E853933AA87898BEDF32E
:102C50008327C4FD89E7B70700D0B10729A0B707CC
:102C600000D09387C710370700809306070003271B
:102C7000C4FD36970347070006071377F70F0507CC
:102C80001377F70FBA853E856D318327C4FD89E739
:102C9000B70700D0C10729A0B70700D09387071155
:102CA000930500093E857131010001008327C4FDB1
:102CB00089E7B70700D0C10729A0B70700D09387DD
:102CC00007113E854939AA87898BEDF3854723266D
:102CD000F4FEADA88327C4FD89E7B70700D0C1077C
:102CE00029A0B70700D093870711930500023E85FE
:102CF0008931010001008327C4FD89E7B70700D0AF
:102D0000C10729A0B70700D0938707113E85A131DD
:102D1000AA87898BEDF38327C4FD89E7B70700D025
:102D2000B10729A0B70700D09387C710832444FDBB
:102D300013871400232AE4FC3E853139AA872380B7
:102D4000F4008327C4FE85072326F4FE8347A4FDF1
:102D50000327C4FEE360F7F88327C4FD89E7B707BC
:102D600000D0C10729A0B70700D0938707119305AA
:102D700080063E857D3E010001008327C4FD89E772
:102D8000B70700D0C10729A0B70700D09387071164
:102D90003E85D136AA87898BEDF38327C4FD89E769
:102DA000B70700D0B10729A0B70700D09387C71095
:102DB000832444FD13871400232AE4FC3E85613EEE
:102DC000AA872380F4000100B25022549254456136
:102DD0008280011122CE00102326A4FE2324B4FEFB
:102DE0008327C4FE032784FE98C301007244056153
:102DF0008280011122CE00102326A4FE8327C4FE68
:102E00009C433E85724405618280011122CE0010F0
:102E10002326A4FE8327C4FE83C7070093F7F70F7A
:102E20003E85724405618280011106CE22CC0010DD
:102E30008147739007BFB7476587938717327390B1
:102E400087BFB7D7ED1F938797BA739097BFB757D0
:102E50007698938727437390A7BFB7E7FE219387A0
:102E6000A7CB7390B7BFFD57739047BFFD577390C3
:102E700027BFB76787A9938737547390C7BFB7F742
:102E80001F329387B7DC7390D7BFB77798BA938711
:102E900047657390E7BFB70722439387C7ED7390E9
:102EA000F7BFFD57739057BFFD57739037BFF32798
:102EB00040302326F4FE8327C4FE93E7070873906F
:102EC0004730F32700302324F4FE832784FE93E762
:102ED000870073900730A545B70700491385470061
:102EE000CD3D8145B707004913858700DD35814514
:102EF000B70700491385C700E93DB717030093855D
:102F000007D4B707004913850701E1358145B707A5
:102F1000004913854701753D954537050049553DE5
:102F20008545B70700C01385470065358145B7075C
:102F300000C013854700713D0100F2406244056105
:102F40008280411106C622C426C20008B70700804D
:102F500083A747003E85EFF0DF85EFF07F8BAA87E0
:102F600091EFEFF03F8E2A87B707008083A74700D5
:102F70003E97B707008023A2E70031A8B70700807B
:102F800083A44700EFF01F8CAA873387F440B7076C
:102F9000008023A2E70037050049A13DAA87BE852E
:102FA000370500493D350100B240224492444101B9
:102FB00082800971232E1116232C811600032326EB
:102FC000A4E8B747009013870750930784E9BA86AF
:102FD000130700143A86B6853E85EF102035032787
:102FE000C4E8914763E4E700954711A09147232483
:102FF000F4FE232604FE19AA0327C4E8BA878A0729
:10300000BA970327C4FEBA978A07C117A29783A766
:1030100087EA2322F4FE832744FE85072320F4FE5B
:10302000032744FEFD4763E0E708F32760BF232C36
:10303000F4FC832784FD032744FE85463397E6008E
:10304000F98FE1C3032704FEFD4763E4E70283270A
:1030500004FE0547B317F700BE85B70700C0138508
:103060004700853B8145B70700C01385470095336E
:103070001DA0832704FE81170547B317F700BE85FF
:10308000B70700C013858700A9338145B70700C083
:10309000138587003D3B832744FE0547B317F700A0
:1030A000739067BFB9A8F32770BF232EF4FC832762
:1030B000C4FD032744FE011785463397E600F98FC8
:1030C0008DCB032744FE9307F0036304F7028327A5
:1030D00004FE81170547B317F700BE85B70700C088
:1030E00013858700FD318145B70700C01385870030
:1030F000CD31832744FE81170547B317F70073903E
:1031000077BF8327C4FE85072326F4FE0327C4FE6A
:10311000832784FEE362F7EE010001008320C117DC
:103120000324811719618280797106D622D4001890
:10313000F32760BF2326F4FE8327C4FE2324F4FE76
:10314000F32770BF2322F4FE832744FE2320F4FEDE
:10315000F32700BF232EF4FC8327C4FD232CF4FCAB
:10316000032784FD85476317F702832784FE858B39
:1031700095C7B70700B0138517004139AA87858B1B
:1031800091C701248547739067BF09A8032584FD73
:103190000D3529A0032584FD293D11A00100010062
:1031A000B250225445618280011122CE00102326A4
:1031B000A4FE2324B4FE8327C4FE032784FE98C301
:1031C0000100724405618280011122CE0010F327B4
:1031D00010302326F4FE8327C4FE2324F4FE832725
:1031E00084FE93F7070291C7B757FE009387B70293
:1031F00029A0B7373101938707D02322F4FE832714
:1032000044FE3E85724405618280597186D6A2D4FF
:10321000CAD2CED0D2CED6CCDACADEC88018232EFF
:10322000A4F85D37232EA4FCF32700B0232CF4FC74
:10323000832784FD2328F4FC232A04FCF32700B809
:103240002326F4FC8327C4FC2320F4FC232204FC63
:10325000832704FC939B0700014B032604FD832670
:1032600044FD33076601BA85B3B5C500B38776015F
:10327000B386F500B687232CE4FA232EF4FAF3275D
:1032800000B0232AF4FA832744FB2328F4FC232AE2
:1032900004FCF32700B82328F4FA832704FB232037
:1032A000F4FC232204FC832704FC939A0700014AC0
:1032B000032604FD832644FD33074601BA85B3B5D2
:1032C000C500B3875601B386F500B6872324E4FA18
:1032D0002326F4FA0327C4F98327C4FD3307F70232
:1032E0009307803EB357F7023E898149032684FB4A
:1032F0008326C4FB3307C900BA85B3B52501B3875C
:10330000D900B386F500B6878326C4FA3E86E3E883
:10331000C6F68326C4FA3E866398C600832684FADE
:10332000BA8763F3F600A1BF01000100B65026542E
:1033300016598659764AE64A564BC64B65618280D5
:10334000011122CE00102326A4FEAE87A305F4FEB1
:103350008327C4FE0347B4FE2380E70001007244C4
:1033600005618280011122CE00102326A4FE83274E
:10337000C4FE83C7070093F7F70F3E8572440561CB
:103380008280411106C622C40008E528AA873E872C
:10339000B707008023A4E700B707008083A7870052
:1033A00093F7F70F3E855D20B707008003A78700DE
:1033B000B5476314F700294551280100B240224463
:1033C00041018280011106CE22CC0010F53B23265C
:1033D000A4FE0327C4FEB7373101938707D0631FCC
:1033E000F7009545B70700B013852700913F994531
:1033F000B70700B013853700A13729A89145B70753
:1034000000B0138527002D3F9945B70700B01385FD
:1034100037003D3793050004B70700B01385170048
:103420000537B7070080373700901307C74423A636
:10343000E700B7070080373700901307274823AA13
:10344000E7000100F240624405618280011106CE6E
:1034500022CC0010AA87A307F4FE0100B70700B032
:10346000138517000137AA87898BEDDB8347F4FEAC
:10347000BE85370500B0E9350100F24062440561C0
:103480008280411106C622C400080100B70700B0BF
:1034900013851700C13DAA87858BEDDB370500B08A
:1034A000D135AA873E85B24022444101828079719C
:1034B00006D622D40018232CA4FC232EB4FC2326E9
:1034C00004FEBDA8B747009003A6076E83A6476E0B
:1034D000032584FD8325C4FDEFE06FB4AA8763CA8A
:1034E0000702B747009003A6076E83A6476E032521
:1034F00084FD8325C4FDEFD0BFD92A87AE87232C56
:10350000E4FC232EF4FC8327C4FE95072326F4FE57
:1035100005A8B747009003A6876E83A6C76E03254C
:1035200084FD8325C4FDEFD0BFD62A87AE87232C28
:10353000E4FC232EF4FC8327C4FE85072326F4FE37
:10354000B747009003A6876E83A6C76E032584FD48
:103550008325C4FDEFE0AFACAA87E3D507F6BDA88D
:10356000B747009003A6076F83A6476F032584FD26
:103570008325C4FDEFE0EFB6AA8763DA0702B747F9
:10358000009003A6076E83A6476E032584FD83255E
:10359000C4FDEFE04FC12A87AE87232CE4FC232E25
:1035A000F4FC8327C4FEED172326F4FE05A8B747D5
:1035B000009003A6876E83A6C76E032584FD83252E
:1035C000C4FDEFE04FBE2A87AE87232CE4FC232EF8
:1035D000F4FC8327C4FEFD172326F4FEB7470090B2
:1035E00003A6876F83A6C76F032584FD8325C4FDCB
:1035F000EFE02FAFAA87E3C507F68327C4FE3E8519
:10360000B250225445618280797106D622D40018C6
:10361000232EA4FCB747009003A7876F83A7C76F2B
:103620002324E4FE2326F4FEADA00327C4FD914726
:1036300063DAE702B747009003A6076E83A6476EDA
:10364000032584FE8325C4FEEFE0EFB52A87AE870D
:103650002324E4FE2326F4FE8327C4FDED17232E46
:10366000F4FC05A8B747009003A6876E83A6C76E33
:10367000032584FE8325C4FEEFE0EFB22A87AE87E0
:103680002324E4FE2326F4FE8327C4FDFD17232E06
:10369000F4FC8327C4FDE34AF0F8ADA00327C4FD82
:1036A000F157635AF702B747009003A6076E83A647
:1036B000476E032584FE8325C4FEEFD07FBD2A8795
:1036C000AE872324E4FE2326F4FE8327C4FD95075A
:1036D000232EF4FC05A8B747009003A6876E83A6A7
:1036E000C76E032584FE8325C4FEEFD07FBA2A87E8
:1036F000AE872324E4FE2326F4FE8327C4FD85073A
:10370000232EF4FC8327C4FDE3CA07F8032784FEB5
:103710008327C4FE3A85BE85B2502254456182801B
:103720001D7186CEA2CCA6CACAC8CEC6D2C4D6C285
:103730008010232EA4FA2328B4FA232AC4FA232CB7
:10374000D4FABA87A307F4FA232E04FC232C04FC32
:10375000A30B04FC232804FC032604FB832644FB60
:10376000032504FB832544FBEFE0BFD0AA8781CB70
:10377000B74700909387876A2328F4FC6DAE8327B0
:1037800084FB63D507009947232CF4FA0146814650
:10379000032504FB832544FBEFE0AF94AA8763D3A2
:1037A0000702032A04FB032744FBB7070080B34A40
:1037B000F700232844FB232A54FB9307D002A30BD2
:1037C000F4FC29A09307B002A30BF4FC032904FB2B
:1037D000032744FBB707008093C7F7FFB379F700CF
:1037E0008544B747009003A6077083A647704A85B3
:1037F000CE85EFE01FC8AA8799EFB747009003A6D0
:10380000077083A647704A85CE85EFE08F8DAA8723
:103810006353F000814493F7F40F93C7170093F7B5
:10382000F70F81CBB74700909387C76A2328F4FC32
:10383000A9AA0307F4FA930760066310F708832721
:1038400084FBB307F0403E85C1332A87AE87B74675
:10385000009003A6867083A6C6703A85BE85EFD019
:103860003FA32A87AE873A86BE86032504FB8325BD
:1038700044FBEFD00FBF2A87AE872328E4FA232A20
:10388000F4FA032504FB832544FB1531232CA4FC07
:10389000832784FD63D40700232C04FC032784FDC5
:1038A000832784FB3E97F14763D1E70EB74700902B
:1038B0009387076B2328F4FCC9A80146814603259A
:1038C00004FB832544FBEFD0DFEEAA87DDCF032581
:1038D00004FB832544FBE13E2A87832784FBB3074F
:1038E000F7403E8515332A87AE87B746009003A67A
:1038F000867083A6C6703A85BE85EFD07F992A87E9
:10390000AE873A86BE86032504FB832544FBEFD0B1
:103910004FB52A87AE872328E4FA232AF4FA032531
:1039200004FB832544FB6136232EA4FC0327C4FD3E
:103930009307300663C7E700032784FBE54763D995
:10394000E700B74700909387076B2328F4FC35A85E
:103950000327C4FD9307D0F96356F7009307D0F906
:10396000232EF4FC0325C4FD45312A87AE873A8611
:10397000BE86032504FB832544FBEFD07F912A8775
:10398000AE872328E4FA232AF4FA832704FD6394FC
:10399000071A030774FD9307D002631CF7008327FF
:1039A000C4FB13871700232EE4FA034774FD23801A
:1039B000E700032584FD89392324A4FC2326B4FCD5
:1039C000032684FC8326C4FC032504FB832544FBD7
:1039D000EFD01F8C2A87AE873A85BE85EFE0FFAC1B
:1039E000AA872322F4FC032544FCEFE07FB22A8758
:1039F000AE87032684FC8326C4FC3A85BE85EFD0BF
:103A00009FFA2A87AE873A86BE86032504FB832564
:103A100044FBEFE08FBF2A87AE872328E4FA232AEE
:103A2000F4FA032784FDFD57631CF7008327C4FBCA
:103A300013871700232EE4FA1307E0022380E70020
:103A4000832744FC93F7F70F9387070393F6F70F49
:103A50008327C4FB13871700232EE4FA13978601EC
:103A600061872380E700832784FDFD17232CF4FC66
:103A7000832784FBB307F040032784FDE35BF7F261
:103A80000307F4FA930760066307F70A8327C4FB6A
:103A900013871700232EE4FA0347F4FA2380E70084
:103AA0008327C4FD63D307028327C4FDB307F04017
:103AB000232EF4FC8327C4FB13871700232EE4FA7C
:103AC0001307D0022380E70019A88327C4FB1387BC
:103AD0001700232EE4FA1307B0022380E700032720
:103AE000C4FDA947B347F70293F7F70F938707037E
:103AF00093F6F70F8327C4FB13871700232EE4FAEE
:103B00001397860161872380E7000327C4FDA94737
:103B1000B367F70293F7F70F9387070393F6F70F4F
:103B20008327C4FB13871700232EE4FA139786011B
:103B300061872380E700832704FDB9C3830774FDF1
:103B400099CB8327C4FB13871700232EE4FA03477E
:103B500074FD2380E700032704FD93071700232843
:103B6000F4FC8327C4FB93861700232ED4FA0307A3
:103B700007002380E700832704FD83870700E1FF18
:103B80008327C4FB238007000100F6406644D64427
:103B90004649B649264A964A25618280011106CED9
:103BA00022CC00102326A4FE2324B4FE032784FE87
:103BB000A9476316F700B5450325C4FEC53783271B
:103BC000C4FE99C78327C4FE032584FE829735A0CF
:103BD000B707008083A707018DC3B707008083A7BD
:103BE000070193861700370700802328D700032793
:103BF00084FE620761872380E7000100F24062448F
:103C000005618280357106CF22CD4ACB4EC952C79D
:103C100056C55AC35EC1E2DEE6DC00112326A4F6D7
:103C20002324B4F62322C4F6832784F613871700CF
:103C30002324E4F683C70700A309F4FA830734FBBF
:103C4000638D0766030734FB930750026309F7008F
:103C5000830734FBBE850325C4F68937B1AD232025
:103C600004FC832704FC232EF4FA93070002A30527
:103C7000F4FAFD57232AF4FA832784F613871700F2
:103C80002324E4F683C70700A309F4FA030734FBEF
:103C9000930700036311F70293070003A305F4FAE7
:103CA000832784F6138717002324E4F683C70700CD
:103CB000A309F4FA25A0030734FB9307D002631F7E
:103CC000F7008947232EF4FA832784F61387170019
:103CD0002324E4F683C70700A309F4FA030734FB9F
:103CE0009307A002631FF706832744F61387470054
:103CF0002322E4F69C43232CF4FA832784FB63DB22
:103D00000700832784FBB307F040232CF4FA89478C
:103D1000232EF4FA832784FB2320F4FC832784F6E4
:103D2000138717002324E4F683C70700A309F4FAD6
:103D3000A9A0032704FCBA878A07BA9786073E879B
:103D4000830734FBBA97938707FD2320F4FC83276E
:103D500084F6138717002324E4F683C70700A3091A
:103D6000F4FA030734FB9307F00263D8E700030774
:103D700034FB93079003E3DEE7FA030734FB930772
:103D8000E002631DF708832784F6138717002324B6
:103D9000E4F683C70700A309F4FA030734FB93078B
:103DA000A0026316F702832744F6138747002322F5
:103DB000E4F69C43232AF4FA832784F6138717003A
:103DC0002324E4F683C70700A309F4FA81A8232A71
:103DD00004FA0DA8032744FBBA878A07BA97860717
:103DE0003E87830734FBBA97938707FD232AF4FAAB
:103DF000832784F6138717002324E4F683C707007C
:103E0000A309F4FA030734FB9307F00263D8E70031
:103E1000030734FB93079003E3DEE7FA030734FB61
:103E20009307C0066318F7048327C4FB93E7470092
:103E3000232EF4FA832784F6138717002324E4F64D
:103E400083C70700A309F4FA030734FB9307C006EE
:103E50006312F7028327C4FB93E78700232EF4FA4B
:103E6000832784F6138717002324E4F683C707000B
:103E7000A309F4FA830734FB63830744830734FB05
:103E80009387B7FB130730036365F71C139727006D
:103E9000B75700909387C785BA979C438287894715
:103EA0002326F4FC75AAA1472326F4FC55AAA947AA
:103EB0002326F4FC75A2C1472326F4FC55A28327D0
:103EC00044F6138747002322E4F69C43E207E18788
:103ED000BE850325C4F6D931C5A6832744F61387CA
:103EE00047002322E4F69C432326F4FA8327C4FAEE
:103EF00099E7B74700909387476B2326F4FA032589
:103F0000C4FA852B2322A4FC832744FB63C8070241
:103F1000832744FB032744FC63F2E702832744FB27
:103F20002322F4FC21A88307B4FABE850325C4F636
:103F3000B531832744FC85072322F4FC8327C4FB87
:103F4000898B85E7032744FC832704FCE36DF7FC9A
:103F500029A88327C4FA138717002326E4FA838746
:103F60000700BE850325C4F615398327C4FA838765
:103F7000070091CF832744FB1387F7FF232AE4FA36
:103F8000E9FB31A0930500020325C4F6013983271C
:103F900044FC138717002322E4FC032704FCE3E31B
:103FA000E7FE19AE930784F72326F4FA832744F635
:103FB0009D07E19B138787002322E4F68843CC43C7
:103FC000830734FB3E87832644FB2E86AA85032580
:103FD000C4FAEFF0EFF40325C4FA61292322A4FC0C
:103FE00021A88307B4FABE850325C4F6453E83277E
:103FF00044FC85072322F4FC8327C4FB898B85E7D7
:10400000032744FC832704FCE36DF7FC29A88327DE
:10401000C4FA138717002326E4FA83870700BE85B6
:104020000325C4F6A53E8327C4FA83870700E5F37A
:1040300031A0930500020325C4F68D36832744FC86
:10404000138717002322E4FC032704FCE3E3E7FEC5
:10405000A5A4830734FBBE850325C4F68136A9AC2D
:104060008327C4FBA18B85C3832744F69D07E19B6F
:10407000138787002322E4F69843DC432320E4FAE5
:104080002322F4FA51A08327C4FB918BA1C3030719
:1040900034FB93074006631DF700832744F613871C
:1040A00047002322E4F69C433E89FD87BE8911A880
:1040B000832744F6138747002322E4F69C433E8976
:1040C0008149232024FB232234FB3DA8030734FB32
:1040D00093074006631DF700832744F613874700C4
:1040E0002322E4F69C433E8AFD87BE8A11A88327DB
:1040F00044F6138747002322E4F69C433E8A814A14
:10410000232044FB232254FB030734FB9307400680
:104110006310F704832744FA63DC070201468146F3
:10412000032504FA832544FA3307A6403A88333836
:104130000601B387B640B3860741B6872320E4FA69
:104140002322F4FA8327C4FB93E71700232EF4FA03
:10415000232404FC032704FA832744FA232CE4F8DD
:10416000232EF4F88327C4FC3E8B814B032784F96C
:104170008327C4F95A86DE863A85BE85EFC0EFFBF9
:104180002A87AE872309E4FA8327C4FC3E8C814C3E
:104190006286E686032584F98325C4F9EFC00FC43F
:1041A0002A87AE87232CE4F8232EF4F8030724FB98
:1041B000A54763D3E702030734FB93078007631522
:1041C000F7009307700211A09D47034724FBBA979D
:1041D00093F7F70F2309F4FA834724FB9387070328
:1041E00093F6F70F832784FC138717002324E4FC3E
:1041F000139786016187938707FDA2972384E7FAC7
:10420000832784F90327C4F9D98F91C7032784FC36
:10421000FD47E3F9E7F48327C4FB858B91CF832720
:1042200084FC138717002324E4FC938707FDA297DF
:104230001307D0022384E7FA832784FC2322F4FCAB
:1042400029A88307B4FABE850325C4F6EFF01F95AD
:10425000832744FC85072322F4FC8327C4FB898B36
:1042600099E7032744FC832704FCE36CF7FC8327CE
:1042700084FCFD172324F4FC832784FC938707FD2B
:10428000A297838787FABE850325C4F6EFF01F91B6
:10429000832784FCE9FF39A0930500020325C4F6B7
:1042A000EFF0DF8F832744FC138717002322E4FC01
:1042B000032704FCE3E2E7FE85BA010011A0010038
:1042C0000100FA406A445A49CA493A4AAA4A1A4B72
:1042D0008A4B765CE65C0D6182805D7106D622D4E5
:1042E0000018232EA4FC4CC010C454C418C85CC8C9
:1042F000232C0401232E140193070402232CF4FC25
:10430000832784FD91172326F4FEB707008083A737
:10431000C7000327C4FE3A868325C4FD3E85EFF01F
:104320007F8E0100B250225461618280B347B50094
:104330008D8BB308C500B1E78D4763F4C70493774D
:1043400035002A87B9EB13F6C8FFB306E64093079A
:10435000000263C8D706AE86BA876371C70203A896
:1043600006009107910623AE07FFE3EAC7FE930715
:10437000F6FF998FF19B91073E97BE9563661701F3
:1043800082802A87637E150383C70500050785059C
:10439000A30FF7FEE39AE8FE828083C605000507B7
:1043A00093773700A30FD7FE8505D1DF83C60500BD
:1043B000050793773700A30FD7FE8505F9FF61B78F
:1043C0008280411122C61304000283A3050083A248
:1043D000450083AF850003AFC50083AE050103AE82
:1043E000450103A3850103A8C501945113074702A2
:1043F000B307E640232E77FC232057FE2322F7FF46
:104400002324E7FF2326D7FF2328C7FF232A67FE9D
:10441000232C07FF232ED7FE93854502E347F4FAAA
:10442000AE86BA876371C70203A80600910791069A
:1044300023AE07FFE3EAC7FE9307F6FF998FF19BD0
:1044400091073E97BE956365170132444101828012
:1044500083C7050005078505A30FF7FEE387E8FE80
:1044600083C7050005078505A30FF7FEE392E8FE65
:10447000E9BF937735002A879DEFB7867F7F9386C4
:10448000F6F7FD5510431107B377D600B697D18FD5
:10449000D58FE389B7FE8346C7FFB307A7408DCA10
:1044A0008346D7FF9DC20345E7FF3335A0003E9505
:1044B00079158280F9D28347070005079376370084
:1044C000F5FB098F1305F7FF82801385D7FF8280E4
:0644D0001385C7FF828086
:1044D80000000000000000000000000000000000D4
:1044E80000000000000000000000000000000000C4
:1044F80000000000000000006300000063000000EE
:10450800630000006300000063000000000000007A
:104518000F0000001E0000002D0000003C000000FD
:1045280001000000100000001F0000002E00000025
:104538003D00000002000000110000002000000003
:104548002F0000003E0000000300000012000000E1
:1045580021000000300000003F00000004000000BF
:10456800130000002200000031000000630000007A
:1045780005000000140000002300000032000000C5
:104588006300000006000000150000002400000081
:104598003300000063000000070000001600000060
:1045A800250000003400000063000000080000003F
:1045B800170000002600000035000000630000001E
:1045C8000900000018000000270000003600000065
:1045D800630000000A000000190000002800000025
:1045E80037000000630000000B0000001A00000004
:1045F8002900000038000000630000000C000000E3
:104608001B0000002A0000003900000063000000C1
:104618000D0000001C0000002B0000003A00000004
:10462800630000000E0000001D0000002C000000C8
:104638003B000000630000003D3D3D3D3D3D3D3DEC
:10464800206D6D524953432D31203D3D3D3D3D3D4B
:104658003D3D0A00496E70757420616E792043688B
:10466800617261637465723A0A0000004359434CF1
:1046780045203D203078253038782530387820207E
:104688002867582C67592C675A293D282534642CEB
:104698002534642C253464290A0000000000000039
:1046A8004E614E00494E46004F5600000000000083
:1046B8002530386C58200000202530325800000082
:1046C80020200000202530345800000020253038F4
:1046D8004C5800000000000000000000006AF8408C
:1046E8000000000000002440F168E388B5F8E43ECB
:1046F800000000000000F03FFFFFFFFFFFFFEF7F1B
:104708000000000000000040A01700904414009032
:10471800FC160090441400909217009044140090E6
:10472800FC160090A0170090A01700909217009018
:10473800FC1600902C1400902C1400902C1400905F
:104748009217009000010202030303030404040407
:104758000404040405050505050505050505050505
:1047680005050505060606060606060606060606E5
:1047780006060606060606060606060606060606D1
:1047880006060606070707070707070707070707B5
:1047980007070707070707070707070707070707A1
:1047A8000707070707070707070707070707070791
:1047B8000707070707070707070707070707070781
:1047C8000707070708080808080808080808080865
:1047D8000808080808080808080808080808080851
:1047E8000808080808080808080808080808080841
:1047F8000808080808080808080808080808080831
:104808000808080808080808080808080808080820
:104818000808080808080808080808080808080810
:104828000808080808080808080808080808080800
:1048380008080808080808080808080808080808F0
:1048480008080808C0F9A4B0999282F88090888373
:10485800C6A1868EA43F009052400090524000901E
:1048680052400090524000905240009052400090B8
:1048780052400090524000905240009052400090A8
:104888005240009052400090524000905240009098
:104898005240009052400090524000905240009088
:1048A800B63E009052400090524000905240009016
:1048B8005240009052400090524000905240009068
:1048C80052400090524000909E3E0090BE3E0090A4
:1048D800AE3E0090A43F0090A43F0090524000904C
:1048E8005240009052400090524000905240009038
:1048F800524000905240009052400090A63E0090D6
:10490800524000905240009052400090DA3E009091
:1049180052400090AE3E00905240009052400090AD
:04492800B63E009007
:040000059000040063
:00000001FF
