:0200000490006A
:100000006F0000406F00C01F6F0040256F0000258B
:100010006F0020206F0080246F0040246F000024B8
:100020006F0040206F0080236F0040236F0000238B
:100030006F0080206F0080226F0040226F0000223E
:100040006F00C0216F0060206F0020206F00E01F54
:100050006F00A01F6F00601F6F00201F6F00E01E69
:100060006F00A01E6F00601E6F00201E6F00E01D5D
:100070006F00A01D6F00601D6F00201D6F00E01C51
:100080006F00A01C6F00601C6F00201C6F00E01B45
:100090006F00A01B6F00601B6F00201B6F00E01A39
:1000A0006F00A01A6F00601A6F00201A6F00E0192D
:1000B0006F00A0196F0060196F0020196F00E01821
:1000C0006F00A0186F0060186F0020186F00E01715
:1000D0006F00A0176F0060176F0020176F00E01609
:1000E0006F00A0166F0060166F0020166F00E015FD
:1000F0006F00A0156F0060156F0020156F00E014F1
:100100006F00A0146F0060146F0020146F00E013E4
:100110006F00A0136F0060136F0020136F00E012D8
:100120006F00A0126F0060126F0020126F00E011CC
:100130006F00A0116F0060116F0020116F00E010C0
:080140006F00A0100000000098
:10015000000000000000000000000000000000009F
:10016000000000000000000000000000000000008F
:10017000000000000000000000000000000000007F
:10018000000000000000000000000000000000006F
:10019000000000000000000000000000000000005F
:1001A000000000000000000000000000000000004F
:1001B000000000000000000000000000000000003F
:1001C000000000000000000000000000000000002F
:1001D000000000000000000000000000000000001F
:1001E000000000000000000000000000000000000F
:1001F00000000000000000000000000000000000FF
:10020000F3900034A928C5284D20F39000347300E2
:100210002030F3900034A120C5204128F390003411
:1002200073002030F39000341D28EF40A05BB52808
:10023000F390003473002030F39000340D207D28BB
:10024000AD20F390003473002030F3900034012887
:100250007D20A128F39000347300203001A0F3909A
:100260000034130141F806C00AC20EC412C616C8F3
:100270001ACA1ECC22CE26D02AD22ED432D636D8B6
:100280003ADA3EDC42DEC6C0CAC2CEC4D2C6D6C846
:10029000DACADECCE2CEE6D0EAD2EED4F2D6F6D896
:1002A000FADAFEDCF39000348280F390003482406E
:1002B0001241A2413242C2425243E243724482544A
:1002C0001255A2553256C2565257E25772588648B6
:1002D0001649A649364AC64A564BE64B764C865CCA
:1002E000165DA65D365EC65E565FE65F1301C1070A
:1002F000F3900034828082808280828082807324A6
:100300001034F3240030732510BF411106C022C2FF
:1003100026C42AC6F3670430EF404053F377043015
:1003200082401244A24432454101731005BF7390CC
:0C033000043073101434828000000000C0
:10033C0000000000000000000000000000000000B1
:10034C0000000000000000000000000000000000A1
:10035C000000000000000000000000000000000091
:10036C000000000000000000000000000000000081
:10037C000000000000000000000000000000000071
:10038C000000000000000000000000000000000061
:10039C000000000000000000000000000000000051
:1003AC000000000000000000000000000000000041
:1003BC000000000000000000000000000000000031
:1003CC000000000000000000000000000000000021
:1003DC000000000000000000000000000000000011
:1003EC000000000000000000000000000000000001
:1003FC0000000000970100F89381014017C100F83C
:10040C00130181BF17650000130505DB970500F884
:10041C00938585BE170600F8130686C663FAC500D9
:10042C008322050023A0550011059105E3EAC5FEC2
:10043C00170500F81305C5C4970500F8938505C684
:10044C006377B500232005001105E36DB5FE970217
:10045C0000009382A2BA93E2120073905230592E8C
:10046C007155B7E2ADDE9382D2EA23205500F5BF79
:04047C00000000007C
:100800006D712326111023248110000AEF30701F10
:10081000EF40802BEF3050739307F00F739007BEBB
:10082000EF30B00D01008320C1100324811051610D
:100830008280D30705E0B716493F938686FD13975C
:100840001700058363DDE602B706807F6345D700A6
:100850005375A50882800111280006CEA1200D89BC
:1008600085476303F5028947B26522656306F50291
:1008700005C1752C5315A520F24005618280D30572
:1008800000F001456F00902BB26522654D24EDB755
:100890000545EF00B02ACDB70545EF00302A5315C6
:1008A000A520D9BFD30705E0011122CC3717493F56
:1008B0001394170026CA06CE4AC8130787FD058081
:1008C000AA846357870E37D71640130737BE3E8971
:1008D000634487043717C93FB706008887A7060017
:1008E0004198130707FD6357F020D377F50863019C
:1008F000E40EB707008807A74700D3F6E7080545C9
:10090000D3F7D70894E0D3F7E708DCE0F24062447D
:10091000D24442490561828037174943130707F8DB
:100920006353870C3707807F635EE4081356744176
:100930001306A6F7931776011D8CD30704F053070F
:1009400004F037070088D39707C0872607025306AD
:1009500000F0D3F707D08D465377F7083EE2D37700
:10096000D710D39707C053F707D0D3F7E7083AE477
:10097000D3F7D710D3A7C7A03EE691C7D326C7A009
:1009800093B616008506B7670090938787C109471D
:10099000A6854800E92CE35B09F69860DC60330526
:1009A000A0405317E720D397F72098E0DCE0B9BFC9
:1009B000F240624488E023220500D24442490145C6
:1009C00005618280D377A5080145DCE09CE03DBF4E
:1009D000B707008807A7C700B707008887A6870062
:1009E000D3F7D70819BFEF00901FB707008887A774
:1009F0000701B707008807A7470137070088FD47A9
:100A0000C377F570539507C087270700370700881D
:100A1000537705D04B75F75087274700D377F710EA
:100A200063C7A7049307F5FF13972700B7670090E4
:100A3000D376F508938787B9BA979443137704F070
:100A4000D38706E06309D7029CC0538707F053752C
:100A5000E5085375F508C8E0E35A09EAD317E7201B
:100A60005315A5203305A0409CE0C8E045B5D376DA
:100A7000F508D38706E013D777015D841377F70F66
:100A80003307E440A146E3D1E6FCB707008887A717
:100A90008700B7070088E546CB76F7505375D50831
:100AA0004B75F75087A7C700C777F75053F6F6087E
:100AB000D30706E013D777011377F70F198C63C6B6
:100AC00086005385D62090E049B7B707008887A7EE
:100AD0008701B70700884B75F768D3F6A608CB7671
:100AE000F76887A7C701C777F7685377F508D30773
:100AF00007E099BFD377F5006300E402B7070088E9
:100B000007A74700D3F6E7007D55D3F7D70894E051
:100B1000D3F7E700DCE0DDBBB707008807A7C70015
:100B2000B707008887A68700D3F7D700E1BFD307B0
:100B300005E0B7060032139717000583635FD706F9
:100B4000531705C063000712D376A5103707008836
:100B500007270703370700888727470337070088D9
:100B600043F7E678872787033707008843F7E67857
:100B70008727C7033707008843F7E67887270704E6
:100B80003707008843F7E67887274704C3F7E678F6
:100B9000D3F7F610538707F0B707008807A547017A
:100BA000D375B710B7070088C7F7F658C7F7A67808
:100BB00007A5C7025375F5088280D376A510B7063E
:100BC000008887A70603B706008807A74603B7066D
:100BD000008837060088C3F7F67007A78603B7A614
:100BE000993E93869699C3F7D7700727C6033706B1
:100BF0000088C3F7D7700727060437060088C3F7B5
:100C0000D77007274604C3F7D770D3F7D710E3D3BD
:100C1000E6F8B706483F63CEE602B70600FF369710
:100C2000B706008807A5C602530707F05375E50805
:100C3000538607F0B7070088D375B61007A647019B
:100C4000C7F7F658C7F6C670D3F7F6085375F50818
:100C50008280370700880725470237070088072763
:100C60008702F9B7B707008807A5C70282802171FC
:100C7000232A911AB7640090232C811A3ACA13844C
:100C800004F30A07368822972328211B2328A11959
:100C900022C6232E111A2326311B2324411B232273
:100CA000511B2320611B232E7119232C8119232A08
:100CB00091192326B119272E8116272C9116272A40
:100CC00021172728311727264117272451172722B4
:100CD000611732CEF1562EC83EC2032D07002A8975
:100CE0001304F8FF6342D65E9307D6FF13D7F7418C
:100CF0001D8BBA978D87938B17003EC093973B004F
:100D00003ECCF247E24633078D00B38AD740824794
:100D1000818F6347070292451306170093962700B9
:100D20009818AE963E96D30700F063C50700884238
:100D3000D37705D085071CE311079106E395C7FE1D
:100D400063430D0413162400930646009C18130EEB
:100D5000011122853E96B30E0D01CA96D30700F00D
:100D60003287CA87634A0400946318639107711736
:100D7000C3F7E678E39AD7FE2720FE000505110E9B
:100D80001106E31DD5FD37070088872AC7043707FA
:100D90000088072A070237070088872407053707D6
:100DA0000088072447053707008893172D008729F7
:100DB000C7023707008807294701130B01029389EF
:100DC00087FF7808931C2800B304F700B3073B01A2
:100DD0003EC4CA9C6A8A930D011193192A009C1281
:100DE000CE9707A507FB635A40039387C9FFEE9789
:100DF0005A87D3775511946311073E86F11753959F
:100E000007C0D37705D04BF7475153F5D70053159B
:100E100007C0232EA7FEE39ECDFC5685B52D530BB0
:100E2000A520537595107D2B4B7585B0D31B05C040
:100E300053FB0BD0537B65096352500F1307FAFF26
:100E40009C120A073E97832E07ECA147B3875741B0
:100E500033D5FE403316F5009D473386CE40B38729
:100E600057412320C7EC335CF640AA9B6345800DB5
:100E7000530700F0D327EBA0638F0716930EFAFFFA
:100E800063CEAE0193172A00F117DA970147884322
:100E9000F117498FE39D97FE631A07309307FDFF13
:100EA0008A079812BA9783A707EC639C072EA2477C
:100EB000054790430507F1176DDE93071A00BE8EB4
:100EC000330FEA000247B306F4008A063305F70041
:100ED0009812BA9612470A058A073A953386FD009A
:100EE0009386C6F01C41D30700F053F707D0D8E231
:100EF000634D04003687CA8719A01863711794637D
:100F00009107C3F7E678E39A97FF1CE2850E110577
:100F100011069106E358DFFD7A8AC1B563970A2668
:100F20009307FAFF8A079812BA9703A607EC135C97
:100F30007640E35F80F3850B635C4039825E8547D2
:100F400063930E246303FA06925E481005479307E5
:100F500017001105639C0E006309FA04832E050037
:100F60003E87930717001105E3880EFE0A079412C7
:100F70003385E600130700103307D7412320E5EC43
:100F800063D447038A073387F600032707ECDA9711
:100F9000B30E3B011305F00F11A098433307E54052
:100FA00098C39107E39BD7FF854E63535003854752
:100FB0006380FA308947639DFA009307FAFF98121D
:100FC0008A07BA9703A707EC1377F70323A0E7EC88
:100FD0008947E31FFCE853FB6909E38B0EE853855F
:100FE000392156855529537BAB08530700F0D32789
:100FF000EBA0E39507E8E247724753056B21338581
:10100000E7405929B707008807A70702D307A7A019
:101010006382072CB707008887A6C704930E1A00BF
:101020009C12D376D510B38F3701981293972E0068
:10103000BA97539706C0A10AD37607D0CBF7E650EC
:10104000539706C0D39607C023A0DFEC23A0E7EC9C
:10105000B707008807A5C702568576C03529824E96
:1010600063CA0E2AB707008893982E0087A6C70484
:101070001C0A338517012A87B3071B018C4371179C
:10108000BE86D3F705D0F117D3F7A7105375D51047
:101090005CE3E315DBFE1303010CB707008807A62A
:1010A00087041A88814563420D04B2475307C6205E
:1010B000D30700F0938607012A87814729A063CBD5
:1010C000F50098629106146385071107C3F7E67867
:1010D000E357FDFE2720F8009387150011087115CE
:1010E000638FBE00BE85E3520DFCD30700F09387EB
:1010F00015001108272EF8FE7115E395BEFE524724
:10110000894763C9E710D30700F09A986343E00C5E
:1011100019EF07A70800C687F118D3F7E700E31A0D
:10112000F3FE63040C00D397F720C2479CE38320AF
:10113000C11B0324811B8324411B0329011B832919
:10114000C11A032A811A832A411A032B011A032C7C
:101150008119832C4119032D0119832DC1180724EE
:10116000C117872481170729411787290117072AE3
:10117000C116872A8116072B411613F57B00832B96
:10118000C119396182800147D5B3D30769A1014CE8
:10119000E38007CE850B094CE34240DB53FB690932
:1011A000C1B993071A00BE8E3E8F29BB93972E00BC
:1011B0009812BA9783A707ECE11AE39B07E8931705
:1011C0002A00E117DA979843FD1EF117E11A65DF4F
:1011D00041B507A70800C687F118D3F7E700E31A5F
:1011E000F3FE63120C10C2470E679CE3D377F70837
:1011F000635FD001D8018547186385071107D3F7CE
:10120000E700E3DBFEFE63040C00D397F720C24740
:10121000DCE331BF52478D47E31BF7F063890E02D1
:101220009812469793972E00072707F6F1179A977B
:101230009C63D306E7203E875377F700F117D3F777
:10124000E708D8E3D3F7D7009CE7E313E3FE85472D
:10125000D30700F063D5D7059C12BE9807A708F600
:1012600093972E00F1173307F3001C63D306E72092
:10127000BA865377F7007117D3F7E70858E3D3F727
:10128000D7001CE7E313E3FED30700F091073E937A
:10129000072703007113D3F7E700E39B66FE8E6612
:1012A0001E67631E0C04C24794E3D8E39CE741B574
:1012B0009307FAFF98128A07BA9703A707EC1377E8
:1012C000F70723A0E7EC29B3A1473ECC02C015BC29
:1012D000814EE1B9D31705C09812B30F3701D28EF2
:1012E00023A0FFECB5B35397F720C24798E30E67EE
:1012F000D377F708E340D0F1D397F72009BFC2476F
:10130000D396D6205317E720D397F72094E3D8E35A
:101310009CE731BD5247894763CBE700D30700F014
:10132000E341E0ECE31507E0E3010CE0EDBB5247DD
:101330008D47D30700F0E304F7F6D5BBD30705E0EC
:10134000B70600321397170005836355D70053176C
:1013500005C049C7D38707F03707008853F7F71050
:1013600087278705370700888726C705370700883E
:10137000C377F7688726070637070088C3F7E7684B
:10138000D38607F053F5E61087264706370700880F
:10139000C3F7E76887268706C3F7E76801ED3707D5
:1013A00000888726C706C377F768538707F043F599
:1013B000A7708280D377F51037070088872647010A
:1013C00037070088C7F7D578C7F5E7588727070795
:1013D0004375F558D38707F053F5A7088280532546
:1013E000A5208280D30705E059469396170013D7AE
:1013F0008601130717F8BE8585826342E6086347B6
:101400000704370580009306F5FFB3D6E64033F8AE
:10141000F600530605E063080802370800888727AE
:101420008807530700F0D377F5005318F7A0630C33
:10143000080063D607003357E540B305F70093C6AD
:10144000F6FF33F6B600530506F0828037070088B2
:1014500087278707530700F0530605E0D377F50089
:101460005317F7A06DD3530607E0E3DE07FC5306DE
:1014700005E0F1DAB707008803A64707E9B73707A1
:10148000807F530605E0E3E0E6FCD377A5005386B2
:1014900007E0530506F08280D30705E09396170016
:1014A00013D71600A1CEB706807F637CD70433F62E
:1014B000D70039EEB706008887A7C607517713070C
:1014C00007CBD377F510D38707E0634BE50813D735
:1014D00077411377F70F1D172A971306E00FBE8683
:1014E000635FE6023707008807278707D38707F07F
:1014F000D307F720D3F7E710D38707E0538507F02A
:101500008280D377A500D38707E0538507F08280D8
:101510005D832A971306E00FBE86E345E6FC63472A
:10152000E00229566359C704316713070735E34BB7
:10153000A7FA3707008807270708D38707F0D307DC
:10154000F720D3F7E710D38707E04DBFB7078080B8
:10155000FD17FD8E93177701D58F538507F0828095
:1015600037070088538707F087270708D377F710D6
:10157000D38707E061B793079701370780807D170E
:10158000F98EDE07D58F37070088538707F0872746
:101590004708D377F710D38707E08DB793773500E7
:1015A0002A8795EFB7867F7F9386F6F7FD55104320
:1015B0001107B377D600B697D18FD58FE389B7FEE1
:1015C0008346C7FF0346D7FF8347E7FF098F8DC6D2
:1015D0000DC23335F0003A9579158280E1D6834704
:1015E0000700050793763700F5FB098F1305F7FF12
:1015F00082801305D7FF82801305C7FF8280AA88E7
:10160000AE8732883685468363960620B76600909B
:10161000938606FE63FFC50A41676375E60A1307F2
:10162000F00F3337C7000E073355E600AA9683C67E
:101630000600130500023697B306E540630BE5008C
:10164000B395D70033D7E8003318D600D98D33933C
:10165000D80093580801B3D6150313160801418228
:101660009357030133F715033685B305D6024207B6
:10167000D98F63FCB700C2971385F6FF63E70701B4
:1016800063F5B7001385E6FFC2978D8F33F7170315
:10169000420313530301B3D71703420733636700B1
:1016A000B306F6023E86637BD30042931386F7FFB0
:1016B000636603016374D3001386E7FF4205518D0F
:1016C00081455DA8370500014147E36FA6F46147F6
:1016D000A1BF01E605473358C7024167637FE808A9
:1016E0001307F00F6373070121453357A800BA961B
:1016F00003C70600130600022A97B306E6406315E7
:10170000E608B38707418545935808011316080179
:10171000418213570301B3F61703B3D71703C20669
:10172000558F330EF6023E85637CC70142971385C1
:10173000F7FF636707016375C7011385E7FF4297EA
:101740003307C741B37717034203135303013357DA
:101750001703C20733E36700B306E6023A86637BEA
:10176000D30042931306F7FF636603016374D3004B
:101770001306E7FF4205518D82803707000141457E
:10178000E365E8F6614595B73318D80033D5E7002F
:101790003393D800B397D70033D7E80093580801A4
:1017A0003366F7003377150393170801C183935508
:1017B00006013355150342074D8FB386A702AA854C
:1017C000637CD70042979305F5FF63670701637554
:1017D000D7009305E5FF4297B306D74033F71603CA
:1017E00042064182B3D6160342073385D702B36758
:1017F000C700368763FCA700C2971387F6FF63E72D
:10180000070163F5A7001387E6FFC297C205898F1A
:10181000D98DDDBD63E2D514416763FFE60213078E
:10182000F00FB335D7008E053767009033D5B6007B
:10183000130707FE2A9703470700130500022E9798
:10184000B305E5406311E5020545E3E7F6F233B57C
:10185000C800134515000DB737070001C145E3E582
:10186000E6FCE145D1B73358E600B396B6003368DD
:10187000D80033DEE700935E0801B376DE03B3974A
:10188000B70033D7E8003313B6003366F700931779
:101890000801C18313570601335EDE03C206558F6C
:1018A000338FC7037285637CE70142971305FEFF00
:1018B000636707016375E7011305EEFF429733077E
:1018C000E741B376D7033357D703C206338EE70217
:1018D00093170601C183D58F3A8663FCC701C2976F
:1018E0001306F7FF63E7070163F5C7011306E7FF78
:1018F000C2974205C16E518D9386FEFF3378D500A5
:1019000013560501B376D30013530301B387C741C0
:10191000330ED802B306D60213570E0133086802FD
:1019200036984297330666026373D70076969356CD
:101930000701369663E0C702E394C7D8C167FD1775
:101940007D8F4207337EFE00B398B80072978145C1
:10195000E3F4E8E27D15ADB38145014531BDAA8EC2
:101960002E833288B6876392061C37670090130770
:1019700007FE63F5C50AC166637BD6089306F00FC0
:1019800063F3C600A147B356F60036970347070036
:10199000BA9713070002B308F740630BF700B315BB
:1019A0001301B3D7FE0033181601DD8D33951E01E8
:1019B00093560801B3F7D502131608014182135755
:1019C0000501B3D5D502C2075D8FB305B6026378B2
:1019D000B7004297636507016373B70042970D8FA5
:1019E000B377D702420541813357D702C2075D8DD5
:1019F0003307E6026378E50042956365050163738A
:101A0000E5004295198D3355150181458280B70651
:101A10000001C147E369D6F6E147B5B701E685465F
:101A200033D8C602C166637BD80E9306F00F63F30A
:101A30000601A147B356F800369703460700B305E1
:101A400003413E9693070002B388C740638AC706E6
:101A500033181801B357C300B3151301135308010A
:101A600033D6CE004D8E93150801C18133951E01EA
:101A7000B3D6670233F7670293570601B386D502E0
:101A800042075D8F6378D7004297636507016373F0
:101A9000D7004297B306D74033F766024206418229
:101AA000B3D666024207B386D502B365C70063F8B2
:101AB000D500C29563E5050163F3D500C295958D08
:101AC0009356080133F7D50293170801C1831356C3
:101AD0000501B3D5D5024207518FB385B7026378AC
:101AE000B7004297636507016373B7004297B30578
:101AF000B74033F7D50242054181B3D5D502B3854E
:101B0000B702931707015D8D6378B5004295636551
:101B100005016373B50042950D8DF5B5B70600015B
:101B2000C147E369D8F0E14731B7E3E1D5EEC167DA
:101B300063F4F6049308F00FB3B7D8008E07376745
:101B4000009033D8F600130707FE4297834807003A
:101B5000BE9893070002338817416396170363E426
:101B60006600E3E5CEEA3385CE40B305D340B3BE8D
:101B7000AE00B385D54159BD37070001C147E3E049
:101B8000E6FCE1476DBFB3571601B396060133EE8D
:101B9000D700335F1301B3D71E0133950E01935E57
:101BA0000E01B31503013353DF03CD8F93150E01DF
:101BB000C18113D7070133160601B376DF03338FD4
:101BC0006502C206558F9A86637CE7017297930679
:101BD000F3FF6367C7016375E7019306E3FF72973D
:101BE0003307E7413373D703C207C1833357D703A2
:101BF00042033363F300B385E502BA87637CB30025
:101C000072939307F7FF6367C3016375B30093078C
:101C1000E7FF7293C206416FDD8EB305B340130335
:101C2000FFFFB3FE660013570601C18233736600DF
:101C3000B3876E0233836602B38EEE02B386E6028A
:101C40009A9E13D70701769763736700FA9613532A
:101C500007019A9641637D13337767004207B3F714
:101C60006700BA9763E6D500639BD5006379F500FA
:101C70003386C740B3B7C700F2979D8EB287B307CC
:101C8000F5403335F500958D898DB398150133D521
:101C9000070133E5A800B3D505018DBB011106CEC0
:101CA00022CC26CA4AC84EC652C4F3292000B7081F
:101CB0001000FD1833F7B80013D4450193D4F50193
:101CC00093D5460193173700B3F8D8001357D501C1
:101CD0001374F47F93F5F57F5D8F13D3F60193179B
:101CE00035009356D6018E083305B44013183600DC
:101CF000B3E616012A86639164346359A010B9E1F2
:101D000033E5060111E59306F07F631CD62A39A856
:101D10001305F6FF01E93E98BA96B337F800BE9670
:101D2000054659A09308F07F63111605B366F700C6
:101D3000638C066EB7064000F98E0144639206205C
:101D4000C145FDAA1306F07F631EC400B366F70009
:101D5000638F066CB7064000F98E63850612130682
:101D6000F07F85A437068000D18E13068003634A76
:101D7000A6087D466340A60613060002098EB358E6
:101D8000A800B395C6003318C800B3E51501333871
:101D9000000133E8050133D5A6003E983A95B337E4
:101DA000F800B306F5002286B7078000F58FB5CBA3
:101DB00005069307F07F6301F626370780FF7D173E
:101DC00093571800758F1378180033E8070193179D
:101DD000F701EDA2930505FE93080002B3D5B60006
:101DE000014663081501130600043305A640339627
:101DF000A600336806013338000133E805010145C8
:101E000069BF33E8060133380001D5BF7DC9338689
:101E1000854021E83365F70011E99307F07F6306F9
:101E2000F6023687C2876301064061AA9308F6FF6F
:101E300063990800C29733B80701BA96C2963E88E4
:101E4000C5B51305F07F6315A604B3E706016383E8
:101E5000075EB7074000F58F3687639F075CC28730
:101E6000C5B51305F07F6391A502B3E70601638052
:101E7000075AB7074000F58F3687639F0758C28718
:101E80001306F07F01446DBD37058000498FB2888D
:101E900013068003634316077D46634B1603130541
:101EA0000002330515413316A70033D31701B3974A
:101EB000A70033666600B337F000D18F33571701A0
:101EC000C2973697B3B60701BA963E882E86E9BD0B
:101ED000138608FE130300023356C70001456388CA
:101EE000680013050004330515413315A700C98F99
:101EF000B337F000D18F0147E1B7D98FB337F00086
:101F0000DDBF130614001375E67F41ED3365F7005E
:101F100021E46301054C33E60601630706303E9871
:101F2000B337F80036973E97B7078000F98F638480
:101F3000074AB70780FFFD177D8F8145C287054699
:101F400093F67700C5E6630D045693F61500638992
:101F5000065693E52500ADA31306F07F631DC4026A
:101F6000630F055C37064000798E133616001206A3
:101F7000639D8552B28533E6060111C637064000DF
:101F8000758E11E2C145631305523687C28701443D
:101F90001306F07F75B76394C5008145E9BF81459D
:101FA000DDB79305F07F6300B6023E98B337F800C3
:101FB00036973E979317F70113581800B3E70701B8
:101FC000058301449DA9638609008D476396F90046
:101FD00081E81306F07F81A889476393F900F5F83B
:101FE00001447D57FD571306E07F9545894693E5EB
:101FF00015006385D9488D46638ED946639109489B
:1020000093F6F7001145638CA64693864700B3B755
:10201000F6003E97B687A5A1638709008D476398B0
:10202000F900639D043E01478147954551A98947C1
:102030006396F93EEDF86DB76356A00CC9E133E540
:102040000601E30205CC1305F6FF11E933880741C9
:10205000B306D740B3B707019D8E0546A9A09308E4
:10206000F07FE30516CD130680036348A6087D467E
:10207000634FA60413060002098EB395C600B35839
:10208000A8003318C800B3E515013338000133E860
:102090000501B3D6A60033880741B306D740B3B7CE
:1020A00007019D8E228637098000B3F72601E38A57
:1020B00007D67D1933F92601428A3284B5A4130666
:1020C000F07FE305C4C837068000D18E69BF930551
:1020D00005FE93080002B3D5B6000146630715015B
:1020E00013060004098E3396C600336806013338A0
:1020F000000133E80501814679BF33E80601333832
:102100000001D5BF75CD3386854039E43365F700CE
:1021100009E59307F07F9A8419B39308F6FF639C4F
:102120000800B307F8403338F800998EB3860641AB
:102130009A843E881DB71305F07F6316A604B3E7A3
:102140000601638E072EB7074000F58F3687639B25
:10215000072EC2879A84EDB61305F07F6391A5021E
:10216000B3E706016383072EB7074000F58F368774
:102170006391072EC2871306F07F9A8421B3370537
:102180008000498FB28813068003634716077D4697
:10219000634F160313050002330515413316A700DC
:1021A00033DE1701B397A7003366C601B337F000DB
:1021B000D18F33571701B307F8403387E640B33662
:1021C000F800B306D7403E882E869A84E9BD138670
:1021D00008FE130E00023356C70001456388C8018C
:1021E00013050004330515413315A700C98FB33714
:1021F000F000D18F0147C1B7D98FB337F000DDBFF1
:10220000130614001376E67F7DEAB368F70033E522
:1022100006015DE0639208066311051C9384E9FFE3
:1022200093B4140001478147B3E6E70063800624B6
:1022300093D6F7011314170036949396170013F6EC
:102240007600814505C609466389C91A0D46638C27
:10225000C9188545639C090013F6F600114563070C
:10226000A60093B6C6FF93C6160036946180134449
:10227000140005880146E9B145D9B385074133B556
:10228000B7003306D740098E37058000718D19C914
:10229000B307F8403387E6403338F8003307074187
:1022A0009A8459B7B3E7C500639C07129384E9FF8A
:1022B00093B4140001478DBF1306F07F631EC40062
:1022C0006387082637064000798E133616001206FB
:1022D00063938526B28521A06391C502814511C50E
:1022E00037064000758E11E2C145639708246307E5
:1022F00005163687C2879A8459B98145FDB7338A56
:10230000074133B647013309D7403309C94037067F
:1023100080003376C9002DC6330AF840998E3338D1
:102320004801338906419A84630009064A85EF1003
:102330001057130685FFFD4763CEC70493060002BE
:10234000918E3317C900B356DA00D98E3318CA00FC
:10235000634B8606018E13071600FD4763C2E70430
:1023600013060002198EB397C6003355E8003316E2
:10237000C800C98F3336C000D18F33D7E6006DB5A2
:10238000B3672A01D5F31DB75285EF1050511305DD
:10239000050245B7930685FDB316DA0001484DBF27
:1023A00005169305000233D6C60081476307B700C0
:1023B00093070004998FB397F600B367F800B3371B
:1023C000F000D18FC5BDB70780FFFD173306C440AD
:1023D000FD8E81BC3687C28781BD3687C287C9B56D
:1023E0003287AE8791B5A685E39204E893B686FF5F
:1023F00093C616003694854595BD8545E38804E669
:1024000093B686FF93C616003694A68585B5014718
:102410001306F07F81456DA0C28791B27D57FD57AD
:102420001306E07F0144D1B60147814751A8014717
:102430008147F9BF0147F9BFC287814511B60147FE
:102440009A84C9BFC2879A84CDBF01471306F07F23
:10245000C5BFC2871306F07F9A84A5B68147814421
:10246000370740001306F07FC14599A8014781470F
:1024700001464DB789E49386870051BEEDFCE31A0F
:1024800004AC3DA88147638E09000D476397E900BE
:1024900089C8FD571306E07F29A00947E39BE9FEA1
:1024A000EDD893E555003E870DA8B285B3E6060149
:1024B000E38F06AC81443707400081471306F07F65
:1024C000B7068000F98E91CA05069306F07FE30BEC
:1024D000D6FAB70680FFFD16758F13D53700930621
:1024E000F07F9317D701C98F0D836319D600D98F59
:1024F000014789C73707080081478144B706F07F45
:1025000052063207758E3183518FFE04B3669700F1
:102510003E87B68799C173A01500F2406244D24449
:102520004249B249224A3A85BE8505618280E387E5
:1025300085DA81456DBBB285E30B05A4A5BFE38EAB
:1025400085A4814599B4797122D456CA66C206D64B
:1025500026D24AD04ECE52CC5AC85EC662C42A8415
:10256000B28CB68A7329200013DB4501939BC5000A
:10257000137BFB7F93DBCB0013DAF50163060B02C1
:102580009307F07F630BFB061357D5018E0BB36BDC
:102590007701B7078000B3EBFB0093193500130BED
:1025A0001BC0014C8144BDA0B3E7AB00E1C7638B06
:1025B0000B025E85EF10B02E130755FFF14763C87D
:1025C000E702F546930985FF998EB39B3B01B3560D
:1025D000D400B3EB7601B31934019305D0C0338B2B
:1025E000A540C1B7EF10B02B13050502F1B7930B4F
:1025F00085FDB31B74018149CDB733E4AB0041C005
:10260000B7070800B3F7FB00AA89130BF07F0D4C46
:10261000C144C9FB1395CA001354C50013D54A0120
:102620009375F57FE68793DAFA01A5C11307F07F6A
:102630006387E50A93D7DC01131534005D8D3704F9
:102640008000498C93973C00138515C00147931671
:102650002C00D98EB305AB40FD16394533465A01DF
:102660006368D50A376500908A06130585F6AA9631
:1026700094428286814B8149014B054C25B7814BA1
:102680008149130BF07F094C31BFB3679401A5C793
:102690001DC82285EF10B020AA85938655FFF1470B
:1026A00063C9D7027547938785FF158F3315F400EB
:1026B00033D7EC003364A700B397FC001307D0C0F6
:1026C0003305B74061B76685EF10701D93050502AD
:1026D000E9B7138585FD3394AC008147C5B73366F0
:1026E000940119CE37070800618F1305F07F19EFA9
:1026F0000D47C144A9BF014481470145054781BF3A
:10270000014481471305F07F094791B70D4781B711
:102710006366740163948B2663E2F9261395FB01CB
:1027200013D719009396F90193DB1B00B369E500F9
:102730001315840013D887013368A800418133DE64
:10274000AB02131F0801135F0F019398870093D703
:102750000901B3FBAB0272833307CF03C20BB3E7AC
:10276000770163FCE700C2971303FEFF63E70701ED
:1027700063F5E7001303EEFFC297998FB3DEA7025C
:10278000139709014183B3F7A702F689330EDF03DC
:10279000C2075D8F637CC70142979389FEFF636721
:1027A00007016375C7019389EEFF42974203B3693E
:1027B00033014163930EF3FF93D2090193DF0801C4
:1027C0003307C74133FED901B3FED801B307DE0397
:1027D0003384D203338ECF03B3038E0013DE07019D
:1027E0001E9EB382F20363738E009A92C1631353E9
:1027F0000E01FD139A9233737E004203B3F7770004
:102800003E93636757004E84631E570263FC660263
:10281000C696B3B71601C2973E971384F9FF636655
:10282000E8006311E80263EF160163665700639BDB
:10283000E20063F96600C696B3B71601C297138427
:10284000E9FF3E973383664033075740B3B66600CF
:10285000158FFD576307E80EB352A7029357030184
:102860003377A7029686330E5F0242075D8F637C43
:10287000C70142979386F2FF636707016375C7013B
:102880009386E2FF42973307C741335EA70293174F
:102890000301C1833377A702330FCF0342075D8F54
:1028A000F287637CE70142979307FEFF63670701A6
:1028B0006375E7019307EEFF4297C206DD8E93979B
:1028C0000601C18313D30601338E6F023307E7413C
:1028D000B38FFF02338FFE02B30ED30393570F0162
:1028E000F69FFE9763F4D70141652A9E13D3070133
:1028F0007293416E7D1E33F5C7014205337FCF01D0
:102900007A95636667006312672CB6871DC9429784
:102910009387F6FF63610703636667006316672AA0
:1029200063FDA8009387E6FF93961800B3B81601DD
:1029300046984297B688631467006384A80093E7BB
:1029400017001388F53F6358001113F7770025CF60
:10295000094793E414006307E9060D476300E9069D
:102960006313090613F7F7009146630ED704138724
:102970004700B337F7003E94BA87B1A0FD158146F2
:1029800045BB52865E84CE8762878D466307D72219
:1029900085466301D7228946E315D7FA29A05686D2
:1029A000EDB793E48400014581471307F07F91A0C0
:1029B00037040800814701460D47C1BF09E6138768
:1029C000870045BF6DFE37070001618F19C73707C4
:1029D00000FF7D17798C138805401307E07F63465D
:1029E000070513D737009317D401D98F1355340037
:1029F00042875207B706F07F3205758F3181598DB6
:102A00007E063367C500BA853E8599C073A0140061
:102A1000B250225492540259F249624AD24A424B6D
:102A2000B24B224C924C4561828089476303F90284
:102A30008D476308F9006317090081471307F07F8A
:102A400029A065DEFD571307E07F93E454003E851F
:102A50004DB765F6C5BF05476314080493F67700C4
:102A600022879DCA894693E414006306D9028D46E5
:102A7000630FD9006312090293F6F7001145638DC5
:102A8000A60013B7C7FF13471700229731A009E626
:102A900013B787FFCDBF6DFE618313471700058B0A
:102AA0000545330505419306800363C2A60CFD4628
:102AB00063CAA6049385E54133D8A700B316B400D2
:102AC000B397B700B3E60601B337F000D58F33559F
:102AD000A40093F67700ADC2894693E41400630C1A
:102AE000D9048D466305D9046318090493F6F700E9
:102AF00091456383B60493864700B3B7F6003E95CD
:102B0000B6871DA88556B386064193080002B356C2
:102B1000D4000148630615019385E5433318B400DA
:102B2000B367F800B337F000D58F01455DB709E60C
:102B300093868700D9B76DFEB7068000E98E81CAFB
:102B400093E414000145814705E305475DB593D63D
:102B500037009317D501D58F0D81E30C07E813F7E4
:102B60001400E30807E8014793E4240059B5C18F36
:102B700091CF894793E414006303F9028D47630CF6
:102B8000F90085476313090095478D8393E424007A
:102B900001450147B9BDA5476DDA8547FDB7A54792
:102BA0006DF6E5BF3705080081471307F07F014642
:102BB000C14481B501458147E9BF37050800814718
:102BC0001307F07F014635B5BE86B6878DBB2A88D0
:102BD000F3272000B707100093D84501FD1713D342
:102BE00046012A8E93F8F87F1305F07F33F7B7007C
:102BF000B28EF58FFD811373F37FFD826398A80079
:102C00003365070131E56314130719A06315A300A9
:102C100033E5C70015E50545639C6804631AF704AE
:102C20006318DE05638CD5006394080433670701DD
:102C30003335E00082807360180015A8014582805A
:102C40009306F07F6391D80233680701630D080093
:102C5000B7060800758F65D31307F07F0545631924
:102C6000E3005D8E11C637070800F98FE9D70545E7
:102C70008280AA8773272000370710007D1713D89A
:102C80004501B378B7002A831378F87F13D5F5018F
:102C9000930EF07F93D54601758F328E93F5F57FB5
:102CA000FD82631AD801B3EEF80063860E067360E6
:102CB0001800795582806396D501B36EC700E398FA
:102CC0000EFE631C0804B3E7F80093B7170099E100
:102CD000598E0DCE81EB6314D50063D905010DC566
:102CE0007D5582807D5591C6368582806354B800BB
:102CF00065D98280E36517FF639CE800E3616EFE9F
:102D0000E368C3FF0145828005458280E5FFC1BFBE
:102D1000E3E0E8FEC5BFE38205FBD5FD81474DBF7B
:102D2000AA8773272000370710007D1713D84501A5
:102D3000B378B7002A831378F87F13D5F501930E83
:102D4000F07F93D54601758F328E93F5F57FFD8226
:102D5000631AD801B3EEF80063860E06736018009C
:102D6000094582806396D501B36EC700E3980EFED5
:102D7000631C0804B3E7F80093B7170099E1598E74
:102D80000DCE81EB6314D50063D905010DC57D55CA
:102D900082807D5591C6368582806354B80065D99E
:102DA0008280E36517FF639CE800E3616EFEE368E1
:102DB000C3FF0145828005458280E5FFC1BFE3E096
:102DC000E8FEC5BFE38205FBD5FD81474DBF7971A4
:102DD00022D456CA66C206D626D24AD04ECE52CC8D
:102DE0005AC85EC662C42A84B28CB68A732920008F
:102DF00093DB45019399C50093FBFB7F93D9C900F1
:102E000013DBF50163860B029307F07F638BFB06F0
:102E10009357D5018E09B3E93701B7078000B3E9AD
:102E2000F900131A3500938B1BC0014C8144BDA0DF
:102E3000B3E7A900F9C3638B09024E85EF10202682
:102E4000130755FFF14763C8E702F547130A85FFEB
:102E5000998FB3994901B357F400B3E93701331A95
:102E60004401930BD0C0B38BAB40C1B7EF1020230C
:102E700013050502F1B7930985FDB3193401014A21
:102E8000CDB733E4A9003DCCB7070800B3F7F9008C
:102E90002A8A930BF07F0D4CC144C9FB13D54A011C
:102EA0001394CA001375F57FE687318093DAFA012F
:102EB00025C11307F07F6305E50A93D7DC010E04F3
:102EC0005D8CB70780005D8C130515C093973C009F
:102ED000014793162C00D98EAA9BFD163946B3459F
:102EE0005B0113851B006369D60E376600908A0666
:102EF000130646FAB296944282868149014A814B72
:102F0000054C2DB78149014A930BF07F094C39BF1D
:102F1000B3679401B5C30DC82285EF10401893061E
:102F200055FFF14763C8D7027547930785FF158F93
:102F30003314F40033D7EC00598CB397FC0013071B
:102F4000D0C03305A74069B76685EF10401513055B
:102F50000502F1B7130485FD33948C008147C5B792
:102F60003366940119CE37070800618F1305F07F8F
:102F700019EF0D47C144B1BF0144814701450547E1
:102F800089BF014481471305F07F094799B70D4771
:102F900089B73704080081471307F07F8145C14492
:102FA0005207B706F07F3204758F3180FE05598CC9
:102FB0003367B4003E85BA8599C073A01400B2503F
:102FC000225492540259F249624AD24A424BB24BBD
:102FD000224C924C45618280C16E138EFEFF1357C6
:102FE0000A0193D80701337ACA01B3F7C7013388BE
:102FF0004803B3864703330FF7023303E80113D8BE
:1030000006011A98330617036373E8017696935FF7
:1030100008013378C801B3F6C601935E0401337E1C
:10302000C40142083698330FC703B306CA03338A74
:103030004E033303EA0113DA06011A9A3307D70362
:103040006374EA0141631A9713530A013A93416783
:10305000130FF7FF337AEA01B3F6E60113D409013F
:10306000420AB3F9E901338F3703369AD29FB38608
:103070003803B307F402B3828802B388F60093568C
:103080000F01C69663F3F600BA9241679307F7FF04
:10309000337FFF0093D80601FD8EB387C903C206B4
:1030A000FA969698330EC403B3893E03338F8E028B
:1030B000F29913D40701A29963F3C9013A9F416EB3
:1030C0007D1E33F7C901B3F7C70142077E963E97CD
:1030D000333A46011A97330447013696B336D60081
:1030E000330E1401B30EDE0033376700333444016E
:1030F000598CB3B6DE0093D90901B3381E014E9442
:10310000B3E6D80036947A9493D77E0126045D8C7A
:1031100093179600B3E70701B337F0005D823707D6
:103120000001D18FA60E618FB3E7D70125CB13D74E
:103130001700858BD98F1317F401D98F05801308D9
:10314000F53F6350000D13F7770025C3094793E45B
:103150001400630BE9040D476304E90463170904D1
:1031600013F7F70091466302D70413874700B3377C
:10317000F7003E94BA8715A8DA854E84D287628715
:1031800089466307D71C8D466309D71C8546E3181B
:10319000D7FA0144814765A2D685DDB75E8545B77C
:1031A00089E513878700E1B7EDFD37070001618FDF
:1031B00019C7370700FF7D17798C130805401307DF
:1031C000E07F634A070113D737009317D401D98FE3
:1031D0000D804287F1B389476303F9028D47630885
:1031E000F9006317090081471307F07F29A0E5DD87
:1031F000FD571307E07F93E454003E8455B3E5F593
:10320000C5BF05476314080493F6770022879DCA5B
:10321000894693E414006306D9028D46630FD900F2
:103220006312090293F6F7001146638DC60013B7C7
:10323000C7FF13471700229731A089E513B787FF0F
:10324000CDBFEDFD618313471700058B8546B3861F
:103250000641130680036342D60C7D46634AD604BA
:103260001305E5413316A40033D8D700B397A70060
:1032700033660601B337F000D18F3354D40093F690
:103280007700ADC2894693E41400630CD9048D46DF
:103290006305D9046318090493F6F70011466383A4
:1032A000C60493864700B3B7F6003E94B6871DA8C0
:1032B000055633060641930800023356C400014800
:1032C000638616011305E5433318A400B367F800BD
:1032D000B337F000D18F01445DB789E5938687004D
:1032E000D9B7EDFDB7068000E18E81CA93E41400E2
:1032F0000144814705E3054765B193D6370093172D
:10330000D401D58F0D80E30D07C813F71400E3092E
:1033100007C8014793E4240061B1C18F91CF894769
:1033200093E414006303F9028D47630CF9008547A9
:103330006313090095478D8393E4240001440147FA
:1033400085B1A547EDD98547FDB7A547EDF5E5BFA3
:10335000014481471307F07FA1B13704080081477A
:103360001307F07F81452DB9011106CE22CC26CA64
:103370004AC84EC652C4F3292000B7081000FD18F1
:1033800033F7B80013D44501B3F8D80093D4F5014E
:1033900093D546019317370013D3F6011357D50180
:1033A0009356D6018E081318360093F5F57F130651
:1033B000F07F5D8F1374F47F93173500B3E6160129
:1033C0006395C50033E6060119E213431300330683
:1033D000B4406316933C6350C012A9E933E506017B
:1033E0000DE19306F07F01446313D624B366F70022
:1033F000638E067837044000798C1334140012046D
:103400003DA41305F6FF01E93E98BA96B337F800DC
:10341000BE96054641A09308F07F631F1603B3666E
:10342000F700E9FA0147814701448DAC9305F07F2D
:103430006310B402B366F700638D0674B7064000EC
:10344000F98E1306F07F81456390062E4144C5A294
:10345000B7058000CD8E3285130680036348A60829
:103460007D46634FA60413060002098EB395C6007D
:10347000B358A8003318C800B3E51501333800016C
:1034800033E80501B3D6A6003E98BA96B337F800E4
:10349000BE962286B7078000F58FADCB0506930751
:1034A000F07F630EF62C370780FF7D1793571800C7
:1034B000758F1378180033E807019317F7018DA46F
:1034C000930505FE93080002B3D5B60001466307D5
:1034D000150113060004098E3396C60033680601F1
:1034E0003338000133E80501814679BF33E806012E
:1034F00033380001D5BF65CE3386854029E8336572
:10350000F70011E99307F07F6306F6023687C2875A
:10351000630E064609AC9308F6FF63990800C2974C
:1035200033B80701BA96C2963E88E5B51305F07F19
:103530006316A604B3E70601014763810716B707C0
:103540004000F58F368763990764C28715A013057D
:10355000F07F6391A502B3E70601638B0760B707AD
:103560004000F58F368763990760C2871306F07FA6
:103570008145E9BD37058000498FB2881306800375
:10358000634316077D46634B16031305000233059C
:1035900015413316A70033D31701B397A70033663D
:1035A0006600B337F000D18F33571701C2973697B3
:1035B000B3B60701BA963E882E86E9BD138608FE8B
:1035C000130300023356C7000145638868001305E2
:1035D0000004330515413315A700C98FB337F00038
:1035E000D18F0147E1B7D98FB337F000DDBF1306A4
:1035F00014001375E67F631805103366F70039E091
:10360000630B065233E60601630206383E98B33771
:10361000F80036973E97B7078000F98F638E075002
:10362000B70780FFFD177D8F8145C287054693F65A
:10363000770063900612BDC193761400A5C213648F
:103640002400A9A81305F07F6315A4026304065C97
:1036500037044000798C1334140012046397A502D8
:10366000B3E5060191C9B7054000F58D91E54144E8
:1036700021A00144E386A5FE09EA3687C287814579
:103680001306F07F6DB70144E1BFB3E60601E5DA4A
:1036900081443707400081471306F07FB70680005A
:1036A000F98E91CA05069306F07F630ED652B706CF
:1036B00080FFFD16758F13D537009306F07F9317A3
:1036C000D701C98F0D836319D600D98F014789C7E8
:1036D0003707080081478144B706F07F520632075A
:1036E000758E3183518FFE04B36697003E85B68593
:1036F00019C073201400F2406244D2444249B249D6
:10370000224A056182809305F07F6301B6023E98EC
:10371000B337F80036973E979317F7011358180000
:10372000B3E7070105838145014411B763860900AA
:103730008D476396F90081E81306F07F81A88947D9
:103740006393F900F5F881457D57FD571306E07F37
:1037500015448946136414006383D9488D46638CED
:10376000D946639F094693F6F7001145638AA6463A
:1037700093864700B3B7F6003E97B68795A1638757
:1037800009008D476398F900639C043E0147814717
:10379000154429B789476395F93EEDF86DB763572E
:1037A000C00CC9E133E50601E30D05C21305F6FFC0
:1037B00011E933880741B306D740B3B707019D8E9F
:1037C0000546A9A09308F07FE30B16C513068003F6
:1037D0006349A6087D466340A60613060002098ECB
:1037E000B395C600B358A8003318C800B3E5150157
:1037F0003338000133E80501B3D6A600338807410A
:10380000B306D740B3B707019D8E228637098000E3
:10381000B3F72601E38C07CE7D1933F92601428ADE
:103820003284B5A49305F07FE306B4C0B7058000E9
:10383000CD8E328561BF930505FE93080002B3D596
:10384000B60001466307150113060004098E33967E
:10385000C600336806013338000133E805018146AC
:1038600071BF33E8060133380001D5BF6DCE338612
:10387000854039E43365F70009E59307F07F9A84C2
:1038800061B19308F6FF639C0800B307F840333832
:10389000F800998EB38606419A843E8815B71305C1
:1038A000F07F6315A604B3E70601638A072EB70706
:1038B0004000F58F36876397072EC2879A844DB9EB
:1038C0001305F07F6390A502B3E70601638F072C11
:1038D000B7074000F58F3687639E072CC287130613
:1038E000F07FE9BF37058000498FB2881306800357
:1038F000634716077D46634F160313050002330521
:1039000015413316A70033DE1701B397A7003366BE
:10391000C601B337F000D18F33571701B307F84012
:103920003387E640B336F800B306D7403E882E868C
:103930009A84E9BD138608FE130E00023356C700B1
:1039400001456388C801130500043305154133158B
:10395000A700C98FB337F000D18F0147C1B7D98F06
:10396000B337F000DDBF130614001376E67F7DEA5F
:103970003365F70033E6060155E02DE16310061CC0
:103980009384E9FF93B4140001478147B3E6E7004D
:10399000638F062293D6F70193151700B695939679
:1039A000170013F67600014405C609466388C91A54
:1039B0000D46638BC9180544639C090013F6F60095
:1039C00011456307A60093B6C6FF93C61600B695C9
:1039D000E18193C515008589014691B945DAB38522
:1039E000074133B5B7003306D740098E370580004D
:1039F000718D19C9B307F8403387E6403338F800B2
:103A0000330707419A8459B7B3E7C500639B071290
:103A10009384E9FF93B4140001478DBF9308F07FAE
:103A2000631314036304051E37044000798C1334B8
:103A3000140012046395150311CAB7054000F58DF3
:103A400091E5414421A00144E38815FF09E9630899
:103A500006163687C2879A841DB10144F1BFE30080
:103A600006C23DB1338A074133B647013309D74017
:103A70003309C940370680003376C90025C6330AAA
:103A8000F840998E33384801338906419A84630F90
:103A900009044A852925130685FFFD4763CDC70420
:103AA00093060002918E3317C900B356DA00D98EFF
:103AB0003318CA00634A8606018E13071600FD47B5
:103AC00063C1E70413060002198EB397C60033558D
:103AD000E8003316C800C98F3336C000D18F33D702
:103AE000E6006DB5B3672A01DDF31DB75285452B9E
:103AF000130505024DB7930685FDB316DA0001489C
:103B000055BF05169305000233D6C60081476307EB
:103B1000B70093070004998FB397F600B367F800D6
:103B2000B337F000D18FCDBDB70780FFFD17330647
:103B3000C440FD8EE1BA3687C28789BD3687C28709
:103B4000D1B53287AE8799B52684E39304E893B65E
:103B500086FF93C61600B69505449DBD0544E389CE
:103B600004E693B686FF93C61600B69526848DB5F7
:103B700001471306F07F4DB8C2871306F07F65B684
:103B80007D57FD571306E07F8145D9B60147814730
:103B900031B601478147F1BFC287814549BC014722
:103BA0009A84EDBCC2879A84CDBF01471306F07F8B
:103BB0009A849DB8C2871306F07F9A84ADB6814778
:103BC0008144370740001306F07F4144C1BC0147E0
:103BD0008147014691B889E49386870061BEEDFC78
:103BE000E39F05A465BC8147638E09000D47639779
:103BF000E90089C8FD571306E07F29A00947E39B28
:103C0000E9FEEDD8136454003E8775B4E38785E47C
:103C1000014435BDE38985A6014485B42A87F3278D
:103C20002000B7071000FD1733F8B700D181F58FDA
:103C300093F5F57FD1821305F07F93F6F67F6395B8
:103C4000A5003365E80005E19308F07F0145639323
:103C50001605B3E8C7006393080082806393D5021A
:103C60003367E80001CF370708003378E800630FB7
:103C700008001307F07F0545639EE6005D8E05454D
:103C800011CA37070800F98F054589E773601800E6
:103C90000545828082802A88F3272000B70710001C
:103CA00093D645011386F7FF93F6F67F1307E03F9F
:103CB0006D8EFD816346D700D1EA518D41E9828046
:103CC0001307D0416358D702370700801347F7FF27
:103CD0003385E500BDCD9307E04141476392F6048B
:103CE0009317B60013565801D18F9DEB1317B800E8
:103CF0003DE3828013053043158D7D47D18F6344AA
:103D0000A7021386D6BEB316C800B397C7003355B3
:103D1000A8003337D0005D8D99C13305A04019C389
:103D20007320170082801306000201476306C50056
:103D30001387D6C03397E700130530413367070177
:103D4000158D3337E00033D5A700F9B70145054796
:103D5000C1BF4147F1B72E87E1B7411106C622C462
:103D600026C221CD9357F54133C4A7001D8C93542F
:103D7000F50122852D261307E041A947098F63C865
:103D8000A702AD47898F5505B357F4003314A4003B
:103D90002685B2075207B1837E05D98FB24033E73B
:103DA000A700228522449244BA854101828055159C
:103DB000B317A40026850144E9BF01478147E5BF49
:103DC0004111D30705E006C622C426C24AC07327A4
:103DD000200093D4770193F4F40F13871400139405
:103DE00097001377E70F258013D9F7010DCB1385C3
:103DF00004389357340081447604B2075205B183E6
:103E0000C98F7E0933E727012285BA8599C073A03F
:103E10001400B2402244924402494101828095E854
:103E200029C82285AD2CA94763CFA700AD47898F4C
:103E300013075501B357F4003314E4001307903807
:103E40003305A7405DBF930755FFB317F400014446
:103E5000F5B71DC0B7074000E18F91E34147935785
:103E60003400B70608007604D58FBA841305F07FB6
:103E700069B78147014551B781478144C5BF732860
:103E8000200013D745019378F77F9397C5001387D8
:103E90001800A5839356D5011377E77FDD8EFD814A
:103EA00093173500630D0710138608C81307E00F3A
:103EB000635DC704630B08148D476319F8006386BC
:103EC0000514FD571306E00F014711A88947E31AAF
:103ED000F8FE639C05120147FD571306E00F954855
:103EE000894693E818006307D8188D466300D818F0
:103EF0006318080093F6F70011456383A600910745
:103F00006309071093E8280029A2634AC0082557CF
:103F1000634CE60A370780007945D98E118D7D47BD
:103F2000634CA704138728C833D5A700B397E700CD
:103F3000B337F000B396E600DD8EB367D500638437
:103F400007121397170093767700814885C2894638
:103F50006308D80A8D466300D80A854863180800AC
:103F60009376F70011466383C60011076D831347EC
:103F70001700058B01462DA879573306C740130358
:103F8000000233D6C600014763066500138728CABE
:103F90003397E600D98FB337F000D18F4DB71A05AC
:103FA0003335A0008E06F583C98ED58F0147814831
:103FB00093F6770095F631CF13F7180091B7D58FA8
:103FC000639608000146B1C78547A5BFC9CB9307D3
:103FD000F07F6390F802B7084000B3F8160193B879
:103FE000180092088E06B7070002D58F1306F00F4F
:103FF000C1B78148C5BFAE88B5F921078548BDB7AF
:104000008548ADD52107AE8895B781471306F00FD7
:104010009548370700047D8F11CB05061307F00F75
:10402000630DE604370700FC7D17F98F1307F00FC7
:104030008D836316E60081C7B707400081455E06A1
:104040003707807FA607798EA583D18FFE05CD8F98
:104050006384080073A01800538507F082808148AC
:104060001306F00F7DB70146814865B7E39A05E86E
:10407000A10779B5E38605E8E5BF8147630E08002F
:104080000D476317E80089C9FD571306E00F29A003
:104090000947E31BE8FEEDD993E8580041BFC1672B
:1040A0006376F5029307F00FB3B7A7008E07376763
:1040B0000090930600029D8E3355F500930707FE8E
:1040C0003E95034505003385A640828037070001F1
:1040D000C147E36EE5FCE147D9BF011122CE0010D4
:1040E0002326A4FE2324B4FE8327C4FE032784FED4
:1040F00098C30100724405618280797106D622D48A
:104100004AD24ED00018232604FE4DA88327C4FEB1
:10411000D3F717D05385F72065312A87AE87B76666
:10412000009003A606B283A646B23A85BE85EFE0AC
:104130001FCA2A87AE873A85BE859133D307A5204B
:104140002724F4FE072584FEEFC0AFEE2722A4FE4D
:10415000072744FEB767009087A787B2D377F71089
:104160002720F4FE872704FED39707C0232EF4FCF4
:104170000325C4FD992C072584FE99312A89AE892F
:10418000072544FE35392A87AE874A86CE868325A1
:10419000C4FE37650090130505B0EF10F003B7E7D4
:1041A000ADDE9385D7EA71550D3F13054006EF004C
:1041B00020718327C4FE85072326F4FE0327C4FE4F
:1041C00093077016E3F4E7F43DBF011122CE00100F
:1041D0002326A4FE2324B4FE8327C4FE032784FEE3
:1041E00098C30100724405618280011122CE001043
:1041F0002326A4FE8327C4FE9C433E8572440561AA
:104200008280411106C622C400088145370500A0FE
:104210006D3F8145B70700A0138547007D37814575
:10422000B70700A0138587004D37FD55B70700A0DD
:1042300013850701593FB70700049385F7FFB707B8
:1042400000A01385470151378145B70700A01385AA
:104250008701A53F0145E52E014531200100B2400F
:10426000224441018280797106D622D40018232E7F
:10427000A4FC8327C4FD93F7F70FBD8BA307F4FEBF
:104280008327C4FD918393F7F70FBD8B2307F4FEBB
:104290008327C4FDA18393F7F70FBD8BA306F4FE1C
:1042A0008327C4FDB18393F7F70FBD8B2306F4FE7C
:1042B0008327C4FDC18393F7F70FBD8BA305F4FEDD
:1042C0008327C4FDD18393F7F70FBD8B2305F4FE3D
:1042D0008347F4FE376700901307070EBA9783C72A
:1042E0000700A307F4FE8347E4FE37670090130737
:1042F000070EBA9783C707002307F4FE8347D4FE4F
:10430000376700901307070EBA9783C70700A30605
:10431000F4FE8347C4FE376700901307070EBA9771
:1043200083C707002306F4FE8347B4FE3767009077
:104330001307070EBA9783C70700A305F4FE834748
:10434000A4FE376700901307070EBA9783C70700CC
:104350002305F4FE8347C4FE139787018347D4FEE9
:10436000C2075D8F8347E4FEA2075D8F8347F4FE9B
:10437000D98F2322F4FE832544FE370500A0B135F2
:10438000B70700A0138547008D352322A4FE03271D
:1043900044FEC177F98F2322F4FE8347A4FEA207CF
:1043A0003E87832744FE5D8F8347B4FED98F232247
:1043B000F4FE832544FEB70700A01385470031357E
:1043C0000100B2502254456182805D7186C6A2C44C
:1043D0008008232EA4FA8327C4FB63C50700930734
:1043E000F00F19A09307F00BA307F4FE8327C4FB7B
:1043F00013D7F7418327C4FBB98F998F2324F4FE89
:10440000032784FE8967938707713357F702A9470B
:10441000B377F7022322F4FE032784FE9307803E3E
:104420003357F702A947B377F7022320F4FE032797
:1044300084FE930740063357F702A947B377F70284
:10444000232EF4FC032784FEA9473357F702A9471C
:10445000B377F702232CF4FC032784FEA947B37734
:10446000F702232AF4FC832744FE1397470083278F
:1044700004FEBA97139747008327C4FDBA97139792
:104480004700832784FDBA979207032744FDBA9714
:104490002328F4FC832704FDC18393F7F70FBD8B1A
:1044A000A307F4FC832704FDB18393F7F70FBD8BBB
:1044B0002307F4FC832704FDA18393F7F70FBD8B3B
:1044C000A306F4FC832704FD918393F7F70FBD8BBC
:1044D0002306F4FC832704FD93F7F70FBD8BA30598
:1044E000F4FC8347F4FC93B7170093F7F70F2322EC
:1044F000F4FC832744FC99EB8347F4FC3767009076
:104500001307070EBA9783C7070019A09307F00F88
:10451000A307F4FC8347E4FC93B7170093F7F70F66
:104520003E87832744FCF98F2322F4FC832744FC35
:1045300099EB8347E4FC376700901307070EBA979F
:1045400083C7070019A09307F00F2307F4FC8347E4
:10455000D4FC93B7170093F7F70F3E87832744FCEB
:10456000F98F2322F4FC832744FC99EB8347D4FC86
:10457000376700901307070EBA9783C7070019A083
:104580009307F00FA306F4FC8347C4FC93B717000E
:1045900093F7F70F3E87832744FCF98F2322F4FC1F
:1045A000832744FC99EB8347C4FC376700901307CB
:1045B000070EBA9783C7070019A09307F00F2306C9
:1045C000F4FC8347B4FC376700901307070EBA97D3
:1045D00083C70700A305F4FC8347E4FC1397870116
:1045E0008347D4FCC2075D8F8347C4FCA2075D8F5D
:1045F0008347B4FCD98F2320F4FC832504FC3705C2
:1046000000A0E136B70700A013854700F93E23203C
:10461000A4FC032704FCC177F98F2320F4FC834713
:10462000F4FEA2073E87832704FC5D8F8347F4FCDA
:10463000D98F2320F4FC832504FCB70700A0138541
:10464000470061360100B64026446161828079717D
:1046500006D622D40018232EA4FC8327C4FD93F78A
:10466000F73F232EF4FCB70700A013854700B53EA3
:104670002326A4FE0327C4FEB70701FCFD17F98F0C
:104680002326F4FE8327C4FDC2070327C4FED98F67
:104690002326F4FE8325C4FEB70700A01385470038
:1046A0002D360100B250225445618280011106CEA0
:1046B00022CC0010B70700A0138587003D362326C3
:1046C000A4FE8327C4FE93C7F7FFA983858B232607
:1046D000F4FE8327C4FE3E85F24062440561828079
:1046E000011106CE22CC0010B70700A01385870069
:1046F000ED3C2326A4FE8327C4FE93F7F73F232631
:10470000F4FE8327C4FE3E85F24062440561828048
:10471000011122CE00102326A4FE2324B4FE8327F9
:10472000C4FE032784FE98C30100724405618280A1
:10473000011122CE00102326A4FE8327C4FE9C4331
:104740003E85724405618280011106CE22CC0010A4
:104750008547739087BF8147739007BF85477390E4
:1047600047BF8547739027BFF32740302326F4FEC9
:104770008327C4FE93E7070873904730F327003080
:104780002324F4FE832784FE93E787007390073089
:10479000A545B7070049138547009D3F8145B707E9
:1047A000004913858700AD378145B7070049138558
:1047B000C700B93FB7170300938507D4B70700496F
:1047C00013850701B1378145B707004913854701B4
:1047D0008137954537050049253F0100F240624485
:1047E00005618280411106C622C426C20008B707AF
:1047F000008883A787083E85993D4D3DAA8789EFAC
:10480000C5352A87B707008883A787083E97B7076B
:10481000008823A4E70829A8B707008883A487088D
:10482000C135AA873387F440B707008823A4E70877
:1048300037050049F53DAA87BE8537050049C93DC2
:104840000100B2402244924441018280011106CE0F
:1048500022CC0010F32760BF2326F4FE8327C4FE7A
:104860002324F4FE832784FE858B89C7F1228547A4
:10487000739067BF0100F2406244056182800111BC
:1048800022CE0010F32710302326F4FE8327C4FE27
:104890002324F4FE832784FE93F7070291C7B757BA
:1048A000FE009387B70229A0B7373101938707D05D
:1048B0002322F4FE832744FE3E85724405618280F4
:1048C000597186D6A2D4CAD2CED0D2CED6CCDACA2C
:1048D000DEC88018232EA4F85D37232EA4FCF3270E
:1048E00000B0232CF4FC832784FD2328F4FC232A26
:1048F00004FCF32700B82326F4FC8327C4FC232000
:10490000F4FC232204FC832704FC939B0700014B47
:10491000032604FD832644FD33076601BA85B3B53B
:10492000C500B3877601B386F500B687232CE4FA79
:10493000232EF4FAF32700B0232AF4FA832744FB4A
:104940002328F4FC232A04FCF32700B82328F4FAD4
:10495000832704FB2320F4FC232204FC832704FC8C
:10496000939A0700014A032604FD832644FD33077A
:104970004601BA85B3B5C500B3875601B386F500C5
:10498000B6872324E4FA2326F4FA0327C4F98327FD
:10499000C4FD3307F7029307803EB357F7023E8901
:1049A0008149032684FB8326C4FB3307C900BA85EB
:1049B000B3B52501B387D900B386F500B687832642
:1049C000C4FA3E86E3E8C6F68326C4FA3E866398B8
:1049D000C600832684FABA8763F3F600A1BF0100FC
:1049E0000100B650265416598659764AE64A564B67
:1049F000C64B65618280011122CE00102326A4FEE1
:104A0000AE87A305F4FE8327C4FE0347B4FE2380CC
:104A1000E7000100724405618280011122CE00107E
:104A20002326A4FE8327C4FE83C7070093F7F70F4E
:104A30003E85724405618280011106CE22CC0010B1
:104A4000B707008803A7C708B707008823A8E708A7
:104A5000B707008803A74709B707008823A6E70818
:104A60001D22AA873E87B707008823AAE708B70751
:104A7000008883A7070913970701B707008883A752
:104A8000C708A2073E97B707008883A74709BA97C8
:104A90002326F4FE0325C4FEEFF0EFFCB7070088E1
:104AA00083A7470993F7F70F3E855D20B707008876
:104AB00003A74709B5476314F700294551280100AA
:104AC000F240624405618280011106CE22CC0010C2
:104AD0007D332326A4FE0327C4FEB7373101938715
:104AE00007D0631FF7009545B70700B0138527006F
:104AF00019379945B70700B013853700ED3D29A850
:104B00009145B70700B013852700F5359945B707DC
:104B100000B013853700C53593050004B70700B012
:104B200013851700C93DB707008837570090130752
:104B300007B523ACE708B70700883757009013077D
:104B400067B823A0E70A0100F24062440561828051
:104B5000011106CE22CC0010AA87A307F4FE0100A3
:104B6000B70700B0138517004D3DAA87898BEDDB91
:104B70008347F4FEBE85370500B0B53D0100F24025
:104B8000624405618280411106C622C4000801000A
:104B9000B70700B0138517004935AA87858BEDDB71
:104BA000370500B09D3DAA873E85B24022444101B1
:104BB0008280797106D622D40018232CA4FC232EDF
:104BC000B4FC232604FEBDA8B767009003A687B6F1
:104BD00083A6C7B6032584FD8325C4FDEFE06F8956
:104BE000AA8763CA0702B767009003A687B683A6A1
:104BF000C7B6032584FD8325C4FDEFD0DF942A8743
:104C0000AE87232CE4FC232EF4FC8327C4FE9507F7
:104C10002326F4FE05A8B767009003A607B783A66E
:104C200047B7032584FD8325C4FDEFD0DF912A8794
:104C3000AE87232CE4FC232EF4FC8327C4FE8507D7
:104C40002326F4FEB767009003A607B783A647B7ED
:104C5000032584FD8325C4FDEFE0AF81AA87E3D55A
:104C600007F6BDA8B767009003A687B783A6C7B7A6
:104C7000032584FD8325C4FDEFE08F8AAA8763DACC
:104C80000702B767009003A687B683A6C7B60325B9
:104C900084FD8325C4FDEFE08F932A87AE87232C04
:104CA000E4FC232EF4FC8327C4FEED172326F4FE38
:104CB00005A8B767009003A607B783A647B70325E3
:104CC00084FD8325C4FDEFE08F902A87AE87232CD7
:104CD000E4FC232EF4FC8327C4FEFD172326F4FEF8
:104CE000B767009003A607B883A647B8032584FDDD
:104CF0008325C4FDEFE0CF82AA87E3C507F68327AB
:104D0000C4FE3E85B250225445618280797106D638
:104D100022D40018232EA4FCB767009003A707B87D
:104D200083A747B82324E4FE2326F4FEADA003277F
:104D3000C4FD914763DAE702B767009003A687B620
:104D400083A6C7B6032584FE8325C4FEEFE02F8823
:104D50002A87AE872324E4FE2326F4FE8327C4FD9E
:104D6000ED17232EF4FC05A8B767009003A607B73C
:104D700083A647B7032584FE8325C4FEEFE02F8575
:104D80002A87AE872324E4FE2326F4FE8327C4FD6E
:104D9000FD17232EF4FC8327C4FDE34AF0F8ADA0F1
:104DA0000327C4FDF157635AF702B767009003A6C3
:104DB00087B683A6C7B6032584FE8325C4FEEFD03D
:104DC0008FF82A87AE872324E4FE2326F4FE832768
:104DD000C4FD9507232EF4FC05A8B767009003A631
:104DE00007B783A647B7032584FE8325C4FEEFD00B
:104DF0008FF52A87AE872324E4FE2326F4FE83273B
:104E0000C4FD8507232EF4FC8327C4FDE3CA07F8FD
:104E1000032784FE8327C4FE3A85BE85B250225400
:104E2000456182801D7186CEA2CCA6CACAC8CEC6F4
:104E30008010232EA4FA2328B4FA232AC4FA232CA0
:104E4000D4FABA87A307F4FA232E04FC232C04FC1B
:104E5000A30B04FC232804FC032604FB832644FB49
:104E6000032504FB832544FBEFE05FDBAA8781CBAE
:104E7000B7670090938707B32328F4FC65AE8327B8
:104E800084FB63D507009947232CF4FA0146814639
:104E9000032504FB832544FBEFD09FE8AA8763D258
:104EA0000702832704FB2328F4FA032744FBB707F0
:104EB0000080B98F232AF4FA9307D002A30BF4FCE5
:104EC00029A09307B002A30BF4FC032904FB0327DA
:104ED00044FBB707008093C7F7FFB379F700854419
:104EE000B767009003A687B883A6C7B84A85CE8562
:104EF000EFE0DFD2AA8799EFB767009003A687B8E3
:104F000083A6C7B84A85CE85EFD09FE1AA876353B1
:104F1000F000814493F7F40F93C7170093F7F70F4E
:104F200081CBB7670090938747B32328F4FCA9AAE5
:104F30000307F4FA930760066310F708832784FBDE
:104F4000B307F0403E85D9332A87AE87B766009015
:104F500003A606B983A646B93A85BE85EFD0AFDE73
:104F60002A87AE873A86BE86032504FB832544FB49
:104F7000EFC0DFD22A87AE872328E4FA232AF4FA87
:104F8000032504FB832544FB2D31232CA4FC83271C
:104F900084FD63D40700232C04FC032784FD8327AE
:104FA00084FB3E97F14763D1E70EB7670090938784
:104FB00087B32328F4FCC9A801468146032504FBD6
:104FC000832544FBEFD0BFC0AA87DDCF032504FBB8
:104FD000832544FBF93E2A87832784FBB307F740E8
:104FE0003E852D332A87AE87B766009003A606B9A3
:104FF00083A646B93A85BE85EFD0EFD42A87AE871F
:105000003A86BE86032504FB832544FBEFC01FC9F7
:105010002A87AE872328E4FA232AF4FA032504FB1F
:10502000832544FB7936232EA4FC0327C4FD930774
:10503000300663C7E700032784FBE54763D9E70031
:10504000B7670090938787B32328F4FC35A803271C
:10505000C4FD9307D0F96356F7009307D0F9232EC8
:10506000F4FC0325C4FD5D312A87AE873A86BE86EF
:10507000032504FB832544FBEFD0EFCC2A87AE87C2
:105080002328E4FA232AF4FA832704FD6394071AF9
:10509000030774FD9307D002631CF7008327C4FB4A
:1050A00013871700232EE4FA034774FD2380E700DB
:1050B000032584FDA1392324A4FC2326B4FC032664
:1050C00084FC8326C4FC032504FB832544FBEFD02A
:1050D0008FC72A87AE873A85BE85EFE0DFBBAA87F8
:1050E0002322F4FC032544FCEFE03FC72A87AE8768
:1050F000032684FC8326C4FC3A85BE85EFD03FCDD1
:105100002A87AE873A86BE86032504FB832544FBA7
:10511000EFE08FA52A87AE872328E4FA232AF4FA42
:10512000032784FDFD57631CF7008327C4FB138707
:105130001700232EE4FA1307E0022380E7008327F9
:1051400044FC93F7F70F9387070393F6F70F832732
:10515000C4FB13871700232EE4FA13978601618797
:105160002380E700832784FDFD17232CF4FC83278D
:1051700084FBB307F040032784FDE35BF7F20307EA
:10518000F4FA930760066307F70A8327C4FB1387C3
:105190001700232EE4FA0347F4FA2380E70083275D
:1051A000C4FD63D307028327C4FDB307F040232E59
:1051B000F4FC8327C4FB13871700232EE4FA13079C
:1051C000D0022380E70019A88327C4FB13871700A8
:1051D000232EE4FA1307B0022380E7000327C4FD5F
:1051E000A947B347F70293F7F70F9387070393F69F
:1051F000F70F8327C4FB13871700232EE4FA1397B6
:10520000860161872380E7000327C4FDA947B367B0
:10521000F70293F7F70F9387070393F6F70F8327A8
:10522000C4FB13871700232EE4FA139786016187C6
:105230002380E700832704FDB9C3830774FD99CB5E
:105240008327C4FB13871700232EE4FA034774FD5A
:105250002380E700032704FD930717002328F4FCAD
:105260008327C4FB93861700232ED4FA0307070075
:105270002380E700832704FD83870700E1FF83275E
:10528000C4FB238007000100F6406644D64446492B
:10529000B64925618280011106CE22CC001023265A
:1052A000A4FE2324B4FE032784FEA9476316F70057
:1052B000B5450325C4FEC5378327C4FE99C7832798
:1052C000C4FE032584FE829735A0B707008883A714
:1052D000C7098DC3B707008883A7C709938617003E
:1052E00037070088232ED708032784FE62076187CB
:1052F0002380E7000100F24062440561828035713D
:1053000006CF22CD4ACB4EC952C756C55AC35EC13D
:10531000E2DEE6DC00112326A4F62324B4F62322E1
:10532000C4F6832784F6138717002324E4F683C783
:105330000700A309F4FA830734FB638F07660307AA
:1053400034FB930750026309F700830734FBBE85E3
:105350000325C4F6893785A5232004FC832704FC94
:10536000232EF4FA93070002A305F4FAFD57232A2B
:10537000F4FA832784F6138717002324E4F683C7FF
:105380000700A309F4FA030734FB93070003631132
:10539000F70293070003A305F4FA832784F6138723
:1053A00017002324E4F683C70700A309F4FA25A015
:1053B000030734FB9307D002631FF7008947232EAE
:1053C000F4FA832784F6138717002324E4F683C7AF
:1053D0000700A309F4FA030734FB9307A002631F35
:1053E000F706832744F6138747002322E4F69C43FD
:1053F000232CF4FA832784FB63DB0700832784FBD9
:10540000B307F040232CF4FA8947232EF4FA8327BC
:1054100084FB2320F4FC832784F6138717002324BE
:10542000E4F683C70700A309F4FAA9A0032704FC44
:10543000BA878A07BA9786073E87830734FBBA97ED
:10544000938707FD2320F4FC832784F61387170036
:105450002324E4F683C70700A309F4FA030734FB07
:105460009307F00263D8E700030734FB9307900328
:10547000E3DEE7FA030734FB9307E002631DF70856
:10548000832784F6138717002324E4F683C70700D5
:10549000A309F4FA030734FB9307A0026316F7028B
:1054A000832744F6138747002322E4F69C43232AEC
:1054B000F4FA832784F6138717002324E4F683C7BE
:1054C0000700A309F4FA81A8232A04FA0DA80327E8
:1054D00044FBBA878A07BA9786073E87830734FB5F
:1054E000BA97938707FD232AF4FA832784F6138754
:1054F00017002324E4F683C70700A309F4FA03077F
:1055000034FB9307F00263D8E700030734FB9307EB
:105510009003E3DEE7FA030734FB9307C006631842
:10552000F7048327C4FB93E74700232EF4FA83276D
:1055300084F6138717002324E4F683C70700A30922
:10554000F4FA030734FB9307C0066312F7028327BC
:10555000C4FB93E78700232EF4FA832784F613878E
:1055600017002324E4F683C70700A309F4FA83078E
:1055700034FB63850744830734FB9387B7FB13072A
:1055800030036367F71C13972700B7670090938772
:10559000070FBA979C43828789472326F4FCC1A250
:1055A000A1472326F4FC65AAA9472326F4FC45AAB3
:1055B000C1472326F4FC65A2832744F613874700DE
:1055C0002322E4F69C43E207E187BE850325C4F667
:1055D000D931D5A6832744F6138747002322E4F662
:1055E0009C432326F4FA8327C4FA99E7B76700900F
:1055F0009387C7B32326F4FA0325C4FAEFB01FFA42
:105600002322A4FC832744FB63C80702832744FBAF
:10561000032744FC63F2E702832744FB2322F4FCC4
:1056200021A88307B4FABE850325C4F6AD318327CC
:1056300044FC85072322F4FC8327C4FB898B85E780
:10564000032744FC832704FCE36DF7FC29A8832788
:10565000C4FA138717002326E4FA83870700BE8560
:105660000325C4F60D398327C4FA8387070091CF39
:10567000832744FB1387F7FF232AE4FAE9FB31A0D1
:10568000930500020325C4F63931832744FC1387B0
:1056900017002322E4FC032704FCE3E3E7FE21AE2A
:1056A000930784F72326F4FA832744F69D07E19BAA
:1056B000138787002322E4F68843CC43830734FB17
:1056C0003E87832644FB2E86AA850325C4FAEFF085
:1056D0006FF50325C4FAEFB07FEC2322A4FC21A8C8
:1056E0008307B4FABE850325C4F67536832744FCC8
:1056F00085072322F4FC8327C4FB898B85E70327D6
:1057000044FC832704FCE36DF7FC29A88327C4FA33
:10571000138717002326E4FA83870700BE85032535
:10572000C4F6953E8327C4FA83870700E5F331A0CA
:10573000930500020325C4F6B93E832744FC138772
:1057400017002322E4FC032704FCE3E3E7FEA5A4FF
:10575000830734FBBE850325C4F6353EA9AC8327F9
:10576000C4FBA18B85C3832744F69D07E19B138768
:1057700087002322E4F69843DC432320E4FA232223
:10578000F4FA51A08327C4FB918BA1C3030734FB18
:1057900093074006631DF700832744F613874700ED
:1057A0002322E4F69C433E89FD87BE8911A8832706
:1057B00044F6138747002322E4F69C433E8981493F
:1057C000232024FB232234FB3DA8030734FB93074B
:1057D0004006631DF700832744F613874700232202
:1057E000E4F69C433E8AFD87BE8A11A8832744F6CF
:1057F000138747002322E4F69C433E8A814A2320F4
:1058000044FB232254FB030734FB93074006631039
:10581000F704832744FA63DC070201468146032527
:1058200004FA832544FA3307A6403A883338060140
:10583000B387B640B3860741B6872320E4FA232214
:10584000F4FA8327C4FB93E71700232EF4FA2324EA
:1058500004FC032704FA832744FA232CE4F8232EBC
:10586000F4F88327C4FC3E8B814B032784F98327FC
:10587000C4F95A86DE863A85BE85EFC04F8E2A87E8
:10588000AE872309E4FA8327C4FC3E8C814C6286F0
:10589000E686032584F98325C4F9EFB05FD62A870D
:1058A000AE87232CE4F8232EF4F8030724FBA54746
:1058B00063D3E702030734FB930780076315F70000
:1058C0009307700211A09D47034724FBBA9793F7F3
:1058D000F70F2309F4FA834724FB9387070393F612
:1058E000F70F832784FC138717002324E4FC139706
:1058F00086016187930604FDB6972384E7FA832720
:1059000084F90327C4F9D98F91C7032784FCFD4785
:10591000E3F9E7F48327C4FB858B91CF832784FCCD
:10592000138717002324E4FC130704FDBA97130719
:10593000D0022384E7FA832784FC2322F4FC29A8DD
:105940008307B4FABE850325C4F6EFF0DF948327FE
:1059500044FC85072322F4FC8327C4FB898B99E749
:10596000032744FC832704FCE36CF7FC832784FCB7
:10597000FD172324F4FC832784FC130704FDBA9746
:10598000838787FABE850325C4F6EFF0DF9083276F
:1059900084FCE9FF39A0930500020325C4F6EFF06B
:1059A0009F8F832744FC138717002322E4FC0327DF
:1059B00004FCE3E2E7FEB5B2010011A00100010022
:1059C000FA406A445A49CA493A4AAA4A1A4B8A4B87
:1059D000765CE65C0D6182805D7106D622D400188B
:1059E000232EA4FC4CC010C454C418C85CC8232C7B
:1059F0000401232E140193070402232CF4FC8327B3
:105A000084FD91172326F4FEB707008883A7870932
:105A10000327C4FE3A868325C4FD3E85EFF03F8E02
:0A5A20000100B2502254616182803F
:105A30000000000000000000000000000000000066
:105A40000000000000000000000000000000000056
:105A50000000000000000000000000000000000046
:105A60000000000000000000000000000000000036
:105A70000000000000000000000000000000000026
:105A80000000000000000000000000000000000016
:105A90000000000000000000000000000000000006
:105AA00000000000000000000000000000000000F6
:105AB00000000000000000000000000000000000E6
:105AC00000000000000000000000000000000000D6
:105AD00000000000000000000000000000000000C6
:105AE00000000000000000000000000000000000B6
:105AF00000000000000000000000000000000000A6
:105B0000693D253364206674683D25382E3666204D
:105B10006673696E3D25392E36660A000000000066
:105B2000399D52A246DF913F00401C460000000014
:105B30004E614E00494E46004F56000000000000E6
:105B40002530386C582000002025303258000000E5
:105B50002020000020253034580000002025303857
:105B60004C5800000000000000000000006AF840EF
:105B70000000000000002440F168E388B5F8E43E2E
:105B8000000000000000F03FFFFFFFFFFFFFEF7F7E
:105B90000000000000000040000FC93F000F494016
:105BA00000CB9640000FC9400053FB4000CB16418C
:105BB00000ED2F41000F49410031624100537B410C
:105BC000003A8A4100CB9641005CA34100EDAF4111
:105BD000007EBC41000FC94100A0D5410031E24127
:105BE00000C2EE410053FB4100F20342003A0A4278
:105BF0000083104200CB164200141D42005C234279
:105C000000A5294200ED2F4200363642007E3C427C
:105C100000C74242000F4942A2000000F900000004
:105C2000830000006E0000004E00000044000000F1
:105C30001500000029000000FC0000002700000003
:105C400057000000D1000000F50000003400000003
:105C5000DD000000C0000000DB000000620000006A
:105C600095000000990000003C0000004300000087
:105C70009000000041000000FE0000005100000004
:105C800063000000AB000000DE000000BB0000006D
:105C9000C500000061000000B70000002400000003
:105CA0006E0000003A000000420000004D000000BD
:105CB000D2000000E00000000600000049000000E3
:105CC0002E000000EA00000009000000D1000000E2
:105CD000920000001C000000FE0000001D000000FB
:105CE000EB0000001C000000B100000029000000D3
:105CF000A70000003E000000E80000008200000055
:105D000035000000F50000002E000000BB00000080
:105D10004400000084000000E90000009C00000036
:105D20007000000026000000B40000005F000000CA
:105D30007E000000410000003900000091000000DA
:105D4000D60000003900000083000000530000006E
:105D500039000000F40000009C00000084000000F6
:105D60005F0000008B000000BD000000F900000093
:105D7000280000003B0000001F000000F8000000A9
:105D800097000000FF000000DE000000050000009A
:105D9000980000000F000000EF0000002F0000003E
:105DA000110000008B0000005A0000000A000000F3
:105DB0006D0000001F0000006D00000036000000B4
:105DC0007E000000CF00000027000000CB00000094
:105DD00009000000B70000004F000000460000006E
:105DE0003F000000660000009E0000005F00000011
:105DF000EA0000002D0000007500000027000000F0
:105E0000BA000000C7000000EB000000E500000041
:105E1000F10000007B0000003D00000007000000D2
:105E200039000000F70000008A0000005200000066
:105E300092000000EA0000006B000000FB00000080
:105E40005F000000B10000001F0000008D00000096
:105E50005D00000008000000560000000300000084
