:0200000490006A
:100000006F0000406F00C01F6F0040256F0000258B
:100010006F0020206F0080246F0040246F000024B8
:100020006F0040206F0080236F0040236F0000238B
:100030006F0080206F0080226F0040226F0000223E
:100040006F00C0216F0060206F0020206F00E01F54
:100050006F00A01F6F00601F6F00201F6F00E01E69
:100060006F00A01E6F00601E6F00201E6F00E01D5D
:100070006F00A01D6F00601D6F00201D6F00E01C51
:100080006F00A01C6F00601C6F00201C6F00E01B45
:100090006F00A01B6F00601B6F00201B6F00E01A39
:1000A0006F00A01A6F00601A6F00201A6F00E0192D
:1000B0006F00A0196F0060196F0020196F00E01821
:1000C0006F00A0186F0060186F0020186F00E01715
:1000D0006F00A0176F0060176F0020176F00E01609
:1000E0006F00A0166F0060166F0020166F00E015FD
:1000F0006F00A0156F0060156F0020156F00E014F1
:100100006F00A0146F0060146F0020146F00E013E4
:100110006F00A0136F0060136F0020136F00E012D8
:100120006F00A0126F0060126F0020126F00E011CC
:100130006F00A0116F0060116F0020116F00E010C0
:080140006F00A0100000000098
:10015000000000000000000000000000000000009F
:10016000000000000000000000000000000000008F
:10017000000000000000000000000000000000007F
:10018000000000000000000000000000000000006F
:10019000000000000000000000000000000000005F
:1001A000000000000000000000000000000000004F
:1001B000000000000000000000000000000000003F
:1001C000000000000000000000000000000000002F
:1001D000000000000000000000000000000000001F
:1001E000000000000000000000000000000000000F
:1001F00000000000000000000000000000000000FF
:10020000F3900034A928C5284D20F39000347300E2
:100210002030F3900034A120C5204128F390003411
:1002200073002030F39000341D28EF20200CB528F7
:10023000F390003473002030F39000340D207D28BB
:10024000AD20F390003473002030F3900034012887
:100250007D20A128F39000347300203001A0F3909A
:100260000034130141F806C00AC20EC412C616C8F3
:100270001ACA1ECC22CE26D02AD22ED432D636D8B6
:100280003ADA3EDC42DEC6C0CAC2CEC4D2C6D6C846
:10029000DACADECCE2CEE6D0EAD2EED4F2D6F6D896
:1002A000FADAFEDCF39000348280F390003482406E
:1002B0001241A2413242C2425243E243724482544A
:1002C0001255A2553256C2565257E25772588648B6
:1002D0001649A649364AC64A564BE64B764C865CCA
:1002E000165DA65D365EC65E565FE65F1301C1070A
:1002F000F3900034828082808280828082807324A6
:100300001034F3240030732510BF411106C022C2FF
:1003100026C42AC6F3670430EF20C003F377043005
:1003200082401244A24432454101731005BF7390CC
:0C033000043073101434828000000000C0
:10033C0000000000000000000000000000000000B1
:10034C0000000000000000000000000000000000A1
:10035C000000000000000000000000000000000091
:10036C000000000000000000000000000000000081
:10037C000000000000000000000000000000000071
:10038C000000000000000000000000000000000061
:10039C000000000000000000000000000000000051
:1003AC000000000000000000000000000000000041
:1003BC000000000000000000000000000000000031
:1003CC000000000000000000000000000000000021
:1003DC000000000000000000000000000000000011
:1003EC000000000000000000000000000000000001
:1003FC0000000000970100F09381014017C100F04C
:10040C00130181BF1725000013058571970500F0B6
:10041C00938585BE170600F0130686C663FAC500E1
:10042C008322050023A0550011059105E3EAC5FEC2
:10043C00170500F01305C5C4970500F09385C5C5D5
:10044C006377B500232005001105E36DB5FE970217
:10045C0000009382A2BA93E2120073905230592892
:10046C007155B7E2ADDE9382D2EA23205500F5BF79
:04047C00000000007C
:10048000000000000000000000000000000000006C
:10049000000000000000000000000000000000005C
:1004A000000000000000000000000000000000004C
:1004B000000000000000000000000000000000003C
:1004C000000000000000000000000000000000002C
:1004D000000000000000000000000000000000001C
:1004E000000000000000000000000000000000000C
:1004F00000000000000000000000000000000000FC
:100500006D712326111023248110000AEF10E07F63
:10051000EF10B078EF10D053EF10A06201008320ED
:10052000C1100324811051618280D30705E0B71602
:10053000493F938686FD13971700058363DDE60226
:10054000B706807F6345D7005375A50882800111E7
:10055000280006CEA1200D8985476303F50289474F
:10056000B26522656306F50205C1752C5315A520F9
:10057000F24005618280D30500F001456F00902BA9
:10058000B26522654D24EDB70545EF00B02ACDB721
:100590000545EF00302A5315A520D9BFD30705E044
:1005A000011122CC3717493F1394170026CA06CEF3
:1005B0004AC8130787FD0580AA846357870E37D77B
:1005C0001640130737BE3E89634487043717C93F77
:1005D000B706008087A706004198130707FD6357F9
:1005E000F020D377F5086301E40EB707008007A772
:1005F0004700D3F6E7080545D3F7D70894E0D3F7CB
:10060000E708DCE0F2406244D2444249056182805E
:1006100037174943130707F86353870C3707807F61
:10062000635EE408135674411306A6F79317760128
:100630001D8CD30704F0530704F037070080D397CD
:1006400007C087260702530600F0D3F707D08D4670
:100650005377F7083EE2D377D710D39707C053F705
:1006600007D0D3F7E7083AE4D3F7D710D3A7C7A04A
:100670003EE691C7D326C7A093B616008506B727D6
:1006800000909387C7680947A6854800E92CE35B7B
:1006900009F69860DC603305A0405317E720D39734
:1006A000F72098E0DCE0B9BFF240624488E0232202
:1006B0000500D2444249014505618280D377A508EF
:1006C0000145DCE09CE03DBFB707008007A7C700FD
:1006D000B707008087A68700D3F7D70819BFEF00B8
:1006E000901FB707008087A70701B707008007A7FB
:1006F000470137070080FD47C377F570539507C062
:100700008727070037070080537705D04B75F750D0
:1007100087274700D377F71063C7A7049307F5FF30
:1007200013972700B7270090D376F5089387C76003
:10073000BA979443137704F0D38706E06309D7028E
:100740009CC0538707F05375E5085375F508C8E05A
:10075000E35A09EAD317E7205315A5203305A04033
:100760009CE0C8E045B5D376F508D38706E013D7FB
:1007700077015D841377F70F3307E440A146E3D197
:10078000E6FCB707008087A78700B7070080E5462B
:10079000CB76F7505375D5084B75F75087A7C70030
:1007A000C777F75053F6F608D30706E013D777015B
:1007B0001377F70F198C63C686005385D62090E017
:1007C00049B7B707008087A78701B70700804B7537
:1007D000F768D3F6A608CB76F76887A7C701C7776F
:1007E000F7685377F508D30707E099BFD377F5008B
:1007F0006300E402B707008007A74700D3F6E700CD
:100800007D55D3F7D70894E0D3F7E700DCE0DDBBF4
:10081000B707008007A7C700B707008087A6870033
:10082000D3F7D700E1BFD30705E0B706003213972F
:1008300017000583635FD706531705C063000712CF
:10084000D376A510370700800727070337070080F6
:10085000872747033707008043F7E6788727870312
:100860003707008043F7E6788727C70337070080FC
:1008700043F7E678872707043707008043F7E678D1
:1008800087274704C3F7E678D3F7F610538707F0B6
:10089000B707008007A54701D375B710B7070080D9
:1008A000C7F7F658C7F7A67807A5C7025375F50826
:1008B0008280D376A510B706008087A70603B70607
:1008C000008007A74603B706008037060080C3F7FD
:1008D000F67007A78603B7A6993E93869699C3F745
:1008E000D7700727C60337060080C3F7D7700727DE
:1008F000060437060080C3F7D77007274604C3F7FE
:10090000D770D3F7D710E3D3E6F8B706483F63CEE6
:10091000E602B70600FF3697B706008007A5C602B5
:10092000530707F05375E508538607F0B7070080B3
:10093000D375B61007A64701C7F7F658C7F6C670B5
:10094000D3F7F6085375F50882803707008007252E
:1009500047023707008007278702F9B7B7070080EB
:1009600007A5C70282802171232A911AB73400900B
:10097000232C811A3ACA1384449A0A07368822978C
:100980002328211B2328A11922C6232E111A23262E
:10099000311B2324411B2322511B2320611B232EA7
:1009A0007119232C8119232A91192326B119272E75
:1009B0008116272C9116272A211727283117272639
:1009C0004117272451172722611732CEF1562EC81E
:1009D0003EC2032D07002A891304F8FF6342D65E46
:1009E0009307D6FF13D7F7411D8BBA978D87938B4B
:1009F00017003EC093973B003ECCF247E2463307D8
:100A00008D00B38AD7408247818F634707029245A2
:100A100013061700939627009818AE963E96D307B4
:100A200000F063C507008842D37705D085071CE333
:100A300011079106E395C7FE63430D0413162400C6
:100A4000930646009C18130E011122853E96B30EA4
:100A50000D01CA96D30700F03287CA87634A0400A3
:100A60009463186391077117C3F7E678E39AD7FE8A
:100A70002720FE000505110E1106E31DD5FD3707E1
:100A80000080872AC70437070080072A0702370734
:100A900000808724070537070080072447053707AC
:100AA000008093172D008729C70237070080072988
:100AB0004701130B0102938987FF7808931C2800D4
:100AC000B304F700B3073B013EC4CA9C6A8A930D86
:100AD000011193192A009C12CE9707A507FB635AB0
:100AE00040039387C9FFEE975A87D37755119463D4
:100AF00011073E86F117539507C0D37705D04BF702
:100B0000475153F5D700531507C0232EA7FEE39E88
:100B1000CDFC5685B52D530BA520537595107D2B17
:100B20004B7585B0D31B05C053FB0BD0537B6509B8
:100B30006352500F1307FAFF9C120A073E97832E49
:100B400007ECA147B387574133D5FE403316F50074
:100B50009D473386CE40B38757412320C7EC335C93
:100B6000F640AA9B6345800D530700F0D327EBA006
:100B7000638F0716930EFAFF63CEAE0193172A0018
:100B8000F117DA9701478843F117498FE39D97FEE4
:100B9000631A07309307FDFF8A079812BA9783A755
:100BA00007EC639C072EA247054790430507F11702
:100BB0006DDE93071A00BE8E330FEA000247B306BC
:100BC000F4008A063305F7009812BA9612470A0510
:100BD0008A073A953386FD009386C6F01C41D307F9
:100BE00000F053F707D0D8E2634D04003687CA8778
:100BF00019A01863711794639107C3F7E678E39A15
:100C000097FF1CE2850E110511069106E358DFFDE2
:100C10007A8AC1B563970A269307FAFF8A07981262
:100C2000BA9703A607EC135C7640E35F80F3850B6D
:100C3000635C4039825E854763930E246303FA0642
:100C4000925E48100547930717001105639C0E003C
:100C50006309FA04832E05003E87930717001105E8
:100C6000E3880EFE0A0794123385E600130700108E
:100C70003307D7412320E5EC63D447038A07338742
:100C8000F600032707ECDA97B30E3B011305F00FCC
:100C900011A098433307E54098C39107E39BD7FF22
:100CA000854E6353500385476380FA308947639DBF
:100CB000FA009307FAFF98128A07BA9703A707EC7E
:100CC0001377F70323A0E7EC8947E31FFCE853FB06
:100CD0006909E38B0EE85385392156855529537BE5
:100CE000AB08530700F0D327EBA0E39507E8E247F2
:100CF000724753056B213385E7405929B7070080B8
:100D000007A70702D307A7A06382072CB7070080B5
:100D100087A6C704930E1A009C12D376D510B38F02
:100D20003701981293972E00BA97539706C0A10ADD
:100D3000D37607D0CBF7E650539706C0D39607C0BB
:100D400023A0DFEC23A0E7ECB707008007A5C702CC
:100D5000568576C03529824E63CA0E2AB7070080B1
:100D600093982E0087A6C7041C0A338517012A878B
:100D7000B3071B018C437117BE86D3F705D0F1175B
:100D8000D3F7A7105375D5105CE3E315DBFE13030F
:100D9000010CB707008007A687041A8881456342C3
:100DA0000D04B2475307C620D30700F0938607010E
:100DB0002A87814729A063CBF500986291061463C6
:100DC00085071107C3F7E678E357FDFE2720F800F3
:100DD0009387150011087115638FBE00BE85E3521D
:100DE0000DFCD30700F0938715001108272EF8FE9D
:100DF0007115E395BEFE5247894763C9E710D307D3
:100E000000F09A986343E00C19EF07A70800C68723
:100E1000F118D3F7E700E31AF3FE63040C00D3974D
:100E2000F720C2479CE38320C11B0324811B83243A
:100E3000411B0329011B8329C11A032A811A832A12
:100E4000411A032B011A032C8119832C4119032DFC
:100E50000119832DC1180724C11787248117072979
:100E6000411787290117072AC116872A8116072BE0
:100E7000411613F57B00832BC1193961828001472C
:100E8000D5B3D30769A1014CE38007CE850B094C8C
:100E9000E34240DB53FB6909C1B993071A00BE8ED8
:100EA0003E8F29BB93972E009812BA9783A707EC21
:100EB000E11AE39B07E893172A00E117DA979843B2
:100EC000FD1EF117E11A65DF41B507A70800C687C7
:100ED000F118D3F7E700E31AF3FE63120C10C247D0
:100EE0000E679CE3D377F708635FD001D80185478D
:100EF000186385071107D3F7E700E3DBFEFE630401
:100F00000C00D397F720C247DCE331BF52478D472F
:100F1000E31BF7F063890E029812469793972E0011
:100F2000072707F6F1179A979C63D306E7203E87B9
:100F30005377F700F117D3F7E708D8E3D3F7D700D3
:100F40009CE7E313E3FE8547D30700F063D5D7059D
:100F50009C12BE9807A708F693972E00F117330747
:100F6000F3001C63D306E720BA865377F7007117A6
:100F7000D3F7E70858E3D3F7D7001CE7E313E3FE02
:100F8000D30700F091073E93072703007113D3F7AF
:100F9000E700E39B66FE8E661E67631E0C04C24775
:100FA00094E3D8E39CE741B59307FAFF98128A07C8
:100FB000BA9703A707EC1377F70723A0E7EC29B349
:100FC000A1473ECC02C015BC814EE1B9D31705C084
:100FD0009812B30F3701D28E23A0FFECB5B353970D
:100FE000F720C24798E30E67D377F708E340D0F1C4
:100FF000D397F72009BFC247D396D6205317E720CF
:10100000D397F72094E3D8E39CE731BD5247894753
:1010100063CBE700D30700F0E341E0ECE31507E022
:10102000E3010CE0EDBB52478D47D30700F0E3042A
:10103000F7F6D5BBD30705E0B706003213971700C4
:1010400005836355D700531705C049C7D38707F0F9
:101050003707008053F7F710872787053707008089
:101060008726C70537070080C377F76887260706F6
:1010700037070080C3F7E768D38607F053F5E6101B
:101080008726470637070080C3F7E7688726870665
:10109000C3F7E76801ED370700808726C706C377E7
:1010A000F768538707F043F5A7708280D377F51070
:1010B000370700808726470137070080C7F7D578B4
:1010C000C7F5E758872707074375F558D38707F013
:1010D00053F5A70882805325A5208280D30705E019
:1010E00059469396170013D78601130717F8BE8544
:1010F00085826342E608634707043705800093064C
:10110000F5FFB3D6E64033F8F600530605E0630872
:1011100008023708008087278807530700F0D37735
:10112000F5005318F7A0630C080063D60700335787
:10113000E540B305F70093C6F6FF33F6B600530556
:1011400006F082803707008087278707530700F063
:10115000530605E0D377F5005317F7A06DD3530678
:1011600007E0E3DE07FC530605E0F1DAB70700808D
:1011700003A64707E9B73707807F530605E0E3E09A
:10118000E6FCD377A500538607E0530506F082807E
:10119000D30705E09396170013D71600A1CEB70624
:1011A000807F637CD70433F6D70039EEB706008022
:1011B00087A7C6075177130707CBD377F510D387D7
:1011C00007E0634BE50813D777411377F70F1D1737
:1011D0002A971306E00FBE86635FE602370700809A
:1011E00007278707D38707F0D307F720D3F7E71040
:1011F000D38707E0538507F08280D377A500D38794
:1012000007E0538507F082805D832A971306E00F7D
:10121000BE86E345E6FC6347E00229566359C704EE
:10122000316713070735E34BA7FA37070080072715
:101230000708D38707F0D307F720D3F7E710D38742
:1012400007E04DBFB7078080FD17FD8E931777012C
:10125000D58F538507F0828037070080538707F0CA
:1012600087270708D377F710D38707E061B793077D
:101270009701370780807D17F98EDE07D58F3707F6
:101280000080538707F087274708D377F710D38765
:1012900007E08DB7797122D456CA66C206D626D227
:1012A0004AD04ECE52CC5AC85EC662C42A84B28C92
:1012B000B68A7329200093DB45019399C50093FBFF
:1012C000FB7F93D9C90013DBF50163860B029307FB
:1012D000F07F638AFB069357D5018E09B3E9370186
:1012E000B7078000B3E9F900131A3500938B1BC0D0
:1012F000014C8144B5A0B3E7A900F1C3638B090297
:101300004E85EF005000130755FFF14763C7E70212
:10131000F547130A85FF998FB3994901B357F40034
:10132000B3E93701331A4401930BD0C0B38BAB4000
:10133000C1B7D12F13050502F9B7930985FDB3197C
:101340003401014AD5B733E4A9003DCCB707080002
:10135000B3F7F9002A8A930BF07F0D4CC144D1FBFF
:1013600013D54A011394CA001375F57FE6873180BF
:1013700093DAFA0125C11307F07F6303E50A93D7D7
:10138000DC010E045D8CB70780005D8C130515C071
:1013900093973C00014793162C00D98EAA9BFD160B
:1013A0003946B3455B0113851B006367D60E37369C
:1013B00000908A061306C69DB296944282868149A1
:1013C000014A814B054C35B78149014A930BF07FA7
:1013D000094C05B7B3679401A5C305C82285252725
:1013E000930655FFF14763C7D7027547930785FFFB
:1013F000158F3314F40033D7EC00598CB397FC00ED
:101400001307D0C03305A74071B76685ED2D1305CE
:101410000502F9B7130485FD33948C008147CDB7DD
:101420003366940119CE37070800618F1305F07FEA
:1014300019EF0D47C14485B7014481470145054770
:1014400099BF014481471305F07F0947A9B70D47AC
:1014500099B73704080081471307F07F8145C144DD
:101460005207B706F07F3204758F3180FE05598C24
:101470003367B4003E85BA8599C073A01400B2509A
:10148000225492540259F249624AD24A424BB24B18
:10149000224C924C45618280C16E138EFEFF135721
:1014A0000A0193D80701337ACA01B3F7C701338819
:1014B0004803B3864703330FF7023303E80113D819
:1014C00006011A98330617036373E8017696935F53
:1014D00008013378C801B3F6C601935E0401337E78
:1014E000C40142083698330FC703B306CA03338AD0
:1014F0004E033303EA0113DA06011A9A3307D703BE
:101500006374EA0141631A9713530A013A934167DE
:10151000130FF7FF337AEA01B3F6E60113D409019A
:10152000420AB3F9E901338F3703369AD29FB38663
:101530003803B307F402B3828802B388F6009356E7
:101540000F01C69663F3F600BA9241679307F7FF5F
:10155000337FFF0093D80601FD8EB387C903C2060F
:10156000FA969698330EC403B3893E03338F8E02E6
:10157000F29913D40701A29963F3C9013A9F416E0E
:101580007D1E33F7C901B3F7C70142077E963E9728
:10159000333A46011A97330447013696B336D600DC
:1015A000330E1401B30EDE003337670033344401C9
:1015B000598CB3B6DE0093D90901B3381E014E949D
:1015C000B3E6D80036947A9493D77E0126045D8CD6
:1015D00093179600B3E70701B337F0005D82370732
:1015E0000001D18FA60E618FB3E7D70125CB13D7AA
:1015F0001700858BD98F1317F401D98F0580130835
:10160000F53F6350000D13F7770025C3094793E4B6
:101610001400630BE9040D476304E904631709042C
:1016200013F7F70091466302D70413874700B337D7
:10163000F7003E94BA8715A8DA854E84D287628770
:1016400089466307D71C8D466309D71C8546E31876
:10165000D7FA0144814765A2D685DDB75E8545B7D7
:1016600089E513878700E1B7EDFD37070001618F3A
:1016700019C7370700FF7D17798C1308054013073A
:10168000E07F634A070113D737009317D401D98F3E
:101690000D804287F1B389476303F9028D476308E0
:1016A000F9006317090081471307F07F29A0E5DDE2
:1016B000FD571307E07F93E454003E8455B3E5F5EE
:1016C000C5BF05476314080493F6770022879DCAB7
:1016D000894693E414006306D9028D46630FD9004E
:1016E0006312090293F6F7001146638DC60013B723
:1016F000C7FF13471700229731A089E513B787FF6B
:10170000CDBFEDFD618313471700058B8546B3867A
:101710000641130680036342D60C7D46634AD60415
:101720001305E5413316A40033D8D700B397A700BB
:1017300033660601B337F000D18F3354D40093F6EB
:101740007700ADC2894693E41400630CD9048D463A
:101750006305D9046318090493F6F70011466383FF
:10176000C60493864700B3B7F6003E94B6871DA81B
:10177000055633060641930800023356C40001485B
:10178000638616011305E5433318A400B367F80018
:10179000B337F000D18F01445DB789E593868700A8
:1017A000D9B7EDFDB7068000E18E81CA93E414003D
:1017B0000144814705E3054765B193D63700931788
:1017C000D401D58F0D80E30D07C813F71400E3098A
:1017D00007C8014793E4240061B1C18F91CF8947C5
:1017E00093E414006303F9028D47630CF900854705
:1017F0006313090095478D8393E424000144014756
:1018000085B1A547EDD98547FDB7A547EDF5E5BFFE
:10181000014481471307F07FA1B1370408008147D5
:101820001307F07F81452DB94111D30705E006C6A6
:1018300022C426C24AC07327200093D4770193F4B0
:10184000F40F13871400139497001377E70F258084
:1018500013D9F7010DCB1385043893573400814415
:101860007604B2075205B183C98F7E0933E7270199
:101870002285BA8599C073A01400B24022449244D4
:1018800002494101828095E829C82285AD2CA947EB
:1018900063CFA700AD47898F13075501B357F400F5
:1018A0003314E400130790383305A7405DBF930756
:1018B00055FFB317F4000144F5B71DC0B70740004A
:1018C000E18F91E3414793573400B706080076044F
:1018D000D58FBA841305F07F69B78147014551B7A9
:1018E00081478144C5BF7328200013D745019378F1
:1018F000F77F9397C50013871800A5839356D501EA
:101900001377E77FDD8EFD8193173500630D071098
:10191000138608C81307E00F635DC704630B081440
:101920008D476319F80063860514FD571306E00F11
:10193000014711A88947E31AF8FE639C0512014785
:10194000FD571306E00F9548894693E81800630792
:10195000D8188D466300D8186318080093F6F7006E
:1019600011456383A60091076309071093E82800D7
:1019700029A2634AC0082557634CE60A370780004E
:101980007945D98E118D7D47634CA704138728C8EC
:1019900033D5A700B397E700B337F000B396E6005E
:1019A000DD8EB367D5006384071213971700937613
:1019B0007700814885C289466308D80A8D4663004E
:1019C000D80A8548631808009376F70011466383A8
:1019D000C60011076D8313471700058B01462DA81C
:1019E00079573306C7401303000233D6C6000147B8
:1019F00063066500138728CA3397E600D98FB3378B
:101A0000F000D18F4DB71A053335A0008E06F5834F
:101A1000C98ED58F0147814893F6770095F631CF6F
:101A200013F7180091B7D58F639608000146B1C728
:101A30008547A5BFC9CB9307F07F6390F802B7082D
:101A40004000B3F8160193B8180092088E06B70745
:101A50000002D58F1306F00FC1B78148C5BFAE880D
:101A6000B5F921078548BDB78548ADD52107AE88B2
:101A700095B781471306F00F9548370700047D8F0F
:101A800011CB05061307F00F630DE604370700FCC2
:101A90007D17F98F1307F00F8D836316E60081C75A
:101AA000B707400081455E063707807FA607798E1D
:101AB000A583D18FFE05CD8F6384080073A0180025
:101AC000538507F0828081481306F00F7DB70146E9
:101AD000814865B7E39A05E8A10779B5E38605E88B
:101AE000E5BF8147630E08000D476317E80089C909
:101AF000FD571306E00F29A00947E31BE8FEEDD9C7
:101B000093E8580041BFC1676376F5029307F00F71
:101B1000B3B7A7008E0737370090930600029D8E5B
:101B20003355F500930787A13E950345050033859E
:101B3000A640828037070001C147E36EE5FCE1471C
:101B4000D9BF597186D6A2D4CAD2CED0D2CED6CCE5
:101B50008018232E04FCBDA28327C4FDD3F717D021
:101B60005385F720D1312A87AE87B726009003A688
:101B7000066083A646603A85BE85EFF0AFF12A87FE
:101B8000AE873A85BE858533D307A520272CF4FC84
:101B9000072584FDEFE07F99272AA4FC072744FD51
:101BA000B727009087A78760D377F7102728F4FC22
:101BB000872704FDD39707C02326F4FC0325C4FC24
:101BC000092EF32700B02324F4FC832784FC232070
:101BD000F4FC232204FCF32700B8232EF4FA832715
:101BE000C4FB2328F4FA232A04FA832704FB9399DD
:101BF00007000149032604FC832644FC3307260121
:101C0000BA85B3B5C500B3873601B386F500B6878C
:101C10002324E4FA2326F4FAF32700B02322F4FA6B
:101C2000832744FA2320F4FC232204FCF32700B882
:101C30002320F4FA832704FA2328F4FA232A04FA47
:101C4000832704FB939A0700014A032604FC83269A
:101C500044FC33074601BA85B3B5C500B3875601C6
:101C6000B386F500B687232CE4F8232EF4F8032777
:101C700084FA8327C4FA377519001305A5E6814550
:101C80003306A70032883338E800B386B700B307BD
:101C9000D800BE863287B6878326C4F93E86E3ED38
:101CA000C6F68326C4F93E866398C600832684F967
:101CB000BA8763F3F6008DB701008327C4FD85075B
:101CC000232EF4FC0327C4FD93077016E3F6E7E820
:101CD00049B5011122CE00102326A4FE2324B4FE10
:101CE0008327C4FE032784FE98C301007244056164
:101CF0008280011122CE00102326A4FE8327C4FE79
:101D00009C433E85724405618280411106C622C40F
:101D100000088145370500A06D3F8145B70700A049
:101D2000138547007D378145B70700A013858700DD
:101D30004D37FD55B70700A013850701593FB70779
:101D400000049385F7FFB70700A0138547015137BB
:101D50008145B70700A013858701A53F0145E52E02
:101D6000014531200100B240224441018280797155
:101D700006D622D40018232EA4FC8327C4FD93F793
:101D8000F70FBD8BA307F4FE8327C4FD918393F760
:101D9000F70FBD8B2307F4FE8327C4FDA18393F7C0
:101DA000F70FBD8BA306F4FE8327C4FDB18393F721
:101DB000F70FBD8B2306F4FE8327C4FDC18393F781
:101DC000F70FBD8BA305F4FE8327C4FDD18393F7E2
:101DD000F70FBD8B2305F4FE8347F4FE37370090E1
:101DE000130787B1BA9783C70700A307F4FE834799
:101DF000E4FE37370090130787B1BA9783C707000F
:101E00002307F4FE8347D4FE37370090130787B1CA
:101E1000BA9783C70700A306F4FE8347C4FE37378B
:101E20000090130787B1BA9783C707002306F4FE13
:101E30008347B4FE37370090130787B1BA9783C73B
:101E40000700A305F4FE8347A4FE3737009013076D
:101E500087B1BA9783C707002305F4FE8347C4FE02
:101E6000139787018347D4FEC2075D8F8347E4FE43
:101E7000A2075D8F8347F4FED98F2322F4FE8325CA
:101E800044FE370500A0B135B70700A01385470011
:101E90008D352322A4FE032744FEC177F98F232228
:101EA000F4FE8347A4FEA2073E87832744FE5D8F8E
:101EB0008347B4FED98F2322F4FE832544FEB7075F
:101EC00000A01385470031350100B250225445610E
:101ED00082805D7186C6A2C48008232EA4FA83275F
:101EE000C4FB63C507009307F00F19A09307F00B1D
:101EF000A307F4FE8327C4FB13D7F7418327C4FB52
:101F0000B98F998F2324F4FE032784FE8967938772
:101F100007713357F702A947B377F7022322F4FE7C
:101F2000032784FE9307803E3357F702A947B37710
:101F3000F7022320F4FE032784FE9307400633575D
:101F4000F702A947B377F702232EF4FC032784FE98
:101F5000A9473357F702A947B377F702232CF4FCBC
:101F6000032784FEA947B377F702232AF4FC8327CB
:101F700044FE13974700832704FEBA971397470040
:101F80008327C4FDBA9713974700832784FDBA9728
:101F90009207032744FDBA972328F4FC832704FD06
:101FA000C18393F7F70FBD8BA307F4FC832704FDD0
:101FB000B18393F7F70FBD8B2307F4FC832704FD50
:101FC000A18393F7F70FBD8BA306F4FC832704FDD1
:101FD000918393F7F70FBD8B2306F4FC832704FD51
:101FE00093F7F70FBD8BA305F4FC8347F4FC93B77D
:101FF000170093F7F70F2322F4FC832744FC99EB97
:102000008347F4FC37370090130787B1BA9783C72B
:10201000070019A09307F00FA307F4FC8347E4FC23
:1020200093B7170093F7F70F3E87832744FCF98F88
:102030002322F4FC832744FC99EB8347E4FC3737E5
:102040000090130787B1BA9783C7070019A09307B9
:10205000F00F2307F4FC8347D4FC93B7170093F7E2
:10206000F70F3E87832744FCF98F2322F4FC832754
:1020700044FC99EB8347D4FC37370090130787B1B2
:10208000BA9783C7070019A09307F00FA306F4FCC3
:102090008347C4FC93B7170093F7F70F3E87832756
:1020A00044FCF98F2322F4FC832744FC99EB8347FB
:1020B000C4FC37370090130787B1BA9783C707006E
:1020C00019A09307F00F2306F4FC8347B4FC3737BD
:1020D0000090130787B1BA9783C70700A305F4FCE4
:1020E0008347E4FC139787018347D4FCC2075D8FC5
:1020F0008347C4FCA2075D8F8347B4FCD98F23209C
:10210000F4FC832504FC370500A0E136B70700A0E6
:1021100013854700F93E2320A4FC032704FCC17764
:10212000F98F2320F4FC8347F4FEA2073E87832720
:1021300004FC5D8F8347F4FCD98F2320F4FC8325B6
:1021400004FCB70700A01385470061360100B640C4
:10215000264461618280797106D622D40018232E2C
:10216000A4FC8327C4FD93F7F73F232EF4FCB707A5
:1021700000A013854700B53E2326A4FE0327C4FE16
:10218000B70701FCFD17F98F2326F4FE8327C4FD52
:10219000C2070327C4FED98F2326F4FE8325C4FE7D
:1021A000B70700A0138547002D360100B250225416
:1021B00045618280011106CE22CC0010B70700A035
:1021C000138587003D362326A4FE8327C4FE93C7CC
:1021D000F7FFA983858B2326F4FE8327C4FE3E8563
:1021E000F240624405618280011106CE22CC0010CB
:1021F000B70700A013858700ED3C2326A4FE8327A4
:10220000C4FE93F7F73F2326F4FE8327C4FE3E85E2
:10221000F240624405618280011122CE0010232623
:10222000A4FE2324B4FE8327C4FE032784FE98C3A0
:102230000100724405618280011122CE0010232624
:10224000A4FE8327C4FE9C433E85724405618280C0
:10225000011106CE22CC00108547739087BF8147BD
:10226000739007BF8547739047BF8547739027BF1B
:10227000F32740302326F4FE8327C4FE93E70708A4
:1022800073904730F32700302324F4FE832784FE25
:1022900093E7870073900730A545B707004913857A
:1022A00047009D3F8145B707004913858700AD373B
:1022B0008145B70700491385C700B93FB717030029
:1022C000938507D4B707004913850701B1378145C6
:1022D000B707004913854701813795453705004900
:1022E000253F0100F240624405618280411106C62B
:1022F00022C426C20008B707008083A787083E854E
:10230000993D4D3DAA8789EFC5352A87B7070080DB
:1023100083A787083E97B707008023A4E70829A86A
:10232000B707008083A48708C135AA873387F440A4
:10233000B707008023A4E70837050049F53DAA87C1
:10234000BE8537050049C93D0100B2402244924490
:1023500041018280011106CE22CC0010F32760BF1C
:102360002326F4FE8327C4FE2324F4FE832784FE61
:10237000858B89C759288547739067BF0100F24054
:10238000624405618280011122CE0010F3271030D3
:102390002326F4FE8327C4FE2324F4FE832784FE31
:1023A00093F7070291C7B757FE009387B70229A09A
:1023B000B7373101938707D02322F4FE832744FEE9
:1023C0003E85724405618280011122CE00102326D1
:1023D000A4FEAE87A305F4FE8327C4FE0347B4FE24
:1023E0002380E7000100724405618280011122CE42
:1023F00000102326A4FE8327C4FE83C7070093F79B
:10240000F70F3E85724405618280011106CE22CC11
:102410000010B707008003A7C708B707008023A8EC
:10242000E708B707008003A74709B707008023A67E
:10243000E7082522AA873E87B707008023AAE70876
:10244000B707008083A7070913970701B707008024
:1024500083A7C708A2073E97B707008083A747094D
:10246000BA972326F4FE0325C4FEEFF05F90B7076A
:10247000008083A7470993F7F70F3E856520B707CC
:10248000008003A74709B5476314F7002945592879
:102490000100F240624405618280011106CE22CC27
:1024A0000010D5352326A4FE0327C4FEB73731011B
:1024B000938707D0631FF700C945B70700B013859E
:1024C00027001937E945B70700B013853700ED3D00
:1024D00031A893055005B70700B013852700ED35E7
:1024E0009545B70700B013853700F93D9305000403
:1024F000B70700B013851700C13DB7070080372725
:1025000000901307475223ACE708B707008037272E
:1025100000901307A75523AEE7080100F24062447C
:1025200005618280011106CE22CC0010AA87A30784
:10253000F4FE0100B70700B013851700453DAA87D8
:10254000898BEDDB8347F4FEBE85370500B0AD3DDA
:102550000100F240624405618280411106C622C436
:1025600000080100B70700B0138517004135AA879E
:10257000858BEDDB370500B0953DAA873E85B240DF
:06258000224441018280AB
:102588000000000000000000000000000000000043
:102598000000000000000000000000000000000033
:1025A8000000000000000000000000000000000023
:1025B8000000000000000000000000000000000013
:1025C8000000000000000000000000000000000003
:1025D80000000000000000000000000000000000F3
:1025E80000000000000000000000000000000000E3
:1025F8000000000000000000399D52A246DF913F14
:1026080000401C46000FC93F000F494000CB9640D0
:10261800000FC9400053FB4000CB164100ED2F418D
:10262800000F49410031624100537B41003A8A4121
:1026380000CB9641005CA34100EDAF41007EBC4158
:10264800000FC94100A0D5410031E24100C2EE416E
:102658000053FB4100F20342003A0A420083104251
:1026680000CB164200141D42005C234200A52942FB
:1026780000ED2F4200363642007E3C4200C74242FF
:10268800000F4942A2000000F9000000830000008A
:102698006E0000004E00000044000000150000001D
:1026A80029000000FC00000027000000570000007F
:1026B800D1000000F500000034000000DD0000003B
:1026C800C0000000DB000000620000009500000070
:1026D800990000003C00000043000000900000004A
:1026E80041000000FE0000005100000063000000EF
:1026F800AB000000DE000000BB000000C5000000C9
:1027080061000000B7000000240000006E00000017
:102718003A000000420000004D000000D200000016
:10272800E000000006000000490000002E00000044
:10273800EA00000009000000D1000000920000003B
:102748001C000000FE0000001D000000EB0000005F
:102758001C000000B100000029000000A7000000D4
:102768003E000000E8000000820000003500000084
:10277800F50000002E000000BB000000440000002F
:1027880084000000E90000009C00000070000000C8
:1027980026000000B40000005F0000007E0000007A
:1027A800410000003900000091000000D600000040
:1027B80039000000830000005300000039000000C9
:1027C800F40000009C000000840000005F0000008E
:1027D8008B000000BD000000F90000002800000088
:1027E8003B0000001F000000F800000097000000F8
:1027F800FF000000DE000000050000009800000057
:102808000F000000EF0000002F0000001100000082
:102818008B0000005A0000000A0000006D00000054
:102828001F0000006D000000360000007E00000060
:10283800CF00000027000000CB00000009000000C6
:10284800B70000004F000000460000003F000000F5
:10285800660000009E0000005F000000EA00000023
:102868002D0000007500000027000000BA000000DD
:10287800C7000000EB000000E5000000F1000000C8
:102888007B0000003D000000070000003900000048
:10289800F70000008A0000005200000092000000CB
:1028A800EA0000006B000000FB0000005F00000071
:1028B800B10000001F0000008D0000005D00000056
:1028C800080000005600000003000000300000006F
:1028D80046000000FC0000007B0000006B000000C8
:1028E800AB000000F0000000CF000000BC000000BA
:1028F800200000009A000000F400000036000000EC
:102908001D000000A9000000E30000009100000085
:10291800610000005E000000E60000001B000000EF
:102928000800000065000000990000008500000014
:102938005F00000014000000A00000006800000014
:10294800400000008D000000FF000000D8000000DB
:10295800800000004D000000730000002700000008
:10296800310000000600000006000000150000000D
:1029780056000000CA00000073000000A800000014
:10298800C900000060000000E20000007B000000B9
:10299800C00000008C0000006B0000000400000074
:1029A80007000000090000000000C93F0000F039DE
:1029B8000000DA370000A2330000842E0000502BFC
:1029C8000000C2270000D0220000C41F0000C61B60
:1029D80000004417401600904016009058160090CA
:1029E8003A1600903A16009052140090581600902B
:1029F8003A160090521400903A160090581600901B
:102A08003816009038160090381600901A18009062
:102A1800000102020303030304040404040404047D
:102A2800050505050505050505050505050505054E
:102A3800060606060606060606060606060606062E
:102A4800060606060606060606060606060606061E
:102A580007070707070707070707070707070707FE
:102A680007070707070707070707070707070707EE
:102A780007070707070707070707070707070707DE
:102A880007070707070707070707070707070707CE
:102A980008080808080808080808080808080808AE
:102AA800080808080808080808080808080808089E
:102AB800080808080808080808080808080808088E
:102AC800080808080808080808080808080808087E
:102AD800080808080808080808080808080808086E
:102AE800080808080808080808080808080808085E
:102AF800080808080808080808080808080808084E
:102B0800080808080808080808080808080808083D
:102B1800C0F9A4B0999282F880908883C6A1868E65
:102B2800800FC93F434435370044353708A3852E05
:102B380084F9223F0000003F00A3852E32318D2406
:102B4800000080430000383F0000903E0000803FB6
:102B58004ED747ADF6740F317CF293B4010DD037E0
:102B6800610BB6BAABAA2A3D0000C93F0000803B02
:102B78000000003E00000041D3C92E2F342FD7B2E9
:102B88001BEF3836010D50B98988083CABAA2ABE1C
:102B9800ABAA2A3E000080BFCAF249710000004C6F
:082BA8006042A20D00000033A1
:040000059000040063
:00000001FF
