:0200000490006A
:100000006F0000406F00C01F6F0040256F0000258B
:100010006F0020206F0080246F0040246F000024B8
:100020006F0040206F0080236F0040236F0000238B
:100030006F0080206F0080226F0040226F0000223E
:100040006F00C0216F0060206F0020206F00E01F54
:100050006F00A01F6F00601F6F00201F6F00E01E69
:100060006F00A01E6F00601E6F00201E6F00E01D5D
:100070006F00A01D6F00601D6F00201D6F00E01C51
:100080006F00A01C6F00601C6F00201C6F00E01B45
:100090006F00A01B6F00601B6F00201B6F00E01A39
:1000A0006F00A01A6F00601A6F00201A6F00E0192D
:1000B0006F00A0196F0060196F0020196F00E01821
:1000C0006F00A0186F0060186F0020186F00E01715
:1000D0006F00A0176F0060176F0020176F00E01609
:1000E0006F00A0166F0060166F0020166F00E015FD
:1000F0006F00A0156F0060156F0020156F00E014F1
:100100006F00A0146F0060146F0020146F00E013E4
:100110006F00A0136F0060136F0020136F00E012D8
:100120006F00A0126F0060126F0020126F00E011CC
:100130006F00A0116F0060116F0020116F00E010C0
:080140006F00A0100000000098
:10015000000000000000000000000000000000009F
:10016000000000000000000000000000000000008F
:10017000000000000000000000000000000000007F
:10018000000000000000000000000000000000006F
:10019000000000000000000000000000000000005F
:1001A000000000000000000000000000000000004F
:1001B000000000000000000000000000000000003F
:1001C000000000000000000000000000000000002F
:1001D000000000000000000000000000000000001F
:1001E000000000000000000000000000000000000F
:1001F00000000000000000000000000000000000FF
:10020000F3900034A928C5284D20F39000347300E2
:100210002030F3900034A120C5204128F390003411
:1002200073002030F39000341D28EF409055B5281E
:10023000F390003473002030F39000340D207D28BB
:10024000AD20F390003473002030F3900034012887
:100250007D20A128F39000347300203001A0F3909A
:100260000034130141F806C00AC20EC412C616C8F3
:100270001ACA1ECC22CE26D02AD22ED432D636D8B6
:100280003ADA3EDC42DEC6C0CAC2CEC4D2C6D6C846
:10029000DACADECCE2CEE6D0EAD2EED4F2D6F6D896
:1002A000FADAFEDCF39000348280F390003482406E
:1002B0001241A2413242C2425243E243724482544A
:1002C0001255A2553256C2565257E25772588648B6
:1002D0001649A649364AC64A564BE64B764C865CCA
:1002E000165DA65D365EC65E565FE65F1301C1070A
:1002F000F3900034828082808280828082807324A6
:100300001034F3240030732510BF411106C022C2FF
:1003100026C42AC6F3670430EF40304DF37704302B
:1003200082401244A24432454101731005BF7390CC
:0C033000043073101434828000000000C0
:10033C0000000000000000000000000000000000B1
:10034C0000000000000000000000000000000000A1
:10035C000000000000000000000000000000000091
:10036C000000000000000000000000000000000081
:10037C000000000000000000000000000000000071
:10038C000000000000000000000000000000000061
:10039C000000000000000000000000000000000051
:1003AC000000000000000000000000000000000041
:1003BC000000000000000000000000000000000031
:1003CC000000000000000000000000000000000021
:1003DC000000000000000000000000000000000011
:1003EC000000000000000000000000000000000001
:1003FC0000000000970100F093810140170100F408
:10040C00130181BF176500001305053C970500F02B
:10041C00938585BE170600F0130646C663FAC50021
:10042C008322050023A0550011059105E3EAC5FEC2
:10043C00170500F0130585C4970500F09385C5C515
:10044C006377B500232005001105E36DB5FE970217
:10045C0000009382A2BA93E2120073905230592892
:10046C007155B7E2ADDE9382D2EA23205500F5BF79
:04047C00000000007C
:10048000000000000000000000000000000000006C
:10049000000000000000000000000000000000005C
:1004A000000000000000000000000000000000004C
:1004B000000000000000000000000000000000003C
:1004C000000000000000000000000000000000002C
:1004D000000000000000000000000000000000001C
:1004E000000000000000000000000000000000000C
:1004F00000000000000000000000000000000000FC
:100500006D712326111023248110000AEF40404909
:10051000EF401042EF40301D9307F00F739007BE7D
:10052000EF40802701008320C11003248110516116
:100530008280D30705E059469396170013D78601AA
:10054000130717F8BE8585826342E60863470704F0
:10055000370580009306F5FFB3D6E64033F8F60082
:10056000530605E06308080237080080872748071C
:10057000530700F0D377F5005318F7A0630C080079
:1005800063D607003357E540B305F70093C6F6FF7F
:1005900033F6B600530506F08280370700808727C0
:1005A0004707530700F0530605E0D377F5005317CC
:1005B000F7A06DD3530607E0E3DE07FC530605E022
:1005C000F1DAB707008003A60707E9B73707807F8E
:1005D000530605E0E3E0E6FCD377A500538607E089
:1005E000530506F08280D30705E09396170013D7D2
:1005F0001600A1CEB706807F637CD70433F6D70000
:1006000039EEB706008087A786075177130707CB17
:10061000D377F510D38707E0634BE50813D777410D
:100620001377F70F1D172A971306E00FBE86635F37
:10063000E6023707008007274707D38707F0D3076D
:10064000F720D3F7E710D38707E0538507F08280C0
:10065000D377A500D38707E0538507F082805D83B9
:100660002A971306E00FBE86E345E6FC6347E002E7
:1006700029566359C704316713070735E34BA7FAB7
:10068000370700800727C707D38707F0D307F7206E
:10069000D3F7E710D38707E04DBFB7078080FD177A
:1006A000FD8E93177701D58F538507F0828037072A
:1006B0000080538707F08727C707D377F710D387C2
:1006C00007E061B793079701370780807D17F98EA0
:1006D000DE07D58F37070080538707F08727070885
:1006E000D377F710D38707E08DB7937735002A8744
:1006F00095EFB7867F7F9386F6F7FD551043110778
:10070000B377D600B697D18FD58FE389B7FE8346EE
:10071000C7FF0346D7FF8347E7FF098F8DC60DC28A
:100720003335F0003A9579158280E1D6834707008A
:10073000050793763700F5FB098F1305F7FF8280D5
:100740001305D7FF82801305C7FF8280AA88AE8772
:1007500032883685468363960620B7660090938676
:10076000062263FFC50A41676375E60A1307F00FA7
:100770003337C7000E073355E600AA9683C6060036
:10078000130500023697B306E540630BE500B39509
:10079000D70033D7E8003318D600D98D3393D8006B
:1007A00093580801B3D615031316080141829357D5
:1007B000030133F715033685B305D6024207D98FF7
:1007C00063FCB700C2971385F6FF63E7070163F583
:1007D000B7001385E6FFC2978D8F33F717034203E7
:1007E00013530301B3D71703420733636700B306FC
:1007F000F6023E86637BD30042931386F7FF63665F
:1008000003016374D3001386E7FF4205518D8145D0
:100810005DA8370500014147E36FA6F46147A1BF1A
:1008200001E605473358C7024167637FE8081307AD
:10083000F00F6373070121453357A800BA9603C729
:100840000600130600022A97B306E6406315E60881
:10085000B387074185459358080113160801418263
:1008600013570301B3F61703B3D71703C206558F07
:10087000330EF6023E85637CC70142971385F7FF6E
:10088000636707016375C7011385E7FF4297330765
:10089000C741B377170342031353030133571703B9
:1008A000C20733E36700B306E6023A86637BD300F0
:1008B00042931306F7FF636603016374D3001306C4
:1008C000E7FF4205518D8280370700014145E3650E
:1008D000E8F6614595B73318D80033D5E700339370
:1008E000D800B397D70033D7E80093580801336690
:1008F000F7003377150393170801C1839355060159
:100900003355150342074D8FB386A702AA85637C32
:10091000D70042979305F5FF636707016375D7001A
:100920009305E5FF4297B306D74033F71603420617
:100930004182B3D6160342073385D702B367C70097
:10094000368763FCA700C2971387F6FF63E70701AA
:1009500063F5A7001387E6FFC297C205898FD98D7B
:10096000DDBD63E2D514416763FFE6021307F00FB4
:10097000B335D7008E053767009033D5B60013071F
:1009800007222A9703470700130500022E97B30595
:10099000E5406311E5020545E3E7F6F233B5C8002B
:1009A000134515000DB737070001C145E3E5E6FC27
:1009B000E145D1B73358E600B396B6003368D800A6
:1009C00033DEE700935E0801B376DE03B397B7002A
:1009D00033D7E8003313B6003366F70093170801E6
:1009E000C18313570601335EDE03C206558F338F72
:1009F000C7037285637CE70142971305FEFF6367B7
:100A000007016375E7011305EEFF42973307E741DE
:100A1000B376D7033357D703C206338EE702931753
:100A20000601C183D58F3A8663FCC701C2971306BE
:100A3000F7FF63E7070163F5C7011306E7FFC297F6
:100A40004205C16E518D9386FEFF3378D500135653
:100A50000501B376D30013530301B387C741330EA7
:100A6000D802B306D60213570E013308680236982F
:100A70004297330666026373D70076969356070152
:100A8000369663E0C702E394C7D8C167FD177D8F30
:100A90004207337EFE00B398B80072978145E3F4B5
:100AA000E8E27D15ADB38145014531BDAA8E2E83A7
:100AB0003288B6876392061C3767009013070722B7
:100AC00063F5C50AC166637BD6089306F00F63F32E
:100AD000C600A147B356F600369703470700BA97FA
:100AE00013070002B308F740630BF700B3151301B7
:100AF000B3D7FE0033181601DD8D33951E019356D2
:100B00000801B3F7D50213160801418213570501F6
:100B1000B3D5D502C2075D8FB305B6026378B700BF
:100B20004297636507016373B70042970D8FB377F0
:100B3000D702420541813357D702C2075D8D330783
:100B4000E6026378E5004295636505016373E5009D
:100B50004295198D3355150181458280B7060001F4
:100B6000C147E369D6F6E147B5B701E6854633D814
:100B7000C602C166637BD80E9306F00F63F30601CD
:100B8000A147B356F800369703460700B305034163
:100B90003E9693070002B388C740638AC70633189E
:100BA0001801B357C300B31513011353080133D60B
:100BB000CE004D8E93150801C18133951E01B3D629
:100BC000670233F7670293570601B386D5024207DF
:100BD0005D8F6378D7004297636507016373D70021
:100BE0004297B306D74033F7660242064182B3D636
:100BF00066024207B386D502B365C70063F8D50025
:100C0000C29563E5050163F3D500C295958D9356B2
:100C1000080133F7D50293170801C1831356050164
:100C2000B3D5D5024207518FB385B7026378B700B9
:100C30004297636507016373B7004297B305B740F6
:100C400033F7D50242054181B3D5D502B385B7024A
:100C5000931707015D8D6378B500429563650501C3
:100C60006373B50042950D8DF5B5B7060001C14718
:100C7000E369D8F0E14731B7E3E1D5EEC16763F44A
:100C8000F6049308F00FB3B7D8008E0737670090CB
:100C900033D8F60013070722429783480700BE980F
:100CA00093070002338817416396170363E46600D5
:100CB000E3E5CEEA3385CE40B305D340B3BEAE0004
:100CC000B385D54159BD37070001C147E3E0E6FCD4
:100CD000E1476DBFB3571601B396060133EED70057
:100CE000335F1301B3D71E0133950E01935E0E01DE
:100CF000B31503013353DF03CD8F93150E01C1816B
:100D000013D7070133160601B376DF03338F65026D
:100D1000C206558F9A86637CE70172979306F3FFAC
:100D20006367C7016375E7019306E3FF72973307B3
:100D3000E7413373D703C207C1833357D703420355
:100D40003363F300B385E502BA87637CB300729323
:100D50009307F7FF6367C3016375B3009307E7FF6A
:100D60007293C206416FDD8EB305B3401303FFFFDC
:100D7000B3FE660013570601C18233736600B38762
:100D80006E0233836602B38EEE02B386E6029A9E4B
:100D900013D70701769763736700FA961353070119
:100DA0009A9641637D13337767004207B3F7670074
:100DB000BA9763E6D500639BD5006379F500338667
:100DC000C740B3B7C700F2979D8EB287B307F5400F
:100DD0003335F500958D898DB398150133D507010D
:100DE00033E5A800B3D505018DBB011106CE22CC99
:100DF00026CA4AC84EC652C4F3292000B7081000BC
:100E0000FD1833F7B80013D4450193D4F50193D5F9
:100E1000460193173700B3F8D8001357D501137460
:100E2000F47F93F5F57F5D8F13D3F60193173500AB
:100E30009356D6018E083305B44013183600B3E636
:100E400016012A86639164346359A010B9E133E531
:100E5000060111E59306F07F631CD62A39A8130515
:100E6000F6FF01E93E98BA96B337F800BE960546FC
:100E700059A09308F07F63111605B366F700638CE1
:100E8000066EB7064000F98E014463920620C14504
:100E9000FDAA1306F07F631EC400B366F700638FDC
:100EA000066CB7064000F98E638506121306F07FC4
:100EB00085A437068000D18E13068003634AA608F6
:100EC0007D466340A60613060002098EB358A800AB
:100ED000B395C6003318C800B3E5150133380001D7
:100EE00033E8050133D5A6003E983A95B337F800AC
:100EF000B306F5002286B7078000F58FB5CB05064F
:100F00009307F07F6301F626370780FF7D1793571D
:100F10001800758F1378180033E807019317F7014D
:100F2000EDA2930505FE93080002B3D5B600014675
:100F300063081501130600043305A6403396A60086
:100F4000336806013338000133E80501014569BF04
:100F500033E8060133380001D5BF7DC933868540AB
:100F600021E83365F70011E99307F07F6306F60285
:100F70003687C2876301064061AA9308F6FF63992A
:100F80000800C29733B80701BA96C2963E88C5B525
:100F90001305F07F6315A604B3E706016383075EBC
:100FA000B7074000F58F3687639F075CC287C5B5DA
:100FB0001305F07F6391A502B3E706016380075A2A
:100FC000B7074000F58F3687639F0758C28713061F
:100FD000F07F01446DBD37058000498FB28813064C
:100FE0008003634316077D46634B16031305000217
:100FF000330515413316A70033D31701B397A70064
:1010000033666600B337F000D18F33571701C297AC
:101010003697B3B60701BA963E882E86E9BD138689
:1010200008FE130300023356C700014563886800B9
:1010300013050004330515413315A700C98FB337D5
:10104000F000D18F0147E1B7D98FB337F000DDBF92
:10105000130614001375E67F41ED3365F70021E4B4
:101060006301054C33E60601630706303E98B3374B
:10107000F80036973E97B7078000F98F6384074AD8
:10108000B70780FFFD177D8F8145C287054693F620
:101090007700C5E6630D045693F61500638906567E
:1010A00093E52500ADA31306F07F631DC402630F13
:1010B000055C37064000798E133616001206639DD4
:1010C0008552B28533E6060111C637064000758E9B
:1010D00011E2C145631305523687C28701441306E6
:1010E000F07F75B76394C5008145E9BF8145DDB7E1
:1010F0009305F07F6300B6023E98B337F800369749
:101100003E979317F70113581800B3E707010583BB
:1011100001449DA9638609008D476396F90081E823
:101120001306F07F81A889476393F900F5F801441D
:101130007D57FD571306E07F9545894693E51500D9
:101140006385D9488D46638ED9466391094893F6E5
:10115000F7001145638CA64693864700B3B7F600A7
:101160003E97B687A5A1638709008D476398F9006C
:10117000639D043E01478147954551A98947639680
:10118000F93EEDF86DB76356A00CC9E133E50601F1
:10119000E30205CC1305F6FF11E933880741B306D6
:1011A000D740B3B707019D8E0546A9A09308F07FED
:1011B000E30516CD130680036348A6087D46634FFA
:1011C000A60413060002098EB395C600B358A80002
:1011D0003318C800B3E515013338000133E80501C1
:1011E000B3D6A60033880741B306D740B3B707018B
:1011F0009D8E228637098000B3F72601E38A07D641
:101200007D1933F92601428A3284B5A41306F07F92
:10121000E305C4C837068000D18E69BF930505FE7B
:1012200093080002B3D5B600014663071501130603
:101230000004098E3396C600336806013338000176
:1012400033E80501814679BF33E8060133380001F0
:10125000D5BF75CD3386854039E43365F70009E5A0
:101260009307F07F9A8419B39308F6FF639C0800F4
:10127000B307F8403338F800998EB38606419A8454
:101280003E881DB71305F07F6316A604B3E7060179
:10129000638E072EB7074000F58F3687639B072EB6
:1012A000C2879A84EDB61305F07F6391A502B3E778
:1012B00006016383072EB7074000F58F36876391D9
:1012C000072EC2871306F07F9A8421B3370580006A
:1012D000498FB28813068003634716077D46634F24
:1012E000160313050002330515413316A70033DE3C
:1012F0001701B397A7003366C601B337F000D18F4B
:1013000033571701B307F8403387E640B336F80088
:10131000B306D7403E882E869A84E9BD138608FE20
:10132000130E00023356C70001456388C801130538
:101330000004330515413315A700C98FB337F000FA
:10134000D18F0147C1B7D98FB337F000DDBF130686
:1013500014001376E67F7DEAB368F70033E50601F3
:101360005DE0639208066311051C9384E9FF93B462
:10137000140001478147B3E6E7006380062493D653
:10138000F7011314170036949396170013F676009E
:10139000814505C609466389C91A0D46638CC9187B
:1013A0008545639C090013F6F60011456307A60006
:1013B00093B6C6FF93C6160036946180134414009A
:1013C00005880146E9B145D9B385074133B5B70072
:1013D0003306D740098E37058000718D19C9B307D0
:1013E000F8403387E6403338F800330707419A84E2
:1013F00059B7B3E7C500639C07129384E9FF93B420
:10140000140001478DBF1306F07F631EC40063877D
:10141000082637064000798E1336160012066393AD
:101420008526B28521A06391C502814511C5370685
:101430004000758E11E2C1456397082463070516C5
:101440003687C2879A8459B98145FDB7338A0741E7
:1014500033B647013309D7403309C9403706800006
:101460003376C9002DC6330AF840998E33384801C7
:10147000338906419A84630009064A85EF101057A4
:10148000130685FFFD4763CEC70493060002918EC5
:101490003317C900B356DA00D98E3318CA00634B2C
:1014A0008606018E13071600FD4763C2E704130684
:1014B0000002198EB397C6003355E8003316C800F2
:1014C000C98F3336C000D18F33D7E6006DB5B3670F
:1014D0002A01D5F31DB75285EF10505113050502AF
:1014E00045B7930685FDB316DA0001484DBF0516D2
:1014F0009305000233D6C60081476307B700930700
:101500000004998FB397F600B367F800B337F00083
:10151000D18FC5BDB70780FFFD173306C440FD8ED0
:1015200081BC3687C28781BD3687C287C9B53287FD
:10153000AE8791B5A685E39204E893B686FF93C67D
:1015400016003694854595BD8545E38804E693B637
:1015500086FF93C616003694A68585B50147130607
:10156000F07F81456DA0C28791B27D57FD5713066C
:10157000E07F0144D1B60147814751A80147814727
:10158000F9BF0147F9BFC287814511B601479A8467
:10159000C9BFC2879A84CDBF01471306F07FC5BF7C
:1015A000C2871306F07F9A84A5B681478144370726
:1015B00040001306F07FC14599A8014781470146C5
:1015C0004DB789E49386870051BEEDFCE31A04AC65
:1015D0003DA88147638E09000D476397E90089C8DC
:1015E000FD571306E07F29A00947E39BE9FEEDD8EC
:1015F00093E555003E870DA8B285B3E60601E38F5B
:1016000006AC81443707400081471306F07FB706D8
:101610008000F98E91CA05069306F07FE30BD6FA97
:10162000B70680FFFD16758F13D537009306F07F40
:101630009317D701C98F0D836319D600D98F01473E
:1016400089C73707080081478144B706F07F5206F3
:101650003207758E3183518FFE04B36697003E8743
:10166000B68799C173A01500F2406244D244424942
:10167000B249224A3A85BE8505618280E38785DAD0
:1016800081456DBBB285E30B05A4A5BFE38E85A4A0
:10169000814599B4797122D456CA66C206D626D23B
:1016A0004AD04ECE52CC5AC85EC662C42A84B28C8E
:1016B000B68A7329200013DB4501939BC500137B79
:1016C000FB7F93DBCB0013DAF50163060B02930774
:1016D000F07F630BFB061357D5018E0BB36B7701BD
:1016E000B7078000B3EBFB0093193500130B1BC049
:1016F000014C8144BDA0B3E7AB00E1C7638B0B0293
:101700005E85EF10B02E130755FFF14763C8E7025F
:10171000F546930985FF998EB39B3B01B356D400E0
:10172000B3EB7601B31934019305D0C0338BA540D8
:10173000C1B7EF10B02B13050502F1B7930B85FD70
:10174000B31B74018149CDB733E4AB0041C0B70787
:101750000800B3F7FB00AA89130BF07F0D4CC144BE
:10176000C9FB1395CA001354C50013D54A019375DC
:10177000F57FE68793DAFA01A5C11307F07F638747
:10178000E50A93D7DC01131534005D8D3704800022
:10179000498C93973C00138515C0014793162C0084
:1017A000D98EB305AB40FD16394533465A016368FF
:1017B000D50A376500908A061305851AAA969442C1
:1017C0008286814B8149014B054C25B7814B81496C
:1017D000130BF07F094C31BFB3679401A5C71DC837
:1017E0002285EF10B020AA85938655FFF14763C983
:1017F000D7027547938785FF158F3315F40033D7CC
:10180000EC003364A700B397FC001307D0C0330586
:10181000B74061B76685EF10701D93050502E9B703
:10182000138585FD3394AC008147C5B733669401B9
:1018300019CE37070800618F1305F07F19EF0D47A8
:10184000C144A9BF014481470145054781BF014407
:1018500081471305F07F094791B70D4781B763664C
:10186000740163948B2663E2F9261395FB0113D769
:1018700019009396F90193DB1B00B369E50013157A
:10188000840013D887013368A800418133DEAB029E
:10189000131F0801135F0F019398870093D7090165
:1018A000B3FBAB0272833307CF03C20BB3E77701FD
:1018B00063FCE700C2971303FEFF63E7070163F5CC
:1018C000E7001303EEFFC297998FB3DEA7021397C9
:1018D00009014183B3F7A702F689330EDF03C2077C
:1018E0005D8F637CC70142979389FEFF63670701A1
:1018F0006375C7019389EEFF42974203B3693301D1
:101900004163930EF3FF93D2090193DF080133077C
:10191000C74133FED901B3FED801B307DE033384D8
:10192000D203338ECF03B3038E0013DE07011E9E56
:10193000B382F20363738E009A92C16313530E0154
:10194000FD139A9233737E004203B3F777003E9300
:10195000636757004E84631E570263FC6602C69697
:10196000B3B71601C2973E971384F9FF6366E80088
:101970006311E80263EF160163665700639BE200A0
:1019800063F96600C696B3B71601C2971384E9FFE0
:101990003E973383664033075740B3B66600158FD2
:1019A000FD576307E80EB352A7029357030133773D
:1019B000A7029686330E5F0242075D8F637CC701E4
:1019C00042979386F2FF636707016375C7019386A9
:1019D000E2FF42973307C741335EA7029317030123
:1019E000C1833377A702330FCF0342075D8FF2879E
:1019F000637CE70142979307FEFF63670701637506
:101A0000E7019307EEFF4297C206DD8E939706012A
:101A1000C18313D30601338E6F023307E741B38FBF
:101A2000FF02338FFE02B30ED30393570F01F69FCD
:101A3000FE9763F4D70141652A9E13D30701729381
:101A4000416E7D1E33F5C7014205337FCF017A9584
:101A5000636667006312672CB6871DC94297938738
:101A6000F6FF63610703636667006316672A63FD19
:101A7000A8009387E6FF93961800B3B8160146981E
:101A80004297B688631467006384A80093E7170041
:101A90001388F53F6358001113F7770025CF0947E6
:101AA00093E414006307E9060D476300E906631336
:101AB000090613F7F7009146630ED7041387470012
:101AC000B337F7003E94BA87B1A0FD15814645BBF8
:101AD00052865E84CE8762878D466307D72285460D
:101AE0006301D7228946E315D7FA29A05686EDB7B8
:101AF00093E48400014581471307F07F91A03704E8
:101B00000800814701460D47C1BF09E613878700DA
:101B100045BF6DFE37070001618F19C7370700FF0A
:101B20007D17798C138805401307E07F634607050E
:101B300013D737009317D401D98F13553400428738
:101B40005207B706F07F3205758F3181598D7E06B9
:101B50003367C500BA853E8599C073A01400B250A2
:101B6000225492540259F249624AD24A424BB24B31
:101B7000224C924C4561828089476303F9028D476C
:101B80006308F9006317090081471307F07F29A054
:101B900065DEFD571307E07F93E454003E854DB7A3
:101BA00065F6C5BF05476314080493F677002287DE
:101BB0009DCA894693E414006306D9028D46630FDB
:101BC000D9006312090293F6F7001145638DA60050
:101BD00013B7C7FF13471700229731A009E613B7C1
:101BE00087FFCDBF6DFE618313471700058B054549
:101BF000330505419306800363C2A60CFD4663CA04
:101C0000A6049385E54133D8A700B316B400B39773
:101C1000B700B3E60601B337F000D58F3355A40003
:101C200093F67700ADC2894693E41400630CD9049F
:101C30008D466305D9046318090493F6F7009145AE
:101C40006383B60493864700B3B7F6003E95B68724
:101C50001DA88556B386064193080002B356D400EA
:101C60000148630615019385E5433318B400B36753
:101C7000F800B337F000D58F01455DB709E69386CC
:101C80008700D9B76DFEB7068000E98E81CA93E45C
:101C900014000145814705E305475DB593D637003C
:101CA0009317D501D58F0D81E30C07E813F71400C6
:101CB000E30807E8014793E4240059B5C18F91CFA9
:101CC000894793E414006303F9028D47630CF9001C
:101CD00085476313090095478D8393E424000145EC
:101CE0000147B9BDA5476DDA8547FDB7A5476DF634
:101CF000E5BF3705080081471307F07F0146C1445F
:101D000081B501458147E9BF3705080081471307C1
:101D1000F07F014635B5BE86B6878DBB2A88F3278E
:101D20002000B707100093D84501FD1713D34601D3
:101D30002A8E93F8F87F1305F07F33F7B700B28E41
:101D4000F58FFD811373F37FFD826398A8003365DF
:101D5000070131E56314130719A06315A30033E5E8
:101D6000C70015E50545639C6804631AF70463180A
:101D7000DE05638CD50063940804336707013335AF
:101D8000E00082807360180015A8014582809306E8
:101D9000F07F6391D80233680701630D0800B7062E
:101DA0000800758F65D31307F07F05456319E300BD
:101DB0005D8E11C637070800F98FE9D70545828087
:101DC000AA8773272000370710007D1713D8450115
:101DD000B378B7002A831378F87F13D5F501930EF3
:101DE000F07F93D54601758F328E93F5F57FFD8296
:101DF000631AD801B3EEF80063860E06736018000C
:101E0000795582806396D501B36EC700E3980EFEC4
:101E1000631C0804B3E7F80093B7170099E1598EE3
:101E20000DCE81EB6314D50063D905010DC57D5539
:101E300082807D5591C6368582806354B80065D90D
:101E40008280E36517FF639CE800E3616EFEE36850
:101E5000C3FF0145828005458280E5FFC1BFE3E005
:101E6000E8FEC5BFE38205FBD5FD81474DBFAA87CC
:101E700073272000370710007D1713D84501B3786A
:101E8000B7002A831378F87F13D5F501930EF07FFE
:101E900093D54601758F328E93F5F57FFD82631AD7
:101EA000D801B3EEF80063860E067360180009458A
:101EB00082806396D501B36EC700E3980EFE631C63
:101EC0000804B3E7F80093B7170099E1598E0DCED7
:101ED00081EB6314D50063D905010DC57D55828062
:101EE0007D5591C6368582806354B80065D982805D
:101EF000E36517FF639CE800E3616EFEE368C3FFE0
:101F00000145828005458280E5FFC1BFE3E0E8FE30
:101F1000C5BFE38205FBD5FD81474DBF797122D452
:101F200056CA66C206D626D24AD04ECE52CC5AC81F
:101F30005EC662C42A84B28CB68A7329200093DB01
:101F400045019399C50093FBFB7F93D9C90013DB2F
:101F5000F50163860B029307F07F638BFB069357B3
:101F6000D5018E09B3E93701B7078000B3E9F9005D
:101F7000131A3500938B1BC0014C8144BDA0B3E7FD
:101F8000A900F9C3638B09024E85EF1020261307C1
:101F900055FFF14763C8E702F547130A85FF998F9C
:101FA000B3994901B357F400B3E93701331A440137
:101FB000930BD0C0B38BAB40C1B7EF1020231305F8
:101FC0000502F1B7930985FDB3193401014ACDB774
:101FD00033E4A9003DCCB7070800B3F7F9002A8A1B
:101FE000930BF07F0D4CC144C9FB13D54A011394E8
:101FF000CA001375F57FE687318093DAFA0125C1AF
:102000001307F07F6305E50A93D7DC010E045D8CAE
:10201000B70780005D8C130515C093973C000147FE
:1020200093162C00D98EAA9BFD163946B3455B0149
:1020300013851B006369D60E376600908A06130667
:10204000461EB296944282868149014A814B054CD4
:102050002DB78149014A930BF07F094C39BFB36713
:102060009401B5C30DC82285EF104018930655FFA3
:10207000F14763C8D7027547930785FF158F33145F
:10208000F40033D7EC00598CB397FC001307D0C091
:102090003305A74069B76685EF10401513050502A3
:1020A000F1B7130485FD33948C008147C5B73366BF
:1020B000940119CE37070800618F1305F07F19EFDF
:1020C0000D47C144B1BF014481470145054789BF60
:1020D000014481471305F07F094799B70D4789B738
:1020E0003704080081471307F07F8145C144520738
:1020F000B706F07F3204758F3180FE05598C336747
:10210000B4003E85BA8599C073A01400B250225421
:1021100092540259F249624AD24A424BB24B224C83
:10212000924C45618280C16E138EFEFF13570A01E7
:1021300093D80701337ACA01B3F7C701338848033C
:10214000B3864703330FF7023303E80113D80601C0
:102150001A98330617036373E8017696935F0801B4
:102160003378C801B3F6C601935E0401337EC4011F
:1021700042083698330FC703B306CA03338A4E03A7
:102180003303EA0113DA06011A9A3307D70363749B
:10219000EA0141631A9713530A013A934167130FF7
:1021A000F7FF337AEA01B3F6E60113D40901420AD4
:1021B000B3F9E901338F3703369AD29FB3863803D8
:1021C000B307F402B3828802B388F60093560F0176
:1021D000C69663F3F600BA9241679307F7FF337F21
:1021E000FF0093D80601FD8EB387C903C206FA9695
:1021F0009698330EC403B3893E03338F8E02F2994F
:1022000013D40701A29963F3C9013A9F416E7D1E61
:1022100033F7C901B3F7C70142077E963E97333AB9
:1022200046011A97330447013696B336D600330E6B
:102230001401B30EDE003337670033344401598C88
:10224000B3B6DE0093D90901B3381E014E94B3E64C
:10225000D80036947A9493D77E0126045D8C931728
:102260009600B3E70701B337F0005D82370700013E
:10227000D18FA60E618FB3E7D70125CB13D71700F7
:10228000858BD98F1317F401D98F05801308F53F7B
:102290006350000D13F7770025C3094793E414003A
:1022A000630BE9040D476304E9046317090413F79A
:1022B000F70091466302D70413874700B337F7004E
:1022C0003E94BA8715A8DA854E84D28762878946FC
:1022D0006307D71C8D466309D71C8546E318D7FAD8
:1022E0000144814765A2D685DDB75E8545B789E59E
:1022F00013878700E1B7EDFD37070001618F19C72C
:10230000370700FF7D17798C130805401307E07F1E
:10231000634A070113D737009317D401D98F0D8073
:102320004287F1B389476303F9028D476308F900D7
:102330006317090081471307F07F29A0E5DDFD57EA
:102340001307E07F93E454003E8455B3E5F5C5BF21
:1023500005476314080493F6770022879DCA8946CF
:1023600093E414006306D9028D46630FD90063120B
:10237000090293F6F7001146638DC60013B7C7FF35
:1023800013471700229731A089E513B787FFCDBF08
:10239000EDFD618313471700058B8546B386064123
:1023A000130680036342D60C7D46634AD6041305A8
:1023B000E5413316A40033D8D700B397A70033669E
:1023C0000601B337F000D18F3354D40093F6770071
:1023D000ADC2894693E41400630CD9048D466305AD
:1023E000D9046318090493F6F70011466383C60401
:1023F00093864700B3B7F6003E94B6871DA80556EE
:1024000033060641930800023356C4000148638630
:1024100016011305E5433318A400B367F800B3377A
:10242000F000D18F01445DB789E593868700D9B765
:10243000EDFDB7068000E18E81CA93E414000144EB
:10244000814705E3054765B193D637009317D4015B
:10245000D58F0D80E30D07C813F71400E30907C8F3
:10246000014793E4240061B1C18F91CF894793E480
:1024700014006303F9028D47630CF9008547631369
:10248000090095478D8393E424000144014785B1F9
:10249000A547EDD98547FDB7A547EDF5E5BF014453
:1024A00081471307F07FA1B1370408008147130764
:1024B000F07F81452DB9011106CE22CC26CA4AC82B
:1024C0004EC652C4F3292000B7081000FD1833F798
:1024D000B80013D44501B3F8D80093D4F50193D5CF
:1024E00046019317370013D3F6011357D5019356BE
:1024F000D6018E081318360093F5F57F1306F07F8A
:102500005D8F1374F47F93173500B3E6160163955E
:10251000C50033E6060119E2134313003306B44045
:102520006316933C6350C012A9E933E506010DE13F
:102530009306F07F01446313D624B366F700638EDD
:10254000067837044000798C1334140012043DA43B
:102550001305F6FF01E93E98BA96B337F800BE9628
:10256000054641A09308F07F631F1603B366F7008A
:10257000E9FA0147814701448DAC9305F07F631070
:10258000B402B366F700638D0674B7064000F98E97
:102590001306F07F81456390062E4144C5A2B7051E
:1025A0008000CD8E3285130680036348A6087D46E1
:1025B000634FA60413060002098EB395C600B358F4
:1025C000A8003318C800B3E515013338000133E81B
:1025D0000501B3D6A6003E98BA96B337F800BE966A
:1025E0002286B7078000F58FADCB05069307F07FF5
:1025F000630EF62C370780FF7D1793571800758FF1
:102600001378180033E807019317F7018DA4930599
:1026100005FE93080002B3D5B60001466307150115
:1026200013060004098E3396C6003368060133385A
:10263000000133E80501814679BF33E806013338EC
:102640000001D5BF65CE3386854029E83365F700A4
:1026500011E99307F07F6306F6023687C287630E9F
:10266000064609AC9308F6FF63990800C29733B891
:102670000701BA96C2963E88E5B51305F07F63164A
:10268000A604B3E70601014763810716B7074000B8
:10269000F58F368763990764C28715A01305F07F0D
:1026A0006391A502B3E70601638B0760B70740009B
:1026B000F58F368763990760C2871306F07F8145DF
:1026C000E9BD37058000498FB28813068003634354
:1026D00016077D46634B16031305000233051541AB
:1026E0003316A70033D31701B397A70033666600EC
:1026F000B337F000D18F33571701C2973697B3B66F
:102700000701BA963E882E86E9BD138608FE13039C
:1027100000023356C70001456388680013050004B2
:10272000330515413315A700C98FB337F000D18F9A
:102730000147E1B7D98FB337F000DDBF13061400AE
:102740001375E67F631805103366F70039E0630BF5
:10275000065233E60601630206383E98B337F800A6
:1027600036973E97B7078000F98F638E0750B707FB
:1027700080FFFD177D8F8145C287054693F6770060
:1027800063900612BDC193761400A5C213642400A1
:10279000A9A81305F07F6315A4026304065C37043F
:1027A0004000798C1334140012046397A502B3E53A
:1027B000060191C9B7054000F58D91E5414421A07E
:1027C0000144E386A5FE09EA3687C28781451306E0
:1027D000F07F6DB70144E1BFB3E60601E5DA81445D
:1027E0003707400081471306F07FB7068000F98E57
:1027F00091CA05069306F07F630ED652B70680FF96
:10280000FD16758F13D537009306F07F9317D70108
:10281000C98F0D836319D600D98F014789C7370740
:10282000080081478144B706F07F52063207758E53
:102830003183518FFE04B36697003E85B68519C07B
:1028400073201400F2406244D2444249B249224A01
:10285000056182809305F07F6301B6023E98B3372D
:10286000F80036973E979317F70113581800B3E70F
:10287000070105838145014411B7638609008D472F
:102880006396F90081E81306F07F81A88947639376
:10289000F900F5F881457D57FD571306E07F154493
:1028A0008946136414006383D9488D46638CD946E6
:1028B000639F094693F6F7001145638AA6469386FF
:1028C0004700B3B7F6003E97B68795A16387090026
:1028D0008D476398F900639C043E01478147154486
:1028E00029B789476395F93EEDF86DB76357C00C7A
:1028F000C9E133E50601E30D05C21305F6FF11E951
:1029000033880741B306D740B3B707019D8E05460C
:10291000A9A09308F07FE30B16C513068003634953
:10292000A6087D466340A60613060002098EB395ED
:10293000C600B358A8003318C800B3E515013338F2
:10294000000133E80501B3D6A60033880741B3067A
:10295000D740B3B707019D8E228637098000B3F7B1
:102960002601E38C07CE7D1933F92601428A328491
:10297000B5A49305F07FE306B4C0B7058000CD8E03
:10298000328561BF930505FE93080002B3D5B600FA
:1029900001466307150113060004098E3396C6002D
:1029A000336806013338000133E80501814671BF01
:1029B00033E8060133380001D5BF6DCE338685403C
:1029C00039E43365F70009E59307F07F9A8461B134
:1029D0009308F6FF639C0800B307F8403338F8000B
:1029E000998EB38606419A843E8815B71305F07F09
:1029F0006315A604B3E70601638A072EB7074000F4
:102A0000F58F36876397072EC2879A844DB91305D1
:102A1000F07F6390A502B3E70601638F072CB70729
:102A20004000F58F3687639E072CC2871306F07F20
:102A3000E9BF37058000498FB288130680036347DA
:102A400016077D46634F1603130500023305154133
:102A50003316A70033DE1701B397A7003366C6010C
:102A6000B337F000D18F33571701B307F8403387DE
:102A7000E640B336F800B306D7403E882E869A84E7
:102A8000E9BD138608FE130E00023356C700014548
:102A90006388C80113050004330515413315A700E9
:102AA000C98FB337F000D18F0147C1B7D98FB33782
:102AB000F000DDBF130614001376E67F7DEA336570
:102AC000F70033E6060155E02DE16310061C938400
:102AD000E9FF93B4140001478147B3E6E700638F31
:102AE000062293D6F70193151700B6959396170013
:102AF00013F67600014405C609466388C91A0D46D7
:102B0000638BC9180544639C090013F6F600114550
:102B10006307A60093B6C6FF93C61600B695E1817B
:102B200093C515008589014691B945DAB3850741FA
:102B300033B5B7003306D740098E37058000718D55
:102B400019C9B307F8403387E6403338F800330734
:102B500007419A8459B7B3E7C500639B0712938472
:102B6000E9FF93B4140001478DBF9308F07F63130E
:102B700014036304051E37044000798C13341400D9
:102B800012046395150311CAB7054000F58D91E550
:102B9000414421A00144E38815FF09E963080616B2
:102BA0003687C2879A841DB10144F1BFE30006C293
:102BB0003DB1338A074133B647013309D740330962
:102BC000C940370680003376C90025C6330AF8406D
:102BD000998E33384801338906419A84630F09047A
:102BE0004A852925130685FFFD4763CDC704930653
:102BF0000002918E3317C900B356DA00D98E33180C
:102C0000CA00634A8606018E13071600FD4763C19A
:102C1000E70413060002198EB397C6003355E80087
:102C20003316C800C98F3336C000D18F33D7E600C2
:102C30006DB5B3672A01DDF31DB75285452B13052A
:102C400005024DB7930685FDB316DA00014855BF5E
:102C500005169305000233D6C60081476307B70007
:102C600093070004998FB397F600B367F800B33762
:102C7000F000D18FCDBDB70780FFFD173306C440EC
:102C8000FD8EE1BA3687C28789BD3687C287D1B546
:102C90003287AE8799B52684E39304E893B686FF1E
:102CA00093C61600B69505449DBD0544E38904E628
:102CB00093B686FF93C61600B69526848DB5014758
:102CC0001306F07F4DB8C2871306F07F65B67D57B7
:102CD000FD571306E07F8145D9B60147814731B6DC
:102CE00001478147F1BFC287814549BC01479A84AA
:102CF000EDBCC2879A84CDBF01471306F07F9A844A
:102D00009DB8C2871306F07F9A84ADB6814781448F
:102D1000370740001306F07F4144C1BC014781479B
:102D2000014691B889E49386870061BEEDFCE39F7C
:102D300005A465BC8147638E09000D476397E900D0
:102D400089C8FD571306E07F29A00947E39BE9FEE8
:102D5000EDD8136454003E8775B4E38785E40144DD
:102D600035BDE38985A6014485B42A87F327200071
:102D7000B7071000FD1733F8B700D181F58F93F531
:102D8000F57FD1821305F07F93F6F67F6395A5005A
:102D90003365E80005E19308F07F0145639316056C
:102DA000B3E8C7006393080082806393D50233675A
:102DB000E80001CF370708003378E800630F080008
:102DC0001307F07F0545639EE6005D8E054511CA39
:102DD00037070800F98F054589E773601800054536
:102DE000828082802A88F3272000B707100093D6BC
:102DF00045011386F7FF93F6F67F1307E03F6D8ECC
:102E0000FD816346D700D1EA518D41E982801307E5
:102E1000D0416358D702370700801347F7FF338547
:102E2000E500BDCD9307E04141476392F604931757
:102E3000B60013565801D18F9DEB1317B8003DE330
:102E4000828013053043158D7D47D18F6344A702DF
:102E50001386D6BEB316C800B397C7003355A80073
:102E60003337D0005D8D99C13305A04019C373205D
:102E7000170082801306000201476306C50013870E
:102E8000D6C03397E7001305304133670701158D2E
:102E90003337E00033D5A700F9B701450547C1BF77
:102EA0004147F1B72E87E1B7411106C622C426C2B9
:102EB00021CD9357F54133C4A7001D8C9354F501E0
:102EC00022852D261307E041A947098F63C8A70271
:102ED000AD47898F5505B357F4003314A4002685F8
:102EE000B2075207B1837E05D98FB24033E7A700FE
:102EF000228522449244BA85410182805515B31738
:102F0000A40026850144E9BF01478147E5BF41117F
:102F1000D30705E006C622C426C24AC07327200094
:102F200093D4770193F4F40F13871400139497004C
:102F30001377E70F258013D9F7010DCB13850438DC
:102F40009357340081447604B2075205B183C98F88
:102F50007E0933E727012285BA8599C073A0140042
:102F6000B2402244924402494101828095E829C836
:102F70002285AD2CA94763CFA700AD47898F1307E2
:102F80005501B357F4003314E400130790383305A8
:102F9000A7405DBF930755FFB317F4000144F5B791
:102FA0001DC0B7074000E18F91E3414793573400BC
:102FB000B70608007604D58FBA841305F07F69B789
:102FC0008147014551B781478144C5BF732820001F
:102FD00013D745019378F77F9397C500138718009F
:102FE000A5839356D5011377E77FDD8EFD81931777
:102FF0003500630D0710138608C81307E00F635DE3
:10300000C704630B08148D476319F8006386051421
:10301000FD571306E00F014711A88947E31AF8FE90
:10302000639C05120147FD571306E00F954889463A
:1030300093E818006307D8188D466300D818631802
:10304000080093F6F70011456383A6009107630912
:10305000071093E8280029A2634AC0082557634C4B
:10306000E60A370780007945D98E118D7D47634C7C
:10307000A704138728C833D5A700B397E700B33751
:10308000F000B396E600DD8EB367D50063840712C7
:103090001397170093767700814885C289466308A5
:1030A000D80A8D466300D80A8548631808009376CD
:1030B000F70011466383C60011076D83134717009D
:1030C000058B01462DA879573306C740130300022C
:1030D00033D6C600014763066500138728CA3397B5
:1030E000E600D98FB337F000D18F4DB71A053335CD
:1030F000A0008E06F583C98ED58F0147814893F6CF
:10310000770095F631CF13F7180091B7D58F6396F6
:1031100008000146B1C78547A5BFC9CB9307F07F1B
:103120006390F802B7084000B3F8160193B818008E
:1031300092088E06B7070002D58F1306F00FC1B7AD
:103140008148C5BFAE88B5F921078548BDB7854818
:10315000ADD52107AE8895B781471306F00F954886
:10316000370700047D8F11CB05061307F00F630DA1
:10317000E604370700FC7D17F98F1307F00F8D83E6
:103180006316E60081C7B707400081455E06370732
:10319000807FA607798EA583D18FFE05CD8F6384AE
:1031A000080073A01800538507F082808148130639
:1031B000F00F7DB70146814865B7E39A05E8A1079E
:1031C00079B5E38605E8E5BF8147630E08000D4742
:1031D0006317E80089C9FD571306E00F29A00947C6
:1031E000E31BE8FEEDD993E8580041BFC167637661
:1031F000F5029307F00FB3B7A7008E07376700906B
:10320000930600029D8E3355F500930707223E95E5
:10321000034505003385A640828037070001C1477A
:10322000E36EE5FCE147D9BF011122CE0010232651
:10323000A4FE2324B4FE8327C4FE032784FE98C380
:103240000100724405618280797122D60018272E10
:10325000A4FC9307C4FD2326F4FE8327C4FE232485
:10326000F4FE832784FE9C432322F4FE832744FE3E
:103270003E85325445618280797122D60018232E12
:10328000A4FC9307C4FD2326F4FE8327C4FE232455
:10329000F4FE832784FE9C632722F4FE872744FEE6
:1032A0005385F720325445618280797106D622D445
:1032B0000018272EA4FC272CB4FC232AA4FC0725E5
:1032C000C4FD59372326A4FE0327C4FEB707008098
:1032D00093C7F7FFF98F2326F4FE0327C4FEB70731
:1032E0000032635AF7008727C4FDD39707C081E7F0
:1032F0008727C4FDDDA88727C4FDD3F7F71027244F
:10330000F4FE072784FE8727C4FDD377F710272212
:10331000F4FEB707008007A70700872784FE5377CE
:10332000F710B707008087A747005377F700872774
:1033300084FE5377F710B707008087A7870053777D
:10334000F700872784FE5377F710B707008087A719
:10335000C7005377F700872784FE5377F710B70726
:10336000008087A70701D377F7002720F4FE832783
:1033700044FD95E7072784FE872704FE5377F7105F
:10338000B707008087A747015377F700872744FED8
:103390005377F7108727C4FDD377F700B9A0B70795
:1033A000008007A78701872784FD5377F7108726BA
:1033B00044FE872704FED3F7F6105377F7088727D4
:1033C00084FE5377F710872784FD5377F708B707F4
:1033D000008087A64701872744FED3F7F610D377EE
:1033E000F7080727C4FDD377F7085385F720B250B5
:1033F000225445618280397106DE22DC8000272656
:10340000A4FC2724B4FC0725C4FC3D3D2324A4FED2
:10341000032784FEB707008093C7F7FFF98F2324A3
:10342000F4FE032784FEB7070032635CF7008727AA
:10343000C4FCD39707C091E7B707008087A7C701EF
:10344000B1AA8727C4FCD3F7F7102722F4FEB707E9
:10345000008007A70702872744FE5377F710B707B6
:10346000008087A747025377F700872744FE5377EA
:10347000F710B707008087A787025377F7008727E1
:1034800044FE5377F710B707008087A7C70253772A
:10349000F700872744FE5377F710B707008087A708
:1034A00007035377F700872744FE5377F710B707D2
:1034B000008087A74703D377F700072744FED37719
:1034C000F7102720F4FE032784FEB7A7993E9387C1
:1034D000979963C1E704B707008007A7C70187264C
:1034E00044FEB767009087A7C711D3F6F6100726EA
:1034F00044FE872704FE5376F6108725C4FC8727F1
:1035000084FCD3F7F510D377F608D3F7F608D37712
:10351000F70869A0032784FEB707483F63D9E7008F
:10352000B767009087A707122726F4FE11A8032784
:1035300084FEB70700FFBA973E853D3B2726A4FED1
:10354000072744FEB767009087A7C7115377F71086
:103550008727C4FED377F708272EF4FCB70700802F
:1035600007A7C7018727C4FED377F708272CF4FCE9
:10357000072744FE872704FE5377F7108726C4FCED
:10358000872784FCD3F7F610D377F7080727C4FD05
:10359000D377F708072784FDD377F7085385F720FB
:1035A000F25062542161828061712326111A232412
:1035B000811A001B2326A4E62324B4E62322C4E6B2
:1035C0002320D4E6232EE4E4232CF4E4B767009010
:1035D000138707328327C4E58A07BA979C432320C1
:1035E000F4FC832704FC232EF4FA832704E6FD175A
:1035F000232CF4FA832744E6F51713D7F7411D8BE4
:10360000BA978D872324F4FE832784FE63D40700B2
:10361000232404FE832784FE85078E07032744E6C0
:10362000B307F7402328F4FC032784FE832784FB99
:10363000B307F740232CF4FC032784FB832704FC07
:10364000BA97232AF4FA232E04FCA9A0832784FD29
:1036500063CC0700832784FD8A07032784E5BA9794
:103660009C43D3F707D029A0B707008087A787031B
:103670008327C4FD8A07130704FFBA9727A2F7F22E
:103680008327C4FD8507232EF4FC832784FD85074B
:10369000232CF4FC0327C4FD832744FBE3D8E7FA7B
:1036A000232E04FCB5A8232C04FC232204FCA1A097
:1036B000832784FD8A070327C4E6BA979863032704
:1036C00084FB8327C4FD3E97832784FDB307F7401F
:1036D0008A07130704FFBA9787A747F2D377F71033
:1036E000072744FCD377F7002722F4FC832784FDC7
:1036F0008507232CF4FC032784FD832784FBE3D96F
:10370000E7FA8327C4FD8A07130704FFBA978727C0
:1037100044FC27A2F7E88327C4FD8507232EF4FC89
:103720000327C4FD832704FCE3DFE7F6832704FCBB
:103730002326F4FE232E04FC8327C4FE232CF4FC52
:103740008327C4FE8A07130704FFBA9787A747E8B1
:103750002724F4FCB5A8B707008007A7C70387276D
:1037600084FCD377F710D39707C0D3F707D027226D
:10377000F4FCB707008007A70704872744FCD3772A
:10378000F710072784FCD377F708539707C08327E0
:10379000C4FD8A07930604FFB69723AAE7F683279A
:1037A00084FDFD178A07130704FFBA9787A747E828
:1037B000072744FCD377F7002724F4FC8327C4FDB4
:1037C0008507232EF4FC832784FDFD17232CF4FCAE
:1037D000832784FDE341F0F8032504FD072584FCDD
:1037E000EFC07FE02724A4FC072784FCB767009084
:1037F00087A74712D377F7105385F720EFC07FD301
:103800005307A520B767009087A78712D377F710D3
:10381000072784FCD377F7082724F4FC872784FC48
:10382000D39707C02320F4FE832704FED3F707D0E5
:10383000072784FCD377F7082724F4FC232604FC0D
:10384000832704FD635BF0088327C4FEFD178A0706
:10385000130704FFBA9703A747F7A146832704FD80
:10386000B387F640B357F740232EF4FC032704FE3A
:103870008327C4FDBA972320F4FE8327C4FEFD17D7
:103880008A07130704FFBA9783A647F721478327C0
:1038900004FDB307F7400327C4FD3317F700832760
:1038A000C4FEFD173387E6408A07930604FFB697E8
:1038B00023AAE7F68327C4FEFD178A07130704FF30
:1038C000BA9703A747F79D46832704FDB387F640C1
:1038D000B357F7402326F4FC2DA8832704FD91EF6E
:1038E0008327C4FEFD178A07130704FFBA9783A72F
:1038F00047F79D872326F4FC29A8072784FCB76790
:10390000009087A7C711D387E7A081C789472326DF
:10391000F4FC8327C4FC6353F014832704FE85075B
:103920002320F4FE232204FE232E04FCA5A08327DB
:10393000C4FD8A07130704FFBA9783A747F7232C10
:10394000F4FC832744FE8DE7832784FD9DCF8547C4
:103950002322F4FE13070010832784FD1D8F832785
:10396000C4FD8A07930604FFB69723AAE7F631A899
:103970001307F00F832784FD1D8F8327C4FD8A075B
:10398000930604FFB69723AAE7F68327C4FD8507AD
:10399000232EF4FC0327C4FD8327C4FEE349F7F874
:1039A000832704FD6357F006032704FD854763085A
:1039B000F700032704FD89476308F702A1A88327BE
:1039C000C4FEFD178A07130704FFBA9703A747F73A
:1039D0008327C4FEFD171377F7078A07930604FFB2
:1039E000B69723AAE7F63DA08327C4FEFD178A07F2
:1039F000130704FFBA9703A747F78327C4FEFD17F1
:103A00001377F7038A07930604FFB69723AAE7F60E
:103A100011A001000327C4FC89476311F704B7070D
:103A2000008007A74704872784FCD377F70827245B
:103A3000F4FC832744FE9DC3B707008087A7470493
:103A4000032504FD5385F720EFC0FFB95307A520D8
:103A5000872784FCD3F7E7082724F4FCB707008006
:103A600087A78703072784FCD327F7A0638707145A
:103A7000232C04FC8327C4FEFD17232EF4FC1DA079
:103A80008327C4FD8A07130704FFBA9783A747F764
:103A9000032784FDD98F232CF4FC8327C4FDFD1755
:103AA000232EF4FC0327C4FD832704FCE35AF7FC10
:103AB000832784FD639307108547232AF4FC31A0F4
:103AC000832744FD8507232AF4FC032704FC83276E
:103AD00044FDB307F7408A07130704FFBA9783A78B
:103AE00047F7F9DF8327C4FE8507232EF4FC6DA07A
:103AF000032784FE8327C4FDBA978A07032784E53A
:103B0000BA979843832684FB8327C4FDB697D3775F
:103B100007D08A07130704FFBA9727A2F7F2232CCE
:103B200004FC232204FCA1A0832784FD8A07032729
:103B3000C4E6BA979863032784FB8327C4FD3E97A6
:103B4000832784FDB307F7408A07130704FFBA975A
:103B500087A747F2D377F710072744FCD377F700FE
:103B60002722F4FC832784FD8507232CF4FC0327FC
:103B700084FD832784FBE3D9E7FA8327C4FD8A0702
:103B8000130704FFBA97872744FC27A2F7E8832787
:103B9000C4FD8507232EF4FC0327C4FE832744FDC0
:103BA000BA970327C4FDE3D5E7F40327C4FE8327B0
:103BB00044FDBA972326F4FEB5BE872784FC53073D
:103BC00000F0D3A7E7A0A1C38327C4FEFD172326D7
:103BD000F4FE832704FDE1172328F4FC19A88327AA
:103BE000C4FEFD172326F4FE832704FDE1172328D6
:103BF000F4FC8327C4FE8A07130704FFBA9783A740
:103C000047F7F1DF65A8832704FDB307F0403E8541
:103C1000072584FCEFC03F9D2724A4FCB707008044
:103C200087A70704072784FCD387E7A0A5CFB7079A
:103C3000008007A7C703872784FCD377F710D397A3
:103C400007C0D3F707D02722F4FCB707008007A7E7
:103C50000704872744FCD377F710072784FCD37722
:103C6000F708539707C08327C4FE8A07930604FF0B
:103C7000B69723AAE7F68327C4FE85072326F4FE1A
:103C8000832704FDA1072328F4FC872744FC5397CE
:103C900007C08327C4FE8A07930604FFB69723AAAA
:103CA000E7F629A8872784FC539707C08327C4FE1B
:103CB0008A07930604FFB69723AAE7F6B7070080A2
:103CC00087A74704032504FD5385F720EFC0BF9164
:103CD0002722A4FC8327C4FE232EF4FCB1A0832753
:103CE000C4FD8A07130704FFBA9783A747F753F762
:103CF00007D0872744FCD377F7108327C4FD8A07B2
:103D0000130704FFBA9727A2F7E8B707008087A731
:103D1000C703072744FCD377F7102722F4FC832737
:103D2000C4FDFD17232EF4FC8327C4FDE3D907FA55
:103D30008327C4FE232EF4FC51A8232204FC232A4B
:103D400004FC91A0B76700901387C732832744FD16
:103D50008A07BA9798630327C4FD832744FDBA975F
:103D60008A07130704FFBA9787A747E8D377F710A6
:103D7000072744FCD377F7002722F4FC832744FD70
:103D80008507232AF4FC032744FD8327C4FB63CC67
:103D9000E7000327C4FE8327C4FDB307F7400327CA
:103DA00044FDE3D1E7FA0327C4FE8327C4FDB3072C
:103DB000F7408A07130704FFBA97872744FC27AA0E
:103DC000F7EC8327C4FDFD17232EF4FC8327C4FDE5
:103DD000E3D507F60327C4E58D476301F7140327EE
:103DE000C4E58D4763C2E7308327C4E589CF8327C5
:103DF000C4E563CB072E8327C4E51387F7FF854708
:103E000063E4E72EA9A8232204FC8327C4FE232E03
:103E1000F4FC25A08327C4FD8A07130704FFBA9783
:103E200087A747ED072744FCD377F7002722F4FC48
:103E30008327C4FDFD17232EF4FC8327C4FDE3DB99
:103E400007FC8327C4FC91C7872744FCD397F7203E
:103E500019A0872744FC832784E69CE371A42322CE
:103E600004FC8327C4FE232EF4FC25A08327C4FD75
:103E70008A07130704FFBA9787A747ED072744FC73
:103E8000D377F7002722F4FC8327C4FDFD17232EE8
:103E9000F4FC8327C4FDE3DB07FC8327C4FC91C744
:103EA000872744FCD397F72019A0872744FC832752
:103EB00084E69CE3072744EC872744FCD377F70884
:103EC0002722F4FC8547232EF4FC25A08327C4FD7C
:103ED0008A07130704FFBA9787A747ED072744FC13
:103EE000D377F7002722F4FC8327C4FD8507232E10
:103EF000F4FC0327C4FD8327C4FEE3D9E7FC832732
:103F0000C4FC91C7872744FCD397F72019A08727C3
:103F100044FC832784E691079CE3F9A28327C4FE2F
:103F2000232EF4FC69A08327C4FDFD178A0713071D
:103F300004FFBA9707A747ED8327C4FD8A07130735
:103F400004FFBA9787A747EDD377F7002722F4FC41
:103F50008327C4FD8A07130704FFBA9707A747ED15
:103F60008327C4FDFD178A07130704FFBA9787A6A6
:103F700047ED872744FCD3F7F608D377F70083276C
:103F8000C4FD8A07130704FFBA9727AAF7EC832713
:103F9000C4FDFD178A07130704FFBA97872744FC5F
:103FA00027AAF7EC8327C4FDFD17232EF4FC8327F3
:103FB000C4FDE34AF0F68327C4FE232EF4FC69A077
:103FC0008327C4FDFD178A07130704FFBA9707A7C5
:103FD00047ED8327C4FD8A07130704FFBA9787A715
:103FE00047EDD377F7002722F4FC8327C4FD8A0727
:103FF000130704FFBA9707A747ED8327C4FDFD17F2
:104000008A07130704FFBA9787A647ED872744FC62
:10401000D3F7F608D377F7008327C4FD8A07130781
:1040200004FFBA9727AAF7EC8327C4FDFD178A0778
:10403000130704FFBA97872744FC27AAF7EC8327C6
:10404000C4FDFD17232EF4FC0327C4FD8547E3C9F7
:10405000E7F6232204FC8327C4FE232EF4FC25A0CC
:104060008327C4FD8A07130704FFBA9787A747ED84
:10407000072744FCD377F7002722F4FC8327C4FDED
:10408000FD17232EF4FC0327C4FD8547E3CAE7FC94
:104090008327C4FC9DE3872744EC832784E69CE3C5
:1040A000832784E69107872784EC9CE3832784E6B3
:1040B000A107872744FC9CE305A8872744ECD397F6
:1040C000F720832784E69CE3872784EC832784E614
:1040D0009107D397F7209CE3832784E6A1078727DE
:1040E00044FCD397F7209CE3832704FE9D8B3E85F9
:1040F0008320C11A0324811A5D6182801D7186CEDE
:10410000A2CC80102726A4FA2324A4FA0725C4FAF7
:10411000EFF08F93232CA4FC032784FDB7070080C6
:1041200093C7F7FFF98F232AF4FC032744FDB71741
:10413000493F938787FD63CEE700832784FA87276B
:10414000C4FA9CE3832784FA910723A007008147E0
:1041500035A3032744FDB7D71640938737BE63C8FE
:10416000E716832784FD635BF00AB707008087A703
:1041700087040727C4FAD377F7082726F4FE832796
:1041800044FD13F707FFB717C93F938707FD630F78
:10419000F702B707008087A7C7040727C4FED377B5
:1041A000F708832784FA9CE3832784FA9C63072714
:1041B000C4FE5377F708B707008087A7C704832793
:1041C00084FA9107D377F7089CE3B9A0B70700807A
:1041D00087A707050727C4FED377F7082726F4FE2D
:1041E000B707008087A747050727C4FED377F708DE
:1041F000832784FA9CE3832784FA9C630727C4FE01
:104200005377F708B707008087A74705832784FA05
:104210009107D377F7089CE385478DA1B707008006
:1042200087A787040727C4FAD377F7002726F4FE69
:10423000832744FD13F707FFB717C93F938707FD8F
:10424000630FF702B707008007A7C7048727C4FEDC
:10425000D377F700832784FA9CE3832784FA9C634F
:104260000727C4FE5377F708B707008087A7C7045E
:10427000832784FA9107D377F7009CE3B9A0B707A7
:10428000008087A707050727C4FED377F7002726F6
:10429000F4FEB707008007A747058727C4FED3773A
:1042A000F700832784FA9CE3832784FA9C6307271B
:1042B000C4FE5377F708B707008087A74705832711
:1042C00084FA9107D377F7009CE3FD5745AE0327A7
:1042D00044FDB7174943938707F863C0E72687274C
:1042E000C4FAD3A7F7202724F4FCB707008007A758
:1042F0008705872784FC5377F710B707008087A7C7
:10430000C705D377F700D39707C02326F4FC83278C
:10431000C4FCD3F707D02722F4FCB707008007A717
:104320008704872744FCD377F710072784FCD377CB
:10433000F7082722F4FEB707008087A7C7040727DE
:1043400044FCD377F7102724F4FE0327C4FCFD4771
:1043500063CCE702832744FD93F707F00327C4FCEF
:104360007D17B7660090938686350A0736971843FF
:10437000638CE700072744FE872784FED377F7087E
:10438000832784FA9CE3A9AA832744FDDD872320A1
:10439000F4FC072744FE872784FED377F70883279A
:1043A00084FA9CE3832784FA9C635385F720EFE02B
:1043B000BFE9AA87232EF4FA032704FC8327C4FB52
:1043C000DD8393F7F70FB307F7402320F4FE0327AD
:1043D00004FEA14763D6E710872744FE2724F4FC98
:1043E000B707008087A70705072744FCD377F71096
:1043F0002724F4FE072784FC872784FED377F70859
:104400002722F4FEB707008007A74705872744FC4B
:104410005377F710872684FC872744FED3F6F608E7
:10442000872784FED3F7F608D377F7082724F4FE0E
:10443000072744FE872784FED377F708832784FA6B
:104440009CE3832784FA9C635385F720EFE0DFDF4A
:10445000AA87232EF4FA032704FC8327C4FBDD83F9
:1044600093F7F70FB307F7402320F4FE032704FE6A
:10447000E54763D7E706872744FE2724F4FCB70700
:10448000008087A70706072744FCD377F710272467
:10449000F4FE072784FC872784FED377F7082722BA
:1044A000F4FEB707008007A74706872744FC537729
:1044B000F710872684FC872744FED3F6F608872763
:1044C00084FED3F7F608D377F7082724F4FE0727EE
:1044D00044FE872784FED377F708832784FA9CE37A
:1044E000832784FA9C63072744FE5377F7088327C2
:1044F00084FA9107872784FED377F7089CE3832704
:1045000084FD63D90702832784FA9C63D397F7203D
:10451000832784FA9CE3832784FA91079C6383278B
:1045200084FA9107D397F7209CE38327C4FCB30751
:10453000F040A9A28327C4FC91A2032744FDB7073A
:10454000807F6340F702832784FA91078727C4FAA4
:10455000D3F7F7089CE39C63832784FA9CE38147A5
:1045600031AA832744FDDD879387A7F72328F4FC2E
:10457000832704FDDE07032744FDB307F7403E858C
:10458000EFE09FCF2726A4FE232004FE81A88727E3
:10459000C4FED39707C0D3F707D0832704FE8A074A
:1045A000130704FFBA9727A0F7FC832704FE8A07A6
:1045B000130704FFBA9787A707FC0727C4FE5377A2
:1045C000F708B707008087A78706D377F710272655
:1045D000F4FE832704FE85072320F4FE032704FE50
:1045E0008547E3D6E7FA8727C4FE272CF4FA8D47E0
:1045F000232EF4FC31A08327C4FDFD17232EF4FCE9
:104600008327C4FDFD178A07130704FFBA9707A77E
:1046100007FCB707008087A7C706D327F7A0E1FFED
:10462000130504FBB76700909387873D09478326EE
:10463000C4FD032604FD832584FAEFE0FFF623265C
:10464000A4FC832784FD63D90702832784FA9C6333
:10465000D397F720832784FA9CE3832784FA910772
:104660009C63832784FA9107D397F7209CE38327E1
:10467000C4FCB307F04019A08327C4FC3E85F64074
:10468000664425618280397106DE22DC800027269F
:10469000A4FC232604FE0725C4FCEFE0FFBA232474
:1046A000A4FE032784FEB707008093C7F7FFF98FA6
:1046B0002324F4FE032784FEB717493F938787FD21
:1046C00063CCE70001458725C4FE0725C4FCEFE065
:1046D000DFBDD307A5205DA8032784FEB707807F31
:1046E0006347F7008727C4FCD3F7F70845A0930773
:1046F000C4FD3E850725C4FC11342322A4FE832774
:1047000044FE8D8B09476385E70409476342F7063A
:1047100089C705476381E702A1A88727C4FD07274A
:1047200004FE0545D305E7205385F720EFE0FFB7EA
:10473000D307A520A1A88727C4FD072704FED3051A
:10474000E7205385F720EFE01FCBD307A5203DA836
:104750008727C4FD072704FE0545D305E7205385B9
:10476000F720EFE09FB4D307A520D397F72039A80F
:104770008727C4FD072704FED305E7205385F720CC
:10478000EFE07FC7D307A520D397F7205385F72005
:10479000F250625421618280597186D6A2D4CAD265
:1047A000CED0D2CED6CCDACADEC88018232E04FCF6
:1047B0006DA28327C4FDD3F717D05385F720EFE010
:1047C0000FF52A87AE87B766009003A6061383A667
:1047D00046133A85BE85EFD06FF42A87AE873A85B7
:1047E000BE85EFE0AFFED307A520272CF4FC0725FC
:1047F00084FD513D272AA4FC072744FDB76700909C
:1048000087A78713D377F7102728F4FC872704FDA1
:10481000D39707C02326F4FC0325C4FCB126072543
:1048200084FDEFE0CFEE2A8BAE8B072544FDEFE051
:104830000FEE2A87AE875A86DE868325C4FD37654C
:10484000009013050510EF10A07FF32700B023247C
:10485000F4FC832784FC2320F4FC232204FCF327AC
:1048600000B8232EF4FA8327C4FB2328F4FA232A62
:1048700004FA832704FB939907000149032604FCEB
:10488000832644FC33072601BA85B3B5C500B38738
:104890003601B386F500B6872324E4FA2326F4FA1A
:1048A000F32700B02322F4FA832744FA2320F4FCF0
:1048B000232204FCF32700B82320F4FA832704FA08
:1048C0002328F4FA232A04FA832704FB939A070087
:1048D000014A032604FC832644FC33074601BA85BB
:1048E000B3B5C500B3875601B386F500B687232C50
:1048F000E4F8232EF4F8032784FA8327C4FA3775E3
:1049000019001305A5E681453306A7003288333820
:10491000E800B386B700B307D800BE863287B687F3
:104920008326C4F93E8663ECC6008326C4F93E861E
:10493000639FC600832684F9BA8763FAF600B7E757
:10494000ADDE9385D7EA7155EFE01F8E91BF010070
:104950008327C4FD8507232EF4FC0327C4FD93079A
:104960007016E3F8E7E499B5011122CE0010232672
:10497000A4FE2324B4FE8327C4FE032784FE98C329
:104980000100724405618280011122CE00102326AD
:10499000A4FE8327C4FE9C433E8572440561828049
:1049A000411106C622C400088145370500A06D3FAD
:1049B0008145B70700A0138547007D378145B707BC
:1049C00000A0138587004D37FD55B70700A013855C
:1049D0000701593FB70700049385F7FFB70700A009
:1049E0001385470151378145B70700A0138587011B
:1049F000A53F0145E52E014531200100B24022448A
:104A000041018280797106D622D40018232EA4FC9D
:104A10008327C4FD93F7F70FBD8BA307F4FE83270D
:104A2000C4FD918393F7F70FBD8B2307F4FE832713
:104A3000C4FDA18393F7F70FBD8BA306F4FE832774
:104A4000C4FDB18393F7F70FBD8B2306F4FE8327D4
:104A5000C4FDC18393F7F70FBD8BA305F4FE832735
:104A6000C4FDD18393F7F70FBD8B2305F4FE834775
:104A7000F4FE376700901307076FBA9783C70700E4
:104A8000A307F4FE8347E4FE376700901307076F20
:104A9000BA9783C707002307F4FE8347D4FE37671E
:104AA00000901307076FBA9783C70700A306F4FEA9
:104AB0008347C4FE376700901307076FBA9783C711
:104AC00007002306F4FE8347B4FE37670090130700
:104AD000076FBA9783C70700A305F4FE8347A4FEB8
:104AE000376700901307076FBA9783C7070023053E
:104AF000F4FE8347C4FE139787018347D4FEC207A1
:104B00005D8F8347E4FEA2075D8F8347F4FED98F54
:104B10002322F4FE832544FE370500A0B135B707F4
:104B200000A0138547008D352322A4FE032744FEF1
:104B3000C177F98F2322F4FE8347A4FEA2073E87A4
:104B4000832744FE5D8F8347B4FED98F2322F4FE72
:104B5000832544FEB70700A01385470031350100C7
:104B6000B2502254456182805D7186C6A2C480081D
:104B7000232EA4FA8327C4FB63C507009307F00F15
:104B800019A09307F00BA307F4FE8327C4FB13D7E8
:104B9000F7418327C4FBB98F998F2324F4FE0327A1
:104BA00084FE8967938707713357F702A947B37764
:104BB000F7022322F4FE032784FE9307803E335737
:104BC000F702A947B377F7022320F4FE032784FEF8
:104BD000930740063357F702A947B377F702232E0E
:104BE000F4FC032784FEA9473357F702A947B3779C
:104BF000F702232CF4FC032784FEA947B377F702BE
:104C0000232AF4FC832744FE13974700832704FEDE
:104C1000BA97139747008327C4FDBA9713974700A5
:104C2000832784FDBA979207032744FDBA97232868
:104C3000F4FC832704FDC18393F7F70FBD8BA30713
:104C4000F4FC832704FDB18393F7F70FBD8B230793
:104C5000F4FC832704FDA18393F7F70FBD8BA30614
:104C6000F4FC832704FD918393F7F70FBD8B230694
:104C7000F4FC832704FD93F7F70FBD8BA305F4FC29
:104C80008347F4FC93B7170093F7F70F2322F4FC44
:104C9000832744FC99EB8347F4FC376700901307A4
:104CA000076FBA9783C7070019A09307F00FA307F0
:104CB000F4FC8347E4FC93B7170093F7F70F3E87A4
:104CC000832744FCF98F2322F4FC832744FC99EBCF
:104CD0008347E4FC376700901307076FBA9783C7D1
:104CE000070019A09307F00F2307F4FC8347D4FCB7
:104CF00093B7170093F7F70F3E87832744FCF98F8C
:104D00002322F4FC832744FC99EB8347D4FC3767C8
:104D100000901307076FBA9783C7070019A093077E
:104D2000F00FA306F4FC8347C4FC93B7170093F776
:104D3000F70F3E87832744FCF98F2322F4FC832757
:104D400044FC99EB8347C4FC376700901307076F57
:104D5000BA9783C7070019A09307F00F2306F4FC46
:104D60008347B4FC376700901307076FBA9783C770
:104D70000700A305F4FC8347E4FC139787018347EE
:104D8000D4FCC2075D8F8347C4FCA2075D8F8347B5
:104D9000B4FCD98F2320F4FC832504FC370500A044
:104DA000E136B70700A013854700F93E2320A4FC95
:104DB000032704FCC177F98F2320F4FC8347F4FE1A
:104DC000A2073E87832704FC5D8F8347F4FCD98FBD
:104DD0002320F4FC832504FCB70700A013854700BB
:104DE00061360100B640264461618280797106D641
:104DF00022D40018232EA4FC8327C4FD93F7F73F89
:104E0000232EF4FCB70700A013854700B53E2326E8
:104E1000A4FE0327C4FEB70701FCFD17F98F232664
:104E2000F4FE8327C4FDC2070327C4FED98F2326BF
:104E3000F4FE8325C4FEB70700A0138547002D3676
:104E40000100B250225445618280011106CE22CC6D
:104E50000010B70700A0138587003D362326A4FE67
:104E60008327C4FE93C7F7FFA983858B2326F4FE0F
:104E70008327C4FE3E85F2406244056182800111B1
:104E800006CE22CC0010B70700A013858700ED3CAA
:104E90002326A4FE8327C4FE93F7F73F2326F4FEC0
:104EA0008327C4FE3E85F240624405618280011181
:104EB00022CE00102326A4FE2324B4FE8327C4FEA2
:104EC000032784FE98C301007244056182800111AA
:104ED00022CE00102326A4FE8327C4FE9C433E85D9
:104EE000724405618280011106CE22CC00108547F4
:104EF000739087BF8147739007BF8547739047BF03
:104F00008547739027BFF32740302326F4FE83277D
:104F1000C4FE93E7070873904730F327003023243B
:104F2000F4FE832784FE93E7870073900730A5453E
:104F3000B7070049138547009D3F8145B7070049E2
:104F400013858700AD378145B70700491385C70032
:104F5000B93FB7170300938507D4B70700491385F6
:104F60000701B1378145B7070049138547018137EC
:104F7000954537050049253F0100F240624405612F
:104F80008280411106C622C426C20008B7070080ED
:104F900083A747083E85993D4D3DAA8789EFC535D2
:104FA0002A87B707008083A747083E97B707008086
:104FB00023A2E70829A8B707008083A44708C135C2
:104FC000AA873387F440B707008023A2E708370594
:104FD0000049F53DAA87BE8537050049C93D010056
:104FE000B2402244924441018280011106CE22CC7B
:104FF0000010F32760BF2326F4FE8327C4FE23247A
:10500000F4FE832784FE858B89C7592885477390D2
:1050100067BF0100F240624405618280011122CE27
:105020000010F32710302326F4FE8327C4FE232428
:10503000F4FE832784FE93F7070291C7B757FE005B
:105040009387B70229A0B7373101938707D023226E
:10505000F4FE832744FE3E8572440561828001117F
:1050600022CE00102326A4FEAE87A305F4FE8327DC
:10507000C4FE0347B4FE2380E700010072440561CB
:105080008280011122CE00102326A4FE8327C4FEB5
:1050900083C7070093F7F70F3E857244056182804E
:1050A000011106CE22CC0010B707008003A78708A5
:1050B000B707008023A6E708B707008003A7070902
:1050C000B707008023A4E7081D22AA873E87B707F9
:1050D000008023A8E708B707008083A7C7081397B5
:1050E0000701B707008083A78708A2073E97B70785
:1050F000008083A70709BA972326F4FE0325C4FE80
:10510000EFF05F90B707008083A7070993F7F70FC9
:105110003E855D20B707008003A70709B5476314E4
:10512000F700294551280100F24062440561828060
:10513000011106CE22CC0010D5352326A4FE03276C
:10514000C4FEB7373101938707D0631FF700954539
:10515000B70700B01385270019379945B70700B086
:1051600013853700ED3D29A89145B70700B0138599
:105170002700F5359945B70700B013853700C535C9
:1051800093050004B70700B013851700C93DB707A2
:105190000080375700901307871B23AAE708B7073B
:1051A0000080375700901307E71E23AEE708010081
:1051B000F240624405618280011106CE22CC0010CB
:1051C000AA87A307F4FE0100B70700B013851700F4
:1051D0004D3DAA87898BEDDB8347F4FEBE853705FD
:1051E00000B0B53D0100F24062440561828041118A
:1051F00006C622C400080100B70700B013851700D7
:105200004935AA87858BEDDB370500B09D3DAA8720
:105210003E85B240224441018280797106D622D473
:105220000018232CA4FC232EB4FC232604FEBDA8C6
:10523000B767009003A6871783A6C717032584FDC9
:105240008325C4FDEFC0DFB7AA8763CA0702B7672B
:10525000009003A6871783A6C717032584FD83251F
:10526000C4FDEFC02FC32A87AE87232CE4FC232E76
:10527000F4FC8327C4FE95072326F4FE05A8B76730
:10528000009003A6071883A64718032584FD8325ED
:10529000C4FDEFC02FC02A87AE87232CE4FC232E49
:1052A000F4FC8327C4FE85072326F4FEB76700902D
:1052B00003A6071883A64718032584FD8325C4FD8C
:1052C000EFC01FB0AA87E3D507F6BDA8B767009067
:1052D00003A6871883A6C718032584FD8325C4FD6C
:1052E000EFC0FFB8AA8763DA0702B767009003A68A
:1052F000871783A6C717032584FD8325C4FDEFC048
:10530000FFC12A87AE87232CE4FC232EF4FC8327DD
:10531000C4FEED172326F4FE05A8B767009003A688
:10532000071883A64718032584FD8325C4FDEFC015
:10533000FFBE2A87AE87232CE4FC232EF4FC8327B0
:10534000C4FEFD172326F4FEB767009003A60719D5
:1053500083A64719032584FD8325C4FDEFC03FB113
:10536000AA87E3C507F68327C4FE3E85B2502254C0
:1053700045618280797106D622D40018232EA4FCC0
:10538000B767009003A7071983A747192324E4FEF2
:105390002326F4FEADA00327C4FD914763DAE7029C
:1053A000B767009003A6871783A6C717032584FE57
:1053B0008325C4FEEFC09FB62A87AE872324E4FE70
:1053C0002326F4FE8327C4FDED17232EF4FC05A845
:1053D000B767009003A6071883A64718032584FE25
:1053E0008325C4FEEFC09FB32A87AE872324E4FE43
:1053F0002326F4FE8327C4FDFD17232EF4FC832708
:10540000C4FDE34AF0F8ADA00327C4FDF157635A89
:10541000F702B767009003A6871783A6C71703256F
:1054200084FE8325C4FEEFC0EFA62A87AE8723241F
:10543000E4FE2326F4FE8327C4FD9507232EF4FC07
:1054400005A8B767009003A6071883A64718032589
:1054500084FE8325C4FEEFC0EFA32A87AE872324F2
:10546000E4FE2326F4FE8327C4FD8507232EF4FCE7
:105470008327C4FDE3CA07F8032784FE8327C4FEFD
:105480003A85BE85B2502254456182801D7186CE18
:10549000A2CCA6CACAC8CEC68010232EA4FA23283E
:1054A000B4FA232AC4FA232CD4FABA87A307F4FA4D
:1054B000232E04FC232C04FCA30B04FC232804FC53
:1054C000032604FB832644FB032504FB832544FBBE
:1054D000EFD0BF89AA8781CBB76700909387071465
:1054E0002328F4FC65AE832784FB63D50700994726
:1054F000232CF4FA01468146032504FB832544FB53
:10550000EFC0FF96AA8763D20702832704FB2328F4
:10551000F4FA032744FBB7070080B98F232AF4FA73
:105520009307D002A30BF4FC29A09307B002A30BAE
:10553000F4FC032904FB032744FBB707008093C74F
:10554000F7FFB379F7008544B767009003A6871982
:1055500083A6C7194A85CE85EFD03F81AA8799EFE8
:10556000B767009003A6871983A6C7194A85CE8519
:10557000EFC0FF8FAA876353F000814493F7F40FC5
:1055800093C7170093F7F70F81CBB7670090938706
:1055900047142328F4FCA9AA0307F4FA930760062A
:1055A0006310F708832784FBB307F0403E85D933A7
:1055B0002A87AE87B766009003A6061A83A6461A06
:1055C0003A85BE85EFC00F8D2A87AE873A86BE86A4
:1055D000032504FB832544FBEFB03F812A87AE8778
:1055E0002328E4FA232AF4FA032504FB832544FB49
:1055F0002D31232CA4FC832784FD63D40700232CA6
:1056000004FC032784FD832784FB3E97F14763D185
:10561000E70EB7670090938787142328F4FCC9A886
:1056200001468146032504FB832544FBEFC00FEFB1
:10563000AA87DDCF032504FB832544FBF93E2A8797
:10564000832784FBB307F7403E852D332A87AE8737
:10565000B766009003A6061A83A6461A3A85BE8549
:10566000EFC04F832A87AE873A86BE86032504FBA8
:10567000832544FBEFB06FF72A87AE872328E4FA2F
:10568000232AF4FA032504FB832544FB7936232ED1
:10569000A4FC0327C4FD9307300663C7E700032774
:1056A00084FBE54763D9E700B767009093878714C9
:1056B0002328F4FC35A80327C4FD9307D0F96356CB
:1056C000F7009307D0F9232EF4FC0325C4FD5D31C8
:1056D0002A87AE873A86BE86032504FB832544FBD2
:1056E000EFB05FFB2A87AE872328E4FA232AF4FA77
:1056F000832704FD6394071A030774FD9307D00200
:10570000631CF7008327C4FB13871700232EE4FADA
:10571000034774FD2380E700032584FDA13923247A
:10572000A4FC2326B4FC032684FC8326C4FC0325A6
:1057300004FB832544FBEFB0FFF52A87AE873A854B
:10574000BE85EFD02FEAAA872322F4FC032544FC70
:10575000EFD08FF52A87AE87032684FC8326C4FC0E
:105760003A85BE85EFC08FFB2A87AE873A86BE8614
:10577000032504FB832544FBEFC0FFD32A87AE87B4
:105780002328E4FA232AF4FA032784FDFD57631C37
:10579000F7008327C4FB13871700232EE4FA1307AF
:1057A000E0022380E700832744FC93F7F70F9387F9
:1057B000070393F6F70F8327C4FB13871700232EE5
:1057C000E4FA1397860161872380E700832784FD2D
:1057D000FD17232CF4FC832784FBB307F040032739
:1057E00084FDE35BF7F20307F4FA930760066307AF
:1057F000F70A8327C4FB13871700232EE4FA034715
:10580000F4FA2380E7008327C4FD63D307028327CC
:10581000C4FDB307F040232EF4FC8327C4FB138799
:105820001700232EE4FA1307D0022380E70019A8FB
:105830008327C4FB13871700232EE4FA1307B00253
:105840002380E7000327C4FDA947B347F70293F776
:10585000F70F9387070393F6F70F8327C4FB13878C
:105860001700232EE4FA1397860161872380E7004F
:105870000327C4FDA947B367F70293F7F70F938790
:10588000070393F6F70F8327C4FB13871700232E14
:10589000E4FA1397860161872380E700832704FDDC
:1058A000B9C3830774FD99CB8327C4FB1387170003
:1058B000232EE4FA034774FD2380E700032704FD49
:1058C000930717002328F4FC8327C4FB9386170053
:1058D000232ED4FA030707002380E700832704FD63
:1058E00083870700E1FF8327C4FB238007000100B3
:1058F000F6406644D6444649B64925618280011186
:1059000006CE22CC00102326A4FE2324B4FE0327B7
:1059100084FEA9476316F700B5450325C4FEC537C5
:105920008327C4FE99C78327C4FE032584FE82977C
:1059300035A0B707008083A787098DC3B70700800C
:1059400083A787099386170037070080232CD70881
:10595000032784FE620761872380E7000100F2408D
:10596000624405618280357106CF22CD4ACB4EC993
:1059700052C756C55AC35EC1E2DEE6DC00112326DB
:10598000A4F62324B4F62322C4F6832784F61387CF
:1059900017002324E4F683C70700A309F4FA83075A
:1059A00034FB638F0766030734FB930750026309D8
:1059B000F700830734FBBE850325C4F6893785A528
:1059C000232004FC832704FC232EF4FA930700020F
:1059D000A305F4FAFD57232AF4FA832784F61387E4
:1059E00017002324E4F683C70700A309F4FA03078A
:1059F00034FB930700036311F70293070003A30529
:105A0000F4FA832784F6138717002324E4F683C768
:105A10000700A309F4FA25A0030734FB9307D0027B
:105A2000631FF7008947232EF4FA832784F6138730
:105A300017002324E4F683C70700A309F4FA030739
:105A400034FB9307A002631FF706832744F61387EE
:105A500047002322E4F69C43232CF4FA832784FB9B
:105A600063DB0700832784FBB307F040232CF4FAA1
:105A70008947232EF4FA832784FB2320F4FC832711
:105A800084F6138717002324E4F683C70700A309CD
:105A9000F4FAA9A0032704FCBA878A07BA978607F5
:105AA0003E87830734FBBA97938707FD2320F4FCD6
:105AB000832784F6138717002324E4F683C707009F
:105AC000A309F4FA030734FB9307F00263D8E70055
:105AD000030734FB93079003E3DEE7FA030734FB85
