:0200000490006A
:100000006F0000306F00C01F6F00C01F6F00801FA7
:100010006F4040376F00001F6F00C01E6F00801ED2
:100020006F4020266F00001E6F00C01D6F00801DF6
:100030006F40801A6F00001D6F00C01C6F00801C95
:100040006F00401C6F40E03E6F40A03E6F40603E3E
:100050006F40203E6F40E03D6F40A03D6F40603DEF
:100060006F40203D6F40E03C6F40A03C6F40603CE3
:100070006F40203C6F40E03B6F40A03B6F40603BD7
:100080006F40203B6F40E03A6F40A03A6F40603ACB
:100090006F40203A6F40E0396F40A0396F406039BF
:1000A0006F4020396F40E0386F40A0386F406038B3
:1000B0006F4020386F40E0376F40A0376F406037A7
:1000C0006F4020376F40E0366F40A0366F4060369B
:1000D0006F4020366F40E0356F40A0356F4060358F
:1000E0006F4020356F40E0346F40A0346F40603483
:1000F0006F4020346F40E0336F40A0336F40603377
:100100006F4020336F40E0326F40A0326F4060326A
:100110006F4020326F40E0316F40A0316F4060315E
:100120006F4020316F40E0306F40A0306F40603052
:100130006F4020306F40E02F6F40A02F6F40602F46
:080140006F40202F00000000B9
:10015000000000000000000000000000000000009F
:10016000000000000000000000000000000000008F
:10017000000000000000000000000000000000007F
:10018000000000000000000000000000000000006F
:10019000000000000000000000000000000000005F
:1001A000000000000000000000000000000000004F
:1001B000000000000000000000000000000000003F
:1001C000000000000000000000000000000000002F
:1001D000000000000000000000000000000000001F
:1001E000000000000000000000000000000000000F
:1001F00000000000000000000000000000000000FF
:0A0200007300203001A00000000090
:10020A0000000000000000000000000000000000E4
:10021A0000000000000000000000000000000000D4
:10022A0000000000000000000000000000000000C4
:10023A0000000000000000000000000000000000B4
:10024A0000000000000000000000000000000000A4
:10025A000000000000000000000000000000000094
:10026A000000000000000000000000000000000084
:10027A000000000000000000000000000000000074
:10028A000000000000000000000000000000000064
:10029A000000000000000000000000000000000054
:1002AA000000000000000000000000000000000044
:1002BA000000000000000000000000000000000034
:1002CA000000000000000000000000000000000024
:1002DA000000000000000000000000000000000014
:1002EA000000000000000000000000000000000004
:1002FA00000000000000970100F89381015017C127
:10030A0000F8130181CF177500001305459797056B
:10031A0000F8938585CE170600F81306C6D663FA49
:10032A00C5008322050023A0550011059105E3EAC3
:10033A00C5FE170500F8130505D5970500F893853E
:10034A00C5D56377B500232005001105E36DB5FE19
:10035A00970200009382A2CA93E21200739052306D
:10036A0059297155B7E2ADDE9382D2EA23205500AE
:06037A00F5BF00000000C9
:100800002D71232E1110232C81100012EF209062E5
:10081000EF30907AEF30C0369307F00F739007BE39
:10082000EF20D050232604EE8327C4EE850723262D
:10083000F4EE8327C4EE89072326F4EE8327C4EE63
:100840008D072326F4EECDB7AA882E8332872A8817
:10085000AE8763960620B76500909385456D6371FA
:10086000C30CC1666377D60A9336061093C616008A
:100870008E063355D600AA9583C5050013050002E0
:10088000AE96B305D540630BD500B317B300B3D60E
:10089000D8003317B600D58F3398B80093550701A9
:1008A00033D3B702131607014182B3F7B7021A8593
:1008B000B30866029396070193570801D58F63FC2E
:1008C0001701BA971305F3FF63E7E70063F5170114
:1008D0001305E3FFBA97B3871741B3D8B7024208AD
:1008E00013580801B3F7B702B3061603C2073368FB
:1008F000F800C687637BD8003A989387F8FF636651
:10090000E8006374D8009387E8FF42055D8D814558
:10091000828037050001C146E36DA6F4E14691BF30
:10092000814609CAC167637FF6089336061093C6ED
:1009300016008E06B357D600BE9583C70500B6973E
:1009400093060002B385F6406395F608B307C340EB
:1009500085459358070133DE1703131607014182BB
:1009600093560801B3F7170372853303C603C20712
:10097000D58F63FC6700BA971305FEFF63E7E700B6
:1009800063F567001305EEFFBA97B387674033D36B
:100990001703420813580801B3F71703B30666029A
:1009A000C2073368F8009A87637BD8003A989307A8
:1009B000F3FF6366E8006374D8009307E3FF420522
:1009C0005D8D8280B7070001C146E365F6F6E1461A
:1009D00095B73317B600B356F30013550701331319
:1009E000B300B3D7F800B3E7670033D3A6021316FA
:1009F000070141823398B800B3F6A602B308660235
:100A00009395060193D60701CD8E9A8563FC160156
:100A1000BA969305F3FF63E7E60063F516019305C5
:100A2000E3FFBA96B3861641B3D8A602C207C183C4
:100A3000B3F6A60233061603C206D58FC68663FC3C
:100A4000C700BA979386F8FF63E7E70063F5C7002E
:100A50009386E8FFBA97C205918FD58DDDBD63E11E
:100A6000D514C16763FFF60213B7061013471700CA
:100A70000E07B7670090B3D5E6009387476DAE9732
:100A800083C70700BA9713070002B305F740631145
:100A9000F7020545E3EE66E633B5C80013451500D9
:100AA0008280B70700014147E3E5F6FC6147D1B713
:100AB0003357F600B396B600D98E3357F30033138D
:100AC000B300B3D7F800B3E7670013D30601B35EF2
:100AD000670213980601135808013316B6003377DE
:100AE0006702330ED8031315070113D70701498F87
:100AF0007685637CC70136971385FEFF6367D70051
:100B00006375C7011385EEFF36973307C741335E20
:100B10006702C207C183337767023308C8034207FD
:100B2000D98F728763FC0701B6971307FEFF63E74F
:100B3000D70063F507011307EEFFB6974205416E34
:100B4000598D9306FEFF3377D500B3870741F18EA9
:100B50001358050141823303D702B306D802330785
:100B6000C7023308C8023306D70013570301329770
:100B70006373D700729893560701C29663E0D70259
:100B8000E397D7D8C167FD177D8F42073373F30012
:100B9000B398B8001A978145E3FCE8D67D1585BB6C
:100BA0008145014582803288AA872E876393061A81
:100BB000B76800909388486D63F6C50AC166637C88
:100BC000D6089336061093C616008E063353D60009
:100BD0009A9883C8080013030002C696B308D3404E
:100BE000630BD30033971501B356D50033181601A4
:100BF000558FB317150113560801B356C7021315C5
:100C0000080141813377C702B386A6029315070115
:100C100013D707014D8F6378D700429763650701AB
:100C20006373D7004297158FB356C7023377C70255
:100C3000B386A602C2074207C183D98F63F8D700E3
:100C4000C29763E5070163F3D700C297958F33D549
:100C500017018145828037030001C146E36866F6CB
:100C6000E146ADB7814609CA41676374E60693362B
:100C7000061093C616008E063357D600BA9803C7DF
:100C80000800369793060002B388E640639AE604AC
:100C90003387C540935508013356B7021315080131
:100CA000418193D607013377B7023306A602420784
:100CB000558F6378C7004297636507016373C70068
:100CC0004297118FB356B7023377B702B386A602A5
:100CD00095B737070001C146E360E6FAE14669BF10
:100CE00033181601B3D6E500B3171501B3951501F6
:100CF0003357E500135508014D8FB3D5A6021313E2
:100D0000080113530301B3F6A602B38565021396D7
:100D1000060193560701D18E63F8B600C29663E5CB
:100D2000060163F3B600C2968D8E33D6A602420743
:100D30004183B3F6A60233066602C206558F637876
:100D4000C7004297636507016373C7004297118F1D
:100D500091B763EDD516416863F7060513B8061021
:100D6000134818000E08B768009033D30601938823
:100D7000486D9A9883C8080013030002C29833088C
:100D800013416319130363E4B600636BC5003306B4
:100D9000C540B386D5403337C500B2873387E640B8
:100DA0003E85BA858280B70800014148E3ED16FB15
:100DB000614855BFB3571601B3960601DD8E33D790
:100DC000150113DE0601335FC703139306011353A6
:100DD0000301B3970501B3551501DD8D93D70501C7
:100DE00033160601331505013377C703B30EE3034A
:100DF0004207D98F7A8763FCD701B6971307FFFFA5
:100E000063E7D70063F5D7011307EFFFB697B38702
:100E1000D741B3DEC703C205C181B3F7C703768EDE
:100E20003303D303C207DD8D63FC6500B695138ED3
:100E3000FEFF63E7D50063F56500138EEEFFB69500
:100E400093170701416FB3E7C701B38565401303EB
:100E5000FFFF33F76700135E0601C183337366003B
:100E6000B30E6702338367023307C703B387C70331
:100E7000330E670013D70E01729763736700FA97FA
:100E8000135307019A9741637D1333776700420735
:100E9000B3FE6E00769763E6F500639BF500637919
:100EA000E5003306C7403333C7009A963287958FE3
:100EB0003307E5403335E5009D8D898DB3981501E5
:100EC0003357070133E5E800B3D5050182800111EE
:100ED00006CE22CC26CA4AC84EC652C4F3292000E8
:100EE000B7071000FD1733F7B70013D445010E07FD
:100EF0001358D501F58F93D846011374F47F93D41A
:100F0000F5013368E80093F8F87F1357D6018E0790
:100F1000FD820E055D8F0E06B30514416395D4382E
:100F2000AE866351B01463930808B367C70091EBB2
:100F30009307F07F638FF50442872A868147AE8846
:100F400039A89387F5FFB1E32A9642973335A60077
:100F50002A97B7068000F98E63900632854893760B
:100F600076003A8832856381067C8146094793E79B
:100F700017006395E92C6383042E1307850033362D
:100F8000A70032983A856F0030029306F07F639095
:100F9000D50AB365A800E38605069357680193C791
:100FA0001700858B920742872A86DDA09307F07F82
:100FB0006319F400B365A800EDF101489308F07FD0
:100FC000CDA19307800363C8B706B70780005D8F84
:100FD000AE87FD4663C4F606930500029D8DB316E9
:100FE000B700B358F600B315B600B3E61601B33533
:100FF000B000CD8EB357F7003386A600C297B33644
:10100000D6003387D700A288B7078000F98F63899D
:10101000072085089307F07F6391F82663810928EC
:101020008D47639AF926638C0426814619A493069A
:101030008003E3D0F6FA814785467DBF938607FE9D
:1010400093080002B356D7008145638717019305C3
:1010500000049D8DB315B700D18DB335B000CD8E92
:10106000814759BFE1C9B386884029E4B367A80026
:101070009DE39307F07FB6886394F61AB365C700C3
:10108000638505789357670193C71700858B92078F
:101090009308F07FE9B59387F6FFE38707EA9305A6
:1010A000F07FE38DB6FC9306800363D7F602814799
:1010B0008546B1A09307F07F6397F800B365C7003A
:1010C000FDE90148F9AE93078003E3C2D7FEB707F5
:1010D00080003368F800B687FD4663C9F6029305C1
:1010E00000029D8DB316B8003353F500B315B5005B
:1010F000B3E66600B335B000CD8EB357F800369630
:10110000BA97B336D6003387D700FDBD938607FE66
:1011100013030002B356D800814563876700930527
:1011200000049D8DB315B800C98DB335B000CD8EC8
:101130008147F1B79305140093F7E57FF9E3B365B1
:10114000A80015E863800556B366C7006381064AA8
:101150002A96B336A60042973308D7003707800097
:101160003377E800328563040748370780FF7D172F
:101170003377E800E5B39306F07F6315D40281E589
:10118000E39888F025BFB7064000B376D8003363F4
:10119000C70063830668639E880463150302428761
:1011A0002A8675BB01446393D804B366C70095E2F1
:1011B000FDF5014811AD9357670193C71700858B63
:1011C000920771BBB7074000F98F95CB014439A056
:1011D0004144B7074000F98F89CB91C98144370852
:1011E000400081459308F07FC5A3414481E5A28773
:1011F00045B50144518F7DF342872A86CDBF4144D6
:10120000D5BF9307F07F638FF5002A963335A6008C
:1012100042972A979317F70105825D8E0583AE8862
:10122000814735BB638C095C8D47639CF9026387FA
:10123000045C7D587D559308E07F95470D47638496
:10124000E956639D09001377F50011466308C7004E
:10125000130745003336A70032983A856392064655
:10126000E1A189476394F900639A04587D587D553C
:101270009308E07F95474DA98948B70780FFFD1780
:10128000F98F13571600058A518F1396F701598E5F
:1012900013D7170071B78947E39AF9FCE1D80148E1
:1012A0008145154415A36358B00C639D0802B367CC
:1012B000C700E38F07C69387F5FF91EB3306C54060
:1012C0003307E8403335C500098F8548ADA0930644
:1012D000F07FE380D5CC9306800363D1F60281478B
:1012E000854681A09307F07FE306F4CC9307800343
:1012F000E3C7B7FEB70780005D8FAE87FD4663C8C2
:10130000F604930500029D8DB316B700B358F6009E
:10131000B315B600B3E61601B335B000CD8EB357A2
:10132000F700B306D540B307F8403337D50036860B
:101330003387E740A28837098000B3772701E3812C
:1013400007EE7D1933792701328A468491AC938662
:1013500007FE93080002B356D70081456387170143
:10136000930500049D8DB315B700D18DB335B00042
:10137000CD8E81477DB763810510B385884031EC00
:10138000B367A8009DE39307F07F639AF530B365D8
:10139000C700638B05469357670193C71700858B7A
:1013A00092079308F07FB6845DBE9387F5FF99EBB3
:1013B0003305A640B337A600330707412A861D8FA1
:1013C000B68421B71303F07FE38365FC93058003A4
:1013D00063DDF50281478545B1A89307F07F639DE2
:1013E000F800B365C700638405429357670193C74C
:1013F0001700858B920745BF93078003E3CCB7FCAA
:10140000B70780003368F800AE87FD4563CFF5026B
:10141000130300023303F340B3156800335EF50095
:1014200033136500B3E5C50133336000B3E56500F0
:10143000B357F800B305B6403335B600B307F740ED
:101440002E863387A740B684FDB5938507FE130E1D
:101450000002B355B80001436388C70113030004B9
:101460003303F340331368003363A3003333600066
:10147000B3E5650081477DBF9307140093F7E77FCD
:10148000EDEB3363A800B365C70031EC631D0300C7
:10149000639D05209384E9FF93B4140001488145BE
:1014A0008148014415A663840514B305C540B338CB
:1014B000B500B307E840B3871741B7088000B3F819
:1014C0001701638C08003305A64033070741333604
:1014D000A6003308C740B68419AA33E7F5005DDBE0
:1014E0003E882E8529A2130EF07F631DC403631A64
:1014F0000300639C880695ED814437084000414411
:10150000E1A4B7064000B376D8006380063263904A
:101510008806E38A05A8B7074000F98FE39807CA51
:10152000414439AE01446397C80399E9E31D03A61A
:10153000E1B737054000798DE31705E6414429A856
:10154000370E4000337EC70163050E00E31003C869
:1015500099BD41446316032EB684E39A05C88144BD
:10156000370840009308F07F59BF0144F5B70144A4
:10157000C1ACB307C540B335F5003309E8403309C2
:10158000B940B7058000B375B9003E8ADDC5330A9E
:10159000A64033090741333646013309C940B684B2
:1015A0006301090A4A85EF10B072930785FF13079C
:1015B00000021D8F3319F9003357EA003367270102
:1015C0003319FA0063C5870C818F138817009307BE
:1015D0000002B38707413315F700B3560901B3176B
:1015E000F900558DB337F0005D8D33580701B367AF
:1015F0000501E38507EA9357F501131718003E9795
:101600009317150013F6770093767500630706109D
:1016100009466387C90C0D46638CC9086397090E98
:1016200013F6F700914593B7C7FF6310B60AB707E3
:1016300000017D8F55C38547B1A2B3E72701ADF304
:1016400091BD5285EF10D06893078501FD46E3D028
:10165000F6F6130785FF3317EA0063CA8702818F06
:1016600013881700E3D506F7851793060002B357D2
:10167000F70001456308D800130500043305054150
:101680003315A7003335A0005D8D01488DB7B30831
:10169000F440B70780FFFD177D8F4A8651B6AE88AC
:1016A000B684BDBE3A88328599B73A88328525B569
:1016B00099C8B70700017D8F69E7F9EEA6878148D1
:1016C00093E7270095A093B787FF93C71700BA97B2
:1016D00037070001F98FA5F38148F9E28547CDB7B7
:1016E00099E4B70700017D8F39F78148C5BF93B7EB
:1016F00087FF93C71700BA9737070001F98FD1E327
:10170000D5DEA686A6878148BDB0B70700017D8FCC
:101710001DF3E1DE8546814869A0B70700017D8F92
:101720002DE7B5E681488147370780003377E80029
:101730006DC385081307F07F638EE806370780FFC7
:101740007D173377E8009315D7010D81C98D0D837F
:101750003E8493974801B706F07F32073183F58FB7
:10176000D98FFE0433E797002E85BA8519C0732000
:101770001400F2406244D2444249B249224A05610F
:101780008280A68781486FF00FFE8147E5BF8546BE
:10179000814881476FF08FFDA686A687814879BC76
:1017A0008546854761BC81C4C1D2B68411BF130789
:1017B00085004DB48145638609000D476398E902B1
:1017C00095E813E457002E889317D8018D81DD8D9D
:1017D0009307F07F13573800E39DF8F6D98D014742
:1017E000ADD93707080081458144A5B70947639300
:1017F000E900E1F8FD559308E07FE1B79308F07F39
:1018000079BC01480144F9BAB6840148E1BAB6840A
:101810004DB8AA853E844DBFE393889EE31A039A90
:1018200042872A86C1476FF08FF3E39B88CEC1477A
:10183000638B05F6B7074000F98F4144E390079AA0
:10184000E39E059855BA797122D456CA66C206D667
:1018500026D24AD04ECE52CC5AC85EC662C42A8422
:10186000B28CB68AF324200013D845011399C50021
:101870001378F87F1359C90013DAF50163060802DB
:101880009307F07F630EF806135BD5010E09336BE7
:101890002B01B7078000336BFB0093193500130C45
:1018A00018C0814B01449DA8336BA90063090B0C40
:1018B000630A09024A85EF10B041930755FF754B43
:1018C000130785FF330BFB403319E900335B6401D9
:1018D000336B2B013319E4001308D0C0330CA8403C
:1018E000CA89C1B7EF10D03E2A8B93075B017147BD
:1018F00013050502E355F7FC611B331B6401E9BFC7
:10190000336BA90063010B083704080033348900E6
:10191000AA8912044A8B130CF07F8D4B13D74A010E
:101920001399CA001377F77FE6871359C90093DA32
:10193000FA0139CF9306F07F6307D70A0E0993D7D0
:10194000DC01B3E727013709800033E9270193065B
:1019500017C093973C00814513972B004D8F330898
:10196000DC407D17B94633465A0163E5E60AB7669F
:1019700000900A0793868669369718430287814943
:10198000014C854B05B78149130CF07F894B19BF7A
:10199000B3679901ADC7630909024A85EF10503357
:1019A000930655FF7547930785FF158F3319F90087
:1019B00033D7EC00336727013399FC009306D0C07E
:1019C000CA87898E3A8941BF6685EF107030AA8731
:1019D00093865701714713050502E355D7FCE117BC
:1019E0003397FC00E1BF3366990119CE3707080031
:1019F0009306F07F8D45E371E9F64144B1BF01499B
:101A000081478146854589BF014981479306F07F1B
:101A1000894599B76366690163182B2763E6F92640
:101A20009316FB0113D71900939EF901135B1B005A
:101A3000B3E9E6001315890093D68701C98E418169
:101A40003353AB029398060193D80801939587000E
:101A500093D70901337BAB021A8F33876802420B9D
:101A6000B3E7670163FCE700B697130FF3FF63E783
:101A7000D70063F5E700130FE3FFB697998F33DEC6
:101A8000A702139709014183B3F7A7023383C80361
:101A9000C2075D8FF287637C670036979307FEFF6E
:101AA0006367D700637567009307EEFF3697420FB1
:101AB0004169336FFF00330767401303F9FFB377C2
:101AC0006F0093520F0113DE050133F36500B383FA
:101AD0006702B3896202B307FE02B38F370193D75F
:101AE0000301FE97B382C20363F33701CA9293DF07
:101AF0000701969FC162FD12B3F75700C207B3F307
:101B000053009E976367F7017A896312F70563F0C4
:101B1000FE04B382BE00B3B3D201B389D3004E97A3
:101B20001309FFFF968E63E6E6006392E602639078
:101B300003026366F701639CEF0063FAF200AE9262
:101B40001309EFFF33BFB200369F968E7A97338F1B
:101B5000FE403307F741B3BEEE013307D741FD57CF
:101B60006388E60EB352A70293570F013377A7029B
:101B7000968EB38F58024207D98F63FCF701B69750
:101B8000938EF2FF63E7D70063F5F701938EE2FFD0
:101B9000B697B387F741B3DFA70213170F0141834D
:101BA000B3F7A702B388F803C207D98F7E8763FC17
:101BB0001701B6971387FFFF63E7D70063F5170197
:101BC0001387EFFFB69713950E01598D1317050173
:101BD0004183B388174193570501B30EE302338362
:101BE0006702B307FE02330EEE0213D70E011A9EF0
:101BF00072976374670041639A97135307013E938A
:101C0000C167FD177D8F4207B3FEFE00769763E63E
:101C10006800AA87639C680205CFB6989307F5FF12
:101C2000468E63E1D80263E668006391680263FD53
:101C3000E5009307E5FF13951500333EB500369E8A
:101C4000469EAA8563146E006304B70093E71700ED
:101C50001307F83F6353E01093F67700D5C2894627
:101C600013641400638DD4088D466386D408C9E8D4
:101C700093F6F70091456385B60893864700B3B5A0
:101C8000F6002E99B687ADA87D18814E65B35686AD
:101C9000AE8B05476381EB22E38C0BFA89476383A4
:101CA000FB043705080081471307F07F0146320522
:101CB00031815207498F7E06B366C7003E85B685DF
:101CC00019C073201400B250225492540259F249A0
:101CD000624AD24A424BB24B224C924C45618280BE
:101CE00013648400014581471307F07FC9B752860A
:101CF0005A89CE8779BF09E69386870049B76DFE7A
:101D0000B7060001B376D90081CA370700FF7D17F7
:101D10003379E900130708409306E07F63CAE600C1
:101D200093D637009317D901D58F1355390041B792
:101D300089476382F4028D476387F40091C4FD579D
:101D40001307E07F29A065FE81471307F07F136426
:101D500054003E85A9BF65D6C5BF51EB93F6770009
:101D60004A8795CA8946136414006385D4028D4658
:101D7000638ED4008DE093F6F7009145638DB60035
:101D800013B7C7FF134717004A9731A009E613B7E7
:101D900087FFCDBF6DFE618313471700058B054597
:101DA0001308E841B3D6A700B3970701B337F00093
:101DB00033180901B3E70701D58F3355A90093F60E
:101DC0007700A5CE8946136414006387D4068D4638
:101DD0006380D406BDE093F6F7009145638FB604A7
:101DE00093864700B3B5F6002E95B687B9A0054592
:101DF000198D9306800363CDA606FD4663C4A60035
:101E0000054779BF85563387E6409305000233576F
:101E1000E90081466306B5001308E843B3160901DB
:101E2000DD8EB336D000B367D7000145054741BF0B
:101E300009E6938687007DB76DFEB7068000E98EC0
:101E400081CA136414000145814705E3054785B540
:101E500093D637009317D501D58F0D81E30907E499
:101E600013771400E30507E401471364240081B5E8
:101E7000B3E7270189CF8947136414006382F40212
:101E80008D47638BF400954791C085478D8313641C
:101E900024000145014721BD85476DFAA547FDB7DF
:101EA00085476DD6E5BF3705080081471307F07FEA
:101EB00001464144EDBB01458147E9BF2A87F3272D
:101EC0002000B707100013D84501FD1713D34601B2
:101ED0001378F87F1305F07FB3F8B7001373F37F1F
:101EE000F58FFD81FD82631EA80033E7E80005E35E
:101EF0000545631F03055D8E05E6958D3335B000FE
:101F000082806316A3025D8E01EE0545828037074D
:101F1000080063EBE8000545631C03035D8E0DCAF2
:101F200037070800E3F3E7FE73601800F9BF0545C3
:101F300063106802639EF800631CC7006389D500C4
:101F400063180800B3E8E8003335100182800145CA
:101F500082802A88F32720003707100093D7460194
:101F600013D345017D172A8E1373F37F13F5F77F83
:101F70009307F07FB378B700B28E758FFD81FD8235
:101F80006312F302B3E8080163950808630665006D
:101F90000545BDCD7D558280518F25EFE39AD5FE55
:101FA000014582806314F502518F25E76308030021
:101FB000E390D5FE7D55A9CD2E858280B3E808013A
:101FC000E39808FE7D55A9C6368582806303030227
:101FD00061D1E39FD5FAE34D65FAE34DA3FCE369D4
:101FE00017FBE399E8FCE3E5CEFB01456372DE03F2
:101FF000D1B733E8080101C5E30608FC55BF598E87
:1020000011C6E30108FCE38CD5FC59B7E31208F8CC
:10201000828073601800795582802A88F327200017
:102020003707100093D7460113D345017D172A8E39
:102030001373F37F13F5F77F9307F07FB378B7003F
:10204000B28E758FFD81FD826312F302B3E8080141
:1020500063950808630665000545BDCD7D55828002
:10206000518F25EFE39AD5FE014582806314F50276
:10207000518F25E763080300E390D5FE7D55A9CD78
:102080002E858280B3E80801E39808FE7D55A9C635
:10209000368582806303030261D1E39FD5FAE34D65
:1020A00065FAE34DA3FCE36917FBE399E8FCE3E57C
:1020B000CEFB01456372DE03D1B733E8080101C5E9
:1020C000E30608FC55BF598E11C6E30108FCE38CFA
:1020D000D5FC59B7E31208F88280736018000945EF
:1020E0008280797122D456CA62C406D626D24AD0DA
:1020F0004ECE52CC5AC85EC666C22A84328CB68A8C
:102100007329200093DB45019399C50093FBFB7F66
:1021100093D9C90013DBF50163860B029307F07FA7
:10212000638EFB068E099357D501B3E73701B709D4
:102130008000B3E93701131A3500938B1BC0814C23
:10214000814495A833EAA90063010A0E638A090253
:102150004E85EF10E037130755FFF547930685FFCF
:10216000998FB399D900B357F400B3E73701B31986
:10217000D400930BD0C04E8AB38BAB40BE89C1B79D
:10218000EF100035AA8713875701F14613050502A2
:10219000E3D5E6FCE117B317F400E1BF33EAA90089
:1021A00063090A08B7040800B3B4990092042A8AA4
:1021B000930BF07F8D4C13D74A011394CA00137709
:1021C000F77FE287318093DAFA012DCB9306F07F17
:1021D000630FD70A0E049357DC01C18F37048000C8
:1021E0005D8C930617C093173C00814513972C0014
:1021F000B69B4D8FA94633485B0193881B0063C58E
:10220000E626894663CDE60A7D17854663E8E60C37
:10221000AE8C09476389EC460D47638BEC46054756
:102220006397EC20814601462DA98149814B854C5D
:1022300001BF8149930BF07F894C19B7B3678401C3
:10224000A5C71DC42285EF10A028930655FF75472A
:10225000930785FF158F3314F4003357EC00418F3B
:102260003314FC009306D0C0A287898E3A84B5BF90
:102270006285EF10E025AA87938657017147130501
:102280000502E356D7FCE1173317FC00E1BF336CBE
:10229000840163000C02370708009306F07F8D4528
:1022A000E376E4F4C14499B701448147814685450A
:1022B00035BF014481479306F07F894505BF8546B8
:1022C0003397E600137607536317061A93760724AD
:1022D0006394063A137787086312071A41639305DC
:1022E000F3FF13570A0113D50701337ABA00B3F28B
:1022F000B700B3874203330E570213D60701B30664
:102300004503F2963696B30EA7026373C6019A9EF2
:10231000935606016D8EED8F135F0401E18D420629
:102320003E963304BA02B307B702330A4F03330EA3
:10233000E7033E9A1357040152976374F700C1678D
:102340003E9EC163938FF3FFB377F70113530701E9
:102350003374F4017293B3FFF90113DE0901C2076C
:10236000A297B309C503BE963384F2033305F50380
:1023700013570401B3025E0216952A976373570040
:102380009E99135507014E95C1699383F9FF3377E1
:102390007700420733747400B30287003384BF02AE
:1023A000B305BE0213570401330ECF03330FFF03EF
:1023B0002E9F3A9F6373BF004E9E33777F00337426
:1023C00074004207F69622973A93B3B7F6009A97AD
:1023D000B38556003E95B3B6D500AA963337E300D1
:1023E00033B367003334F5003367670033B5A600B5
:1023F000135F0F017A97498C3A94729493D77601C0
:1024000026045D8C93979500D18FB337F000DD8162
:1024100037070001CD8FA606618FD58F35C313D73F
:102420001700858B5D8F9317F401D98F0580138773
:10243000F83F6355E00E93F67700A1CE894693E40A
:1024400014006306D9048D46630ED9026313090490
:1024500093F6F7001146638EC6029386470033B6A3
:10246000F6003294B68735A0BD466303D722AD4649
:102470006306D7005A884E84D28761BB568849BB11
:10248000DE8875B76317080093868700C9BFE31D10
:1024900008FEB7060001E18E99C6370700FF7D17D9
:1024A000798C138708409306E07F63C1E6048D832F
:1024B0001316D4015D8E93563400B2065207B182D2
:1024C000558F7E08B36707013285BE8599C073A01A
:1024D0001400B250225492540259F249624AD24A2C
:1024E000424BB24B224C924C456182808947630437
:1024F000F9028D476308F900630809007D56130748
:10250000E07F31A0E31C08FE01461307F07F93E44F
:102510005400B2865DB7E30308FEFDB751EF93F6B2
:10252000770022878DCE894693E414006307D90291
:102530008D46630FD9006314090293F6F700114624
:10254000638FC60013B7C7FF13471700229701A870
:102550006317080013B787FFC5BFE31D08FE61833B
:1025600013471700058B85469388E84133D6D7007B
:10257000B3971701B337F000B3181401B3E717018D
:10258000D18FB356D40013F677003DCE094693E4BD
:1025900014006309C9060D466301C90663160906DE
:1025A00013F6F70091456301B60613864700B3356D
:1025B000F600AE96B28789A88546998E13068003E9
:1025C000634ED6067D466344D600054771BF055667
:1025D0003307E640930500023357E4000146638663
:1025E000B6009388E843331614015D8E3336C0007D
:1025F000B367C7008146054779B76317080013869C
:10260000870075B7E31D08FE37068000758E01CA86
:1026100093E414008146014619EF054779BD1396EE
:10262000D6018D835D8E8D82E30907E813F71400D0
:10263000E30507E8014793E4240041B533E687004A
:1026400011CE894793E414006304F9028D47630CAB
:10265000F90015466303090005460D8293E4240042
:102660008146014799BD0546E31908FE2546F5B7A1
:102670000546E30408FEDDBFB70608001307F07F38
:102680000148C1441DBD814601461307F07F35B5A1
:10269000B706080001461307F07F014839BD011154
:1026A00006CE22CC26CA4AC84EC652C4F329200000
:1026B000B7071000FD1733F7B7000E079358D50181
:1026C000F58FB3E8E80013D7460113D4450113583A
:1026D000D60193D4F5018E071377F77F9305F07F2A
:1026E0001374F47F0E05FD823368F8000E06631044
:1026F000B704B365C8009307148091CD3683639BFC
:10270000D448638507220DC09357680193C717000B
:10271000858B9207B9A813C3160063976448638733
:1027200007208146631604481304F07F49AA13C3A7
:102730001600B307E440639C6438635BF01235EF26
:10274000B367C80081EB630DB40446882A868147CD
:10275000228705A09307F4FFB1E32A964698333504
:10276000A6002A98370780003377E800631B0732FA
:10277000054793767600C28832856387067C81465A
:10278000094693E717006390C92E638E042E130643
:102790008500B335A600AE98328575A7631FB408CF
:1027A000B3E6A800E38F060293D7680193C717002A
:1027B000858B920746882A8625AA6317B400B3E65C
:1027C000A8006381061CCDB713078003634BF7068F
:1027D000370780003368E8007D476347F7069306B4
:1027E00000029D8E3317D800B355F600B316D600FD
:1027F0004D8FB336D000558FB357F8003306A7007E
:102800003337E600C6973388E7002287B707800092
:10281000B377F800638A0722130417009307F07F49
:102820006312F428638709008D47639DF928639636
:1028300004228148814615475DA213078003E35DAA
:10284000F7F8814705475DBF138707FE9305000230
:102850003357E80081466387B700930600049D8ED6
:10286000B316D800D18EB336D000558F814779B7D3
:10287000D5CFB307874039C09306800363C1F608FC
:10288000B7068000B3E8D800FD4663CDF606930591
:1028900000029D8DB396B8003353F500B315B50013
:1028A000B3E66600B335B000CD8EB3D7F8003696E8
:1028B000C297B336D6003388D70089BF3E84B3E7CA
:1028C000A80091E79307F07F631CF41E09A8930703
:1028D000F4FFE38407E89306F07F631ED400B36639
:1028E000C800CDC29357680193C71700858B920724
:1028F0001307F07FBDBD93068003E3D7F6F8814749
:10290000854675B7938607FE13030002B3D6D80039
:10291000814563876700930500049D8DB395B800DA
:10292000C98DB335B000CD8E814751B793061400E1
:1029300093F7E67FF5EBB3E6A80015E86385065646
:102940003367C8006307074A2A963337A6004698BC
:10295000B308E8003707800033F7E8003285630AE0
:102960000748370880FF7D1833F8080111B5930533
:10297000F07F631AB40289EAE31C87F6B366C800E5
:10298000E39406D881483DA4B705400033FEB80063
:102990003363C800630D0E64631E8706631F030064
:1029A00046882A86F9B36311B706B365C80099E96A
:1029B000E5FA81481304F07FF5AAB375B800BDC1EC
:1029C000014701A80147B7074000B377F800A9C342
:1029D00095CE8144B708400081461304F07F939759
:1029E000D8018D82DD8E9307F07F13D638006313F4
:1029F000F458D18E0146638F06563706080081468B
:102A000081448DAB4147C1B7014791E6BA87CDB547
:102A10004147E5BF01473368C800E31C08FA468810
:102A20002A86EDB74147C5BF9307F07F6380F60262
:102A30002A963335A60046982A989317F8010582FE
:102A40005D8E135818003687814725B3638809586F
:102A50008D47639DF902638304588146FD587D5577
:102A60001307E07F95470D46638EC94C639D0900AF
:102A70001376F50091456308B60013064500B3359B
:102A8000A600AE983285639406467DA98947639473
:102A9000F90063950454FD587D551307E07F954771
:102AA00065A10944B70780FFFD17B377F8001357F6
:102AB0001600058A518F1396F701598E13D8170007
:102AC000228759B78947E398F9FCF1D49DB3635540
:102AD000F00E1DEBB367C800E38707C69307F4FF4A
:102AE00099EB3306C540338808413335C5003308B8
:102AF000A840054785A0E305B4CA13078003635FB8
:102B0000F700814705472DA8E30BB4CA13078003DC
:102B1000E349F7FE370780003368E8007D476347E5
:102B2000F704930600029D8E3317D800B355F600C4
:102B3000B316D6004D8FB336D000558FB357F8007B
:102B40003307E5403338E500B387F8403A863388E9
:102B50000741228737098000B3772801E38607EE13
:102B60007D1933792801328A3A842DAC138707FE08
:102B7000930500023357E80081466387B700930648
:102B800000049D8EB316D800D18EB336D000558F79
:102B900081477DB7F5C721C89357680193C71700D0
:102BA000858B9207B684F1B6E1CF31C081469A8415
:102BB00081483A84014725B5E1C7B307874029E436
:102BC0009A843E84B3E7A800E38E07CE9307F4FF10
:102BD0008DE33305A640B337A600330818412A8693
:102BE0003308F84039B7B6841304F07FE1BF9A8404
:102BF000E5BF9306F07FE304D4CE9306800363DE43
:102C0000F600814785462DA89306800363C8F60623
:102C1000B7068000B3E8D8009A84FD4663CCF6027C
:102C2000930500029D8DB396B8003353F500B3159C
:102C3000B500B3E66600B335B000CD8EB3D7F8006B
:102C4000B306D640B335D600B307F840368633888E
:102C5000B74009B7938607FE13030002B3D6D80026
:102C6000814563876700930500049D8DB395B80087
:102C7000C98DB335B000CD8E8147D9B79A8451B78D
:102C80009307140093F7E77FFDE7B366C800B3E549
:102C9000A80029E899E9639B06209384E9FF93B48F
:102CA000140081488146014431B763840614330718
:102CB000C540B336E500B3870841958FB70680005D
:102CC000FD8E99CA3305A640330818413336A60055
:102CD000B308C8409A8431AAB366F700DDDEBE8827
:102CE0003A8501AA130EF07F631EC40381ED631EB3
:102CF00087068144A1C2B7054000B375B800A5C9D5
:102D00009A8485BC37064000B3F5C800638A052E57
:102D100063118706E38006AA3376C800E31206CA69
:102D20004147CDAC6315C70391EAE39505A88144FB
:102D30001304F07FB7084000414755B1370E4000FB
:102D4000337EC80163010E02E39C05C655BF0147EF
:102D50006392052C9A84E39B06CA8144B70840001D
:102D60001304F07FD1BF4147E5B70147E5B74147BD
:102D7000D5B7014745A4B307C5403337F5003389BC
:102D800008413309E940370780003377E9003E8A7C
:102D900055CB330AA640330918413336460133096F
:102DA000C9409A846304090A4A851D27130785FFD1
:102DB00013050002198D3319E9003355AA00336851
:102DC00025013319EA006347870C018F9308170028
:102DD00093070002B38717413317F800B356190160
:102DE000B317F900558FB337F0003365F700B358C8
:102DF0001801B3671501E38607EA9357F5011397A6
:102E000018003E979317150013F677009376750018
:102E10006307061009466386C90C0D46638BC90813
:102E20006397090E13F6F700914593B7C7FF631E2A
:102E3000B608B70700017D8F631007106392061074
:102E4000854775A0B3E72701B1FF81BD52854925AC
:102E500013078501FD47E3DDE7F461153318AA0088
:102E6000634A8702018F93081700E3D317F705170A
:102E7000930700023357E80001456388F800130503
:102E80000004330515413315A8003335A000598DD2
:102E9000814885B7B70780FFFD173307E4403378D3
:102EA000F8004A8655B6C2883285A1B7C2883285F5
:102EB00015B591C8B70700017D8F25EFA68785CA94
:102EC000A68601474DB693B787FF93C71700BA97F9
:102ED00037070001F98FADE30147BDD2854685472D
:102EE00059B689E8B70700017D8F854721E793E749
:102EF000270099A893B787FF93C71700BA9737079A
:102F00000001F98F9DE7CDE2A6870147CDB7B7074E
:102F100000017D8F15E38DD685460147C9B7B707F8
:102F200000017D8F01EF814785C2854601478147BA
:102F300081B8A687014791B08547EDBF8147DDBFC6
:102F4000014769BFB9CCB5E6B7068000B3F6D80033
:102F5000D9CA130417001307F07F630EE404370681
:102F600080FF7D1633F6C8009316D6010D81C98EF9
:102F70000D823E87B707F07F520432067D8C318286
:102F8000518CFE04B36794003685BE8519C3732047
:102F90001700F2406244D2444249B249224A0561D4
:102FA000828013068500E1BCA686A68701476FF0E4
:102FB000CFFDB6842DBF8146638609000D47639718
:102FC000E90089E813E75700B68811BC0947639305
:102FD000E900EDF8FD561304E07FEDB71304F07F30
:102FE00089B88148EDBA3A84AA863E87CDBAE31BF8
:102FF00087A2E31903A046882A86C1476FF06FF7BE
:10300000E31087D2C147638706FA3376C800414789
:10301000E311069CE39F069A19B4F3272000B70733
:103020001000FD1733F7B700D181F58F93F5F57FC9
:10303000D1821308F07F93F6F67F6388050101457E
:10304000639D06035D8E15E28280598D11E56396BE
:10305000B6025D8E19EA828037050800636CA7000E
:103060000545639CB6005D8E09CA37070800054513
:1030700063F5E70073601800054582802A86F32710
:103080002000B707100093D645011388F7FF93F689
:10309000F67F1307E03F3378B800FD816347D70020
:1030A000D1EE3365A80059E982801307D0416358F7
:1030B000D702B707008093C7F7FF3385F500D1C16A
:1030C0009307E04141476395F6042E089357560154
:1030D0003368F800631E08022E0635E68280B36767
:1030E000F800130830433308D8407D476345070391
:1030F0009386D6BE3317D500335806013395D700D3
:103100003337E0003365050199C13305A04019C389
:103110007320170082801305000201476306A80090
:103120001387D6C03397E700518F13063041B3069B
:10313000D6403337E00033D5D700F9B7014505470E
:10314000C1BF4147F1B72E87E1B7411106C622C47E
:1031500026C221CD9357F54133C4A7001D8C93544B
:10316000F5012285B5261307E041A947098F63C8F9
:10317000A702AD47898F5505B357F4003314A40057
:103180002685B207B18352077E055D8FB240B367D3
:10319000A700228522449244BE85410182805515B4
:1031A000B317A40026850144E9BF01478147E5BF65
:1031B0004111D30705E006C622C426C24AC07327C0
:1031C000200093D4770193F4F40F1394970013D94C
:1031D000F7019387140093F7E70F258095CB1385AC
:1031E00004389357340081447604B207B183520502
:1031F0005D8D9317F9013367F500BA85228599C073
:1032000073601800B2402244924402494101828016
:1032100095E821C822856D2CA94763CFA700AD474B
:10322000898F13075501B357F4003314E4001307D3
:1032300090383305A74055BF930755FFB317F400E7
:103240000144F5B715C0B7044000B3349400935758
:1032500034003707080092047604D98F1305F07FF5
:1032600069B78147014551B781478144C5BF73287C
:1032700020009397C50093D84501A58393F8F87F64
:103280001356D5015D8E9387180093F7E77FFD8174
:1032900093163500F1CB138708C89307E00F63D668
:1032A000E702630908208D476319F800638F052042
:1032B000FD571307E00F954659A28947E31AF8FE18
:1032C000E5D9370780FF9546E9AA6340E008A5578E
:1032D0006342F70AB707800079455D8E198DFD4777
:1032E00063C3A704938828C833D5A600B3961601F4
:1032F000B336D00033161601D18EB367D5001397BD
:10330000170093767700ADEA93F6770001470546FC
:10331000F1EE1306F00F8D83631EC708C1CFB70708
:103320004000814541A8F957998F13030002B35714
:10333000F600014763066500138728CA3317E600C5
:10334000558F3337E000D98F5DBF931765000E06A8
:10335000B337F000F582D18FD58F93F67700014611
:10336000D1E68D838146B9A0D18E6394080213976C
:10337000F501B9CA85470947094693F677006307FF
:10338000C8080D466300C8066303080401470546E4
:10339000A9A8638706129307F07F81466397F80018
:1033A0005982134616009316460081451307F00F05
:1033B000B70740005E073706807FA607718FA58399
:1033C0005D8FFE054D8FF1EE530507F0828013757A
:1033D000F70011461107631DC5020147054691EA32
:1033E0008D4605BF8DC52E860147FDDA8946630AE5
:1033F000D8068D466302D804631A080693F6F700D0
:1034000011456395A602854609D6D9BFC1D12107CA
:10341000370600083375C700133615000147F9F663
:103420008D46E30805EE8D83854669B7910785468D
:1034300019C69366260021A09DC1AE861DEA3706F7
:1034400000047D8EE30706EC05071306F00F630406
:10345000C7023706801F8D837D16F18FA1BFA1079C
:10346000F9B7F1D5A107AE8679DAE1B7854671F2F1
:10347000F9B72E867DBF93E65600630708028D4795
:103480006319F80095C1B707807F1397F501FD1701
:1034900005A08947E319F8FE81E9B707008803A76B
:1034A000870873A016000DB71397F501B707807F43
:1034B0005D8FC5BF1397F501B707807F5D8F21B57D
:1034C000FE053707807F4D8F01B73707807FE5BB4B
:1034D000C1676376F5029337051093C717008E070F
:1034E00037670090930600029D8E3355F5009307D1
:1034F000476DAA9703C507003385A640828037072A
:103500000001C147E36EE5FCE147D9BF011122CEBE
:1035100000102326A4FE2324B4FE8327C4FE032721
:1035200084FE98C30100724405618280797106D6D9
:1035300022D44AD24ED00018232604FE4DA8832759
:10354000C4FED3F717D05385F7209D312A87AE8765
:10355000B766009003A6066283A646623A85BE85DA
:10356000EFE03FB82A87AE873A85BE850933D30797
:10357000A5202724F4FE072584FEEF20A01A272289
:10358000A4FE072744FEB767009087A78762D3771A
:10359000F7102720F4FE872704FED39707C0232EB9
:1035A000F4FC0325C4FD992CB7E7ADDE9385D7EA7B
:1035B0007155A93F072584FEE53E2A89AE89072576
:1035C00044FEFD362A87AE874A86CE868325C4FE12
:1035D0003765009013050560EF20A00F1305400626
:1035E000EF10E0018327C4FE85072326F4FE03279E
:1035F000C4FE93077016E3F4E7F43DBF011122CE39
:1036000000102326A4FE2324B4FE8327C4FE032730
:1036100084FE98C30100724405618280011122CEAC
:1036200000102326A4FE8327C4FE9C433E857244DB
:1036300005618280411106C622C400088145370514
:1036400000A06D3F8145B70700A0138547007D3777
:103650008145B70700A0138587004D37FD55B70793
:1036600000A013850701593FB70700049385F7FFB2
:10367000B70700A01385470151378145B70700A060
:1036800013858701A53F0145FD2E0145312001002D
:10369000B240224441018280797106D622D40018BA
:1036A000232EA4FC8327C4FD93F7F70FBD8BA3073C
:1036B000F4FE8327C4FD918393F7F70FBD8B230797
:1036C000F4FE8327C4FDA18393F7F70FBD8BA306F8
:1036D000F4FE8327C4FDB18393F7F70FBD8B230658
:1036E000F4FE8327C4FDC18393F7F70FBD8BA305B9
:1036F000F4FE8327C4FDD18393F7F70FBD8B230519
:10370000F4FE8347F4FE376700901307477DBA97AE
:1037100083C70700A307F4FE8347E4FE37670090E2
:103720001307477DBA9783C707002307F4FE834733
:10373000D4FE376700901307477DBA9783C7070009
:10374000A306F4FE8347C4FE376700901307477D46
:10375000BA9783C707002306F4FE8347B4FE376792
:1037600000901307477DBA9783C70700A305F4FEAF
:103770008347A4FE376700901307477DBA9783C736
:1037800007002305F4FE8347C4FE13978701834790
:10379000D4FEC2075D8F8347E4FEA2075D8F834797
:1037A000F4FED98F2322F4FE832544FE370500A0C2
:1037B000B135B70700A0138547008D352322A4FE3D
:1037C000032744FEC177F98F2322F4FE8347A4FE2A
:1037D00013978700832744FE5D8F8347B4FED98FFC
:1037E0002322F4FE832544FEB70700A0138547007B
:1037F00031350100B2502254456182805D7186C628
:10380000A2C48008232EA4FA8327C4FB63C5070043
:103810009307F00F19A09307F00BA307F4FE83277B
:10382000C4FB13D7F7418327C4FBB98F998F232497
:10383000F4FE032784FE8967938707713357F702E5
:10384000A947B377F7022322F4FE032784FE9307E8
:10385000803E3357F702A947B377F7022320F4FEDF
:10386000032784FE930740063357F702A947B3772F
:10387000F702232EF4FC032784FEA9473357F702EF
:10388000A947B377F702232CF4FC032784FEA9474A
:10389000B377F702232AF4FC832744FE13974700EB
:1038A000832704FEBA97139747008327C4FDBA976E
:1038B00013974700832784FDBA979207032744FD97
:1038C000BA972328F4FC832704FDC18393F7F70FED
:1038D000BD8BA307F4FC832704FDB18393F7F70F97
:1038E000BD8B2307F4FC832704FDA18393F7F70F17
:1038F000BD8BA306F4FC832704FD918393F7F70F98
:10390000BD8B2306F4FC832704FD93F7F70FBD8BD3
:10391000A305F4FC8347F4FC93B7170093F7F70F64
:103920002322F4FC832744FC99EB8347F4FC37679C
:1039300000901307477DBA9783C7070019A0930724
:10394000F00FA307F4FC8347E4FC93B7170093F749
:10395000F70F3E87832744FCF98F2322F4FC83274B
:1039600044FC99EB8347E4FC376700901307477DDD
:10397000BA9783C7070019A09307F00F2307F4FC39
:103980008347D4FC93B7170093F7F70F3E8783273D
:1039900044FCF98F2322F4FC832744FC99EB8347F2
:1039A000D4FC376700901307477DBA9783C7070099
:1039B00019A09307F00FA306F4FC8347C4FC93B748
:1039C000170093F7F70F3E87832744FCF98F2322D4
:1039D000F4FC832744FC99EB8347C4FC37670090D1
:1039E0001307477DBA9783C7070019A09307F00F05
:1039F0002306F4FC8347B4FC376700901307477D28
:103A0000BA9783C70700A305F4FC8347E4FC139728
:103A100087018347D4FCC2075D8F8347C4FCA2079C
:103A20005D8F8347B4FCD98F2320F4FC832504FCED
:103A3000370500A0E136B707008883A707099183FF
:103A4000376700901307477DBA9783C70700A2071F
:103A500037070088032707093D8BB76600909386D8
:103A6000467D369703470700D98F2320F4FC832532
:103A700004FCB70700A01385470049360100B64093
:103A8000264461618280797106D622D40018232EE3
:103A9000A4FC8327C4FD93F7F73F232EF4FCB7075C
:103AA00000A0138547009D3E2326A4FE0327C4FEE5
:103AB000B70701FCFD17F98F2326F4FE8327C4FD09
:103AC000C2070327C4FED98F2326F4FE8325C4FE34
:103AD000B70700A01385470015360100B2502254E5
:103AE00045618280011106CE22CC0010B70700A0EC
:103AF0001385870025362326A4FE8327C4FE93C79B
:103B0000F7FFA983858B2326F4FE8327C4FE3E8519
:103B1000F240624405618280011106CE22CC001081
:103B2000B70700A013858700D53C2326A4FE832772
:103B3000C4FE93F7F73F2326F4FE8327C4FE3E8599
:103B4000F240624405618280011122CE00102326DA
:103B5000A4FE2324B4FE8327C4FE032784FE98C357
:103B60000100724405618280011122CE00102326DB
:103B7000A4FE8327C4FE9C433E8572440561828077
:103B8000411106C622C44AC24EC0000885460546F9
:103B9000854501458120EF0070222A879307400662
:103BA000B357F7023E8981494A88CE880147814749
:103BB00005468146A94505451D2301478546014621
:103BC0008545014581210100B240224412498249C4
:103BD000410182801D71A2CE80102326A4FA2324E5
:103BE000B4FA2322C4FA2320D4FA832784FA858BDB
:103BF0002324F4FA832744FA858B2322F4FA8327BB
:103C000004FABD8B2320F4FA0327C4FA9D4763E826
:103C1000E7048327C4FA8A072326F4FEF32780BF2C
:103C20002324F4FC832784FC2322F4FE8327C4FE90
:103C30003D47B317F70093C7F7FF3E87832744FE3E
:103C40007D8F8327C4FE832604FAB397F600D98FAD
:103C50002322F4FE832744FE739087BF9DAC032785
:103C6000C4FABD4763E9E7048327C4FAE1178A076A
:103C70002326F4FEF32790BF2326F4FC8327C4FCFD
:103C80002322F4FE8327C4FE3D47B317F70093C7F2
:103C9000F7FF3E87832744FE7D8F8327C4FE83265C
:103CA00004FAB397F600D98F2322F4FE832744FE4B
:103CB000739097BF39AC0327C4FADD4763E9E70483
:103CC0008327C4FAC1178A072326F4FEF327A0BF6F
:103CD0002328F4FC832704FD2322F4FE8327C4FE5B
:103CE0003D47B317F70093C7F7FF3E87832744FE8E
:103CF0007D8F8327C4FE832604FAB397F600D98FFD
:103D00002322F4FE832744FE7390A7BFD9A2032782
:103D1000C4FAFD4763E9E7048327C4FAA1178A07B9
:103D20002326F4FEF327B0BF232AF4FC832744FDA7
:103D30002322F4FE8327C4FE3D47B317F70093C741
:103D4000F7FF3E87832744FE7D8F8327C4FE8326AB
:103D500004FAB397F600D98F2322F4FE832744FE9A
:103D60007390B7BFBDA20327C4FA9307700263E93B
:103D7000E7048327C4FA81178A072326F4FEF32772
:103D8000C0BF232CF4FC832784FD2322F4FE832769
:103D9000C4FE3D47B317F70093C7F7FF3E8783275D
:103DA00044FE7D8F8327C4FE832604FAB397F60072
:103DB000D98F2322F4FE832744FE7390C7BF11AA34
:103DC0000327C4FA9307F00263EAE7048327C4FADF
:103DD000938787FD8A072326F4FEF327D0BF232E7F
:103DE000F4FC8327C4FD2322F4FE8327C4FE3D4751
:103DF000B317F70093C7F7FF3E87832744FE7D8FF5
:103E00008327C4FE832604FAB397F600D98F2322B2
:103E1000F4FE832744FE7390D7BF65A80327C4FA36
:103E20009307700363EAE7048327C4FA938707FDC7
:103E30008A072326F4FEF327E0BF2320F4FE83271E
:103E400004FE2322F4FE8327C4FE3D47B317F70088
:103E500093C7F7FF3E87832744FE7D8F8327C4FEE9
:103E6000832604FAB397F600D98F2322F4FE832722
:103E700044FE7390E7BFB1A80327C4FA9307F00389
:103E800063E9E7048327C4FA938787FC8A0723261C
:103E9000F4FEF327F0BF2324F4FE832784FE2322BD
:103EA000F4FE8327C4FE3D47B317F70093C7F7FF1F
:103EB0003E87832744FE7D8F8327C4FE832604FA32
:103EC000B397F600D98F2322F4FE832744FE739024
:103ED000F7BF0327C4FAFD4763E7E7088327C4FA5F
:103EE0002322F4FCF32740BF232CF4FA832784FB1E
:103EF0002322F4FE832744FC0547B317F70093C73A
:103F0000F7FF3E87832744FE7D8F832744FC83266B
:103F100044FAB397F600D98F2322F4FE832744FE98
:103F2000739047BFF32720BF232AF4FA832744FB6B
:103F30002322F4FE832744FC0547B317F70093C7F9
:103F4000F7FF3E87832744FE7D8F832744FC83262B
:103F500084FAB397F600D98F2322F4FE832744FE18
:103F6000739027BF61A80327C4FA9307F00363E7A0
:103F7000E7088327C4FA81172322F4FCF32750BFF4
:103F80002320F4FC832704FC2322F4FE832744FC33
:103F90000547B317F70093C7F7FF3E87832744FE13
:103FA0007D8F832744FC832644FAB397F600D98F8C
:103FB0002322F4FE832744FE739057BFF32730BFBC
:103FC000232EF4FA8327C4FB2322F4FE832744FC28
:103FD0000547B317F70093C7F7FF3E87832744FED3
:103FE0007D8F832744FC832684FAB397F600D98F0C
:103FF0002322F4FE832744FE739037BF01007644EA
:1040000025618280397122DE8000232EA4FC232CBE
:10401000B4FC232AC4FC2328D4FC2326E4FC8327F5
:10402000C4FD858B232EF4FC832784FD858B232CF4
:10403000F4FC832744FD858B232AF4FC832704FDAD
:10404000858B2328F4FC8327C4FCBD8B2326F4FC3A
:104050008327C4FC739007BFF32740302326F4FE68
:104060008327C4FE2324F4FE032784FEFD77938771
:1040700077777D8F8327C4FDAE075D8F832784FD0F
:104080009E075D8F832744FD8E07D98F2324F4FE7E
:10409000832784FE73904730F32700302322F4FEF9
:1040A000832744FE2324F4FE832784FE13F777FF3F
:1040B0008326C4FD832784FDDD8E832744FDDD8EAA
:1040C000832704FDD58F8E07D98F2324F4FE832701
:1040D00084FE7390073001007254216182805D710B
:1040E00086C6A2C4CAC2CEC052DE56DC80082326D1
:1040F000A4FC2324B4FC2320C4FC2322D4FC232CC2
:10410000E4FA232EF4FA232804FB232A14FB832742
:10411000C4FC858B2326F4FC832784FC89C7832772
:1041200084FCFD1719A0832784FC232EF4FC83272D
:10413000C4FD93F7F703232EF4FC832704FC13F349
:104140001700832744FC93F30700232064FC2322F9
:1041500074FC8325C4FDB707004913854700ED3281
:10416000832784FBBE85B707004913858700E93A9A
:104170008327C4FB13DA0700814AD287BE85B707BD
:1041800000491385C700C932832704FBBE85B707E2
:104190000049138507014D3A832744FB13D90700D3
:1041A0008149CA87BE85B707004913854701693A27
:1041B000832704FC139727008327C4FCD98FBE856F
:1041C0003705004951320100B64026441649864958
:1041D000725AE25A61618280357106CF16CD1ACBD0
:1041E0001EC922C72AC52EC332C1B6DEBADCBEDA6A
:1041F000C2D8C6D6F2D4F6D2FAD0FECE82E686E493
:104200008AE28EE012FE16FC1AFA1EF82AF62EF446
:1042100032F236F03AEE3EEC42EA46E872E676E4F6
:104220007AE27EE000118145370500C0EFF0DF91B2
:104230000100FA40EA425A43CA433A442A459A45A1
:104240000A46F6566657D6574658B658265E965EC4
:10425000065FF64F3660A660166186617272E27282
:104260005273C2733275A275127682767267E267F4
:104270005268C268326EA26E126F826F0D61730057
:104280002030357106CF16CD1ACB1EC922C726C5E0
:104290002AC32EC1B2DEB6DCBADABED8C2D6C6D4C4
:1042A000F2D2F6D0FACEFECC82E686E48AE28EE046
:1042B00012FE16FC1AFA1EF82AF62EF432F236F026
:1042C0003AEE3EEC42EA46E872E676E47AE27EE0D6
:1042D000001137050049EFF03F89AA87BE853705F1
:1042E0000049EFF07F86B707008883A7C7083E859F
:1042F000EFF06FF9EFF00FFFAA8791EFEFF0DF819A
:104300002A87B707008883A7C7083E97B7070088A2
:1043100023A6E70831A8B707008883A4C708EFF0F1
:10432000AFFFAA873387F440B707008823A6E708C2
:104330000100FA40EA425A43CA433A44AA441A45A1
:104340008A457656E6565657C6573658A658165ECC
:10435000865E764FE64F3660A660166186617272A1
:10436000E2725273C2733275A275127682767267E8
:10437000E2675268C268326EA26E126F826F0D6180
:1043800073002030357106CF16CD1ACB1EC922C757
:104390002AC52EC332C1B6DEBADCBEDAC2D8C6D652
:1043A000F2D4F6D2FAD0FECE82E686E48AE28EE03D
:1043B00012FE16FC1AFA1EF82AF62EF432F236F025
:1043C0003AEE3EEC42EA46E872E676E47AE27EE0D5
:1043D00000118145B707004913858701EFF0CFF63B
:1043E0000100FA40EA425A43CA433A442A459A45F0
:1043F0000A46F6566657D6574658B658265E965E13
:10440000065FF64F3660A660166186617272E272D0
:104410005273C2733275A275127682767267E26742
:104420005268C268326EA26E126F826F0D617300A5
:104430002030517186D796D59AD39ED1A2CFAACDDE
:10444000AECBB2C9B6C7BAC5BEC3C2C146DF72DD04
:1044500076DB7AD97ED702EF06ED0AEB0EE912E79A
:1044600016E51AE31EE1AAFEAEFCB2FAB6F8BAF6F9
:10447000BEF4C2F2C6F0F2EEF6ECFAEAFEE88019FB
:10448000F32700BF232EF4F48327C4F5232CF4F480
:10449000F32760BF232AF4F4832744F52324F4F49C
:1044A000232604F4F32770BF2322F4F4832744F473
:1044B000232CF4F2232E04F2832784F3939807002D
:1044C0000148032684F48326C4F4330706013A83A3
:1044D0003333C300B3871601B306F300B68723282E
:1044E000E4F2232AF4F2F32710BF2326F4F2832701
:1044F000C4F22324F4F2F32710342322F4F28327A6
:1045000044F22320F4F2F3270030232EF4F0832723
:10451000C4F1232CF4F0832784F193E78700739090
:104520000730032784F585476312F702832784F455
:1045300013F517008327C4F493F50700AA87CD8FDE
:1045400081CB152C8547739067BF19A0010011A07E
:104550000100832784F173900730832704F273905E
:104560001734832784F2739007BF0100BE50AE5208
:104570001E538E537E446E45DE454E46BE462E4744
:104580009E470E48FA586A5EDA5E4A5FBA5F7A6002
:10459000EA605A61CA613A62AA621A638A637675EE
:1045A000E6755676C6763677A67716788678766E6E
:1045B000E66E566FC66F6D6173002030011122CE1A
:1045C0000010F32710302326F4FE8327C4FE232493
:1045D000F4FE832784FE93F7070291C7B757FE00C6
:1045E0009387B70229A0B7373101938707D02322D9
:1045F000F4FE832744FE3E85724405618280597132
:1046000086D6A2D4CAD2CED0D2CED6CCDACADEC812
:104610008018232EA4F85D37232EA4FCF32700B0C6
:10462000232CF4FC832784FD2328F4FC232A04FC98
:10463000F32700B82326F4FC8327C4FC2320F4FCD2
:10464000232204FC832704FC939B0700014B0326D1
:1046500004FD832644FD33076601BA85B3B5C50062
:10466000B3877601B386F500B687232CE4FA232EB0
:10467000F4FAF32700B0232AF4FA832744FB232813
:10468000F4FC232A04FCF32700B82328F4FA832738
:1046900004FB2320F4FC232204FC832704FC939ACC
:1046A0000700014A032604FD832644FD3307460123
:1046B000BA85B3B5C500B3875601B386F500B68792
:1046C0002324E4FA2326F4FA0327C4F98327C4FD3C
:1046D0003307F7029307803EB357F7023E898149BB
:1046E000032684FB8326C4FB3307C900BA85B3B510
:1046F0002501B387D900B386F500B6878326C4FAAF
:104700003E86E3E8C6F68326C4FA3E866398C60072
:10471000832684FABA8763F3F600A1BF0100010083
:10472000B650265416598659764AE64A564BC64B19
:1047300065618280011122CE00102326A4FEAE877F
:10474000A305F4FE8327C4FE0347B4FE2380E700DD
:104750000100724405618280011122CE00102326DF
:10476000A4FE8327C4FE83C7070093F7F70F3E8597
:10477000724405618280411106C622C40008E52802
:10478000AA873E87B707008823A8E708B7070088ED
:1047900083A7070993F7F70F3E855D20B7070088C9
:1047A00003A70709B5476314F700294551280100FD
:1047B000B240224441018280011106CE22CC001079
:1047C000F53B2326A4FE0327C4FEB73731019387A8
:1047D00007D0631FF7009545B70700B01385270082
:1047E000913F9945B70700B013853700A13729A835
:1047F0009145B70700B0138527002D3F9945B707AE
:1048000000B0138537003D3793050004B70700B0AB
:10481000138517000537B70700883757009013072F
:10482000078423AAE708B7070088375700901307C3
:10483000678723AEE7080100F24062440561828089
:10484000011106CE22CC0010AA87A307F4FE0100B6
:10485000B70700B0138517000137AA87898BEDDBF6
:104860008347F4FEBE85370500B0E9350100F2400C
:10487000624405618280411106C622C4000801001D
:10488000B70700B013851700C13DAA87858BEDDB04
:10489000370500B0D135AA873E85B2402244410198
:1048A0008280797106D622D40018232CA4FC232EF2
:1048B000B4FC232604FEBDA8B767009003A6876654
:1048C00083A6C766032584FD8325C4FDEFD06FE86A
:1048D000AA8763CA0702B767009003A6876683A604
:1048E000C766032584FD8325C4FDEFC0DFF52A8755
:1048F000AE87232CE4FC232EF4FC8327C4FE95070B
:104900002326F4FE05A8B767009003A6076783A6D1
:104910004767032584FD8325C4FDEFC0DFF22A87A6
:10492000AE87232CE4FC232EF4FC8327C4FE8507EA
:104930002326F4FEB767009003A6076783A64767A0
:10494000032584FD8325C4FDEFD0AFE0AA87E3D51E
:1049500007F6BDA8B767009003A6876783A6C76759
:10496000032584FD8325C4FDEFD02FEBAA8763DAEE
:104970000702B767009003A6876683A6C76603256C
:1049800084FD8325C4FDEFD0CFF52A87AE87232C85
:10499000E4FC232EF4FC8327C4FEED172326F4FE4B
:1049A00005A8B767009003A6076783A64767032596
:1049B00084FD8325C4FDEFD0CFF22A87AE87232C58
:1049C000E4FC232EF4FC8327C4FEFD172326F4FE0B
:1049D000B767009003A6076883A64768032584FD90
:1049E0008325C4FDEFD06FE3AA87E3C507F68327CD
:1049F000C4FE3E85B250225445618280797106D64C
:104A000022D40018232EA4FCB767009003A70768E0
:104A100083A747682324E4FE2326F4FEADA00327E2
:104A2000C4FD914763DAE702B767009003A6876683
:104A300083A6C766032584FE8325C4FEEFD06FEAF4
:104A40002A87AE872324E4FE2326F4FE8327C4FDB1
:104A5000ED17232EF4FC05A8B767009003A607679F
:104A600083A64767032584FE8325C4FEEFD06FE746
:104A70002A87AE872324E4FE2326F4FE8327C4FD81
:104A8000FD17232EF4FC8327C4FDE34AF0F8ADA004
:104A90000327C4FDF157635AF702B767009003A6D6
:104AA000876683A6C766032584FE8325C4FEEFC000
:104AB0009FD92A87AE872324E4FE2326F4FE83278A
:104AC000C4FD9507232EF4FC05A8B767009003A644
:104AD000076783A64767032584FE8325C4FEEFC0CE
:104AE0009FD62A87AE872324E4FE2326F4FE83275D
:104AF000C4FD8507232EF4FC8327C4FDE3CA07F811
:104B0000032784FE8327C4FE3A85BE85B250225413
:104B1000456182801D7186CEA2CCA6CACAC8CEC607
:104B2000D2C4D6C28010232EA4FA2328B4FA232A92
:104B3000C4FA232CD4FABA87A307F4FA232E04FC70
:104B4000232C04FCA30B04FC232804FC032604FBF5
:104B5000832644FB032504FB832544FBEFE0EFCBD6
:104B6000AA8781CBB7670090938707632328F4FC5B
:104B70006DAE832784FB63D507009947232CF4FA95
:104B800001468146032504FB832544FBEFD0EFC893
:104B9000AA8763D30702032A04FB032744FBB70752
:104BA0000080B34AF700232844FB232A54FB9307D1
:104BB000D002A30BF4FC29A09307B002A30BF4FCD2
:104BC000032904FB032744FBB707008093C7F7FFC3
:104BD000B379F7008544B767009003A6876883A67A
:104BE000C7684A85CE85EFE04FC3AA8799EFB767BC
:104BF000009003A6876883A6C7684A85CE85EFD054
:104C0000CFC1AA876353F000814493F7F40F93C791
:104C1000170093F7F70F81CBB7670090938747632F
:104C20002328F4FCA9AA0307F4FA9307600663108B
:104C3000F708832784FBB307F0403E85C1332A87FA
:104C4000AE87B766009003A6066983A646693A85D3
:104C5000BE85EFC05FBF2A87AE873A86BE86032532
:104C600004FB832544FBEFC08FA62A87AE87232849
:104C7000E4FA232AF4FA032504FB832544FB1531C7
:104C8000232CA4FC832784FD63D40700232C04FC7D
:104C9000032784FD832784FB3E97F14763D1E70E0A
:104CA000B7670090938787632328F4FCC9A801465F
:104CB0008146032504FB832544FBEFD02FA0AA8760
:104CC000DDCF032504FB832544FBE13E2A878327B0
:104CD00084FBB307F7403E8515332A87AE87B76656
:104CE000009003A6066983A646693A85BE85EFC093
:104CF0009FB52A87AE873A86BE86032504FB8325A7
:104D000044FBEFC0CF9C2A87AE872328E4FA232AEE
:104D1000F4FA032504FB832544FB6136232EA4FC0F
:104D20000327C4FD9307300663C7E700032784FB0E
:104D3000E54763D9E700B767009093878763232827
:104D4000F4FC35A80327C4FD9307D0F96356F70098
:104D50009307D0F9232EF4FC0325C4FD45312A879F
:104D6000AE873A86BE86032504FB832544FBEFC04D
:104D70009FAD2A87AE872328E4FA232AF4FA8327F3
:104D800004FD6394071A030774FD9307D002631CA4
:104D9000F7008327C4FB13871700232EE4FA034789
:104DA00074FD2380E700032584FD89392324A4FCB6
:104DB0002326B4FC032684FC8326C4FC032504FBC1
:104DC000832544FBEFC03FA82A87AE873A85BE857E
:104DD000EFE0CFAAAA872322F4FC032544FCEFE0EE
:104DE000CFB62A87AE87032684FC8326C4FC3A8587
:104DF000BE85EFD00FAF2A87AE873A86BE860325E1
:104E000004FB832544FBEFD09F892A87AE872328A4
:104E1000E4FA232AF4FA032784FDFD57631CF70004
:104E20008327C4FB13871700232EE4FA1307E0023D
:104E30002380E700832744FC93F7F70F938707034A
:104E400093F6F70F8327C4FB13871700232EE4FA8A
:104E50001397860161872380E700832784FDFD1770
:104E6000232CF4FC832784FBB307F040032784FD45
:104E7000E35BF7F20307F4FA930760066307F70AA8
:104E80008327C4FB13871700232EE4FA0347F4FAA1
:104E90002380E7008327C4FD63D307028327C4FD73
:104EA000B307F040232EF4FC8327C4FB13871700BD
:104EB000232EE4FA1307D0022380E70019A88327E2
:104EC000C4FB13871700232EE4FA1307B0022380D4
:104ED000E7000327C4FDA947B347F70293F7F70F8D
:104EE0009387070393F6F70F8327C4FB13871700F5
:104EF000232EE4FA1397860161872380E7000327B6
:104F0000C4FDA947B367F70293F7F70F9387070329
:104F100093F6F70F8327C4FB13871700232EE4FAB9
:104F20001397860161872380E700832704FDB9C3B7
:104F3000830774FD99CB8327C4FB13871700232EA7
:104F4000E4FA034774FD2380E700032704FD930779
:104F500017002328F4FC8327C4FB93861700232E15
:104F6000D4FA030707002380E700832704FD838723
:104F70000700E1FF8327C4FB238007000100F64000
:104F80006644D6444649B649264A964A25618280F7
:104F9000011106CE22CC00102326A4FE2324B4FE49
:104FA000032784FEA9476316F700B5450325C4FE11
:104FB000C5378327C4FE99C78327C4FE032584FE13
:104FC000829735A0B707008883A787098DC3B707E5
:104FD000008883A787099386170037070088232C4A
:104FE000D708032784FE620761872380E70001005A
:104FF000F240624405618280357106CF22CD4ACBF2
:105000004EC952C756C55AC35EC1E2DEE6DC001186
:105010002326A4F62324B4F62322C4F6832784F699
:10502000138717002324E4F683C70700A309F4FAC3
:10503000830734FB638F0766030734FB9307500233
:105040006309F700830734FBBE850325C4F689375F
:1050500085A5232004FC832704FC232EF4FA930760
:105060000002A305F4FAFD57232AF4FA832784F6F5
:10507000138717002324E4F683C70700A309F4FA73
:10508000030734FB930700036311F7029307000340
:10509000A305F4FA832784F6138717002324E4F684
:1050A00083C70700A309F4FA25A0030734FB93077D
:1050B000D002631FF7008947232EF4FA832784F672
:1050C000138717002324E4F683C70700A309F4FA23
:1050D000030734FB9307A002631FF706832744F6F8
:1050E000138747002322E4F69C43232CF4FA8327FA
:1050F00084FB63DB0700832784FBB307F040232C8A
:10510000F4FA8947232EF4FA832784FB2320F4FC46
:10511000832784F6138717002324E4F683C7070048
:10512000A309F4FAA9A0032704FCBA878A07BA974F
:1051300086073E87830734FBBA97938707FD2320B2
:10514000F4FC832784F6138717002324E4F683C72F
:105150000700A309F4FA030734FB9307F00263D8AE
:10516000E700030734FB93079003E3DEE7FA030746
:1051700034FB9307E002631DF708832784F6138747
:1051800017002324E4F683C70700A309F4FA0307F2
:1051900034FB9307A0026316F702832744F61387B4
:1051A00047002322E4F69C43232AF4FA832784F65B
:1051B000138717002324E4F683C70700A309F4FA32
:1051C00081A8232A04FA0DA8032744FBBA878A077B
:1051D000BA9786073E87830734FBBA97938707FD04
:1051E000232AF4FA832784F6138717002324E4F68E
:1051F00083C70700A309F4FA030734FB9307F002FF
:1052000063D8E700030734FB93079003E3DEE7FA74
:10521000030734FB9307C0066318F7048327C4FB16
:1052200093E74700232EF4FA832784F613871700A9
:105230002324E4F683C70700A309F4FA030734FB29
:105240009307C0066312F7028327C4FB93E7870026
:10525000232EF4FA832784F6138717002324E4F619
:1052600083C70700A309F4FA830734FB6385074467
:10527000830734FB9387B7FB130730036367F71C7F
:1052800013972700B76700909387477EBA979C4390
:10529000828789472326F4FCC1A2A1472326F4FC78
:1052A00065AAA9472326F4FC45AAC1472326F4FC96
:1052B00065A2832744F6138747002322E4F69C4324
:1052C000E207E187BE850325C4F6D931D5A6832739
:1052D00044F6138747002322E4F69C432326F4FA7E
:1052E0008327C4FA99E7B76700909387C76323269B
:1052F000F4FA0325C4FAEF10C01F2322A4FC83276D
:1053000044FB63C80702832744FB032744FC63F282
:10531000E702832744FB2322F4FC21A88307B4FA85
:10532000BE850325C4F6AD31832744FC85072322BF
:10533000F4FC8327C4FB898B85E7032744FC832780
:1053400004FCE36DF7FC29A88327C4FA1387170030
:105350002326E4FA83870700BE850325C4F60D39AA
:105360008327C4FA8387070091CF832744FB1387E1
:10537000F7FF232AE4FAE9FB31A093050002032595
:10538000C4F63931832744FC138717002322E4FC39
:10539000032704FCE3E3E7FE21AE930784F723260B
:1053A000F4FA832744F69D07E19B138787002322A5
:1053B000E4F68843CC43830734FB3E87832644FBD3
:1053C0002E86AA850325C4FAEFF0CFF40325C4FA8C
:1053D000EF1020122322A4FC21A88307B4FABE8573
:1053E0000325C4F67536832744FC85072322F4FC85
:1053F0008327C4FB898B85E7032744FC832704FCB0
:10540000E36DF7FC29A88327C4FA13871700232626
:10541000E4FA83870700BE850325C4F6953E8327FB
:10542000C4FA83870700E5F331A093050002032542
:10543000C4F6B93E832744FC138717002322E4FCFB
:10544000032704FCE3E3E7FEA5A4830734FBBE8542
:105450000325C4F6353EA9AC8327C4FBA18B85C3C5
:10546000832744F69D07E19B138787002322E4F6F8
:105470009843DC432320E4FA2322F4FA51A0832743
:10548000C4FB918BA1C3030734FB93074006631D44
:10549000F700832744F6138747002322E4F69C4352
:1054A0003E89FD87BE8911A8832744F613874700EC
:1054B0002322E4F69C433E898149232024FB2322B6
:1054C00034FB3DA8030734FB93074006631DF70038
:1054D000832744F6138747002322E4F69C433E8A41
:1054E000FD87BE8A11A8832744F61387470023222D
:1054F000E4F69C433E8A814A232044FB232254FB4A
:10550000030734FB930740066310F704832744FA2C
:1055100063DC070201468146032504FA832544FA29
:105520003307A6403A8833380601B387B640B386BE
:105530000741B6872320E4FA2322F4FA8327C4FB29
:1055400093E71700232EF4FA232404FC032704FA1C
:10555000832744FA232CE4F8232EF4F88327C4FC91
:105560003E8B814B032784F98327C4F95A86DE8654
:105570003A85BE85EFB02FE32A87AE872309E4FA88
:105580008327C4FC3E8C814C6286E686032584F921
:105590008325C4F9EFB04FAB2A87AE87232CE4F8FC
:1055A000232EF4F8030724FBA54763D3E702030780
:1055B00034FB930780076315F7009307700211A06F
:1055C0009D47034724FBBA9793F7F70F2309F4FA93
:1055D000834724FB9387070393F6F70F832784FC05
:1055E000138717002324E4FC1397860161879387B0
:1055F00007FDA2972384E7FA832784F90327C4F9D8
:10560000D98F91C7032784FCFD47E3F9E7F483278B
:10561000C4FB858B91CF832784FC13871700232439
:10562000E4FC938707FDA2971307D0022384E7FACF
:10563000832784FC2322F4FC29A88307B4FABE85BF
:105640000325C4F6EFF0DF94832744FC850723226B
:10565000F4FC8327C4FB898B99E7032744FC832749
:1056600004FCE36CF7FC832784FCFD172324F4FC83
:10567000832784FC938707FDA297838787FABE85DB
:105680000325C4F6EFF0DF90832784FCE9FF39A0FF
:10569000930500020325C4F6EFF09F8F832744FC97
:1056A000138717002322E4FC032704FCE3E2E7FE50
:1056B000B5B2010011A001000100FA406A445A4944
:1056C000CA493A4AAA4A1A4B8A4B765CE65C0D6193
:1056D00082805D7106D622D40018232EA4FC4CC013
:1056E00010C454C418C85CC8232C0401232E140110
:1056F00093070402232CF4FC832784FD91172326AF
:10570000F4FEB707008883A747090327C4FE3A863B
:105710008325C4FD3E85EFF03F8E0100B250225438
:1057200061618280D30705E0B716493F938686FD05
:1057300013971700058363FCE602B706807F636555
:10574000D7005375A50882800111280006CE1524C4
:105750000D8985476306F5028947B2652265630CAA
:10576000F5001DE10545AD22F24005618280D305BB
:1057700000F00145B1AA0545A12A5315A520EDB7B2
:10578000B26522653120CDB721205315A520E9BF90
:10579000D30705E0B7060032139717000583637F30
:1057A000D706531705C0630007125377A5103707B4
:1057B00000888727C7003707008887260701370733
:1057C0000088C377F7688726470137070088C377C3
:1057D000F7688726870137070088C377F768872629
:1057E000C70137070088C377F76887260702C377A2
:1057F000F768D377F710D38607F0B7070088D3F59B
:10580000B61087A64702B707008807A58700C777A5
:10581000F758C777D7785375F50882805377A51066
:10582000B706008887A7C600B706008887A60601C6
:10583000B706008837060088C377F76887A6460151
:10584000B7A6993E93869699C3F7E768872686019F
:1058500037060088C3F7E7688726C6013706008841
:10586000C3F7E76887260602C3F7E768D3F7E710B0
:10587000E3F3E6F8B706483F63EEE602B70600FF3B
:105880003697B706008807A58600D30607F053753C
:10589000D508538607F0B7070088D375B61007A65A
:1058A0004702C777F7584777C768D377F708537524
:1058B000F50882803707008807250700370700882A
:1058C00087264700F9B7B707008807A587008280B9
:1058D000D30705E0B70600321397170005836375F9
:1058E000D700531705C049C7D38707F0370700888B
:1058F00053F7F71087278702370700888726C702E4
:1059000037070088C377F7688726070337070088BB
:10591000C3F7E768D38607F053F5E61087264703F9
:1059200037070088C3F7E76887268703C3F7E76868
:1059300001ED370700888726C7034377F768D387C9
:1059400007F04375A7788280D377F5103707008872
:105950008726470237070088C7F7D578C7F7E75883
:10596000072707044375E578D38707F053F5A708A1
:10597000828079714ECED30905E022D4B717493F12
:105980001394190026D206D6938787FD0580AA8432
:1059900063F7870EB7D716404AD0938737BE4E8934
:1059A00063E98704B7070080C117B3F7370163566F
:1059B0003023B706008887A746043717C93F130767
:1059C00007FDD377F5086389E70CB707008887A63A
:1059D000870453F7D708D3F7E708D3F7D708025956
:1059E00098E0DCE00545B25022549254F2494561FA
:1059F0008280B7174943938707F863F0870CB7078E
:105A0000807F6374F408135674411306A6F7931746
:105A100076011D8CD30704F0370700888726070618
:105A2000D39707C0530600F08D4653F707D0D3F73E
:105A3000E7083AE2D3F7D710D39707C053F707D058
:105A4000D3F7E7083AE4D3F7D710D3A7C7A03EE6C9
:105A500091C7D326C7A093B616008506B7770090E6
:105A6000938747930947A6854800F922634B091499
:105A7000B250225402599254F24945618280D307B0
:105A800000F088E05CE10145B9BFD377A508025971
:105A90005CE11CE1014581BFB707008887A60705C7
:105AA000B707008807A7C704D3F7E70853F7D70855
:105AB000D3F7E708D3F7D7081DB7A52AB70700889B
:105AC00087A74705B707008807A747023707008859
:105AD000FD47C377F570539507C0872747043707FD
:105AE0000088D37605D007278704CBF7F65053F705
:105AF000E61063CBA7049307F5FF377700908A077A
:105B00001307478B3E971843B7070080938707F02A
:105B1000B3F73701638AE702D3F6E708D38706E0D5
:105B2000D38607F09CC0D3F7D708D3F7E708DCE0AB
:105B3000E35009F45397D620D397F7200259330541
:105B4000A04098E0DCE045B553F6E7085D84A14647
:105B5000D30706E013D777011377F70F3307E44035
:105B6000E3D0E6FCB707008807A7C704B70700889B
:105B7000E5464BF6E678D3F5C708D307C620CBF544
:105B8000E65807A7070547F7E658D375E608D38711
:105B900005E013D777011377F70F198CE3D286F856
:105BA000B707008807A78705B7070088CBF7E66027
:105BB0005376F6084BF6E66007A7C70547F7E66099
:105BC000A1BF9860DC6002595317E720D397F720F4
:105BD0003305A04098E0DCE039B5B706008887A718
:105BE00046043717C93F130707FDD377F5006381D4
:105BF000E702B707008887A6870453F7D700D3F7D3
:105C0000E708D3F7D700025998E0DCE07D55E1BB07
:105C1000B707008887A60705B707008807A7C70446
:105C2000D3F7E70053F7D700D3F7E708D3F7D70048
:105C3000D9BF5325A52082802171232C811A3ACA0D
:105C40003A843777009013182400130787C7232658
:105C5000311B232A91194297232E111A232A911AB4
:105C60002328211B2324411B2322511B2320611B9A
:105C7000232E7119232C81192328A1192326B11948
:105C8000272E8116272C9116272A2117272831170E
:105C9000272641172724511736C232CEF1582EC875
:105CA0003EC4832C0700AA891384F6FF634516536C
:105CB0009307D6FF13D7F7411D8BBA978D87138CA7
:105CC00017003EC093173C003ECCF247E2463387B4
:105CD0008C00338AD7408247818F63480702A246EF
:105CE00013051700939527009818B6953E95D3078E
:105CF00000F063C6070003A30500D37703D0850730
:105D00001CE311079105E394A7FE63C50C049317E8
:105D100024009818938547003305F7009247130E27
:105D200001112283B38EFC00CE95D30700F02A87A1
:105D3000CE87634A04009463186391077117C3F711
:105D4000E678E39AB7FE2720FE000503110E110541
:105D5000E31DD3FD37070088072A47063707008869
:105D600087290706370700888724870637070088B2
:105D70000724C70637070088072947021247939769
:105D80002C00130B0102938A87FF131D27009384B5
:105D9000FCFF78088A043309F700B3075B013EC6AD
:105DA000938704144E9DE68AB3846701939D2A006D
:105DB00093870D141810BA9707A507FB635C50036F
:105DC000130F01119387CDFFFA975A85D3774511A9
:105DD000946311053E8EF117D39E07C0D3F70ED002
:105DE0004BF7375153F5D700D31E07C0232ED5FFED
:105DF000E31ECFFD5285E52BD30AA52053759510E0
:105E0000152BCB7785A8539C07C053770CD0D3FABA
:105E1000E7086352400F9387FAFF8A0793870714B6
:105E20001810BA9703AE07EC214533054541335F9F
:105E3000AE403315AF00330EAE401D45330545412E
:105E400023A0C7EDB35BAE407A9C63407029530733
:105E500000F0D3A7EAA06387071463D05C0393978D
:105E60002A00F117DA97014503AF0700F1173365F0
:105E7000E501E39B27FF6314052883A704EC639BDC
:105E80000726B247054503AE07000505F117E30CE9
:105E90000EFE93871A00BE8F338FAA000247A246D8
:105EA000330EF70012470A0E369E56970A079418CB
:105EB0008A073385E600180AB30EF70083270E0021
:105EC000D3F707D01CE1D30700F0634C04002A8706
:105ED000CE879463186391077117C3F7E678E39A46
:105EE000A7FF27A0FE00850F110E1105910EE357A5
:105EF000FFFDFA8A65BD631A0A1A9387FAFF8A07BB
:105F0000938707141810BA9703AE07EC935B7E4093
:105F1000E35F70F3050C6353503F032F0B00DA87E8
:105F2000DA820145630B0F16930F0010338FEF4198
:105F300023A0E201930FF00F39A003AF0700338FC6
:105F4000EF4123A0E70105059107E34855FF054F01
:105F50006355400385476301FA188947631FFA00B8
