:0200000490006A
:100000006F0000306F00C01F6F00C01F6F00801FA7
:100010006F40004C6F00001F6F00C01E6F00801EFD
:100020006F40E03A6F00001E6F00C01D6F00801D22
:100030006F40402F6F00001D6F00C01C6F00801CC0
:100040006F00401C6F40A0536F4060536F402053BF
:100050006F40E0526F40A0526F4060526F4020529C
:100060006F40E0516F40A0516F4060516F40205190
:100070006F40E0506F40A0506F4060506F40205084
:100080006F40E04F6F40A04F6F40604F6F40204F78
:100090006F40E04E6F40A04E6F40604E6F40204E6C
:1000A0006F40E04D6F40A04D6F40604D6F40204D60
:1000B0006F40E04C6F40A04C6F40604C6F40204C54
:1000C0006F40E04B6F40A04B6F40604B6F40204B48
:1000D0006F40E04A6F40A04A6F40604A6F40204A3C
:1000E0006F40E0496F40A0496F4060496F40204930
:1000F0006F40E0486F40A0486F4060486F40204824
:100100006F40E0476F40A0476F4060476F40204717
:100110006F40E0466F40A0466F4060466F4020460B
:100120006F40E0456F40A0456F4060456F402045FF
:100130006F40E0446F40A0446F4060446F402044F3
:080140006F40E04300000000E5
:10015000000000000000000000000000000000009F
:10016000000000000000000000000000000000008F
:10017000000000000000000000000000000000007F
:10018000000000000000000000000000000000006F
:10019000000000000000000000000000000000005F
:1001A000000000000000000000000000000000004F
:1001B000000000000000000000000000000000003F
:1001C000000000000000000000000000000000002F
:1001D000000000000000000000000000000000001F
:1001E000000000000000000000000000000000000F
:1001F00000000000000000000000000000000000FF
:0A0200007300203001A00000000090
:10020A0000000000000000000000000000000000E4
:10021A0000000000000000000000000000000000D4
:10022A0000000000000000000000000000000000C4
:10023A0000000000000000000000000000000000B4
:10024A0000000000000000000000000000000000A4
:10025A000000000000000000000000000000000094
:10026A000000000000000000000000000000000084
:10027A000000000000000000000000000000000074
:10028A000000000000000000000000000000000064
:10029A000000000000000000000000000000000054
:1002AA000000000000000000000000000000000044
:1002BA000000000000000000000000000000000034
:1002CA000000000000000000000000000000000024
:1002DA000000000000000000000000000000000014
:1002EA000000000000000000000000000000000004
:1002FA00000000000000970100F0938101501701EF
:10030A0000F4130181CF17650000130505AF9705A7
:10031A0000F0938585CE170600F0130606CE63FA21
:10032A00C5008322050023A0550011059105E3EAC3
:10033A00C5FE170500F0130545CC970500F2938515
:10034A0085CD6377B500232005001105E36DB5FE61
:10035A00970200009382A2CA93E21200739052306D
:10036A0059287155B7E2ADDE9382D2EA23205500AF
:06037A00F5BF00000000C9
:10038000000000000000000000000000000000006D
:10039000000000000000000000000000000000005D
:1003A000000000000000000000000000000000004D
:1003B000000000000000000000000000000000003D
:1003C000000000000000000000000000000000002D
:1003D000000000000000000000000000000000001D
:1003E000000000000000000000000000000000000D
:1003F00000000000000000000000000000000000FD
:100400006D712326111023248110000AEF30205F24
:10041000EF40404CEF30D00AEF308059010083208C
:10042000C1100324811051618280AA882E833287F3
:100430002A88AE8763960620B76500909385C5B479
:100440006371C30CC1666377D60A9336061093C6F0
:1004500016008E063355D600AA9583C505001305F0
:100460000002AE96B305D540630BD500B317B300B9
:10047000B3D6D8003317B600D58F3398B80093554C
:10048000070133D3B702131607014182B3F7B7024E
:100490001A85B30866029396070193570801D58F12
:1004A00063FC1701BA971305F3FF63E7E70063F5F1
:1004B00017011305E3FFBA97B3871741B3D8B70203
:1004C000420813580801B3F7B702B3061603C20770
:1004D0003368F800C687637BD8003A989387F8FFA3
:1004E0006366E8006374D8009387E8FF42055D8D7A
:1004F0008145828037050001C146E36DA6F4E146DF
:1005000091BF814609CAC167637FF608933606101A
:1005100093C616008E06B357D600BE9583C7050056
:10052000B69793060002B385F6406395F608B307C5
:10053000C34085459358070133DE1703131607019F
:10054000418293560801B3F7170372853303C6033C
:10055000C207D58F63FC6700BA971305FEFF63E7F8
:10056000E70063F567001305EEFFBA97B3876740AE
:1005700033D31703420813580801B3F71703B30620
:100580006602C2073368F8009A87637BD8003A98FE
:100590009307F3FF6366E8006374D8009307E3FFF3
:1005A00042055D8D8280B7070001C146E365F6F61E
:1005B000E14695B73317B600B356F300135507015C
:1005C0003313B300B3D7F800B3E7670033D3A60201
:1005D0001316070141823398B800B3F6A602B30898
:1005E00066029395060193D60701CD8E9A8563FC2A
:1005F0001601BA969305F3FF63E7E60063F516016B
:100600009305E3FFBA96B3861641B3D8A602C20794
:10061000C183B3F6A60233061603C206D58FC6867B
:1006200063FCC700BA979386F8FF63E7E70063F5BA
:10063000C7009386E8FFBA97C205918FD58DDDBDBF
:1006400063E1D514C16763FFF60213B706101347C1
:1006500017000E07B7670090B3D5E6009387C7B4BD
:10066000AE9783C70700BA9713070002B305F74098
:100670006311F7020545E3EE66E633B5C80013459E
:1006800015008280B70700014147E3E5F6FC6147AA
:10069000D1B73357F600B396B600D98E3357F3006F
:1006A0003313B300B3D7F800B3E7670013D30601E1
:1006B000B35E670213980601135808013316B6009B
:1006C00033776702330ED8031315070113D70701D9
:1006D000498F7685637CC70136971385FEFF636774
:1006E000D7006375C7011385EEFF36973307C741FF
:1006F000335E6702C207C183337767023308C803DA
:100700004207D98F728763FC0701B6971307FEFF74
:1007100063E7D70063F507011307EEFFB6974205BD
:10072000416E598D9306FEFF3377D500B38707419D
:10073000F18E1358050141823303D702B306D80264
:100740003307C7023308C8023306D7001357030123
:1007500032976373D700729893560701C29663E08D
:10076000D702E397D7D8C167FD177D8F4207337350
:10077000F300B398B8001A978145E3FCE8D67D15DD
:1007800085BB8145014582803288AA872E87639385
:10079000061AB76800909388C8B463F6C50AC166A4
:1007A000637CD6089336061093C616008E06335324
:1007B000D6009A9883C8080013030002C696B308AF
:1007C000D340630BD30033971501B356D5003318CC
:1007D0001601558FB317150113560801B356C702FA
:1007E0001315080141813377C702B386A60293151A
:1007F000070113D707014D8F6378D70042976365D0
:1008000007016373D7004297158FB356C70233773A
:10081000C702B386A602C2074207C183D98F63F815
:10082000D700C29763E5070163F3D700C297958F9E
:1008300033D517018145828037030001C146E36843
:1008400066F6E146ADB7814609CA41676374E606BC
:100850009336061093C616008E063357D600BA9804
:1008600003C70800369793060002B388E640639AF0
:10087000E6043387C540935508013356B702131574
:100880000801418193D607013377B7023306A602E8
:100890004207558F6378C70042976365070163730A
:1008A000C7004297118FB356B7023377B702B386AA
:1008B000A60295B737070001C146E360E6FAE146B4
:1008C00069BF33181601B3D6E500B3171501B39508
:1008D00015013357E500135508014D8FB3D5A60216
:1008E0001313080113530301B3F6A602B38565027F
:1008F0001396060193560701D18E63F8B600C2968F
:1009000063E5060163F3B600C2968D8E33D6A60268
:1009100042074183B3F6A60233066602C206558F2C
:100920006378C7004297636507016373C700429706
:10093000118F91B763EDD516416863F7060513B8BB
:100940000610134818000E08B768009033D306014C
:100950009388C8B49A9883C8080013030002C29809
:10096000330813416319130363E4B600636BC500D6
:100970003306C540B386D5403337C500B2873387C9
:10098000E6403E85BA858280B70800014148E3ED24
:1009900016FB614855BFB3571601B3960601DD8EAD
:1009A00033D7150113DE0601335FC7031393060126
:1009B00013530301B3970501B3551501DD8D93D78B
:1009C000050133160601331505013377C703B30E4E
:1009D000E3034207D98F7A8763FCD701B6971307E1
:1009E000FFFF63E7D70063F5D7011307EFFFB69763
:1009F000B387D741B3DEC703C205C181B3F7C703CD
:100A0000768E3303D303C207DD8D63FC6500B69594
:100A1000138EFEFF63E7D50063F56500138EEEFFCE
:100A2000B69593170701416FB3E7C701B3856540DA
:100A30001303FFFF33F76700135E0601C1833373AF
:100A40006600B30E6702338367023307C703B387B9
:100A5000C703330E670013D70E01729763736700E5
:100A6000FA97135307019A9741637D133377670011
:100A70004207B3FE6E00769763E6F500639BF500D0
:100A80006379E5003306C7403333C7009A9632874F
:100A9000958F3307E5403335E5009D8D898DB398FB
:100AA00015013357070133E5E800B3D5050182800E
:100AB000011106CE22CC26CA4AC84EC652C4F3291A
:100AC0002000B7071000FD1733F7B70013D4450116
:100AD0000E071358D501F58F93D846011374F47F90
:100AE00093D4F5013368E80093F8F87F1357D601E3
:100AF0008E07FD820E055D8F0E06B30514416395CA
:100B0000D438AE866351B01463930808B367C70046
:100B100091EB9307F07F638FF50442872A86814724
:100B2000AE8839A89387F5FFB1E32A96429733350B
:100B3000A6002A97B7068000F98E63900632854892
:100B4000937676003A8832856381067C8146094730
:100B500093E717006395E92C6383042E1307850040
:100B60003336A70032983A856F0030029306F07F43
:100B70006390D50AB365A800E3860506935768011C
:100B800093C71700858B920742872A86DDA09307BB
:100B9000F07F6319F400B365A800EDF101489308F4
:100BA000F07FCDA19307800363C8B706B707800025
:100BB0005D8FAE87FD4663C4F606930500029D8DEA
:100BC000B316B700B358F600B315B600B3E6160176
:100BD000B335B000CD8EB357F7003386A600C29769
:100BE000B336D6003387D700A288B7078000F98FC5
:100BF0006389072085089307F07F6391F826638156
:100C000009288D47639AF926638C0426814619A426
:100C100093068003E3D0F6FA814785467DBF93862D
:100C200007FE93080002B356D7008145638717017A
:100C3000930500049D8DB315B700D18DB335B00079
:100C4000CD8E814759BFE1C9B386884029E4B36797
:100C5000A8009DE39307F07FB6886394F61AB36506
:100C6000C700638505789357670193C71700858B85
:100C700092079308F07FE9B59387F6FFE38707EAC9
:100C80009305F07FE38DB6FC9306800363D7F602ED
:100C900081478546B1A09307F07F6397F800B3655D
:100CA000C700FDE90148F9AE93078003E3C2D7FE10
:100CB000B70780003368F800B687FD4663C9F602BF
:100CC000930500029D8DB316B8003353F500B3159C
:100CD000B500B3E66600B335B000CD8EB357F8006B
:100CE0003696BA97B336D6003387D700FDBD9386C4
:100CF00007FE13030002B356D800814563876700DF
:100D0000930500049D8DB315B800C98DB335B000AF
:100D1000CD8E8147F1B79305140093F7E57FF9E392
:100D2000B365A80015E863800556B366C700638104
:100D3000064A2A96B336A60042973308D7003707EB
:100D400080003377E800328563040748370780FF67
:100D50007D173377E800E5B39306F07F6315D4027F
:100D600081E5E39888F025BFB7064000B376D80048
:100D70003363C70063830668639E880463150302B8
:100D800042872A8675BB01446393D804B366C700C3
:100D900095E2FDF5014811AD9357670193C7170020
:100DA000858B920771BBB7074000F98F95CB014443
:100DB00039A04144B7074000F98F89CB91C98144DC
:100DC0003708400081459308F07FC5A3414481E581
:100DD000A28745B50144518F7DF342872A86CDBF56
:100DE0004144D5BF9307F07F638FF5002A963335D2
:100DF000A60042972A979317F70105825D8E058317
:100E0000AE88814735BB638C095C8D47639CF902D2
:100E10006387045C7D587D559308E07F95470D47B7
:100E20006384E956639D09001377F5001146630852
:100E3000C700130745003336A70032983A856392FE
:100E40000646E1A189476394F900639A04587D58E6
:100E50007D559308E07F95474DA98948B70780FFE6
:100E6000FD17F98F13571600058A518F1396F70156
:100E7000598E13D7170071B78947E39AF9FCE1D867
:100E800001488145154415A36358B00C639D0802C1
:100E9000B367C700E38F07C69387F5FF91EB33066F
:100EA000C5403307E8403335C500098F8548ADA0FC
:100EB0009306F07FE380D5CC9306800363D1F602DE
:100EC0008147854681A09307F07FE306F4CC930722
:100ED0008003E3C7B7FEB70780005D8FAE87FD468E
:100EE00063C8F604930500029D8DB316B700B3588E
:100EF000F600B315B600B3E61601B335B000CD8EDB
:100F0000B357F700B306D540B307F8403337D500E1
:100F100036863387E740A28837098000B3772701F8
:100F2000E38107EE7D1933792701328A468491AC3B
:100F3000938607FE93080002B356D7008145638766
:100F40001701930500049D8DB315B700D18DB335FE
:100F5000B000CD8E81477DB763810510B385884091
:100F600031ECB367A8009DE39307F07F639AF530F7
:100F7000B365C700638B05469357670193C7170096
:100F8000858B92079308F07FB6845DBE9387F5FF4B
:100F900099EB3305A640B337A600330707412A86ED
:100FA0001D8FB68421B71303F07FE38365FC93059F
:100FB000800363DDF50281478545B1A89307F07F83
:100FC000639DF800B365C7006384054293576701CA
:100FD00093C71700858B920745BF93078003E3CC27
:100FE000B7FCB70780003368F800AE87FD4563CFD4
:100FF000F502130300023303F340B3156800335EB8
:10100000F50033136500B3E5C50133336000B3E584
:101010006500B357F800B305B6403335B600B307E3
:10102000F7402E863387A740B684FDB5938507FE2B
:10103000130E0002B355B80001436388C7011303C0
:1010400000043303F340331368003363A3003333E6
:101050006000B3E5650081477DBF9307140093F7F7
:10106000E77FEDEB3363A800B365C70031EC631D88
:101070000300639D05209384E9FF93B414000148A5
:1010800081458148014415A663840514B305C54014
:10109000B338B500B307E840B3871741B7088000FD
:1010A000B3F81701638C08003305A64033070741E6
:1010B0003336A6003308C740B68419AA33E7F500D3
:1010C0005DDB3E882E8529A2130EF07F631DC403CD
:1010D000631A0300639C880695ED8144370840003D
:1010E0004144E1A4B7064000B376D80063800632DD
:1010F00063908806E38A05A8B7074000F98FE39854
:1011000007CA414439AE01446397C80399E9E31D16
:1011100003A6E1B737054000798DE31705E64144A2
:1011200029A8370E4000337EC70163050E00E31087
:1011300003C899BD41446316032EB684E39A05C8DB
:101140008144370840009308F07F59BF0144F5B748
:101150000144C1ACB307C540B335F5003309E840DD
:101160003309B940B7058000B375B9003E8ADDC5C3
:10117000330AA64033090741333646013309C940D3
:10118000B6846301090A4A85EF10B040930785FFD2
:10119000130700021D8F3319F9003357EA00336734
:1011A00027013319FA0063C5870C818F1388170054
:1011B00093070002B38707413315F700B3560901BF
:1011C000B317F900558DB337F0005D8D3358070123
:1011D000B3670501E38507EA9357F5011317180074
:1011E0003E979317150013F6770093767500630703
:1011F000061009466387C90C0D46638CC9086397BE
:10120000090E13F6F700914593B7C7FF6310B60AAE
:10121000B70700017D8F55C38547B1A2B3E727010A
:10122000ADF391BD5285EF10D03693078501FD4691
:10123000E3D0F6F6130785FF3317EA0063CA870287
:10124000818F13881700E3D506F7851793060002F0
:10125000B357F70001456308D800130500043305B0
:1012600005413315A7003335A0005D8D01488DB7CA
:10127000B308F440B70780FFFD177D8F4A8651B64B
:10128000AE88B684BDBE3A88328599B73A88328531
:1012900025B599C8B70700017D8F69E7F9EEA687E4
:1012A000814893E7270095A093B787FF93C717005E
:1012B000BA9737070001F98FA5F38148F9E285470E
:1012C000CDB799E4B70700017D8F39F78148C5BFD5
:1012D00093B787FF93C71700BA9737070001F98FB5
:1012E000D1E3D5DEA686A6878148BDB0B707000149
:1012F0007D8F1DF3E1DE8546814869A0B7070001B7
:101300007D8F2DE7B5E68148814737078000337729
:10131000E8006DC385081307F07F638EE806370782
:1013200080FF7D173377E8009315D7010D81C98DB4
:101330000D833E8493974801B706F07F32073183CF
:10134000F58FD98FFE0433E797002E85BA8519C033
:1013500073201400F2406244D2444249B249224A06
:1013600005618280A68781486FF00FFE8147E5BF47
:101370008546814881476FF08FFDA686A687814804
:1013800079BC8546854761BC81C4C1D2B68411BF92
:10139000130785004DB48145638609000D476398A6
:1013A000E90295E813E457002E889317D8018D8140
:1013B000DD8D9307F07F13573800E39DF8F6D98D44
:1013C0000147ADD93707080081458144A5B70947D2
:1013D0006393E900E1F8FD559308E07FE1B79308D6
:1013E000F07F79BC01480144F9BAB6840148E1BAFA
:1013F000B6844DB8AA853E844DBFE393889EE31A18
:10140000039A42872A86C1476FF08FF3E39B88CE09
:10141000C147638B05F6B7074000F98F4144E3905D
:10142000079AE39E059855BA797122D456CA66C2C6
:1014300006D626D24AD04ECE52CC5AC85EC662C418
:101440002A84B28CB68AF324200013D8450113995C
:10145000C5001378F87F1359C90013DAF501630644
:1014600008029307F07F630EF806135BD5010E099F
:10147000336B2B01B7078000336BFB0093193500EA
:10148000130C18C0814B01449DA8336BA90063095C
:101490000B0C630A09024A85EF10B00F930755FF42
:1014A000754B130785FF330BFB403319E900335BA2
:1014B0006401336B2B013319E4001308D0C0330CE3
:1014C000A840CA89C1B7EF10D00C2A8B93075B01E3
:1014D000714713050502E355F7FC611B331B6401DB
:1014E000E9BF336BA90063010B08370408003334EC
:1014F0008900AA8912044A8B130CF07F8D4B13D7F5
:101500004A011399CA001377F77FE6871359C90078
:1015100093DAFA0139CF9306F07F6307D70A0E09F1
:1015200093D7DC01B3E727013709800033E92701AE
:10153000930617C093973C00814513972B004D8F5E
:101540003308DC407D17B94633465A0163E5E60AA5
:10155000B76600900A07938606B13697184302874C
:101560008149014C854B05B78149130CF07F894BAC
:1015700019BFB3679901ADC7630909024A85EF1026
:101580005001930655FF7547930785FF158F331953
:10159000F90033D7EC00336727013399FC00930639
:1015A000D0C0CA87898E3A8941BF6685EF10607EB8
:1015B000AA8793865701714713050502E355D7FCA7
:1015C000E1173397FC00E1BF3366990119CE370765
:1015D00008009306F07F8D45E371E9F64144B1BF01
:1015E000014981478146854589BF01498147930665
:1015F000F07F894599B76366690163182B2763E615
:10160000F9269316FB0113D71900939EF901135B7A
:101610001B00B3E9E6001315890093D68701C98E34
:1016200041813353AB029398060193D808019395F7
:10163000870093D70901337BAB021A8F3387680287
:10164000420BB3E7670163FCE700B697130FF3FFA4
:1016500063E7D70063F5E700130FE3FFB697998FB1
:1016600033DEA702139709014183B3F7A70233833F
:10167000C803C2075D8FF287637C670036979307C4
:10168000FEFF6367D700637567009307EEFF369729
:10169000420F4169336FFF00330767401303F9FFBF
:1016A000B3776F0093520F0113DE050133F365002A
:1016B000B3836702B3896202B307FE02B38F3701B7
:1016C00093D70301FE97B382C20363F33701CA9233
:1016D00093DF0701969FC162FD12B3F75700C2075F
:1016E000B3F353009E976367F7017A896312F70596
:1016F00063F0FE04B382BE00B3B3D201B389D3005A
:101700004E971309FFFF968E63E6E6006392E602AA
:10171000639003026366F701639CEF0063FAF200D3
:10172000AE921309EFFF33BFB200369F968E7A97C1
:10173000338FFE403307F741B3BEEE013307D74185
:10174000FD576388E60EB352A70293570F01337714
:10175000A702968EB38F58024207D98F63FCF70118
:10176000B697938EF2FF63E7D70063F5F701938E88
:10177000E2FFB697B387F741B3DFA70213170F0154
:101780004183B3F7A702B388F803C207D98F7E87D6
:1017900063FC1701B6971387FFFF63E7D70063F574
:1017A00017011387EFFFB69713950E01598D131785
:1017B00005014183B388174193570501B30EE30236
:1017C00033836702B307FE02330EEE0213D70E0116
:1017D0001A9E72976374670041639A9713530701C7
:1017E0003E93C167FD177D8F4207B3FEFE007697DB
:1017F00063E66800AA87639C680205CFB6989307E2
:10180000F5FF468E63E1D80263E6680063916802E3
:1018100063FDE5009307E5FF13951500333EB50022
:10182000369E469EAA8563146E006304B70093E754
:1018300017001307F83F6353E01093F67700D5C203
:10184000894613641400638DD4088D466386D408DA
:10185000C9E893F6F70091456385B608938647007B
:10186000B3B5F6002E99B687ADA87D18814E65B345
:101870005686AE8B05476381EB22E38C0BFA8947D2
:101880006383FB043705080081471307F07F014697
:10189000320531815207498F7E06B366C7003E8507
:1018A000B68519C073201400B250225492540259C4
:1018B000F249624AD24A424BB24B224C924C4561A9
:1018C000828013648400014581471307F07FC9B704
:1018D00052865A89CE8779BF09E69386870049B731
:1018E0006DFEB7060001B376D90081CA370700FF45
:1018F0007D173379E900130708409306E07F63CA38
:10190000E60093D637009317D901D58F13553900C8
:1019100041B789476382F4028D476387F40091C41D
:10192000FD571307E07F29A065FE81471307F07F6D
:10193000136454003E85A9BF65D6C5BF51EB93F62D
:1019400077004A8795CA8946136414006385D402D8
:101950008D46638ED4008DE093F6F7009145638D3C
:10196000B60013B7C7FF134717004A9731A009E61F
:1019700013B787FFCDBF6DFE618313471700058B3B
:1019800005451308E841B3D6A700B3970701B3375D
:10199000F00033180901B3E70701D58F3355A900CB
:1019A00093F67700A5CE8946136414006387D406A6
:1019B0008D466380D406BDE093F6F7009145638FB2
:1019C000B60493864700B3B5F6002E95B687B9A046
:1019D0000545198D9306800363CDA606FD4663C4B5
:1019E000A600054779BF85563387E6409305000278
:1019F0003357E90081466306B5001308E843B31680
:101A00000901DD8EB336D000B367D7000145054725
:101A100041BF09E6938687007DB76DFEB70680005B
:101A2000E98E81CA136414000145814705E3054727
:101A300085B593D637009317D501D58F0D81E3096E
:101A400007E413771400E30507E401471364240057
:101A500081B5B3E7270189CF8947136414006382F6
:101A6000F4028D47638BF400954791C085478D83C1
:101A7000136424000145014721BD85476DFAA54740
:101A8000FDB785476DD6E5BF3705080081471307C9
:101A9000F07F01464144EDBB01458147E9BF2A87FC
:101AA000F3272000B707100013D84501FD1713D303
:101AB00046011378F87F1305F07FB3F8B70013736E
:101AC000F37FF58FFD81FD82631EA80033E7E800F8
:101AD00005E30545631F03055D8E05E6958D3335EA
:101AE000B00082806316A3025D8E01EE0545828000
:101AF0003707080063EBE8000545631C03035D8EB0
:101B00000DCA37070800E3F3E7FE73601800F9BF5A
:101B1000054563106802639EF800631CC700638973
:101B2000D50063180800B3E8E8003335100182805F
:101B3000014582802A88F32720003707100093D7B9
:101B4000460113D345017D172A8E1373F37F13F5D6
:101B5000F77F9307F07FB378B700B28E758FFD8162
:101B6000FD826312F302B3E8080163950808630677
:101B700065000545BDCD7D558280518F25EFE39AE7
:101B8000D5FE014582806314F502518F25E7630875
:101B90000300E390D5FE7D55A9CD2E858280B3E864
:101BA0000801E39808FE7D55A9C636858280630347
:101BB000030261D1E39FD5FAE34D65FAE34DA3FC3F
:101BC000E36917FBE399E8FCE3E5CEFB01456372AB
:101BD000DE03D1B733E8080101C5E30608FC55BFB1
:101BE000598E11C6E30108FCE38CD5FC59B7E3120A
:101BF00008F8828073601800795582802A88F3275C
:101C000020003707100093D7460113D345017D17F5
:101C10002A8E1373F37F13F5F77F9307F07FB37862
:101C2000B700B28E758FFD81FD826312F302B3E8B7
:101C3000080163950808630665000545BDCD7D551F
:101C40008280518F25EFE39AD5FE0145828063148F
:101C5000F502518F25E763080300E390D5FE7D551B
:101C6000A9CD2E858280B3E80801E39808FE7D5552
:101C7000A9C6368582806303030261D1E39FD5FA4A
:101C8000E34D65FAE34DA3FCE36917FBE399E8FC38
:101C9000E3E5CEFB01456372DE03D1B733E808010B
:101CA00001C5E30608FC55BF598E11C6E30108FCC7
:101CB000E38CD5FC59B7E31208F8828073601800F2
:101CC00009458280797122D456CA62C406D626D2CA
:101CD0004AD04ECE52CC5AC85EC666C22A84328CD6
:101CE000B68A7329200093DB45019399C50093FBC5
:101CF000FB7F93D9C90013DBF50163860B029307C1
:101D0000F07F638EFB068E099357D501B3E7370149
:101D1000B7098000B3E93701131A3500938B1BC054
:101D2000814C814495A833EAA90063010A0E638AB5
:101D300009024E85EF10E005130755FFF54793069E
:101D400085FF998FB399D900B357F400B3E73701F2
:101D5000B319D400930BD0C04E8AB38BAB40BE896D
:101D6000C1B7EF100003AA8713875701F146130587
:101D70000502E3D5E6FCE117B317F400E1BF33EA4F
:101D8000A90063090A08B7040800B3B499009204D3
:101D90002A8A930BF07F8D4C13D74A011394CA0003
:101DA0001377F77FE287318093DAFA012DCB930620
:101DB000F07F630FD70A0E049357DC01C18F3704FD
:101DC00080005D8C930617C093173C0081451397E4
:101DD0002C00B69B4D8FA94633485B0193881B00AE
:101DE00063C5E626894663CDE60A7D17854663E826
:101DF000E60CAE8C09476389EC460D47638BEC46D5
:101E000005476397EC20814601462DA98149814B06
:101E1000854C01BF8149930BF07F894C19B7B3679B
:101E20008401A5C71DC42285EF00B076930655FF37
:101E30007547930785FF158F3314F4003357EC0073
:101E4000418F3314FC009306D0C0A287898E3A8458
:101E5000B5BF6285EF00F073AA879386570171477B
:101E600013050502E356D7FCE1173317FC00E1BF69
:101E7000336C840163000C02370708009306F07F7F
:101E80008D45E376E4F4C14499B701448147814626
:101E9000854535BF014481479306F07F894505BFDD
:101EA00085463397E600137607536317061A937631
:101EB00007246394063A137787086312071A41636D
:101EC0009305F3FF13570A0113D50701337ABA00BC
:101ED000B3F2B700B3874203330E570213D607019C
:101EE000B3064503F2963696B30EA7026373C60196
:101EF0009A9E935606016D8EED8F135F0401E18D5E
:101F000042063E963304BA02B307B702330A4F03C0
:101F1000330EE7033E9A1357040152976374F70098
:101F2000C1673E9EC163938FF3FFB377F7011353ED
:101F300007013374F4017293B3FFF90113DE090151
:101F4000C207A297B309C503BE963384F2033305D3
:101F5000F50313570401B3025E0216952A976373C3
:101F600057009E99135507014E95C1699383F9FF58
:101F700033777700420733747400B30287003384E9
:101F8000BF02B305BE0213570401330ECF03330F54
:101F9000FF032E9F3A9F6373BF004E9E33777F00EF
:101FA000337474004207F69622973A93B3B7F6005B
:101FB0009A97B38556003E95B3B6D500AA963337A7
:101FC000E30033B367003334F5003367670033B59C
:101FD000A600135F0F017A97498C3A94729493D7B5
:101FE000760126045D8C93979500D18FB337F0006E
:101FF000DD8137070001CD8FA606618FD58F35C3F0
:1020000013D71700858B5D8F9317F401D98F058047
:102010001387F83F6355E00E93F67700A1CE89460B
:1020200093E414006306D9048D46630ED90263134A
:10203000090493F6F7001146638EC60293864700A3
:1020400033B6F6003294B68735A0BD466303D72277
:10205000AD466306D7005A884E84D28761BB568846
:1020600049BBDE8875B76317080093868700C9BF30
:10207000E31D08FEB7060001E18E99C6370700FF91
:102080007D17798C138708409306E07F63C1E604CF
:102090008D831316D4015D8E93563400B206520719
:1020A000B182558F7E08B36707013285BE8599C01E
:1020B00073A01400B250225492540259F249624A59
:1020C000D24A424BB24B224C924C456182808947A6
:1020D0006304F9028D476308F900630809007D561F
:1020E0001307E07F31A0E31C08FE01461307F07FD1
:1020F00093E45400B2865DB7E30308FEFDB751EFE9
:1021000093F6770022878DCE894693E41400630707
:10211000D9028D46630FD9006314090293F6F700C4
:102120001146638FC60013B7C7FF134717002297E6
:1021300001A86317080013B787FFC5BFE31D08FE9A
:10214000618313471700058B85469388E84133D692
:10215000D700B3971701B337F000B3181401B3E7F2
:102160001701D18FB356D40013F677003DCE094640
:1021700093E414006309C9060D466301C90663169A
:10218000090613F6F70091456301B606138647006A
:10219000B335F600AE96B28789A88546998E1306A8
:1021A0008003634ED6067D466344D600054771BF63
:1021B00005563307E640930500023357E400014615
:1021C0006386B6009388E843331614015D8E333678
:1021D000C000B367C7008146054779B76317080099
:1021E0001386870075B7E31D08FE37068000758EDD
:1021F00001CA93E414008146014619EF054779BDF1
:102200001396D6018D835D8E8D82E30907E813F75F
:102210001400E30507E8014793E4240041B533E6E1
:10222000870011CE894793E414006304F9028D47B7
:10223000630CF90015466303090005460D8293E41B
:1022400024008146014799BD0546E31908FE25464D
:10225000F5B70546E30408FEDDBFB706080013071F
:10226000F07F0148C1441DBD814601461307F07F40
:1022700035B5B706080001461307F07F014839BDA0
:10228000011106CE22CC26CA4AC84EC652C4F32932
:102290002000B7071000FD1733F7B7000E0793585B
:1022A000D501F58FB3E8E80013D7460113D44501F3
:1022B0001358D60193D4F5018E071377F77F930552
:1022C000F07F1374F47F0E05FD823368F8000E066C
:1022D0006310B704B365C8009307148091CD3683AB
:1022E000639BD448638507220DC09357680193C749
:1022F0001700858B9207B9A813C31600639764482B
:10230000638707208146631604481304F07F49AAB7
:1023100013C31600B307E440639C6438635BF01298
:1023200035EFB367C80081EB630DB40446882A8695
:102330008147228705A09307F4FFB1E32A964698C8
:102340003335A6002A98370780003377E800631BEF
:102350000732054793767600C28832856387067C0C
:102360008146094693E717006390C92E638E042EB9
:1023700013068500B335A600AE98328575A7631F96
:10238000B408B3E6A800E38F060293D7680193C7A9
:102390001700858B920746882A8625AA6317B40002
:1023A000B3E6A8006381061CCDB713078003634B17
:1023B000F706370780003368E8007D476347F70674
:1023C000930600029D8E3317D800B355F600B3165E
:1023D000D6004D8FB336D000558FB357F800330673
:1023E000A7003337E600C6973388E7002287B70790
:1023F0008000B377F800638A07221304170093075D
:10240000F07F6312F428638709008D47639DF928E4
:10241000639604228148814615475DA21307800315
:10242000E35DF7F8814705475DBF138707FE930516
:1024300000023357E80081466387B7009306000423
:102440009D8EB316D800D18EB336D000558F8147FC
:1024500079B7D5CFB307874039C09306800363C1EE
:10246000F608B7068000B3E8D800FD4663CDF6064F
:10247000930500029D8DB396B8003353F500B31554
:10248000B500B3E66600B335B000CD8EB3D7F80023
:102490003696C297B336D6003388D70089BF3E84BC
:1024A000B3E7A80091E79307F07F631CF41E09A827
:1024B0009307F4FFE38407E89306F07F631ED400DC
:1024C000B366C800CDC29357680193C71700858BC8
:1024D00092071307F07FBDBD93068003E3D7F6F89C
:1024E0008147854675B7938607FE13030002B3D66E
:1024F000D800814563876700930500049D8DB395DF
:10250000B800C98DB335B000CD8E814751B7930661
:10251000140093F7E67FF5EBB3E6A80015E86385B2
:1025200006563367C8006307074A2A963337A60062
:102530004698B308E8003707800033F7E800328593
:10254000630A0748370880FF7D1833F8080111B582
:102550009305F07F631AB40289EAE31C87F6B36639
:10256000C800E39406D881483DA4B705400033FE77
:10257000B8003363C800630D0E64631E8706631FD3
:10258000030046882A86F9B36311B706B365C8000D
:1025900099E9E5FA81481304F07FF5AAB375B8000C
:1025A000BDC1014701A80147B7074000B377F80054
:1025B000A9C395CE8144B708400081461304F07F3B
:1025C0009397D8018D82DD8E9307F07F13D6380064
:1025D0006313F458D18E0146638F06563706080000
:1025E000814681448DAB4147C1B7014791E6BA8727
:1025F000CDB54147E5BF01473368C800E31C08FA81
:1026000046882A86EDB74147C5BF9307F07F6380B0
:10261000F6022A963335A60046982A989317F801B1
:1026200005825D8E135818003687814725B363886D
:1026300009588D47639DF902638304588146FD580C
:102640007D551307E07F95470D46638EC94C639D0A
:1026500009001376F50091456308B600130645009E
:10266000B335A600AE983285639406467DA98947A6
:102670006394F90063950454FD587D551307E07F7A
:10268000954765A10944B70780FFFD17B377F800A8
:1026900013571600058A518F1396F701598E13D8D8
:1026A0001700228759B78947E398F9FCF1D49DB305
:1026B0006355F00E1DEBB367C800E38707C69307A9
:1026C000F4FF99EB3306C540338808413335C50024
:1026D0003308A840054785A0E305B4CA1307800363
:1026E000635FF700814705472DA8E30BB4CA1307C2
:1026F0008003E349F7FE370780003368E8007D4731
:102700006347F704930600029D8E3317D800B35534
:10271000F600B316D6004D8FB336D000558FB357A1
:10272000F8003307E5403338E500B387F8403A86D0
:1027300033880741228737098000B3772801E38671
:1027400007EE7D1933792801328A3A842DAC13873C
:1027500007FE930500023357E80081466387B70000
:10276000930600049D8EB316D800D18EB336D000E8
:10277000558F81477DB7F5C721C89357680193C727
:102780001700858B9207B684F1B6E1CF31C0814640
:102790009A8481483A84014725B5E1C7B307874049
:1027A00029E49A843E84B3E7A800E38E07CE93071A
:1027B000F4FF8DE33305A640B337A6003308184174
:1027C0002A863308F84039B7B6841304F07FE1BF96
:1027D0009A84E5BF9306F07FE304D4CE930680038A
:1027E00063DEF600814785462DA89306800363C803
:1027F000F606B7068000B3E8D8009A84FD4663CC9D
:10280000F602930500029D8DB396B8003353F50090
:10281000B315B500B3E66600B335B000CD8EB3D7BF
:10282000F800B306D640B335D600B307F840368675
:102830003388B74009B7938607FE13030002B3D667
:10284000D800814563876700930500049D8DB3958B
:10285000B800C98DB335B000CD8E8147D9B79A8401
:1028600051B79307140093F7E77FFDE7B366C800FD
:10287000B3E5A80029E899E9639B06209384E9FF62
:1028800093B4140081488146014431B7638406142F
:102890003307C540B336E500B3870841958FB706C7
:1028A0008000FD8E99CA3305A6403308184133369F
:1028B000A600B308C8409A8431AAB366F700DDDEEB
:1028C000BE883A8501AA130EF07F631EC40381ED12
:1028D000631E87068144A1C2B7054000B375B800E6
:1028E000A5C99A8485BC37064000B3F5C800638A41
:1028F000052E63118706E38006AA3376C800E3122B
:1029000006CA4147CDAC6315C70391EAE39505A814
:1029100081441304F07FB7084000414755B1370E9A
:102920004000337EC80163010E02E39C05C655BF1B
:1029300001476392052C9A84E39B06CA8144B70839
:1029400040001304F07FD1BF4147E5B70147E5B729
:102950004147D5B7014745A4B307C5403337F50014
:10296000338908413309E940370780003377E900AC
:102970003E8A55CB330AA640330918413336460107
:102980003309C9409A846304090A4A851921130747
:1029900085FF13050002198D3319E9003355AA008C
:1029A000336825013319EA006347870C018F9308C8
:1029B000170093070002B38717413317F800B35687
:1029C0001901B317F900558FB337F0003365F700DD
:1029D000B3581801B3671501E38607EA9357F50169
:1029E000139718003E979317150013F67700937608
:1029F00075006307061009466386C90C0D46638B94
:102A0000C9086397090E13F6F700914593B7C7FFFE
:102A1000631EB608B70700017D8F6310071063922D
:102A20000610854775A0B3E72701B1FF81BD528528
:102A30008D2613078501FD47E3DDE7F461153318A3
:102A4000AA00634A8702018F93081700E3D317F7A0
:102A50000517930700023357E80001456388F80023
:102A600013050004330515413315A8003335A000C4
:102A7000598D814885B7B70780FFFD173307E440BC
:102A80003378F8004A8655B6C2883285A1B7C28825
:102A9000328515B591C8B70700017D8F25EFA68750
:102AA00085CAA68601474DB693B787FF93C717001F
:102AB000BA9737070001F98FADE30147BDD28546CC
:102AC000854759B689E8B70700017D8F854721E71B
:102AD00093E7270099A893B787FF93C71700BA9782
:102AE00037070001F98F9DE7CDE2A6870147CDB7F3
:102AF000B70700017D8F15E38DD685460147C9B71D
:102B0000B70700017D8F01EF814785C285460147E8
:102B1000814781B8A687014791B08547EDBF8147BE
:102B2000DDBF014769BFB9CCB5E6B7068000B3F693
:102B3000D800D9CA130417001307F07F630EE4040A
:102B4000370680FF7D1633F6C8009316D6010D8137
:102B5000C98E0D823E87B707F07F520432067D8C06
:102B60003182518CFE04B36794003685BE8519C34B
:102B700073201700F2406244D2444249B249224ACB
:102B80000561828013068500E1BCA686A687014701
:102B90006FF0CFFDB6842DBF8146638609000D47D7
:102BA0006397E90089E813E75700B68811BC094725
:102BB0006393E900EDF8FD561304E07FEDB71304CD
:102BC000F07F89B88148EDBA3A84AA863E87CDBAAB
:102BD000E31B87A2E31903A046882A86C1476FF04A
:102BE0006FF7E31087D2C147638706FA3376C800D0
:102BF0004147E311069CE39F069A19B4F32720008E
:102C0000B7071000FD1733F7B700D181F58F93F5A3
:102C1000F57FD1821308F07F93F6F67F6388050174
:102C20000145639D06035D8E15E28280598D11E595
:102C30006396B6025D8E19EA828037050800636CE0
:102C4000A7000545639CB6005D8E09CA37070800DA
:102C5000054563F5E70073601800054582802A8604
:102C6000F3272000B707100093D645011388F7FF1C
:102C700093F6F67F1307E03F3378B800FD81634792
:102C8000D700D1EE3365A80059E982801307D041FF
:102C90006358D702B707008093C7F7FF3385F50065
:102CA000D1C19307E04141476395F6042E0893573D
:102CB00056013368F800631E08022E0635E682804E
:102CC000B367F800130830433308D8407D476345A5
:102CD00007039386D6BE3317D500335806013395C4
:102CE000D7003337E0003365050199C13305A040B3
:102CF00019C3732017008280130500020147630681
:102D0000A8001387D6C03397E700518F13063041D0
:102D1000B306D6403337E00033D5D700F9B70145C5
:102D20000547C1BF4147F1B72E87E1B7411106C63C
:102D300022C426C221CD9357F54133C4A7001D8C70
:102D40009354F5012285B1201307E041A947098F6B
:102D500063C8A702AD47898F5505B357F4003314F4
:102D6000A4002685B207B18352077E055D8FB2406D
:102D7000B367A700228522449244BE854101828028
:102D80005515B317A40026850144E9BF01478147C3
:102D9000E5BFC1676376F5029337051093C7170047
:102DA0008E0737670090930600029D8E3355F5001D
:102DB0009307C7B4AA9703C507003385A64082804E
:102DC00037070001C147E36EE5FCE147D9BF7971E0
:102DD00022D60018232EA4FC9307C4FD2326F4FE5C
:102DE0008327C4FE2324F4FE832784FE9C632722CA
:102DF000F4FE872744FE5385F720325445618280D4
:102E0000011122CE0010AA87A307F4FE0347F4FEA7
:102E10009307000663FEE7000347F4FE9307A0074D
:102E200063E8E7008347F4FE811793F7F70F19A0D3
:102E30008347F4FEA307F4FE8347F4FE93B707032A
:102E400093C7170013F7F70F8347F4FE93B7A70351
:102E500093F7F70FF98F93F7F70F81CB8347F4FEC2
:102E6000938707FDA307F4FE25A88347F4FE93B7D5
:102E7000170493C7170013F7F70F8347F4FE93B7B0
:102E8000770493F7F70FF98F93F7F70F81CB834709
:102E9000F4FE938797FCA307F4FE19A0A30704FE92
:102EA0008347F4FE3E85724405618280797106D6BF
:102EB00022D40018232EA4FCAE87A30DF4FC2324F7
:102EC00004FE8347B4FD3E85253FAA872324F4FEF4
:102ED000232604FE81A0832784FE92072324F4FE88
:102EE0000100EF10B00AAA87EDDFEF10900BAA8760
:102EF000A303F4FE834774FE3E851937AA873E87F5
:102F0000832784FEBA972324F4FE8327C4FE850713
:102F10002326F4FE8327C4FD8983FD170327C4FEFF
:102F2000E36BF7FA832784FE3E85B2502254456155
:102F300082802D71232E1110232C811000129307F3
:102F4000E004A307F4FE930730052307F4FE2324CF
:102F500004FE232204FE232004FE232E04FC232C43
:102F600004FC232A04FC232804FC0100EF101002B7
:102F7000AA87EDDFEF10F002AA87A307F4FC03474E
:102F8000F4FC930700026309F7280347F4FCA54704
:102F90006304F7280347F4FCB547630FF72603479C
:102FA000F4FCA947630AF7260347F4FC93073002B1
:102FB0006315F7040100EF10607DAA87EDDFEF10C5
:102FC000407EAA87A307F4FC8347F4FC2307F4FEA2
:102FD0000100EF10A07BAA87EDDFEF10807CAA87AD
:102FE000A307F4FC8347F4FCA307F4FEB767009043
:102FF0001385C794EF20E07F11A48347E4FE1307F5
:1030000050076380E706130750076348F71E13074E
:1030100050056344F7041307100463C0E71E938749
:10302000F7FB0547B317F70005672D077D8F33378B
:10303000E0001377F70F59E7370715007D8F333717
:10304000E0001377F70F11EF0967F98FB337F0003E
:1030500093F7F70F639C070E4DA213073007639E8B
:10306000E718832784FE99EF8347F4FCBE85130598
:1030700000022D3D2322A4FE832784FE85072324FE
:10308000F4FEADAA032784FE85476310F702834749
:10309000F4FCBE8513050002113D232CA4FC8327FC
:1030A00084FE85072324F4FE91AA8347F4FCBE85A1
:1030B0002145ED3B232AA4FC232404FE8547232835
:1030C000F4FC2DAA832784FE99EF8347F4FCBE8588
:1030D00013050002E13B2322A4FE832784FE85071B
:1030E0002324F4FE21AA032784FE85476310F702F8
:1030F0008347F4FCBE85130500024D3B2320A4FE4C
:10310000832784FE85072324F4FECDA8032784FEAD
:1031100089476310F7028347F4FCBE85130500025C
:103120007133232CA4FC832784FE85072324F4FE1B
:10313000F1A08347F4FCBE8521458D3B232AA4FCE6
:10314000232404FE85472328F4FC4DA8832784FE0E
:1031500099EF8347F4FCBE8513050002813B2322CF
:10316000A4FE832784FE85072324F4FE41A80327B9
:1031700084FE85476310F7028347F4FCBE85130580
:1031800000022D332320A4FE832784FE85072324F9
:10319000F4FEADA0032784FE89476310F70283473E
:1031A000F4FCBE85130500021133232EA4FC8327F3
:1031B00084FE85072324F4FE91A0032784FE8D4717
:1031C0006310F7028347F4FCBE8513050002F9394A
:1031D000232CA4FC832784FE85072324F4FE39A82E
:1031E0008347F4FCBE852145D131232AA4FC232446
:1031F00004FE85472328F4FC11A00100832704FD69
:10320000E38507D6232804FC01000347F4FE930757
:10321000E0046307F70419A0010081BB0347F4FE33
:103220009307A005630CF7020347F4FE93074004DD
:103230006304F7020347F4FE93075005630CF7009D
:103240000347F4FE9307D0046314F700914711A8D5
:10325000814701A88D4731A0894721A0854711A04A
:1032600081472324F4FC832784FC73902700814743
:10327000739017008347E4FE9387F7FB130740031F
:10328000636FF77013972700B76700909387C7C4E1
:10329000BA979C438287032544FE153E2724A4F851
:1032A000832744FE538A07F0537A0AC0D287232229
:1032B000F4F8832744F82320F4F8F3271000232E92
:1032C000F4F68327C4F7232CF4F6832504F8B767B4
:1032D00000901385079CEF20C051032784FD8327AE
:1032E00004F86319F700B76700901385879CEF20F7
:1032F000405039A0B76700901385C79CEF20604FFE
:10330000832584F7B76700901385079DEF20604EF3
:10331000032744FD832784F76319F700B7670090FC
:103320001385879DEF20E04CA5ADB767009013850E
:10333000C79DEF20004CADA5032544FE493C272E38
:10334000A4F8832744FE538A07F0537A1AC0D28721
:10335000232CF4F8832784F9232AF4F8F3271000A8
:103360002328F4F8832704F92326F4F8832544F965
:10337000B76700901385079CEF20A047032784FDC3
:10338000832744F96319F700B76700901385879C7A
:10339000EF20204639A0B76700901385C79CEF2027
:1033A00040458325C4F8B76700901385079DEF203B
:1033B0004044032744FD8327C4F86319F700B76727
:1033C00000901385879DEF20C042D9ABB76700906E
:1033D0001385C79DEF20E041E1A3032544FEC53AD4
:1033E0002728A4FA832744FE3E8A537A0AD0D307BB
:1033F0000AE02326F4FA8327C4FA2324F4FAF327F5
:1034000010002322F4FA832744FA2320F4FA8325B8
:1034100084FAB76700901385079CEF20803D03274F
:1034200084FD832784FA6319F700B767009013853A
:10343000879CEF20003C39A0B76700901385C79C9C
:10344000EF20203B832504FAB76700901385079D82
:10345000EF20203A032744FD832704FA6319F7007D
:10346000B76700901385879DEF20A03815ABB7672D
:1034700000901385C79DEF20C0371DA3032544FE90
:10348000B9322722A4FC832744FE3E8A537A1AD0FD
:10349000D3070AE02320F4FC832704FC232EF4FA4C
:1034A000F3271000232CF4FA832784FB232AF4FA51
:1034B0008325C4FBB76700901385079CEF2060331A
:1034C000032784FD8327C4FB6319F700B7670090C7
:1034D0001385879CEF20E03139A0B76700901385F2
:1034E000C79CEF200031832544FBB767009013850C
:1034F000079DEF200030032744FD832744FB631919
:10350000F700B76700901385879DEF20802E49A9AB
:10351000B76700901385C79DEF20A02D51A103250B
:1035200044FEEFF0DF8A272EA4EE032504FEEFF021
:103530001F8A272CA4EE832744FE538A07F0832793
:1035400004FED38A07F0537B5A01D3070BE0232AEA
:10355000F4EE832744EF2328F4EEF327100023260C
:10356000F4EE8327C4EE2324F4EE832504EFB7673B
:1035700000901385079CEF20C027032784FD832735
:1035800004EF6319F700B76700901385879CEF205D
:10359000402639A0B76700901385C79CEF206025AF
:1035A000832584EEB76700901385079DEF20602484
:1035B000032744FD832784EE6319F700B767009063
:1035C0001385879DEF20E022E1AEB7670090138559
:1035D000C79DEF200022E9A6032544FEEFF02FFF50
:1035E000272AA4F0032504FEEFF06FFE2728A4F09D
:1035F000832744FE538A07F0832704FED38A07F00B
:10360000537B5A09D3070BE02326F4F08327C4F039
:103610002324F4F0F32710002322F4F0832744F04E
:103620002320F4F0832584F0B76700901385079C6E
:10363000EF20201C032784FD832784F06319F70003
:10364000B76700901385879CEF20A01A39A0B76751
:1036500000901385C79CEF20C019832504F0B7673D
:1036600000901385079DEF20C018032744FD832792
:1036700004F06319F700B76700901385879DEF206A
:10368000401739AEB76700901385C79DEF206016CD
:1036900001AE032544FEEFF08FF32722A4F40325A7
:1036A00004FEEFF0CFF22720A4F4832744FE3E8AE5
:1036B000832704FEBE8A530A0AF0D38A0AF0537B9A
:1036C0005A11530B0BE0DA87232EF4F28327C4F34D
:1036D000232CF4F2F3271000232AF4F2832744F377
:1036E0002328F4F2832584F3B76700901385079CA1
:1036F000EF202010032784FD832784F36319F7004C
:10370000B76700901385879CEF20A00E39A0B7679C
:1037100000901385C79CEF20C00D832504F3B76785
:1037200000901385079DEF20C00C032744FD8327DD
:1037300004F36319F700B76700901385879DEF20A6
:10374000400BB9ACB76700901385C79DEF20600AA6
:1037500081ACBD47739007BE032544FEEFF02FE711
:103760002726A4F2032504FEEFF06FE62724A4F237
:10377000832744FE3E8A832704FEBE8A530A0AF04A
:10378000D38A0AF0537B5A19530B0BE0DA872322B2
:10379000F4F2832744F22320F4F2F3271000232EBF
:1037A000F4F08327C4F1232CF4F0832504F2B767E7
:1037B00000901385079CEF20C003032784FD832717
:1037C00004F26319F700B76700901385879CEF2018
:1037D000400239A0B76700901385C79CEF206001B5
:1037E000832584F1B76700901385079DEF20600063
:1037F000032744FD832784F16319F700B76700901E
:103800001385879DEF10F07E61AAB767009013853E
:10381000C79DEF10107E69A2BD47739007BE0325B8
:1038200044FEEFF0CFDA272AA4F6832744FE3E8A2F
:10383000530A0AF0D37A0A58D38A0AE0D687232893
:10384000F4F6832704F72326F4F6F3271000232445
:10385000F4F6832784F62322F4F68325C4F6B767AB
:1038600000901385079CEF10D078032784FD8327F1
:10387000C4F66319F700B76700901385879CEF10B3
:10388000507739A0B76700901385C79CEF1070760A
:10389000832544F6B76700901385079DEF10707578
:1038A000032744FD832744F66319F700B7670090A8
:1038B0001385879DEF10F073E5A0B767009013851F
:1038C000C79DEF101073E9A8032544FEEFF02FD039
:1038D0002720A4F6032504FEEFF06FCF272EA4F4D3
:1038E0000325C4FDEFF0AFCE272CA4F4832744FEBC
:1038F0003E8A832704FEBE8A8327C4FD3E8B530A7B
:103900000AF0D38A0AF0530B0BF0C37B5AB1D38B66
:103910000BE0DE87232AF4F4832744F52328F4F40C
:10392000F32710002326F4F48327C4F42324F4F4AB
:10393000832504F5B76700901385079CEF10706B23
:10394000032784FD832704F56319F700B767009008
:103950001385879CEF10F06939A0B7670090138535
:10396000C79CEF101069832584F4B7670090138516
:10397000079DEF101068032744FD832784F4631923
:10398000F700B76700901385879DEF10906609A830
:10399000B76700901385C79DEF10B06511A00100B7
:1039A000B76700901385C794EF10B0646FF0EFDB3A
:1039B000411106C622C40008EFF0AFD70100B240A3
:1039C000224441018280011122CE00102326A4FE50
:1039D0002324B4FE8327C4FE032784FE98C301007A
:1039E000724405618280011122CE00102326A4FEBC
:1039F0008327C4FE9C433E85724405618280411149
:103A000006C622C400088145370500A06D3F8145E8
:103A1000B70700A0138547007D378145B70700A091
:103A2000138587004D37FD55B70700A013850701A3
:103A3000593FB70700049385F7FFB70700A0138528
:103A4000470151378145B70700A013858701A53F7E
:103A50000145952A014531200100B240224441012F
:103A60008280797106D622D40018232EA4FC8327E5
:103A7000C4FD93F7F70FBD8BA307F4FE8327C4FDA6
:103A8000918393F7F70FBD8B2307F4FE8327C4FDC3
:103A9000A18393F7F70FBD8BA306F4FE8327C4FD24
:103AA000B18393F7F70FBD8B2306F4FE8327C4FD84
:103AB000C18393F7F70FBD8BA305F4FE8327C4FDE5
:103AC000D18393F7F70FBD8B2305F4FE8347F4FEF4
:103AD00037670090130707D2BA9783C70700A30779
:103AE000F4FE8347E4FE37670090130707D2BA97C6
:103AF00083C707002307F4FE8347D4FE376700908F
:103B0000130707D2BA9783C70700A306F4FE8347BB
:103B1000C4FE37670090130707D2BA9783C7070020
:103B20002306F4FE8347B4FE37670090130707D2DD
:103B3000BA9783C70700A305F4FE8347A4FE37673F
:103B40000090130707D2BA9783C707002305F4FE36
:103B50008347C4FE139787018347D4FEC2075D8F56
:103B60008347E4FEA2075D8F8347F4FED98F2322AB
:103B7000F4FE832544FE370500A0B135B70700A049
:103B8000138547008D352322A4FE032744FEC17709
:103B9000F98F2322F4FE8347A4FE1397870083271F
:103BA00044FE5D8F8347B4FED98F2322F4FE832524
:103BB00044FEB70700A01385470031350100B2501D
:103BC000225445618280797106D622D40018232EB2
:103BD000A4FC8327C4FD93F7F73F232EF4FCB7071B
:103BE00000A01385470001352326A4FE0327C4FE49
:103BF000B70701FCFD17F98F2326F4FE8327C4FDC8
:103C0000C2070327C4FED98F2326F4FE8325C4FEF2
:103C1000B70700A0138547007D330100B25022543E
:103C200045618280011106CE22CC0010B70700A0AA
:103C3000138587004D3B2326A4FE8327C4FE93C72C
:103C4000F7FFA983858B2326F4FE8327C4FE3E85D8
:103C5000F240624405618280011106CE22CC001040
:103C6000B70700A013858700BD3B2326A4FE83274A
:103C7000C4FE93F7F73F2326F4FE8327C4FE3E8558
:103C8000F240624405618280011122CE0010232699
:103C9000A4FE2324B4FE8327C4FE032784FE98C316
:103CA0000100724405618280011122CE001023269A
:103CB000A4FE8327C4FE9C433E8572440561828036
:103CC000411106C622C44AC24EC0000885460546B8
:103CD000854501458120EF0030232A879307400660
:103CE000B357F7023E8981494A88CE880147814708
:103CF00005468146A94505451D23014785460146E0
:103D00008545014581210100B24022441249824982
:103D1000410182801D71A2CE80102326A4FA2324A3
:103D2000B4FA2322C4FA2320D4FA832784FA858B99
:103D30002324F4FA832744FA858B2322F4FA832779
:103D400004FABD8B2320F4FA0327C4FA9D4763E8E5
:103D5000E7048327C4FA8A072326F4FEF32780BFEB
:103D60002324F4FC832784FC2322F4FE8327C4FE4F
:103D70003D47B317F70093C7F7FF3E87832744FEFD
:103D80007D8F8327C4FE832604FAB397F600D98F6C
:103D90002322F4FE832744FE739087BF9DAC032744
:103DA000C4FABD4763E9E7048327C4FAE1178A0729
:103DB0002326F4FEF32790BF2326F4FC8327C4FCBC
:103DC0002322F4FE8327C4FE3D47B317F70093C7B1
:103DD000F7FF3E87832744FE7D8F8327C4FE83261B
:103DE00004FAB397F600D98F2322F4FE832744FE0A
:103DF000739097BF39AC0327C4FADD4763E9E70442
:103E00008327C4FAC1178A072326F4FEF327A0BF2D
:103E10002328F4FC832704FD2322F4FE8327C4FE19
:103E20003D47B317F70093C7F7FF3E87832744FE4C
:103E30007D8F8327C4FE832604FAB397F600D98FBB
:103E40002322F4FE832744FE7390A7BFD9A2032741
:103E5000C4FAFD4763E9E7048327C4FAA1178A0778
:103E60002326F4FEF327B0BF232AF4FC832744FD66
:103E70002322F4FE8327C4FE3D47B317F70093C700
:103E8000F7FF3E87832744FE7D8F8327C4FE83266A
:103E900004FAB397F600D98F2322F4FE832744FE59
:103EA0007390B7BFBDA20327C4FA9307700263E9FA
:103EB000E7048327C4FA81178A072326F4FEF32731
:103EC000C0BF232CF4FC832784FD2322F4FE832728
:103ED000C4FE3D47B317F70093C7F7FF3E8783271C
:103EE00044FE7D8F8327C4FE832604FAB397F60031
:103EF000D98F2322F4FE832744FE7390C7BF11AAF3
:103F00000327C4FA9307F00263EAE7048327C4FA9D
:103F1000938787FD8A072326F4FEF327D0BF232E3D
:103F2000F4FC8327C4FD2322F4FE8327C4FE3D470F
:103F3000B317F70093C7F7FF3E87832744FE7D8FB3
:103F40008327C4FE832604FAB397F600D98F232271
:103F5000F4FE832744FE7390D7BF65A80327C4FAF5
:103F60009307700363EAE7048327C4FA938707FD86
:103F70008A072326F4FEF327E0BF2320F4FE8327DD
:103F800004FE2322F4FE8327C4FE3D47B317F70047
:103F900093C7F7FF3E87832744FE7D8F8327C4FEA8
:103FA000832604FAB397F600D98F2322F4FE8327E1
:103FB00044FE7390E7BFB1A80327C4FA9307F00348
:103FC00063E9E7048327C4FA938787FC8A072326DB
:103FD000F4FEF327F0BF2324F4FE832784FE23227C
:103FE000F4FE8327C4FE3D47B317F70093C7F7FFDE
:103FF0003E87832744FE7D8F8327C4FE832604FAF1
:10400000B397F600D98F2322F4FE832744FE7390E2
:10401000F7BF0327C4FAFD4763E7E7088327C4FA1D
:104020002322F4FCF32740BF232CF4FA832784FBDC
:104030002322F4FE832744FC0547B317F70093C7F8
:10404000F7FF3E87832744FE7D8F832744FC83262A
:1040500044FAB397F600D98F2322F4FE832744FE57
:10406000739047BFF32720BF232AF4FA832744FB2A
:104070002322F4FE832744FC0547B317F70093C7B8
:10408000F7FF3E87832744FE7D8F832744FC8326EA
:1040900084FAB397F600D98F2322F4FE832744FED7
:1040A000739027BF61A80327C4FA9307F00363E75F
:1040B000E7088327C4FA81172322F4FCF32750BFB3
:1040C0002320F4FC832704FC2322F4FE832744FCF2
:1040D0000547B317F70093C7F7FF3E87832744FED2
:1040E0007D8F832744FC832644FAB397F600D98F4B
:1040F0002322F4FE832744FE739057BFF32730BF7B
:10410000232EF4FA8327C4FB2322F4FE832744FCE6
:104110000547B317F70093C7F7FF3E87832744FE91
:104120007D8F832744FC832684FAB397F600D98FCA
:104130002322F4FE832744FE739037BF01007644A8
:1041400025618280397122DE8000232EA4FC232C7D
:10415000B4FC232AC4FC2328D4FC2326E4FC8327B4
:10416000C4FD858B232EF4FC832784FD858B232CB3
:10417000F4FC832744FD858B232AF4FC832704FD6C
:10418000858B2328F4FC8327C4FCBD8B2326F4FCF9
:104190008327C4FC739007BFF32740302326F4FE27
:1041A0008327C4FE2324F4FE032784FEFD77938730
:1041B00077777D8F8327C4FDAE075D8F832784FDCE
:1041C0009E075D8F832744FD8E07D98F2324F4FE3D
:1041D000832784FE73904730F32700302322F4FEB8
:1041E000832744FE2324F4FE832784FE13F777FFFE
:1041F0008326C4FD832784FDDD8E832744FDDD8E69
:10420000832704FDD58F8E07D98F2324F4FE8327BF
:1042100084FE7390073001007254216182805D71C9
:1042200086C6A2C4CAC2CEC052DE56DC800823268F
:10423000A4FC2324B4FC2320C4FC2322D4FC232C80
:10424000E4FA232EF4FA232804FB232A14FB832701
:10425000C4FC858B2326F4FC832784FC89C7832731
:1042600084FCFD1719A0832784FC232EF4FC8327EC
:10427000C4FD93F7F703232EF4FC832704FC13F308
:104280001700832744FC93F30700232064FC2322B8
:1042900074FC8325C4FDB707004913854700EFF080
:1042A000BF9E832784FBBE85B7070049138587001F
:1042B000EFF09F9D8327C4FB13DA0700814AD28762
:1042C000BE85B70700491385C700EFF0FF9B832722
:1042D00004FBBE85B707004913850701EFF0DF9A9D
:1042E000832744FB13D907008149CA87BE85B707D6
:1042F000004913854701EFF03F99832704FC13978A
:1043000027008327C4FCD98FBE8537050049EFF00D
:10431000BF970100B640264416498649725AE25AB0
:1043200061618280357106CF16CD1ACB1EC922C7B6
:104330002AC52EC332C1B6DEBADCBEDAC2D8C6D6B2
:10434000F2D4F6D2FAD0FECE82E686E48AE28EE09D
:1043500012FE16FC1AFA1EF82AF62EF432F236F085
:104360003AEE3EEC42EA46E872E676E47AE27EE035
:1043700000118145370500C0EFF01F910100FA40A0
:10438000EA425A43CA433A442A459A450A46F656EF
:104390006657D6574658B658265E965E065FF64F65
:1043A0003660A660166186617272E2725273C273E1
:1043B0003275A275127682767267E2675268C268B9
:1043C000326EA26E126F826F0D61730020303571F4
:1043D00006CF16CD1ACB1EC922C726C52AC32EC1A9
:1043E000B2DEB6DCBADABED8C2D6C6D4F2D2F6D0C5
:1043F000FACEFECC82E686E48AE28EE012FE16FC5D
:104400001AFA1EF82AF62EF432F236F03AEE3EECA4
:1044100042EA46E872E676E47AE27EE00011370589
:104420000049EFF07F88AA87BE8537050049EFF085
:10443000BF85B707008083A707003E85EFF0AFF880
:10444000EFF04FFEAA8791EFEFF01F812A87B707A1
:10445000008083A707003E97B707008023A0E700EE
:1044600031A8B707008083A40700EFF0EFFEAA870A
:104470003387F440B707008023A0E7000100FA402B
:10448000EA425A43CA433A44AA441A458A457656F0
:10449000E6565657C6573658A658165E865E764F6D
:1044A000E64F3660A660166186617272E2725273E0
:1044B000C2733275A275127682767267E2675268AD
:1044C000C268326EA26E126F826F0D61730020306F
:1044D000357106CF16CD1ACB1EC922C72AC52EC3E9
:1044E00032C1B6DEBADCBEDAC2D8C6D6F2D4F6D253
:1044F000FAD0FECE82E686E48AE28EE012FE16FC58
:104500001AFA1EF82AF62EF432F236F03AEE3EECA3
:1045100042EA46E872E676E47AE27EE000118145FE
:10452000B707004913858701EFF00FF60100FA4045
:10453000EA425A43CA433A442A459A450A46F6563D
:104540006657D6574658B658265E965E065FF64FB3
:104550003660A660166186617272E2725273C2732F
:104560003275A275127682767267E2675268C26807
:10457000326EA26E126F826F0D6173002030517126
:1045800086D796D59AD39ED1A2CFAACDAECBB2C9AB
:10459000B6C7BAC5BEC3C2C146DF72DD76DB7AD903
:1045A0007ED702EF06ED0AEB0EE912E716E51AE3F5
:1045B0001EE1AAFEAEFCB2FAB6F8BAF6BEF4C2F23A
:1045C000C6F0F2EEF6ECFAEAFEE88019F32700BF37
:1045D000232EF4F48327C4F5232CF4F4F32760BFCF
:1045E000232AF4F4832744F52324F4F4232604F443
:1045F000F32770BF2322F4F4832744F4232CF4F22E
:10460000232E04F2832784F393980700014803269E
:1046100084F48326C4F4330706013A833333C3009A
:10462000B3871601B306F300B6872328E4F2232AE2
:10463000F4F2F32710BF2326F4F28327C4F22324D5
:10464000F4F2F32710342322F4F2832744F22320D8
:10465000F4F2F3270030232EF4F08327C4F1232C47
:10466000F4F0832784F193E78700739007300327E2
:1046700084F585476312F702832784F413F5170046
:104680008327C4F493F50700AA87CD8F81CBE92255
:104690008547739067BF19A0010011A0010083270F
:1046A00084F173900730832704F2739017348327C3
:1046B00084F2739007BF0100BE50AE521E538E535A
:1046C0007E446E45DE454E46BE462E479E470E480A
:1046D000FA586A5EDA5E4A5FBA5F7A60EA605A61E7
:1046E000CA613A62AA621A638A637675E67556767B
:1046F000C6763677A67716788678766EE66E566F2B
:10470000C66F6D6173002030011122CE0010F327B7
:1047100010302326F4FE8327C4FE2324F4FE8327CF
:1047200084FE93F7070291C7B757FE009387B7023D
:1047300029A0B7373101938707D02322F4FE8327BE
:1047400044FE3E85724405618280011122CE001034
:104750002326A4FEAE87A305F4FE8327C4FE0347E9
:10476000B4FE2380E70001007244056182800111DC
:1047700022CE00102326A4FE8327C4FE83C7070091
:1047800093F7F70F3E85724405618280411122C67E
:104790000008B707008083A7C7003E853244410167
:1047A0008280011106CE22CC0010A30704FEB707B9
:1047B000008083A7C700B1C7B707008083A7870021
:1047C000370700801307C701BA9783C70700A307FD
:1047D000F4FEB707008083A7870013871700B70789
:1047E0000002FD177D8FB707008023A4E700B707FD
:1047F000008083A7C7001387F7FFB707008023A6B1
:10480000E7000347F4FEB547630BF7000347F4FEE8
:10481000A9476306F7008347F4FE3E8581220347DC
:10482000F4FE9307000663FEE7000347F4FE9307D8
:10483000600663E8E7008347F4FE811793F7F70FFC
:1048400019A08347F4FEA307F4FE8347F4FE3E85D8
:10485000F240624405618280011106CE22CC001034
:104860000D2AAA87A307F4FEB707008003A7C70095
:10487000B70700026366F70013051002C520B1A058
:10488000B707008083A74700370700801307C701D9
:10489000BA970347F4FE2380E700B707008083A799
:1048A000470013871700B7070002FD177D8FB70772
:1048B000008023A2E700B707008083A7C700138703
:1048C0001700B707008023A6E7000100F24062440A
:1048D00005618280011106CE22CC001035352326D9
:1048E000A4FE0327C4FEB7373101938707D0631FA7
:1048F000F700ED45B70700B013852700B9358D45A2
:10490000B70700B013853700893529A8A945B7072F
:1049100000B013852700153D9945B70700B01385F2
:104920003700253593050004B70700B0138517003D
:10493000293DB7070080375700901307C79523A874
:10494000E700B7070080375700901307279923AC7B
:10495000E7000100F240624405618280011106CE49
:1049600022CC0010AA87A307F4FE0100B70700B00D
:1049700013851700ED3BAA87898BEDDB8347F4FE97
:10498000BE85370500B0D1330100F24062440561B5
:104990008280411106C622C400080100B70700B09A
:1049A00013851700E933AA87858BEDDB370500B047
:1049B0007D3BAA873E85B2402244410182807971C5
:1049C00006D622D40018232CA4FC232EB4FC2326C4
:1049D00004FEBDA8B767009003A607AE83A647AE46
:1049E000032584FD8325C4FDEFD0CF94AA8763CA35
:1049F0000702B767009003A607AE83A647AE03255C
:104A000084FD8325C4FDEFC03FA22A87AE87232CF7
:104A1000E4FC232EF4FC8327C4FE95072326F4FE32
:104A200005A8B767009003A687AE83A6C7AE032587
:104A300084FD8325C4FDEFC03F9F2A87AE87232CCA
:104A4000E4FC232EF4FC8327C4FE85072326F4FE12
:104A5000B767009003A687AE83A6C7AE032584FD83
:104A60008325C4FDEFD00F8DAA87E3D507F6BDA837
:104A7000B767009003A607AF83A647AF032584FD61
:104A80008325C4FDEFD08F97AA8763DA0702B76743
:104A9000009003A607AE83A647AE032584FD8325B9
:104AA000C4FDEFD02FA22A87AE87232CE4FC232E4F
:104AB000F4FC8327C4FEED172326F4FE05A8B76790
:104AC000009003A687AE83A6C7AE032584FD832589
:104AD000C4FDEFD02F9F2A87AE87232CE4FC232E22
:104AE000F4FC8327C4FEFD172326F4FEB76700906D
:104AF00003A687AF83A6C7AF032584FD8325C4FD26
:104B0000EFD0CF8FAA87E3C507F68327C4FE3E8583
:104B1000B250225445618280797106D622D40018A1
:104B2000232EA4FCB767009003A787AF83A7C7AF66
:104B30002324E4FE2326F4FEADA00327C4FD914701
:104B400063DAE702B767009003A607AE83A647AE15
:104B5000032584FE8325C4FEEFD0CF962A87AE8737
:104B60002324E4FE2326F4FE8327C4FDED17232E21
:104B7000F4FC05A8B767009003A687AE83A6C7AE6E
:104B8000032584FE8325C4FEEFD0CF932A87AE870A
:104B90002324E4FE2326F4FE8327C4FDFD17232EE1
:104BA000F4FC8327C4FDE34AF0F8ADA00327C4FD5D
:104BB000F157635AF702B767009003A607AE83A6C2
:104BC00047AE032584FE8325C4FEEFC0FF852A87F8
:104BD000AE872324E4FE2326F4FE8327C4FD950735
:104BE000232EF4FC05A8B767009003A687AE83A622
:104BF000C7AE032584FE8325C4FEEFC0FF822A874B
:104C0000AE872324E4FE2326F4FE8327C4FD850714
:104C1000232EF4FC8327C4FDE3CA07F8032784FE90
:104C20008327C4FE3A85BE85B250225445618280F6
:104C30001D7186CEA2CCA6CACAC8CEC6D2C4D6C260
:104C40008010232EA4FA2328B4FA232AC4FA232C92
:104C5000D4FABA87A307F4FA232E04FC232C04FC0D
:104C6000A30B04FC232804FC032604FB832644FB3B
:104C7000032504FB832544FBEFD05FF8AA8781CB93
:104C8000B7670090938787AA2328F4FC6DAE83272B
:104C900084FB63D507009947232CF4FA014681462B
:104CA000032504FB832544FBEFC05FF5AA8763D38C
:104CB0000702032A04FB032744FBB7070080B34A1B
:104CC000F700232844FB232A54FB9307D002A30BAD
:104CD000F4FC29A09307B002A30BF4FC032904FB06
:104CE000032744FBB707008093C7F7FFB379F700AA
:104CF0008544B767009003A607B083A647B04A85EE
:104D0000CE85EFD0BFEFAA8799EFB767009003A6D3
:104D100007B083A647B04A85CE85EFC03FEEAA878D
:104D20006353F000814493F7F40F93C7170093F790
:104D3000F70F81CBB76700909387C7AA2328F4FCAD
:104D4000A9AA0307F4FA930760066310F7088327FC
:104D500084FBB307F0403E85C1332A87AE87B76630
:104D6000009003A686B083A6C6B03A85BE85EFC084
:104D7000AFEB2A87AE873A86BE86032504FB8325E0
:104D800044FBEFB0FFD22A87AE872328E4FA232A18
:104D9000F4FA032504FB832544FB1531232CA4FCE2
:104DA000832784FD63D40700232C04FC032784FDA0
:104DB000832784FB3E97F14763D1E70EB7670090E6
:104DC000938707AB2328F4FCC9A801468146032535
:104DD00004FB832544FBEFC09FCCAA87DDCF0325CE
:104DE00004FB832544FBE13E2A87832784FBB3072A
:104DF000F7403E8515332A87AE87B766009003A635
:104E000086B083A6C6B03A85BE85EFC0EFE12A879B
:104E1000AE873A86BE86032504FB832544FBEFB0AC
:104E20003FC92A87AE872328E4FA232AF4FA032508
:104E300004FB832544FB6136232EA4FC0327C4FD19
:104E40009307300663C7E700032784FBE54763D970
:104E5000E700B7670090938707AB2328F4FC35A8D9
:104E60000327C4FD9307D0F96356F7009307D0F9E1
:104E7000232EF4FC0325C4FD45312A87AE873A86EC
:104E8000BE86032504FB832544FBEFC0EFD92A87A8
:104E9000AE872328E4FA232AF4FA832704FD6394D7
:104EA000071A030774FD9307D002631CF7008327DA
:104EB000C4FB13871700232EE4FA034774FD2380F5
:104EC000E700032584FD89392324A4FC2326B4FCB0
:104ED000032684FC8326C4FC032504FB832544FBB2
:104EE000EFC08FD42A87AE873A85BE85EFD03FD7F3
:104EF000AA872322F4FC032544FCEFD03FE32A8752
:104F0000AE87032684FC8326C4FC3A85BE85EFC0A9
:104F10007FDB2A87AE873A86BE86032504FB83257E
:104F200044FBEFD0EFB52A87AE872328E4FA232A83
:104F3000F4FA032784FDFD57631CF7008327C4FBA5
:104F400013871700232EE4FA1307E0022380E700FB
:104F5000832744FC93F7F70F9387070393F6F70F24
:104F60008327C4FB13871700232EE4FA13978601C7
:104F700061872380E700832784FDFD17232CF4FC41
:104F8000832784FBB307F040032784FDE35BF7F23C
:104F90000307F4FA930760066307F70A8327C4FB45
:104FA00013871700232EE4FA0347F4FA2380E7005F
:104FB0008327C4FD63D307028327C4FDB307F040F2
:104FC000232EF4FC8327C4FB13871700232EE4FA57
:104FD0001307D0022380E70019A88327C4FB138797
:104FE0001700232EE4FA1307B0022380E7000327FB
:104FF000C4FDA947B347F70293F7F70F9387070359
:1050000093F6F70F8327C4FB13871700232EE4FAC8
:105010001397860161872380E7000327C4FDA94712
:10502000B367F70293F7F70F9387070393F6F70F2A
:105030008327C4FB13871700232EE4FA13978601F6
:1050400061872380E700832704FDB9C3830774FDCC
:1050500099CB8327C4FB13871700232EE4FA034759
:1050600074FD2380E700032704FD9307170023281E
:10507000F4FC8327C4FB93861700232ED4FA03077E
:1050800007002380E700832704FD83870700E1FFF3
:105090008327C4FB238007000100F6406644D64402
:1050A0004649B649264A964A25618280011106CEB4
:1050B00022CC00102326A4FE2324B4FE032784FE62
:1050C000A9476316F700B5450325C4FEC5378327F6
:1050D000C4FE99C78327C4FE032584FE829735A0AA
:1050E000B707008083A747018DC3B707008083A758
:1050F00047019386170037070080232AD70003272C
:1051000084FE620761872380E7000100F240624469
:1051100005618280357106CF22CD4ACB4EC952C778
:1051200056C55AC35EC1E2DEE6DC00112326A4F6B2
:105130002324B4F62322C4F6832784F613871700AA
:105140002324E4F683C70700A309F4FA830734FB9A
:1051500063810768030734FB930750026309F70074
:10516000830734FBBE850325C4F6893795A5232024
:1051700004FC832704FC232EF4FA93070002A30502
:10518000F4FAFD57232AF4FA832784F613871700CD
:105190002324E4F683C70700A309F4FA030734FBCA
:1051A000930700036311F70293070003A305F4FAC2
:1051B000832784F6138717002324E4F683C70700A8
:1051C000A309F4FA25A0030734FB9307D002631F59
:1051D000F7008947232EF4FA832784F613871700F4
:1051E0002324E4F683C70700A309F4FA030734FB7A
:1051F0009307A002631FF706832744F6138747002F
:105200002322E4F69C43232CF4FA832784FB63DBFC
:105210000700832784FBB307F040232CF4FA894767
:10522000232EF4FA832784FB2320F4FC832784F6BF
:10523000138717002324E4F683C70700A309F4FAB1
:10524000A9A0032704FCBA878A07BA9786073E8776
:10525000830734FBBA97938707FD2320F4FC832749
:1052600084F6138717002324E4F683C70700A309F5
:10527000F4FA030734FB9307F00263D8E70003074F
:1052800034FB93079003E3DEE7FA030734FB93074D
:10529000E002631DF708832784F613871700232491
:1052A000E4F683C70700A309F4FA030734FB930766
:1052B000A0026316F702832744F6138747002322D0
:1052C000E4F69C43232AF4FA832784F61387170015
:1052D0002324E4F683C70700A309F4FA81A8232A4C
:1052E00004FA0DA8032744FBBA878A07BA978607F2
:1052F0003E87830734FBBA97938707FD232AF4FA86
:10530000832784F6138717002324E4F683C7070056
:10531000A309F4FA030734FB9307F00263D8E7000C
:10532000030734FB93079003E3DEE7FA030734FB3C
:105330009307C0066318F7048327C4FB93E747006D
:10534000232EF4FA832784F6138717002324E4F628
:1053500083C70700A309F4FA030734FB9307C006C9
:105360006312F7028327C4FB93E78700232EF4FA26
:10537000832784F6138717002324E4F683C70700E6
:10538000A309F4FA830734FB63870744830734FBDC
:105390009387B7FB130730036368F71C1397270045
:1053A000B7670090938707D3BA979C438287894752
:1053B0002326F4FCD1A2A1472326F4FC75AAA94711
:1053C0002326F4FC55AAC1472326F4FC75A28327A3
:1053D00044F6138747002322E4F69C43E207E18763
:1053E000BE850325C4F6D931E5A6832744F6138785
:1053F00047002322E4F69C432326F4FA8327C4FAC9
:1054000099E7B7670090938747AB2326F4FA032503
:10541000C4FA0D292322A4FC832744FB63C8070296
:10542000832744FB032744FC63F2E702832744FB02
:105430002322F4FC21A88307B4FABE850325C4F611
:10544000B531832744FC85072322F4FC8327C4FB62
:10545000898B85E7032744FC832704FCE36DF7FC75
:1054600029A88327C4FA138717002326E4FA838721
:105470000700BE850325C4F615398327C4FA838740
:10548000070091CF832744FB1387F7FF232AE4FA11
:10549000E9FB31A0930500020325C4F601398327F7
:1054A00044FC138717002322E4FC032704FCE3E3F6
:1054B000E7FE39AE930784F72326F4FA832744F6F0
:1054C0009D07E19B138787002322E4F68843CC43A2
:1054D000830734FB3E87832644FB2E86AA8503255B
:1054E000C4FAEFF0EFF40325C4FAA92E2322A4FC9A
:1054F00029A88307B4FABE850325C4F6EFF01FBBC5
:10550000832744FC85072322F4FC8327C4FB898B73
:105510008DE7032744FC832704FCE36CF7FC31A8E8
:105520008327C4FA138717002326E4FA838707002A
:10553000BE850325C4F6EFF07FB78327C4FA8387BF
:105540000700F9FF39A0930500020325C4F6EFF028
:10555000FFB5832744FC138717002322E4FC0327AD
:1055600004FCE3E2E7FEADA4830734FBBE8503251C
:10557000C4F6EFF0BFB3A9AC8327C4FBA18B85C3EE
:10558000832744F69D07E19B138787002322E4F6D7
:105590009843DC432320E4FA2322F4FA51A0832722
:1055A000C4FB918BA1C3030734FB93074006631D23
:1055B000F700832744F6138747002322E4F69C4331
:1055C0003E89FD87BE8911A8832744F613874700CB
:1055D0002322E4F69C433E898149232024FB232295
:1055E00034FB3DA8030734FB93074006631DF70017
:1055F000832744F6138747002322E4F69C433E8A20
:10560000FD87BE8A11A8832744F61387470023220B
:10561000E4F69C433E8A814A232044FB232254FB28
:10562000030734FB930740066310F704832744FA0B
:1056300063DC070201468146032504FA832544FA08
:105640003307A6403A8833380601B387B640B3869D
:105650000741B6872320E4FA2322F4FA8327C4FB08
:1056600093E71700232EF4FA232404FC032704FAFB
:10567000832744FA232CE4F8232EF4F88327C4FC70
:105680003E8B814B032784F98327C4F95A86DE8633
:105690003A85BE85EFB04F8F2A87AE872309E4FA9B
:1056A0008327C4FC3E8C814C6286E686032584F900
:1056B0008325C4F9EFA07FD72A87AE87232CE4F88F
:1056C000232EF4F8030724FBA54763D3E70203075F
:1056D00034FB930780076315F7009307700211A04E
:1056E0009D47034724FBBA9793F7F70F2309F4FA72
:1056F000834724FB9387070393F6F70F832784FCE4
:10570000138717002324E4FC13978601618793878E
:1057100007FDA2972384E7FA832784F90327C4F9B6
:10572000D98F91C7032784FCFD47E3F9E7F483276A
:10573000C4FB858B91CF832784FC13871700232418
:10574000E4FC938707FDA2971307D0022384E7FAAE
:10575000832784FC2322F4FC29A88307B4FABE859E
:105760000325C4F6EFF09F94832744FC850723228A
:10577000F4FC8327C4FB898B99E7032744FC832728
:1057800004FCE36CF7FC832784FCFD172324F4FC62
:10579000832784FC938707FDA297838787FABE85BA
:1057A0000325C4F6EFF09F90832784FCE9FF39A01E
:1057B000930500020325C4F6EFF05F8F832744FCB6
:1057C000138717002322E4FC032704FCE3E2E7FE2F
:1057D000A5B2010011A001000100FA406A445A4933
:1057E000CA493A4AAA4A1A4B8A4B765CE65C0D6172
:1057F00082805D7106D622D40018232EA4FC4CC0F2
:1058000010C454C418C85CC8232C0401232E1401EE
:1058100093070402232CF4FC832784FD911723268D
:10582000F4FEB707008083A707010327C4FE3A866A
:105830008325C4FD3E85EFF0FF8D0100B250225458
:1058400061618280937735002A879DEFB7867F7FDD
:105850009386F6F7FD5510431107B377D600B69738
:10586000D18FD58FE389B7FE8346C7FFB307A74023
:105870008DCA8346D7FF9DC20345E7FF3335A0009D
:105880003E9579158280F9D2834707000507937604
:105890003700F5FB098F1305F7FF82801385D7FFCB
:0858A00082801385C7FF82809E
:1058A80000000000000000000000000000000000F0
:1058B80000000000000000000000000000000000E0
:1058C80000000000000000000000000000000000D0
:1058D80000000000000000000000000000000000C0
:1058E80000000000000000000000000000000000B0
:1058F80000000000000000004552524F520A00000C
:105908002D2D2D2D2D2D2D2D2D2D2D2D2D2D2D2DBF
:105918000A00000025660A00253038780A000000D1
:10592800733D253031780A00653D253032783D25B4
:10593800643D25640A000000663D253036783D2523
:10594800660A00000A000000506F735A726F000068
:105958004E65675A726F0000506F73496E6600009B
:105968004E6567496E660000506F73516E610000A6
:105978004E6567516E610000506F73536E61000091
:105988004E6567536E610000506F7353756228252A
:10599800662900004E656753756228256629000050
:1059A800506F734E6F722825662900004E65674E4A
:1059B8006F722825662900002025303858200000FD
:1059C8004F4B00004E470000202530325820000081
:1059D8006F6B00006E6700002530387820000000EB
:1059E8000000000001000000020000007E0000002E
:1059F8007F00000080000000FE000000FF000000A3
:105A08000000000001000000040000001000000079
:105A18000000020000000400000010000000400028
:105A2800FFFFFFFFFEFFFFFFF8FFFFFFE0FFFFFFA5
:105A380000F8FFFF00E0FFFF0080FFFF0000E0FF2D
:105A4800FFF78386916F9B3D07007CCE0000004FD7
:105A5800000000CF004080BE804080BE000000BE35
:105A6800000080BC000080BD000000BD1000623E48
:105A78000000000F0000800F0000803E000080033F
:105A8800A0AB2D3DFFFFFF3E0000003F0100003F9F
:105A9800FFFFFFBE000000BF010000BF0000004B79
:105AA8004E614E00494E46004F560000000000006F
:105AB8002530386C5820000020253032580000006E
:105AC80020200000202530345800000020253038E0
