:0200000490006A
:100000006F0000306F30A0546F00801F6F00401FE2
:100010006F3010186F00C01E6F00801E6F00401EF2
:100020006F30B0076F00C01D6F00801D6F00401D56
:100030006F30207C6F00C01C6F00801C6F00401C64
:100040006F00001C6F30901F6F30501F6F30101FFB
:100050006F30D01E6F30901E6F30501E6F30101EEC
:100060006F30D01D6F30901D6F30501D6F30101DE0
:100070006F30D01C6F30901C6F30501C6F30101CD4
:100080006F30D01B6F30901B6F30501B6F30101BC8
:100090006F30D01A6F30901A6F30501A6F30101ABC
:1000A0006F30D0196F3090196F3050196F301019B0
:1000B0006F30D0186F3090186F3050186F301018A4
:1000C0006F30D0176F3090176F3050176F30101798
:1000D0006F30D0166F3090166F3050166F3010168C
:1000E0006F30D0156F3090156F3050156F30101580
:1000F0006F30D0146F3090146F3050146F30101474
:100100006F30D0136F3090136F3050136F30101367
:100110006F30D0126F3090126F3050126F3010125B
:100120006F30D0116F3090116F3050116F3010114F
:100130006F30D0106F3090106F3050106F30101043
:080140006F30D00F0000000039
:10015000000000000000000000000000000000009F
:10016000000000000000000000000000000000008F
:10017000000000000000000000000000000000007F
:10018000000000000000000000000000000000006F
:10019000000000000000000000000000000000005F
:1001A000000000000000000000000000000000004F
:1001B000000000000000000000000000000000003F
:1001C000000000000000000000000000000000002F
:1001D000000000000000000000000000000000001F
:1001E000000000000000000000000000000000000F
:1001F00000000000000000000000000000000000FF
:0602000001A00000000057
:1002060000000000000000000000000000000000E8
:1002160000000000000000000000000000000000D8
:1002260000000000000000000000000000000000C8
:1002360000000000000000000000000000000000B8
:1002460000000000000000000000000000000000A8
:100256000000000000000000000000000000000098
:100266000000000000000000000000000000000088
:100276000000000000000000000000000000000078
:100286000000000000000000000000000000000068
:100296000000000000000000000000000000000058
:1002A6000000000000000000000000000000000048
:1002B6000000000000000000000000000000000038
:1002C6000000000000000000000000000000000028
:1002D6000000000000000000000000000000000018
:1002E6000000000000000000000000000000000008
:1002F60000000000000000000000971100F8938144
:1003060081F917C100F8130181CF174501001305C4
:10031600456C970500F8938585CE171600F81306E9
:10032600069263FAC5008322050023A05500110535
:100336009105E3EAC5FE171500F8130545909735B4
:1003460000F8938505EF6377B500232005001105B6
:10035600E36DB5FE970200009382A2CA93E21200F3
:100366007390523059287155B7E2ADDE9382D2EAC6
:0A03760023205500F5BF0000000031
:10038000000000000000000000000000000000006D
:10039000000000000000000000000000000000005D
:1003A000000000000000000000000000000000004D
:1003B000000000000000000000000000000000003D
:1003C000000000000000000000000000000000002D
:1003D000000000000000000000000000000000001D
:1003E000000000000000000000000000000000000D
:1003F00000000000000000000000000000000000FD
:10040000411106C622C40008EF205068EF804078F2
:10041000EF30401CEF3090130100B2402244410104
:1004200082803D432A876373C3029377F700BDEF51
:10043000ADE5937606FF3D8ABA960CC34CC30CC754
:100440004CC74107E36BD7FE11E28280B306C3407D
:100450008A069702000096966780A6002307B700D9
:10046000A306B7002306B700A305B7002305B7000E
:10047000A304B7002304B700A303B7002303B70006
:10048000A302B7002302B700A301B7002301B700FE
:10049000A300B7002300B700828093F5F50F939671
:1004A0008500D58D93960501D58D61B7939627006C
:1004B0009702000096968682E78086FA9680C1179A
:1004C0001D8F3E96E374C3F8A5B7AA882E833287A2
:1004D0002A88AE8763960620B74501909385450E1E
:1004E0006371C30CC1666377D60A9336061093C650
:1004F00016008E063355D600AA9583C50500130550
:100500000002AE96B305D540630BD500B317B30018
:10051000B3D6D8003317B600D58F3398B8009355AB
:10052000070133D3B702131607014182B3F7B702AD
:100530001A85B30866029396070193570801D58F71
:1005400063FC1701BA971305F3FF63E7E70063F550
:1005500017011305E3FFBA97B3871741B3D8B70262
:10056000420813580801B3F7B702B3061603C207CF
:100570003368F800C687637BD8003A989387F8FF02
:100580006366E8006374D8009387E8FF42055D8DD9
:100590008145828037050001C146E36DA6F4E1463E
:1005A00091BF814609CAC167637FF608933606107A
:1005B00093C616008E06B357D600BE9583C70500B6
:1005C000B69793060002B385F6406395F608B30725
:1005D000C34085459358070133DE170313160701FF
:1005E000418293560801B3F7170372853303C6039C
:1005F000C207D58F63FC6700BA971305FEFF63E758
:10060000E70063F567001305EEFFBA97B38767400D
:1006100033D31703420813580801B3F71703B3067F
:100620006602C2073368F8009A87637BD8003A985D
:100630009307F3FF6366E8006374D8009307E3FF52
:1006400042055D8D8280B7070001C146E365F6F67D
:10065000E14695B73317B600B356F30013550701BB
:100660003313B300B3D7F800B3E7670033D3A60260
:100670001316070141823398B800B3F6A602B308F7
:1006800066029395060193D60701CD8E9A8563FC89
:100690001601BA969305F3FF63E7E60063F51601CA
:1006A0009305E3FFBA96B3861641B3D8A602C207F4
:1006B000C183B3F6A60233061603C206D58FC686DB
:1006C00063FCC700BA979386F8FF63E7E70063F51A
:1006D000C7009386E8FFBA97C205918FD58DDDBD1F
:1006E00063E1D514C16763FFF60213B70610134721
:1006F00017000E07B7470190B3D5E6009387470E62
:10070000AE9783C70700BA9713070002B305F740F7
:100710006311F7020545E3EE66E633B5C8001345FD
:1007200015008280B70700014147E3E5F6FC614709
:10073000D1B73357F600B396B600D98E3357F300CE
:100740003313B300B3D7F800B3E7670013D3060140
:10075000B35E670213980601135808013316B600FA
:1007600033776702330ED8031315070113D7070138
:10077000498F7685637CC70136971385FEFF6367D3
:10078000D7006375C7011385EEFF36973307C7415E
:10079000335E6702C207C183337767023308C80339
:1007A0004207D98F728763FC0701B6971307FEFFD4
:1007B00063E7D70063F507011307EEFFB69742051D
:1007C000416E598D9306FEFF3377D500B3870741FD
:1007D000F18E1358050141823303D702B306D802C4
:1007E0003307C7023308C8023306D7001357030183
:1007F00032976373D700729893560701C29663E0ED
:10080000D702E397D7D8C167FD177D8F42073373AF
:10081000F300B398B8001A978145E3FCE8D67D153C
:1008200085BB8145014582803288AA872E876393E4
:10083000061AB74801909388480E63F6C50AC16648
:10084000637CD6089336061093C616008E06335383
:10085000D6009A9883C8080013030002C696B3080E
:10086000D340630BD30033971501B356D50033182B
:100870001601558FB317150113560801B356C70259
:100880001315080141813377C702B386A602931579
:10089000070113D707014D8F6378D700429763652F
:1008A00007016373D7004297158FB356C70233779A
:1008B000C702B386A602C2074207C183D98F63F875
:1008C000D700C29763E5070163F3D700C297958FFE
:1008D00033D517018145828037030001C146E368A3
:1008E00066F6E146ADB7814609CA41676374E6061C
:1008F0009336061093C616008E063357D600BA9864
:1009000003C70800369793060002B388E640639A4F
:10091000E6043387C540935508013356B7021315D3
:100920000801418193D607013377B7023306A60247
:100930004207558F6378C700429763650701637369
:10094000C7004297118FB356B7023377B702B38609
:10095000A60295B737070001C146E360E6FAE14613
:1009600069BF33181601B3D6E500B3171501B39567
:1009700015013357E500135508014D8FB3D5A60275
:100980001313080113530301B3F6A602B3856502DE
:100990001396060193560701D18E63F8B600C296EE
:1009A00063E5060163F3B600C2968D8E33D6A602C8
:1009B00042074183B3F6A60233066602C206558F8C
:1009C0006378C7004297636507016373C700429766
:1009D000118F91B763EDD516416863F7060513B81B
:1009E0000610134818000E08B748019033D30601CB
:1009F0009388480E9A9883C8080013030002C2988F
:100A0000330813416319130363E4B600636BC50035
:100A10003306C540B386D5403337C500B287338728
:100A2000E6403E85BA858280B70800014148E3ED83
:100A300016FB614855BFB3571601B3960601DD8E0C
:100A400033D7150113DE0601335FC7031393060185
:100A500013530301B3970501B3551501DD8D93D7EA
:100A6000050133160601331505013377C703B30EAD
:100A7000E3034207D98F7A8763FCD701B697130740
:100A8000FFFF63E7D70063F5D7011307EFFFB697C2
:100A9000B387D741B3DEC703C205C181B3F7C7032C
:100AA000768E3303D303C207DD8D63FC6500B695F4
:100AB000138EFEFF63E7D50063F56500138EEEFF2E
:100AC000B69593170701416FB3E7C701B38565403A
:100AD0001303FFFF33F76700135E0601C18333730F
:100AE0006600B30E6702338367023307C703B38719
:100AF000C703330E670013D70E0172976373670045
:100B0000FA97135307019A9741637D133377670070
:100B10004207B3FE6E00769763E6F500639BF5002F
:100B20006379E5003306C7403333C7009A963287AE
:100B3000958F3307E5403335E5009D8D898DB3985A
:100B400015013357070133E5E800B3D5050182806D
:100B5000011106CE22CC26CA4AC84EC652C4F32979
:100B60002000B7071000FD1733F7B70013D4450175
:100B70000E071358D501F58F93D846011374F47FEF
:100B800093D4F5013368E80093F8F87F1357D60142
:100B90008E07FD820E055D8F0E06B3051441639529
:100BA000D438AE866351B01463930808B367C700A6
:100BB00091EB9307F07F638FF50442872A86814784
:100BC000AE8839A89387F5FFB1E32A96429733356B
:100BD000A6002A97B7068000F98E639006328548F2
:100BE000937676003A8832856381067C8146094790
:100BF00093E717006395E92C6383042E13078500A0
:100C00003336A70032983A856F0030029306F07FA2
:100C10006390D50AB365A800E3860506935768017B
:100C200093C71700858B920742872A86DDA093071A
:100C3000F07F6319F400B365A800EDF10148930853
:100C4000F07FCDA19307800363C8B706B707800084
:100C50005D8FAE87FD4663C4F606930500029D8D49
:100C6000B316B700B358F600B315B600B3E61601D5
:100C7000B335B000CD8EB357F7003386A600C297C8
:100C8000B336D6003387D700A288B7078000F98F24
:100C90006389072085089307F07F6391F8266381B5
:100CA00009288D47639AF926638C0426814619A486
:100CB00093068003E3D0F6FA814785467DBF93868D
:100CC00007FE93080002B356D700814563871701DA
:100CD000930500049D8DB315B700D18DB335B000D9
:100CE000CD8E814759BFE1C9B386884029E4B367F7
:100CF000A8009DE39307F07FB6886394F61AB36566
:100D0000C700638505789357670193C71700858BE4
:100D100092079308F07FE9B59387F6FFE38707EA28
:100D20009305F07FE38DB6FC9306800363D7F6024C
:100D300081478546B1A09307F07F6397F800B365BC
:100D4000C700FDE90148F9AE93078003E3C2D7FE6F
:100D5000B70780003368F800B687FD4663C9F6021E
:100D6000930500029D8DB316B8003353F500B315FB
:100D7000B500B3E66600B335B000CD8EB357F800CA
:100D80003696BA97B336D6003387D700FDBD938623
:100D900007FE13030002B356D8008145638767003E
:100DA000930500049D8DB315B800C98DB335B0000F
:100DB000CD8E8147F1B79305140093F7E57FF9E3F2
:100DC000B365A80015E863800556B366C700638164
:100DD000064A2A96B336A60042973308D70037074B
:100DE00080003377E800328563040748370780FFC7
:100DF0007D173377E800E5B39306F07F6315D402DF
:100E000081E5E39888F025BFB7064000B376D800A7
:100E10003363C70063830668639E88046315030217
:100E200042872A8675BB01446393D804B366C70022
:100E300095E2FDF5014811AD9357670193C717007F
:100E4000858B920771BBB7074000F98F95CB0144A2
:100E500039A04144B7074000F98F89CB91C981443B
:100E60003708400081459308F07FC5A3414481E5E0
:100E7000A28745B50144518F7DF342872A86CDBFB5
:100E80004144D5BF9307F07F638FF5002A96333531
:100E9000A60042972A979317F70105825D8E058376
:100EA000AE88814735BB638C095C8D47639CF90232
:100EB0006387045C7D587D559308E07F95470D4717
:100EC0006384E956639D09001377F50011466308B2
:100ED000C700130745003336A70032983A8563925E
:100EE0000646E1A189476394F900639A04587D5846
:100EF0007D559308E07F95474DA98948B70780FF46
:100F0000FD17F98F13571600058A518F1396F701B5
:100F1000598E13D7170071B78947E39AF9FCE1D8C6
:100F200001488145154415A36358B00C639D080220
:100F3000B367C700E38F07C69387F5FF91EB3306CE
:100F4000C5403307E8403335C500098F8548ADA05B
:100F50009306F07FE380D5CC9306800363D1F6023D
:100F60008147854681A09307F07FE306F4CC930781
:100F70008003E3C7B7FEB70780005D8FAE87FD46ED
:100F800063C8F604930500029D8DB316B700B358ED
:100F9000F600B315B600B3E61601B335B000CD8E3A
:100FA000B357F700B306D540B307F8403337D50041
:100FB00036863387E740A28837098000B377270158
:100FC000E38107EE7D1933792701328A468491AC9B
:100FD000938607FE93080002B356D70081456387C6
:100FE0001701930500049D8DB315B700D18DB3355E
:100FF000B000CD8E81477DB763810510B3858840F1
:1010000031ECB367A8009DE39307F07F639AF53056
:10101000B365C700638B05469357670193C71700F5
:10102000858B92079308F07FB6845DBE9387F5FFAA
:1010300099EB3305A640B337A600330707412A864C
:101040001D8FB68421B71303F07FE38365FC9305FE
:10105000800363DDF50281478545B1A89307F07FE2
:10106000639DF800B365C700638405429357670129
:1010700093C71700858B920745BF93078003E3CC86
:10108000B7FCB70780003368F800AE87FD4563CF33
:10109000F502130300023303F340B3156800335E17
:1010A000F50033136500B3E5C50133336000B3E5E4
:1010B0006500B357F800B305B6403335B600B30743
:1010C000F7402E863387A740B684FDB5938507FE8B
:1010D000130E0002B355B80001436388C701130320
:1010E00000043303F340331368003363A300333346
:1010F0006000B3E5650081477DBF9307140093F757
:10110000E77FEDEB3363A800B365C70031EC631DE7
:101110000300639D05209384E9FF93B41400014804
:1011200081458148014415A663840514B305C54073
:10113000B338B500B307E840B3871741B70880005C
:10114000B3F81701638C08003305A6403307074145
:101150003336A6003308C740B68419AA33E7F50032
:101160005DDB3E882E8529A2130EF07F631DC4032C
:10117000631A0300639C880695ED8144370840009C
:101180004144E1A4B7064000B376D800638006323C
:1011900063908806E38A05A8B7074000F98FE398B3
:1011A00007CA414439AE01446397C80399E9E31D76
:1011B00003A6E1B737054000798DE31705E6414402
:1011C00029A8370E4000337EC70163050E00E310E7
:1011D00003C899BD41446316032EB684E39A05C83B
:1011E0008144370840009308F07F59BF0144F5B7A8
:1011F0000144C1ACB307C540B335F5003309E8403D
:101200003309B940B7058000B375B9003E8ADDC522
:10121000330AA64033090741333646013309C94032
:10122000B6846301090A4A85EF10107F930785FF92
:10123000130700021D8F3319F9003357EA00336793
:1012400027013319FA0063C5870C818F13881700B3
:1012500093070002B38707413315F700B35609011E
:10126000B317F900558DB337F0005D8D3358070182
:10127000B3670501E38507EA9357F50113171800D3
:101280003E979317150013F6770093767500630762
:10129000061009466387C90C0D46638CC90863971D
:1012A000090E13F6F700914593B7C7FF6310B60A0E
:1012B000B70700017D8F55C38547B1A2B3E727016A
:1012C000ADF391BD5285EF10307593078501FD4652
:1012D000E3D0F6F6130785FF3317EA0063CA8702E7
:1012E000818F13881700E3D506F785179306000250
:1012F000B357F70001456308D80013050004330510
:1013000005413315A7003335A0005D8D01488DB729
:10131000B308F440B70780FFFD177D8F4A8651B6AA
:10132000AE88B684BDBE3A88328599B73A88328590
:1013300025B599C8B70700017D8F69E7F9EEA68743
:10134000814893E7270095A093B787FF93C71700BD
:10135000BA9737070001F98FA5F38148F9E285476D
:10136000CDB799E4B70700017D8F39F78148C5BF34
:1013700093B787FF93C71700BA9737070001F98F14
:10138000D1E3D5DEA686A6878148BDB0B7070001A8
:101390007D8F1DF3E1DE8546814869A0B707000116
:1013A0007D8F2DE7B5E68148814737078000337789
:1013B000E8006DC385081307F07F638EE8063707E2
:1013C00080FF7D173377E8009315D7010D81C98D14
:1013D0000D833E8493974801B706F07F320731832F
:1013E000F58FD98FFE0433E797002E85BA8519C093
:1013F00073201400F2406244D2444249B249224A66
:1014000005618280A68781486FF00FFE8147E5BFA6
:101410008546814881476FF08FFDA686A687814863
:1014200079BC8546854761BC81C4C1D2B68411BFF1
:10143000130785004DB48145638609000D47639805
:10144000E90295E813E457002E889317D8018D819F
:10145000DD8D9307F07F13573800E39DF8F6D98DA3
:101460000147ADD93707080081458144A5B7094731
:101470006393E900E1F8FD559308E07FE1B7930835
:10148000F07F79BC01480144F9BAB6840148E1BA59
:10149000B6844DB8AA853E844DBFE393889EE31A77
:1014A000039A42872A86C1476FF08FF3E39B88CE69
:1014B000C147638B05F6B7074000F98F4144E390BD
:1014C000079AE39E059855BA797122D456CA66C226
:1014D00006D626D24AD04ECE52CC5AC85EC662C478
:1014E0002A84B28CB68AF324200013D845011399BC
:1014F000C5001378F87F1359C90013DAF5016306A4
:1015000008029307F07F630EF806135BD5010E09FE
:10151000336B2B01B7078000336BFB009319350049
:10152000130C18C0814B01449DA8336BA9006309BB
:101530000B0C630A09024A85EF10104E930755FF02
:10154000754B130785FF330BFB403319E900335B01
:101550006401336B2B013319E4001308D0C0330C42
:10156000A840CA89C1B7EF10304B2A8B93075B01A3
:10157000714713050502E355F7FC611B331B64013A
:10158000E9BF336BA90063010B083704080033344B
:101590008900AA8912044A8B130CF07F8D4B13D754
:1015A0004A011399CA001377F77FE6871359C900D8
:1015B00093DAFA0139CF9306F07F6307D70A0E0951
:1015C00093D7DC01B3E727013709800033E927010E
:1015D000930617C093973C00814513972B004D8FBE
:1015E0003308DC407D17B94633465A0163E5E60A05
:1015F000B74601900A079386860A369718430287F2
:101600008149014C854B05B78149130CF07F894B0B
:1016100019BFB3679901ADC7630909024A85EF1085
:10162000B03F930655FF7547930785FF158F331914
:10163000F90033D7EC00336727013399FC00930698
:10164000D0C0CA87898E3A8941BF6685EF10D03CE9
:10165000AA8793865701714713050502E355D7FC06
:10166000E1173397FC00E1BF3366990119CE3707C4
:1016700008009306F07F8D45E371E9F64144B1BF60
:10168000014981478146854589BF014981479306C4
:10169000F07F894599B76366690163182B2763E674
:1016A000F9269316FB0113D71900939EF901135BDA
:1016B0001B00B3E9E6001315890093D68701C98E94
:1016C00041813353AB029398060193D80801939557
:1016D000870093D70901337BAB021A8F33876802E7
:1016E000420BB3E7670163FCE700B697130FF3FF04
:1016F00063E7D70063F5E700130FE3FFB697998F11
:1017000033DEA702139709014183B3F7A70233839E
:10171000C803C2075D8FF287637C67003697930723
:10172000FEFF6367D700637567009307EEFF369788
:10173000420F4169336FFF00330767401303F9FF1E
:10174000B3776F0093520F0113DE050133F3650089
:10175000B3836702B3896202B307FE02B38F370116
:1017600093D70301FE97B382C20363F33701CA9292
:1017700093DF0701969FC162FD12B3F75700C207BE
:10178000B3F353009E976367F7017A896312F705F5
:1017900063F0FE04B382BE00B3B3D201B389D300B9
:1017A0004E971309FFFF968E63E6E6006392E6020A
:1017B000639003026366F701639CEF0063FAF20033
:1017C000AE921309EFFF33BFB200369F968E7A9721
:1017D000338FFE403307F741B3BEEE013307D741E5
:1017E000FD576388E60EB352A70293570F01337774
:1017F000A702968EB38F58024207D98F63FCF70178
:10180000B697938EF2FF63E7D70063F5F701938EE7
:10181000E2FFB697B387F741B3DFA70213170F01B3
:101820004183B3F7A702B388F803C207D98F7E8735
:1018300063FC1701B6971387FFFF63E7D70063F5D3
:1018400017011387EFFFB69713950E01598D1317E4
:1018500005014183B388174193570501B30EE30295
:1018600033836702B307FE02330EEE0213D70E0175
:101870001A9E72976374670041639A971353070126
:101880003E93C167FD177D8F4207B3FEFE0076973A
:1018900063E66800AA87639C680205CFB698930741
:1018A000F5FF468E63E1D80263E668006391680243
:1018B00063FDE5009307E5FF13951500333EB50082
:1018C000369E469EAA8563146E006304B70093E7B4
:1018D00017001307F83F6353E01093F67700D5C263
:1018E000894613641400638DD4088D466386D4083A
:1018F000C9E893F6F70091456385B60893864700DB
:10190000B3B5F6002E99B687ADA87D18814E65B3A4
:101910005686AE8B05476381EB22E38C0BFA894731
:101920006383FB043705080081471307F07F0146F6
:10193000320531815207498F7E06B366C7003E8566
:10194000B68519C073201400B25022549254025923
:10195000F249624AD24A424BB24B224C924C456108
:10196000828013648400014581471307F07FC9B763
:1019700052865A89CE8779BF09E69386870049B790
:101980006DFEB7060001B376D90081CA370700FFA4
:101990007D173379E900130708409306E07F63CA97
:1019A000E60093D637009317D901D58F1355390028
:1019B00041B789476382F4028D476387F40091C47D
:1019C000FD571307E07F29A065FE81471307F07FCD
:1019D000136454003E85A9BF65D6C5BF51EB93F68D
:1019E00077004A8795CA8946136414006385D40238
:1019F0008D46638ED4008DE093F6F7009145638D9C
:101A0000B60013B7C7FF134717004A9731A009E67E
:101A100013B787FFCDBF6DFE618313471700058B9A
:101A200005451308E841B3D6A700B3970701B337BC
:101A3000F00033180901B3E70701D58F3355A9002A
:101A400093F67700A5CE8946136414006387D40605
:101A50008D466380D406BDE093F6F7009145638F11
:101A6000B60493864700B3B5F6002E95B687B9A0A5
:101A70000545198D9306800363CDA606FD4663C414
:101A8000A600054779BF85563387E64093050002D7
:101A90003357E90081466306B5001308E843B316DF
:101AA0000901DD8EB336D000B367D7000145054785
:101AB00041BF09E6938687007DB76DFEB7068000BB
:101AC000E98E81CA136414000145814705E3054787
:101AD00085B593D637009317D501D58F0D81E309CE
:101AE00007E413771400E30507E4014713642400B7
:101AF00081B5B3E7270189CF894713641400638256
:101B0000F4028D47638BF400954791C085478D8320
:101B1000136424000145014721BD85476DFAA5479F
:101B2000FDB785476DD6E5BF370508008147130728
:101B3000F07F01464144EDBB01458147E9BF2A875B
:101B4000F3272000B707100013D84501FD1713D362
:101B500046011378F87F1305F07FB3F8B7001373CD
:101B6000F37FF58FFD81FD82631EA80033E7E80057
:101B700005E30545631F03055D8E05E6958D333549
:101B8000B00082806316A3025D8E01EE054582805F
:101B90003707080063EBE8000545631C03035D8E0F
:101BA0000DCA37070800E3F3E7FE73601800F9BFBA
:101BB000054563106802639EF800631CC7006389D3
:101BC000D50063180800B3E8E800333510018280BF
:101BD000014582802A88F32720003707100093D719
:101BE000460113D345017D172A8E1373F37F13F536
:101BF000F77F9307F07FB378B700B28E758FFD81C2
:101C0000FD826312F302B3E80801639508086306D6
:101C100065000545BDCD7D558280518F25EFE39A46
:101C2000D5FE014582806314F502518F25E76308D4
:101C30000300E390D5FE7D55A9CD2E858280B3E8C3
:101C40000801E39808FE7D55A9C6368582806303A6
:101C5000030261D1E39FD5FAE34D65FAE34DA3FC9E
:101C6000E36917FBE399E8FCE3E5CEFB014563720A
:101C7000DE03D1B733E8080101C5E30608FC55BF10
:101C8000598E11C6E30108FCE38CD5FC59B7E31269
:101C900008F8828073601800795582802A88F327BB
:101CA00020003707100093D7460113D345017D1755
:101CB0002A8E1373F37F13F5F77F9307F07FB378C2
:101CC000B700B28E758FFD81FD826312F302B3E817
:101CD000080163950808630665000545BDCD7D557F
:101CE0008280518F25EFE39AD5FE014582806314EF
:101CF000F502518F25E763080300E390D5FE7D557B
:101D0000A9CD2E858280B3E80801E39808FE7D55B1
:101D1000A9C6368582806303030261D1E39FD5FAA9
:101D2000E34D65FAE34DA3FCE36917FBE399E8FC97
:101D3000E3E5CEFB01456372DE03D1B733E808016A
:101D400001C5E30608FC55BF598E11C6E30108FC26
:101D5000E38CD5FC59B7E31208F882807360180051
:101D600009458280797122D456CA62C406D626D229
:101D70004AD04ECE52CC5AC85EC666C22A84328C35
:101D8000B68A7329200093DB45019399C50093FB24
:101D9000FB7F93D9C90013DBF50163860B02930720
:101DA000F07F638EFB068E099357D501B3E73701A9
:101DB000B7098000B3E93701131A3500938B1BC0B4
:101DC000814C814495A833EAA90063010A0E638A15
:101DD00009024E85EF104044130755FFF54793065F
:101DE00085FF998FB399D900B357F400B3E7370152
:101DF000B319D400930BD0C04E8AB38BAB40BE89CD
:101E0000C1B7EF106041AA8713875701F146130548
:101E10000502E3D5E6FCE117B317F400E1BF33EAAE
:101E2000A90063090A08B7040800B3B49900920432
:101E30002A8A930BF07F8D4C13D74A011394CA0062
:101E40001377F77FE287318093DAFA012DCB93067F
:101E5000F07F630FD70A0E049357DC01C18F37045C
:101E600080005D8C930617C093173C008145139743
:101E70002C00B69B4D8FA94633485B0193881B000D
:101E800063C5E626894663CDE60A7D17854663E885
:101E9000E60CAE8C09476389EC460D47638BEC4634
:101EA00005476397EC20814601462DA98149814B66
:101EB000854C01BF8149930BF07F894C19B7B367FB
:101EC0008401A5C71DC42285EF100035930655FF78
:101ED0007547930785FF158F3314F4003357EC00D3
:101EE000418F3314FC009306D0C0A287898E3A84B8
:101EF000B5BF6285EF104032AA87938657017147BC
:101F000013050502E356D7FCE1173317FC00E1BFC8
:101F1000336C840163000C02370708009306F07FDE
:101F20008D45E376E4F4C14499B701448147814685
:101F3000854535BF014481479306F07F894505BF3C
:101F400085463397E600137607536317061A937690
:101F500007246394063A137787086312071A4163CC
:101F60009305F3FF13570A0113D50701337ABA001B
:101F7000B3F2B700B3874203330E570213D60701FB
:101F8000B3064503F2963696B30EA7026373C601F5
:101F90009A9E935606016D8EED8F135F0401E18DBD
:101FA00042063E963304BA02B307B702330A4F0320
:101FB000330EE7033E9A1357040152976374F700F8
:101FC000C1673E9EC163938FF3FFB377F70113534D
:101FD00007013374F4017293B3FFF90113DE0901B1
:101FE000C207A297B309C503BE963384F203330533
:101FF000F50313570401B3025E0216952A97637323
:1020000057009E99135507014E95C1699383F9FFB7
:1020100033777700420733747400B3028700338448
:10202000BF02B305BE0213570401330ECF03330FB3
:10203000FF032E9F3A9F6373BF004E9E33777F004E
:10204000337474004207F69622973A93B3B7F600BA
:102050009A97B38556003E95B3B6D500AA96333706
:10206000E30033B367003334F5003367670033B5FB
:10207000A600135F0F017A97498C3A94729493D714
:10208000760126045D8C93979500D18FB337F000CD
:10209000DD8137070001CD8FA606618FD58F35C34F
:1020A00013D71700858B5D8F9317F401D98F0580A7
:1020B0001387F83F6355E00E93F67700A1CE89466B
:1020C00093E414006306D9048D46630ED9026313AA
:1020D000090493F6F7001146638EC6029386470003
:1020E00033B6F6003294B68735A0BD466303D722D7
:1020F000AD466306D7005A884E84D28761BB5688A6
:1021000049BBDE8875B76317080093868700C9BF8F
:10211000E31D08FEB7060001E18E99C6370700FFF0
:102120007D17798C138708409306E07F63C1E6042E
:102130008D831316D4015D8E93563400B206520778
:10214000B182558F7E08B36707013285BE8599C07D
:1021500073A01400B250225492540259F249624AB8
:10216000D24A424BB24B224C924C45618280894705
:102170006304F9028D476308F900630809007D567E
:102180001307E07F31A0E31C08FE01461307F07F30
:1021900093E45400B2865DB7E30308FEFDB751EF48
:1021A00093F6770022878DCE894693E41400630767
:1021B000D9028D46630FD9006314090293F6F70024
:1021C0001146638FC60013B7C7FF13471700229746
:1021D00001A86317080013B787FFC5BFE31D08FEFA
:1021E000618313471700058B85469388E84133D6F2
:1021F000D700B3971701B337F000B3181401B3E752
:102200001701D18FB356D40013F677003DCE09469F
:1022100093E414006309C9060D466301C9066316F9
:10222000090613F6F70091456301B60613864700C9
:10223000B335F600AE96B28789A88546998E130607
:102240008003634ED6067D466344D600054771BFC2
:1022500005563307E640930500023357E400014674
:102260006386B6009388E843331614015D8E3336D7
:10227000C000B367C7008146054779B763170800F8
:102280001386870075B7E31D08FE37068000758E3C
:1022900001CA93E414008146014619EF054779BD50
:1022A0001396D6018D835D8E8D82E30907E813F7BF
:1022B0001400E30507E8014793E4240041B533E641
:1022C000870011CE894793E414006304F9028D4717
:1022D000630CF90015466303090005460D8293E47B
:1022E00024008146014799BD0546E31908FE2546AD
:1022F000F5B70546E30408FEDDBFB706080013077F
:10230000F07F0148C1441DBD814601461307F07F9F
:1023100035B5B706080001461307F07F014839BDFF
:10232000011106CE22CC26CA4AC84EC652C4F32991
:102330002000B7071000FD1733F7B7000E079358BA
:10234000D501F58FB3E8E80013D7460113D4450152
:102350001358D60193D4F5018E071377F77F9305B1
:10236000F07F1374F47F0E05FD823368F8000E06CB
:102370006310B704B365C8009307148091CD36830A
:10238000639BD448638507220DC09357680193C7A8
:102390001700858B9207B9A813C31600639764488A
:1023A000638707208146631604481304F07F49AA17
:1023B00013C31600B307E440639C6438635BF012F8
:1023C00035EFB367C80081EB630DB40446882A86F5
:1023D0008147228705A09307F4FFB1E32A96469828
:1023E0003335A6002A98370780003377E800631B4F
:1023F0000732054793767600C28832856388067C6B
:102400008146094693E717006390C92E638E042E18
:1024100013068500B335A600AE9832857DA7631FED
:10242000B408B3E6A800E380060493D7680193C715
:102430001700858B920746882A8625AA6317B40061
:10244000B3E6A8006381061CCDB713078003634B76
:10245000F706370780003368E8007D476347F706D3
:10246000930600029D8E3317D800B355F600B316BD
:10247000D6004D8FB336D000558FB357F8003306D2
:10248000A7003337E600C6973388E7002287B707EF
:102490008000B377F800638A0722130417009307BC
:1024A000F07F6312F428638709008D47639DF92844
:1024B000639604228148814615475DA21307800375
:1024C000E35DF7F8814705475DBF138707FE930576
:1024D00000023357E80081466387B7009306000483
:1024E0009D8EB316D800D18EB336D000558F81475C
:1024F00079B7D5CFB307874039C09306800363C14E
:10250000F608B7068000B3E8D800FD4663CDF606AE
:10251000930500029D8DB396B8003353F500B315B3
:10252000B500B3E66600B335B000CD8EB3D7F80082
:102530003696C297B336D6003388D70089BF3E841B
:10254000B3E7A80091E79307F07F631CF41E09A886
:102550009307F4FFE38407E89306F07F631ED4003B
:10256000B366C800CDC29357680193C71700858B27
:1025700092071307F07FBDBD93068003E3D7F6F8FB
:102580008147854675B7938607FE13030002B3D6CD
:10259000D800814563876700930500049D8DB3953E
:1025A000B800C98DB335B000CD8E814751B79306C1
:1025B000140093F7E67FF5EBB3E6A80015E8638611
:1025C00006563367C8006308074A2A963337A600C1
:1025D0004698B308E8003707800033F7E8003285F3
:1025E000630B0748370880FF7D1833F8080111B5E1
:1025F0009305F07F631AB40289EAE31C87F6B36699
:10260000C800E39406D881483DA4B705400033FED6
:10261000B8003363C800630E0E64631E8706631F31
:10262000030046882A86F9B36311B706B365C8006C
:1026300099E9E5FA81481304F07FF5AAB375B8006B
:10264000BDC1014701A80147B7074000B377F800B3
:10265000A9C395CE8144B708400081461304F07F9A
:102660009397D8018D82DD8E9307F07F13D63800C3
:102670006314F458D18E014663800658370608006B
:102680008146814495AB4147C1B7014791E6BA877E
:10269000CDB54147E5BF01473368C800E31C08FAE0
:1026A00046882A86EDB74147C5BF9307F07F638010
:1026B000F6022A963335A60046982A989317F80111
:1026C00005825D8E135818003687814725B36389CC
:1026D00009588D47639DF902638404588146FD586B
:1026E0007D551307E07F95470D46638FC94C639D69
:1026F00009001376F50091456308B60013064500FE
:10270000B335A600AE98328563950646C1A18947C8
:102710006394F90063960454FD587D551307E07FD8
:1027200095476DA10944B70780FFFD17B377F800FF
:1027300013571600058A518F1396F701598E13D837
:102740001700228759B78947E398F9FCF1D49DB364
:102750006355F00E1DEBB367C800E38707C6930708
:10276000F4FF99EB3306C540338808413335C50083
:102770003308A840054785A0E305B4CA13078003C2
:10278000635FF700814705472DA8E30BB4CA130721
:102790008003E349F7FE370780003368E8007D4790
:1027A0006347F704930600029D8E3317D800B35594
:1027B000F600B316D6004D8FB336D000558FB35701
:1027C000F8003307E5403338E500B387F8403A8630
:1027D00033880741228737098000B3772801E386D1
:1027E00007EE7D1933792801328A3A842DAC13879C
:1027F00007FE930500023357E80081466387B70060
:10280000930600049D8EB316D800D18EB336D00047
:10281000558F81477DB7F5C721C89357680193C786
:102820001700858B9207B684F1B6E1CF31C081469F
:102830009A8481483A84014725B5E1C7B3078740A8
:1028400029E49A843E84B3E7A800E38E07CE930779
:10285000F4FF8DE33305A640B337A60033081841D3
:102860002A863308F84039B7B6841304F07FE1BFF5
:102870009A84E5BF9306F07FE304D4CE93068003E9
:1028800063DEF600814785462DA89306800363C862
:10289000F606B7068000B3E8D8009A84FD4663CCFC
:1028A000F602930500029D8DB396B8003353F500F0
:1028B000B315B500B3E66600B335B000CD8EB3D71F
:1028C000F800B306D640B335D600B307F8403686D5
:1028D0003388B74009B7938607FE13030002B3D6C7
:1028E000D800814563876700930500049D8DB395EB
:1028F000B800C98DB335B000CD8E8147D9B79A8461
:1029000051B79307140093F7E77FFDE7B366C8005C
:10291000B3E5A80029E899E9639C06209384E9FFC0
:1029200093B4140081488146014431B7638506148D
:102930003307C540B336E500B3870841958FB70626
:102940008000FD8E99CA3305A640330818413336FE
:10295000A600B308C8409A8439AAB366F700DDDE42
:10296000BE883A8509AA130EF07F631EC40381ED69
:10297000631E87068144A1C2B7054000B375B80045
:10298000A5C99A8485BC37064000B3F5C800638B9F
:10299000052E63118706E38006AA3376C800E3128A
:1029A00006CA4147D5AC6315C70391EAE39505A86C
:1029B00081441304F07FB7084000414755B1370EFA
:1029C0004000337EC80163010E02E39C05C655BF7B
:1029D00001476393052C9A84E39B06CA8144B70898
:1029E00040001304F07FD1BF4147E5B70147E5B789
:1029F0004147D5B701474DA4B307C5403337F5006C
:102A0000338908413309E940370780003377E9000B
:102A10003E8A5DCB330AA64033091841333646015E
:102A20003309C9409A846305090A4A85EF00C07ECC
:102A3000130785FF13050002198D3319E90033557B
:102A4000AA00336825013319EA006347870C018F18
:102A50009308170093070002B38717413317F80054
:102A6000B3561901B317F900558FB337F00033652A
:102A7000F700B3581801B3671501E38507EA9357C8
:102A8000F501139718003E979317150013F677007A
:102A9000937675006307061009466386C90C0D46D8
:102AA000638BC9086397090E13F6F700914593B736
:102AB000C7FF631EB608B70700017D8F63100710BC
:102AC00063920610854775A0B3E72701A9FFB9B542
:102AD0005285992713078501FD47E3DDE7F461156A
:102AE0003318AA00634A8702018F93081700E3D3C3
:102AF00017F70517930700023357E800014563886D
:102B0000F80013050004330515413315A8003335CB
:102B1000A000598D814885B7B70780FFFD1733079F
:102B2000E4403378F8004A864DB6C2883285A1B7B2
:102B3000C28832850DB591C8B70700017D8F25EF9A
:102B4000A68785CAA686014745B693B787FF93C770
:102B50001700BA9737070001F98FADE30147BDD2DF
:102B60008546854751B689E8B70700017D8F8547BF
:102B700021E793E7270099A893B787FF93C717002A
:102B8000BA9737070001F98F9DE7CDE2A687014785
:102B9000CDB7B70700017D8F15E38DD68546014778
:102BA000C9B7B70700017D8F01EF814785C2854610
:102BB00001478147B9B0A687014789B08547EDBF76
:102BC0008147DDBF014769BFB9CCB5E6B7068000D4
:102BD000B3F6D800D9CA130417001307F07F630EA9
:102BE000E404370680FF7D1633F6C8009316D6013D
:102BF0000D81C98E0D823E87B707F07F52043206E1
:102C00007D8C3182518CFE04B36794003685BE857D
:102C100019C373201700F2406244D2444249B249BA
:102C2000224A0561828013068500D9BCA686A68744
:102C300001476FF0AFFDB6842DBF81466386090062
:102C40000D476397E90089E813E75700B68809BC88
:102C500009476393E900EDF8FD561304E07FEDB7F3
:102C60001304F07F81B88148E5BA3A84AA863E878A
:102C7000C5BAE31A87A2E31803A046882A86C1478B
:102C80006FF04FF7E31F87D0C147638606FA3376AC
:102C9000C8004147E310069CE39E069A11B4F3274F
:102CA0002000B7071000FD1733F7B700D181F58F6B
:102CB00093F5F57FD1821308F07F93F6F67F638852
:102CC00005010145639D06035D8E15E28280598DE5
:102CD00011E56396B6025D8E19EA82803705080019
:102CE000636CA7000545639CB6005D8E09CA370773
:102CF0000800054563F5E70073601800054582800C
:102D00002A86F3272000B707100093D645011388C1
:102D1000F7FF93F6F67F1307E03F3378B800FD81A5
:102D20006347D700D1EE3365A80059E982801307C5
:102D3000D0416358D702B707008093C7F7FF3385A8
:102D4000F500D1C19307E04141476395F6042E0891
:102D5000935756013368F800631E08022E0635E6C5
:102D60008280B367F800130830433308D8407D47AA
:102D7000634507039386D6BE3317D5003358060143
:102D80003395D7003337E0003365050199C133052A
:102D9000A04019C373201700828013050002014769
:102DA0006306A8001387D6C03397E700518F130638
:102DB0003041B306D6403337E00033D5D700F9B7FA
:102DC00001450547C1BF4147F1B72E87E1B7AA8644
:102DD000F32720003706100013D745019307F6FFAD
:102DE0001377F77F1305E03FED8FFD816347E50023
:102DF00025E333E5D70029ED8280A9ED9305E04175
:102E000063CFE504D18F13063043198EFD4563CEA1
:102E1000C5001307D7BE33D6C600B397E700B396F5
:102E2000E60033E5C7009DE282801305000281457C
:102E30006306A6009305D7C0B395B70013063041CB
:102E40003307E640D58D33D5E70089C9854729A0EA
:102E50000145EDBF0145C14773A0170082807D5534
:102E6000DDBF411106C622C426C221CD9357F541CC
:102E700033C4A7001D8C9354F5012285712E1307CE
:102E8000E041A947098F63C8A702AD47898F55055F
:102E9000B357F4003314A4002685B207B183520758
:102EA0007E055D8FB240B367A7002285224492441D
:102EB000BE85410182805515B317A40026850144C3
:102EC000E9BF01478147E5BF411122C406C62A84F4
:102ED0001DCD99261307E041A947098F63C4A702B6
:102EE000AD47898F5505B357F4003314A400B240A1
:102EF0002285B20722445207B183B366F700B68534
:102F0000410182805515B317A4000144CDB7814714
:102F10000147F1BFF3272000B707100013D6450182
:102F20009386F7FF1376F67F1307E03FED8E634934
:102F3000C70065E2C98E01478145F1EE3A8582807E
:102F4000411122C406C61307D04313D4F501635CB4
:102F5000C7020547018F1358F741B7050080B33703
:102F6000E000B38505413307E0409D8D4DC813084F
:102F7000E043C14763190607C98EB5E6B240224453
:102F80003A8541018280B3E5F6009307204363D080
:102F9000C7021306D6BCA92C2A876DD0B337A00070
:102FA000B306B0403307A040B385F640C1BF9306D7
:102FB0003043918EFD4763CBD7021307D6BEB317BC
:102FC000E5003397E5003355D500B337F000498F5E
:102FD000B3D5D50001C8B336E000B305B040958D38
:102FE0003307E040C1DF73A0170049BF1307000299
:102FF00081476386E6009307D6C0B397F5001307B1
:103000003041C98F118F33D7E500B337F0008145C8
:10301000D1B701478145854773A0170005B7C14760
:10302000D9B7797106D622D426D24AD04ECE52CC08
:1030300056CA5AC85EC662C4F32B2000B367B500F7
:10304000638C07162E8BAA89AE8413D9F50163D938
:103050000500B337A000B304B0409D8CB309A04075
:1030600026849DCC26854D2A9307E043338AA740CA
:1030700093073043AA8A63C94705AD474E87630269
:10308000F514130755FF1304B00233045441B394ED
:10309000E40033D48900458C3397E9008146E5A0EC
:1030A0004E859D2A9307E043930A0502338A5741D0
:1030B0009307A00213075501E3D757FD130455FFEB
:1030C000014733948900D9BF9307604363D2470710
:1030D0002146098EA6854E85C5282A8CAE84138686
:1030E0008A03A2854E8529223367B5003337E00075
:1030F000336587012684B70780FFFD177D8C9377A2
:1031000075008146A5C38947638BFB048D478546BF
:103110006382FB0463980B049377F5001147638384
:10312000E7049307450033B7A7003A943E851DA8EE
:1031300021474E8593878AFFE38FEAFA13078002BF
:103140003307574133D7E9003394F400598C339552
:10315000F90055B763480B0093078500E9B785462A
:10316000E34C0BFEB7078000E18F89CBB70780FFE8
:10317000FD177D8C9307F043338A57411317D40111
:103180000D81498F0D80320493174A013180C18F20
:103190007E0933E627013A85B28599C273E01000B3
:1031A000B250225492540259F249624AD24A424BD6
:1031B000B24B224C4561828001440147014A0149DA
:1031C000F1BD130A3043D9BD19CA93070002918F8C
:1031D0006348F000011633D5C5000147BA858280E7
:1031E00033D7C5003355C500B395F5004D8DFDB7F8
:1031F00019CA93070002918F6348F0000116B315B6
:10320000C50001473A8582803317C500B395C500D4
:103210003355F500C98DFDB7C1676376F502933765
:10322000051093C717008E073747019093060002D9
:103230009D8E3355F5009307470EAA9703C50700E7
:103240003385A640828037070001C147E36EE5FC65
:10325000E147D9BF011122CE00102326A4FE23246A
:10326000B4FE8327C4FE032784FE98C30100724482
:1032700005618280011122CE00102326A4FE83273F
:10328000C4FE9C433E85724405618280411106C69E
:1032900022C400088145370500A06D3F8145B7076E
:1032A00000A0138547007D378145B70700A013852F
:1032B00087004D37FD55B70700A013850701593F1B
:1032C000B70700049385F7FFB70700A013854701F0
:1032D00051378145B70700A013858701A53F0145F8
:1032E000952A014531200100B240224441018280EB
:1032F000797106D622D40018232EA4FC8327C4FD9E
:1033000093F7F70FBD8BA307F4FE8327C4FD9183CA
:1033100093F7F70FBD8B2307F4FE8327C4FDA1832A
:1033200093F7F70FBD8BA306F4FE8327C4FDB1838B
:1033300093F7F70FBD8B2306F4FE8327C4FDC183EB
:1033400093F7F70FBD8BA305F4FE8327C4FDD1834C
:1033500093F7F70FBD8B2305F4FE8347F4FE374741
:1033600001901307471EBA9783C70700A307F4FE0F
:103370008347E4FE374701901307471EBA9783C778
:1033800007002307F4FE8347D4FE37470190130755
:10339000471EBA9783C70700A306F4FE8347C4FEFF
:1033A000374701901307471EBA9783C707002306C4
:1033B000F4FE8347B4FE374701901307471EBA97C0
:1033C00083C70700A305F4FE8347A4FE3747019097
:1033D0001307471EBA9783C707002305F4FE8347E8
:1033E000C4FE139787018347D4FEC2075D8F8347CE
:1033F000E4FEA2075D8F8347F4FED98F2322F4FEFB
:10340000832544FE370500A0B135B70700A013851A
:1034100047008D352322A4FE032744FEC177F98F90
:103420002322F4FE8347A4FE13978700832744FEDC
:103430005D8F8347B4FED98F2322F4FE832544FE9B
:10344000B70700A01385470031350100B250225460
:1034500045618280797106D622D40018232EA4FCFF
:103460008327C4FD93F7F73F232EF4FCB70700A092
:103470001385470001352326A4FE0327C4FEB707A2
:1034800001FCFD17F98F2326F4FE8327C4FDC20734
:103490000327C4FED98F2326F4FE8325C4FEB70775
:1034A00000A0138547007D330100B25022544561CE
:1034B0008280011106CE22CC0010B70700A0138530
:1034C00087004D3B2326A4FE8327C4FE93C7F7FF46
:1034D000A983858B2326F4FE8327C4FE3E85F24014
:1034E000624405618280011106CE22CC0010B7072C
:1034F00000A013858700BD3B2326A4FE8327C4FEBE
:1035000093F7F73F2326F4FE8327C4FE3E85F2405F
:10351000624405618280011122CE00102326A4FEA0
:103520002324B4FE8327C4FE032784FE98C301002E
:10353000724405618280011122CE00102326A4FE70
:103540008327C4FE9C433E85724405618280797165
:1035500022D63AD43ED20018F32720342326F4FE94
:103560008327C4FE2324F4FE032784FE91476307C8
:10357000F700032784FE99476317F704F3271034F5
:103580002322F4FE832744FE2320F4FE832704FE37
:1035900083C70700A30FF4FC8347F4FD13F737003C
:1035A0008D476314F700914711A08947232CF4FC41
:1035B000032704FE832784FDBA972320F4FE832784
:1035C00004FE73901734010032542257925745611C
:1035D00073002030411106C622C44AC24EC0000802
:1035E000EF50C0522A8793074006B357F7023E892F
:1035F00081494A88CE880147814705468146A945C9
:103600000545DD28014781460146854501450128DC
:103610000100B2402244124982494101828039713D
:1036200022DE8000232EA4FC232CB4FC232AC4FC1D
:103630002328D4FC2326E4FC8327C4FD858B232E7A
:10364000F4FC832784FD858B232CF4FC832744FD25
:10365000858B232AF4FC832704FD858B2328F4FC27
:103660008327C4FCBD8B2326F4FC8327C4FC739002
:1036700007BFF32740302326F4FE8327C4FE23240C
:10368000F4FE032784FEFD77938777777D8F83276A
:10369000C4FDAE075D8F832784FD9E075D8F832762
:1036A00044FD8E07D98F2324F4FE832784FE739074
:1036B0004730F32700302322F4FE832744FE2324DF
:1036C000F4FE832784FE13F777FF8326C4FD832748
:1036D00084FDDD8E832744FDDD8E832704FDD58F99
:1036E0008E07D98F2324F4FE832784FE739007303E
:1036F00001007254216182805D7186C6A2C4CAC273
:10370000CEC052DE56DC80082326A4FC2324B4FC61
:103710002320C4FC2322D4FC232CE4FA232EF4FA25
:10372000232804FB232A14FB8327C4FC858B232630
:10373000F4FC832784FC89C7832784FCFD1719A028
:10374000832784FC232EF4FC8327C4FD93F7F7031F
:10375000232EF4FC832704FC13F31700832744FC77
:1037600093F30700232064FC232274FC8325C4FD0B
:10377000B707004913854700793B832784FBBE8543
:10378000B70700491385870079338327C4FB13DA11
:103790000700814AD287BE85B70700491385C70055
:1037A0009D3B832704FBBE85B707004913850701AE
:1037B0009D33832744FB13D907008149CA87BE85FF
:1037C000B707004913854701B933832704FC1397D2
:1037D00027008327C4FCD98FBE8537050049253BC8
:1037E0000100B640264416498649725AE25A616180
:1037F0008280357106CF16CD1ACB1EC922C72AC5C5
:103800002EC332C1B6DEBADCBEDAC2D8C6D6F2D416
:10381000F6D2FAD0FECE82E686E48AE28EE012FE8E
:1038200016FC1AFA1EF82AF62EF432F236F03AEEA8
:103830003EEC42EA46E872E676E47AE27EE0001187
:103840008145370500C0C1390100FA40EA425A43B8
:10385000CA433A442A459A450A46F6566657D65709
:103860004658B658265E965E065FF64F3660A660EE
:10387000166186617272E2725273C2733275A275FA
:10388000127682767267E2675268C268326EA26E02
:10389000126F826F0D6173002030357106CF16CD27
:1038A0001ACB1EC922C726C52AC32EC1B2DEB6DC7A
:1038B000BADABED8C2D6C6D4F2D2F6D0FACEFECC90
:1038C00082E686E48AE28EE012FE16FC1AFA1EF800
:1038D0002AF62EF432F236F03AEE3EEC42EA46E8B0
:1038E00072E676E47AE27EE0001137050049A13104
:1038F000AA87BE85370500493939B717008883A7DD
:1039000007C43E85813E7536AA8789EFE93E2A873E
:10391000B717008883A707C43E97B717008823A06E
:10392000E7C429A8B717008883A407C46D3EAA87F7
:103930003387F440B717008823A0E7C40100FA409A
:10394000EA425A43CA433A44AA441A458A4576563B
:10395000E6565657C6573658A658165E865E764FB8
:10396000E64F3660A660166186617272E27252732B
:10397000C2733275A275127682767267E2675268F8
:10398000C268326EA26E126F826F0D6173002030BA
:10399000357106CF16CD1ACB1EC922C72AC52EC334
:1039A00032C1B6DEBADCBEDAC2D8C6D6F2D4F6D29E
:1039B000FAD0FECE82E686E48AE28EE012FE16FCA3
:1039C0001AFA1EF82AF62EF432F236F03AEE3EECEF
:1039D00042EA46E872E676E47AE27EE0001181454A
:1039E000B7070049138587013D360100FA40EA42D6
:1039F0005A43CA433A442A459A450A46F6566657F8
:103A0000D6574658B658265E965E065FF64F366025
:103A1000A660166186617272E2725273C273327569
:103A2000A275127682767267E2675268C268326E59
:103A3000A26E126F826F0D61730020305971A2D691
:103A4000AAD4AED2B2D0B6CEBACCBECAC2C8801842
:103A5000F32700BF232EF4FC8327C4FD232CF4FCA2
:103A6000F32760BF232AF4FC832744FD2324F4FCBE
:103A7000232604FCF32770BF2322F4FC832744FC95
:103A8000232CF4FA232E04FA832784FB9395070052
:103A90000145032684FC8326C4FC3307A6003A882C
:103AA0003338C800B387B600B306F800B6872328BA
:103AB000E4FA232AF4FAF32710BF2326F4FA832723
:103AC000C4FA2324F4FAF32710342322F4FA8327C8
:103AD00044FA2320F4FAF3270030232EF4F8832746
:103AE000C4F9232CF4F8832784F993E787007390B3
:103AF00007300100832784F973900730832704FA85
:103B000073901734832784FA739007BF01003654EB
:103B1000265596550656F6466647D6474648656189
:103B200073002030797122D60018232EA4FCB71719
:103B3000008883A747C43E87B7170088938787D339
:103B4000BA972326F4FEB717008803A747C4832734
:103B5000C4FD3E9789676350F702B717008803A733
:103B600047C48327C4FD3E97B717008823A2E7C444
:103B70008327C4FE11A0FD573E85325445618280E3
:103B8000011122CE00102326A4FEFD573E8572446B
:103B900005618280011122CE00102326A4FEFD576C
:103BA0003E85724405618280411122C6000881472A
:103BB0003E85324441018280797106D622D40018B4
:103BC000232EA4FC232CB4FC232AC4FC232604FEAD
:103BD000232604FE8DA0B717008883A747C28297CB
:103BE000AA87BE868327C4FE032784FDBA9713974E
:103BF000860161872380E7008327C4FE032784FDB5
:103C0000BA9703870700A947630CF7008327C4FE10
:103C1000032784FDBA9703870700B5476318F700A9
:103C20008327C4FE85072326F4FE21A88327C4FE2C
:103C300085072326F4FE0327C4FE832744FDE34CB7
:103C4000F7F88327C4FE3E85B25022544561828036
:103C5000797106D622D40018232EA4FC232CB4FCA0
:103C6000232AC4FC232604FE99A08327C4FE03272D
:103C700084FDBA9703870700A9476318F700B717B1
:103C8000008883A707C235458297B717008883A7A6
:103C900007C20327C4FE832684FD36970307070067
:103CA0003A8582978327C4FE85072326F4FE0327DF
:103CB000C4FE832744FDE34AF7FA832744FD3E858B
:103CC000B250225445618280011122CE0010232679
:103CD000A4FE2324B4FE2322C4FE81473E85724401
:103CE00005618280011122CE00102326A4FE01A0CE
:103CF000011122CE00102326A4FE85473E85724482
:103D000005618280011122CE00102326A4FE232407
:103D1000B4FE81473E85724405618280411122C60E
:103D2000000881473E85324441018280011122CE44
:103D300000102326A4FE2324B4FE832784FE0967F3
:103D4000D8C381473E85724405618280411106C611
:103D500022C400080128812281473E85B2402244C6
:103D6000410182806D712326111023248110000AE5
:103D7000B707019013850770EF50D061B707019026
:103D800013854770EF501061B70701901385C77214
:103D9000EF505060B70701901385C772EF50905FE6
:103DA000B707019013854775EF50D05EB7070190B4
:103DB0001385C772EF50105EB70701901385C77265
:103DC000EF50505DB70701901385C777EF50905CB7
:103DD000B70701901385877AEF50D05B930704EF04
:103DE0009305F00F3E85EF501060030704EF930733
:103DF00090076308F700030704EF93079005631427
:103E0000F700EF40504EB70701901385C77CEF5085
:103E10007058B70701901385477DEF50B057B7072B
:103E200001901385C77FEF50F056B71701901385A7
:103E30004782EF503056B717019013858784EF50B3
:103E40007055B71701901385C786EF50B054B71758
:103E5000019013850789EF50F053EF40703F5145B3
:103E6000EF405041AA871387470193074006B307E5
:103E7000F7023E85EFE0FFFE2A87AE87B71600887F
:103E800023A0E6CE23A2F6CE01008320C110032496
:103E90008110516182806D712326111023248110BD
:103EA000000A99246D2DEF103012B717008803A770
:103EB000C7C8B717008883A707C63E97A94763C836
:103EC000E706B717008803A707C6A54763D1E7022F
:103ED000B737008893870700985FDC5F014681460B
:103EE0003A85BE85EFD09FDBAA8763D20704B71758
:103EF00001901385078CEF50F049B7170190138597
:103F0000878DEF503049B717019013854790EF50D8
:103F10007048B717019013850793EF50B047B71754
:103F2000019013854795EF50F046EF303045B717B5
:103F3000019013858798EF50F045930704EF9305A0
:103F4000F00F3E85EF50304AB7170190138547991F
:103F5000EF505044130704EF0D46B71701909385B7
:103F600087993A85EF60D07EAA8781E7EF00D03449
:103F70002DBF130704EF0D46B71701909385C7991E
:103F80003A85EF60F07CAA8781E7EF10F00331BF3C
:103F9000130704EF0D46B71701909385079A3A85EA
:103FA000EF60107BAA8781E7EF10B047FDBD1307D4
:103FB00004EF0D46B71701909385479A3A85EF6055
:103FC0003079AA8781E7EF10F05CC5B5130704EFDD
:103FD0000D46B71701909385879A3A85EF60507721
:103FE000AA8781E7EF206025C9B5130704EF0D46C6
:103FF000B71701909385C79A3A85EF607075AA87C5
:1040000081E7EF20305255B5130704EF0D46B7177F
:1040100001909385079B3A85EF609073AA8781E7AB
:10402000EF20F02259B5130704EF0D46B7170190A2
:104030009385479B3A85EF60B071AA8781E7EF20AF
:104040003063A5B5130704EF0D46B71701909385AC
:10405000879B3A85EF60D06FAA8781E7EF30903574
:10406000A9B5B71701901385C79BEF50B032B717AA
:1040700001901385C79DEF50F031B717019013855C
:10408000479FEF503031B7170190138547A1EF508C
:104090007030B7170190138507A3EF50B02FB717F3
:1040A0000190138547A4EF50F02EB71701901385A8
:1040B00007A6EF50302EB7170190138587A7EF5052
:1040C000702DB7170190138507A9EF50B02CB717C3
:1040D00001901385C7AAEF50F02BB71701901385F5
:1040E0004799EF50302BD1B3011106CE22CC26CA0E
:1040F0000010231204FE9D67938797362320F4FE59
:10410000B717008803A707CE83A747CE3A85BE8599
:10411000EFE01FBF2A87B717008823ACE7C82945FF
:10412000EF405015AA8713879701B717008823AE71
:10413000E7C8B717008823AC07C4B717008803A7E0
:1041400087C2B717008823A0E7C6B717008803A760
:10415000C7C2B717008823ACE7C6B717008823A6E5
:1041600007C8EF4030002A87B717008823AEE7C69C
:10417000EF40407F2A87B717008823A0E7C8EF40A9
:10418000607EAA873E85EFE0DFCD2A87AE87B7162F
:10419000008823A8E6CC23AAF6CCEF40A07CAA870F
:1041A0003E85EFE01FCC2A87AE87B716008823AC88
:1041B000E6CC23AEF6CC85472326F4FE15A0B73710
:1041C0000088138707008327C4FE8E07BA9723A0B1
:1041D000070023A207008327C4FE85072326F4FED9
:1041E0000327C4FEA147E3DCE7FC85472326F4FE52
:1041F000A1AA85472324F4FE35AAB717008823A473
:1042000007C6B73700889386C7EB0327C4FEBA8773
:104210008E07BA97032784FEBA978A07B69723A01A
:10422000070013054006EF40F0042A87B7170088FF
:1042300023A2E7C8B717008803A747C8930720063B
:1042400063D8E700B71700880D4723A4E7C625A861
:10425000B717008803A747C89307F00563D8E7009E
:10426000B7170088094723A4E7C631A8B717008805
:1042700003A747C89307000563D7E700B71700886F
:10428000054723A4E7C6B717008803A707C7B717D2
:10429000008883A787C63E97B717008823A8E7C67C
:1042A000B717008823A407C413054006EF40807C9D
:1042B0002A879307000663D7E700B71700880547EA
:1042C00023A4E7C4B717008803A747C5B71700881A
:1042D00083A787C43E97B717008823AAE7C4B717F8
:1042E000008803A787C693074006B306F702B717EF
:1042F000008803A787C4BA878A07BA978607B3845A
:10430000F600EF402066AA87B386F400B73700882E
:10431000138687D30327C4FEBA878E07BA9703276D
:1043200084FEBA978A07B29794C3832784FE8507D1
:104330002324F4FE032784FEA147E3D0E7EC832780
:10434000C4FE85072326F4FE0327C4FEA147E3D25B
:10435000E7EAB717008803A707C7B717008883A73E
:10436000C7C963DCE700B717008883A707C71387AF
:104370001700B717008823AEE7C8B717008883A7D0
:1043800047C5639B0710B717008803A7C7C7B717B0
:10439000008803A607C8B7370088938687D3BA87F3
:1043A0008E07BA97B2978A07B69798439307700C0F
:1043B00063C4E706B717008803A7C7C7B717008805
:1043C00003A607C8B7370088938687D3BA878E07B6
:1043D000BA97B2978A07B6979C4337170088032786
:1043E000C7C7B716008883A506C893864706B737A0
:1043F0000088138687D3BA878E07BA97AE978A0745
:10440000B29794C3B717008883A707C7138717000D
:10441000B717008823A8E7C6B717008803A7C7C740
:10442000B717008803A607C8B7370088938687D3D5
:10443000BA878E07BA97B2978A07B6979C43371701
:1044400000880327C7C7B716008883A506C89386C8
:10445000A700B7370088138687D3BA878E07BA9725
:10446000AE978A07B29794C3B717008883A747C54A
:1044700013871700B717008823AAE7C4EF40804EC0
:104480002A87B717008823AEE7C6EF40A04D2A87DA
:10449000B717008823A0E7C8B717008803A707C786
:1044A000B717008823A6E7C6B717008803A747C534
:1044B0008547630CF700930730072312F4FEB777A4
:1044C0006500938717262320F4FEB7170190138504
:1044D00047ACEF50206CB717008883A707C7BE858D
:1044E000B7170190138547AEEF50C06AB717019018
:1044F0001385C7B1EF50006AB717008803A787C9B3
:10450000B717008883A7C7C93E97B717008883A746
:10451000C7C9930604FE3E86BA85B7170190138576
:1045200087B5EF502067B717008883A747C51307E3
:1045300044FE3A86BE85B71701901385C7B8EF5081
:104540006065B7170190138587BCEF50A064EF60DA
:10455000F0050100F2406244D244056182800111FD
:1045600006CE22CC4ACA4EC80010B717008803A74F
:10457000C7C7B717008823A6E7CAB717008803A7DD
:1045800007C8B717008823A8E7CAB717008823A46D
:1045900007C6B717008823A407C4B717008823A845
:1045A00007C8B717008823A207C613054006EF40C7
:1045B000604CAA873E85EFE0DF8A2A87AE87B72660
:1045C000019003A6860883A6C6083A85BE85EFC07B
:1045D000BFEF2A87AE873A85BE85B727019003A62D
:1045E000070983A64709EFC03FEE2A87AE87B716B3
:1045F000008823A4E6CC23A6F6CCB717008883A6B0
:10460000C7C7B717008803A507C8B717008803A74F
:10461000C7C7B717008883A507C8B73700881386B0
:1046200087D3B6878E07B697AA978A07B29794431F
:10463000B73700881386C7EBBA878E07BA97AE974D
:104640008A07B29794C3B717008883A7C7C7635672
:10465000F008B717008803A7C7C7A14763CFE706CD
:10466000B717008883A707C86359F006B7170088F3
:1046700003A707C8A14763C2E706EF40400FB7177B
:10468000008883A787C93E85EFE0AFFDB717008894
:1046900003A707CE83A747CE3A86BE86EFD02FCAA0
:1046A000AA8781CFB73700889385C710B7170190C5
:1046B000138587BEEF50004E0DA0B71701901385EC
:1046C00087C0EF50204DB73700889385C710B717C4
:1046D00001901385C7C3EF50E04BB717008803A7BD
:1046E000C7C7B717008803A607C8B73700889386DF
:1046F00087D3BA878E07BA97B2978A07B6979C4333
:104700003E85EFE00FF62A87AE87B726019003A615
:10471000860983A6C6093A85BE85EFD0AFE42A870D
:10472000AE873A85BE85EFE0AFDD2A87B7170088F0
:1047300023A4E7C6B717008803A7C7C7B717008821
:1047400003A607C8B7370088938687D3BA878E0732
:10475000BA97B2978A07B6979C433E85EFE06FF011
:104760002A87AE87B726019003A6060A83A6460AC3
:104770003A85BE85EFD00FDF2A87AE873A89BE899A
:10478000B717008803A787C6BA878A07BA9786072C
:104790003E85EFE00FED2A87AE873A86BE864A85D2
:1047A000CE85EFD0FFB72A87AE873A85BE85EFE08A
:1047B0002FD52A87B717008823A4E7C4B717008826
:1047C00003A7C7C7B717008803A607C8B73700886D
:1047D000938687D3BA878E07BA97B2978A07B69718
:1047E0009843B717008883A687C69307C0F9B38795
:1047F000F602B306F700B717008803A787C4BA8785
:104800008A07BA978607B307F0403387F600B717D1
:10481000008823A8E7C8B717008883A787C6635610
:10482000F002B71701901385C7C5EF50A036B71730
:10483000008803A7C7C89307700C63C8E700B717C1
:104840000190138587C7EF50E03485472326F4FE97
:10485000A1A0B73700881387C7E78327C4FE920754
:10486000BA9723A20700B73700881387C7E78327C3
:10487000C4FE9207BA9723A40700B73700881387AE
:10488000C7E78327C4FE9207BA9723A607008327AA
:10489000C4FE85072326F4FE0327C4FE8D47E3DA12
:1048A000E7FA232604FE0DA0B73700881387870494
:1048B0008327C4FEBA97130700022380E7008327EB
:1048C000C4FE85072326F4FE0327C4FE9307000CCD
:1048D000E3DCE7FCB737008893878704A380070CE5
:1048E000B717008837373E001307C7A323A8E7D0C0
:1048F000B717008803A707CD83A747CD3A85BE85A4
:10490000EFE00FC02A87B717008823A2E7CAB717BE
:10491000008803A787CD83A7C7CD3A85BE85EFE082
:104920002FBE2A87B717008823A4E7CAEF30503E6E
:10493000B717008883A787C66359F00A85472326DF
:10494000F4FE61A8EF30F035B717008837572B0019
:104950001307B7B223A8E7D0B717008803A747C843
:10496000B717008823A2E7CAB717008803A787C82C
:10497000B717008823A4E7CAEF309039B71700882B
:1049800003A747C8B73700889386C7E78327C4FEC5
:104990009207B697D8C3B717008803A787C8B73759
:1049A00000889386C7E78327C4FE9207B69798C707
:1049B0001305800CEF40000CAA8713874706B73712
:1049C00000889386C7E78327C4FE9207B697D8C7A7
:1049D0008327C4FE85072326F4FEB717008883A724
:1049E00087C60327C4FEE3DFE7F4B717008883A771
:1049F00087C4635EF004EF30D02AB71700883727EA
:104A00003C001307E71323A8E7D0B717008803A7D4
:104A100047C8B717008823A2E7CAB717008803A7BB
:104A200087C8B717008823A4E7CAEF30702EB717DE
:104A3000008803A747C8B717008823A6E7C4B7179D
:104A4000008803A787C8B717008823A8E7C485474D
:104A50002326F4FE91A0EF30D024B7170088373713
:104A60002000130707A223A8E7D0B717008803A7E1
:104A700047C8B717008823A2E7CAB717008803A75B
:104A800087C8B717008823A4E7CAEF3070288327A8
:104A9000C4FE85072326F4FEB717008883A707C93D
:104AA0000327C4FEE3D9E7FA01000100F2406244A3
:104AB0005249C249056182802971232E1112232C8B
:104AC0008112232A91122328211323263113232410
:104AD0004113232251138002930780032322F4EC15
:104AE000B7170190138547C9EF50C00A930784ECAC
:104AF0009305F00F3E85EF50000FB7170190138517
:104B00004799EF502009930784EC3E85EF606026BB
:104B10002328A4FC232AB4FCB727019003A6870A04
:104B200083A6C70A032504FD832544FDEFD02F810A
:104B3000AA8799EBB727019003A7070B83A7470B19
:104B40002328E4FC232AF4FC01468146032504FDC6
:104B5000832544FDEFD08F94AA8763C10702B7274E
:104B6000019003A6870A83A6C70A032504FD8325AF
:104B700044FDEFD02F86AA87635FF000B71701903E
:104B8000138547CAEF500001B7170190138587CBF3
:104B9000EF50400019A5B737008893870700984762
:104BA000DC47014681463A85BE85EFD02F8FAA8724
:104BB00063D80700B7373200938707E32322F4EC6A
:104BC000930744ECBE85B7170190138587CDEF405E
:104BD000707C930784EC9305F00F3E85EF50A000A6
:104BE000B717019013854799EF40D07A930784EC6B
:104BF0003E85EF6000182A87AE87B716008823A489
:104C0000E6CE23A6F6CEB7370088938707009847ED
:104C1000DC47014681463A85BE85EFD02F88AA87BA
:104C200063D20704B717008803A787CE83A7C7CE30
:104C3000B726019003A6860B83A6C60B3A85BE85D0
:104C4000EFC05FF9AA87635FF000B7170190138583
:104C500007CFEF403074B71701901385C7D0EF40EE
:104C6000707325ABB717008803A787CE83A7C7CE7D
:104C7000014681463A85BE85EFD04F82AA87635BA5
:104C8000F050B717008803A787CE83A7C7CEB726F3
:104C9000019003A6060C83A6460C3A85BE85EFC09C
:104CA0007FF3AA876357F002B7170190138587D265
:104CB000EF40506EB717008803A787CE83A7C7CEF3
:104CC0003A86BE86B7170190138587D4EF40906C63
:104CD000E9A1B717008803A787CE83A7C7CEB72659
:104CE000019003A6860C83A6C60C3A85BE85EFD03C
:104CF0006F872A87AE873A85BE85EF30F0502A87C6
:104D0000B717008823AAE7C6B717008803A707C606
:104D1000B717008883A747C7B307F74063D80708CA
:104D2000B7170190138507D7EF40D066B7170190EA
:104D3000138587D8EF401066B717008803A787CE82
:104D400083A7C7CE3A86BE86B7170190138587DB47
:104D5000EF405064B717008803A7C7C8B71700888B
:104D600083A747C7634AF742B7370088938707008E
:104D7000985FDC5F014681463A85BE85EFC09FE5BE
:104D8000AA8763D3070009A9B71701901385C7DC69
:104D9000EF405060B717008883A7C7C8BE85B71714
:104DA0000190138547DFEF40F05EFDA6EF20307DD8
:104DB000EF30A037B7170088372720001307070206
:104DC00023A8E7D0B717008803A707CD83A747CD4F
:104DD0003A85BE85EFD0DFF22A87B717008823A275
:104DE000E7CAB717008803A787CD83A7C7CD3A8541
:104DF000BE85EFD0FFF02A87B717008823A4E7CA43
:104E0000EF300071032504FD832544FDEFD05FEFF3
:104E1000AA86B7070088138707009387A6008A072A
:104E2000BA979C433E85EFE0CF832A89AE8903255C
:104E300004FD832544FDEFD0BFECAA878507370723
:104E4000008813070700A9078A07BA978443032538
:104E500004FD832544FDEFD0BFEAAA86B70700888A
:104E6000138707009387A6008A07BA979C43B387E6
:104E7000F4403E85EFD0FFFE2A8AAE8A032504FD6A
:104E8000832544FDEFD0DFE7AA873E85EFD07FFD85
:104E90002A87AE873A86BE86032504FD832544FD16
:104EA000EFD00FC82A87AE873A86BE865285D68550
:104EB000EFC05FEB2A87AE873A86BE864A85CE85ED
:104EC000EFB01FC92A87AE87B716008823A0E6D0A7
:104ED00023A2F6D0032504FD832544FDEFD05FE235
:104EE000AA86B707008813870700938746018A07B9
:104EF000BA979C433E85EFD0DFF62A89AE89032519
:104F000004FD832544FDEFD0BFDFAA87850737075F
:104F1000008813070700D1078A07BA97844303253F
:104F200004FD832544FDEFD0BFDDAA86B7070088C6
:104F300013870700938746018A07BA979C43B38774
:104F4000F4403E85EFD0FFF12A8AAE8A032504FDA6
:104F5000832544FDEFD0DFDAAA873E85EFD07FF0CE
:104F60002A87AE873A86BE86032504FD832544FD45
:104F7000EFD00FBB2A87AE873A86BE865285D6858C
:104F8000EFC05FDE2A87AE873A86BE864A85CE8529
:104F9000EFB01FBC2A87AE87B716008823A4E6D0DF
:104FA00023A6F6D0B717008803A707CD83A747CD60
:104FB000B716008823A8E6CE23AAF6CEB717008836
:104FC00003A787CD83A7C7CDB716008823ACE6CE4D
:104FD00023AEF6CEB717008883A7C7C72326F4FCF5
:104FE000B717008883A707C82324F4FC8547232E1E
:104FF000F4FC79A2B717008803A707CD83A747CD94
:10500000B716008803A606D083A646D03A85BE858B
:10501000EFB01FB42A87AE87B716008823A8E6CC66
:1050200023AAF6CCB717008803A787CD83A7C7CDDF
:10503000B716008803A686D083A6C6D03A85BE855B
:10504000EFB01FB12A87AE87B716008823ACE6CC35
:1050500023AEF6CCB717008803A707CD83A747CDAB
:105060003A85BE85EFD0DFC92A87B717008823A20B
:10507000E7CAB717008803A787CD83A7C7CD3A85AE
:10508000BE85EFD0FFC72A87B717008823A4E7CAD9
:10509000B717008883A747CA6356F002B71700887E
:1050A00003A747CAA14763CFE700B717008883A7C4
:1050B00087CA6359F000B717008803A787CAA147BA
:1050C00063D5E7003124D528C9A8EF306059B71758
:1050D000008803A707CA8547630FF708B71700883A
:1050E00003A707CD83A747CDB716008803A606D030
:1050F00083A646D03A85BE85EFD08FA22A87AE8799
:10510000B716008823A8E6CC23AAF6CCB7170088E8
:1051100003A787CD83A7C7CDB716008803A686D07F
:1051200083A6C6D03A85BE85EFD08F9F2A87AE87EB
:10513000B716008823ACE6CC23AEF6CCB7170190A7
:105140001385C7E2EF401025B717008803A747CAA9
:10515000B717008883A787CA3E86BA85B71701901C
:10516000138507E5EF401023B717008883A747C7CB
:105170008507232EF4FC8327C4FD8507232EF4FC2A
:10518000B717008883A747C70327C4FDE3D4E7E622
:105190002D2021A0010011A001008320C1130324B0
:1051A000811383244113032901138329C112032A84
:1051B0008112832A411231618280011106CE22CCF4
:1051C0000010B717008837373E001307C7A323A87E
:1051D000E7D0B717008803A707CD83A747CD3A8547
:1051E000BE85EFD0FFB12A87B717008823A2E7CA90
:1051F000B717008803A787CD83A7C7CD3A85BE859B
:10520000EFD01FB02A87B717008823A4E7CAEF3072
:105210002030152BB727019003A7070B83A7470B57
:105220002324E4FE2326F4FEB717008803A787CEC5
:1052300083A7C7CEB726019003A6060B83A6460B0D
:105240003A85BE85EFC09FA5AA8763DC0700B71724
:10525000008803A787CE83A7C7CE2324E4FE232696
:10526000F4FEB717008803A707CE83A747CE03260F
:1052700084FE8326C4FE3A85BE85EFB07F8D2A87E3
:10528000AE87B716008823A0E6CE23A2F6CEB717C6
:10529000008803A787C9B717008883A7C7C9BA972B
:1052A0003E85EFD01FBCB717008803A707CE83A7A2
:1052B00047CE3A86BE86EFC07F9EAA8763D407009A
:1052C000EF20D00B11230100F2406244056182807F
:1052D000011106CE22CC4ACA4EC80010232604FE75
:1052E000B717008883A7C7C78E073E85EFD07FB763
:1052F000B717008803A707CF83A747CF3A86BE8694
:10530000EFB01F852A87AE873A89BE89B717008814
:1053100083A747C73E85EFD0DFB4B717008803A740
:1053200007D083A747D03A86BE86EFC0BFA32A879F
:10533000AE873A86BE864A85CE85EFB07F812A87C2
:10534000AE87B716008823A8E6CE23AAF6CEB717F5
:10535000008883A707C88E073E85EFD09FB0B71798
:10536000008803A787CF83A7C7CF3A86BE86EFB052
:105370002FFE2A87AE873A89BE89B717008883A790
:1053800047C73E85EFD0FFADB717008803A787D08A
:1053900083A7C7D03A86BE86EFC0DF9C2A87AE8738
:1053A0003A86BE864A85CE85EFB08FFA2A87AE87C9
:1053B000B716008823ACE6CE23AEF6CEB71700882A
:1053C00003A707CF83A747CFB726019003A6860C74
:1053D00083A6C60C3A85BE85EFC00F8F2A87AE879D
:1053E0003A85BE85EFD0DF912A87B717008823AEB4
:1053F000E7C6B717008803A787CF83A7C7CFB7260D
:10540000019003A6860C83A6C60C3A85BE85EFC024
:10541000AF8B2A87AE873A85BE85EFD07F8E2A87ED
:10542000B717008823A0E7C8B717008803A907CFDC
:1054300083A947CFB717008883A7C7C78E073E85C4
:10544000EFD03FA22A87AE873A86BE864A85CE85B0
:10545000EFC01FED2A87AE87B716008823A8E6CCD9
:1054600023AAF6CCB717008803A987CF83A9C7CF93
:10547000B717008883A707C88E073E85EFD07F9EA9
:105480002A87AE873A86BE864A85CE85EFC05FE919
:105490002A87AE87B716008823ACE6CC23AEF6CCBD
:1054A000B717008803A707CD83A747CD3A85BE85E8
:1054B000EFD01F85AA87B9E3B717008883A7C7C7AE
:1054C0001387F7FFB717008823AEE7C6B717008822
:1054D00003A707CD83A747CDB726019003A6860C67
:1054E00083A6C60C3A85BE85EFB08FE62A87AE87C5
:1054F000B716008823A8E6CC23AAF6CCB7170088F5
:1055000003A787CD83A7C7CD3A85BE85EFD04FFFD0
:10551000AA87B9E3B717008883A707C81387F7FFDF
:10552000B717008823A0E7C8B717008803A787CD5F
:1055300083A7C7CDB726019003A6860C83A6C60C09
:105540003A85BE85EFB0CFE02A87AE87B7160088D0
:1055500023ACE6CC23AEF6CCB717008883A7C7C729
:105560006346F00285472326F4FEB71700880547F7
:1055700023AEE7C6B7160088B727019003A7070B2D
:1055800083A7470B23A8E6CC23AAF6CCB71700883D
:1055900003A7C7C7A14763D6E70285472326F4FEC2
:1055A000B7170088214723AEE7C6B7160088B7278C
:1055B000019003A7870C83A7C70C23A8E6CC23AAD6
:1055C000F6CCB717008883A707C86346F002854763
:1055D0002326F4FEB7170088054723A0E7C8B716AF
:1055E0000088B727019003A7070B83A7470B23ACBD
:1055F000E6CC23AEF6CCB717008803A707C8A147AF
:1056000063D6E70285472326F4FEB71700882147B3
:1056100023A0E7C8B7160088B727019003A7870C17
:1056200083A7C70C23ACE6CC23AEF6CC0327C4FE7D
:105630008547631DF708B7170190138507E7EF400B
:105640006055B7170190138547E8EF40A054B7178E
:105650000190138587EAEF40E053B7170190138557
:1056600007EEEF402053B7170190138587D2EF4024
:105670006052B717008803A707CD83A747CD3A85A7
:10568000BE85EFD0EFE7AA87BE85B71701901385D7
:1056900007F1EF402050B717008803A787CD83A7F5
:1056A000C7CD3A85BE85EFD0AFE5AA85B71700888C
:1056B00003A7C7C7B717008883A707C8BE863A865F
:1056C000B7170190138587F3EF40C04CAD28B7178B
:1056D000008803A787C9B717008883A7C7C9BA97E7
:1056E0003E85EFD00FF8B717008803A707CE83A732
:1056F00047CE3A86BE86EFC06FDAAA8763D407002A
:10570000EF20C047B717008803A707CE83A747CE6F
:10571000B726019003A6060B83A6460B3A85BE85E5
:10572000EFB00FC32A87AE87B716008823A0E6CE56
:1057300023A2F6CEEFE0BFE20100F24062445249FC
:10574000C24905618280411106C622C40008B7170C
:10575000008803A707C6B717008883A747C7B30702
:10576000F740138767FFB717008823A0E7C6B7176E
:10577000008883A707C663D40704B7170190138571
:1057800047F5EF402041B717008803A7C7C8B717F0
:10579000008883A707C63E97B717008823A6E7C8E7
:1057A000B717008823A007C6B717008883A7C7C804
:1057B0006348F000B717008823A607C811A00100AE
:1057C000B240224441018280797106D622D426D289
:1057D0004AD04ECE0018B7170088938747D1375765
:1057E00045451307772498C31307E0042392E70085
:1057F000B717008883A707C63E85EFD08FE62A89B2
:10580000AE89B717008883A787C23E85EFD06FE5C2
:105810002A87AE87B726019003A6060A83A6460A02
:105820003A85BE85EFC00FD42A87AE873A86BE86FA
:105830004A85CE85EFC08FC6AA8763D20702B71705
:105840000088938747D137474C4C1307975598C327
:1058500015671307F7742392E70023830700B71730
:10586000008883A787C6635FF000B7170088938717
:1058700047D1375745441307A72298C31307A002FF
:105880002392E700B717008823AC07C4B717008836
:1058900003A707CD83A747CDB726019003A6060B24
:1058A00083A6460B3A85BE85EFC09FA72A87AE87A1
:1058B0003A85BE85EFD0CFC4AA87232EF4FC35AA43
:1058C000B717008803A787CD83A7C7CDB726019058
:1058D00003A6060B83A6460B3A85BE85EFC05FA4E0
:1058E0002A87AE873A85BE85EFD08FC1AA87232C41
:1058F000F4FCE1A08327C4FD635CF00A0327C4FD28
:10590000A14763C7E70A832784FD6353F00A03278F
:1059100084FDA14763CEE708B717008837273C000E
:105920001307E71323A8E7D0B71700880327C4FDA0
:1059300023A2E7CAB7170088032784FD23A4E7CA78
:10594000EF201052B717008803A707CA85476311D5
:10595000F706B7170088054723ACE7C4B7170088D8
:10596000938747D13757434B130747F498C31167C1
:10597000130757442392E70023830700B7170088D3
:1059800003A787C2B717008823A0E7C6B717008808
:1059900003A7C7C2B717008823ACE7C6B7170190A3
:1059A0001385C7F8EF40001FB717008823A607C864
:1059B000832784FD8507232CF4FCB717008803A7F1
:1059C00087CD83A7C7CDB726019003A6060B83A674
:1059D000460B3A85BE85EFB0AF972A87AE873A85EA
:1059E000BE85EFD0EFB12A87832784FDE354F7F01B
:1059F0008327C4FD8507232EF4FCB717008803A76F
:105A000007CD83A747CDB726019003A6060B83A633
:105A1000460B3A85BE85EFB0AF932A87AE873A85AD
:105A2000BE85EFD0EFAD2A878327C4FDE35AF7E8A0
:105A3000B737008893870700984BDC4B01468146B7
:105A40003A85BE85EFC08FA5AA8763D90700B7172F
:105A50000190138547FBEF40E0136DAAB717019043
:105A60001385C7FDEF400013232E04FC41AA232C0D
:105A700004FC15A80327C4FDBA878607BA978E07CA
:105A80003E87832784FDBA9737370088130787043A
:105A9000BA97838707003E85EF30601E832784FD19
:105AA0008507232CF4FC032784FDDD47E3D4E7FCC2
:105AB0008327C4FD9DE3B717008803A707CE83A7FC
:105AC00047CE3A85BE85EFD0AFA3AA87BE85B7176C
:105AD0000190138587FFEF40E00B0327C4FD854746
