:0200000490006A
:100000006F0000306F00C00F6F0080146F0040144D
:100010006F0000146F00C0136F0080136F00401357
:100020006F0000106F00C0126F0080126F0040124E
:100030006F0080106F00C0116F0080116F004011C1
:080040006F0000110000000038
:1000500000000000000000000000000000000000A0
:100060000000000000000000000000000000000090
:100070000000000000000000000000000000000080
:100080000000000000000000000000000000000070
:100090000000000000000000000000000000000060
:1000A0000000000000000000000000000000000050
:1000B0000000000000000000000000000000000040
:1000C0000000000000000000000000000000000030
:1000D0000000000000000000000000000000000020
:1000E0000000000000000000000000000000000010
:1000F0000000000000000000000000000000000000
:10010000F3900034EF000005F3201034938040009A
:1001100073901034EF00C00CF39000347300203063
:10012000F3900034EF000003EFE0D032EF00400B1B
:10013000F390003473002030F3900034EF0080011E
:10014000EFE0103BEF00C009F39000347300203063
:100150006F000000F3900034130141F823201100D8
:10016000232221002324310023264100232851008B
:10017000232A6100232C7100232E81002320910269
:100180002322A1022324B1022326C1022328D10263
:10019000232AE102232CF102232E0103232011053F
:1001A0002322210523243105232641052328510537
:1001B000232A6105232C7105232E81052320910715
:1001C0002322A1072324B1072326C1072328D1070F
:1001D000232AE107232CF107F39000346780000005
:1001E000F39000348320010003214100832181002A
:1001F0000322C100832201010323410183238101E2
:100200000324C101832401020325410283258102C5
:100210000326C102832601030327410383278103A9
:100220000328C1038328010403294104832981048D
:10023000032AC104832A0105032B4105832B810571
:10024000032CC105832C0106032D4106832D810655
:10025000032EC106832E0107032F4107832F810739
:100260001301C107F3900034678000000000000014
:10027000000000000000000000000000000000007E
:10028000000000000000000000000000000000006E
:10029000000000000000000000000000000000005E
:1002A000000000000000000000000000000000004E
:1002B000000000000000000000000000000000003E
:1002C000000000000000000000000000000000002E
:1002D000000000000000000000000000000000001E
:1002E000000000000000000000000000000000000E
:1002F00000000000000000000000000000000000FE
:10030000971100F0938101F917C100F0130181CF1B
:1003100017B5010013058584970500F0938585CEF8
:10032000171600F01306869363FCC50083220500B0
:1003300023A055001305450093854500E3E8C5FE5D
:10034000171500F013058591973500F0938545F159
:100350006378B5002320050013054500E36CB5FE66
:1003600097020000938242CA93E2120073905230C7
:10037000EF0000091305C0FFB7E2ADDE9382D2EAB9
:0C038000232055006FF0DFFF000000009C
:10038C000000000000000000000000000000000061
:10039C000000000000000000000000000000000051
:1003AC000000000000000000000000000000000041
:1003BC000000000000000000000000000000000031
:1003CC000000000000000000000000000000000021
:1003DC000000000000000000000000000000000011
:1003EC000000000000000000000000000000000001
:1003FC0000000000130101EF2326111023248110AB
:10040C0013040111EFE00041EF40916BEFE0407BF2
:10041C00EFE0D041B777019013850780EF60C120E2
:10042C006F000000130101FE232C8100232A910090
:10043C0023282101232631012324410123225101A8
:10044C009304060013840600232E1100930A050062
:10045C00138A0500EF00802093090500138905001D
:10046C00138604001385040093060400930504000E
:10047C00EFD010166310050413850A0093050A00CB
:10048C001306000093060000EFC010086310050867
:10049C001385040093050400130600009306000066
:1004AC00EFC09006631E0502B717008083A987A9C9
:1004BC0003A9C7A98320C10103248101832441011D
:1004CC00032A8100832A4100138509009305090042
:1004DC008329C10003290101130101026780000077
:1004EC001385040093050400EF10C075E30405FCAC
:1004FC001385040093050400130600009306000006
:10050C00EFC09017E35805FA6F00800813850900B7
:10051C0093050900EF1000736300050413850900AF
:10052C00930509001306000093060000EFC0C07D80
:10053C00E31205F813850A0093050A00EF1080708A
:10054C00E30A05F61385040093050400EF10806F91
:10055C00E30205F66F00C00313850A0093050A0039
:10056C00EF10406EE30C05FA1385040093050400AC
:10057C00EF10406DE30405FA13860900138509009A
:10058C009306090093050900EFD09004631A050047
:10059C00EF10100D930720022320F5006FF09FF150
:1005AC00EF10100C930710022320F5006FF09FF052
:1005BC00130101FE232C8100232A91002328210101
:1005CC00232631019304050013840500232E11000A
:1005DC00EF10C00E93090500138905001386040063
:1005EC00138504009306040093050400EFD0407EAD
:1005FC00631E050013850400930504001306000018
:10060C0093060000EFC05007634405028320C1012C
:10061C0003248101832441011385090093050900FA
:10062C008329C10003290101130101026780000025
:10063C00EF1010039307100213060000930600003E
:10064C002320F5009385060013050600EFB0D06D4E
:10065C0093090500138905006FF05FFBB707008055
:10066C00130101F993C7F7FF23267105B3FBF600BD
:10067C002324810623229106232E3105232C4105A8
:10068C002326110623202107232A5105232861053F
:10069C0023248105232291052320A105232EB103B8
:1006AC0033E7CB009384060013040600130A0500FD
:1006BC009389050063120708B7070800B3C7B70092
:1006CC001357F50193971700B367F7003707F0FF3F
:1006DC00931615006370F70A1306040013050A003D
:1006EC009386040093850900EFB08066930A050099
:1006FC00138705008320C106032481068324410649
:10070C00032901068329C105032A8105032B010551
:10071C00832BC104032C8104832C4104032D01047D
:10072C00832DC10313850A0093050700832A410515
:10073C00130101076780000033FBF5003707F07FDA
:10074C0063526705B70710C0B387F900B3E74701D9
:10075C00E39407F8B7070800B3C797001357F401E1
:10076C0093971700B367F7003707F0FF9316140041
:10077C00E364F7F6638AE70C930A00003707F03F4F
:10078C006FF05FF76306EB0C3707F07FE34C77FBFA
:10079C006388EB1E1309000063C0090C6314040288
:1007AC003707F07F6382EB1EB707F03F638AFB20AD
:1007BC00B70700406394F4006F00D062B707E03FC6
:1007CC00E38AF43C13050A0093850900EF10C04638
:1007DC00930A050013870500630A0A0C93D7F901E5
:1007EC009387F7FFB366F90063840620B706E041F0
:1007FC0063DA7621B706F043E3DA7647B707F03FC2
:10080C006352FB1063C2041013050000032481061D
:10081C008320C10683244106032901068329C105CF
:10082C00032A8105832A4105032B0105832BC1046F
:10083C00032C8104832C4104032D0104832DC1035B
:10084C00130101076F10C01BE38806F26FF0DFE89D
:10085C00E31405E86FF05FF3B707404363DCFB1468
:10086C00B707F03F63C4FB0293D74B41938717C084
:10087C0013074001E354F75A13074003B307F7403B
:10088C003357F400B317F7006382870EE30E04F0BE
:10089C006FF05FF313050A0093850900EF10C03960
:1008AC00930A05001387050063140A14630A0B00EE
:1008BC009397290093D72700B706F03FE390D7F220
:1008CC0063C40408E3D809E2B70710C0B307FB0000
:1008DC00B3E72701E398075613860A0013850A002D
:1008EC009306070093050700EFC0D04F13060500D1
:1008FC0093860500EFB05043930A0500138705005B
:10090C006FF05FDFE35290F01305000003248106C3
:10091C008320C10683244106032901068329C105CE
:10092C00032A8105832A4105032B0105832BC1046E
:10093C00032C8104832C4104032D0104832DC1035A
:10094C00130101076F10C00DB717008003A587A90D
:10095C0083A5C7A913860A0093060700EFB0D03C05
:10096C00930A0500138705006FF0DFF51377170066
:10097C00130920003309E940E30804E26FF09FE417
:10098C00E30A04E06FF01FDC370710C03307EB00FD
:10099C00336A4701E3020ADEB707F03F930A00000F
:1009AC00E344FB2A13870400E3D604D413070000A6
:1009BC006FF05FD413092000E30404DE6FF09FE0B6
:1009CC00930A0A0013870900E3D604D2B7170080F4
:1009DC0003A587A983A5C7A913060A009386090056
:1009EC00EFB09034930A0500138705006FF09FD089
:1009FC0013060A0013050A00938609009385090063
:100A0C006FF09FEEB706F07FB3F9D90093050000A5
:100A1C0063980902B716008003A606AF83A646AFFB
:100A2C0013850A00930507002320F100EFC0005343
:100A3C0083270100138B0500930A05009305B0FC76
:100A4C003705100013564B411307F5FFB7A60300EB
:100A5C00337BEB00130616C0370AF03F9386E6880B
:100A6C003307B600336A4B01E3DA661FB7B60B00E7
:100A7C0093869667E3D4663FB71C008003A88CA9C5
:100A8C0083A8CCA913071700330AAA40130B000044
:100A9C00930B000013030B0093830B00130C00004B
:100AAC00130608009386080013850A0093050A00B4
:100ABC0023246102232671022322E1022320F10266
:100ACC002320010123221101EFC0D03103280100A2
:100ADC0083284100138E0500130608009386080036
:100AEC00930D050093050A0013850A0093090E0067
:100AFC0023280101232A1101EFB0802513060500DC
:100B0C009386050003A58CA983A5CCA9130D000021
:100B1C00EFB090211306050093860500232CA1004D
:100B2C002326B10013850D00938509002320310184
:100B3C00EFC0C04293561A4037060020B3E6C600F9
:100B4C00370E0800B386C601338E8601130F0500DD
:100B5C0093060E001306000013050D009389050083
:100B6C00130C0F002324C101EFC0403F93860500F6
:100B7C00832501001306050013850D00EFC0902698
:100B8C00032E81000328010183284101138F0500E6
:100B9C001306080093050E0093860800930D0500BC
:100BAC00130500002320E101EFC0D023130605003C
:100BBC009386050013850A0093050A00EFC0902266
:100BCC0013060D0093860900EFC04039032F010076
:100BDC00130605009386050013850D0093050F0081
:100BEC00EFC05020832E81018322C100930D0000A1
:100BFC0013860E0093860200EFC040369308050062
:100C0C001388050013060C009386090013050C00CD
:100C1C00938509002320110123240101EFC0003426
:100C2C00B716008003A686AF83A6C6AF930A05004D
:100C3C00138A0500EFC08032B716008003A606B0F9
:100C4C0083A646B0EFB0C01013860A0093060A00C4
:100C5C00EFC0C030B716008003A686B083A6C6B01E
:100C6C00EFB0000F13860A0093060A00EFC0002FA6
:100C7C00B716008003A606B183A646B1EFB0400DAF
:100C8C0013860A0093060A00EFC0402DB7160080A9
:100C9C0003A686B183A6C6B1EFB0800B13860A00FB
:100CAC0093060A00EFC0802BB716008003A606B28D
:100CBC0083A646B2EFB0C00993080500138805005F
:100CCC0013860A0093060A0013850A0093050A008E
:100CDC00938A0800130A0800EFC040281306050089
:100CEC009386050013850A0093050A00EFC00027C0
:100CFC00930A0500138A050013060D00938609005C
:100D0C0013050C0093850900EFB080040326010045
:100D1C0083268100EFC0802413860A0093060A0004
:100D2C00EFB0000313880500930A050013060D00AD
:100D3C009386090013050D0093850900130A08001A
:100D4C00EFC0C021B717008003A687B283A6C7B235
:100D5C00232EA1002328B100EFA0907F13860A0058
:100D6C0093060A0023264101EFA0907E138A05000A
:100D7C0013860D009386050013050D00938509005D
:100D8C00EFC0C01DB717008003A687B283A6C7B2F9
:100D9C0013880500130D050093050A0013850D003B
:100DAC00232C0101EFC010048328C101032E010183
:100DBC001386080093060E00EFC0D0029386050040
:100DCC008325C1001306050013850A00EFC09001AE
:100DDC0013060C0093860900EFC040181308050099
:100DEC0093890500032501008325810013860D00DE
:100DFC0093060A00130A0800EFC0401613060500FC
:100E0C009386050013050A0093850900EFA0507422
:100E1C00832D8101130A0500938905001306050033
:100E2C009386050013050D0093850D00EFA05072FD
:100E3C00B716008003A606B383A646B313050000BD
:100E4C00938A0500EFC0801113880500130C050070
:100E5C0013060D0093860D0093850A001305000000
:100E6C00130D0800EFC000781306050093860500EB
:100E7C0013050A0093850900EFC0C076B7160080F1
:100E8C0003A686B383A6C6B3EFC0400DB716008089
:100E9C0003A606B483A646B4130A0500938905007D
:100EAC001305000093850A00EFC0400B13060500E4
:100EBC009386050013050A0093850900EFA050697D
:100ECC00032381028323C1021306030093860300CC
:100EDC00EFA0106803274102930D0500938A0500CB
:100EEC0013050700EFD04003130A05009389050092
:100EFC0093860A0013860D0013050C0093050D0054
:100F0C0023205101EFA0D06413060B0093860B0035
:100F1C00EFA0106413060A0093860900EFA050633B
:100F2C00130800001305080013060A009386090035
:100F3C00130A0800938A0500EFC0C06A13060B0061
:100F4C0093860B00EFC0006A13060C0093060D008D
:100F5C00EFC0406993860500832501001306050048
:100F6C0013850D00EFC0006883270102930B050069
:100F7C00138B05001309F9FFB367F9006390074C55
:100F8C00B717008003A987AB83A9C7AB130C00006C
:100F9C0013060C00938604001305040093850400CB
:100FAC00EFC0406413060A0093860A00EFB0107B72
:100FBC0013070500938705001306040093860400AD
:100FCC0093050B0013850B0013840700130B07000C
:100FDC00EFB0D078130605009386050013050B00BF
:100FEC0093050400EFA0D056938705001307050066
:100FFC0013060C009386040013050A0093850A005F
:10100C00130A0700938A0700EFB05075130605000A
:10101C0093860500130405009384050013050A004C
:10102C0093850A00EFA0D052B7079040138D0500AE
:10103C00930D0500138C050063C2F53AB387F54098
:10104C00B3E7A70063940764B717008003A687B4BF
:10105C0083A6C7B413050A0093850A00EFA0504F6E
:10106C00930B0500138B05001306040093860400F4
:10107C0013850D0093050D00EFC0C0561306050037
:10108C009386050013850B0093050B00EFB0905071
:10109C00634EA05E93574C4193F7F77F37061000D1
:1010AC00938727C0B357F640B387870113D74741BF
:1010BC001377F77F9305F6FF130717C0B3D6E540F8
:1010CC0093C6F6FF130B4001B3F6F600B3F7B70067
:1010DC00B3E7C700130500003307EB401306050008
:1010EC0033DBE74063540C00330B60411305040001
:1010FC0093850400EFC0004F13060500938605008E
:10110C00130405009384050013050A0093850A0057
:10111C00EFA0104493174B012320F100138D050011
:10112C00B717008003A607B583A647B5930B00003D
:10113C0093050D0013850B00EFB05062138C050066
:10114C00930D0500130604009386040093050D000F
:10115C0013850B00EFC000491306050093860500AC
:10116C0013050A0093850A00EFC0C04737170080AB
:10117C00032687B58326C7B5EFB0505E37170080BE
:10118C00032607B6832647B693040500138405008F
:10119C0013850B0093050D00EFB0505C1306050092
:1011AC00938605001385040093050400EFA0503AC4
:1011BC00930A0500138A05001306050093860500A3
:1011CC0013850D0093050C00EFA0903893060C00CE
:1011DC0013860D009304050013840500EFC08040B6
:1011EC00130605009386050013850A0093050A0073
:1011FC00EFC0403F930A0500138A050013860400D4
:10120C00930604001385040093050400EFB01055F9
:10121C00B717008003A687B683A6C7B6130D0500C3
:10122C00138C0500EFB09053B717008003A607B7D7
:10123C0083A647B7EFC0003B13060D0093060C00C6
:10124C00EFB0D051B717008003A687B783A6C7B7F6
:10125C00EFA0103013060D0093060C00EFB01050E9
:10126C00B717008003A607B883A647B8EFC080372E
:10127C0013060D0093060C00EFB0504EB71700800C
:10128C0003A687B883A6C7B8EFA0902C13060D0051
:10129C0093060C00EFB0904C1306050093860500E6
:1012AC001385040093050400EFC0C033130D050033
:1012BC00138C0500130605009386050013850400A6
:1012CC0093050400EFB09049B716008003A606B949
:1012DC0083A646B9130705009387050013050D0077
:1012EC0093050C00130D0700138C0700EFC0802F23
:1012FC00130605009386050013050D0093050C00DD
:10130C00EFB08022130D0500138C050013860A0024
:10131C0093060A001385040093050400EFB01044F3
:10132C0013860A0093060A00EFA09022130605000C
:10133C009386050013050D0093050C00EFC0802A61
:10134C001386040093060400EFC0C02993860500A1
:10135C001306050083A5CCA903A58CA9EFC0802892
:10136C0003270100B307B70093D6474113070500C5
:10137C00635CD03213050700938507001306090040
:10138C0093860900EFB0903D930A05001387050082
:10139C006FF04FB663C809C2032481068320C106CF
:1013AC008324410603290106832A4105032B0105E9
:1013BC00832BC104032C8104832C4104032D0104D1
:1013CC00832DC10313050A0093850900032A8105A7
:1013DC008329C105130101076F00402E9397150057
:1013EC00B7D6904093D717009386F6BF63DCF620F0
:1013FC00B7376F3F93870740B387F500B3E7A70074
:10140C00639007021306040093860400EFC0801D4E
:10141C0013060A0093860A00EFB0D017E34C05C6FA
:10142C0013060000930600001305090093850900BC
:10143C00EFB09024132505006FF04FBD03A98CA9C4
:10144C0083A9CCA96FF09FB41307000063D404AA3E
:10145C0037070080334797006FF0CFA9B71C008087
:10146C0003A88CA983A8CCA96FF04FE2B706F03F74
:10147C001386E6FF635866B963C666C9B71C00805D
:10148C0003A68CA983A6CCA913850A009305070093
:10149C002320F100EFC0001537170080032607AC9E
:1014AC00832647AC130A050093890500EFB0102B77
:1014BC0037170080032687AC8326C7AC930B050037
:1014CC00938A050013050A0093850900EFB01029D3
:1014DC0037170080032607AD832647AD138B050015
:1014EC00130C05009385090013050A00EFB01027B3
:1014FC00371700801306050093860500032587AD7A
:10150C008325C7ADEFC0000E13060A0093860900B1
:10151C00EFB0D02437170080130605009386050022
:10152C00032507AE832547AEEFC0C00B130805009B
:10153C001387050013060A009386090013050A0099
:10154C0093850900130A080093090700EFB01021D6
:10155C00130605009386050013050A009385090000
:10156C00EFB0D01F37170080032687AE8326C7AE97
:10157C00EFB0D01E130605009386050013050C0072
:10158C0093050B00EFC00006130B050013060500B6
:10159C00938605009389050013850B0093850A003B
:1015AC00EFA0007B1308000013860B0093860A0043
:1015BC0013050800130A0800938A0500EFC0800287
:1015CC00130605009386050013050B00938509008F
:1015DC00EFC0400183270100930B0500138B05001E
:1015EC006FF05F9913060A0013050A009386090031
:1015FC0093850900EFB09016930A05001387050038
:10160C006FF04F8F3707E03F23200100130B0000D2
:10161C00E358F7B093D747416FF05FA8631C04A65B
:10162C00B307F74033D7FB40B317F7006384770158
:10163C006FF08F9713771700130920003309E940D7
:10164C006FF08F96930710006304F9006FF08F8A88
:10165C00B707008033C7E7006FF0CF89B71600805B
:10166C0003AB06AA83AB46AAB716008003A386AACF
:10167C0083A3C6AAB716008003A806AB83A846AB03
:10168C00370C0400B71C00806FF08FC113060000EC
:10169C00930600001305090093850900EFB0C07D87
:1016AC00132505006FF08FA613060B00EF00005BEF
:1016BC0013070500938705006FF0DFCB130101FFC3
:1016CC003707F07F23248100232291002326110069
:1016DC003376B70093840500130405006308E620F5
:1016EC0093060500635CB01413D64541938705003F
:1016FC0063000618370710009305F7FFB3F7B70020
:10170C00B3E7E700930416C01397170013F6140001
:10171C0093D7F601B307F70013971600630A060078
:10172C001357F70193971700B387E7001397260019
:10173C0093D4144093056001130E0000930600002F
:10174C00370620003385C6001358F7019385F5FF43
:10175C0063C8A700B387A740B306C500330ECE00FD
:10176C0093971700B307F8001317170013561600BA
:10177C00E39A05FC130300001305000237060080F2
:10178C006F004002638ED7121358F701939717001E
:10179C001305F5FFB387070113171700135616002F
:1017AC00630605043308B600E3DEF6FCB305C80097
:1017BC0093880600634E080EB387D740B3360701F3
:1017CC00B387D740330707411358F7019397170096
:1017DC001305F5FF3303C30093860800B387070195
:1017EC001317170013561600E31E05FAB3E7E700AC
:1017FC006394070E1355130093571E403707E03FB1
:10180C00137E1E00B387E70063060E0037070080C7
:10181C003365E5009394440113040500B384F4008C
:10182C008320C10013050400032481009385040068
:10183C008324410013010101678000009397150078
:10184C0093D71700B3E7A700E38C07FC130600003F
:10185C00639C050C13D7B6001306B6FE930707005E
:10186C0093965601E30807FE935547016394050EC2
:10187C0093050000370810009397170033F7070102
:10188C001385050093851500E30807FE93080002F5
:10189C0013880600B388B84013870700B396B600C8
:1018AC00B35718013306A640B3E7E7006FF09FE487
:1018BC0093C8F5FF93D8F801B38816016FF0DFEFEA
:1018CC00E36407EDB305C800E34408FE9388070002
:1018DC00930700006FF01FEF9307F0FF6308F30608
:1018EC0013051300135515006FF01FF113060500B7
:1018FC0093860500EFB080661306040093860400FF
:10190C00EFA00045130405008320C100130504005B
:10191C0003248100938405009385040083244100F3
:10192C001301010167800000130605009386050072
:10193C00EFB0504B1306050093860500EFA0D03E88
:10194C0013040500938405006FF09FED130E1E0029
:10195C006FF09FEA13880600930800021305F0FF4E
:10196C006FF01FF4130101FF232481002322910047
:10197C00232021012326110013090500938405005F
:10198C0013040600EF00C04D232085008320C10006
:10199C000324810013050900938504000329010029
:1019AC00832441001301010167800000130101FE33
:1019BC00232E110093070600630E050237070080E3
:1019CC0013860500B346F7002324C1002326D1005B
:1019DC00032681008326C10013850500938507002B
:1019EC00EFB0C0578320C10113062002130101027E
:1019FC006FF05FF713860500938607006FF0DFFC2E
:101A0C00B717008083A587B903A6C7B96FF01FFA73
:101A1C00B717008083A507BA03A647BA6FF01FF962
:101A2C00B717008083A587BA03A6C7BA6FF01FF853
:101A3C00130101FE232E1100631E0502B71700804F
:101A4C0003A787A983A7C7A92324E1002326F100B4
:101A5C00032581008325C1001306000093060000B6
:101A6C00EFA0902C8320C101130620021301010268
:101A7C006FF05FEFB717008003A787AB83A7C7ABE7
:101A8C006FF09FFC130101FF130605009386050000
:101A9C0023261100232481002322910013840500A6
:101AAC0093040500EFB0103413060500938605006F
:101ABC00EFA09027130705009387050013860400F9
:101ACC001385040093060400930504009304070097
:101ADC0013840700EFC0C02F6312050293050400A6
:101AEC00032481008320C10013850400832441005A
:101AFC0013061002130101016FF0DFE68320C10011
:101B0C009305040003248100138504008324410001
:101B1C001301010167800000130101FF130600008F
:101B2C009306000023248100232291002326110018
:101B3C009304050013840500EFB0001D630005023B
:101B4C008320C10093050400032481001385040045
:101B5C0083244100130101016780000093050400F8
:101B6C00032481008320C1001385040083244100D9
:101B7C0013062002130101016FF0DFDE130101FED9
:101B8C00B7170080232641012324510103AA07BB68
:101B9C0083AA47BB2328210113991500232C81000C
:101BAC001359190013040500232A9100130504008E
:101BBC009384050013060A009305090093860A0016
:101BCC00232E1100EFC0C020631E05001305040076
:101BDC009305090013060A0093860A00EFB0C0298A
:101BEC006346A0028320C101130504000324810174
:101BFC0003290101032AC100832A81009385040073
:101C0C0083244101130101026780000013050400C5
:101C1C00032481018320C10103290101032AC1008E
:101C2C00832A81009385040083244101130620023A
:101C3C00130101026FF01FD39395150093D5150076
:101C4C00678000001395150013551500B70510801B
:101C5C003305B5001355F50167800000130101FF32
:101C6C0093D74541232481002326110093F7F77F56
:101C7C0013040600639807089397150093D7170071
:101C8C00B3E7A7006386070EB717008083A6C7BB10
:101C9C0003A687BBEFB0802CB746FFFF938606CB1D
:101CAC00138705006342D41693D7454193F7F77F0A
:101CBC009387A7FCB307F4009306E07F63CCF6068A
:101CCC00634EF0109306B0FC63D8D70CB7C7000076
:101CDC009387073563C08706B717008003A807BC36
:101CEC0083A847BC63C6051403A607BC83A647BCE0
:101CFC001305080093850800EFB0402693070500F4
:101D0C006F00C0059306F07F13870500E394D7FAA4
:101D1C001306050093860500EFA080038320C10005
:101D2C0003248100930705001385070013010101AB
:101D3C0067800000B717008003A887BC83A8C7BCC6
:101D4C0063C4050403A687BC83A6C7BC130508009F
:101D5C0093850800EFB08020930705008320C10015
:101D6C000324810013850700130101016780000023
:101D7C008320C1000324810093070500138507000D
:101D8C00130101016780000037170080032807BD8D
:101D9C00832847BD6FF01FFBB70510809385F5FFB7
:101DAC00938767033377B70093974701B3E7E7004F
:101DBC0037170080032607BE832647BE938507008E
:101DCC00EFB0C0198320C1000324810093070500E4
:101DDC001385070013010101678000008320C100F7
:101DEC0003248100B70510809385F5FF3377B70086
:101DFC009395470193070500B365B700138507005A
:101E0C001301010167800000B716008003A606BC11
:101E1C0083A646BCEFB080148320C100032481004C
:101E2C00930705001385070013010101678000006B
:101E3C0037170080032887BD8328C7BD6FF0DFEA02
:101E4C00930500006F1050291306A00093050000A5
:101E5C006F2000049306A000130600006F10D07AC8
:101E6C00B717008003A587C367800000130101FF2B
:101E7C009305000023248100232611001304050080
:101E8C00EF200006B717008003A507A98327C50319
:101E9C0063840700E780070013050400EFD0C00D32
:101EAC00832545006F004001B717008003A587C349
:101EBC00832545006F004000130101FE232C910087
:101ECC00232E110093040500630605008327850368
:101EDC00638A070283A745009387F7FF23A2F500C7
:101EEC0063C0070483A705008320C10183248101FB
:101EFC001387170023A0E50003C507001301010297
:101F0C00678000002326B100EF2000468325C10026
:101F1C0083A745009387F7FF23A2F500E3D407FCC2
:101F2C008320C10113850400832481011301010264
:101F3C006F000010130101FFB717008023229100DE
:101F4C0083A487C3232481002326110013040500D6
:101F5C006386040083A78403638C070283274400F1
:101F6C009387F7FF2322F40063C007048327040040
:101F7C008320C10083244100138717002320E40031
:101F8C000324810003C507001301010167800000D1
:101F9C0013850400EF20403D832744009387F7FF0F
:101FAC002322F400E3D407FC9305040003248100EE
:101FBC008320C10013850400832441001301010117
:101FCC006F000007B717008083A787C323A4A70A55
:101FDC0023A6070A67800000130101FFB7170080D2
:101FEC002324810003A487C3B717008003A687BEF0
:101FFC000325840A8325C40A83A6C7BE23261100A1
:10200C00EFC0C05B9307150033B5A700B305B5004F
:10201C008320C1002324F40A2326B40A032481005C
:10202C00139515001355150013010101678000006D
:10203C00130101FF23248100232291002326110088
:10204C0093040500138405006306050083278503AC
:10205C00638207049305040013850400EF40906E1F
:10206C00631E050203270400832744009306170010
:10207C009387F7FF2322F4002320D40003450700A5
:10208C008320C1000324810083244100130101013A
:10209C0067800000EF20402D6FF0DFFB1305F0FF91
:1020AC006FF01FFE130101FFB71700802322910070
:1020BC0083A487C323248100232611001304050065
:1020CC006386040083A784036382070493050400DA
:1020DC0013850400EF401067631005040327040008
:1020EC0083274400930617009387F7FF2322F400FD
:1020FC002320D400034507008320C1000324810062
:10210C008324410013010101678000001385040042
:10211C00EF2080256FF09FFB1305F0FF6FF0DFFDC4
:10212C00130101FF2324810023261100937735002E
:10213C001304050063940704032705003706FFFE0C
:10214C001306F6EFB307C700B78680801347F7FF77
:10215C00B3F7E70093860608B3F7D700639007023E
:10216C000327450013054500B307C7001347F7FFC6
:10217C00B3F7E700B3F7D700E38407FE8347050006
:10218C00638807008347150013051500E39C07FEC1
:10219C00EF0080018320C10013050400032481009B
:1021AC001301010167800000B367B50093F7370096
:1021BC006392070803A70500B7867F7F9386F6F71F
:1021CC00B377D700B387D700B3E7E700B3E7D700FF
:1021DC001306F0FF639EC706130605001308F0FFF5
:1021EC002320E60003A7450093854500130646000F
:1021FC00B377D700B387D700B3E7E700B3E7D700CF
:10220C00E38007FF83C7050003C7150083C62500BD
:10221C002300F600638A0700A300E60063060700AC
:10222C002301D6006394060067800000A30106001A
:10223C00678000009307050003C70500938717000C
:10224C0093851500A38FE7FEE31807FE6780000057
:10225C00130605006FF01FFB93773500130705007D
:10226C00639C0704B7867F7F9386F6F79305F0FF90
:10227C000326070013074700B377D600B387D700B0
:10228C00B3E7C700B3E7D700E384B7FE8346C7FFC5
:10229C000346D7FF8347E7FF3307A7406380060455
:1022AC00630A06023335F0003305E5001305E5FF3C
:1022BC0067800000E38806FA8347070013071700BE
:1022CC0093763700E39807FE3307A7401305F7FF13
:1022DC00678000001305D7FF678000001305C7FF58
:1022EC00678000006300060AB367B50093F73700F8
:1022FC00639E07089307300063FAC7083703FFFE95
:10230C00B78880801303F3EF93880808130E30000E
:10231C006F00C0011306C6FF63060606639407062A
:10232C0013054500938545006372CE06032705000F
:10233C0083A60500B30767001348F7FFB3F707013F
:10234C00B3F71701E308D7FC8346050003C8050063
:10235C00639A0605130705006F00400183460700CA
:10236C0003C8050063900605638E0700130717006A
:10237C009347F7FFB387C70093851500B307F500A4
:10238C00E39E06FC130500006780000083460500F1
:10239C0003C805006318D80093071000E31CF6FA75
:1023AC006FF05FFE3385064167800000130101F476
:1023BC00B7A701902326310B83A9474E232C810A02
:1023CC001304050013850900232A910A2328210BE5
:1023DC002324410B2322510B232E7109232A91090B
:1023EC00130A0600938C0500232E110A2320610B7F
:1023FC00232C81092328A1092326B109938A0600DD
:10240C0023280106EFF05FE5B7A70190130605003E
:10241C00130900009304000023269107938B0C00F2
:10242C009305D0021387071C83C70B0063EAF500E2
:10243C0093962700B386E60083A606006780060005
:10244C002326010013070003930D00006380E7228D
:10245C001307F002938407006376F70A13850B00C9
:10246C00130D0000130C0000130B000093059003D8
:10247C00930880001308F00263C2951663C46815B4
:10248C0013172C00330C8701131C1C00330CFC009D
:10249C00130C0CFD130515002326A106834405001F
:1024AC00130B1B0093870400E34898FC93850900E9
:1024BC002328C100EFF01FE30326010113080B00D2
:1024CC00631805068327C106930A00003386C700EC
:1024DC002326C10683440600938804FD93079000CD
:1024EC0063EE1745832EC10613051500938408006F
:1024FC00E394086493871E002326F10683C41E0010
:10250C006FF09FFD9385090013850B002328C100F4
:10251C00EFF05FDD03260101631405006F00D07A34
:10252C0013080000130D0000130C0000130B000027
:10253C0013050000930A00009306000093090000A5
:10254C0063180B2633E5AD00631E053E639C060045
:10255C0093079006E384F44863D697389307E00614
:10256C00638AF43863040A0023209A01930A00005A
:10257C00930900008320C10B0324810B8324410B9E
:10258C000329010B032A810A032B010A832BC1099E
:10259C00032C8109832C4109032D0109832DC108CA
:1025AC0013850A0093850900832A410A8329C10AED
:1025BC001301010C67800000938B1B00232671070D
:1025CC006FF09FE613172D00330DA701131D1D008F
:1025DC00330DFD00130D0DFD6FF0DFEB938509003E
:1025EC002328C100EFF01FD0631C050A8327C10606
:1025FC0003260101B387C7002326F10683C4070015
:10260C0063040B006F00507113070003E39AE4603E
:10261C00130710003307F740930600033385E700D8
:10262C00938717002326F10683C40700E388D4FEA2
:10263C009387F4FC13078000636CF72E832EC1067E
:10264C00938404FD930A1500938B0E00130800006D
:10265C00130B100093172C00B38787019397170067
:10266C00338CF400130500006FF0DFE883C71B0008
:10267C0093068005138B1B0093F7F70DE382D74667
:10268C002326610783470B00930B0B00130B1B00D6
:10269C00E388E7FE6388072A930D10006FF05FDB79
:1026AC0013080B0013050000930A000093060000AA
:1026BC0093F7F4FD1307500493090000E392E7E845
:1026CC00B367AB00B3E7B701E38E07E8832CC10611
:1026DC009307B00213871C002326E10683C41C0059
:1026EC00E386F43C9307D00213060000639AF400CF
:1026FC001306100093872C002326F10683C42C00AC
:10270C00938704FD13079000636CF778930700031D
:10271C006390F4028327C106130700039387170005
:10272C002326F10683C4070093871700E38AE4FE8F
:10273C009387F4FC1307800093090000E362F7E031
:10274C000323C106938904FD9307F00213071300BA
:10275C002326E10683441300930590039308F002AB
:10276C00E3D4972C63C6950293972900B38737015E
:10277C00130E070013071700939717002326E10683
:10278C00B387970083441E00938907FDE3CC98FC24
:10279C003307674093078000E3D8E728B759000058
:1027AC009389F9E1E30E06D8B3093041E30C0BD859
:1027BC00B3875941232AF1006314080013080B0056
:1027CC0093070001930C0B0063D46701930C000179
:1027DC0013050C0023280101EFB0807E93079000B5
:1027EC0003280101130905009384050063DA6705CA
:1027FC0093877CFF37A701901307075093973700F7
:10280C00B387E70003A6070083A64700EFA0007577
:10281C001309050013050D0093840500EFB0407AF1
:10282C001306050093860500130509009385040023
:10283C00EF90005203280101130905009384050051
:10284C009307F00063C6671133875941E3020718F9
:10285C00B3865941E35ED03413076001E354D74883
:10286C0013075002B30C9B41B386594133076741A0
:10287C00B38CDC006346D70E338B6741B7A701904E
:10288C001384075093173B00B387870003A50700F9
:10289C0083A547001306090093860400EFA0006C83
:1028AC0083274101B387674193973700B38787002C
:1028BC0003A6070083A64700EFA0406A930A050011
:1028CC009389050063060A008327C1062320FA00BA
:1028DC008327C100E38007CAB7070080B3C937015B
:1028EC006FF05FC993079004E38AF40E9307E0043A
:1028FC00E39AF4C6B7B50190938585A01305C1067C
:10290C00EF204056E30005C60327C106930780025B
:10291C0003470700E308F75237B50190130545AF9D
:10292C00EF40D009930A0500938905006FF09FF9D9
:10293C0013080000930A0000130B0000930610000C
:10294C006FF01FD7930A0000930900006FF09FF7F8
:10295C00B30C9B41B3875941B38CFC006350905D21
:10296C0093F7FC00638C070237A7019013070750FD
:10297C0093973700B387E70003A5070083A54700AB
:10298C00130609009386040023280101EFA0005DC3
:10299C0003280101130905009384050093FC0CFF27
:1029AC0063960C70232A010213070C0093060B008C
:1029BC001306080093850B0013050400EF308050BC
:1029CC00232CA102E304051637170080832607B9D0
:1029DC00032747B9832541012324D1022326E10291
:1029EC0037170080832687A90327C7A993C7F5FF4C
:1029FC002328D104232AE10437170080832687C0BB
:102A0C000327C7C093D7F741232CD104232EE1040D
:102A1C0037170080832687BF0327C7BF232E4103A8
:102A2C002320D1042322E10437170080832607C01A
:102A3C00032747C0032A4103B3893A412326E10403
:102A4C00B3F7F50013D7F5412324D104B3FCE90007
:102A5C00232CF100130C0000130B0000930A05004B
:102A6C0083A54A0013050400EF308021930B050069
:102A7C00630A053403A60A019385CA001305C50031
:102A8C001306260013162600EF20D07E13078107AD
:102A9C0093064107138604009305090013050400EF
:102AAC00EF40C0102328A1062328210323229102E2
:102ABC006302052A9305100013050400EF308069AA
:102ACC00130B0500630005308327410763C80736E5
:102ADC0003278101338D970103268107B387474173
:102AEC00930D6003B387C7009387F7FF930920C04A
:102AFC00B38DCD4063DE372FB389F9401306F00157
:102B0C00B38D3D416344363593071000B3973701BD
:102B1C00232EF10023200102B307B701B30DBD0131
:102B2C00B309FA0013070D0063D4AD0113870D0030
:102B3C0063D4E900138709006358E000B38DED40BE
:102B4C00B389E940330DED406346901B6348B01FD9
:102B5C0083274101634CF024634C3027635EA00152
:102B6C0093050B0013060D0013050400EF30D0295C
:102B7C00130B0500630805248325010713860B003E
:102B8C0013050400EF30D046130C0500630C05222E
:102B9C008327C50093050B00232605002328F1008D
:102BAC00EF30903FE3400530E302051A93050B002C
:102BBC0013050C00EF40C015032681028326C102C9
:102BCC00130D050093890500EFA0002B634AA0228A
:102BDC0083270101638C0728B707F03F9309000096
:102BEC00B70DF03F232E01002320F1023708F07FB0
:102BFC0033FD0401B706E07F630ADD2A630E0A0683
:102C0C00B706A00663EAA607B71600808328C101A1
:102C1C000328010203A606BF83A646BF138508003E
:102C2C0093050800EFA040256342A004832DC10149
:102C3C008327010213850D0093850700EFB0002652
:102C4C006314050013051000EFB0803783270101D2
:102C5C00232EA1002320B10293090500639A077863
:102C6C00B7070080B3C7B700938D0700B706B0064F
:102C7C00B387B601B38DA7411305090093850400F2
:102C8C00EF30505B13060500938605001385090091
:102C9C0093850D00EFA0802C130609009386040089
:102CAC00EF90000B93840500130905009389050030
:102CBC0063180A00B707F07FB3F7F9006300FD58FB
:102CCC008325010713050400EF30000693850B00E4
:102CDC0013050400EF30400593050B0013050400A9
:102CEC00EF30800493050C0013050400EF30C00393
:102CFC006FF01FD793050B0013860C00130504000F
:102D0C00EF30007B130B0500630E050A0326010749
:102D1C009305050013050400EF30C04E6304050A4B
:102D2C00832501072328A10013050400EF20D07F81
:102D3C00032701012328E106E35CB0E183250107A9
:102D4C0013860D0013050400EF30100C2328A10688
:102D5C00E31005E0032AC103930D0500930720023D
:102D6C002320F400930A0000B709F07F93850D002F
:102D7C0013050400EF20507B93850B001305040012
:102D8C00EF20907A93050B0013050400EF20D07907
:102D9C008325810313050400EF20107993050C00A3
:102DAC0013050400EF2050786FF0DFB1032681018A
:102DBC0093850B0013050400EF30806F930B050017
:102DCC00E31C05D8032AC103832D01076FF01FF9FB
:102DDC0093850B001386090013050400EF30D00215
:102DEC00930B0500E31C05D6032AC1036FF0DFFD2E
:102DFC009307100023200102232EF1006FF0DFD186
:102E0C00B717008003A607AE83A647AE93850900CB
:102E1C0013050D00EFA0801483270101232EA100C0
:102E2C002320B1029309050063960706B7070080BB
:102E3C00B3C7B700938D07006FF05FDB03278101E9
:102E4C00138D0C003307F7406FF01FC9930620BE9B
:102E5C00B387F64093061000B397F6002320F102D7
:102E6C0093071000232EF1006FF01FCB630E091C8B
:102E7C00930710006314F900E3840420B707F03FB4
:102E8C0093090000B70DF0BF232E01002320F1029F
:102E9C006FF0DFD593870500938D07006FF01FD57A
:102EAC0023269107930900006FF08FE9B706B0FC59
:102EBC00B384D4001305090093850400EF309037D8
:102ECC0013060500938605001385090093850D00F4
:102EDC00EFA0C0081306090093860400EF8050672A
:102EEC003708F07FB376B800B707A07C130905004C
:102EFC0063E6F61A832741021308F8FF639807016B
:102F0C00032701039307F0FFE30EF7EAB704F07F02
:102F1C009384F4FF1309F0FF6FF09FDAE3840CA89D
:102F2C00B30C904193F7FC00638C070237A7019018
:102F3C001307075093973700B387E70003A60700E2
:102F4C0083A647001305090093850400232801017B
:102F5C00EF90805D0328010113090500938405009F
:102F6C0093DC4C40E3800CA49307F00163C4970DF1
:102F7C0093F70C01232AF102638607009307A0063E
:102F8C00232AF10237AD019013070900938704003F
:102F9C00130D8D2B13060000930D080093F61C00E7
:102FAC006382060203260D0083264D0013050700DD
:102FBC0093850700EF90907A13070500938705001F
:102FCC001306100093DC1C40130D8D00E3980CFCD1
:102FDC0013880D006306060013090700938407008D
:102FEC00832741036388070213D744011377F77FC4
:102FFC009307B006B387E740635EF0009306F001D9
:10300C00E3DEF6029306400313090000E3DEF60646
:10301C00B704700313050900938504001306000020
:10302C009306000023280101EF90104E03280101A4
:10303C00E31C0596930720022320F400930A00005A
:10304C00930900006FF01F889397C400E39807E280
:10305C00032601058326410513050D009385090000
:10306C00EF9090616340054CB717008003A607AE44
:10307C0083A647AE9385090013050D00EF90106EE3
:10308C00B7070080B3C7B700232EA1002320B102DD
:10309C0093090500938D07006FF05FB5B7045003DB
:1030AC00B384B400938904006FF09FC0930740135E
:1030BC0063CE972713DD4C409307100063D0A767AE
:1030CC00B7AD019093870D5F93850400930C0000BE
:1030DC002328F100232C010193040400938D0D5F30
:1030EC0013840C009307000013031000130809004D
:1030FC00938C050093761D006380060203A60D00D9
:10310C0083A64D0013050800EF90506513080500C9
:10311C009307100013031000135D1D4013041400DB
:10312C00938D8D00E3186DFC13870C0013050800BC
:10313C00930C0400032881011384040093040700FA
:10314C00638607001309050093840500032701011A
:10315C0093973C0013060900B307F70003A507007B
:10316C003707B0FC83A54700B3049700938604008F
:10317C00232C0101B704F07FEF90505EB3F7B4003D
:10318C003707A07C130905006362F71A3707907C98
:10319C00032881016370F74A9384F4FF1309F0FF4D
:1031AC00232A01026FF05F80930710002326F100A1
:1031BC0013871B002326E10683C71B00638407BA11
:1031CC00930B07006FF00FA8232601006FF05FFE32
:1031DC00930A0900938904006FF0CFEEB7B5019004
:1031EC009385C59F1305C106EF10D047630C05B638
:1031FC008327C106B7B50190938505A09387F7FF88
:10320C001305C1062326F106EF10D04563180500FF
:10321C008327C106938717002326F106930A000023
:10322C00B709F07F6FF00FEAB75700009387F7E10B
:10323C0063DA37D7938907006FF0CFD6032D0102DD
:10324C00832DC10193050D0013850D00EFA0505F78
:10325C00EFA0906C130605009386050013850D00F6
:10326C0093050D00EFA00038032701019397C900C7
:10327C0093D7C70033672701B367F700130D050019
:10328C009389050063980702032681058326C105EF
:10329C00EF90903EE35605A2032AC103832D01074C
:1032AC00930A0900938904006FF05FAC13060000C9
:1032BC006FF04FC40326010483264104EF90D03BEA
:1032CC00E34C05FC032681048326C10413050D0081
:1032DC0093850900EF90102CE354A09E6FF0DFFB58
:1032EC008327C10037A6019013880A001307010732
:1032FC0093064107130606299305C106130504001E
:10330C00EF10402E937A750093090500638C0AE246
:10331C0093076000639AFA10630A0AA423206A01D7
:10332C00930A0000930900006FF0CFA493072002CA
:10333C002320F4006FF09FEE13061B009307100080
:10334C0093050600B38AAA00630CF50433056501E6
:10335C0093050B00130380001305F5FF130E0001FA
:10336C00130B06006362B30293172C00338C870196
:10337C00131C1C006304C5021306160093050B00F6
:10338C00130B0600E372B3FEE346CEFE93172D003B
:10339C00338DA701131D1D006FF0DFFD93852500F4
:1033AC009307800063CC6705138B05006FF08FAA21
:1033BC009307A0FE33875941634CF7D8B3873A4142
:1033CC0037A701901307075093973700B387E7008F
:1033DC0003A6070083A64700130509009385040084
:1033EC00EF908014930A0500938905006FF08FCD40
:1033FC0093870500938D07006FF05F87930700019B
:10340C0063C0B71493172D00B387A70193971700C8
:10341C00338DF800138B0500130500006FF08F8DB2
:10342C00130500006FF0CFA003260107630E060002
:10343C009305500313058107EF30502283250107B4
:10344C0013050400EF20500E9307500063E057055E
:10345C0037A7019093972A0013078727B387E700B4
:10346C0083A7070067800700832741078324C107D0
:10347C003707F0FF938737431307F7FF03298107BB
:10348C00B3F4E40093974701B3E4F40093F9890093
:10349C00930A0900E38009D4B7090080B3E99900C5
:1034AC006FF04FC2B704008093C4F4FF1309F0FF10
:1034BC006FF0DFFDB704F07F6FF05FFD032981072C
:1034CC008324C1076FF09FFC8327C106130C0000F7
:1034DC00130D0000B387C7002326F10683C4070031
:1034EC006FF08F928327410137A701901307075084
:1034FC0093973700B387E70003A5070083A5470020
:10350C001306090093860400EF905025930A0500DA
:10351C00938905006FF00FBB13080B00930A000092
:10352C006FE09FFBB707E0BF3707E03F9309000050
:10353C00232E01002320E102938D07006FF00FEB87
:10354C00138B0500130500006FE0DFFA83260101E1
:10355C00370710001307F7FF032AC103832A01035F
:10356C0083294102B3F7E40063860610638EE726D5
:10357C0083270102638C0718B3FCF400638C0C06E0
:10358C00832701016386071A13050900938504003C
:10359C00EF30404A8327410393060500138705004B
:1035AC00638C070293D7440113F6F77F9307B00699
:1035BC00B387C7406352F0023707F03F9397470138
:1035CC00B387E7009386070013060000EF901019ED
:1035DC0093060500138705001386060013050900E2
:1035EC009385040093060700EF808076930A05000C
:1035FC009389050083274103832D0107638807F610
:10360C00B717008003A607C183A647C113850A001C
:10361C0093850900EF909014B3E7A500930A050079
:10362C0093890500639407F4930720022320F40088
:10363C006FF0CFF3B7045003B384B400232A010214
:10364C006FF08FB6B7A50190130681079385452AB5
:10365C001305C106EF10500593075000631EF5AA21
:10366C008327C107B709F07F832A8107B3E9F900E3
:10367C006FF04FA5B3E72701E39C07EE83274103C7
:10368C0063820714B707F07FB3F7F4003707B0066F
:10369C00634AF71237077003635AF710832D01073B
:1036AC006FF01FF683270101032AC103832A01034C
:1036BC0033E9270183294102E31E09F29397C400E1
:1036CC00E39A07F2B707F07FB3F7F4003707B006B9
:1036DC00E372F7F283274C016398070003270C0170
:1036EC0093071000E3D8E7F093050C0013061000C5
:1036FC0013050400EF20507193050B00130C05000B
:10370C00EF308009E358A0EE6FF05FF78327C1011B
:10371C0033FD2701E3000DEE6FF09FE6B7A7019094
:10372C009387075F930C00002328F1006FF01FA212
:10373C001305090093850400EF30C02F8327410344
:10374C0093060500138705006382071093D7440185
:10375C0013F6F77F9307B006B387C7406352F002A6
:10376C003707F03F93974701B387E700938607002D
:10377C0013060000EF90807E93060500138705006A
:10378C0013860600130509009306070093850400B1
:10379C00EF9050651306000093060000930A050095
:1037AC0093890500EF904056E31A05EE930720022B
:1037BC00832D01072320F400930A000093090000D5
:1037CC006FF0CFDAB709F07FB707F0FFB3F9340128
:1037DC00B389F900B70710009387F7FF930AF0FF3E
:1037EC00B3E9F9006FF01FE1832741031307F0FFE2
:1037FC0063820702B707F07FB3F7F400B706A006A1
:10380C0063EAF60093D747019306B006B387F640F8
:10381C003317F700E31EE9D4B707F07F9387F7FF60
:10382C006380F408B709F07FB3F43401B7091000D2
:10383C00930A0000B38934016FF0DFDB1307F0FF4C
:10384C00B317F70033F927016FF0CFFC138606008E
:10385C00130509009306070093850400EF90905818
:10386C001306000093060000930A050093890500D7
:10387C00EF908049E30C05F2832D01076FF00FCF19
:10388C00032AC1036FF09FF29307B0043387E7401C
:10389C009307F0FFB397E700B3F497006FF08FF73F
:1038AC009307F0FFE310F9F8832D01076FF00FCBAE
:1038BC00B7060080938686426FE05FAF37170080B3
:1038CC0093070500032587C393060600138605009E
:1038DC00938507006FE09FAD3717008093070500B5
:1038EC00032587C3B706008013860500938686429E
:1038FC00938507006FE09FAB130101FD232C410161
:10390C00371A00809307050003258AC39306060027
:10391C00138605009385070023248102232291023C
:10392C002326110223202103232E3101232A5101A6
:10393C002328610123267101EFE05FA71306050020
:10394C00938605009304050013840500EFA04048FE
:10395C006312050C9305040013850400EFA0902B53
:10396C00B717008003AB87C1B709008093C9F9FF73
:10397C00B37A35011309050093050B0013850A0072
:10398C00EFA010256310050693050B0013850A00A4
:10399C00EFA0D0186358A004B717008003AB07BB87
:1039AC0083AB47BB337434011385040093050400C7
:1039BC0013060B0093860B00EFA08041631E0500DD
:1039CC00138504009305040013060B0093860B006B
:1039DC00EF90804A6348A00083278AC31307200214
:1039EC0023A0E7008320C102032481028324410227
:1039FC008329C101032A8101832A4101032B01017F
:103A0C00832BC100130509000329010213010103D3
:103A1C006780000037B50190130545AF635A040069
:103A2C00EF300079370900803349A9006FF09FFB14
:103A3C00032481028320C102832441020329010251
:103A4C008329C101032A8101832A4101032B01012E
:103A5C00832BC100130101036F308075130101FD2D
:103A6C00232C4101371A00809307050003258AC3D4
:103A7C00B70600801386050093868642938507005F
:103A8C0023248102232291022326110223202103C5
:103A9C00232E3101232A5101232861012326710190
:103AAC00EFE0DF90130605009386050093040500F4
:103ABC0013840500EFA0C0316312050C93050400BC
:103ACC0013850400EFA01015B717008003AB87C156
:103ADC00B709008093C9F9FFB37A350113090500C2
:103AEC0093050B0013850A00EFA0900E63100506DA
:103AFC0093050B0013850A00EFA050026358A00435
:103B0C00B717008003AB07BB83AB47BB33743401DF
:103B1C00138504009305040013060B0093860B0019
:103B2C00EFA0002B631E0500138504009305040011
:103B3C0013060B0093860B00EF9000346348A00033
:103B4C0083278AC31307200223A0E7008320C10226
:103B5C0003248102832441028329C101032A8101A8
:103B6C00832A4101032B0101832BC100130509009A
:103B7C0003290102130101036780000037B501908E
:103B8C00130545AF635A0400EF308062370900809B
:103B9C003349A9006FF09FFB032481028320C102EB
:103BAC0083244102032901028329C101032A8101D3
:103BBC00832A4101032B0101832BC1001301010353
:103BCC006F30005F130101FB23229103938C0600DD
:103BDC00B7A601902324810423202105232C410323
:103BEC002326110423229104232E3103232A51036B
:103BFC002328610323267103232481032320A1039B
:103C0C00232EB101138905002326A100130A0600F7
:103C1C00138405009386162E8344040013060400B7
:103C2C0013041400B387960003C7070013778700AB
:103C3C00E31407FE9307D0026384F4169307B002D3
:103C4C00638AF40EB709008093C9F9FF930B000047
:103C5C00638E0C0E93070001138C0C006380FC1612
:103C6C0093050C0013850900EFA05023130B0500DE
:103C7C0093050C0013850900EFA0D01D130D9000C7
:103C8C00938704FD930D0500130700001305000036
:103C9C00930A9001636EFD029384070063D294052E
:103CAC006340070C1307F0FF63ECAD006386AD0CAB
:103CBC0093050C00EFA0500E3385A40013071000E1
:103CCC008344040013041400938704FDE376FDFC85
:103CDC009387F4FB63EAFA08938494FCE3C294FDA3
:103CEC006340070A63840B003305A04063060A0097
:103CFC006312070C23202A018320C10403248104AE
:103D0C0083244104032901048329C103032A810369
:103D1C00832A4103032B0103832BC102032C810251
:103D2C00832C4102032D0102832DC10113010105D6
:103D3C0067800000B70900808344040093C9F9FF31
:103D4C0013042600930B0000E3960CF0930700037A
:103D5C006386F408130CA000930CA0006FF05FF0C6
:103D6C001307F0FF6FF0DFF59387F4F9E3EAFAF647
:103D7C00938494FA6FF09FF2E3449BF46FF05FF33B
:103D8C000327C10093072002138509002320F700A5
:103D9C00E3040AF61309F4FF138509006FF09FF58D
:103DAC0083440400B709008013042600930B100011
:103DBC006FF01FEA930905006FF0DFFD9307000316
:103DCC00639AF400834704001307800593F7F70DFB
:103DDC006382E702130C00016FF09FE88347040035
:103DEC0013078005130C800093F7F70D930C8000DC
:103DFC00E398E7E683441400130C00011304240039
:103E0C00930C00016FF0DFE5130710006388E600E8
:103E1C00130740026364D7006FF0DFDA130101FF70
:103E2C0023261100EFE0CF838320C10093076001AC
:103E3C002320F50013050000130101016780000029
:103E4C00130710006304E602130740026360C70205
:103E5C003717008093070500032587C393060600D8
:103E6C0013860500938507006FF0DFD5130101FF62
:103E7C0023261100EFD0DFFE8320C10093076001E1
:103E8C002320F500130500001301010167800000D9
:103E9C00130710006304E602130740026360C702B5
:103EAC003717008093070500032587C39306060088
:103EBC0013860500938507006FF0DFD0130101FF17
:103ECC0023261100EFD0DFF98320C1009307600196
:103EDC002320F50013050000130101016780000089
:103EEC00130101FDB7170080232C410103AA07A978
:103EFC00232021032326110203298A14232481025F
:103F0C0023229102232E3101232A510123286101FE
:103F1C00232671012324810163000904130B05007E
:103F2C00938B0500930A10009309F0FF832449003A
:103F3C001384F4FF6342040293942400B3049900A5
:103F4C0063840B0483A74410638077051304F4FF88
:103F5C009384C4FFE31634FF8320C102032481023F
:103F6C0083244102032901028329C101032A81010F
:103F7C00832A4101032B0101832BC100032C8100F7
:103F8C0013010103678000008327490083A64400C6
:103F9C009387F7FF638E870423A20400E38806FA55
:103FAC008327891833978A00032C4900B377F700CD
:103FBC0063920702E78006000327490083278A14CF
:103FCC0063148701E38427F9E38807F81389070052
:103FDC006FF0DFF58327C91883A544083377F70002
:103FEC00631C070013050B00E78006006FF0DFFC75
:103FFC00232289006FF09FFA13850500E7800600E5
:10400C006FF09FFB1305000067800000B7850090E0
:10401C00938505876F00004413050000678000003E
:10402C00130101FEB7470090232E1100232C8100B1
:10403C00232A910023282101232631012324410125
:10404C00232251012320610103244500938787011A
:10405C00232EF5021307C52E930730002324E52EDB
:10406C002322F52E2320052E93074000130905006B
:10407C002326F40013068000930500002322040677
:10408C0023200400232204002324040023280400FA
:10409C00232A0400232C04001305C405EF10103050
:1040AC00377B009083248900B77A0090377A009090
:1040BC00B7790090130B8B1D938ACA23130A4A2CD1
:1040CC009389C932B70701002320640323225403C8
:1040DC002324440323263403232E84009387970040
:1040EC0023A6F400130680009305000023A2040607
:1040FC0023A0040023A2040023A4040023A804008A
:10410C0023AA040023AC04001385C405EF10102966
:10411C000324C900B707020023A0640323A254039D
:10412C0023A4440323A6340323AE940093872701CE
:10413C002326F40023220406232004002322040057
:10414C002324040023280400232A0400232C040025
:10415C001305C4051306800093050000EF1010240E
:10416C008320C1012320640323225403232444030A
:10417C0023263403232E840003248101930710008B
:10418C00232CF90283244101032901018329C10055
:10419C00032A8100832A4100032B01001301010231
:1041AC0067800000130101FF1386F5FF23248100B3
:1041BC00131416003304C400131424003304C40075
:1041CC00131434002320210113890500930544079F
:1041DC002322910023261100EF1000079304050001
:1041EC00630005021305C50023A0040023A22401CB
:1041FC0023A4A4001306840693050000EF10101AE4
:10420C008320C100032481000329010013850400CD
:10421C00832441001301010167800000130101FE9A
:10422C00B71700802328210103A907A923263101F0
:10423C00232E110083278903232C8100232A91002C
:10424C002324410193090500638A070A1309092EE7
:10425C009304F0FF130A40008327490003248900CC
:10426C009387F7FF63D807006F0040081304840698
:10427C00638E97060317C4009387F7FFE31807FEB6
:10428C00B707FFFF9387170023220406232004009F
:10429C0023220400232404002326F40023280400F2
:1042AC00232A0400232C040013068000930500002D
:1042BC001305C405EF10900E23280402232A0402D0
:1042CC0023220404232404048320C10113050400C5
:1042DC000324810183244101032901018329C100A5
:1042EC00032A8100130101026780000003240900E6
:1042FC00630C0400130904006FF01FF6130509008A
:10430C00EFF01FD26FF09FF49305C01A13850900CC
:10431C00EF00907313040500630605021305C50036
:10432C0023200400232244012324A4001306001A92
:10433C0093050000EF109006232089001309040058
:10434C006FF09FF1232009009307C00023A0F90010
:10435C006FF09FF7B717008003A507A9B7850090EA
:10436C00938505876F00000F8327850363840700FF
:10437C00678000006FF0DFCA678000006780000074
:10438C006780000067800000B717008003A587C313
:10439C00B7450090938505016F008001B717008029
:1043AC0003A587C3B7450090938545026F00400075
:1043BC00130101FE2328210123263101232441016D
:1043CC002322510123206101232E1100232C810073
:1043DC00232A9100138B0500930A052E130A000063
:1043EC00930910001309F0FF83A44A0003A48A0068
:1043FC009384F4FF63C604028357C4009384F4FFD0
:10440C0063FCF9008317E40013050400638627019D
:10441C00E7000B00336AAA0013048406E39E24FD14
:10442C0083AA0A00E3920AFC8320C10103248101C0
:10443C0083244101032901018329C100832A4100FE
:10444C00032B010013050A00032A8100130101024A
:10445C0067800000130101FD23202103232E31016D
:10446C00232C4101232A51012328610123267101A8
:10447C00232611022324810223229102930A050090
:10448C00938B0500130B052E130A000093091000E3
:10449C001309F0FF83244B0003248B009384F4FF57
:1044AC0063C804028357C4009384F4FF63FEF900CD
:1044BC008317E4009305040013850A006386270123
:1044CC00E7800B00336AAA0013048406E39C24FDE6
:1044DC00032B0B00E3100BFC8320C102032481028D
:1044EC0083244102032901028329C101832A41014A
:1044FC00032B0101832BC10013050A00032A810140
:10450C0013010103678000000326050113DE5540EB
:10451C006356CE08130345011318260093172E007B
:10452C0093F5F50133080301B307F300638E050619
:10453C0003A70700930E000293874700B38EBE407B
:10454C00B356B70063F607059308030003A70700EB
:10455C0093884800938747003317D7013367D700F8
:10456C0023AEE8FE03A7C7FFB356B700E3E007FF8F
:10457C003306C641131626001306C6FF3306C300C6
:10458C002320D60063860604130646006F00400401
:10459C00232AD50013060300E39806FE2328050002
:1045AC00232A05006780000013070300E3F807FFC8
:1045BC0083A607009387470013074700232ED7FED7
:1045CC00E3E807FF3306C641131626003306C30083
:1045DC00B307664093D727402328F500E30266FC17
:1045EC0067800000130101F937A80190232E3105D3
:1045FC008329484E232C410523229105130A0500DB
:10460C00938C05001385090023202107232A5105CB
:10461C002324810523264101232AD1002328E100EC
:10462C00232CF10023261106232481062322910634
:10463C0023286105232671052320A105232EB10310
:10464C0013090600EFD05FC103AC0C003387A9003F
:10465C009306000383472C00034AF7FF930A0500D7
:10466C006390D7629306E0FF13083C00B386864143
:10467C009305000383470800B38D0601130C080053
:10468C0013081800E388B7FE37AD0190130D4D3EAB
:10469C00B307FD0083C70700638E072E83470C000A
:1046AC00130B000013040000B307FD0083C70700C1
:1046BC0093040C00638C070083C7140093841400CC
:1046CC00B307FD0083C70700E39807FE13860A00B3
:1046DC009385090013850400EFD0DFC0930B050010
:1046EC00631C05126302045683C704003303944011
:1046FC00931B230093F7F70D930500051384040017
:10470C00638EB71223A09C0063140B1CB307844167
:10471C009387F7FF930670009305000063D8F600AB
:10472C0093D7174093851500E3CCF6FE0325C10003
:10473C00EF100055130B0500630805709304450139
:10474C0063788C56130F100093880400930D0000AF
:10475C0093060000330F5F41930E00028347F4FF72
:10476C00930FF4FF938C4800638C471B6384DD210B
:10477C0093850D00938D4D008347F4FF13840F0038
:10478C00B307FD0003C807001378F8003318B8000E
:10479C00B3E60601E3648CFC33869C40135626403A
:1047AC0023A0D8002328CB0013850600931C5600A9
:1047BC00EF10D004832909003386AC4063CEC926A0
:1047CC00130C0000634036478327890063C0774D84
:1047DC000327490063DCEB20B30B774163CC3B2B05
:1047EC008327C90093062000638ED75493063000AC
:1047FC006384D754930610006380D7500325C100FF
:10480C0093050B0013040005EF10005283270101E0
:10481C0023A007006F00C00C83C70400930B00009B
:10482C00E30A04EC3303944093F7F70D930500056A
:10483C00931B230013840400E396B7EC8347140006
:10484C009305B002638CB73C9305D002638EB71C02
:10485C001308140093080000B307FD0083C707007A
:10486C0013058001930404009385F7FF93F5F50F6E
:10487C00E36AB5E803451800938507FF9304180015
:10488C00B307AD0003C50700130E900163080502C2
:10489C006346AE0203C8140093972500B387B70094
:1048AC0093971700B3050D01B387A70003C5050047
:1048BC0093841400938507FFE31C05FC63840800B4
:1048CC00B305B04023A09C00B38BBB00E3000BE40A
:1048DC003334B001330480401374A4FF1304640018
:1048EC008320C1061305040003248106832441069A
:1048FC00032901068329C105032A8105832A410561
:10490C00032B0105832BC104032C8104832C41044C
:10491C00032D0104832DC1031301010767800000DF
:10492C00B387EF01E3E487E51385070013860A00DC
:10493C00938509002326E103232411032322F10389
:10494C002320D102232EF100EFD0DF998327C10160
:10495C0083260102832F410283288102032FC10287
:10496C00930E0002E31405E013840700E3688CDE69
:10497C006FF09FE29387880023A0D8009305000076
:10498C0093880C00930D4000938C07009306000055
:10499C006FF09FDE13860A009385090013050C0047
:1049AC00EFD05F94631E051233045C018346040050
:1049BC00B307DD0083C70700638807129305000364
:1049CC00130C0400639EB6009306000383471C007F
:1049DC00130C1C00E38CD7FEB307FD0083C7070044
:1049EC0013BB1700930D10006FF09FCC1304100035
:1049FC0063020C028327C900130720006380E710B1
:104A0C00130730006384E710130710006388E71E58
:104A1C00136404018327010123A06701832741014B
:104A2C0023A077016FF0DFEB93081000834724007D
:104A3C00130824006FF05FE2330436419305040041
:104A4C0013050B00EF200048130C0500630A050248
:104A5C001307F4FF9357574093972700B387F4003D
:104A6C0083A6070093071000B397E700B3F7D700AE
:104A7C00130C100063860700634EEC24130C20000B
:104A8C009305040013050B00EFF01FA8B38B8B00EC
:104A9C006FF09FD3938CFBFF63180C2063920C2256
:104AAC0013D75C40131727003387E4000327070054
:104ABC0093071000B3979701B3F7E70063840700DF
:104ACC00136C2C0093850B0013050B00EFF0DFA388
:104ADC00B389794113042000832B49006FF05FF1F7
:104AEC0083460C0013040C0093F6F60D9307000597
:104AFC00638EF61E23A08C006FF09FDD03278101CF
:104B0C0093071000B387E740232CF1008327810122
:104B1C00E38007F0032A0B01938704009306F0FF50
:104B2C00131C2A00338684016F0000019387470011
:104B3C0023AE07FE63FEC72003A70700E308D7FEDA
:104B4C001307170023A0E70093072000630EF4223D
:104B5C0093F9F90113041002E38E09EA338C8401F2
:104B6C000325CCFFEF10804993070002B38937412E
:104B7C00E35235EB83270B016350F02A03274B01DB
:104B8C0093972700B387F40013068B0193561700F5
:104B9C00637EF62693850400032706009385450063
:104BAC00130646001317F7013367D70023AEE5FE53
:104BBC000327C6FF93561700E360F6FEB3876741E1
:104BCC00938777FE93F7C7FF93874700B387F4006B
:104BDC0023A0D700639806243387974013572740A8
:104BEC002328EB00638C972283278900938B1B006F
:104BFC0063CE7709130410026FF0DFE193772C007A
:104C0C00E38807E083A70400B367FC0093F7170061
:104C1C00E39207F0136404016FF0DFDF93080000E8
:104C2C006FF0DFE00325C1003384C94093050B000E
:104C3C0013060400EF10501D130B0500B38B8B40B3
:104C4C00930445016FF05FB8338554018347050029
:104C5C0093040500B305FD0083C50500E38C05A88E
:104C6C0083C7140093841400B305FD0083C50500AD
:104C7C00E39805FE33059540931B25006FF09FA725
:104C8C00130C2C00930D00006FF01FA00325C10026
:104C9C0093050B001304300AEF1000098327010160
:104CAC0023A007006FF0DFC3130C10006FF05FDF61
:104CBC00930C850193880400930600006FF0DFAD20
:104CCC0093850C0013050B00EF20C01F130C05007F
:104CDC006FF01FDD9305E4FF13050B00EF20801E22
:104CEC00130C3000E31E05D86FF05FD9930B000056
:104CFC00130B10006FF09FB4E39279B1638CF90041
:104D0C009385F9FF13050B00EF20C01BE30805AEDC
:104D1C0003274900832741011304200623A0E70041
:104D2C00930710002328FB0023A0F4008327010124
:104D3C0023A067016FF0DFBA83278101E38007AC02
:104D4C006FF05FFD83278101E39A07AA6FF09FFC48
:104D5C0003278B0093070A006354EA061387470066
:104D6C0013172700938717003307EB002328FB004A
:104D7C00930610002322D700130720006306E400DB
:104D8C00E34CFADE6FF0DFDC83270900130420020A
:104D9C009387F7FFE39037C993D759409397270030
:104DAC00B384F40083A704001304100033143401FB
:104DBC003374F40013341400130414026FF09FC501
:104DCC0083254B000325C10093851500EF00506B24
:104DDC00930C0500630C050403260B019305CB0013
:104DEC001305C5001306260013162600EF00904885
:104DFC000325C10093050B0093844C01EF00D07286
:104E0C0083A70C01138B0C006FF05FF523A0D4006B
:104E1C00938704006398060023280B00232A0B00B9
:104E2C006FF09FDC938747006FF01FDBB7B60190E4
:104E3C0037B501909386C6A0130600009305400871
:104E4C00130505A2EF208070B7B6019037B501901D
:104E5C009386C6A0130600009305E00D130505A26A
:104E6C00EF20C06E832605001308900103C60500D1
:104E7C0093861600938515006302060203C706008D
:104E8C009307F7FB93F7F70F6364F8001307070218
:104E9C00E30EC7FC13050000678000002320D5003B
:104EAC001305100067800000130101FE232A210165
:104EBC0003A90500232E8100232C91009357594000
:104ECC009397270023283101232641011379F901F7
:104EDC00B307F600631809189388C7FF938407007B
:104EEC008326050023AE04FE03C716006308071AC9
:104EFC00B7AF0190138F08001388080093050000CA
:104F0C009302000013030000938F4F3E13048000A4
:104F1C0093030002930970006F00C00363ECE31667
:104F2C0063D462026374E80163D2B9109305800004
:104F3C00637C0601130FC8FF232E08FE93020300A7
:104F4C0013080F009305000003C726009386160074
:104F5C00630E0702B387EF0083C70700E38007FCEB
:104F6C0093851500130313006346B40A0327080046
:104F7C001317470093F7F700B3E7E7002320F80077
:104F8C0003C7260093861600E31607FC630803107C
:104F9C006376E8019307700063D4B716637A060D45
:104FAC00130706009307080083A6070093874700A2
:104FBC0013074700232ED7FEE3F8F8FE938618005C
:104FCC00130718009307400063F4E612B307F600CA
:104FDC009387470023AE07FEE3FCF8FE83A7C4FFCC
:104FEC00639A0700630C160D83A7C8FF9388C8FF4C
:104FFC00E38A07FE0324C1018324810103294101B3
:10500C0083290101032AC100130550001301010279
:10501C0067800000E37A06F3232E08FE13070000D6
:10502C001308C8FF930510006FF0DFF4B305B4400C
:10503C00032E080093952500338AB340930708008C
:10504C0083AE47009387470033974E013367C70100
:10505C0033DEBE0023AEE7FE23A0C701E3E2E7FF89
:10506C006FF0DFEC93844700938807006FF05FE7E5
:10507C0083A7C4FFE30609F613070002330927418F
:10508C001307F0FF33572701B3F7E70023AEF4FE05
:10509C006FF01FF5930790026306F7040324C10118
:1050AC00832481010329410183290101032AC100C1
:1050BC001305400013010102678000000324C101A5
:1050CC009307100023A0F8008324810103294101D8
:1050DC0083290101032AC1001305500013010102A9
:1050EC0067800000938626002320D5006FF01FEA0E
:1050FC00B387084193F7C7FF938747006FF01FED05
:10510C0013058000B305B5408326080013952500D0
:10511C00130300023303A3409307080083A5470041
:10512C0093874700339765003367D700B3D6A50044
:10513C0023AEE7FE23A0D700E3E2E7FFE36206E736
:10514C006FF01FF3130101FF2326110023248100AC
:10515C0023229100630C0602B7B50190938585A8B4
:10516C001305060013040600EF20001CB7B40190D1
:10517C0063120502138544A88320C1000324810017
:10518C00832441001301010167800000B7B4019032
:10519C006FF05FFE938544A813050400EF20C01840
:1051AC00E30A05FCB7B50190938545AF13050400E0
:1051BC00EF208017E30005FC130500006FF0DFFB08
:1051CC00B707008003C5075567800000130101FF76
:1051DC00232611002324810023229100638C0502D5
:1051EC0013840500B7B50190938585A813050400B9
:1051FC00EF208013B7B4019063120502138544A805
:10520C008320C10003248100832441001301010188
:10521C0067800000B7B401906FF05FFE938544A8DF
:10522C0013050400EF204010E30A05FCB7B501900C
:10523C00938545AF13050400EF20000FE30005FC38
:10524C00130500006FF0DFFB130101FD232E31016C
:10525C0023261102232481022322910223202103DD
:10526C00232C4101232A510123286101232671019A
:10527C0023248101232291019387B5001307600138
:10528C00930905006366F7069307000163E6B71EF2
:10529C00EF00901E93040001930780011306200079
:1052AC003709008013094959B307F90003A44700D3
:1052BC00138787FF630AE420832744008326C400F6
:1052CC000326840093F7C7FFB307F40003A7470036
:1052DC002326D60023A4C6001367170013850900E4
:1052EC0023A2E700EF009019130584006F008019CA
:1052FC0093F487FF63C2071863E0B418EF00D0176C
:10530C009307701F63F6974693D794006386071A2A
:10531C0013074000636CF73C93D764001386970324
:10532C0013858703931636003709008013094959F2
:10533C00B306D90003A44600938686FF63868602D3
:10534C009305F0006F000001635C07320324C40076
:10535C00638C86008327440093F7C7FF33879740FD
:10536C00E3D4E5FE13060500032409019308890024
:10537C0063081417032544009306F0001375C5FF4A
:10538C00B307954063CCF640232A19012328190151
:10539C0063D6073E9307F01F63EAA72E937785FF2A
:1053AC009387870083254900B307F90083A607007C
:1053BC0013555500130710003317A7003367B700B8
:1053CC00938587FF2326B4002324D4002322E900ED
:1053DC0023A0870023A68600935726409305100030
:1053EC00B395F5006368B710B3F7E5006394070253
:1053FC00939515001376C6FFB3F7E5001306460028
:10540C00639A070093951500B3F7E5001306460061
:10541C00E38A07FE1308F000131336003303690008
:10542C00130503008327C500130E06006302F52E37
:10543C0003A747001384070083A7C7001377C7FF90
:10544C00B30697406342D82EE3C206FE3307E4004E
:10545C0083264700032684001385090093E6160073
:10546C002322D7002326F60023A4C700EF00100147
:10547C00130584006F0000019307C00023A0F900FE
:10548C00130500008320C1020324810283244102FE
:10549C00032901028329C101032A8101832A4101C5
:1054AC00032B0101832BC100032C8100832C4100B1
:1054BC00130101036780000093060020130600040B
:1054CC001305F0036FF05FE603A4C7001306260074
:1054DC00E39487DE0324090193088900E31C14E993
:1054EC00032749009357264093051000B395F50008
:1054FC00E37CB7EE03248900832A440013FBCAFF24
:10550C0063689B00B3079B401307F0006346F714D6
:10551C00B7170080B71C008083AA07C603A70CC46A
:10552C009307F0FF330A6401B38A5401630AF7341A
:10553C00B71700009387F700B38AFA00B7F7FFFF9D
:10554C00B3FAFA0093850A0013850900EF10504056
:10555C009307F0FF930B0500630CF528636845294E
:10556C00371C0080130C0CD683250C00B385BA00B5
:10557C002320BC00938705006304AA3A83A60CC4BD
:10558C001307F0FF638CE63A338A4B41B307FA00FA
:10559C002320FC0093FC7B0063860C30B7170000C3
:1055AC00B38B9B4193858700938B8B00B38595417F
:1055BC00B38A5B019387F7FFB385554133FAF50046
:1055CC0093050A0013850900EF1090389307F0FF3C
:1055DC006300F53C33057541B30A450183250C0086
:1055EC002324790193EA1A00B305BA002320BC00E6
:1055FC0023A25B01630824359306F00063F866353B
:10560C000327440093074BFF93F787FF137717008B
:10561C003367F7002322E400130650003307F4002D
:10562C002322C7002324C70063EEF63683AA4B005F
:10563C0013840B00B717008003A7C7C56374B700AA
:10564C0023AEB7C4B717008003A787C56376B71A14
:10565C0023ACB7C46F00401A13E714002322E400F4
:10566C00B30494002324990093E7170013850900D1
:10567C0023A2F400EF008060130584006FF09FE01C
:10568C008326C400032684006FF01FC49357950033
:10569C00130740006372F71413074001636AF72283
:1056AC009386C7059385B70593963600B306D90044
:1056BC0083A70600938686FF6388F61C03A7470022
:1056CC001377C7FF6376E50083A78700E398F6FEA0
:1056DC0083A6C700032749002326D4002324F40003
:1056EC0023A4860023A687006FF01FCF1307400169
:1056FC006376F71213074005636AF71E93D7C4004D
:10570C001386F7061385E706931636006FF0DFC194
:10571C00130E1E0093773E0013058500638E071051
:10572C008327C5006FF09FD00326840093E51400F7
:10573C002322B4002326F60023A4C700B30494004C
:10574C00232A99002328990093E7160023A6140115
:10575C0023A4140123A2F4003307E40013850900E9
:10576C002320D700EF008051130584006FF09FD1E8
:10577C0013D63400938784006FF09FB23307A400D4
:10578C00832747001385090093E717002322F700AE
:10579C00EF00C04E130584006FF0DFCE13E714004A
:1057AC002322E400B3049400232A990023289900AF
:1057BC0013E7170023A6140123A4140123A2E40069
:1057CC003305A4002320F50013850900EF00004BDE
:1057DC00130584006FF01FCB9357650093869703D6
:1057EC0093858703939636006FF05FEC630E24115C
:1057FC0003248900832A440093FACAFFB3879A4092
:10580C0063E69A001307F000E348F7E413850900F8
:10581C00EF00C046130500006FF0DFC61386C70506
:10582C001385B705931636006FF01FB083278300DE
:10583C001306F6FF6392671C93773600130383FFFE
:10584C00E39607FE0327490093C7F5FFB3F7E7007C
:10585C002322F90093951500E3EEB7C8E38C05C835
:10586C0033F7F500631A07009395150033F7F5002D
:10587C00130E4E00E30A07FE13060E006FF0DFB99D
:10588C00938A0A016FF01FCC0325490093D525405C
:10589C00130710003317B7003367A7002322E90062
:1058AC006FF09FE3B3855B01B305B0409395450161
:1058BC0013DA450193050A0013850900EF1050090E
:1058CC009307F0FFE318F5D0130A00006FF01FD117
:1058DC00130740056362F7089357C5009386F706D4
:1058EC009385E706939636006FF05FDC130740153F
:1058FC006362F70893D7F40013868707138577073D
:10590C00931636006FF05FA2371C0080130C0CD678
:10591C0083270C00B387FA002320FC006FF01FC60E
:10592C0013174A01E31C07C403248900B30A5B0163
:10593C0093EA1A00232254016FF0DFCF23A07CC519
:10594C006FF05FC513840B006FF0DFCE9307100070
:10595C0023A2FB006FF09FEB130740156362F70661
:10596C009357F500938687079385770793963600B0
:10597C006FF0DFD3130740556362F70693D724010A
:10598C001386D7071385C707931636006FF0DF9978
:10599C00938C8CFFB38A9A01B38A7A41130A000064
:1059AC006FF0DFC39305840013850900EF20004BD3
:1059BC000324890083250C00832A44006FF09FC7C1
:1059CC00130740556364F702935725019386D70755
:1059DC009385C707939636006FF05FCD9306803F93
:1059EC001306F0071305E0076FF01F949306803F32
:1059FC009305E0076FF09FCB832749006FF09FE57D
:105A0C00B707008083A7C750678007006380050233
:105A1C0063020604638806048347060023A0F5008E
:105A2C00034506003335A00067800000130101FF19
:105A3C009305C10063040602638A060283470600CD
:105A4C0023A0F500034506003335A0001301010126
:105A5C00678000001305000067800000130500003C
:105A6C006FF0DFFE1305E0FF678000001305E0FF19
:105A7C006FF0DFFDB3C7A50093F73700B308C5007F
:105A8C00639607069307300063F2C70693773500D9
:105A9C0013070500639A070C13F6C8FFB306E6401C
:105AAC00930700029302000263C2D7069386050097
:105ABC00930707006378C70203A806009387470083
:105ACC009386460023AE07FFE3E8C7FE9307F6FF75
