:0200000490006A
:10000000971100F09381018017C100F0130181FF67
:1000100017850000130505E6970500F0938585FE1A
:10002000170600F01306C6FE63FAC500832205001A
:1000300023A0550011059105E3EAC5FE170500F060
:10004000130545FD976500F09385451C6377B50062
:10005000232005001105E36DB5FE5D207155B7E263
:10006000ADDE9382D2EA23205500F5BF00000000E8
:10010000011106CE22CC0010EF608025EF60D019DF
:10011000EF606047EF6060722326A4FE8327C4FE71
:100120003E85F240624405618280000000000000CC
:1001300000000000000000000000000000000000BF
:1001400000000000000000000000000000000000AF
:10015000000000000000000000000000000000009F
:10016000000000000000000000000000000000008F
:10017000000000000000000000000000000000007F
:10018000000000000000000000000000000000006F
:10019000000000000000000000000000000000005F
:1001A000000000000000000000000000000000004F
:1001B000000000000000000000000000000000003F
:1001C000000000000000000000000000000000002F
:1001D000000000000000000000000000000000001F
:1001E000000000000000000000000000000000000F
:1001F00000000000000000000000000000000000FF
:10020000130181F806C216C41AC61EC822CA26CC1B
:100210002ACE2ED032D236D43AD63ED842DA46DC76
:100220004ADECEC0D2C2D6C4DAC6DEC8E2CAE6CC46
:10023000EACEEED0F2D2F6D4FAD6FED8F3220030CF
:1002400096DA970200F083A2A2DF23A02200732592
:100250002034F32510341356F50145C22EC08542D3
:10026000FE0213837200631D6504970200F083A2EF
:10027000E2DC170300F0032323D983230300032EBA
:10028000430083AE020003A04200338F7E00B33FE1
:100290007F007E9E2320E3012322C301B702004991
:1002A00003A302001363830023A06200170100F080
:1002B000032141D5EF40F01E3DC5EF40304CA5A0D5
:1002C0001103630665001503637A650091A81701A1
:1002D00000F0032121D3EF608063B1A0170100F08B
:1002E000032141D2732310BF71111AC0EF60206245
:1002F00002431101731003BF3DA091052EC0AD4212
:1003000063195500170100F00321C1CFEF401047DA
:1003100019A8F322203473231034F3230030D5BFFF
:10032000F3222034F5BF170300F0032363D1032128
:100330000300824273901234D6527390023092407E
:10034000A2423243C2435244E2447245825512569D
:10035000A2563257C2575258E25872598649164A25
:10036000A64A364BC64B564CE64C764D865D165E1D
:10037000A65E365FC65F130181077300203013004D
:100380000000130000001300000013000000130021
:100390000000130000001300000013000000130011
:1003A0000000130000001300000013000000130001
:1003B00000001300000013000000130000001300F1
:1003C00000001300000013000000130000001300E1
:1003D00000001300000013000000130000001300D1
:1003E00000001300000013000000130000001300C1
:1003F00000001300000013000000130000000100C3
:1004000097020000938202E073905230170100F0CF
:10041000032101C3024182403243C2435244E244B9
:10042000724582551256A2563257C2575258E25858
:1004300072598649164AA64A364BC64B564CE64C6C
:10044000764D865D165EA65E365FC65FD652A10209
:1004500073900230A24213018107828013000000D2
:100460001300000013000000130000001300000040
:100470001300000013000000130000001300000030
:100480001300000013000000130000001300000020
:100490001300000013000000130000001300000010
:1004A0001300000013000000130000001300000000
:1004B00013000000130000001300000013000000F0
:1004C00013000000130000001300000013000000E0
:1004D00013000000130000001300000013000000D0
:1004E00013000000130000001300000013000000C0
:1004F00013000000130000001300000013000000B0
:10050000F322003093F272FF130380181203B3E258
:100510006200711523205500130585FA10C12115BD
:100520002320050081426387020071152320050006
:10053000FD12D5BF71150CC18280000000000000C3
:1005400000000000000000000000000000000000AB
:10055000000000000000000000000000000000009B
:10056000000000000000000000000000000000008B
:10057000000000000000000000000000000000007B
:10058000000000000000000000000000000000006B
:10059000000000000000000000000000000000005B
:1005A000000000000000000000000000000000004B
:1005B000000000000000000000000000000000003B
:1005C000000000000000000000000000000000002B
:1005D000000000000000000000000000000000001B
:1005E000000000000000000000000000000000000B
:1005F00000000000000000000000000000000000FB
:1006000000000000000000000000000000000000EA
:1006100000000000000000000000000000000000DA
:10062000000000000000000000000000B3C7A500AB
:1006300093F73700B308C5006396070693073000A9
:1006400063F2C7069377350013070500639A070C1A
:1006500013F6C8FFB306E6409307000293020002B8
:1006600063C2D70693860500930707006378C70225
:1006700003A80600938747009386460023AE07FF32
:10068000E3E8C7FE9307F6FFB387E74093F7C7FF9A
:10069000938747003307F700B385F50063681701B8
:1006A0006780000013070500E37C15FF83C7050082
:1006B0001307170093851500A30FF7FEE36817FFD4
:1006C0006780000083A6450083A7C50183AF0500AE
:1006D00003AF850083AEC50003AE050103A345014A
:1006E00003A885012322D70083A605022320F70152
:1006F0002324E7012326D7012328C701232A6700E3
:10070000232C0701232EF70013074702B307E64007
:10071000232ED7FE93854502E3C6F2FA6FF09FF4CD
:1007200083C605001307170093773700A30FD7FE82
:1007300093851500E38E07F083C6050013071700A5
:1007400093773700A30FD7FE93851500E39A07FC34
:100750006FF01FF01303F00013070500637EC30260
:100760009377F7006390070A63920508937606FF74
:100770001376F600B386E6002320B7002322B700E5
:100780002324B7002326B70013070701E366D7FE2B
:100790006314060067800000B306C34093962600EA
:1007A00097020000B38656006780C6002307B70093
:1007B000A306B7002306B700A305B7002305B700BB
:1007C000A304B7002304B700A303B7002303B700B3
:1007D000A302B7002302B700A301B7002301B700AB
:1007E000A300B7002300B7006780000093F5F50F62
:1007F00093968500B3E5D50093960501B3E5D50042
:100800006FF0DFF69396270097020000B38656003C
:1008100093820000E78006FA93800200938707FF27
:100820003307F7403306F600E378C3F66FF0DFF3E3
:100830009377350013070500639C0704B7867F7F15
:100840009386F6F79305F0FF03260700130747008A
:10085000B377D600B387D700B3E7C700B3E7D700B5
:10086000E384B7FE8346C7FF0346D7FF8347E7FF0E
:100870003307A74063800604630A06023335F0009D
:100880003305E5001305E5FF67800000E38806FAFD
:10089000834707001307170093763700E39807FE96
:1008A0003307A7401305F7FF678000001305D7FF44
:1008B000678000001305C7FF67800000B7070100CD
:1008C000637AF5029307F00FB3B7A7009397370049
:1008D0003787009093060002B386F6403355F50043
:1008E000930787C63385A700034505003385A640D7
:1008F000678000003707000193070001E36AE5FC09
:10090000930780016FF0DFFC9308050093870500D3
:100910001308060013850600138308006394062855
:10092000B7860090938686C663F6C50E370701002A
:100930006378E60C1307F00F3337C700131737003F
:100940003355E600B386A60083C6060013050002F1
:100950003387E600B306E540630CE500B395D700A6
:1009600033D7E8003318D600B365B7003393D80007
:1009700093580801B3D61503131608011356060140
:100980009357030133F7150313850600B305D60209
:1009900013170701B367F70063FEB700B3870701BA
:1009A0001385F6FF63E8070163F6B7001385E6FFDA
:1009B000B3870701B387B74033F717031313030156
:1009C00013530301B3D717031317070133636700EA
:1009D000B306F60213860700637CD3003303680076
:1009E0001386F7FF636603016374D3001386E7FF82
:1009F000131505013365C500930500006F00400E17
:100A00003705000113070001E36CA6F2130780010C
:100A10006FF01FF363160600130710003358C70268
:100A2000370701006370E80C1307F00F63740701C8
:100A3000130580003357A800B386E60003C70600FD
:100A4000130600023307A700B306E6406316E60A62
:100A5000B387074193051000935808011316080146
:100A60001356060113570301B3F61703B3D7170341
:100A70009396060133E7E600330EF602138507006E
:100A8000637EC701330707011385F7FF636807011A
:100A90006376C7011385E7FF330707013307C741B3
:100AA000B3771703131303011353030133571703CA
:100AB0009397070133E36700B306E60213060700C6
:100AC000637CD300330368001306F7FF63660301FA
:100AD0006374D3001306E7FF131505013365C500E2
:100AE000678000003707000113050001E364E8F4A4
:100AF000130580016FF01FF43318D80033D5E700D9
:100B00003393D800B397D70033D7E8009358080140
:100B10003366F700337715039317080193D707015E
:100B20009355060133551503131707013367B700B3
:100B3000B386A70293050500637ED700330707013C
:100B40009305F5FF636807016376D7009305E5FF1A
:100B500033070701B306D74033F716031316060110
:100B600013560601B3D61603131707013385D702B0
:100B7000B367C7001387060063FEA700B3870701AA
:100B80001387F6FF63E8070163F6A7001387E6FF04
:100B9000B387070193950501B387A740B3E5E50047
:100BA0006FF09FEB63E6D5183707010063F4E604A6
:100BB0001307F00FB335D7009395350037870090B2
:100BC00033D5B600130787C63307A70003470700CE
:100BD000130500023307B700B305E5406316E502CD
:100BE00013051000E3EEF6EE33B5C800134515000B
:100BF0006FF01FEF3707000193050001E3E0E6FC0B
:100C0000930580016FF09FFB3358E600B396B60062
:100C10003368D80033DEE700935E0801B376DE0365
:100C2000B397B70033D7E8003313B6003366F70045
:100C30009317080193D7070113570601335EDE03AC
:100C40009396060133E7E600338FC70313050E00C2
:100C5000637EE701330707011305FEFF63680701A1
:100C60006376E7011305EEFF330707013307E7411A
:100C7000B376D7033357D70393960601338EE70233
:100C80009317060193D70701B3E7F6001306070091
:100C900063FEC701B38707011306F7FF63E8070187
:100CA00063F6C7011306E7FFB387070113150501B4
:100CB000B70E01003365C5009386FEFF3378D5007B
:100CC00013560501B376D30013530301B387C7410D
:100CD000330ED802B306D60213570E01330868024A
:100CE0003308D80033070701330666026374D70060
:100CF0003306D601935607013386C60063E6C70262
:100D0000E39CC7CEB70701009387F7FF3377F7005F
:100D100013170701337EFE00B398B8003307C701ED
:100D200093050000E3FEE8DA1305F5FF6FF0DFCC72
:100D300093050000130500006FF09FDA930E050085
:100D4000138305001308060093870600639A0622A2
:100D500037870090130787C663FCC50CB7060100F0
:100D6000637ED60A9306F00F63F4C60093078000F3
:100D7000B356F6003307D70003470700B307F70061
:100D800013070002B308F740630CF700B315130113
:100D9000B3D7FE0033181601B3E5B70033951E0133
:100DA00093560801B3F7D50213160801135606012E
:100DB00013570501B3D5D5029397070133E7E70031
:100DC000B305B602637AB70033070701636607010C
:100DD0006374B700330707013307B740B377D7020F
:100DE00013150501135505013357D70293970701D2
:100DF00033E5A7003307E602637AE5003305050112
:100E0000636605016374E500330505013305E540BC
:100E1000335515019305000067800000B7060001F7
:100E200093070001E366D6F4930780016FF05FF447
:100E3000631606009306100033D8C602B7060100F9
:100E40006376D8129306F00F63F4060193078000CF
:100E5000B356F8003307D70003460700B305034134
:100E60003306F60093070002B388C7406386C708BD
:100E700033181801B357C300B315130113530801F6
:100E800033D6CE003366B6009315080193D505011D
:100E900033951E01B3D6670233F7670293570601F5
:100EA000B386D502131707013367F700637AD700BB
:100EB00033070701636607016374D700330707012F
:100EC000B306D74033F76602131606011356060120
:100ED000B3D6660213170701B386D502B365C70000
:100EE00063FAD500B385050163E6050163F4D50017
:100EF000B3850501B385D5409356080133F7D50274
:100F00009317080193D7070113560501B3D5D502EE
:100F1000131707013367C700B385B702637AB700B9
:100F200033070701636607016374B70033070701DE
:100F3000B305B74033F7D502131505011355050165
:100F4000B3D5D502B385B7029317070133E5A700E0
:100F5000637AB50033050501636605016374B50066
:100F6000330505013305B5406FF09FEAB706000170
:100F700093070001E36ED8EC930780016FF05FEDFB
:100F8000E3ECD5E8B707010063F8F6049308F00F27
:100F9000B3B7D800939737003787009033D8F6005F
:100FA000130787C63307070183480700B388F80093
:100FB0009307000233881741639A170363E46600BE
:100FC000E3ECCEE43385CE40B305D340B3BEAE00F0
:100FD000B385D5416FF05FE4370700019307000147
:100FE000E3ECE6FA930780016FF01FFBB35716019D
:100FF000B396060133EED700335F1301B3D71E015A
:1010000033950E01935E0E01B31503013353DF03D5
:10101000B3E7B70093150E0193D5050113D7070168
:1010200033160601B376DF03338F6502939606010C
:1010300033E7E60093060300637EE7013307C70149
:101040009306F3FF6368C7016376E7019306E3FF46
:101050003307C7013307E7413373D703939707017A
:1010600093D707013357D703131303013363F300F7
:10107000B385E50293070700637EB3003303C30122
:101080009307F7FF6368C3016376B3009307E7FF35
:101090003303C30193960601370F0100B3E6F60050
:1010A000B305B3401303FFFFB3FE660013570601F9
:1010B00093D6060133736600B3876E0233836602EC
:1010C000B38EEE02B386E602B38E6E0013D707012D
:1010D0003307D70163746700B386E6011353070132
:1010E000B306D300370301001303F3FF3377670020
:1010F00013170701B3F76700B307F70063E6D500DE
:10110000639ED500637CF5003386C740B3B7C70044
:10111000B387C701B386F64093070600B307F540CF
:101120003335F500B385D540B385A540B398150197
:1011300033D5070133E5A800B3D505016FF0DFCD46
:10114000370810001308F8FF130101FEB377B80049
:1011500013D745013378D80013D34601232C8100DF
:10116000939737001374F77F1357D501131838007E
:10117000232A9100B367F70093D4F5011357D601E2
:101180001373F37F232E110023282101232631011D
:1011900093D6F60133670701931535001316360011
:1011A000330864406398D42C635000136310030425
:1011B000B366C700638C06701305F8FF6310050261
:1011C0003386C5003335B600B387E700B387A70081
:1011D00093050600130410006F0000079306F07FCC
:1011E0006310D8021304F07F6F0040219306F07F54
:1011F0006306D420B70680003367D70013050800C4
:101200009306800363CCA60A9306F00163CEA6067C
:10121000130800023308A840B3160701B358A6000C
:1012200033160601B3E616013336C00033E6C600B6
:101230003357A7003306B6003335B6003307F7003F
:10124000B307A700930506003707800033F7E700D0
:101250006306071A130414001307F07F630AE45CA3
:10126000370780FF1307F7FFB3F7E70013F5150003
:1012700013D715003365A7009395F701B3E5A500D3
:1012800093D717006F008017930605FE930800029E
:10129000B356D700130800006308150113080004B3
:1012A0003305A8403318A7003366C8003336C000A2
:1012B00033E6C600130700006FF0DFF73366C700A0
:1012C0003336C0006FF01FFF6302080E3305834002
:1012D000631E0402B3E6B700638C06529306F5FF63
:1012E000639C0600B385C500B387E70033B6C5002D
:1012F000B387C7006FF01FEE1308F07F631205037A
:1013000093070700930506006FF0DFED9306F07F6B
:10131000E308D3FEB7068000B3E7D70093060500C5
:1013200013058003634ED5061305F0016340D50411
:10133000130800023308D84033950701B3D8D5000D
:10134000B395050133651501B335B0003365B500BC
:10135000B3D7D700B305C500B387E70033B6C500E0
:10136000B387C700130403006FF01FEE138506FE5A
:101370009308000233D8A700130500006388160104
:10138000130500043305D5403395A7003365B50038
:101390003335A0003365A800930700006FF09FFB72
:1013A00033E5B7003335A0006FF01FFF930614003C
:1013B00013F5E67F63180508B3E6B7006314040667
:1013C00063800646B366C700638A06023386C5009B
:1013D000B387E7003335B600B387A700370780002F
:1013E00033F7E70093050600630A0700370780FF1D
:1013F0001307F7FFB3F7E7001304100013F77500A6
:10140000630C074213F7F500930640006306D742CA
:10141000138745003335B700B387A700930507004E
:101420006F008041E38E06EC3366C700E30C06DAFA
:1014300093040000B7074000930500001304F07FF9
:101440006F00803F1305F07F6382A63E3386C500A0
:101450003335B600B387E700B387A7001395F701CC
:1014600013561600B365C50093D717001384060002
:101470006FF0DFF8635C000F631E0308B366C700FC
:10148000638606441305F8FF631005023386C540E2
:1014900033B5C500B387E740B387A740930506007F
:1014A000130410006F0040059306F07FE30CD8D2C0
:1014B0009306800363C6A60A9306F00163C8A606D6
:1014C000130800023308A840B3160701B358A6005A
:1014D00033160601B3E616013336C00033E6C60004
:1014E0003357A7003386C54033B5C5003387E7407F
:1014F000B307A740930506003709800033F727019B
:10150000E30E07EE1309F9FF33F92701938905006C
:101510006F0040219306F07FE302D4EEB70680000F
:101520003367D700130508006FF09FF8930605FE98
:1015300093080002B356D700130800006308150192
:10154000130800043305A8403318A7003366C80009
:101550003336C00033E6C600130700006FF09FF873
:101560003366C7003336C0006FF01FFF6308080EF4
:10157000330583406312040433E8B700630C083476
:101580001308F5FF631E0800B305B640B307F74024
:101590003336B600B387C740938406006FF05FF020
:1015A0009308F07F63141503930707009305060063
:1015B0001304F07F6F00000D1308F07FE30603FFB4
:1015C00037088000B3E707011308050013058003FF
:1015D000634005091305F001634205059308000205
:1015E000B38808413395170133DE0501B395150122
:1015F0003365C501B335B0003365B500B3D7070116
:10160000B305A640B307F7403336B600B387C740EB
:1016100013040300938406006FF01FEE130508FE09
:10162000130E0002B3D8A700130500006308C80119
:1016300013050004330505413395A7003365B50054
:101640003335A00033E5A800930700006FF05FFB7F
:1016500033E5B7003335A0006FF01FFF130514000A
:101660001375E57F6318050833E8B7003365C700D5
:1016700063120406631C080063060526930707002F
:1016800093050600938406006FF05FD7E30805D644
:101690003388C540B3B805013385E74033051541AC
:1016A000B7088000B3781501638C0800B305B64015
:1016B000B307F7403336B600B387C7406FF09FFCDF
:1016C000B365A80063880522930705009305080009
:1016D0006FF0DFD2631C0800630205229307070046
:1016E00093050600938406006FF0DFAFE30C05AEB0
:1016F0006FF01FD4B389C54033B535013389E74056
:101700003309A940370580003375A9006304050833
:10171000B309B640B307F740333636013389C740C3
:10172000938406006302090813050900EFF00F997E
:10173000130785FF9307F00163C0E70893070002D2
:10174000B387E7403319E900B3D7F900B3E72701BE
:10175000B395E9006344870A33078740930617006F
:101760001306F0016342D606130700023307D74081
:101770003396E70033D5D500B395E5003366A60070
:10178000B335B000B365B600B3D7D700130400007B
:101790006FF0DFC6B3E52901E39605F89307000073
:1017A000130400006F00801413850900EFF00F91FF
:1017B000130505026FF0DFF7930785FDB397F90076
:1017C000930500006FF01FF9130717FE13060002C0
:1017D00033D7E700130500006388C6001305000433
:1017E0003305D5403395A70033E5A5003335A00078
:1017F000B365A700930700006FF05FF93304E4407E
:10180000370780FF1307F7FFB3F7E7006FF01FBF3D
:101810009307070093050600130405006FF01FBE31
:1018200093070700930506006FF05FBD1304F07F78
:1018300093070000930500003707800033F7E700A7
:10184000630E0700130414001307F07F6300E40C19
:10185000370780FF1307F7FFB3F7E7001397D701A8
:1018600013D535003365A7001307F07F93D73700F2
:10187000631EE4003365F50093070000630805006C
:10188000B707080013050000930400001317440174
:10189000B706F07F9397C7008320C101032481011D
:1018A0003377D70093D7C7009394F401B367F70059
:1018B00033E7970003290101832441018329C100F3
:1018C000930507001301010267800000130408005C
:1018D0006FF0DFB2930707009305060013040500BD
:1018E0006FF05FDA93070000930500009304000097
:1018F0006FF09FF4930700006FF05FFF9305000007
:1019000093040000B70740006FF05FB39307000037
:10191000930500006FF09FF4130101FD23202103C4
:1019200013D9450123229102232E3101232C410199
:1019300023286101232481019394C50023261102E9
:1019400023248102232A5101232671011379F97F6F
:10195000130A0500130B0600138C060093D4C40071
:1019600093D9F5016300090A9307F07F630EF90E1E
:10197000935AD50193943400B3E49A00B70A8000D7
:10198000B3EA540113143500130919C0930B000076
:101990001315CC009354C50013554C019375F57F76
:1019A000135CFC01638005109307F07F6382F516DA
:1019B000139534009357DB0133E5A700B70480008B
:1019C000B3649500931F3B00138515C09307000077
:1019D00013972B003367F7001307F7FF1306E00098
:1019E000B3C68901B305A9406360E6163786009047
:1019F00013172700130606BF3307C7000327070086
:101A000067000700B3EAA400638E0A06638004043B
:101A100013850400EFE09FEA930755FF1307C00109
:101A2000634CF702930AD001130485FFB38AFA408E
:101A3000B3948400B35A5A01B3EA9A0033148A006B
:101A40009305D0C03389A5406FF05FF4EFE01FE746
:101A5000130505026FF05FFC930485FDB31A9A002D
:101A6000130400006FF0DFFDB3EAA40063840A02F0
:101A700013040500938A04001309F07F930B3000D0
:101A80006FF01FF11304000013090000930B100006
:101A90006FF01FF0130400001309F07F930B200078
:101AA0006FF01FEFB3EF640163800F0863820404DB
:101AB00013850400EFE09FE093050500938755FF31
:101AC0001307C001634EF7029306D001938F85FF81
:101AD000B386F6403395F401B356DB00B3E4A600B9
:101AE000B31FFB019306D0C03385B6406FF01FEEE5
:101AF00013050B00EFE09FDC930505026FF01FFC60
:101B0000138585FDB314AB00930F00006FF09FFDAC
:101B1000B3EF640163820F02930F0B001305F07F94
:101B2000930730006FF0DFEA930400001305000014
:101B3000930710006FF0DFE9930400001305F07FB6
:101B4000930720006FF0DFE863E65401639E9A3448
:101B5000636CF4351396FA01135714009317F401CC
:101B600093DA1A003364E6001395840093D88F014A
:101B7000B3E8A8001355050133DEAA02939E0801BD
:101B800093DE0E011357040113938F00B3FAAA02D8
:101B900013060E003388CE03939A0A013367570168
:101BA000637E0701330717011306FEFF6368170101
:101BB000637607011306EEFF33071701330707416A
:101BC000335EA70213140401135404013377A702F0
:101BD00093020E003388CE03131707013367E40026
:101BE000637E0701330717019302FEFF6368170145
:101BF000637607019302EEFF3307170133040741B1
:101C00001316060137080100B3625600130EF8FFE1
:101C100013D6020133F7C201135F0301337EC30100
:101C2000B303EE02B304C6033307EF02B30FE603B8
:101C30003306970013D703013307C7006374970077
:101C4000B38F0F01135607013306F601B70F0100DA
:101C5000938FFFFF3378F70113180801B3F3F301F3
:101C6000330878006368C400938402006314C404DA
:101C700063F20705B387670033B7670033071701BF
:101C80003304E4009384F2FF63E6880063948802DF
:101C900063E267026366C400631E860063FC07019B
:101CA000B387670033B76700330717019384E2FFF8
:101CB0003304E400338807413304C440B3B7070159
:101CC0003304F440930FF0FF63848812B35FA402DF
:101CD000135708013374A40213860F00B387FE0361
:101CE0001314040133648700637EF4003304140189
:101CF0001386FFFF636814016376F4001386EFFF19
:101D0000330414013304F4403357A40213180801B8
:101D1000135808013374A40293070700B38EEE0230
:101D20001314040133648800637ED4013304140166
:101D30009307F7FF636814016376D4019307E7FF05
:101D400033041401131606013366F60093170601D7
:101D500093D70701135706013308EF023304D44128
:101D6000330FFF02B38EC703330EC70393D70E01A1
:101D7000330FCF01B387E70163F6C70137070100CF
:101D80003308E80013D707013307070137080100BC
:101D90001308F8FF33F5070113150501B3FE0E0113
:101DA0003305D5016368E4006314E424930F06004F
:101DB0006300050433848800930FF6FF6364140303
:101DC0006366E4006314E4226370A30293171300B4
:101DD00033B36700B3081301930FE6FF3304140114
:101DE000138307006314E4006304650093EF1F008E
:101DF0009387F53F635AF01013F77F0063000702E3
:101E000013F7FF0013064000630AC70013864F0054
:101E1000B33FF601B384F401930F060037070001C6
:101E200033F7E400630A0700B70700FF9387F7FF63
:101E3000B3F4F400938705401307E07F6340F70A8B
:101E400093DF3F001397D4013367F70113D53400B4
:101E5000939747013706F07F1315C5008320C10211
:101E600003248102B3F7C7001355C50033E5A7006B
:101E70009396F601B367D50083244102032901023A
:101E80008329C101032A8101832A4101032B010116
:101E9000832BC100032C81001305070093850700E5
:101EA00013010103678000009385F5FF930700008D
:101EB0006FF09FCB9386090093840A00930F040070
:101EC00093870B0013073000638AE70E1307100097
:101ED0006380E71013072000E39CE7F01305000080
:101EE000130700009307F07F6FF09FF693060C0036
:101EF0006FF05FFDB7040800930F00009306000029
:101F0000930730006FF01FFC130510003305F540F8
:101F100013078003634EA70A1307F0016346A70661
:101F20009385E541B397B40033D7AF00B395BF00B5
:101F3000B3E7E700B335B000B3E7B70033D5A4008B
:101F400013F777006300070213F7F700130640004A
:101F5000630AC70013874700B337F7003305F5005E
:101F600093070700370780003377E50063180706FB
:101F70001317D50193D737003367F7001355350092
:101F8000930700006FF0DFEC130710FEB307F74074
:101F900013060002B3D7F400130700006306C50060
:101FA0001387E5433397E4003367F7013337E000E5
:101FB000B3E7E700130500006FF09FF8370508004E
:101FC000130700009307F07F930600006FF05FE8AF
:101FD00013050000130700006FF09FFA13050000BF
:101FE00013070000930710006FF09FE613860F00A1
:101FF000930F06006FF09FDF13D74501B70710005E
:102000009387F7FF13D8460113030500930E0500CD
:102010001377F77F1305F07FB3F8B700130F0600AF
:10202000B3F7D70093D5F5011378F87F93D6F6016F
:10203000631CA70033EE68001305100063140E0044
:102040006306E800678000006318A80033E6C70055
:1020500013051000E31806FE13051000E31407FF34
:10206000E392F8FEE390EEFF638AD500E31C07FCE1
:1020700033E568003335A0006780000013050000D9
:1020800067800000370710001307F7FF13D84501DA
:10209000B378B70093070500130305001378F87FA2
:1020A00013D5F501930EF07F93D546013377D70012
:1020B000130E060093F5F57F93D6F601631AD80147
:1020C000B3EEF800638A0E081305E0FF6780000096
:1020D0006396D501B36EC700E3980EFE631008083F
:1020E000B3E7F80093B71700639605003366C7009F
:1020F000630C0604639C07006314D50063D00503DA
:10210000630005041305F0FF678000001305F0FF6E
:10211000638A060013850600678000006356B800D6
:10212000E30205FE67800000E36C17FD6392E8029E
:10213000E3686EFCE366C3FF1305000067800000E0
:102140001305100067800000E39807FE6FF05FFB47
:10215000E3E8E8FC6FF05FFEE38E05F7E39E05F829
:10216000930700006FF09FF8370710001307F7FF81
:1021700013D84501B378B700930705001303050092
:102180001378F87F13D5F501930EF07F93D54601B0
:102190003377D700130E060093F5F57F93D6F6013B
:1021A000631AD801B3EEF800638A0E081305200005
:1021B000678000006396D501B36EC700E3980EFEFA
:1021C00063100808B3E7F80093B71700639605009B
:1021D0003366C700630C0604639C07006314D500D4
:1021E00063D00503630005041305F0FF678000005A
:1021F0001305F0FF638A0600138506006780000060
:102200006356B800E30205FE67800000E36C17FD2B
:102210006392E802E3686EFCE366C3FF1305000007
:10222000678000001305100067800000E39807FE38
:102230006FF05FFBE3E8E8FC6FF05FFEE38E05F70D
:10224000E39E05F8930700006FF09FF8130101FD6E
:10225000232E310193D945012324810223229102A7
:10226000232C4101232A5101232671019394C50097
:1022700023261102232021032328610193F9F97FEA
:1022800013040500930B0600938A060093D4C40040
:1022900013DAF5016382090A9307F07F6380F9106E
:1022A0009357D50193943400B3E49700B7078000A7
:1022B000B3E4F40013193500938919C0130B00001F
:1022C00013D54A011394CA001375F57F1354C40043
:1022D00093DAFA01630005109307F07F6300F516A7
:1022E00093D7DB011314340033E48700B707800071
:1022F0003364F400130515C093973B0013070000E7
:1023000093162B00B3E6E6003385A9009386F6FF0B
:102310001308E00033465A0193051500636CD81486
:1023200037850090939626001305C5C2B386A60094
:1023300083A606006780060033E9A400630C090643
:102340006380040413850400EFE04FD7130755FFA3
:102350009307C00163CCE7029307D001130985FFFF
:10236000B387E740B3942401B357F400B3E4970074
:10237000331924019309D0C0B389A9406FF01FF429
:10238000EFE0CFD3130505026FF05FFC930485FDEA
:10239000B3149400130900006FF0DFFD33E9A400CB
:1023A00063020902130905009309F07F130B300043
:1023B0006FF01FF19304000093090000130B10004D
:1023C0006FF01FF0930400009309F07F130B2000BF
:1023D0006FF01FEFB3677401638E07066300040498
:1023E00013050400EFE08FCD930655FF9307C0015E
:1023F00063CED7021307D001930785FF3307D74079
:102400003314F40033D7EB0033648700B397FB0039
:102410001307D0C03305A7406FF05FEE13850B00A4
:10242000EFE0CFC9130505026FF01FFC130485FD13
:1024300033948B00930700006FF09FFDB367740126
:102440006382070293870B001305F07F13073000A8
:102450006FF01FEB130400001305000013071000BA
:102460006FF01FEA130400001305F07F130720002C
:102470006FF01FE9370F0100930EFFFF135709019B
:1024800093D807013379D901B3F7D70133882803EB
:10249000B306F902B30FF7023303F80113D80601AC
:1024A00033086800330E17036374F801330EEE012E
:1024B000935308013378D801B3F6D601135F0401B2
:1024C000B372D401131808013308D800B30E5702B1
:1024D000B306590233092F033303D90113D9060177
:1024E000330969003307E7036376D9013703010035
:1024F00033076700935E0901B7090100B38EEE0050
:102500001387F9FF3379E900B3F6E60013D4040129
:1025100013190901B3F4E400338797023309D90092
:10252000B38323013303F402B3869802B38788028E
:10253000B388660093560701B386160163F46600FC
:10254000B387370193D80601B7090100B38FF800AC
:102550009387F9FFB3889202B3F6F6003377F7005A
:1025600093960601B386E600B3075402B3049F02B4
:1025700033038F02B384F40013D40801B30494002E
:1025800063F4F40033033301B70701009387F7FFC7
:1025900033F7F400B3F8F80013170701330E7E0089
:1025A0003307170133392E013307D70133042701CD
:1025B000330EDE00B336DE00B308F401338FD800EB
:1025C0003337D701333424013364870093D40401B3
:1025D000B3B8F801B336DF0033049400B3E6D80093
:1025E0003304D4003304640093577F011314940020
:1025F0003364F40093179E00B3E70701B337F0008C
:10260000135E7E0113179F00B3E7C701B3E7E7002E
:10261000370700013377E4006306071013D717006C
:1026200093F71700B367F7001317F401B3E7E70058
:10263000135414009386F53F635AD00E13F77700B6
:102640006300070213F7F70013054000630AA700B1
:1026500013874700B337F7003304F40093070700EC
:10266000370700013377E400630A0700370700FFEC
:102670001307F7FF3374E400938605401307E07FE8
:10268000634AD71613D737009317D401B3E7E7008F
:1026900013543400139746011314C400B706F07F97
:1026A0003377D7001354C400336487001316F60140
:1026B0008320C1023367C4000324810283244102C2
:1026C000032901028329C101032A8101832A4101CF
:1026D000032B0101832BC10013850700930507001D
:1026E000130101036780000013060A00138404002D
:1026F0009307090013070B0093062000630CD70E05
:1027000093063000630ED70C93061000E314D7F243
:1027100013040000930700006F00C00813860A002E
:102720006FF09FFD930505006FF0DFF013051000BB
:102730003305D54013078003E34CA7FC1307F001D2
:102740006346A7069385E5413317B400B3D6A700C7
:10275000B397B7003367D700B337F000B367F7001C
:102760003354A40013F777006300070213F7F70050
:1027700093064000630AD70013874700B337F7007A
:102780003304F40093070700370780003377E40031
:10279000631A07061317D40193D73700B367F700FE
:1027A00013543400930600006FF0DFEE130710FEA1
:1027B0003307D740130800023357E40093060000A4
:1027C000630605019385E543B316B400B3E7F6004D
:1027D000B337F000B367F700130400006FF09FF801
:1027E00037040800930700009306F07F13060000EB
:1027F0006FF05FEA13040000930700009306F07F78
:102800006FF05FE9130400009307000093061000C7
:102810006FF05FE8370810001308F8FF130101FE9E
:10282000B377B80013D745013378D80013D34601E6
:10283000232C8100939737001374F77F1357D5012A
:10284000232A9100B367F70093D4F5011357D601FB
:102850009315350013183800232E11002328210169
:10286000232631011373F37F1305F07F93D6F6010E
:1028700033670701131636006316A3003365C700DC
:102880006314050093C61600330864406398962CC1
:102890006350001363100304B366C700638C0670B3
:1028A0001305F8FF631005023386C5003335B60003
:1028B000B387E700B387A700930506001304100051
:1028C0006F0000079306F07F6310D8021304F07FB7
:1028D0006F0040219306F07F6306D420B706800086
:1028E0003367D700130508009306800363CCA60A5C
:1028F0009306F00163CEA606130800023308A84031
:10290000B3160701B358A60033160601B3E6160145
:102910003336C00033E6C6003357A7003306B6008F
:102920003335B6003307F700B307A7009305060059
:102930003707800033F7E7006306071A1304140013
:102940001307F07F630AE45C370780FF1307F7FF84
:10295000B3F7E70013F5150013D715003365A7008B
:102960009395F701B3E5A50093D717006F00801783
:10297000930605FE93080002B356D7001308000023
:1029800063081501130800043305A8403318A70095
:102990003366C8003336C00033E6C60013070000B4
:1029A0006FF0DFF73366C7003336C0006FF01FFFEC
:1029B0006302080E33058340631E0402B3E6B700CA
:1029C000638C06529306F5FF639C0600B385C50031
:1029D000B387E70033B6C500B387C7006FF01FEEBB
:1029E0001308F07F631205039307070093050600A1
:1029F0006FF0DFED9306F07FE308D3FEB7068000AB
:102A0000B3E7D7009306050013058003634ED50690
:102A10001305F0016340D504130800023308D840C1
:102A200033950701B3D8D500B3950501336515017A
:102A3000B335B0003365B500B3D7D700B305C500D3
:102A4000B387E70033B6C500B387C700130403009C
:102A50006FF01FEE138506FE9308000233D8A7001F
:102A60001305000063881601130500043305D540E3
:102A70003395A7003365B5003335A0003365A80052
:102A8000930700006FF09FFB33E5B7003335A000DC
:102A90006FF01FFF9306140013F5E67F6318050817
:102AA000B3E6B7006314040663800646B366C70046
:102AB000638A06023386C500B387E7003335B60064
:102AC000B387A7003707800033F7E70093050600B8
:102AD000630A0700370780FF1307F7FFB3F7E70024
:102AE0001304100013F77500630C074213F7F50089
:102AF000930640006306D742138745003335B7007D
:102B0000B387A700930507006F008041E38E06ECB2
:102B10003366C700E30C06DA93040000B7074000F1
:102B2000930500001304F07F6F00803F1305F07FD2
:102B30006382A63E3386C5003335B600B387E7000F
:102B4000B387A7001395F70113561600B365C500A8
:102B500093D71700138406006FF0DFF8635C000F53
:102B6000631E0308B366C700638606441305F8FFB7
:102B7000631005023386C54033B5C500B387E7400F
:102B8000B387A74093050600130410006F004005AB
:102B90009306F07FE30CD8D29306800363C6A60A9F
:102BA0009306F00163C8A606130800023308A84084
:102BB000B3160701B358A60033160601B3E6160193
:102BC0003336C00033E6C6003357A7003386C5400E
:102BD00033B5C5003387E740B307A7409305060028
:102BE0003709800033F72701E30E07EE1309F9FFD9
:102BF00033F92701938905006F0040219306F07F88
:102C0000E302D4EEB70680003367D700130508004F
:102C10006FF09FF8930605FE93080002B356D700A5
:102C20001308000063081501130800043305A840C9
:102C30003318A7003366C8003336C00033E6C60039
:102C4000130700006FF09FF83366C7003336C000EB
:102C50006FF01FFF6308080E3305834063120404FE
:102C600033E8B700630C08341308F5FF631E08004F
:102C7000B305B640B307F7403336B600B387C74055
:102C8000938406006FF05FF09308F07F63141503E0
:102C900093070700930506001304F07F6F00000DF3
:102CA0001308F07FE30603FF37088000B3E707014E
:102CB0001308050013058003634005091305F0019F
:102CC0006342050593080002B38808413395170154
:102CD00033DE0501B39515013365C501B335B00089
:102CE0003365B500B3D70701B305A640B307F74076
:102CF0003336B600B387C74013040300938406003D
:102D00006FF01FEE130508FE130E0002B3D8A700E4
:102D1000130500006308C8011305000433050541CD
:102D20003395A7003365B5003335A00033E5A8001F
:102D3000930700006FF05FFB33E5B7003335A00069
:102D40006FF01FFF130514001375E57F6318050866
:102D500033E8B7003365C70063120406631C08003C
:102D60006306052693070700930506009384060073
:102D70006FF05FD7E30805D63388C540B3B80501C7
:102D80003385E74033051541B7088000B378150156
:102D9000638C0800B305B640B307F7403336B6007E
:102DA000B387C7406FF09FFCB365A8006388052216
:102DB00093070500930508006FF0DFD2631C08003D
:102DC000630205229307070093050600938406001B
:102DD0006FF0DFAFE30C05AE6FF01FD4B389C540D1
:102DE00033B535013389E7403309A9403705800001
:102DF0003375A90063040508B309B640B307F7406B
:102E0000333636013389C7409384060063020908CC
:102E100013050900EFD09FAA130785FF9307F00160
:102E200063C0E70893070002B387E7403319E9005E
:102E3000B3D7F900B3E72701B395E9006344870AE4
:102E400033078740930617001306F0016342D60646
:102E5000130700023307D7403396E70033D5D50078
:102E6000B395E5003366A600B335B000B365B60090
:102E7000B3D7D700130400006FF0DFC6B3E5290114
:102E8000E39605F893070000130400006F00801418
:102E900013850900EFD09FA2130505026FF0DFF73D
:102EA000930785FDB397F900930500006FF01FF9B4
:102EB000130717FE1306000233D7E70013050000BF
:102EC0006388C600130500043305D5403395A70079
:102ED00033E5A5003335A000B365A70093070000D4
:102EE0006FF05FF93304E440370780FF1307F7FF03
:102EF000B3F7E7006FF01FBF9307070093050600C5
:102F0000130405006FF01FBE93070700930506002A
:102F10006FF05FBD1304F07F93070000930500007E
:102F20003707800033F7E700630E0700130414002F
:102F30001307F07F6300E40C370780FF1307F7FFE8
:102F4000B3F7E7001397D70113D535003365A70012
:102F50001307F07F93D73700631EE4003365F50055
:102F60009307000063080500B70708001305000079
:102F70009304000013174401B706F07F9397C7002E
:102F80008320C101032481013377D70093D7C70081
:102F90009394F401B367F70033E797000329010125
:102FA000832441018329C100930507001301010215
:102FB00067800000130408006FF0DFB2930707007A
:102FC00093050600130405006FF05FDA9307000015
:102FD00093050000930400006FF09FF49307000036
:102FE0006FF05FFF9305000093040000B7074000F7
:102FF0006FF05FB393070000930500006FF09FF43C
:10300000370710009307F7FF33F7B70093D5450153
:10301000B3F7D70093F5F57F93D646011308F07FF9
:1030200093F6F67F639805013367A7001305100038
:10303000631C07001307F07F130500006396E6008A
:10304000B3E7C7003335F0006780000013D74501B0
:10305000B70610009387F6FF1377F77F1306E03F5C
:10306000B3F7B70093D5F501635EE6041306D041CC
:10307000635AE600370500801345F5FF3385A50048
:1030800067800000B3E7D70093063043B386E6407D
:103090001306F0016340D6021307D7BEB397E700CB
:1030A0003355D50033E5A700638005023305A04002
:1030B00067800000130530413305E54033D5A70094
:1030C0006FF09FFE1305000067800000130101FFF1
:1030D0002326110023248100232291006306050882
:1030E0009357F54133C4A7003304F4409354F501DA
:1030F00013050400EFD08FFC1307E0419307A000F5
:103100003307A74063C8A7049307B000B387A7405D
:1031100013055501B357F4003314A40013850400BC
:103120009397C7001317470193D7C7001315F501ED
:10313000B367F7008320C10033E7A700130504003D
:10314000032481008324410093050700130101013A
:1031500067800000130555FFB317A4001385040012
:10316000130400006FF0DFFB13070000930700005B
:103170006FF01FFF797106D622D40018232EA4FC0D
:10318000232204FEEF103005B707008083A78701D4
:1031900091E39524B707008003A7C7028327C4FDE6
:1031A000F98F639707188327C4FDA9C74147832771
:1031B000C4FDBA970327C4FD637EF702C147032706
:1031C000C4FDBA97232EF4FC8327C4FDBD8B8DC7A5
:1031D0008327C4FDC19BC1070327C4FD6379F700A2
:1031E0008327C4FDC19BC107232EF4FC31A0232EED
:1031F00004FC19A0232E04FC8327C4FD638A071254
:10320000B707008083A7C7010327C4FD63E2E71265
:10321000B7070080938707012324F4FEB7070080D7
:10322000938707019C432326F4FE11A88327C4FE3D
:103230002324F4FE8327C4FE9C432326F4FE832725
:10324000C4FEDC430327C4FD63F6E7008327C4FE06
:103250009C43E9FFB707008083A787010327C4FECB
:103260006308F70C832784FE9843C147BA9723224B
:10327000F4FE8327C4FE9843832784FE98C38327E4
:10328000C4FED8438327C4FD1D8FC147860763FA58
:10329000E7020327C4FE8327C4FDBA972320F4FE68
:1032A0008327C4FED8438327C4FD1D8F832704FED4
:1032B000D8C38327C4FE0327C4FDD8C3032504FE57
:1032C0009124B707008003A7C7018327C4FEDC430E
:1032D0001D8FB707008023AEE700B707008003A764
:1032E000C701B707008083A70702637AF700B70713
:1032F000008003A7C701B707008023A0E702832748
:10330000C4FED843B707008083A7C7025D8F832719
:10331000C4FED8C38327C4FE23A00700B7070080DC
:1033200083A7470213871700B707008023A2E7028D
:10333000EF10806C832744FE99E3EF30202783272A
:1033400044FE3E85B250225445618280797106D692
:1033500022D40018232EA4FC8327C4FD2326F4FEC8
:103360008327C4FDC1C7C147B307F0400327C4FE8C
:10337000BA972326F4FE8327C4FE2324F4FE832772
:1033800084FED843B707008083A7C702F98FB9CF5F
:10339000832784FE9C43B9EB832784FED843B70779
:1033A000008083A7C70293C7F7FF7D8F832784FE22
:1033B000D8C3EF104062832784FED843B70700804C
:1033C00083A7C7013E97B707008023AEE700032518
:1033D00084FE0D2AB707008083A787021387170092
:1033E000B707008023A4E702EF1000610100B2508C
:1033F000225445618280011122CE0010916723245E
:10340000F4FEB70700809387070B2326F4FE83277B
:10341000C4FEBD8B9DC78327C4FEBD072326F4FED3
:103420008327C4FEC19B2326F4FE032784FE832743
:10343000C4FE1D8FB70700809387070BBA9723241C
:10344000F4FE8327C4FE2322F4FEB707008093878F
:103450000701032744FE98C3B7070080938707013D
:1034600023A20700832744FE032784FEBA9723265E
:10347000F4FEC1470327C4FEB307F7402326F4FE3A
:103480008327C4FEC19B2326F4FE0327C4FEB7078F
:10349000008023ACE700B707008083A7870123A241
:1034A0000700B707008083A7870123A007008327B1
:1034B00044FE2320F4FE832704FE0327C4FE1D8F51
:1034C000832704FED8C3B707008003A7870183279B
:1034D00004FE98C3832704FED843B707008023A0C7
:1034E000E702832704FED843B707008023AEE70036
:1034F000B70700803707008023A6E7020100724467
:1035000005618280797122D60018232EA4FCB707AA
:103510000080938707012326F4FE31A08327C4FE91
:103520009C432326F4FE8327C4FE9C430327C4FD4B
:10353000E3E6E7FE8327C4FE2324F4FE8327C4FECC
:10354000DC43032784FEBA970327C4FD6310F70208
:103550008327C4FED8438327C4FDDC433E978327DB
:10356000C4FED8C38327C4FE232EF4FC8327C4FDE6
:103570002324F4FE8327C4FDDC43032784FE3E9707
:103580008327C4FE9C436316F7048327C4FE984335
:10359000B707008083A787016305F7028327C4FD6F
:1035A000D8438327C4FE9C43DC433E978327C4FD56
:1035B000D8C38327C4FE9C4398438327C4FD98C384
:1035C00039A8B707008003A787018327C4FD98C3E4
:1035D00039A08327C4FE98438327C4FD98C30327DB
:1035E000C4FE8327C4FD6307F7008327C4FE0327B7
:1035F000C4FD98C30100325445618280011122CE7E
:1036000000102326A4FE8327C4FE13878700832788
:10361000C4FED8C38327C4FE7D5798C78327C4FE42
:10362000138787008327C4FED8C78327C4FE138768
:1036300087008327C4FE98CB8327C4FE23A00700FE
:103640000100724405618280011122CE0010232600
:10365000A4FE8327C4FE23A807000100724405616D
:103660008280797122D60018232EA4FC232CB4FC6E
:10367000832784FD9C432324F4FE032784FEFD5707
:103680006318F7008327C4FD9C4B2326F4FE25A076
:103690008327C4FDA1072326F4FE31A08327C4FE9F
:1036A000DC432326F4FE8327C4FEDC439C4303272C
:1036B00084FEE375F7FE8327C4FED843832784FD89
:1036C000D8C3832784FDDC43032784FD98C7832761
:1036D00084FD0327C4FE98C78327C4FE032784FD07
:1036E000D8C3832784FD0327C4FD98CB8327C4FD5B
:1036F0009C43138717008327C4FD98C301003254ED
:1037000045618280797122D60018232EA4FC83277C
:10371000C4FD9C4B2326F4FE8327C4FDDC43032712
:10372000C4FD184798C78327C4FD9C470327C4FDE1
:103730005843D8C38327C4FEDC430327C4FD631862
:10374000F7008327C4FD98478327C4FED8C3832787
:10375000C4FD23A807008327C4FE9C431387F7FFFB
:103760008327C4FE98C38327C4FE9C433E853254FE
:1037700045618280011122CE00102326A4FE23245D
:10378000B4FE8327C4FE032784FE98C3010072445D
:1037900005618280797106D622D44AD24ED052CEAB
:1037A00056CC0018B7070049A107232EF4FCB70731
:1037B0000049B107232CF4FCB7070049C107232AAD
:1037C000F4FCB7070049D1072328F4FCB7070049E8
:1037D000C1073E87B707008023ACE7028145B707E2
:1037E00000491385470079378145B707004913859C
:1037F000870049378145B70700491385C7009D3FBA
:103800009567938707E2BE85B707004913850701CF
:1038100095378145B707004913854701A13F954575
:1038200037050049813F9567938707E23E8A814AC1
:10383000B707008003A6070383A647033307CA0020
:10384000BA85B3B54501B387DA00B386F500B6870C
:10385000B706008023A8E60223AAF602956793879D
:1038600007E23E898149B707008003A6070383A6C4
:1038700047033307C900BA85B3B52501B387D9001B
:10388000B386F500B687B706008023A8E60223AA10
:10389000F6020100B250225412598259724AE24A89
:1038A00045618280411106C622C40008E53585675E
:1038B0009387078873A04730EFC09FB481473E8548
:1038C000B240224441018280797106D622D4001888
:1038D000232EA4FC232CB4FC85472326F4FE832747
:1038E000C4FD2324F4FE832784FEE1CB832784FEDA
:1038F000DC5FE1C7832784FEB843832784FEDC5F57
:103900008146B337F70291C38546B687DDE7EF20DE
:103910002022832784FE9843832784FED45F832755
:1039200084FEBC43B387F6023E97832784FE98C784
:10393000832784FE23AC0702832784FE98438327D2
:1039400084FED8C3832784FE9843832784FEDC5FEC
:103950009386F7FF832784FEBC43B387F6023E9726
:10396000832784FED8C7832784FE7D572382E704FC
:10397000832784FE7D57A382E704832784FD85E3A4
:10398000832784FE9C4B9DC7832784FEC1073E8509
:10399000EF10807DAA8799CF7300000021A88327AC
:1039A00084FEC1073E859939832784FE93874702A9
:1039B0003E85A931EF20E01A19A0232604FE8327B3
:1039C000C4FE3E85B250225445618280797106D68C
:1039D00022D40018232EA4FC232CB4FCB287A30B02
:1039E000F4FC232604FE8327C4FDC1C381460327BC
:1039F00084FD8327C4FDB337F70291C38546B6879C
:103A0000ADE70327C4FD832784FD3307F70293073F
:103A100070FB63ECE7040327C4FD832784FDB30731
:103A2000F7022324F4FE832784FE938787043E85D0
:103A3000EFF04FF42326A4FE8327C4FE9DC78327FF
:103A4000C4FE2322F4FE832744FE938787042322A7
:103A5000F4FE834774FD0327C4FEBE86032644FE9E
:103A6000832584FD0325C4FD01288327C4FE3E85EC
:103A7000B250225445618280797106D622D4001852
:103A80002326A4FE2324B4FE2322C4FEB687232EBD
:103A9000E4FCA301F4FE832784FE99E78327C4FD99
:103AA0000327C4FD98C331A08327C4FD032744FE28
:103AB00098C38327C4FD0327C4FED8DF8327C4FD32
:103AC000032784FEB8C385450325C4FDF53B0100EB
:103AD000B250225445618280011106CE22CC0010E2
:103AE0002326A4FE8327C4FE9DC38327C4FE23A4EC
:103AF00007008327C4FE23A007008327C4FE23A654
:103B000007008146014681450325C4FEB12001001E
:103B1000F240624405618280797106D622D4001891
:103B2000AA87A30FF4FC85472326F4FE232404FE72
:103B30008347F4FD3E86832584FE0325C4FE793544
:103B40002322A4FE032544FE413F832744FE3E85F5
:103B5000B250225445618280397106DE22DC800039
:103B60002326A4FC2324B4FC2322C4FC2320D4FC5D
:103B7000232604FE8327C4FC2324F4FEEF10507B8D
:103B8000832784FE985F832784FEDC5F6367F700EA
:103B9000032704FC89476314F704032604FC8325E8
:103BA00084FC032584FEFD212322A4FE832784FEBA
:103BB000DC5389CF832784FE938747023E85EF102D
:103BC000A05AAA8789CB7300000031A0832744FE46
:103BD00099C373000000EF10D0788547F9A08327C0
:103BE00044FC89E7EF10F0778147C1A08327C4FE2A
:103BF00089EB9307C4FD3E85EF10207A8547232685
:103C0000F4FEEF101076EF00105DEF107072832756
:103C100084FE83C74704139787016187FD576316A6
:103C2000F700832784FE23820704832784FE83C74B
:103C30005704139787016187FD576316F7008327A1
:103C400084FEA3820704EF10D071130744FC93078E
:103C5000C4FDBA853E85EF102077AA87A9E3032526
:103C600084FEEF00006CAA878DC7832784FEC107FE
:103C7000032744FCBA853E85EF108041032584FE6E
:103C80006523EF007057AA87E39A07EE73000000E0
:103C9000F5B5032584FE492BEF001056C5B5032565
:103CA00084FE5923EF00505581473E85F2506254FF
:103CB00021618280397106DE22DC80002326A4FC8B
:103CC0002324B4FC8327C4FC2324F4FE232204FE13
:103CD000832784FE9C5F2320F4FE832784FEDC5F21
:103CE000032704FE6379F706832784FE83C75704FE
:103CF000A30FF4FC832704FE13871700832784FE99
:103D000098DF0307F4FDFD576317F702832784FE4E
:103D1000DC5395CF832784FE938747023E85EF10BF
:103D2000A044AA878DC7832784FC95C3832784FC7E
:103D3000054798C329A88347F4FD850793F7F70F34
:103D4000139787016187832784FEA382E704854751
:103D50002326F4FE19A0232604FE8327C4FE3E85F5
:103D6000F250625421618280397106DE22DC8000CB
:103D70002326A4FC2324B4FC2322C4FC232604FE13
:103D80008327C4FC2324F4FEEF10905A832784FE7B
:103D90009C5F2322F4FE832744FE9DCF832584FC71
:103DA000032584FE2929832744FE1387F7FF8327F1
:103DB00084FE98DF832784FE9C4B99CB832784FE67
:103DC000C1073E85EF10403AAA8799C373000000EF
:103DD000EF1030598547E9A8832744FC89E7EF10A5
:103DE00050588147F1A08327C4FE89EB9307C4FD97
:103DF0003E85EF10805A85472326F4FEEF1070565B
:103E0000EF00703DEF10D052832784FE83C7470434
:103E1000139787016187FD576316F700832784FE98
:103E200023820704832784FE83C7570413978701DF
:103E30006187FD576316F700832784FEA38207047A
:103E4000EF103052130744FC9307C4FDBA853E853A
:103E5000EF108057AA87A9E3032584FE4129AA878A
:103E600095C7832784FE93874702032744FCBA85BE
:103E70003E85EF10E021032584FE7D26EF00D0373C
:103E8000AA87E39307F073000000FDBD032584FEBD
:103E9000612EEF007036CDBD032584FE7126EF0044
:103EA000B035032584FE9921AA87E38F07EC81476B
:103EB0003E85F250625421618280397106DE22DC37
:103EC00080002326A4FC2324B4FC232604FE83279D
:103ED000C4FC2322F4FE232404FEEF107045832744
:103EE00044FE9C5F2320F4FE832704FEA1C78327A2
:103EF00004FE1387F7FF832744FE98DF832744FEE1
:103F00009C4399E7EF10104A2A87832744FE98C7FD
:103F1000832744FE9C4B99CB832744FEC1073E85F3
:103F2000EF108024AA8799C373000000EF1070433C
:103F300085470DA2832784FC89E7EF1090428147D3
:103F400011AA8327C4FE89EB930744FD3E85EF1039
:103F5000C04485472326F4FEEF10B040EF00B027A1
:103F6000EF10103D832744FE83C747041397870152
:103F70006187FD576316F700832744FE23820704F9
:103F8000832744FE83C75704139787016187FD5732
:103F90006316F700832744FEA3820704EF10703CEA
:103FA000130784FC930744FDBA853E85EF10C0419A
:103FB000AA87ADE3032544FE152EAA87B1C7832740
:103FC00044FE9C4389EFEF10B036832744FE9C47A4
:103FD0003E85EF1040692324A4FEEF10903883271C
:103FE00044FE93874702032784FCBA853E85EF1081
:103FF000200A032544FE0D2CEF001020AA87E39E23
:1040000007EC73000000D1BD032544FE312CEF0006
:10401000B01EE1B5032544FE012CEF00F01D032581
:1040200044FEE924AA87E38A07EA832784FE95C32E
:10403000EF101030032544FE1D20232EA4FC8327FF
:1040400044FE9C478325C4FD3E85EF10D013EF103E
:10405000503181473E85F2506254216182807971EE
:1040600022D60018232EA4FC8327C4FDDC5399CB51
:104070008327C4FD9C5B9C431D47B307F740232661
:10408000F4FE19A0232604FE8327C4FE3E85325485
:1040900045618280797106D622D40018232EA4FCB3
:1040A000232CB4FC232AC4FC232604FE8327C4FD4E
:1040B0009C5F2324F4FE8327C4FDBC4395E3832740
:1040C000C4FD9C43F9EF8327C4FD9C473E85EF1058
:1040D000E0742326A4FE8327C4FD23A40700D1A0F7
:1040E000832744FDB1E78327C4FDD8438327C4FD5C
:1040F000BC433E86832584FD3A85EFC02FD38327BA
:10410000C4FDD8438327C4FDBC433E978327C4FD29
:10411000D8C38327C4FDD8438327C4FD9C4763626B
:10412000F7088327C4FD98438327C4FDD8C395A807
:104130008327C4FDD8478327C4FDBC433E8683251F
:1041400084FD3A85EFC08FCE8327C4FDD8478327EF
:10415000C4FDBC43B307F0403E978327C4FDD8C7D6
:104160008327C4FDD8478327C4FD9C43637EF700A3
:104170008327C4FD98478327C4FDBC43B307F040A1
:104180003E978327C4FDD8C7032744FD8947631A98
:10419000F700832784FE91C7832784FEFD1723241D
:1041A000F4FE832784FE138717008327C4FD98DF5E
:1041B0008327C4FE3E85B25022544561828001119E
:1041C00006CE22CC00102326A4FE2324B4FE83278F
:1041D000C4FEBC43A9C78327C4FED8478327C4FEB7
:1041E000BC433E978327C4FED8C78327C4FED84765
:1041F0008327C4FE9C476368F7008327C4FE984367
:104200008327C4FED8C78327C4FED8478327C4FEAC
:10421000BC433E86BA85032584FEEFC02FC1010052
:10422000F240624405618280797106D622D400187A
:10423000232EA4FCEF10D00F8327C4FD83C757049F
:10424000A307F4FE3DA08327C4FDDC5385CB832761
:10425000C4FD938747023E85EF001071AA8799C37A
:10426000EF10A0248347F4FEFD1793F7F70FA30781
:10427000F4FE8307F4FEE348F0FC11A0010083275D
:10428000C4FD7D57A382E704EF10B00DEF10500A74
:104290008327C4FD83C747042307F4FE35A0832783
:1042A000C4FD9C4B9DC78327C4FDC1073E85EF001D
:1042B000B06BAA8799C3EF10401F8347E4FEFD1738
:1042C00093F7F70F2307F4FE8307E4FEE349F0FCBE
:1042D00011A001008327C4FD7D572382E704EF105E
:1042E00050080100B250225445618280797106D68F
:1042F00022D40018232EA4FCEF1090038327C4FDC2
:104300009C5F89E785472326F4FE19A0232604FE37
:10431000EF1030058327C4FE3E85B250225445611C
:104320008280797106D622D40018232EA4FCEF10C7
:1043300030008327C4FD985F8327C4FDDC5F6316CC
:10434000F70085472326F4FE19A0232604FEEF106C
:1043500050018327C4FE3E85B250225445618280BD
:10436000797122D60018232EA4FC232CB4FC23241C
:1043700004FE832784FDBDCF232604FEBDA0B767BE
:1043800000801387070B8327C4FE8E07BA97DC4390
:104390000327C4FD631EF7008327C4FE139737006D
:1043A000B76700809387070BBA972324F4FE99A080
:1043B000832784FE95E7B76700801387070B832761
:1043C000C4FE8E07BA979C4381EF8327C4FE1397E0
:1043D0003700B76700809387070BBA972324F4FE52
:1043E0008327C4FE85072326F4FE0327C4FE9D47CA
:1043F000E3F7E7F8832784FE99CB832784FE03271E
:1044000084FD98C3832784FE0327C4FDD8C301001D
:10441000325445618280797106D622D40018232E49
:10442000A4FC232CB4FC232AC4FC8327C4FD23262C
:10443000F4FEEF10E06F8327C4FE83C74704139791
:1044400087016187FD576316F7008327C4FE238227
:1044500007048327C4FE83C7570413978701618726
:10446000FD576316F7008327C4FEA3820704EF10ED
:10447000406F8327C4FE9C5F81EF8327C4FE938730
:104480004702032644FD832584FD3E85EF00D0438B
:104490000325C4FE513B0100B25022544561828085
:1044A000011122CE0010F32740F12326F4FE8327CA
:1044B000C4FE3E85724405618280011106CE22CC85
:1044C00000102326A4FE0325C4FEEF205062010045
:1044D000F240624405618280397106DE22DC800090
:1044E000232EA4FC232CB4FC2328D4FC2326E4FC98
:1044F0002324F4FCB287231BF4FC835764FD8A0752
:104500003E85EFE03FC72322A4FE832744FE8DC7EC
:1045100013058005EFE01FC62326A4FE8327C4FEF3
:1045200099C78327C4FE032744FE98DB01A803250F
:1045300044FEEFE0BFE119A0232604FE8327C4FE5A
:1045400085CB035664FD81480328C4FE832784FC81
:104550000327C4FC832604FD832584FD0325C4FDB5
:1045600015200325C4FE452A85472324F4FE21A0F7
:10457000FD572324F4FE832784FE3E85F2506254C7
:1045800021618280397106DE22DC8000232EA4FCAA
:10459000232CB4FC232AC4FC2328D4FC2326E4FCCB
:1045A0002324F4FC232204FD232014FD832744FC50
:1045B000985B832744FD8A073E869305500A3A8517
:1045C000EFC04F99832744FC985B832644FDB707CF
:1045D0000040FD17B6978A07BA972324F4FE832775
:1045E00084FEC19B2324F4FE832784FDB9CB2326BC
:1045F00004FE25A8032784FD8327C4FEBA970387FA
:104600000700832644FC8327C4FEB697238AE7026B
:10461000032784FD8327C4FEBA978387070081CFD1
:104620008327C4FE85072326F4FE0327C4FEBD4767
:10463000E3F2E7FC11A00100832744FCA3810704F7
:1046400029A0832744FC238A07020327C4FC994737
:1046500063F5E70099472326F4FC832744FC0327EE
:10466000C4FCD8D7832744FC0327C4FCB8C78327DE
:1046700044FC23A60704832744FC91073E85EFE012
:10468000BFFC832744FCE1073E85EFE0FFFB832767
:1046900044FC032744FC98CB1D478327C4FC1D8F93
:1046A000832744FC98CF832744FC032744FCD8D3BA
:1046B000832744FC23A20704832744FC9387070530
:1046C000114681453E85EFC0EF88832744FC9387E0
:1046D0004705054681453E85EFC0CF87832744FCCB
:1046E000A38A0704032604FD8325C4FD032584FE55
:1046F000EFB01FE12A87832744FC98C3832784FCFB
:1047000091C7832784FC032744FC98C30100F2501F
:10471000625421618280797106D622D40018232E3A
:10472000A4FCEF10E040B707008083A7C7041387FD
:104730001700B707008023A6E704B707008083A708
:10474000C7038DE3B70700800327C4FD23AEE7024C
:10475000B707008003A7C7048547631AF702EF0075
:10476000505735A0B707008083A787058DE3B707AB
:10477000008083A7C703D8578327C4FDDC5763E8AD
:10478000E700B70700800327C4FD23AEE702B707A1
:10479000008083A7870613871700B707008023A42C
:1047A000E7068327C4FDDC5705473317F700B70733
:1047B000008083A747055D8FB707008023AAE70421
:1047C0008327C4FDD857B76700809386070FBA8741
:1047D0008A07BA978A07B697DC432326F4FE832715
:1047E000C4FD0327C4FE98C78327C4FE98478327C8
:1047F000C4FDD8C78327C4FE9C470327C4FD110707
:10480000D8C38327C4FD138747008327C4FE98C7F6
:104810008327C4FDD857BA878A07BA978A073767AC
:1048200000801307070F3E978327C4FDD8CB83274B
:10483000C4FDD857B76700809386070FBA878A07E9
:10484000BA978A07B6979C4393861700B76700808C
:104850001386070FBA878A07BA978A07B29794C355
:10486000EF102030B707008083A7870589CFB707EF
:10487000008083A7C703D8578327C4FDDC57637420
:10488000F700730000000100B2502254456182809D
:10489000797106D622D40018232EA4FC232CB4FC54
:1048A000232604FE0D2AB707008083A707052324CB
:1048B000F4FE8327C4FD9C43032784FDBA9723227B
:1048C000F4FE8327C4FD9C43032784FE6373F70231
:1048D0008327C4FD9C43032744FE637CF702032720
:1048E00044FE832784FE63F6E70285472326F4FE11
:1048F0000DA08327C4FD9C43032744FE6368F70093
:10490000032744FE832784FE63F5E70085472326BB
:10491000F4FE8327C4FD032744FE98C38327C4FE07
:1049200099CB032744FE832784FEB307F7408145D4
:104930003E85EF10002AC9202320A4FE832704FE11
:1049400099E3730000008327C4FE3E85B2502254D1
:1049500045618280011106CE22CC0010B70700808D
:10496000938707070147814613060020B78500900B
:10497000938505B0375500901305254CEFF0DFB552
:104980002326A4FE0327C4FE85476316F700EF1015
:10499000803B2326A4FE0327C4FE85476314F70249
:1049A00073700430B70700807D5723A6E706B7076A
:1049B0000080054723ACE704B707008023A807045D
:1049C000EFE05FEEB707008083A787000100F240A9
:1049D000624405618280411122C60008B707008049
:1049E00083A7470713871700B707008023AAE706A6
:1049F0000100324441018280797106D622D4001828
:104A0000232604FE232404FEEF108012B707008043
:104A100083A747071387F7FFB707008023AAE70696
:104A2000B707008083A74707639C0720B70700806C
:104A300083A7C704638607204DA2B76700809387CA
:104A4000471ADC47DC472326F4FE8327C4FE9C5725
:104A50002320F4FE8327C4FEDC4F0327C4FE185333
:104A600098C78327C4FE9C530327C4FE584FD8C35E
:104A7000832704FED8438327C4FEE1076318F700A9
:104A80008327C4FE9853832704FED8C38327C4FE1C
:104A900023A40702832704FE9C431387F7FF832781
:104AA00004FE98C38327C4FEDC4B232EF4FC83272B
:104AB000C4FE9C470327C4FE584798C78327C4FEFB
:104AC000DC470327C4FE1847D8C38327C4FDD84357
:104AD0008327C4FE91076318F7008327C4FED847D5
:104AE0008327C4FDD8C38327C4FE23AA07008327D6
:104AF000C4FD9C431387F7FF8327C4FD98C3832716
:104B0000C4FEDC5705473317F700B707008083A7BB
:104B100047055D8FB707008023AAE7048327C4FEFB
:104B2000D857B76700809386070FBA878A07BA9766
:104B30008A07B697DC43232CF4FC8327C4FE0327A3
:104B400084FD98C7832784FD98478327C4FED8C770
:104B5000832784FD9C470327C4FE1107D8C38327FE
:104B6000C4FE13874700832784FD98C78327C4FEAC
:104B7000D857BA878A07BA978A073767008013071A
:104B8000070F3E978327C4FED8CB8327C4FED85790
:104B9000B76700809386070FBA878A07BA978A0794
:104BA000B6979C4393861700B76700801386070F5C
:104BB000BA878A07BA978A07B29794C38327C4FE35
:104BC000D857B707008083A7C703DC576367F70090
:104BD000B7070080054723A0E706B76700809387E3
:104BE000471A9C43E39B07E48327C4FE99C3EF0065
:104BF0001022B707008083A7C7052322F4FE83276E
:104C000044FE8DC77928AA8791C7B707008005475A
:104C100023A0E706832744FEFD172322F4FE832703
:104C200044FEEDF3B707008023AE0704B70700800A
:104C300083A7070691C785472324F4FE730000006D
:104C4000EF003072832784FE3E85B25022544561C6
:104C50008280011122CE0010B707008083A70705CC
:104C60002326F4FE8327C4FE3E85724405618280BC
:104C7000797122D60018232EA4FC8327C4FD91E766
:104C8000B707008083A7C70319A08327C4FD232685
:104C9000F4FE8327C4FE938747033E853254456163
:104CA0008280797106D622D40018232604FEB70725
:104CB000008083A747076390072AB707008083A770
:104CC000070585072324F4FEB7070080032784FE29
:104CD00023A8E704832784FEA9E3B707008083A7FE
:104CE00007042322F4FEB707008003A74704B70791
:104CF000008023A0E704B7070080032744FE23A217
:104D0000E704B707008083A7470613871700B70794
:104D1000008023A2E706EF00900FB707008083A76B
:104D2000C706032784FE6363F71EB707008083A7C7
:104D300007049C4399E7B70700807D5723A6E70641
:104D4000F1A2B707008083A70704DC47DC472320D4
:104D5000F4FE832704FEDC43232EF4FC032784FEA9
:104D60008327C4FD6379F700B70700800327C4FDDC
:104D700023A6E70661AA832704FEDC4B232CF4FC60
:104D8000832704FE9C47032704FE584798C78327C0
:104D900004FEDC47032704FE1847D8C3832784FD9D
:104DA000D843832704FE91076318F700832704FE86
:104DB000D847832784FDD8C3832704FE23AA07008E
:104DC000832784FD9C431387F7FF832784FD98C3C3
:104DD000832704FE9C57B1CF832704FE9C57232AC8
:104DE000F4FC832704FEDC4F032704FE185398C706
:104DF000832704FE9C53032704FE584FD8C3832700
:104E000044FDD843832704FEE1076318F700832796
:104E100004FE9853832744FDD8C3832704FE23A4AC
:104E20000702832744FD9C431387F7FF832744FD34
:104E300098C3832704FEDC5705473317F700B707ED
:104E4000008083A747055D8FB707008023AAE7048A
:104E5000832704FED857B76700809386070FBA8769
:104E60008A07BA978A07B697DC432328F4FC83277E
:104E700004FE032704FD98C7832704FD9847832772
:104E800004FED8C7832704FD9C47032704FE1107AF
:104E9000D8C3832704FE13874700832704FD98C7E0
:104EA000832704FED857BA878A07BA978A073767D5
:104EB00000801307070F3E97832704FED8CB832774
:104EC00004FED857B76700809386070FBA878A0712
:104ED000BA978A07B6979C4393861700B7670080F6
:104EE0001386070FBA878A07BA978A07B29794C3BF
:104EF000832704FED857B707008083A7C703DC5772
:104F0000E365F7E285472326F4FE05B5B707008081
:104F100083A7C703D857B76700809386070FBA8760
:104F20008A07BA978A07B6979843854763F5E700DB
:104F300085472326F4FEB707008083A7C70599E3BA
:104F4000EF10C068B707008083A707068DC38547A9
:104F50002326F4FE29A8B707008083A7C705138777
:104F60001700B707008023AEE704EF102066832701
:104F7000C4FE3E85B250225445618280011106CEA6
:104F800022CC0010B707008083A7470799C7B7074F
:104F90000080054723A0E706FDA0B707008023A0F7
:104FA0000706B707008083A7C7039C5B2326F4FE90
:104FB000B7A7A5A59387575A2324F4FE8327C4FED9
:104FC0009C43032784FE631AF7028327C4FE9107DC
:104FD0009C43032784FE6312F7028327C4FEA107C4
:104FE0009C43032784FE631AF7008327C4FEB1079E
:104FF0009C43032784FE6300F702B707008003A7E2
:10500000C703B707008083A7C70393874703BE85FD
:105010003A85EF10605AB707008083A747053E85A1
:10502000EFB0DF89AA873E87FD47998F2322F4FEE0
:10503000032744FEBA878A07BA978A073767008032
:105040001307070FBA972320F4FE832704FEDC43DF
:10505000D843832704FED8C3832704FED84383277D
:1050600004FEA1076319F700832704FEDC43D8433D
:10507000832704FED8C3832704FEDC43D847B70741
:10508000008023AEE7020100F240624405618280A5
:10509000011106CE22CC00102326A4FE2324B4FE48
:1050A000B707008083A7C703E107BE850325C4FEB9
:1050B000EFE02FDB8545032584FEEF0090310100F2
:1050C000F240624405618280797106D622D40018CC
:1050D000232EA4FC232CB4FC232AC4FC8327C4FD68
:1050E000DC432326F4FEB707008083A7C70303270A
:1050F000C4FED8CFB707008083A7C7030327C4FE29
:10510000184798D3B707008003A7C7038327C4FEB7
:105110009C476107D8C3B707008083A7C7031387DD
:1051200087018327C4FE98C7B707008083A7C703FA
:105130000327C4FD98D78327C4FD9C43138717001A
:105140008327C4FD98C3832744FD81C7FD57232CC3
:10515000F4FC832544FD032584FDEF009027010026
:10516000B250225445618280397122DE80002326AC
:10517000A4FC8327C4FCDC47DC472324F4FE8327FC
:1051800084FE9C572322F4FE832784FEDC4F0327F2
:1051900084FE185398C7832784FE9C53032784FEFC
:1051A000584FD8C3832744FED843832784FEE107A2
:1051B0006318F700832784FE9853832744FED8C3DF
:1051C000832784FE23A40702832744FE9C4313877E
:1051D000F7FF832744FE98C3B707008083A74707DC
:1051E000639F0710832784FEDC4B232EF4FC832768
:1051F00084FE9C47032784FE584798C7832784FE74
:10520000DC47032784FE1847D8C38327C4FDD8434F
:10521000832784FE91076318F700832784FED8470D
:105220008327C4FDD8C3832784FE23AA07008327CE
:10523000C4FD9C431387F7FF8327C4FD98C38327CE
:1052400084FEDC5705473317F700B707008083A7B4
:1052500047055D8FB707008023AAE704832784FEF4
:10526000D857B76700809386070FBA878A07BA971F
:105270008A07B697DC43232CF4FC832784FE03279C
:1052800084FD98C7832784FD9847832784FED8C769
:10529000832784FD9C47032784FE1107D8C38327F7
:1052A00084FE13874700832784FD98C7832784FEE5
:1052B000D857BA878A07BA978A07376700801307D3
:1052C000070F3E97832784FED8CB832784FED857C9
:1052D000B76700809386070FBA878A07BA978A074D
:1052E000B6979C4393861700B76700801386070F15
:1052F000BA878A07BA978A07B29794C3A5A0B767F7
:1053000000809387471ADC432320F4FE832784FE22
:10531000032704FED8CF832704FE9847832784FE03
:1053200098D3832704FE9C47032784FE6107D8C3D4
:10533000832784FE13878701832704FE98C783276A
:1053400084FE376700801307471A98D7B767008035
:105350009387471A9C4313871700B767008093878A
:10536000471A98C3832784FED857B707008083A7BE
:10537000C703DC5763FBE70085472326F4FEB70726
:105380000080054723A0E70619A0232604FE8327F3
:10539000C4FE3E85725421618280011122CE00102C
:1053A0002326A4FEB707008003A747068327C4FE71
:1053B00098C3B707008003A707058327C4FED8C397
:1053C0000100724405618280797106D622D40018EA
:1053D000232EA4FC232CB4FCEF008075B7070080BB
:1053E00083A707052324F4FE8327C4FDDC4303279A
:1053F00084FEB307F7402322F4FEB707008083A79B
:10540000C70383C7570599CBB707008083A7C70396
:10541000A38A070485472326F4FEBDA8832784FDBD
:105420009843FD576315F700232604FEB5A0832794
:10543000C4FD9843B707008083A747066301F702BE
:105440008327C4FDDC43032784FE636AF700854796
:105450002326F4FE832784FD23A0070035A8832795
:1054600084FD9C43032744FE6371F702832784FD78
:105470009843832744FE1D8F832784FD98C303250B
:10548000C4FD213F232604FE01A8832784FD23A019
:10549000070085472326F4FEEF00A06C8327C4FE97
:1054A0003E85B250225445618280411122C60008D7
:1054B000B7070080054723A0E706010032444101F9
:1054C0008280011106CE22CC00102326A4FE652086
:1054D000FDBF011106CE22CC0010232604FE25A01C
:1054E0000327C4FEBA878A07BA978A0737670080FE
:1054F0001307070FBA973E85EFE04F908327C4FE4E
:1055000085072326F4FE0327C4FE9947E3FAE7FC48
:10551000B76700801385C717EFE04F8EB76700802D
:1055200013850719EFE08F8DB76700801385471A41
:10553000EFE0CF8CB76700801385871BEFE00F8CFF
:10554000B76700801385C71CEFE04F8BB70700805B
:10555000376700801307C71723A0E704B707008049
:10556000376700801307071923A2E7040100F24000
:10557000624405618280011106CE22CC001081A810
:10558000452BB76700809387871BDC47DC472326C2
:10559000F4FE8327C4FE91073E85EFE0AF96B70780
:1055A000008083A7C7041387F7FFB707008023A6EF
:1055B000E704B707008083A787041387F7FFB707BF
:1055C000008023A4E704712B0325C4FE2128B7071C
:1055D000008083A78704CDF701000100F2406244F8
:1055E00005618280011106CE22CC00102326A4FE84
:1055F0008327C4FE9C5B3E85EFD05FD50325C4FEA8
:10560000EFD0DFD40100F240624405618280411195
:1056100022C60008B707008083A707049C4399E7C8
:10562000B70700807D5723A6E70619A8B7070080B3
:1056300083A70704DC479843B707008023A6E70643
:105640000100324441018280011122CE0010B707CF
:10565000008083A7C7032326F4FE8327C4FE3E856C
:10566000724405618280797106D622D40018232EF7
:10567000A4FC8327C4FD2324F4FE232604FE8327F1
:10568000C4FD63860718832784FED857B7070080B8
:1056900083A7C703DC57637FF714832784FE9C4FDF
:1056A00063CC0700B707008083A7C703DC571D47FB
:1056B0001D8F832784FE98CF832784FED44B8327B6
:1056C00084FED857BA878A07BA978A073767008057
:1056D0001307070FBA976393F610832784FE910789
:1056E0003E85EFE02F82AA8795E3832784FEDC576F
:1056F0000547B317F70013C7F7FFB707008083A765
:1057000047057D8FB707008023AAE704B70700800D
:1057100083A7C703D857832784FED8D7832784FE5F
:10572000DC5705473317F700B707008083A7470505
:105730005D8FB707008023AAE704832784FED8572C
:10574000B76700809386070FBA878A07BA978A07D8
:10575000B697DC432322F4FE832784FE032744FE0E
:1057600098C7832744FE9847832784FED8C783279A
:1057700044FE9C47032784FE1107D8C3832784FE79
:1057800013874700832744FE98C7832784FED85792
:10579000BA878A07BA978A07376700801307070F07
:1057A0003E97832784FED8CB832784FED857B767DC
:1057B00000809386070FBA878A07BA978A07B69739
:1057C0009C4393861700B76700801386070FBA873C
:1057D0008A07BA978A07B29794C309A8B7070080C7
:1057E00083A7C703D857832784FED8D785472326A6
:1057F000F4FE31A8832784FEB847B707008083A74B
:10580000C703DC576375F70085472326F4FE83271B
:10581000C4FE3E85B250225445618280797106D61D
:1058200022D40018232EA4FC8327C4FD2324F4FED5
:10583000232604FE8327C4FD63800714832784FE88
:10584000FC471387F7FF832784FEF8C7832784FE6E
:10585000D857832784FEBC476300F712832784FE52
:10586000FC47639B0710832784FE91073E85EFD09A
:105870007FE9AA8795E3832784FEDC570547B317A2
:10588000F70013C7F7FFB707008083A747057D8F91
:10589000B707008023AAE704832784FEB84783273D
:1058A00084FED8D7832784FEDC571D471D8F8327AE
:1058B00084FE98CF832784FEDC5705473317F70013
:1058C000B707008083A747055D8FB707008023AA2D
:1058D000E704832784FED857B76700809386070FB5
:1058E000BA878A07BA978A07B697DC432322F4FE61
:1058F000832784FE032744FE98C7832744FE9847E6
:10590000832784FED8C7832744FE9C47032784FE51
:105910001107D8C3832784FE13874700832744FEDB
:1059200098C7832784FED857BA878A07BA978A0709
:10593000376700801307070F3E97832784FED8CB75
:10594000832784FED857B76700809386070FBA87EE
:105950008A07BA978A07B6979C4393861700B7675A
:1059600000801386070FBA878A07BA978A07B2970B
:1059700094C385472326F4FE8327C4FE3E85B25098
:10598000225445618280397106DE22DC80002326A4
:10599000A4FC2324B4FC8327C4FC2324F4FE854701
:1059A0002322F4FE8327C4FC638F0716832784FE1B
:1059B000BC47032784FC63F7E700832784FC232686
:1059C000F4FE31A0832784FEBC472326F4FE832700
:1059D00084FEDC570327C4FE6307F714832784FE85
:1059E000FC47032744FE6310F714832784FEDC572B
:1059F0002320F4FE832784FE0327C4FED8D7832701
:105A000084FE9C4F63C907001D478327C4FE1D8F7A
:105A1000832784FE98CF832784FED44B032704FE7C
:105A2000BA878A07BA978A07376700801307070F74
:105A3000BA97639AF60E832784FE91073E85EFD0CE
:105A40007FCCAA8795E3832784FEDC570547B317ED
:105A5000F70013C7F7FFB707008083A747057D8FBF
:105A6000B707008023AAE704832784FEDC57054795
:105A70003317F700B707008083A747055D8FB70787
:105A8000008023AAE704832784FED857B7670080E5
:105A90009386070FBA878A07BA978A07B697DC43B7
:105AA000232EF4FC832784FE0327C4FD98C7832795
:105AB000C4FD9847832784FED8C78327C4FD9C472D
:105AC000032784FE1107D8C3832784FE138747006A
:105AD0008327C4FD98C7832784FED857BA878A07CF
:105AE000BA978A07376700801307070F3E97832707
:105AF00084FED8CB832784FED857B767008093866F
:105B0000070FBA878A07BA978A07B6979C43938686
:105B10001700B76700801386070FBA878A07BA97FE
:105B20008A07B29794C30100F250625421618280C7
:105B3000411122C6000873700430B707008083A7A4
:105B4000870581CFB707008083A7C703F843050700
:105B5000F8C3B707008083A7C7030100324441019F
:105B60008280411122C60008B707008083A78705FD
