:0200000490006A
:10000000971100F89381018017C100F8130181FF57
:100010001785000013054532970500F8938585FE86
:10002000170600F81306C6FE63FAC5008322050012
:1000300023A0550011059105E3EAC5FE170500F858
:10004000130545FD976500F89385451C6377B5005A
:10005000232005001105E36DB5FE5D207155B7E263
:10006000ADDE9382D2EA23205500F5BF00000000E8
:10010000011106CE22CC0010EF602016EF60B04D3A
:10011000EF600038EF6050262326A4FE8327C4FE3C
:100120003E85F240624405618280000000000000CC
:1001300000000000000000000000000000000000BF
:1001400000000000000000000000000000000000AF
:10015000000000000000000000000000000000009F
:10016000000000000000000000000000000000008F
:10017000000000000000000000000000000000007F
:10018000000000000000000000000000000000006F
:10019000000000000000000000000000000000005F
:1001A000000000000000000000000000000000004F
:1001B000000000000000000000000000000000003F
:1001C000000000000000000000000000000000002F
:1001D000000000000000000000000000000000001F
:1001E000000000000000000000000000000000000F
:1001F00000000000000000000000000000000000FF
:10020000130181F806C216C41AC61EC822CA26CC1B
:100210002ACE2ED032D236D43AD63ED842DA46DC76
:100220004ADECEC0D2C2D6C4DAC6DEC8E2CAE6CC46
:10023000EACEEED0F2D2F6D4FAD6FED8F3220030CF
:1002400096DA970200F883A2A2DF23A0220073258A
:100250002034F32510341356F50145C22EC08542D3
:10026000FE0213837200631D6504970200F883A2E7
:10027000E2DC170300F8032323D983230300032EB2
:10028000430083AE020003A04200338F7E00B33FE1
:100290007F007E9E2320E3012322C301B702004991
:1002A00003A302001363830023A06200170100F878
:1002B000032141D5EF40900F3DC5EF40D03CA5A0B4
:1002C0001103630665001503637A650091A81701A1
:1002D00000F8032121D3EF607017B1A0170100F8D7
:1002E000032141D2732310BF71111AC0EF601016A1
:1002F00002431101731003BF3DA091052EC0AD4212
:1003000063195500170100F80321C1CFEF40B03742
:1003100019A8F322203473231034F3230030D5BFFF
:10032000F3222034F5BF170300F8032363D1032120
:100330000300824273901234D6527390023092407E
:10034000A2423243C2435244E2447245825512569D
:10035000A2563257C2575258E25872598649164A25
:10036000A64A364BC64B564CE64C764D865D165E1D
:10037000A65E365FC65F130181077300203013004D
:100380000000130000001300000013000000130021
:100390000000130000001300000013000000130011
:1003A0000000130000001300000013000000130001
:1003B00000001300000013000000130000001300F1
:1003C00000001300000013000000130000001300E1
:1003D00000001300000013000000130000001300D1
:1003E00000001300000013000000130000001300C1
:1003F00000001300000013000000130000000100C3
:1004000097020000938202E073905230170100F8C7
:10041000032101C3024182403243C2435244E244B9
:10042000724582551256A2563257C2575258E25858
:1004300072598649164AA64A364BC64B564CE64C6C
:10044000764D865D165EA65E365FC65FD652A10209
:1004500073900230A24213018107828013000000D2
:100460001300000013000000130000001300000040
:100470001300000013000000130000001300000030
:100480001300000013000000130000001300000020
:100490001300000013000000130000001300000010
:1004A0001300000013000000130000001300000000
:1004B00013000000130000001300000013000000F0
:1004C00013000000130000001300000013000000E0
:1004D00013000000130000001300000013000000D0
:1004E00013000000130000001300000013000000C0
:1004F00013000000130000001300000013000000B0
:10050000F322003093F272FF130380181203B3E258
:100510006200711523205500130585FA10C12115BD
:100520002320050081426387020071152320050006
:10053000FD12D5BF71150CC18280000000000000C3
:1005400000000000000000000000000000000000AB
:10055000000000000000000000000000000000009B
:10056000000000000000000000000000000000008B
:10057000000000000000000000000000000000007B
:10058000000000000000000000000000000000006B
:10059000000000000000000000000000000000005B
:1005A000000000000000000000000000000000004B
:1005B000000000000000000000000000000000003B
:1005C000000000000000000000000000000000002B
:1005D000000000000000000000000000000000001B
:1005E000000000000000000000000000000000000B
:1005F00000000000000000000000000000000000FB
:1006000000000000000000000000000000000000EA
:1006100000000000000000000000000000000000DA
:100620000000000000000000000000003D432A8799
:100630006373C3029377F700BDEFADE5937606FFD2
:100640003D8ABA960CC34CC30CC74CC74107E36B39
:10065000D7FE11E28280B306C3408A0697020000EB
:1006600096966780A6002307B700A306B700230667
:10067000B700A305B7002305B700A304B700230400
:10068000B700A303B7002303B700A302B7002302F8
:10069000B700A301B7002301B700A300B7002300F0
:1006A000B700828093F5F50F93968500D58D9396CC
:1006B0000501D58D61B793962700970200009696A5
:1006C0008682E78086FA9680C1171D8F3E96E37476
:1006D000C3F8A5B7C1676376F5029337051093C7D2
:1006E00017008E0737870090930600029D8E3355C2
:1006F000F5009307C712AA9703C507003385A640E4
:10070000828037070001C147E36EE5FCE147D9BFAE
:10071000AA882E8332872A88AE8763960620B785FB
:1007200000909385C5126371C30CC1666377D60AC6
:100730009336061093C616008E063355D600AA953A
:1007400083C5050013050002AE96B305D540630BC3
:10075000D500B317B300B3D6D8003317B600D58F82
:100760003398B8009355070133D3B7021316070126
:100770004182B3F7B7021A85B30866029396070160
:1007800093570801D58F63FC1701BA971305F3FF40
:1007900063E7E70063F517011305E3FFBA97B38733
:1007A0001741B3D8B702420813580801B3F7B7028C
:1007B000B3061603C2073368F800C687637BD80008
:1007C0003A989387F8FF6366E8006374D8009387CC
:1007D000E8FF42055D8D8145828037050001C146F5
:1007E000E36DA6F4E14691BF814609CAC167637F04
:1007F000F6089336061093C616008E06B357D60039
:10080000BE9583C70500B69793060002B385F640F0
:100810006395F608B307C34085459358070133DE57
:10082000170313160701418293560801B3F7170304
:1008300072853303C603C207D58F63FC6700BA977E
:100840001305FEFF63E7E70063F567001305EEFF9E
:10085000BA97B387674033D3170342081358080188
:10086000B3F71703B3066602C2073368F8009A8726
:10087000637BD8003A989307F3FF6366E8006374DC
:10088000D8009307E3FF42055D8D8280B707000122
:10089000C146E365F6F6E14695B73317B600B356A1
:1008A000F300135507013313B300B3D7F800B3E7D0
:1008B000670033D3A6021316070141823398B800AC
:1008C000B3F6A602B30866029395060193D6070114
:1008D000CD8E9A8563FC1601BA969305F3FF63E704
:1008E000E60063F516019305E3FFBA96B386164159
:1008F000B3D8A602C207C183B3F6A6023306160315
:10090000C206D58FC68663FCC700BA979386F8FFE8
:1009100063E7E70063F5C7009386E8FFBA97C2056F
:10092000918FD58DDDBD63E1D514C16763FFF602FC
:1009300013B70610134717000E07B7870090B3D5FB
:10094000E6009387C712AE9783C70700BA971307CD
:100950000002B305F7406311F7020545E3EE66E6D2
:1009600033B5C800134515008280B7070001414721
:10097000E3E5F6FC6147D1B73357F600B396B6000E
:10098000D98E3357F3003313B300B3D7F800B3E76E
:10099000670013D30601B35E67021398060113586C
:1009A00008013316B60033776702330ED8031315E8
:1009B000070113D70701498F7685637CC7013697F6
:1009C0001385FEFF6367D7006375C7011385EEFFCC
:1009D00036973307C741335E6702C207C183337757
:1009E00067023308C8034207D98F728763FC070187
:1009F000B6971307FEFF63E7D70063F507011307F8
:100A0000EEFFB6974205416E598D9306FEFF337790
:100A1000D500B3870741F18E135805014182330396
:100A2000D702B306D8023307C7023308C802330619
:100A3000D7001357030132976373D7007298935608
:100A40000701C29663E0D702E397D7D8C167FD17C5
:100A50007D8F42073373F300B398B8001A9781452E
:100A6000E3FCE8D67D1585BB81450145828032884F
:100A7000AA872E876393061AB78800909388C812B6
:100A800063F6C50AC166637CD6089336061093C622
:100A900016008E063353D6009A9883C808001303B5
:100AA0000002C696B308D340630BD30033971501F9
:100AB000B356D50033181601558FB31715011356C9
:100AC0000801B356C7021315080141813377C702E5
:100AD000B386A6029315070113D707014D8F6378DC
:100AE000D7004297636507016373D7004297158F5C
:100AF000B356C7023377C702B386A602C2074207BE
:100B0000C183D98F63F8D700C29763E5070163F308
:100B1000D700C297958F33D517018145828037035F
:100B20000001C146E36866F6E146ADB7814609CAF1
:100B300041676374E6069336061093C616008E0668
:100B40003357D600BA9803C70800369793060002B9
:100B5000B388E640639AE6043387C540935508019D
:100B60003356B70213150801418193D60701337735
:100B7000B7023306A6024207558F6378C700429733
:100B8000636507016373C7004297118FB356B702BD
:100B90003377B702B386A60295B737070001C1467F
:100BA000E360E6FAE14669BF33181601B3D6E50003
:100BB000B3171501B39515013357E5001355080117
:100BC0004D8FB3D5A6021313080113530301B3F6D7
:100BD000A602B38565021396060193560701D18ECE
:100BE00063F8B600C29663E5060163F3B600C296E9
:100BF0008D8E33D6A60242074183B3F6A602330692
:100C00006602C206558F6378C70042976365070185
:100C10006373C7004297118F91B763EDD516416892
:100C200063F7060513B80610134818000E08B788B6
:100C3000009033D306019388C8129A9883C808009D
:100C400013030002C298330813416319130363E4CA
:100C5000B600636BC5003306C540B386D540333755
:100C6000C500B2873387E6403E85BA858280B708E3
:100C700000014148E3ED16FB614855BFB35716012B
:100C8000B3960601DD8E33D7150113DE0601335FFF
:100C9000C7031393060113530301B3970501B3551B
:100CA0001501DD8D93D705013316060133150501B6
:100CB0003377C703B30EE3034207D98F7A8763FC08
:100CC000D701B6971307FFFF63E7D70063F5D70196
:100CD0001307EFFFB697B387D741B3DEC703C2054B
:100CE000C181B3F7C703768E3303D303C207DD8D0B
:100CF00063FC6500B695138EFEFF63E7D50063F5D0
:100D00006500138EEEFFB69593170701416FB3E7A9
:100D1000C701B38565401303FFFF33F76700135E18
:100D20000601C18333736600B30E67023383670223
:100D30003307C703B387C703330E670013D70E010A
:100D4000729763736700FA97135307019A97416389
:100D50007D13337767004207B3FE6E00769763E634
:100D6000F500639BF5006379E5003306C740333334
:100D7000C7009A963287958F3307E5403335E500F3
:100D80009D8D898DB39815013357070133E5E80030
:100D9000B3D505018280011106CE22CC26CA4AC8ED
:100DA0004EC652C4F3292000B7071000FD1733F7D1
:100DB000B70013D445010E071358D501F58F93D80A
:100DC00046011374F47F93D4F5013368E80093F877
:100DD000F87F1357D6018E07FD820E055D8F0E0634
:100DE000B30514416395D438AE866351B014639350
:100DF0000808B367C70091EB9307F07F638FF50492
:100E000042872A868147AE8839A89387F5FFB1E3E8
:100E10002A9642973335A6002A97B7068000F98EA6
:100E2000639006328548937676003A8832856381EE
:100E3000067C8146094793E717006395E92C638395
:100E4000042E130785003336A70032983A856F00C9
:100E500030029306F07F6390D50AB365A800E3865D
:100E600005069357680193C71700858B9207428741
:100E70002A86DDA09307F07F6319F400B365A8000C
:100E8000EDF101489308F07FCDA19307800363C87B
:100E9000B706B70780005D8FAE87FD4663C4F606D0
:100EA000930500029D8DB316B700B358F600B31535
:100EB000B600B3E61601B335B000CD8EB357F700D8
:100EC0003386A600C297B336D6003387D700A288F0
:100ED000B7078000F98F6389072085089307F07FA3
:100EE0006391F826638109288D47639AF926638CFC
:100EF0000426814619A493068003E3D0F6FA8147BD
:100F000085467DBF938607FE93080002B356D7003F
:100F1000814563871701930500049D8DB315B700C4
:100F2000D18DB335B000CD8E814759BFE1C9B386AD
:100F3000884029E4B367A8009DE39307F07FB68853
:100F40006394F61AB365C700638505789357670104
:100F500093C71700858B92079308F07FE9B59387B5
:100F6000F6FFE38707EA9305F07FE38DB6FC93066F
:100F7000800363D7F60281478546B1A09307F07FCF
:100F80006397F800B365C700FDE90148F9AE930720
:100F90008003E3C2D7FEB70780003368F800B68746
:100FA000FD4663C9F602930500029D8DB316B80095
:100FB0003353F500B315B500B3E66600B335B000A2
:100FC000CD8EB357F8003696BA97B336D60033872E
:100FD000D700FDBD938607FE13030002B356D80069
:100FE000814563876700930500049D8DB315B800A4
:100FF000C98DB335B000CD8E8147F1B7930514008C
:1010000093F7E57FF9E3B365A80015E8638005561B
:10101000B366C7006381064A2A96B336A600429794
:101020003308D700370780003377E8003285630440
:101030000748370780FF7D173377E800E5B393064D
:10104000F07F6315D40281E5E39888F025BFB706E9
:101050004000B376D8003363C70063830668639E9D
:1010600088046315030242872A8675BB0144639393
:10107000D804B366C70095E2FDF5014811AD93575A
:10108000670193C71700858B920771BBB7074000B4
:10109000F98F95CB014439A04144B7074000F98F3F
:1010A00089CB91C981443708400081459308F07F7E
:1010B000C5A3414481E5A28745B50144518F7DF325
:1010C00042872A86CDBF4144D5BF9307F07F638F07
:1010D000F5002A963335A60042972A979317F70111
:1010E00005825D8E0583AE88814735BB638C095CC4
:1010F0008D47639CF9026387045C7D587D55930896
:10110000E07F95470D476384E956639D0900137797
:10111000F50011466308C700130745003336A700E2
:1011200032983A8563920646E1A189476394F900B3
:10113000639A04587D587D559308E07F95474DA9E3
:101140008948B70780FFFD17F98F13571600058AE6
:10115000518F1396F701598E13D7170071B789472E
:10116000E39AF9FCE1D801488145154415A3635879
:10117000B00C639D0802B367C700E38F07C693876F
:10118000F5FF91EB3306C5403307E8403335C50022
:10119000098F8548ADA09306F07FE380D5CC9306F8
:1011A000800363D1F6028147854681A09307F07FD3
:1011B000E306F4CC93078003E3C7B7FEB7078000CC
:1011C0005D8FAE87FD4663C8F604930500029D8DD2
:1011D000B316B700B358F600B315B600B3E6160160
:1011E000B335B000CD8EB357F700B306D540B30783
:1011F000F8403337D50036863387E740A288370971
:101200008000B3772701E38107EE7D193379270149
:10121000328A468491AC938607FE93080002B35647
:10122000D700814563871701930500049D8DB31591
:10123000B700D18DB335B000CD8E81477DB76381C6
:101240000510B385884031ECB367A8009DE3930790
:10125000F07F639AF530B365C700638B05469357FB
:10126000670193C71700858B92079308F07FB684B8
:101270005DBE9387F5FF99EB3305A640B337A60013
:10128000330707412A861D8FB68421B71303F07FE9
:10129000E38365FC9305800363DDF50281478545A3
:1012A000B1A89307F07F639DF800B365C70063841E
:1012B00005429357670193C71700858B920745BF77
:1012C00093078003E3CCB7FCB70780003368F800CE
:1012D000AE87FD4563CFF502130300023303F340ED
:1012E000B3156800335EF50033136500B3E5C5013F
:1012F00033336000B3E56500B357F800B305B6407B
:101300003335B600B307F7402E863387A740B6843F
:10131000FDB5938507FE130E0002B355B8000143D7
:101320006388C701130300043303F34033136800D9
:101330003363A30033336000B3E5650081477DBFAD
:101340009307140093F7E77FEDEB3363A800B365D1
:10135000C70031EC631D0300639D05209384E9FF02
:1013600093B41400014881458148014415A6638463
:101370000514B305C540B338B500B307E840B387DB
:101380001741B7088000B3F81701638C08003305D4
:10139000A640330707413336A6003308C740B6845A
:1013A00019AA33E7F5005DDB3E882E8529A2130ECE
:1013B000F07F631DC403631A0300639C880695EDE8
:1013C0008144370840004144E1A4B7064000B376A9
:1013D000D8006380063263908806E38A05A8B707C1
:1013E0004000F98FE39807CA414439AE014463973E
:1013F000C80399E9E31D03A6E1B737054000798DDD
:10140000E31705E6414429A8370E4000337EC701A3
:1014100063050E00E31003C899BD41446316032E13
:10142000B684E39A05C88144370840009308F07FEA
:1014300059BF0144F5B70144C1ACB307C540B3354A
:10144000F5003309E8403309B940B7058000B375AA
:10145000B9003E8ADDC5330AA64033090741333659
:1014600046013309C940B6846301090A4A85EFF091
:101470006FA6930785FF130700021D8F3319F9002C
:101480003357EA00336727013319FA0063C5870C25
:10149000818F1388170093070002B3870741331524
:1014A000F700B3560901B317F900558DB337F000B3
:1014B0005D8D33580701B3670501E38507EA93574C
:1014C000F501131718003E979317150013F67700D0
:1014D000937675006307061009466387C90C0D46AD
:1014E000638CC9086397090E13F6F700914593B70B
:1014F000C7FF6310B60AB70700017D8F55C3854744
:10150000B1A2B3E72701ADF391BD5285EFF08F9CF7
:1015100093078501FD46E3D0F6F6130785FF3317E1
:10152000EA0063CA8702818F13881700E3D506F7A4
:10153000851793060002B357F70001456308D800EA
:1015400013050004330505413315A7003335A0000A
:101550005D8D01488DB7B308F440B70780FFFD17D4
:101560007D8F4A8651B6AE88B684BDBE3A88328534
:1015700099B73A88328525B599C8B70700017D8F9C
:1015800069E7F9EEA687814893E7270095A093B70E
:1015900087FF93C71700BA9737070001F98FA5F3A4
:1015A0008148F9E28547CDB799E4B70700017D8FFF
:1015B00039F78148C5BF93B787FF93C71700BA971C
:1015C00037070001F98FD1E3D5DEA686A6878148CB
:1015D000BDB0B70700017D8F1DF3E1DE8546814870
:1015E00069A0B70700017D8F2DE7B5E681488147E7
:1015F000370780003377E8006DC385081307F07F55
:10160000638EE806370780FF7D173377E800931570
:10161000D7010D81C98D0D833E8493974801B7068C
:10162000F07F32073183F58FD98FFE0433E79700BF
:101630002E85BA8519C073201400F2406244D2444A
:101640004249B249224A05618280A68781486FF0EB
:101650000FFE8147E5BF8546814881476FF08FFDCA
:10166000A686A687814879BC8546854761BC81C42A
:10167000C1D2B68411BF130785004DB4814563867E
:1016800009000D476398E90295E813E457002E8896
:101690009317D8018D81DD8D9307F07F13573800A4
:1016A000E39DF8F6D98D0147ADD93707080081458C
:1016B0008144A5B709476393E900E1F8FD55930814
:1016C000E07FE1B79308F07F79BC01480144F9BAA3
:1016D000B6840148E1BAB6844DB8AA853E844DBFB0
:1016E000E393889EE31A039A42872A86C1476FF0E4
:1016F0008FF3E39B88CEC147638B05F6B7074000A5
:10170000F98F4144E390079AE39E059855BA7971A1
:1017100022D456CA66C206D626D24AD04ECE52CC63
:101720005AC85EC662C42A84B28CB68AF3242000EA
:1017300013D845011399C5001378F87F1359C900D0
:1017400013DAF501630608029307F07F630EF806CB
:10175000135BD5010E09336B2B01B7078000336B88
:10176000FB0093193500130C18C0814B01449DA850
:10177000336BA90063090B0C630A09024A85EFE089
:101780007FF5930755FF754B130785FF330BFB4020
:101790003319E900335B6401336B2B013319E40027
:1017A0001308D0C0330CA840CA89C1B7EFE09FF23C
:1017B0002A8B93075B01714713050502E355F7FC7C
:1017C000611B331B6401E9BF336BA90063010B0884
:1017D0003704080033348900AA8912044A8B130C99
:1017E000F07F8D4B13D74A011399CA001377F77F07
:1017F000E6871359C90093DAFA0139CF9306F07FCF
:101800006307D70A0E0993D7DC01B3E7270137092D
:10181000800033E92701930617C093973C00814568
:1018200013972B004D8F3308DC407D17B9463346A4
:101830005A0163E5E60AB78600900A079386060F09
:101840003697184302878149014C854B05B781497A
:10185000130CF07F894B19BFB3679901ADC76309BA
:1018600009024A85EFE01FE7930655FF7547930786
:1018700085FF158F3319F90033D7EC003367270143
:101880003399FC009306D0C0CA87898E3A8941BF3C
:101890006685EFE03FE4AA879386570171471305F9
:1018A0000502E355D7FCE1173397FC00E1BF33662F
:1018B000990119CE370708009306F07F8D45E37133
:1018C000E9F64144B1BF014981478146854589BF59
:1018D000014981479306F07F894599B7636669019D
:1018E00063182B2763E6F9269316FB0113D719001B
:1018F000939EF901135B1B00B3E9E6001315890001
:1019000093D68701C98E41813353AB029398060168
:1019100093D808019395870093D70901337BAB02D5
:101920001A8F33876802420BB3E7670163FCE70055
:10193000B697130FF3FF63E7D70063F5E700130FC4
:10194000E3FFB697998F33DEA7021397090141830E
:10195000B3F7A7023383C803C2075D8FF287637CA6
:10196000670036979307FEFF6367D70063756700CC
:101970009307EEFF3697420F4169336FFF0033073D
:1019800067401303F9FFB3776F0093520F0113DE23
:10199000050133F36500B3836702B3896202B307BD
:1019A000FE02B38F370193D70301FE97B382C203C0
:1019B00063F33701CA9293DF0701969FC162FD125C
:1019C000B3F75700C207B3F353009E976367F7015D
:1019D0007A896312F70563F0FE04B382BE00B3B3E5
:1019E000D201B389D3004E971309FFFF968E63E6A9
:1019F000E6006392E602639003026366F701639C6C
:101A0000EF0063FAF200AE921309EFFF33BFB200AA
:101A1000369F968E7A97338FFE403307F741B3BED9
:101A2000EE013307D741FD576388E60EB352A70294
:101A300093570F013377A702968EB38F5802420750
:101A4000D98F63FCF701B697938EF2FF63E7D70057
:101A500063F5F701938EE2FFB697B387F741B3DFE3
:101A6000A70213170F014183B3F7A702B388F80346
:101A7000C207D98F7E8763FC1701B6971387FFFFD4
:101A800063E7D70063F517011387EFFFB697139548
:101A90000E01598D131705014183B38817419357E0
:101AA0000501B30EE30233836702B307FE02330E70
:101AB000EE0213D70E011A9E72976374670041639A
:101AC0009A97135307013E93C167FD177D8F420715
:101AD000B3FEFE00769763E66800AA87639C6802FF
:101AE00005CFB6989307F5FF468E63E1D80263E60B
:101AF00068006391680263FDE5009307E5FF1395B5
:101B00001500333EB500369E469EAA8563146E00CE
:101B10006304B70093E717001307F83F6353E0101F
:101B200093F67700D5C2894613641400638DD408F8
:101B30008D466386D408C9E893F6F700914563851E
:101B4000B60893864700B3B5F6002E99B687ADA8C0
:101B50007D18814E65B35686AE8B05476381EB22B7
:101B6000E38C0BFA89476383FB0437050800814740
:101B70001307F07F0146320531815207498F7E06F7
:101B8000B366C7003E85B68519C073201400B250F5
:101B9000225492540259F249624AD24A424BB24B01
:101BA000224C924C45618280136484000145814738
:101BB0001307F07FC9B752865A89CE8779BF09E6E5
:101BC0009386870049B76DFEB7060001B376D9004A
:101BD00081CA370700FF7D173379E90013070840F2
:101BE0009306E07F63CAE60093D637009317D901C6
:101BF000D58F1355390041B789476382F4028D4769
:101C00006387F40091C4FD571307E07F29A065FEA8
:101C100081471307F07F136454003E85A9BF65D642
:101C2000C5BF51EB93F677004A8795CA894613647E
:101C300014006385D4028D46638ED4008DE093F644
:101C4000F7009145638DB60013B7C7FF1347170020
:101C50004A9731A009E613B787FFCDBF6DFE6183B8
:101C600013471700058B05451308E841B3D6A700B5
:101C7000B3970701B337F00033180901B3E7070141
:101C8000D58F3355A90093F67700A5CE8946136406
:101C900014006387D4068D466380D406BDE093F6B6
:101CA000F7009145638FB60493864700B3B5F600FD
:101CB0002E95B687B9A00545198D9306800363CD8F
:101CC000A606FD4663C4A600054779BF855633873F
:101CD000E640930500023357E90081466306B500EC
:101CE0001308E843B3160901DD8EB336D000B3679D
:101CF000D7000145054741BF09E6938687007DB7B8
:101D00006DFEB7068000E98E81CA13641400014598
:101D1000814705E3054785B593D637009317D5016D
:101D2000D58F0D81E30907E413771400E30507E479
:101D300001471364240081B5B3E7270189CF8947A0
:101D4000136414006382F4028D47638BF40095479B
:101D500091C085478D83136424000145014721BD4F
:101D600085476DFAA547FDB785476DD6E5BF3705B1
:101D7000080081471307F07F01464144EDBB014550
:101D80008147E9BF2A87F3272000B707100013D83F
:101D90004501FD1713D346011378F87F1305F07F33
:101DA000B3F8B7001373F37FF58FFD81FD82631ED7
:101DB000A80033E7E80005E30545631F03055D8ED2
:101DC00005E6958D3335B00082806316A3025D8EE3
:101DD00001EE054582803707080063EBE800054502
:101DE000631C03035D8E0DCA37070800E3F3E7FEAB
:101DF00073601800F9BF054563106802639EF80020
:101E0000631CC7006389D50063180800B3E8E800C5
:101E1000333510018280014582802A88F327200013
:101E20003707100093D7460113D345017D172A8E3B
:101E30001373F37F13F5F77F9307F07FB378B70041
:101E4000B28E758FFD81FD826312F302B3E8080143
:101E500063950808630665000545BDCD7D55828004
:101E6000518F25EFE39AD5FE014582806314F50278
:101E7000518F25E763080300E390D5FE7D55A9CD7A
:101E80002E858280B3E80801E39808FE7D55A9C637
:101E9000368582806303030261D1E39FD5FAE34D67
:101EA00065FAE34DA3FCE36917FBE399E8FCE3E57E
:101EB000CEFB01456372DE03D1B733E8080101C5EB
:101EC000E30608FC55BF598E11C6E30108FCE38CFC
:101ED000D5FC59B7E31208F8828073601800795571
:101EE00082802A88F32720003707100093D7460105
:101EF00013D345017D172A8E1373F37F13F5F77FF4
:101F00009307F07FB378B700B28E758FFD81FD82A5
:101F10006312F302B3E808016395080863066500DD
:101F20000545BDCD7D558280518F25EFE39AD5FEC5
:101F3000014582806314F502518F25E76308030091
:101F4000E390D5FE7D55A9CD2E858280B3E80801AA
:101F5000E39808FE7D55A9C6368582806303030297
:101F600061D1E39FD5FAE34D65FAE34DA3FCE36944
:101F700017FBE399E8FCE3E5CEFB01456372DE0362
:101F8000D1B733E8080101C5E30608FC55BF598EF7
:101F900011C6E30108FCE38CD5FC59B7E31208F83D
:101FA00082807360180009458280797122D456CAF4
:101FB00062C406D626D24AD04ECE52CC5AC85EC68D
:101FC00066C22A84328CB68A7329200093DB4501CD
:101FD0009399C50093FBFB7F93D9C90013DBF501EF
:101FE00063860B029307F07F638EFB068E0993577F
:101FF000D501B3E73701B7098000B3E93701131AF8
:102000003500938B1BC0814C814495A833EAA9000D
:1020100063010A0E638A09024E85EFE0AFEB1307F6
:1020200055FFF547930685FF998FB399D900B357AC
:10203000F400B3E73701B319D400930BD0C04E8A34
:10204000B38BAB40BE89C1B7EFE0CFE8AA87138757
:102050005701F14613050502E3D5E6FCE117B31776
:10206000F400E1BF33EAA90063090A08B7040800D5
:10207000B3B4990092042A8A930BF07F8D4C13D746
:102080004A011394CA001377F77FE287318093DA0D
:10209000FA012DCB9306F07F630FD70A0E049357F6
:1020A000DC01C18F370480005D8C930617C0931745
:1020B0003C00814513972C00B69B4D8FA9463348B1
:1020C0005B0193881B0063C5E626894663CDE60A5B
:1020D0007D17854663E8E60CAE8C09476389EC46BC
:1020E0000D47638BEC4605476397EC20814601461C
:1020F0002DA98149814B854C01BF8149930BF07F0C
:10210000894C19B7B3678401A5C71DC42285EFE0C8
:102110006FDC930655FF7547930785FF158F3314C2
:10212000F4003357EC00418F3314FC009306D0C009
:10213000A287898E3A84B5BF6285EFE0AFD9AA87BE
:1021400093865701714713050502E356D7FCE11743
:102150003317FC00E1BF336C840163000C023707C6
:1021600008009306F07F8D45E376E4F4C14499B707
:10217000014481478146854535BF01448147930627
:10218000F07F894505BF85463397E60013760753F0
:102190006317061A937607246394063A1377870821
:1021A0006312071A41639305F3FF13570A0113D50E
:1021B0000701337ABA00B3F2B700B3874203330E94
:1021C000570213D60701B3064503F2963696B30EAF
:1021D000A7026373C6019A9E935606016D8EED8F1A
:1021E000135F0401E18D42063E963304BA02B30741
:1021F000B702330A4F03330EE7033E9A1357040125
:1022000052976374F700C1673E9EC163938FF3FFDB
:10221000B377F701135307013374F4017293B3FFDB
:10222000F90113DE0901C207A297B309C503BE96DF
:102230003384F2033305F50313570401B3025E023E
:1022400016952A97637357009E99135507014E956B
:10225000C1699383F9FF33777700420733747400C1
:10226000B30287003384BF02B305BE0213570401D3
:10227000330ECF03330FFF032E9F3A9F6373BF00CC
:102280004E9E33777F00337474004207F696229790
:102290003A93B3B7F6009A97B38556003E95B3B616
:1022A000D500AA963337E30033B367003334F50023
:1022B0003367670033B5A600135F0F017A97498C27
:1022C0003A94729493D7760126045D8C9397950087
:1022D000D18FB337F000DD8137070001CD8FA6061F
:1022E000618FD58F35C313D71700858B5D8F9317FB
:1022F000F401D98F05801387F83F6355E00E93F6FC
:102300007700A1CE894693E414006306D9048D4674
:10231000630ED9026313090493F6F7001146638E26
:10232000C6029386470033B6F6003294B68735A0CE
:10233000BD466303D722AD466306D7005A884E8454
:10234000D28761BB568849BBDE8875B76317080022
:1023500093868700C9BFE31D08FEB7060001E18E22
:1023600099C6370700FF7D17798C138708409306BD
:10237000E07F63C1E6048D831316D4015D8E93560E
:102380003400B2065207B182558F7E08B367070149
:102390003285BE8599C073A01400B2502254925465
:1023A0000259F249624AD24A424BB24B224C924CF9
:1023B0004561828089476304F9028D476308F9000B
:1023C000630809007D561307E07F31A0E31C08FE77
:1023D00001461307F07F93E45400B2865DB7E30330
:1023E00008FEFDB751EF93F6770022878DCE894620
:1023F00093E414006307D9028D46630FD900631478
:10240000090293F6F7001146638FC60013B7C7FFA2
:1024100013471700229701A86317080013B787FF17
:10242000C5BFE31D08FE618313471700058B854672
:102430009388E84133D6D700B3971701B337F0003C
:10244000B3181401B3E71701D18FB356D40013F6B4
:1024500077003DCE094693E414006309C9060D4692
:102460006301C9066316090613F6F7009145630177
:10247000B60613864700B335F600AE96B28789A834
:102480008546998E13068003634ED6067D466344C7
:10249000D600054771BF05563307E6409305000295
:1024A0003357E40001466386B6009388E843331649
:1024B00014015D8E3336C000B367C70081460547FF
:1024C00079B7631708001386870075B7E31D08FE08
:1024D00037068000758E01CA93E4140081460146D8
:1024E00019EF054779BD1396D6018D835D8E8D82D8
:1024F000E30907E813F71400E30507E8014793E44D
:10250000240041B533E6870011CE894793E41400D7
:102510006304F9028D47630CF90015466303090053
:1025200005460D8293E424008146014799BD054686
:10253000E31908FE2546F5B70546E30408FEDDBFAE
:10254000B70608001307F07F0148C1441DBD81464E
:1025500001461307F07F35B5B7060800014613079B
:10256000F07F014839BD011106CE22CC26CA4AC8E7
:102570004EC652C4F3292000B7071000FD1733F7E9
:10258000B7000E079358D501F58FB3E8E80013D7CD
:10259000460113D445011358D60193D4F5018E0793
:1025A0001377F77F9305F07F1374F47F0E05FD8298
:1025B0003368F8000E066310B704B365C8009307CC
:1025C000148091CD3683639BD448638507220DC068
:1025D0009357680193C71700858B9207B9A813C357
:1025E0001600639764486387072081466316044892
:1025F0001304F07F49AA13C31600B307E440639C99
:102600006438635BF01235EFB367C80081EB630D8C
:10261000B40446882A868147228705A09307F4FFE1
:10262000B1E32A9646983335A6002A9837078000EA
:102630003377E800631B0732054793767600C2883C
:1026400032856389067C8146094693E717006390CB
:10265000C92E638E042E13068500B335A600AE98EE
:10266000328545AF631FB408B3E6A800E3810604D2
:1026700093D7680193C71700858B920746882A86EF
:1026800025AA6317B400B3E6A8006381061CCDB782
:1026900013078003634BF706370780003368E800B1
:1026A0007D476347F706930600029D8E3317D800D7
:1026B000B355F600B316D6004D8FB336D000558F04
:1026C000B357F8003306A7003337E600C6973388C0
:1026D000E7002287B7078000B377F800638A0722F4
:1026E000130417009307F07F6312F428638709002F
:1026F0008D47639DF92863960422814881461547DA
:102700005DA213078003E35DF7F8814705475DBFCE
:10271000138707FE930500023357E800814663875D
:10272000B700930600049D8EB316D800D18EB33641
:10273000D000558F814779B7D5CFB307874039C0CF
:102740009306800363C1F608B7068000B3E8D8009B
:10275000FD4663CDF606930500029D8DB396B80045
:102760003353F500B315B500B3E66600B335B000DA
:10277000CD8EB3D7F8003696C297B336D6003388DD
:10278000D70089BF3E84B3E7A80091E79307F07FA5
:10279000631CF41E09A89307F4FFE38407E893067B
:1027A000F07F631ED400B366C800CDC293576801A2
:1027B00093C71700858B92071307F07FBDBD930663
:1027C0008003E3D7F6F88147854675B7938607FE01
:1027D00013030002B3D6D8008145638767009305D1
:1027E00000049D8DB395B800C98DB335B000CD8E72
:1027F000814751B79306140093F7E67FF5EBB3E6F4
:10280000A80015E8638706563367C8006308074ABF
:102810002A963337A6004698B308E80037078000A9
:1028200033F7E8003285630B0748370880FF7D18CF
:1028300033F8080111B59305F07F631AB40289EAF1
:10284000E31C87F6B366C800E39406D881483DA42C
:10285000B705400033FEB8003363C800630F0E6451
:10286000631E8706631F030046882A86F9B3631137
:10287000B706B365C80099E9E5FA81481304F07F0B
:10288000F5AAB375B800BDC1014701A80147B70754
:102890004000B377F800A9C395CE8144B708400043
:1028A00081461304F07F9397D8018D82DD8E9307C4
:1028B000F07F13D638006315F458D18E014663813A
:1028C000065837060800814681449DAB4147C1B791
:1028D000014791E6BA87CDB54147E5BF0147336867
:1028E000C800E31C08FA46882A86EDB74147C5BFF1
:1028F0009307F07F6380F6022A963335A600469848
:102900002A989317F80105825D8E135818003687B0
:10291000814725B3638A09588D47639DF902638512
:1029200004588146FD587D551307E07F95470D46B5
:102930006380C94E639D09001376F50091456308D5
:10294000B60013064500B335A600AE9832856396EF
:102950000646C9A189476394F90063970454FD585A
:102960007D551307E07F954775A10944B70780FFA0
:10297000FD17B377F80013571600058A518F139689
:10298000F701598E13D81700228759B78947E39862
:10299000F9FCF1D49DB36355F00E1DEBB367C8008D
:1029A000E38707C69307F4FF99EB3306C5403388E6
:1029B00008413335C5003308A840054785A0E30525
:1029C000B4CA13078003635FF700814705472DA84A
:1029D000E30BB4CA13078003E349F7FE370780000F
:1029E0003368E8007D476347F704930600029D8E35
:1029F0003317D800B355F600B316D6004D8FB33653
:102A0000D000558FB357F8003307E5403338E50061
:102A1000B387F8403A863388074122873709800018
:102A2000B3772801E38607EE7D1933792801328ACE
:102A30003A842DAC138707FE930500023357E80054
:102A400081466387B700930600049D8EB316D800B5
:102A5000D18EB336D000558F81477DB7F5C721C8D9
:102A60009357680193C71700858B9207B684F1B618
:102A7000E1CF31C081469A8481483A84014725B527
:102A8000E1C7B307874029E49A843E84B3E7A800EE
:102A9000E38E07CE9307F4FF8DE33305A640B337EB
:102AA000A600330818412A863308F84039B7B6849F
:102AB0001304F07FE1BF9A84E5BF9306F07FE3043F
:102AC000D4CE9306800363DEF600814785462DA8A9
:102AD0009306800363C8F606B7068000B3E8D80003
:102AE0009A84FD4663CCF602930500029D8DB39651
:102AF000B8003353F500B315B500B3E66600B3353F
:102B0000B000CD8EB3D7F800B306D640B335D600AB
:102B1000B307F84036863388B74009B7938607FE77
:102B200013030002B3D6D80081456387670093057D
:102B300000049D8DB395B800C98DB335B000CD8E1E
:102B40008147D9B79A8451B79307140093F7E77F69
:102B5000FDE7B366C800B3E5A80029E899E9639DDD
:102B600006209384E9FF93B4140081488146014410
:102B700031B7638506143307C540B336E500B38724
:102B80000841958FB7068000FD8E99CA3305A6408F
:102B9000330818413336A600B308C8409A8439AACE
:102BA000B366F700DDDEBE883A8509AA130EF07F12
:102BB000631EC40381ED631E87068144A1C2B7056D
:102BC0004000B375B800A5C99A8485BC370640009B
:102BD000B3F5C800638C052E63118706E38006AA4F
:102BE0003376C800E31206CA4147DDAC6315C7035C
:102BF00091EAE39505A881441304F07FB7084000EB
:102C0000414755B1370E4000337EC80163010E02C3
:102C1000E39C05C655BF01476394052C9A84E39B4A
:102C200006CA8144B70840001304F07FD1BF414772
:102C3000E5B70147E5B74147D5B7014755A4B30705
:102C4000C5403337F500338908413309E940370778
:102C500080003377E9003E8A5DCB330AA640330912
:102C60001841333646013309C9409A846305090A7D
:102C70004A85EFD03FA6130785FF13050002198D83
:102C80003319E9003355AA00336825013319EA00E6
:102C90006348870C018F9308170093070002B387DE
:102CA00017413317F800B3561901B317F900558FC0
:102CB000B337F0003365F700B3581801B367150157
:102CC000E38507EA9357F501139718003E9793178A
:102CD000150013F677009376750063080610094611
:102CE0006387C90C0D46638CC9086398090E13F6F7
:102CF000F700914593B7C7FF631FB608B7070001F8
:102D00007D8F631107106393061085477DA0B3E79D
:102D10002701A9FFB9B55285EFD0DF9B13078501C5
:102D2000FD47E3DCE7F461153318AA00634A870224
:102D3000018F93081700E3D217F7051793070002D6
:102D40003357E80001456388F80013050004330594
:102D500015413315A8003335A000598D8148B9BFFE
:102D6000B70780FFFD173307E4403378F8004A8641
:102D700045B6C288328599B7C288328505B591C8F3
:102D8000B70700017D8F25EFA68785CAA686014774
:102D900079BE93B787FF93C71700BA97370700012B
:102DA000F98FADE30147B5D28546854749B689E835
:102DB000B70700017D8F854721E793E7270099A892
:102DC00093B787FF93C71700BA9737070001F98FAA
:102DD0009DE7CDE2A6870147CDB7B70700017D8FFC
:102DE00015E385D685460147C9B7B70700017D8F32
:102DF00001EF814785C2854601478147B1B0A6876B
:102E0000014781B08547EDBF8147DDBF014769BFFD
:102E1000B9CCB5E6B7068000B3F6D800D9CA13041A
:102E200017001307F07F630EE404370680FF7D165A
:102E300033F6C8009316D6010D81C98E0D823E87E8
:102E4000B707F07F520432067D8C3182518CFE042C
:102E5000B36794003685BE8519C373201700F2400E
:102E60006244D2444249B249224A05618280130633
:102E70008500D1BCA686A68701476FF08FFDB6847A
:102E80002DBF8146638609000D476397E90089E8F5
:102E900013E75700B68801BC09476393E900EDF8D2
:102EA000FD561304E07FEDB71304F07FB9B08148FD
:102EB000DDBA3A84AA863E87FDB2E31987A2E317FA
:102EC00003A046882A86C1476FF02FF7E31E87D0FC
:102ED000C147638506FA3376C8004147E31F069A67
:102EE000E39D069A09B4F3272000B7071000FD17E9
:102EF00033F7B700D181F58F93F5F57FD1821308B1
:102F0000F07F93F6F67F638805010145639D060314
:102F10005D8E15E28280598D11E56396B6025D8E55
:102F200019EA828037050800636CA7000545639C99
:102F3000B6005D8E09CA37070800054563F5E7004E
:102F400073601800054582802A86F3272000B707A2
:102F5000100093D645011388F7FF93F6F67F130709
:102F6000E03F3378B800FD816347D700D1EE336589
:102F7000A80059E982801307D0416358D702B707E8
:102F8000008093C7F7FF3385F500D1C19307E04177
:102F900041476395F6042E08935756013368F800AD
:102FA000631E08022E0635E68280B367F800130818
:102FB00030433308D8407D47634507039386D6BE28
:102FC0003317D500335806013395D7003337E00067
:102FD0003365050199C13305A04019C3732017005B
:102FE00082801305000201476306A8001387D6C03C
:102FF0003397E700518F13063041B306D64033377D
:10300000E00033D5D700F9B701450547C1BF4147B7
:10301000F1B72E87E1B7411106C622C426C229CDD9
:103020009357F54133C4A7001D8C9354F5012285B5
:10303000EFD04FEA1307E041A947098F63C8A70201
:10304000AD47898F5505B357F4003314A400268586
:10305000B207B18352077E055D8FB240B367A70008
:10306000228522449244BE85410182805515B317C2
:10307000A40026850144E9BF01478147E5BF797176
:1030800006D622D40018232EA4FC232204FEEF101F
:103090003005B707008883A7870191E39524B70718
:1030A000008803A7C7028327C4FDF98F6397071819
:1030B0008327C4FDA9C741478327C4FDBA970327C7
:1030C000C4FD637EF702C1470327C4FDBA97232ED0
:1030D000F4FC8327C4FDBD8B8DC78327C4FDC19B32
:1030E000C1070327C4FD6379F7008327C4FDC19B93
:1030F000C107232EF4FC31A0232E04FC19A0232E9B
:1031000004FC8327C4FD638A0712B707008883A7DE
:10311000C7010327C4FD63E2E712B707008893875E
:1031200007012324F4FEB7070088938707019C4317
:103130002326F4FE11A88327C4FE2324F4FE83274C
:10314000C4FE9C432326F4FE8327C4FEDC430327EE
:10315000C4FD63F6E7008327C4FE9C43E9FFB7077D
:10316000008883A787010327C4FE6308F70C832721
:1031700084FE9843C147BA972322F4FE8327C4FEF6
:103180009843832784FE98C38327C4FED8438327AC
:10319000C4FD1D8FC147860763FAE7020327C4FEFB
:1031A0008327C4FDBA972320F4FE8327C4FED843A7
:1031B0008327C4FD1D8F832704FED8C38327C4FE45
:1031C0000327C4FDD8C3032504FE9124B707008854
:1031D00003A7C7018327C4FEDC431D8FB707008800
:1031E00023AEE700B707008803A7C701B707008829
:1031F00083A70702637AF700B707008803A7C70110
:10320000B707008823A0E7028327C4FED843B70787
:10321000008883A7C7025D8F8327C4FED8C3832796
:10322000C4FE23A00700B707008883A747021387BF
:103230001700B707008823A2E702EF10806C8327EE
:1032400044FE99E3EF30E069832744FE3E85B250A7
:10325000225445618280797106D622D40018232E2B
:10326000A4FC8327C4FD2326F4FE8327C4FDC1C725
:10327000C147B307F0400327C4FEBA972326F4FEE4
:103280008327C4FE2324F4FE832784FED843B70794
:10329000008883A7C702F98FB9CF832784FE9C4398
:1032A000B9EB832784FED843B707008883A7C702FA
:1032B00093C7F7FF7D8F832784FED8C3EF1040624A
:1032C000832784FED843B707008883A7C7013E97AA
:1032D000B707008823AEE700032584FE0D2AB70751
:1032E000008883A7870213871700B707008823A4E5
:1032F000E702EF1000610100B25022544561828064
:10330000011122CE001091672324F4FEB707008834
:103310009387070B2326F4FE8327C4FEBD8B9DC72E
:103320008327C4FEBD072326F4FE8327C4FEC19B6A
:103330002326F4FE032784FE8327C4FE1D8FB707D0
:1033400000889387070BBA972324F4FE8327C4FED3
:103350002322F4FEB707008893870701032744FE62
:1033600098C3B70700889387070123A20700832724
:1033700044FE032784FEBA972326F4FEC1470327A1
:10338000C4FEB307F7402326F4FE8327C4FEC19B87
:103390002326F4FE0327C4FEB707008823ACE7000A
:1033A000B707008883A7870123A20700B707008813
:1033B00083A7870123A00700832744FE2320F4FE70
:1033C000832704FE0327C4FE1D8F832704FED8C372
:1033D000B707008803A78701832704FE98C38327C4
:1033E00004FED843B707008823A0E702832704FE22
:1033F000D843B707008823AEE700B7070088370730
:10340000008023A6E7020100724405618280797181
:1034100022D60018232EA4FCB70700889387070143
:103420002326F4FE31A08327C4FE9C432326F4FE0A
:103430008327C4FE9C430327C4FDE3E6E7FE8327FE
:10344000C4FE2324F4FE8327C4FEDC43032784FE4A
:10345000BA970327C4FD6310F7028327C4FED8433D
:103460008327C4FDDC433E978327C4FED8C383274C
:10347000C4FE232EF4FC8327C4FD2324F4FE8327FB
:10348000C4FDDC43032784FE3E978327C4FE9C4390
:103490006316F7048327C4FE9843B707008883A701
:1034A00087016305F7028327C4FDD8438327C4FE41
:1034B0009C43DC433E978327C4FDD8C38327C4FEC7
:1034C0009C4398438327C4FD98C339A8B707008855
:1034D00003A787018327C4FD98C339A08327C4FEAF
:1034E00098438327C4FD98C30327C4FE8327C4FDE4
:1034F0006307F7008327C4FE0327C4FD98C30100B8
:10350000325445618280011122CE00102326A4FE90
:103510008327C4FE138787008327C4FED8C383276D
:10352000C4FE7D5798C78327C4FE1387870083276F
:10353000C4FED8C78327C4FE138787008327C4FE31
:1035400098CB8327C4FE23A00700010072440561C5
:103550008280011122CE00102326A4FE8327C4FE00
:1035600023A807000100724405618280797122D688
:103570000018232EA4FC232CB4FC832784FD9C4339
:103580002324F4FE032784FEFD576318F7008327E6
:10359000C4FD9C4B2326F4FE25A08327C4FDA10770
:1035A0002326F4FE31A08327C4FEDC432326F4FE49
:1035B0008327C4FEDC439C43032784FEE375F7FEA8
:1035C0008327C4FED843832784FDD8C3832784FD83
:1035D000DC43032784FD98C7832784FD0327C4FEAB
:1035E00098C78327C4FE032784FDD8C3832784FD9F
:1035F0000327C4FD98CB8327C4FD9C431387170082
:103600008327C4FD98C301003254456182807971DB
:1036100022D60018232EA4FC8327C4FD9C4B23260E
:10362000F4FE8327C4FDDC430327C4FD184798C775
:103630008327C4FD9C470327C4FD5843D8C3832771
:10364000C4FEDC430327C4FD6318F7008327C4FDD1
:1036500098478327C4FED8C38327C4FD23A8070047
:103660008327C4FE9C431387F7FF8327C4FE98C3B8
:103670008327C4FE9C433E853254456182800111FC
:1036800022CE00102326A4FE2324B4FE8327C4FEEA
:10369000032784FE98C3010072440561828079711A
:1036A00006D622D44AD24ED052CE56CC0018B707F6
:1036B0000049A107232EF4FCB7070049B107232CCA
:1036C000F4FCB7070049C107232AF4FCB7070049F7
:1036D000D1072328F4FCB7070049C1073E87B70785
:1036E000008823ACE7028145B707004913854700EE
:1036F00079378145B70700491385870049378145E8
:10370000B70700491385C7009D3F9567938707E278
:10371000BE85B70700491385070195378145B7076F
:10372000004913854701A13F954537050049813F71
:103730009567938707E23E8A814AB707008803A608
:10374000070383A647033307CA00BA85B3B545010B
:10375000B387DA00B386F500B687B706008823A8DA
:10376000E60223AAF6029567938707E23E8981491C
:10377000B707008803A6070383A647033307C900DA
:10378000BA85B3B52501B387D900B386F500B687EE
:10379000B706008823A8E60223AAF6020100B25069
:1037A000225412598259724AE24A4561828041117B
:1037B00006C622C40008E53585679387078873A08D
:1037C0004730EFC0FFC381473E85B24022444101EC
:1037D0008280797106D622D40018232EA4FC232CD3
:1037E000B4FC85472326F4FE8327C4FD2324F4FE7E
:1037F000832784FEE1CB832784FEDC5FE1C7832738
:1038000084FEB843832784FEDC5F8146B337F7022A
:1038100091C38546B687DDE7EF202022832784FE0B
:103820009843832784FED45F832784FEBC43B387F9
:10383000F6023E97832784FE98C7832784FE23AC35
:103840000702832784FE9843832784FED8C38327F7
:1038500084FE9843832784FEDC5F9386F7FF8327EB
:1038600084FEBC43B387F6023E97832784FED8C705
:10387000832784FE7D572382E704832784FE7D57B8
:10388000A382E704832784FD85E3832784FE9C4B82
:103890009DC7832784FEC1073E85EF10807DAA87E0
:1038A00099CF7300000021A8832784FEC1073E85BD
:1038B0009939832784FE938747023E85A931EF20FB
:1038C000E01A19A0232604FE8327C4FE3E85B250C9
:1038D000225445618280797106D622D40018232EA5
:1038E000A4FC232CB4FCB287A30BF4FC232604FE17
:1038F0008327C4FDC1C38146032784FD8327C4FDFC
:10390000B337F70291C38546B687ADE70327C4FDF9
:10391000832784FD3307F702930770FB63ECE7040A
:103920000327C4FD832784FDB307F7022324F4FE95
:10393000832784FE938787043E85EFF04FF4232688
:10394000A4FE8327C4FE9DC78327C4FE2322F4FE62
:10395000832744FE938787042322F4FE834774FD64
:103960000327C4FEBE86032644FE832584FD03256B
:10397000C4FD01288327C4FE3E85B2502254456110
:103980008280797106D622D400182326A4FE23242F
:10399000B4FE2322C4FEB687232EE4FCA301F4FE6A
:1039A000832784FE99E78327C4FD0327C4FD98C3BA
:1039B00031A08327C4FD032744FE98C38327C4FD99
:1039C0000327C4FED8DF8327C4FD032784FEB8C3C2
:1039D00085450325C4FDF53B0100B25022544561E5
:1039E0008280011106CE22CC00102326A4FE83275C
:1039F000C4FE9DC38327C4FE23A407008327C4FEFF
:103A000023A007008327C4FE23A6070081460146A2
:103A100081450325C4FEB1200100F24062440561E6
:103A20008280797106D622D40018AA87A30FF4FCED
:103A300085472326F4FE232404FE8347F4FD3E86B7
:103A4000832584FE0325C4FE79352322A4FE0325A5
:103A500044FE413F832744FE3E85B25022544561D7
:103A60008280397106DE22DC80002326A4FC232418
:103A7000B4FC2322C4FC2320D4FC232604FE832789
:103A8000C4FC2324F4FEEF10507B832784FE985F50
:103A9000832784FEDC5F6367F700032704FC894704
:103AA0006314F704032604FC832584FC032584FEA9
:103AB000FD212322A4FE832784FEDC5389CF8327A4
:103AC00084FE938747023E85EF10A05AAA8789CBD0
:103AD0007300000031A0832744FE99C373000000E7
:103AE000EF10D0788547F9A0832744FC89E7EF10D1
:103AF000F0778147C1A08327C4FE89EB9307C4FDFB
:103B00003E85EF10207A85472326F4FEEF101076CD
:103B1000EF00105DEF107072832784FE83C74704A7
:103B2000139787016187FD576316F700832784FE8B
:103B300023820704832784FE83C7570413978701D2
:103B40006187FD576316F700832784FEA38207046D
:103B5000EF10D071130744FC9307C4FDBA853E856E
:103B6000EF102077AA87A9E3032584FEEF00006CFD
:103B7000AA878DC7832784FEC107032744FCBA8523
:103B80003E85EF108041032584FE6523EF007057CA
:103B9000AA87E39A07EE73000000F5B5032584FEBB
:103BA000492BEF001056C5B5032584FE5923EF00BD
:103BB000505581473E85F2506254216182803971AF
:103BC00006DE22DC80002326A4FC2324B4FC832709
:103BD000C4FC2324F4FE232204FE832784FE9C5F7E
:103BE0002320F4FE832784FEDC5F032704FE637931
:103BF000F706832784FE83C75704A30FF4FC8327AB
:103C000004FE13871700832784FE98DF0307F4FD63
:103C1000FD576317F702832784FEDC5395CF832774
:103C200084FE938747023E85EF10A044AA878DC784
:103C3000832784FC95C3832784FC054798C329A860
:103C40008347F4FD850793F7F70F13978701618783
:103C5000832784FEA382E70485472326F4FE19A068
:103C6000232604FE8327C4FE3E85F2506254216160
:103C70008280397106DE22DC80002326A4FC232406
:103C8000B4FC2322C4FC232604FE8327C4FC232483
:103C9000F4FEEF10905A832784FE9C5F2322F4FEEB
:103CA000832744FE9DCF832584FC032584FE292998
:103CB000832744FE1387F7FF832784FE98DF83273B
:103CC00084FE9C4B99CB832784FEC1073E85EF1071
:103CD000403AAA8799C373000000EF103059854716
:103CE000E9A8832744FC89E7EF1050588147F1A0E9
:103CF0008327C4FE89EB9307C4FD3E85EF10805AED
:103D000085472326F4FEEF107056EF00703DEF104C
:103D1000D052832784FE83C74704139787016187A6
:103D2000FD576316F700832784FE23820704832749
:103D300084FE83C75704139787016187FD57631675
:103D4000F700832784FEA3820704EF103052130785
:103D500044FC9307C4FDBA853E85EF108057AA87BF
:103D6000A9E3032584FE4129AA8795C7832784FEFA
:103D700093874702032744FCBA853E85EF10E02174
:103D8000032584FE7D26EF00D037AA87E39307F052
:103D900073000000FDBD032584FE612EEF00703628
:103DA000CDBD032584FE7126EF00B035032584FECA
:103DB0009921AA87E38F07EC81473E85F250625430
:103DC00021618280397106DE22DC80002326A4FC7A
:103DD0002324B4FC232604FE8327C4FC2322F4FE00
:103DE000232404FEEF107045832744FE9C5F2320AC
:103DF000F4FE832704FEA1C7832704FE1387F7FF81
:103E0000832744FE98DF832744FE9C4399E7EF1005
:103E1000104A2A87832744FE98C7832744FE9C4B79
:103E200099CB832744FEC1073E85EF108024AA87E3
:103E300099C373000000EF10704385470DA28327DC
:103E400084FC89E7EF109042814711AA8327C4FEC2
:103E500089EB930744FD3E85EF10C0448547232638
:103E6000F4FEEF10B040EF00B027EF10103D8327B5
:103E700044FE83C74704139787016187FD57631684
:103E8000F700832744FE23820704832744FE83C769
:103E90005704139787016187FD576316F70083273F
:103EA00044FEA3820704EF10703C130784FC9307C1
:103EB00044FDBA853E85EF10C041AA87ADE30325D6
:103EC00044FE152EAA87B1C7832744FE9C4389EF81
:103ED000EF10B036832744FE9C473E85EF104069C3
:103EE0002324A4FEEF109038832744FE93874702D3
:103EF000032784FCBA853E85EF10200A032544FE83
:103F00000D2CEF001020AA87E39E07EC7300000041
:103F1000D1BD032544FE312CEF00B01EE1B50325D1
:103F200044FE012CEF00F01D032544FEE924AA877E
:103F3000E38A07EA832784FE95C3EF101030032538
:103F400044FE1D20232EA4FC832744FE9C4783258A
:103F5000C4FD3E85EF10D013EF10503181473E85F0
:103F6000F250625421618280797122D60018232E8A
:103F7000A4FC8327C4FDDC5399CB8327C4FD9C5B41
:103F80009C431D47B307F7402326F4FE19A02326C0
:103F900004FE8327C4FE3E853254456182807971D8
:103FA00006D622D40018232EA4FC232CB4FC232AEA
:103FB000C4FC232604FE8327C4FD9C5F2324F4FE57
:103FC0008327C4FDBC4395E38327C4FD9C43F9EFDD
:103FD0008327C4FD9C473E85EF10E0742326A4FE92
:103FE0008327C4FD23A40700D1A0832744FDB1E7A4
:103FF0008327C4FDD8438327C4FDBC433E86832565
:1040000084FD3A85EF30F05C8327C4FDD8438327D5
:10401000C4FDBC433E978327C4FDD8C38327C4FD9A
:10402000D8438327C4FD9C476362F7088327C4FDF8
:1040300098438327C4FDD8C395A88327C4FDD847D8
:104040008327C4FDBC433E86832584FD3A85EF303B
:1040500050588327C4FDD8478327C4FDBC43B3070A
:10406000F0403E978327C4FDD8C78327C4FDD847B7
:104070008327C4FD9C43637EF7008327C4FD9847D4
:104080008327C4FDBC43B307F0403E978327C4FD9C
:10409000D8C7032744FD8947631AF700832784FEA6
:1040A00091C7832784FEFD172324F4FE832784FE13
:1040B000138717008327C4FD98DF8327C4FE3E853E
:1040C000B250225445618280011106CE22CC0010EC
:1040D0002326A4FE2324B4FE8327C4FEBC43A9C721
:1040E0008327C4FED8478327C4FEBC433E9783275B
:1040F000C4FED8C78327C4FED8478327C4FE9C4785
:104100006368F7008327C4FE98438327C4FED8C79B
:104110008327C4FED8478327C4FEBC433E86BA85A6
:10412000032584FEEF30F04A0100F240624405614D
:104130008280797106D622D40018232EA4FCEF10B9
:10414000D00F8327C4FD83C75704A307F4FE3DA007
:104150008327C4FDDC5385CB8327C4FD93874702A7
:104160003E85EF001071AA8799C3EF10A024834702
:10417000F4FEFD1793F7F70FA307F4FE8307F4FE91
:10418000E348F0FC11A001008327C4FD7D57A38202
:10419000E704EF10B00DEF10500A8327C4FD83C76A
:1041A00047042307F4FE35A08327C4FD9C4B9DC71D
:1041B0008327C4FDC1073E85EF00B06BAA8799C372
:1041C000EF10401F8347E4FEFD1793F7F70F230717
:1041D000F4FE8307E4FEE349F0FC11A0010083270D
:1041E000C4FD7D572382E704EF1050080100B25050
:1041F000225445618280797106D622D40018232E7C
:10420000A4FCEF1090038327C4FD9C5F89E78547DA
:104210002326F4FE19A0232604FEEF103005832781
:10422000C4FE3E85B250225445618280797106D623
:1042300022D40018232EA4FCEF1030008327C4FDE5
:10424000985F8327C4FDDC5F6316F700854723264C
:10425000F4FE19A0232604FEEF1050018327C4FEAC
:104260003E85B250225445618280797122D6001871
:10427000232EA4FC232CB4FC232404FE832784FDDA
:10428000BDCF232604FEBDA0B76700881387070BA8
:104290008327C4FE8E07BA97DC430327C4FD631E41
:1042A000F7008327C4FE13973700B767008893870A
:1042B000070BBA972324F4FE99A0832784FE95E781
:1042C000B76700881387070B8327C4FE8E07BA974A
:1042D0009C4381EF8327C4FE13973700B76700889C
:1042E0009387070BBA972324F4FE8327C4FE850720
:1042F0002326F4FE0327C4FE9D47E3F7E7F8832750
:1043000084FE99CB832784FE032784FD98C38327EB
:1043100084FE0327C4FDD8C3010032544561828066
:10432000797106D622D40018232EA4FC232CB4FCC9
:10433000232AC4FC8327C4FD2326F4FEEF10E06F7C
:104340008327C4FE83C74704139787016187FD57FE
:104350006316F7008327C4FE238207048327C4FE65
:1043600083C75704139787016187FD576316F700CA
:104370008327C4FEA3820704EF10406F8327C4FE87
:104380009C5F81EF8327C4FE93874702032644FD89
:10439000832584FD3E85EF00D0430325C4FE513BB9
:1043A0000100B250225445618280011122CE0010DA
:1043B000F32740F12326F4FE8327C4FE3E85724492
:1043C00005618280011106CE22CC00102326A4FEB6
:1043D0000325C4FEEF3000260100F240624405616F
:1043E0008280397106DE22DC8000232EA4FC232C7F
:1043F000B4FC2328D4FC2326E4FC2324F4FCB28759
:10440000231BF4FC835764FD8A073E85EFE03FC71A
:104410002322A4FE832744FE8DC713058005EFE009
:104420001FC62326A4FE8327C4FE99C78327C4FE84
:10443000032744FE98DB01A8032544FEEFE0BFE11B
:1044400019A0232604FE8327C4FE85CB035664FDF2
:1044500081480328C4FE832784FC0327C4FC8326E9
:1044600004FD832584FD0325C4FD15200325C4FE1A
:10447000452A85472324F4FE21A0FD572324F4FE7A
:10448000832784FE3E85F250625421618280397117
:1044900006DE22DC8000232EA4FC232CB4FC232A7D
:1044A000C4FC2328D4FC2326E4FC2324F4FC23228C
:1044B00004FD232014FD832744FC985B832744FDDF
:1044C0008A073E869305500A3A85EFC02F968327C8
:1044D00044FC985B832644FDB7070040FD17B69760
:1044E0008A07BA972324F4FE832784FEC19B2324E2
:1044F000F4FE832784FDB9CB232604FE25A80327D9
:1045000084FD8327C4FEBA9703870700832644FCF3
:104510008327C4FEB697238AE702032784FD8327F7
:10452000C4FEBA978387070081CF8327C4FE85071F
:104530002326F4FE0327C4FEBD47E3F2E7FC11A0E7
:104540000100832744FCA381070429A0832744FC9E
:10455000238A07020327C4FC994763F5E7009947BC
:104560002326F4FC832744FC0327C4FCD8D78327E5
:1045700044FC0327C4FCB8C7832744FC23A60704D4
:10458000832744FC91073E85EFE0BFFC832744FC72
:10459000E1073E85EFE0FFFB832744FC032744FC53
:1045A00098CB1D478327C4FC1D8F832744FC98CFDD
:1045B000832744FC032744FCD8D3832744FC23A24D
:1045C0000704832744FC93870705114681453E85F0
:1045D000EFC0CF85832744FC938747050546814577
:1045E0003E85EFC0AF84832744FCA38A07040326DB
:1045F00004FD8325C4FD032584FEEFB07FF02A87E8
:10460000832744FC98C3832784FC91C7832784FCB9
:10461000032744FC98C30100F25062542161828058
:10462000797106D622D40018232EA4FCEF10E040A6
:10463000B707008883A7C70413871700B707008848
:1046400023A6E704B707008883A7C7038DE3B7074E
:1046500000880327C4FD23AEE702B707008803A73D
:10466000C7048547631AF702EF00505735A0B70714
:10467000008883A787058DE3B707008883A7C70352
:10468000D8578327C4FDDC5763E8E700B7070088E5
:104690000327C4FD23AEE702B707008883A7870678
:1046A00013871700B707008823A4E7068327C4FDF4
:1046B000DC5705473317F700B707008883A747057E
:1046C0005D8FB707008823AAE7048327C4FDD85766
:1046D000B76700889386070FBA878A07BA978A0751
:1046E000B697DC432326F4FE8327C4FD0327C4FECC
:1046F00098C78327C4FE98478327C4FDD8C783275C
:10470000C4FE9C470327C4FD1107D8C38327C4FDFB
:10471000138747008327C4FE98C78327C4FDD85753
:10472000BA878A07BA978A07376700881307070F7F
:104730003E978327C4FDD8CB8327C4FDD857B767DE
:1047400000889386070FBA878A07BA978A07B697B1
:104750009C4393861700B76700881386070FBA87B4
:104760008A07BA978A07B29794C3EF102030B70729
:10477000008883A7870589CFB707008883A7C70369
:10478000D8578327C4FDDC576374F700730000001B
:104790000100B250225445618280797106D622D43C
:1047A0000018232EA4FC232CB4FC232604FE0D2A7F
:1047B000B707008883A707052324F4FE8327C4FDD9
:1047C0009C43032784FDBA972322F4FE8327C4FD6C
:1047D0009C43032784FE6373F7028327C4FD9C4335
:1047E000032744FE637CF702032744FE832784FEED
:1047F00063F6E70285472326F4FE0DA08327C4FD58
:104800009C43032744FE6368F700032744FE832785
:1048100084FE63F5E70085472326F4FE8327C4FD65
:10482000032744FE98C38327C4FE99CB032744FE85
:10483000832784FEB307F74081453E85EF10002AA9
:10484000C9202320A4FE832704FE99E373000000FF
:104850008327C4FE3E85B2502254456182800111F7
:1048600006CE22CC0010B7070088938707070147C0
:10487000814613060020B7850090938505003755C3
:1048800000901305C53CEFF0DFB52326A4FE0327F7
:10489000C4FE85476316F700EF10803B2326A4FE75
:1048A0000327C4FE85476314F70273700430B7070B
:1048B00000887D5723A6E706B7070088054723AC85
:1048C000E704B707008823A80704EFE05FEEB70707
:1048D000008883A787000100F2406244056182805E
:1048E000411122C60008B707008883A7470713872E
:1048F0001700B707008823AAE706010032444101E8
:104900008280797106D622D40018232604FE23243F
:1049100004FEEF108012B707008883A747071387AC
:10492000F7FFB707008823AAE706B707008883A721
:104930004707639C0720B707008883A7C7046386DF
:1049400007204DA2B76700889387471ADC47DC47EA
:104950002326F4FE8327C4FE9C572320F4FE8327DE
:10496000C4FEDC4F0327C4FE185398C78327C4FE38
:104970009C530327C4FE584FD8C3832704FED84353
:104980008327C4FEE1076318F7008327C4FE98530A
:10499000832704FED8C38327C4FE23A407028327EA
:1049A00004FE9C431387F7FF832704FE98C38327E5
:1049B000C4FEDC4B232EF4FC8327C4FE9C47032754
:1049C000C4FE584798C78327C4FEDC470327C4FEAC
:1049D0001847D8C38327C4FDD8438327C4FE910753
:1049E0006318F7008327C4FED8478327C4FDD8C3C4
:1049F0008327C4FE23AA07008327C4FD9C43138793
:104A0000F7FF8327C4FD98C38327C4FEDC570547FF
:104A10003317F700B707008883A747055D8FB707EF
:104A2000008823AAE7048327C4FED857B767008805
:104A30009386070FBA878A07BA978A07B697DC4327
:104A4000232CF4FC8327C4FE032784FD98C7832707
:104A500084FD98478327C4FED8C7832784FD9C47DD
:104A60000327C4FE1107D8C38327C4FE138747005A
:104A7000832784FD98C78327C4FED857BA878A073F
:104A8000BA978A07376700881307070F3E9783276F
:104A9000C4FED8CB8327C4FED857B7670088938657
:104AA000070FBA878A07BA978A07B6979C439386F7
:104AB0001700B76700881386070FBA878A07BA9767
:104AC0008A07B29794C38327C4FED857B7070088D4
:104AD00083A7C703DC576367F700B707008805475C
:104AE00023A0E706B76700889387471A9C43E39B98
:104AF00007E48327C4FE99C3EF001022B70700889C
:104B000083A7C7052322F4FE832744FE8DC7792897
:104B1000AA8791C7B7070088054723A0E706832720
:104B200044FEFD172322F4FE832744FEEDF3B7076E
:104B3000008823AE0704B707008883A7070691C73C
:104B400085472324F4FE73000000EF0030728327B2
:104B500084FE3E85B250225445618280011122CEEE
:104B60000010B707008883A707052326F4FE8327D4
:104B7000C4FE3E85724405618280797122D6001898
:104B8000232EA4FC8327C4FD91E7B707008883A7E1
:104B9000C70319A08327C4FD2326F4FE8327C4FE80
:104BA000938747033E85325445618280797106D6EA
:104BB00022D40018232604FEB707008883A74707DE
:104BC0006390072AB707008883A707058507232472
:104BD000F4FEB7070088032784FE23A8E704832791
:104BE00084FEA9E3B707008883A707042322F4FE05
:104BF000B707008803A74704B707008823A0E70486
:104C0000B7070088032744FE23A2E704B7070088FC
:104C100083A7470613871700B707008823A2E70674
:104C2000EF00900FB707008883A7C706032784FE0D
:104C30006363F71EB707008883A707049C4399E7BF
:104C4000B70700887D5723A6E706F1A2B7070088BB
:104C500083A70704DC47DC472320F4FE832704FEF8
:104C6000DC43232EF4FC032784FE8327C4FD6379F1
:104C7000F700B70700880327C4FD23A6E70661AA4B
:104C8000832704FEDC4B232CF4FC832704FE9C4783
:104C9000032704FE584798C7832704FEDC470327F1
:104CA00004FE1847D8C3832784FDD843832704FE16
:104CB00091076318F700832704FED847832784FDF4
:104CC000D8C3832704FE23AA0700832784FD9C43BF
:104CD0001387F7FF832784FD98C3832704FE9C571F
:104CE000B1CF832704FE9C57232AF4FC832704FEBC
:104CF000DC4F032704FE185398C7832704FE9C53F8
:104D0000032704FE584FD8C3832744FDD843832785
:104D100004FEE1076318F700832704FE98538327F6
:104D200044FDD8C3832704FE23A40702832744FD40
:104D30009C431387F7FF832744FD98C3832704FE12
:104D4000DC5705473317F700B707008883A74705E7
:104D50005D8FB707008823AAE704832704FED8578E
:104D6000B76700889386070FBA878A07BA978A07BA
:104D7000B697DC432328F4FC832704FE032704FDB5
:104D800098C7832704FD9847832704FED8C7832745
:104D900004FD9C47032704FE1107D8C3832704FEA4
:104DA00013874700832704FD98C7832704FED8573D
:104DB000BA878A07BA978A07376700881307070FE9
:104DC0003E97832704FED8CB832704FED857B767C6
:104DD00000889386070FBA878A07BA978A07B6971B
:104DE0009C4393861700B76700881386070FBA871E
:104DF0008A07BA978A07B29794C3832704FED857C5
:104E0000B707008883A7C703DC57E365F7E2854748
:104E10002326F4FE05B5B707008883A7C703D85734
:104E2000B76700889386070FBA878A07BA978A07F9
:104E3000B6979843854763F5E70085472326F4FE38
:104E4000B707008883A7C70599E3EF10902BB70732
:104E5000008883A707068DC385472326F4FE29A86B
:104E6000B707008883A7C70513871700B70700880F
:104E700023AEE704EF10F0288327C4FE3E85B2502E
:104E8000225445618280011106CE22CC0010B70762
:104E9000008883A7470799C7B7070088054723A05D
:104EA000E706FDA0B707008823A00706B70700881C
:104EB00083A7C7039C5B2326F4FEB7A7A5A593870A
:104EC000575A2324F4FE8327C4FE9C43032784FE01
:104ED000631AF7028327C4FE91079C43032784FECD
:104EE0006312F7028327C4FEA1079C43032784FEB5
:104EF000631AF7008327C4FEB1079C43032784FE8F
:104F00006300F702B707008803A7C703B707008845
:104F100083A7C70393874703BE853A85EF10301DEB
:104F2000B707008883A747053E85EFB0AFFAAA8789
:104F30003E87FD47998F2322F4FE032744FEBA875C
:104F40008A07BA978A07376700881307070FBA9747
:104F50002320F4FE832704FEDC43D843832704FE8A
:104F6000D8C3832704FED843832704FEA10763190F
:104F7000F700832704FEDC43D843832704FED8C30D
:104F8000832704FEDC43D847B707008823AEE70237
:104F90000100F240624405618280011106CE22CCFC
:104FA00000102326A4FE2324B4FEB707008883A79D
:104FB000C703E107BE850325C4FEEFE02FDB85456F
:104FC000032584FEEF0090310100F2406244056148
:104FD0008280797106D622D40018232EA4FC232CBB
:104FE000B4FC232AC4FC8327C4FDDC432326F4FE3F
:104FF000B707008883A7C7030327C4FED8CFB70726
:10500000008883A7C7030327C4FE184798D3B707B0
:10501000008803A7C7038327C4FE9C476107D8C342
:10502000B707008883A7C703138787018327C4FEB8
:1050300098C7B707008883A7C7030327C4FD98D77D
:105040008327C4FD9C43138717008327C4FD98C39F
:10505000832744FD81C7FD57232CF4FC832544FDA1
:10506000032584FDEF0090270100B25022544561D2
:105070008280397122DE80002326A4FC8327C4FCB1
:10508000DC47DC472324F4FE832784FE9C5723223D
:10509000F4FE832784FEDC4F032784FE185398C751
:1050A000832784FE9C53032784FE584FD8C383274D
:1050B00044FED843832784FEE1076318F700832763
:1050C00084FE9853832744FED8C3832784FE23A4F9
:1050D0000702832744FE9C431387F7FF832744FE80
:1050E00098C3B707008883A74707639F07108327E4
:1050F00084FEDC4B232EF4FC832784FE9C4703278D
:1051000084FE584798C7832784FEDC47032784FE24
:105110001847D8C38327C4FDD843832784FE91074B
:105120006318F700832784FED8478327C4FDD8C3BC
:10513000832784FE23AA07008327C4FD9C4313878B
:10514000F7FF8327C4FD98C3832784FEDC570547F8
:105150003317F700B707008883A747055D8FB707A8
:10516000008823AAE704832784FED857B7670088FE
:105170009386070FBA878A07BA978A07B697DC43E0
:10518000232CF4FC832784FE032784FD98C7832700
:1051900084FD9847832784FED8C7832784FD9C47D6
:1051A000032784FE1107D8C3832784FE1387470093
:1051B000832784FD98C7832784FED857BA878A0738
:1051C000BA978A07376700881307070F3E97832728
:1051D00084FED8CB832784FED857B7670088938690
:1051E000070FBA878A07BA978A07B6979C439386B0
:1051F0001700B76700881386070FBA878A07BA9720
:105200008A07B29794C3A5A0B76700889387471A07
:10521000DC432320F4FE832784FE032704FED8CF3B
:10522000832704FE9847832784FE98D3832704FEB0
:105230009C47032784FE6107D8C3832784FE138716
:105240008701832704FE98C7832784FE3767008879
:105250001307471A98D7B76700889387471A9C4364
:1052600013871700B76700889387471A98C3832767
:1052700084FED857B707008883A7C703DC5763FBB2
:10528000E70085472326F4FEB7070088054723A0DB
:10529000E70619A0232604FE8327C4FE3E85725428
:1052A00021618280011122CE00102326A4FEB707BF
:1052B000008803A747068327C4FE98C3B707008862
:1052C00003A707058327C4FED8C301007244056104
:1052D0008280797106D622D40018232EA4FC232CB8
:1052E000B4FCEF008075B707008883A70705232467
:1052F000F4FE8327C4FDDC43032784FEB307F74095
:105300002322F4FEB707008883A7C70383C7570586
:1053100099CBB707008883A7C703A38A07048547EB
:105320002326F4FEBDA8832784FD9843FD5763150B
:10533000F700232604FEB5A08327C4FD9843B707D2
:10534000008883A747066301F7028327C4FDDC4377
:10535000032784FE636AF70085472326F4FE83272C
:1053600084FD23A0070035A8832784FD9C430327E1
:1053700044FE6371F702832784FD9843832744FE2C
:105380001D8F832784FD98C30325C4FD213F232659
:1053900004FE01A8832784FD23A007008547232658
:1053A000F4FEEF00A06C8327C4FE3E85B250225469
:1053B00045618280411122C60008B7070088054771
:1053C00023A0E7060100324441018280011106CE8C
:1053D00022CC00102326A4FE6520FDBF011106CEBD
:1053E00022CC0010232604FE25A00327C4FEBA8782
:1053F0008A07BA978A07376700881307070FBA9793
:105400003E85EFE04F908327C4FE85072326F4FEF8
:105410000327C4FE9947E3FAE7FCB76700881385C2
:10542000C717EFE04F8EB767008813850719EFE0C5
:105430008F8DB76700881385471AEFE0CF8CB76769
:1054400000881385871BEFE00F8CB76700881385F2
:10545000C71CEFE04F8BB70700883767008813073A
:10546000C71723A0E704B70700883767008813072A
:10547000071923A2E7040100F2406244056182801B
:10548000011106CE22CC001081A8452BB7670088F9
:105490009387871BDC47DC472326F4FE8327C4FE63
:1054A00091073E85EFE0AF96B707008883A7C70452
:1054B0001387F7FFB707008823A6E704B70700881C
:1054C00083A787041387F7FFB707008823A4E7049F
:1054D000712B0325C4FE2128B707008883A7870402
:1054E000CDF701000100F2406244056182800111A4
:1054F00006CE22CC00102326A4FE8327C4FE9C5B8C
:105500003E85EFD05FD50325C4FEEFD0DFD4010088
:10551000F240624405618280411122C60008B7074B
:10552000008883A707049C4399E7B70700887D5745
:1055300023A6E70619A8B707008883A70704DC4756
:105540009843B707008823A6E706010032444101CB
:105550008280011122CE0010B707008883A7C703FD
:105560002326F4FE8327C4FE3E85724405618280B3
:10557000797106D622D40018232EA4FC8327C4FDFB
:105580002324F4FE232604FE8327C4FD6386071824
:10559000832784FED857B707008883A7C703DC5743
:1055A000637FF714832784FE9C4F63CC0700B70703
:1055B000008883A7C703DC571D471D8F832784FE00
:1055C00098CF832784FED44B832784FED857BA878D
:1055D0008A07BA978A07376700881307070FBA97B1
:1055E0006393F610832784FE91073E85EFE02F82B8
:1055F000AA8795E3832784FEDC570547B317F70096
:1056000013C7F7FFB707008883A747057D8FB70744
:10561000008823AAE704B707008883A7C703D857E1
:10562000832784FED8D7832784FEDC5705473317AA
:10563000F700B707008883A747055D8FB707008885
:1056400023AAE704832784FED857B7670088938688
:10565000070FBA878A07BA978A07B697DC432322CF
:10566000F4FE832784FE032744FE98C7832744FE65
:105670009847832784FED8C7832744FE9C47032787
:1056800084FE1107D8C3832784FE1387470083272E
:1056900044FE98C7832784FED857BA878A07BA97EB
:1056A0008A07376700881307070F3E97832784FE12
:1056B000D8CB832784FED857B76700889386070F17
:1056C000BA878A07BA978A07B6979C4393861700CA
:1056D000B76700881386070FBA878A07BA978A07C1
:1056E000B29794C309A8B707008883A7C703D85700
:1056F000832784FED8D785472326F4FE31A8832745
:1057000084FEB847B707008883A7C703DC576375D3
:10571000F70085472326F4FE8327C4FE3E85B2505A
:10572000225445618280797106D622D40018232E36
:10573000A4FC8327C4FD2324F4FE232604FE832730
:10574000C4FD63800714832784FEFC471387F7FF9B
:10575000832784FEF8C7832784FED857832784FED7
:10576000BC476300F712832784FEFC47639B071046
:10577000832784FE91073E85EFD07FE9AA8795E3D2
:10578000832784FEDC570547B317F70013C7F7FFDD
:10579000B707008883A747057D8FB707008823AA2E
:1057A000E704832784FEB847832784FED8D783275E
:1057B00084FEDC571D471D8F832784FE98CF8327E7
:1057C00084FEDC5705473317F700B707008883A727
:1057D00047055D8FB707008823AAE704832784FE67
:1057E000D857B76700889386070FBA878A07BA9792
:1057F0008A07B697DC432322F4FE832784FE03271F
:1058000044FE98C7832744FE9847832784FED8C761
:10581000832744FE9C47032784FE1107D8C38327B0
:1058200084FE13874700832744FE98C7832784FE9E
:10583000D857BA878A07BA978A0737670088130745
:10584000070F3E97832784FED8CB832784FED85743
:10585000B76700889386070FBA878A07BA978A07BF
:10586000B6979C4393861700B76700881386070F87
:10587000BA878A07BA978A07B29794C385472326BF
:10588000F4FE8327C4FE3E85B250225445618280D7
:10589000397106DE22DC80002326A4FC2324B4FC1C
:1058A0008327C4FC2324F4FE85472322F4FE8327A8
:1058B000C4FC638F0716832784FEBC47032784FC40
:1058C00063F7E700832784FC2326F4FE31A08327B7
:1058D00084FEBC472326F4FE832784FEDC5703277F
:1058E000C4FE6307F714832784FEFC47032744FEA6
:1058F0006310F714832784FEDC572320F4FE8327EC
:1059000084FE0327C4FED8D7832784FE9C4F63C937
:1059100007001D478327C4FE1D8F832784FE98CF71
:10592000832784FED44B032704FEBA878A07BA97DD
:105930008A07376700881307070FBA97639AF60E2E
:10594000832784FE91073E85EFD07FCCAA8795E31D
:10595000832784FEDC570547B317F70013C7F7FF0B
:10596000B707008883A747057D8FB707008823AA5C
:10597000E704832784FEDC5705473317F700B70792
:10598000008883A747055D8FB707008823AAE7042F
:10599000832784FED857B76700889386070FBA8796
:1059A0008A07BA978A07B697DC43232EF4FC83272D
:1059B00084FE0327C4FD98C78327C4FD9847832727
:1059C00084FED8C78327C4FD9C47032784FE1107A4
:1059D000D8C3832784FE138747008327C4FD98C755
:1059E000832784FED857BA878A07BA978A0737670A
:1059F00000881307070F3E97832784FED8CB8327A1
:105A000084FED857B76700889386070FBA878A073E
:105A1000BA978A07B6979C4393861700B7670088A2
:105A20001386070FBA878A07BA978A07B29794C373
:105A30000100F250625421618280411122C60008A7
:105A400073700430B707008883A7870581CFB70735
:105A5000008883A7C703F8430507F8C3B707008882
:105A600083A7C7030100324441018280411122C64D
:105A70000008B707008883A7870595C7B707008880
:105A800083A7C703FC4385C3B707008883A7C70361
:105A9000F8437D17F8C3B707008883A7C703FC4303
:105AA00099E3736004300100324441018280411166
:105AB00022C60008B707008883A7C70381CBB707B2
:105AC000008883A7C703F8470507F8C7B70700880A
:105AD00083A7C7033E85324441018280797106D68F
:105AE00022D40018232EA4FC232CB4FCB707008872
:105AF00083A707052326F4FEB707008883A7C703FB
:105B0000A38A0704B707008883A7C70391073E85C8
:105B1000EFD0FFAFAA8785E7B707008883A7C70341
:105B2000DC570547B317F70013C7F7FFB70700881F
:105B300083A747057D8FB707008823AAE7040327BB
:105B4000C4FDFD576314F708832784FDC1C3B767FD
:105B500000889387C71CDC432324F4FEB707008822
:105B600083A7C703032784FE98C7B707008883A7C6
