:0200000490006A
:10000000B7C0EDFE9380D0EA37E176FF130161F5CA
:10001000B771BB7F9381B1FA37B2DDBF1302527D56
:10002000970200009382820D17430000130383FDA3
:10003000B7B3FBB79383A36F37E4FD5B1304D4B767
:10004000B7F4FEAD9384E4DB3775FF561305F56D09
:10005000B7C57FAB9385F5B637E6BFD5130676DB1C
:10006000B7F6DFEA9386B6ED37F76FF51307D77665
:10007000B707B8FA938767BB37085C7D1308B8DD0C
:10008000B708AEBE9388D8EE370957DF130969F772
:10009000B789AB6F9389B9FB37CAD5B7130ADAFDB5
:1000A000B7EAEADB938AEAFE377BF56D130B7BFF39
:1000B000B7BBFAB6938BBB7F376C7DDB130CDCBF11
:1000C000B7BCBEED938CECDF375DDF76130DFD6FB3
:1000D000B7BD6FBB938DFDB737DEB7DD130EFE5B8B
:1000E000B7FEDBEE938EFEAD37FF6DF7130FFF56B5
:1000F000B70FB7FB938F7FAB17470000130787F14C
:10010000370A002093030A802320770093010040E0
:1001100093810100232237001302F0DF130BF27FDB
:1001200023246701130F000093051F002326B70047
:10013000B70D0080938F0D012328F701B7080080C9
:100140009388F8FF138F6800232AE7011309100032
:10015000130E4900232CC701930650001383560049
:10016000232E670037B5AAAA1305B5AA1308F5FD13
:10017000232007039304F0FE938A240023225703CD
:10018000B7B30000938353501381830023242702C5
:10019000375BFFFF130BCBAF13090B02232627039B
:1001A000B70EE0FF938EFEFF13800E042328070294
:1001B000930C500093860C08232AD702B70500FE43
:1001C0009385F5FF938E0510232CD70313030001AD
:1001D00013040320232E8702930920001382094071
:1001E0002320470437565555130646551305E6FF99
:1001F0002322A704B75F5555938F5F55138DDFFFFB
:100200002324A705375D5555130D4D559307BDFFA5
:100210002326F70493023000938972FF23283705C1
:10022000130000009300F0FE232A170497410000FA
:100230009381C1E3370C8000930BFCFB23A0710179
:100240009307F0FE938DF7F723A2B1013757555569
:10025000130757559308F7EF23A41101B75A5555C3
:10026000938A6A55938CFADF23A69101B720000088
:10027000138CF0BF23A8810137B8AAAA1308A8AA33
:100280001306585523AAC100130100001307A1AAA1
:1002900023ACE100930B4000138A4B0023AE4101D5
:1002A000130E800093020E0123A0510213040002DA
:1002B000930444FD23A29102130500049305F5FB6A
:1002C00023A4B102130500089305550023A6B1022B
:1002D00013050010930505C023A8B10213050020E3
:1002E0009305051023AAB1023715000013050580F8
:1002F000930565FF23ACB102371500009305050493
:1003000023AEB102374500009305253323A0B10485
:1003100037850000930505C023A2B104370501000D
:100320009305F5EF23A4B1043705020093054500BA
:1003300023A6B104370504009305050023A8B104E2
:10034000370508009305550023AAB10437051000AE
:100350009305C50223ACB104370520009305C5FF02
:1003600023AEB104370540009305E50223A0B10692
:1003700037050001930505C023A2B1063705000229
:100380009305F5FE23A4B106370500049305E5FFA8
:1003900023A6B106370500089305350023A8B1064A
:1003A000370500109305F5F723AAB106370500407D
:1003B0009305E5FF23ACB1061305E0FF9305F5DFD8
:1003C00023AEB1061305D0FF930575FF23A0B10836
:1003D0001305B0FF930535FD23A2B108130570FF87
:1003E0009305453323A4B1081305F0FD9305B5FF2C
:1003F00023A6B1081305F0FB930575FF23A8B108E8
:100400001305F0F79305F5FE23AAB1081305F0EFE5
:100410009305052023ACB1081305F0BF930545FDF6
:1004200023AEB10837F5FFFF1305F57F93054500AF
:1004300023A0B10A37F5FFFF1305F5FF93058500EB
:1004400023A2B10A37E5FFFF1305F5FF9305F5DF9A
:1004500023A4B10A37C5FFFF1305F5FF9305054037
:1004600023A6B10A3785FFFF1305F5FF9305A5AA5B
:1004700023A8B10A3705FFFF1305F5FF93057500A3
:1004800023AAB10A3705FEFF1305F5FF93050508FA
:1004900023ACB10A3705FCFF1305F5FF9305850072
:1004A00023AEB10A3705F8FF1305F5FF9305058064
:1004B00023A0B10C3705F0FF1305F5FF9305F5FDFB
:1004C00023A2B10C3705C0FF1305F5FF9305455571
:1004D00023A4B10C370580FF1305F5FF930565FFD5
:1004E00023A6B10C370500FF1305F5FF9305C502E0
:1004F00023A8B10C370500FC1305F5FF9305650033
:1005000023AAB10C370500F81305F5FF93056566BE
:1005100023ACB10C370500F01305F5FF9305E50298
:1005200023AEB10C370500E01305F5FF9305350048
:1005300023A0B10E370500C01305F5FF93056566CE
:1005400023A2B10E130530009305350023A4B10E8C
:10055000130530009305555523A6B10E1305300041
:100560009305A5AA23A8B10E1305300093055500E5
:1005700023AAB10E130530009305353323ACB10E19
:10058000130530009305656623AEB10E13053000E8
:10059000930535FD23A0B110130530009305D50256
:1005A00023A2B110130530009305250023A4B11038
:1005B000130530009305455523A6B11013053000EF
:1005C0009305050023A8B1101305300093054500DD
:1005D00023AAB110130530009305253323ACB110C5
:1005E000130530009305556623AEB1101305300096
:1005F0009305C50223A0B11213053000930565557C
:1006000023A2B112130530009305B5AA23A4B11299
:10061000130530009305650023A6B11213053000C1
:100620009305453323A8B112130530009305756671
:1006300023AAB11213053000930545FD23ACB11276
:10064000130530009305E50223AEB1123755555519
:10065000130555559305350023A0B114375555554D
:10066000130555559305555523A2B11437555555C6
:10067000130555559305A5AA23A4B114375555550F
:10068000130555559305550023A6B11437555555F7
:10069000130555559305353323A8B11437555555D2
:1006A000130555559305656623AAB114375555555D
:1006B00013055555930535FD23ACB11437555555E4
:1006C000130555559305D50223AEB114375555552D
:1006D000130555559305250023A0B11637555555DB
:1006E000130555559305455523A2B1163755555554
:1006F000130555559305050023A4B11637555555D7
:10070000130555559305450023A6B1163755555584
:10071000130555559305253323A8B116375555555F
:10072000130555559305556623AAB11637555555EA
:10073000130555559305C50223ACB11637555555CC
:10074000130555559305655523AEB11637555555C7
:10075000130555559305B5AA23A0B118375555551E
:10076000130555559305650023A2B1183755555506
:10077000130555559305453323A4B11837555555E1
:10078000130555559305756623A6B118375555556C
:1007900013055555930545FD23A8B11837555555F3
:1007A000130555559305E50223AAB11837B5AAAA32
:1007B0001305A5AA9305350023ACB11837B5AAAA2D
:1007C0001305A5AA9305A5AA23AEB11837B5AAAA01
:1007D0001305A5AA9305550023A0B11A37B5AAAAF7
:1007E0001305A5AA9305353323A2B11A37B5AAAAD2
:1007F0001305A5AA9305656623A4B11A37B5AAAA5D
:100800001305A5AA930535FD23A6B11A37B5AAAAE3
:100810001305A5AA9305D50223A8B11A37B5AAAA2C
:100820001305A5AA9305250023AAB11A37B5AAAACC
:100830001305A5AA9305455523ACB11A37B5AAAA45
:100840001305A5AA9305050023AEB11A37B5AAAAC8
:100850001305A5AA9305450023A0B11C37B5AAAA84
:100860001305A5AA9305253323A2B11C37B5AAAA5F
:100870001305A5AA9305556623A4B11C37B5AAAAEA
:100880001305A5AA9305C50223A6B11C37B5AAAACC
:100890001305A5AA9305655523A8B11C37B5AAAAC7
:1008A0001305A5AA9305B5AA23AAB11C37B5AAAA10
:1008B0001305A5AA9305650023ACB11C37B5AAAAF8
:1008C0001305A5AA9305453323AEB11C37B5AAAAD3
:1008D0001305A5AA9305756623A0B11E37B5AAAA6C
:1008E0001305A5AA930545FD23A2B11E37B5AAAAF3
:1008F0001305A5AA9305E50223A4B11E1305500014
:100900009305350023A6B11E1305500093055555D8
:1009100023A8B11E130550009305A5AA23AAB11E52
:10092000130550009305353323ACB11E1305500059
:100930009305656623AEB11E13055000930535FD82
:1009400023A0B120130550009305D50223A2B120A6
:10095000130550009305250023A4B1201305500072
:100960009305455523A6B1201305500093050500B6
:1009700023A8B120130550009305450023AAB120F8
:10098000130550009305253323ACB1201305500007
:100990009305556623AEB120130550009305C5029B
:1009A00023A0B122130550009305655523A2B1225F
:1009B000130550009305B5AA23A4B12213055000D6
:1009C0009305650023A6B122130550009305453316
:1009D00023A8B122130550009305756623AAB122FE
:1009E00013055000930545FD23ACB12213055000BB
:1009F0009305E50223AEB122373533331305353382
:100A00009305350023A0B12437353333130535332F
:100A10009305555523A2B1243735333313053533A8
:100A20009305A5AA23A4B1243735333313053533F1
:100A30009305550023A6B1243735333313053533D9
:100A40009305353323A8B1243735333313053533B4
:100A50009305656623AAB12437353333130535333F
:100A6000930535FD23ACB1243735333313053533C6
:100A70009305D50223AEB12437353333130535330F
:100A80009305250023A0B1263735333313053533BD
:100A90009305455523A2B126373533331305353336
:100AA0009305050023A4B1263735333313053533B9
:100AB0009305450023A6B126373533331305353367
:100AC0009305253323A8B126373533331305353342
:100AD0009305556623AAB1263735333313053533CD
:100AE0009305C50223ACB1263735333313053533AF
:100AF0009305655523AEB1263735333313053533AA
:100B00009305B5AA23A0B128373533331305353300
:100B10009305650023A2B1283735333313053533E8
:100B20009305453323A4B1283735333313053533C3
:100B30009305756623A6B12837353333130535334E
:100B4000930545FD23A8B1283735333313053533D5
:100B50009305E50223AAB128376566661305656625
:100B60009305350023ACB1283765666613056566C5
:100B70009305555523AEB12837656666130565663E
:100B80009305A5AA23A0B12A376566661305656695
:100B90009305550023A2B12A37656666130565667D
:100BA0009305353323A4B12A376566661305656658
:100BB0009305656623A6B12A3765666613056566E3
:100BC000930535FD23A8B12A37656666130565666A
:100BD0009305D50223AAB12A3765666613056566B3
:100BE0009305250023ACB12A376566661305656653
:100BF0009305455523AEB12A3765666613056566CC
:100C00009305050023A0B12C37656666130565665C
:100C10009305450023A2B12C37656666130565660A
:100C20009305253323A4B12C3765666613056566E5
:100C30009305556623A6B12C376566661305656670
:100C40009305C50223A8B12C376566661305656652
:100C50009305655523AAB12C37656666130565664D
:100C60009305B5AA23ACB12C376566661305656696
:100C70009305650023AEB12C37656666130565667E
:100C80009305453323A0B12E376566661305656667
:100C90009305756623A2B12E3765666613056566F2
:100CA000930545FD23A4B12E376566661305656679
:100CB0009305E50223A6B12E3755FFFF1305C5AFF7
:100CC0009305350023A8B12E3755FFFF1305C5AF97
:100CD0009305555523AAB12E3755FFFF1305C5AF10
:100CE0009305A5AA23ACB12E3755FFFF1305C5AF59
:100CF0009305550023AEB12E3755FFFF1305C5AF41
:100D00009305353323A0B1303755FFFF1305C5AF29
:100D10009305656623A2B1303755FFFF1305C5AFB4
:100D2000930535FD23A4B1303755FFFF1305C5AF3B
:100D30009305D50223A6B1303755FFFF1305C5AF84
:100D40009305250023A8B1303755FFFF1305C5AF24
:100D50009305455523AAB1303755FFFF1305C5AF9D
:100D60009305050023ACB1303755FFFF1305C5AF20
:100D70009305450023AEB1303755FFFF1305C5AFCE
:100D80009305253323A0B1323755FFFF1305C5AFB7
:100D90009305556623A2B1323755FFFF1305C5AF42
:100DA0009305C50223A4B1323755FFFF1305C5AF24
:100DB0009305655523A6B1323755FFFF1305C5AF1F
:100DC0009305B5AA23A8B1323755FFFF1305C5AF68
:100DD0009305650023AAB1323755FFFF1305C5AF50
:100DE0009305453323ACB1323755FFFF1305C5AF2B
:100DF0009305756623AEB1323755FFFF1305C5AFB6
:100E0000930545FD23A0B1343755FFFF1305C5AF4A
:100E10009305E50223A2B13437B500001305455010
:100E20009305350023A4B13437B5000013054550B0
:100E30009305555523A6B13437B500001305455029
:100E40009305A5AA23A8B13437B500001305455072
:100E50009305550023AAB13437B50000130545505A
:100E60009305353323ACB13437B500001305455035
:100E70009305656623AEB13437B5000013054550C0
:100E8000930535FD23A0B13637B500001305455055
:100E90009305D50223A2B13637B50000130545509E
:100EA0009305250023A4B13637B50000130545503E
:100EB0009305455523A6B13637B5000013054550B7
:100EC0009305050023A8B13637B50000130545503A
:100ED0009305450023AAB13637B5000013054550E8
:100EE0009305253323ACB13637B5000013054550C3
:100EF0009305556623AEB13637B50000130545504E
:100F00009305C50223A0B13837B50000130545503D
:100F10009305655523A2B13837B500001305455038
:100F20009305B5AA23A4B13837B500001305455081
:100F30009305650023A6B13837B500001305455069
:100F40009305453323A8B13837B500001305455044
:100F50009305756623AAB13837B5000013054550CF
:100F6000930545FD23ACB13837B500001305455056
:100F70009305E50223AEB138130520009305350033
:100F800023A0B13A130520009305555523A2B13A89
:100F9000130520009305A5AA23A4B13A1305200048
:100FA0009305550023A6B13A130520009305353368
:100FB00023A8B13A130520009305656623AAB13A28
:100FC00013052000930535FD23ACB13A130520002D
:100FD0009305D50223AEB13A1305200093052500F1
:100FE00023A0B13C130520009305455523A2B13C35
:100FF000130520009305050023A4B13C1305200030
:101000009305450023A6B13C130520009305253325
:1010100023A8B13C130520009305556623AAB13CD3
:10102000130520009305C50223ACB13C1305200035
:101030009305655523AEB13C130520009305B5AA71
:1010400023A0B13E130520009305650023A2B13E05
:10105000130520009305453323A4B13E130520005A
:101060009305756623A6B13E13052000930545FD43
:1010700023A8B13E130520009305E50223AAB13E43
:1010800037555555130545559305350023ACB13EED
:1010900037555555130545559305555523AEB13E66
:1010A00037555555130545559305A5AA23A0B140BD
:1010B00037555555130545559305550023A2B140A5
:1010C00037555555130545559305353323A4B14080
:1010D00037555555130545559305656623A6B1400B
:1010E0003755555513054555930535FD23A8B14092
:1010F00037555555130545559305D50223AAB140DB
:1011000037555555130545559305250023ACB1407A
:1011100037555555130545559305455523AEB140F3
:1011200037555555130545559305050023A0B14284
:1011300037555555130545559305450023A2B14232
:1011400037555555130545559305253323A4B1420D
:1011500037555555130545559305556623A6B14298
:1011600037555555130545559305C50223A8B1427A
:1011700037555555130545559305655523AAB14275
:1011800037555555130545559305B5AA23ACB142BE
:1011900037555555130545559305650023AEB142A6
:1011A00037555555130545559305453323A0B1448F
:1011B00037555555130545559305756623A2B1441A
:1011C0003755555513054555930545FD23A4B144A1
:1011D00037555555130545559305E50223A6B144EA
:1011E000130500009305350023A8B1441305000042
:1011F0009305555523AAB1441305000093055500E6
:1012000023ACB144130500009305353323AEB1443C
:10121000130500009305656623A0B1461305000081
:10122000930535FD23A2B146130500009305D502B1
:1012300023A4B1463735333313054533930525339E
:1012400023A6B14637353333130545339305556629
:1012500023A8B14637353333130545339305C5020B
:1012600023AAB14637353333130545339305655506
:1012700023ACB14637353333130545339305B5AA4F
:1012800023AEB14637353333130545339305650037
:1012900023A0B14837353333130545339305453320
:1012A00023A2B148373533331305453393057566AB
:1012B00023A4B1483735333313054533930545FD32
:1012C00023A6B14837353333130545339305E5027B
:1012D00023A8B14837656666130575669305350022
:1012E00023AAB1483765666613057566930555559B
:1012F00023ACB14837656666130575669305A5AAE4
:1013000023AEB148376566661305756693055500CB
:1013100023A0B14A376566661305756693053533B4
:1013200023A2B14A3765666613057566930565663F
:1013300023A4B14A3765666613057566930535FDC6
:1013400023A6B14A37656666130575669305D5020F
:1013500023A8B14A376566661305756693052500AF
:1013600023AAB14A37656666130575669305455528
:1013700023ACB14A376566661305756693050500AB
:1013800023AEB14A37656666130575669305450059
:1013900023A0B14C37656666130575669305253342
:1013A00023A2B14C376566661305756693055566CD
:1013B00023A4B14C37656666130575669305C502AF
:1013C00023A6B14C376566661305756693056555AA
:1013D00023A8B14C37656666130575669305B5AAF3
:1013E00023AAB14C376566661305756693056500DB
:1013F00023ACB14C376566661305756693054533B6
:1014000023AEB14C37656666130575669305756640
:1014100023A0B14E3765666613057566930545FDD5
:1014200023A2B14E37656666130575669305E5021E
:1014300023A4B14E3755FFFF1305D5AF93053500F3
:1014400023A6B14E3755FFFF1305D5AF930555556C
:1014500023A8B14E3755FFFF1305D5AF9305A5AAB5
:1014600023AAB14E3755FFFF1305D5AF930555009D
:1014700023ACB14E3755FFFF1305D5AF9305353378
:1014800023AEB14E3755FFFF1305D5AF9305656603
:1014900023A0B1503755FFFF1305D5AF930535FD98
:1014A00023A2B1503755FFFF1305D5AF9305D502E1
:1014B00023A4B1503755FFFF1305D5AF9305250081
:1014C00023A6B1503755FFFF1305D5AF93054555FA
:1014D00023A8B1503755FFFF1305D5AF930505007D
:1014E00023AAB1503755FFFF1305D5AF930545002B
:1014F00023ACB1503755FFFF1305D5AF9305253306
:1015000023AEB1503755FFFF1305D5AF9305556690
:1015100023A0B1523755FFFF1305D5AF9305C50280
:1015200023A2B1523755FFFF1305D5AF930565557B
:1015300023A4B1523755FFFF1305D5AF9305B5AAC4
:1015400023A6B1523755FFFF1305D5AF93056500AC
:1015500023A8B1523755FFFF1305D5AF9305453387
:1015600023AAB1523755FFFF1305D5AF9305756612
:1015700023ACB1523755FFFF1305D5AF930545FD99
:1015800023AEB1523755FFFF1305D5AF9305E502E2
:1015900023A0B15437B5000013055550930535000D
:1015A00023A2B15437B50000130555509305555586
:1015B00023A4B15437B50000130555509305A5AACF
:1015C00023A6B15437B500001305555093055500B7
:1015D00023A8B15437B50000130555509305353392
:1015E00023AAB15437B5000013055550930565661D
:1015F00023ACB15437B5000013055550930535FDA4
:1016000023AEB15437B50000130555509305D502EC
:1016100023A0B15637B5000013055550930525009A
:1016200023A2B15637B50000130555509305455513
:1016300023A4B15637B50000130555509305050096
:1016400023A6B15637B50000130555509305450044
:1016500023A8B15637B5000013055550930525331F
:1016600023AAB15637B500001305555093055566AA
:1016700023ACB15637B50000130555509305C5028C
:1016800023AEB15637B50000130555509305655587
:1016900023A0B15837B50000130555509305B5AADE
:1016A00023A2B15837B500001305555093056500C6
:1016B00023A4B15837B500001305555093054533A1
:1016C00023A6B15837B5000013055550930575662C
:1016D00023A8B15837B5000013055550930545FDB3
:1016E00023AAB15837B50000130555509305E502FC
:1016F00023ACB158130500009305250023AEB15863
:10170000130500009305455523A0B15A13050000A9
:101710009305050023A2B15A130500009305450067
:1017200023A4B15A130500009305253323A6B15A0B
:10173000130500009305556623A8B15A1305000050
:101740009305C50223AAB15A1305000093056555F8
:1017500023ACB15A130500009305B5AA23AEB15AC4
:10176000130500009305650023A0B15C130500007C
:101770009305453323A2B15C1305000093057566FC
:1017800023A4B15C13050000930545FD23A6B15CBD
:10179000130500009305E50223A8B15C1305400082
:1017A0009305350023AAB15C1305400093055555F8
:1017B00023ACB15C130540009305A5AA23AEB15C30
:1017C000130540009305550023A0B15E13054000AA
:1017D0009305353323A2B15E13054000930565667A
:1017E00023A4B15E13054000930535FD23A6B15E29
:1017F000130540009305D50223A8B15E13054000F0
:101800009305250023AAB15E1305400093054555B5
:1018100023ACB15E130540009305050023AEB15E15
:10182000130540009305253323A0B1601305400044
:101830009305556623A2B160130540009305C502C8
:1018400023A4B160130540009305655523A6B1603C
:10185000130540009305B5AA23A8B1601305400005
:101860009305650023AAB160130540009305453335
:1018700023ACB160130540009305756623AEB160DB
:1018800013054000930545FD23A0B16213054000F8
:101890009305E50223A2B1623735333313052533AF
:1018A0009305350023A4B16237353333130525334F
:1018B0009305555523A6B1623735333313052533C8
:1018C0009305A5AA23A8B162373533331305253311
:1018D0009305550023AAB1623735333313052533F9
:1018E0009305353323ACB1623735333313052533D4
:1018F0009305656623AEB16237353333130525335F
:10190000930535FD23A0B1643735333313052533F3
:101910009305D50223A2B16437353333130525333C
:101920009305250023A4B1643735333313052533DC
:101930009305455523A6B164373533331305253355
:101940009305050023A8B1643735333313052533D8
:101950009305450023AAB164373533331305253386
:101960009305253323ACB164373533331305253361
:101970009305556623AEB1643735333313052533EC
:101980009305C50223A0B1663735333313052533DC
:101990009305655523A2B1663735333313052533D7
:1019A0009305B5AA23A4B166373533331305253320
:1019B0009305650023A6B166373533331305253308
:1019C0009305453323A8B1663735333313052533E3
:1019D0009305756623AAB16637353333130525336E
:1019E000930545FD23ACB1663735333313052533F5
:1019F0009305E50223AEB166376566661305556645
:101A00009305350023A0B1683765666613055566F2
:101A10009305555523A2B16837656666130555666B
:101A20009305A5AA23A4B1683765666613055566B4
:101A30009305550023A6B16837656666130555669C
:101A40009305353323A8B168376566661305556677
:101A50009305656623AAB168376566661305556602
:101A6000930535FD23ACB168376566661305556689
:101A70009305D50223AEB1683765666613055566D2
:101A80009305250023A0B16A376566661305556680
:101A90009305455523A2B16A3765666613055566F9
:101AA0009305050023A4B16A37656666130555667C
:101AB0009305450023A6B16A37656666130555662A
:101AC0009305253323A8B16A376566661305556605
:101AD0009305556623AAB16A376566661305556690
:101AE0009305C50223ACB16A376566661305556672
:101AF0009305655523AEB16A37656666130555666D
:101B00009305B5AA23A0B16C3765666613055566C3
:101B10009305650023A2B16C3765666613055566AB
:101B20009305453323A4B16C376566661305556686
:101B30009305756623A6B16C376566661305556611
:101B4000930545FD23A8B16C376566661305556698
:101B50009305E50223AAB16C37B500001305355093
:101B60009305350023ACB16C37B500001305355033
:101B70009305555523AEB16C37B5000013053550AC
:101B80009305A5AA23A0B16E37B500001305355003
:101B90009305550023A2B16E37B5000013053550EB
:101BA0009305353323A4B16E37B5000013053550C6
:101BB0009305656623A6B16E37B500001305355051
:101BC000930535FD23A8B16E37B5000013053550D8
:101BD0009305D50223AAB16E37B500001305355021
:101BE0009305250023ACB16E37B5000013053550C1
:101BF0009305455523AEB16E37B50000130535503A
:101C00009305050023A0B17037B5000013053550CA
:101C10009305450023A2B17037B500001305355078
:101C20009305253323A4B17037B500001305355053
:101C30009305556623A6B17037B5000013053550DE
:101C40009305C50223A8B17037B5000013053550C0
:101C50009305655523AAB17037B5000013053550BB
:101C60009305B5AA23ACB17037B500001305355004
:101C70009305650023AEB17037B5000013053550EC
:101C80009305453323A0B17237B5000013053550D5
:101C90009305756623A2B17237B500001305355060
:101CA000930545FD23A4B17237B5000013053550E7
:101CB0009305E50223A6B1723755555513056555B1
:101CC0009305350023A8B172375555551305655551
:101CD0009305555523AAB1723755555513056555CA
:101CE0009305A5AA23ACB172375555551305655513
:101CF0009305550023AEB1723755555513056555FB
:101D00009305353323A0B1743755555513056555E3
:101D10009305656623A2B17437555555130565556E
:101D2000930535FD23A4B1743755555513056555F5
:101D30009305D50223A6B17437555555130565553E
:101D40009305250023A8B1743755555513056555DE
:101D50009305455523AAB174375555551305655557
:101D60009305050023ACB1743755555513056555DA
:101D70009305450023AEB174375555551305655588
:101D80009305253323A0B176375555551305655571
:101D90009305556623A2B1763755555513056555FC
:101DA0009305C50223A4B1763755555513056555DE
:101DB0009305655523A6B1763755555513056555D9
:101DC0009305B5AA23A8B176375555551305655522
:101DD0009305650023AAB17637555555130565550A
:101DE0009305453323ACB1763755555513056555E5
:101DF0009305756623AEB176375555551305655570
:101E0000930545FD23A0B178375555551305655504
:101E10009305E50223A2B17837B5AAAA1305B5AA9E
:101E20009305350023A4B17837B5AAAA1305B5AA3E
:101E30009305555523A6B17837B5AAAA1305B5AAB7
:101E40009305A5AA23A8B17837B5AAAA1305B5AA00
:101E50009305550023AAB17837B5AAAA1305B5AAE8
:101E60009305353323ACB17837B5AAAA1305B5AAC3
:101E70009305656623AEB17837B5AAAA1305B5AA4E
:101E8000930535FD23A0B17A37B5AAAA1305B5AAE3
:101E90009305D50223A2B17A37B5AAAA1305B5AA2C
:101EA0009305250023A4B17A37B5AAAA1305B5AACC
:101EB0009305455523A6B17A37B5AAAA1305B5AA45
:101EC0009305050023A8B17A37B5AAAA1305B5AAC8
:101ED0009305450023AAB17A37B5AAAA1305B5AA76
:101EE0009305253323ACB17A37B5AAAA1305B5AA51
:101EF0009305556623AEB17A37B5AAAA1305B5AADC
:101F00009305C50223A0B17C37B5AAAA1305B5AACB
:101F10009305655523A2B17C37B5AAAA1305B5AAC6
:101F20009305B5AA23A4B17C37B5AAAA1305B5AA0F
:101F30009305650023A6B17C37B5AAAA1305B5AAF7
:101F40009305453323A8B17C37B5AAAA1305B5AAD2
:101F50009305756623AAB17C37B5AAAA1305B5AA5D
:101F6000930545FD23ACB17C37B5AAAA1305B5AAE4
:101F70009305E50223AEB17C13056000930535009F
:101F800023A0B17E130560009305555523A2B17EB1
:101F9000130560009305A5AA23A4B17E1305600074
:101FA0009305550023A6B17E1305600093053533D4
:101FB00023A8B17E130560009305656623AAB17E50
:101FC00013056000930535FD23ACB17E1305600059
:101FD0009305D50223AEB17E97310000938101892C
:101FE000130560009305250023A0B10013056000D0
:101FF0009305455523A2B100130560009305050024
:1020000023A4B100130560009305450023A6B10089
:10201000130560009305253323A8B1001305600064
:102020009305556623AAB100130560009305C50208
:1020300023ACB100130560009305655523AEB100D4
:10204000130560009305B5AA23A0B1021305600033
:102050009305650023A2B102130560009305453383
:1020600023A4B102130560009305756623A6B1028F
:1020700013056000930545FD23A8B1021305600018
:102080009305E50223AAB1023735333313054533EF
:102090009305350023ACB10237353333130545338F
:1020A0009305555523AEB102373533331305453308
:1020B0009305A5AA23A0B10437353333130545335F
:1020C0009305550023A2B104373533331305453347
:1020D0009305353323A4B104373533331305453322
:1020E0009305656623A6B1043735333313054533AD
:1020F000930535FD23A8B104373533331305453334
:102100009305D50223AAB10437353333130545337C
:102110009305250023ACB10437353333130545331C
:102120009305455523AEB104373533331305453395
:102130009305050023A0B106373533331305453326
:102140009305450023A2B1063705E0FF1305F5FF0F
:102150009305050423A4B10613000000130000003A
:102160009380400093001000171F0000232C1FE8ED
:102170006F000000000000000000000000000000F0
:1030000000000000000000000000000000000000C0
:1030100000000000000000000000000000000000B0
:1030200000000000000000000000000000000000A0
:103030000000000000000000000000000000000090
:103040000000000000000000000000000000000080
:103050000000000000000000000000000000000070
:103060000000000000000000000000000000000060
:103070000000000000000000000000000000000050
:103080000000000000000000000000000000000040
:103090000000000000000000000000000000000030
:1030A0000000000000000000000000000000000020
:1030B0000000000000000000000000000000000010
:1030C0000000000000000000000000000000000000
:1030D00000000000000000000000000000000000F0
:1030E00000000000000000000000000000000000E0
:1030F00000000000000000000000000000000000D0
:083100000000000000000000C7
:10400000FECABEBA00000000000000000000000070
:10401000EFBEADDEEFBEADDEEFBEADDEEFBEADDEC0
:10402000EFBEADDEEFBEADDEEFBEADDEEFBEADDEB0
:10403000EFBEADDEEFBEADDEEFBEADDEEFBEADDEA0
:10404000EFBEADDEEFBEADDEEFBEADDEEFBEADDE90
:1048D000EFBEADDE000000000000000000000000A0
:1048E00000000000000000000000000000000000C8
:1048F00000000000000000000000000000000000B8
:104900008000000000000000000000000000000027
:104910000000000000000000000000000000000097
:104920000000000000000000000000000000000087
:104930000000000000000000000000000000000077
:104940000000000000000000000000000000000067
:104950000000000000000000000000000000000057
:104960000000000000000000000000000000000047
:104970000000000000000000000000000000000037
:104980000000000000000000000000000000000027
:104990000000000000000000000000000000000017
:1049A0000000000000000000000000000000000007
:1049B00000000000000000000000000000000000F7
:1049C00000000000000000000000000000000000E7
:1049D00000000000000000000000000000000000D7
:1049E00000000000000000000000000000000000C7
:1049F00000000000000000000000000000000000B7
:044A000004000000AE
:040000059000000067
:00000001FF
