:0200000490006A
:100000006F0000406F00C01F6F0040256F0000258B
:100010006F0020206F0080246F0040246F000024B8
:100020006F0040206F0080236F0040236F0000238B
:100030006F0080206F0080226F0040226F0000223E
:100040006F00C0216F0060206F0020206F00E01F54
:100050006F00A01F6F00601F6F00201F6F00E01E69
:100060006F00A01E6F00601E6F00201E6F00E01D5D
:100070006F00A01D6F00601D6F00201D6F00E01C51
:100080006F00A01C6F00601C6F00201C6F00E01B45
:100090006F00A01B6F00601B6F00201B6F00E01A39
:1000A0006F00A01A6F00601A6F00201A6F00E0192D
:1000B0006F00A0196F0060196F0020196F00E01821
:1000C0006F00A0186F0060186F0020186F00E01715
:1000D0006F00A0176F0060176F0020176F00E01609
:1000E0006F00A0166F0060166F0020166F00E015FD
:1000F0006F00A0156F0060156F0020156F00E014F1
:100100006F00A0146F0060146F0020146F00E013E4
:100110006F00A0136F0060136F0020136F00E012D8
:100120006F00A0126F0060126F0020126F00E011CC
:100130006F00A0116F0060116F0020116F00E010C0
:080140006F00A0100000000098
:10015000000000000000000000000000000000009F
:10016000000000000000000000000000000000008F
:10017000000000000000000000000000000000007F
:10018000000000000000000000000000000000006F
:10019000000000000000000000000000000000005F
:1001A000000000000000000000000000000000004F
:1001B000000000000000000000000000000000003F
:1001C000000000000000000000000000000000002F
:1001D000000000000000000000000000000000001F
:1001E000000000000000000000000000000000000F
:1001F00000000000000000000000000000000000FF
:10020000F3900034A928C5284D20F39000347300E2
:100210002030F3900034A120C5204128F390003411
:1002200073002030F39000341D28EF308060B52833
:10023000F390003473002030F39000340D207D28BB
:10024000AD20F390003473002030F3900034012887
:100250007D20A128F39000347300203001A0F3909A
:100260000034130141F806C00AC20EC412C616C8F3
:100270001ACA1ECC22CE26D02AD22ED432D636D8B6
:100280003ADA3EDC42DEC6C0CAC2CEC4D2C6D6C846
:10029000DACADECCE2CEE6D0EAD2EED4F2D6F6D896
:1002A000FADAFEDCF39000348280F390003482406E
:1002B0001241A2413242C2425243E243724482544A
:1002C0001255A2553256C2565257E25772588648B6
:1002D0001649A649364AC64A564BE64B764C865CCA
:1002E000165DA65D365EC65E565FE65F1301C1070A
:1002F000F3900034828082808280828082807324A6
:100300001034F3240030732510BF411106C022C2FF
:1003100026C42AC6F3670430EF306056F377043002
:1003200082401244A24432454101731005BF7390CC
:0C033000043073101434828000000000C0
:10033C0000000000000000000000000000000000B1
:10034C0000000000000000000000000000000000A1
:10035C000000000000000000000000000000000091
:10036C000000000000000000000000000000000081
:10037C000000000000000000000000000000000071
:10038C000000000000000000000000000000000061
:10039C000000000000000000000000000000000051
:1003AC000000000000000000000000000000000041
:1003BC000000000000000000000000000000000031
:1003CC000000000000000000000000000000000021
:1003DC000000000000000000000000000000000011
:1003EC000000000000000000000000000000000001
:1003FC0000000000970100F893810140170100F400
:10040C00130181BF17F50000130545D3970500F8BC
:10041C00938585BE170600F8130686C463FAC500DB
:10042C008322050023A0550011059105E3EAC5FEC2
:10043C00170500F0130545BC970500F0938545BEE4
:10044C006377B500232005001105E36DB5FE970217
:10045C0000009382A2BA93E2120073905230EF30F4
:10046C0020437155B7E2ADDE9382D2EA23205500CA
:06047C00F5BF00000000C6
:10048200000000000000000000000000000000006A
:10049200000000000000000000000000000000005A
:1004A200000000000000000000000000000000004A
:1004B200000000000000000000000000000000003A
:1004C200000000000000000000000000000000002A
:1004D200000000000000000000000000000000001A
:1004E200000000000000000000000000000000000A
:1004F20000000000000000000000000000009377F0
:1005020035002A8795EFB7867F7F9386F6F7FD55EC
:1005120010431107B377D600B697D18FD58FE389F1
:10052200B7FE8346C7FF0346D7FF8347E7FF098F1E
:100532008DC60DC23335F0003A9579158280E1D629
:1005420083470700050793763700F5FB098F1305EC
:10055200F7FF82801305D7FF82801305C7FF8280D1
:10056200AA88AE8732883685468363960620B77698
:1005720000909386068F63FFC50A41676375E60A9A
:100582001307F00F3337C7000E073355E600AA965C
:1005920083C60600130500023697B306E540630BD7
:1005A200E500B395D70033D7E8003318D600D98DCC
:1005B2003393D80093580801B3D6150313160801D4
:1005C20041829357030133F715033685B305D602EB
:1005D2004207D98F63FCB700C2971385F6FF63E722
:1005E200070163F5B7001385E6FFC2978D8F33F7D6
:1005F2001703420313530301B3D7170342073363AD
:100602006700B306F6023E86637BD30042931386ED
:10061200F7FF636603016374D3001386E7FF4205A5
:10062200518D81455DA8370500014147E36FA6F46E
:100632006147A1BF01E605473358C7024167637F9F
:10064200E8081307F00F6373070121453357A80029
:10065200BA9603C70600130600022A97B306E640BD
:100662006315E608B38707418545935808011316B9
:100672000801418213570301B3F61703B3D71703D7
:10068200C206558F330EF6023E85637CC701429740
:100692001385F7FF636707016375C7011385E7FFDA
:1006A20042973307C741B37717034203135303013A
:1006B20033571703C20733E36700B306E6023A86ED
:1006C200637BD30042931306F7FF636603016374EF
:1006D200D3001306E7FF4205518D828037070001E0
:1006E2004145E365E8F6614595B73318D80033D53F
:1006F200E7003393D800B397D70033D7E800935875
:1007020008013366F7003377150393170801C18395
:10071200935506013355150342074D8FB386A70241
:10072200AA85637CD70042979305F5FF63670701AB
:100732006375D7009305E5FF4297B306D74033F7B9
:10074200160342064182B3D6160342073385D70207
:10075200B367C700368763FCA700C2971387F6FF0B
:1007620063E7070163F5A7001387E6FFC297C20597
:10077200898FD98DDDBD63E2D514416763FFE6023F
:100782001307F00FB335D7008E053777009033D5B6
:10079200B6001307078F2A970347070013050002C5
:1007A2002E97B305E5406311E5020545E3E7F6F24E
:1007B20033B5C800134515000DB737070001C14511
:1007C200E3E5E6FCE145D1B73358E600B396B6005F
:1007D2003368D80033DEE700935E0801B376DE03A8
:1007E200B397B70033D7E8003313B6003366F70088
:1007F20093170801C18313570601335EDE03C20655
:10080200558F338FC7037285637CE70142971305C7
:10081200FEFF636707016375E7011305EEFF429769
:100822003307E741B376D7033357D703C206338E74
:10083200E70293170601C183D58F3A8663FCC7018D
:10084200C2971306F7FF63E7070163F5C7011306B3
:10085200E7FFC2974205C16E518D9386FEFF337842
:10086200D50013560501B376D30013530301B387A2
:10087200C741330ED802B306D60213570E0133080E
:10088200680236984297330666026373D7007696FB
:1008920093560701369663E0C702E394C7D8C1674F
:1008A200FD177D8F4207337EFE00B398B800729722
:1008B2008145E3F4E8E27D15ADB38145014531BDE3
:1008C200AA8E2E833288B6876392061C37770090F1
:1008D2001307078F63F5C50AC166637BD6089306C3
:1008E200F00F63F3C600A147B356F60036970347ED
:1008F2000700BA9713070002B308F740630BF7002B
:10090200B3151301B3D7FE0033181601DD8D3395ED
:100912001E0193560801B3F7D5021316080141824E
:1009220013570501B3D5D502C2075D8FB305B602D1
:100932006378B7004297636507016373B700429714
:100942000D8FB377D702420541813357D702C207D1
:100952005D8D3307E6026378E50042956365050124
:100962006373E5004295198D3355150181458280E7
:10097200B7060001C147E369D6F6E147B5B701E61C
:10098200854633D8C602C166637BD80E9306F00F44
:1009920063F30601A147B356F800369703460700F2
:1009A200B30503413E9693070002B388C740638AAA
:1009B200C70633181801B357C300B31513011353F5
:1009C200080133D6CE004D8E93150801C1813395AF
:1009D2001E01B3D6670233F7670293570601B38647
:1009E200D50242075D8F6378D7004297636507019E
:1009F2006373D7004297B306D74033F766024206C5
:100A02004182B3D666024207B386D502B365C700F8
:100A120063F8D500C29563E5050163F3D500C2957D
:100A2200958D9356080133F7D50293170801C183B8
:100A320013560501B3D5D5024207518FB385B702CC
:100A42006378B7004297636507016373B700429703
:100A5200B305B74033F7D50242054181B3D5D5027C
:100A6200B385B702931707015D8D6378B500429590
:100A7200636505016373B50042950D8DF5B5B70643
:100A82000001C147E369D8F0E14731B7E3E1D5EEB0
:100A9200C16763F4F6049308F00FB3B7D8008E076A
:100AA2003777009033D8F6001307078F42978348B1
:100AB2000700BE9893070002338817416396170315
:100AC20063E46600E3E5CEEA3385CE40B305D34066
:100AD200B3BEAE00B385D54159BD37070001C1474A
:100AE200E3E0E6FCE1476DBFB3571601B39606019A
:100AF20033EED700335F1301B3D71E0133950E01D6
:100B0200935E0E01B31503013353DF03CD8F9315AB
:100B12000E01C18113D7070133160601B376DF0335
:100B2200338F6502C206558F9A86637CE7017297FE
:100B32009306F3FF6367C7016375E7019306E3FF5B
:100B420072973307E7413373D703C207C183335721
:100B5200D70342033363F300B385E502BA87637CAC
:100B6200B30072939307F7FF6367C3016375B30022
:100B72009307E7FF7293C206416FDD8EB305B34060
:100B82001303FFFFB3FE660013570601C1823373DE
:100B92006600B3876E0233836602B38EEE02B386BB
:100BA200E6029A9E13D70701769763736700FA9657
:100BB200135307019A9641637D1333776700420707
:100BC200B3F76700BA9763E6D500639BD5006379F4
:100BD200F5003386C740B3B7C700F2979D8EB28740
:100BE200B307F5403335F500958D898DB39815011E
:100BF20033D5070133E5A800B3D505018DBB37080E
:100C020010007D180111B377B80013D7450133786E
:100C1200D80013D3460122CC8E071374F77F1357E3
:100C2200D5010E0826CAD98F93D4F5011357D601E0
:100C32001373F37F06CE4AC84EC6FD82336707019F
:100C4200931535000E06330864406398D42263532B
:100C5200000F63180302B366C700638306581305C7
:100C6200F8FF09E92E963335B600BA97AA97B285EE
:100C72000544B9A89306F07F631DD8001304F07FE2
:100C82004DA29306F07F630ED418B7068000558FED
:100C920042859306800363CBA608FD4663C2A6067F
:100CA200130800023308A840B3160701B358A60080
:100CB20033160601B3E616013336C000558E33579C
:100CC200A7002E963335B6003E97B307A700B2852C
:100CD200370780007D8F6306071405041307F07F32
:100CE200630DE448370780FF7D17F98F13F5150070
:100CF20013D71500598D9395F701C98D858315A2D8
:100D0200930605FE93080002B356D7000148630814
:100D12001501130800043305A8403318A7003366F1
:100D2200C8003336C000558E014761BF598E333635
:100D3200C000DDBF630B080A330583400DE4B3E650
:100D4200B700638306429306F5FF99E6B295BA9718
:100D520033B6C500B29729BF1308F07F631D0501A2
:100D6200BA87B28521BF9306F07FE30BD3FEB706A5
:100D72008000D58FAA86130580036343D5067D457F
:100D8200634BD502130800023308D840339507019C
:100D9200B3D8D500B395050133651501B335B0005D
:100DA2004D8DB3D7D700B305C500BA9733B6C5008A
:100DB200B2971A8431BF138506FE9308000233D816
:100DC200A70001456387160113050004158D3395AD
:100DD200A7004D8D3335A0003365A8008147E1B7E8
:100DE20033E5B7003335A000D5BF9306140013F5E1
:100DF200E67F3DE1B3E6B70029E4638B0636B366CE
:100E0200C70085C22E96BA973335B600AA97370720
:100E120080007D8FB28511C7370780FF7D17F98F5C
:100E2200054413F77500630C073413F7F500914678
:100E32006307D734138745003335B700AA97BA85BD
:100E42003DAE99DE598EE30B06E28144B7074000BE
:100E520081451304F07F25A61305F07F638DA6302C
:100E62002E963335B600BA97AA971395F7010582E5
:100E7200B365C500858336846DB76356000D631173
:100E82000308B366C700638D06341305F8FF11E942
:100E92003386C54033B5C500998F898FB285054425
:100EA200B1A09306F07FE30BD8DC9306800363C8FE
:100EB200A608FD4663CFA604130800023308A84023
:100EC200B3160701B358A60033160601B3E616019E
:100ED2003336C000558E3357A7003386C54033B52D
:100EE200C5003387E740B307A740B28537098000C2
:100EF20033F727011DD77D1933F92701AE895DAA82
:100F02009306F07FE30FD4F0B7068000558F428539
:100F120069BF930605FE93080002B356D700014845
:100F220063081501130800043305A8403318A7000D
:100F32003366C8003336C000558E014779BF598EDB
:100F42003336C000DDBF6305080C330583401DE85E
:100F520033E8B700630808281308F5FF631B08008D
:100F6200B305B640B307F7403336B600918FB68467
:100F72003DB79308F07F63101503BA87B285130457
:100F8200F07F7DA01308F07FE30903FF370880009C
:100F9200B3E707012A8813058003634605077D45E9
:100FA200634D050393080002B38808413395170186
:100FB20033DE0501B39515013365C501B335B000C4
:100FC2004D8DB3D70701B305A640B307F7403336BB
:100FD200B600918F1A84B68411BF130508FE130E52
:100FE2000002B3D8A70001456308C8011305000435
:100FF200330505413395A7004D8D3335A00033E508
:10100200A8008147C9B733E5B7003335A000D5BF83
:10101200130514001375E57F25E933E8B70033653E
:10102200C70021E8631808006302051CBA87B2856D
:10103200B684C5BBE30705DE3388C540B3B80501F6
:101042003385E74033051541B7088000B3781501B1
:10105200638A0800B305B640B307F7403336B600DB
:10106200918FF9B7B365A80063860518AA87C28570
:101072004DBB6318080063010518BA87B285B684B0
:10108200F5BEE30D05BED1B3B389C54033B5350115
:101092003389E7403309A940370580003375A90039
:1010A20025C9B309B640B307F74033363601338951
:1010B200C740B684630409064A85EF20E03113076E
:1010C20085FFFD4763C2E70693070002998F331934
:1010D200E900B3D7F900B3E72701B395E900634FFD
:1010E2008706018F930617007D466345D6041307D2
:1010F2000002158F3396E70033D5D500B395E5008E
:10110200498EB335B000D18DB3D7D700014411BB9E
:10111200B3E52901C5F181470144D9A84E85EF20E5
:10112200A02B1305050261BF930785FDB397F90054
:10113200814575B705171306000233D7E70001454D
:101142006387C60013050004158D3395A7004D8DE6
:101152003335A000B365A70081474DBF198C37070F
:1011620080FF7D17F98F75B9BA87B2852A8455B980
:10117200BA87B2857DB11304F07F81478145370775
:1011820080007D8F11CB05041307F07F630BE4060B
:10119200370780FF7D17F98F1397D70113D53500D5
:1011A200598D1307F07F8D836319E4005D8D8147AC
:1011B20009C5B70708000145814413174401B70662
:1011C200F07FB207F2406244758FB183FE04D98F7B
:1011D20033E797004249D244B249BA850561828019
:1011E200428481B1BA87B2852A8499B58147814503
:1011F200814471B78147EDBF81458144B707400003
:1012020089B98147814549BF79714AD013D94501CE
:1012120026D24ECE52CC5AC862C49394C50006D68A
:1012220022D456CA5EC61379F97F2A8A328B368C4B
:10123200B18093D9F501630309089307F07F63092D
:10124200F90C935AD5018E04B3E49A00B70A8000D0
:10125200B3EA540113143500130919C0814B131555
:10126200CC009354C50013554C019375F57F135C64
:10127200FC01F1C19307F07F638AF51013953400E6
:101282009357DB015D8DB7048000C98C931F3B002F
:10129200138515C0814713972B005D8F7D17394643
:1012A200B3C68901B305A9406364E610377600909E
:1012B2000A0713060680329718430287B3EAA4008E
:1012C20063820A069DC82685EF200011930755FF09
:1012D20071476349F702F54A130485FFB38AFA405E
:1012E200B3948400B35A5A01B3EA9A0033148A00C1
:1012F2009305D0C03389A54095B7EF20E00D1305C3
:101302000502E9B7930485FDB31A9A000144CDB7EB
:10131200B3EAA400638C0A002A84A68A1309F07F28
:101322008D4B35BF01440149854B15BF014413095B
:10133200F07F894B2DB7B3EF640163820F069DC81E
:101342002685EF206009AA85938755FF7147634977
:10135200F702F546938F85FF9D8E3395F401B356C0
:10136200DB00B3E4A600B31FFB019306D0C03385B4
:10137200B6400DB75A85EF20200693050502E9B75E
:10138200138585FDB314AB00814FC5B7B3EF64017C
:10139200638B0F00DA8F1305F07F8D47EDBD81441B
:1013A20001458547CDBD81441305F07F8947E5B5E9
:1013B20063E6540163969A2A6364F42B1396FA0146
:1013C200135714009317F40193DA1A003364E600FA
:1013D2001395840093D88F01B3E8A800418133DECE
:1013E200AA02939E080193DE0E0113570401139380
:1013F2008F00B3FAAA0272863388CE03C20A336719
:101402005701637C070146971306FEFF63671701C6
:10141200637507011306EEFF469733070741335EF4
:10142200A702420441803377A702F2823388CE03B7
:101432004207418F637C070146979302FEFF636771
:101442001701637507019302EEFF469733040741C4
:1014520042064168B3625600130EF8FF13D602012A
:1014620033F7C201135F0301337EC301B303EE02FC
:10147200B304C6033307EF02B30FE6033306970044
:1014820013D70301329763739700C29F1356070164
:101492007E96C16FFD1F3378F7014208B3F3F30163
:1014A2001E986367C4009684631EC40263FC07032C
:1014B2009A9733B7670046973A949384F2FF63E6AC
:1014C20088006391880263EF67006366C400631B50
:1014D200860063F907019A9733B7670046979384AA
:1014E200E2FF3A9433880741118CB3B707011D8C90
:1014F200FD5F6387880EB35FA4021357080133743C
:10150200A4027E86B387FE034204598C637CF400F6
:1015120046941386FFFF636714016375F400138614
:10152200EFFF46941D8C3357A4024208135808015A
:101532003374A402BA87B38EEE0242043364880085
:10154200637CD40146949307F7FF636714016375C4
:10155200D4019307E7FF469442065D8E9317060176
:10156200C183135706013308EF023304D441330F0A
:10157200FF02B38EC703330EC70393D70E01729FC8
:10158200FA9763F4C70141673A9813D70701429764
:1015920041687D1833F507014205B3FE0E017695C9
:1015A2006366E400631FE418B28F1DC94694930F6B
:1015B200F6FF636114036366E4006313E418637D5A
:1015C200A3009317130033B367009A98930FE6FFB3
:1015D20046943E836314E4006304650093EF1F00A6
:1015E2009387F53F635BF00A13F77F0001CF13F790
:1015F200FF0011466308C70013864F00B33FF60190
:10160200FE94B28F37070001658F19C7B70700FF35
:10161200FD17FD8C938705401307E07F6342F706B1
:1016220093DF3F001397D4013367F70113D53400DA
:10163200D2073706F07F3205B2502254F18F318142
:101642005D8DFE06B367D50092540259F249624A93
:10165200D24A424BB24B224C3A85BE8545618280CA
:10166200FD158147B5B3CE86D684A28FDE870D479E
:10167200638AE70A0547638EE70A0947E392E7F6BA
:10168200014501479307F07F65B7E286CDB7B704FE
:101692000800814F81468D47D9BF05451D8D13072F
:1016A20080036348A7087D476349A7049385E54102
:1016B200B397B40033D7AF00B395BF00D98FB3351A
:1016C200B000CD8F33D5A40013F7770001CF13F705
:1016D200F70011466308C70013874700B337F700C6
:1016E2003E95BA8737078000698F39E71317D5010E
:1016F2008D835D8F0D81814725BF0557B307F74065
:1017020013060002B3D7F40001476306C50013872E
:10171200E5433397E4003367F7013337E000D98FAD
:1017220001455DB73705080001479307F07F814601
:1017320001B701450147C1B7014501478547CDBD05
:101742007E86B28F61BD13D74501B7071000FD1722
:1017520013D846012A83AA8E1377F77F1305F07FE9
:10176200B3F8B700328FF58FFD811378F87FFD82D1
:10177200631AA70033EE6800054563140E00630583
:10178200E80082806315A8005D8E05457DFA054557
:10179200E31907FFE397F8FEE395EEFF6388D500B0
:1017A2006DF333E568003335A00082800145828005
:1017B200370710007D1713D84501B378B700AA8701
:1017C2002A831378F87F13D5F501930EF07F93D512
:1017D2004601758F328E93F5F57FFD826318D8012D
:1017E200B3EEF80063840E06795582806396D501C4
:1017F200B36EC700E39A0EFE631C0804B3E7F80059
:1018020093B7170099E1598E0DCE81EB6314D50081
:1018120063D905010DC57D5582807D5591C63685FA
:1018220082806354B80065D98280E36517FF639CA8
:10183200E800E3616EFEE368C3FF0145828005456F
:101842008280E5FFC1BFE3E0E8FEC5BFE38205FB9E
:10185200D5FD81474DBF370710007D1713D84501CD
:10186200B378B700AA872A831378F87F13D5F501D6
:10187200930EF07F93D54601758F328E93F5F57FE7
:10188200FD826318D801B3EEF80063840E060945A1
:1018920082806396D501B36EC700E39A0EFE631C85
:1018A2000804B3E7F80093B7170099E1598E0DCEFB
:1018B20081EB6314D50063D905010DC57D55828086
:1018C2007D5591C6368582806354B80065D9828081
:1018D200E36517FF639CE800E3616EFEE368C3FF04
:1018E2000145828005458280E5FFC1BFE3E0E8FE55
:1018F200C5BFE38205FBD5FD81474DBF79714ECE51
:1019020093D9450122D426D252CC56CA5EC69394AC
:10191200C50006D64AD05AC893F9F97F2A84B28BF9
:10192200B68AB18013DAF501638009089307F07F64
:101932006384F90C9357D5018E04DD8CB7078000C0
:10194200DD8C13193500938919C0014B13D54A0157
:101952001394CA001375F57F318093DAFA015DCDD5
:101962009307F07F6304F51093D7DB010E045D8CBF
:10197200B70780005D8C130515C093973B000147A4
:1019820093162B00D98E4E95FD16394833465A01CF
:1019920093051500636DD80E377500908A061305FE
:1019A200C583AA969442828633E9A400630F090490
:1019B2008DC82685EF105022130755FFF14763C7E4
:1019C200E702F547130985FF998FB3942401B357B2
:1019D200F400DD8C331924019309D0C0B389A940E6
:1019E200ADB7EF10701F13050502F9B7930485FD1B
:1019F200B31494000149CDB733E9A400630B090085
:101A02002A899309F07F0D4B91B781448149054B97
:101A120035BF81449309F07F094B0DBFB367740151
:101A2200B1CF0DC82285EF10301B930655FFF14749
:101A320063C8D7027547930785FF158F3314F400E7
:101A420033D7EB00598CB397FB001307D0C0330593
:101A5200A74035B75E85EF10301813050502F1B7C0
:101A6200130485FD33948B008147C5B7B3677401B6
:101A720091CBDE871305F07F0D4719B7014401456D
:101A82000547FDBD01441305F07F0947D5BD416FF0
:101A9200930EFFFF1357090193D807013379D90138
:101AA200B3F7D70133882803B306F902B30FF7025D
:101AB2003303F80113D806011A98330E1703637320
:101AC200F8017A9E935308013378D801B3F6D60110
:101AD200135F0401B372D40142083698B30E570261
:101AE200B306590233092F033303D90113D906016F
:101AF2001A993307E7036374D90141631A97935E16
:101B02000901C169BA9E1387F9FF3379E900F98E99
:101B120013D404014209F98C338797023699CA9388
:101B22003303F402B3869802B3878802B38866004F
:101B320093560701C69663F36600CE9793D80601C3
:101B4200C169B38FF8009387F9FFB3889202FD8EC3
:101B52007D8FC206BA96B3075402B3049F023303C1
:101B62008F02BE9413D40801A29463F3F4004E933F
:101B7200C167FD1733F7F400B3F8F80042071E9E61
:101B8200469733392E01769733042701369EB336B2
:101B9200DE00B308F401338FD8003337D701333472
:101BA2002401598CC180B3B8F801B336DF00269402
:101BB200B3E6D80036941A9493577F0126045D8CBD
:101BC20093179E00B3E70701B337F000135E7E015F
:101BD20013179F00B3E7C701D98F37070001618F41
:101BE2004DCB13D71700858BD98F1317F401D98FDB
:101BF20005809386F53F6350D00A13F7770001CF33
:101C020013F7F70011456308A70013874700B3379E
:101C1200F7003E94BA8737070001618F19C737076B
:101C220000FF7D17798C938605401307E07F634E92
:101C3200D70E13D737009317D401D98F0D8013977E
:101C420046013204B706F07F758F3180598C7E06CB
:101C5200B2503367C400225492540259F249624A84
:101C6200D24A424BB24B3E85BA854561828052864A
:101C72002684CA875A8789466309D70A8D46630F25
:101C8200D7088546E317D7F6014481479DA05686BB
:101C9200DDB7AA85B9BF0545158D13078003E34556
:101CA200A7FE7D476349A7049385E5413317B40036
:101CB200B3D6A700B397B700558FB337F000D98FCB
:101CC2003354A40013F7770001CF13F7F7009146BE
:101CD2006308D70013874700B337F7003E94BA87EB
:101CE20037078000618F39E71317D4018D83D98FAD
:101CF2000D808146A9B70557158F13080002335787
:101D0200E4008146630605019385E543B316B400FA
:101D1200D58FB337F000D98F01446DB7370408006F
:101D220081479306F07F014619BF0144814793061C
:101D3200F07F31B701448147854611B7370810005B
:101D42007D180111B377B80013D745013378D80055
:101D520013D3460122CC8E071374F77F1357D50194
:101D620026CAD98F93D4F5011357D601931535009E
:101D72000E0806CE4AC84EC61373F37F1305F07FD2
:101D8200FD82336707010E066315A3003365C700A2
:101D920019E193C616003308644063989622635390
:101DA200000F63180302B366C70063830658130566
:101DB200F8FF09E92E963335B600BA97AA97B2858D
:101DC2000544B9A89306F07F631DD8001304F07F81
:101DD2004DA29306F07F630ED418B7068000558F8C
:101DE20042859306800363CBA608FD4663C2A6061E
:101DF200130800023308A840B3160701B358A6001F
:101E020033160601B3E616013336C000558E33573A
:101E1200A7002E963335B6003E97B307A700B285CA
:101E2200370780007D8F6306071405041307F07FD0
:101E3200630DE448370780FF7D17F98F13F515000E
:101E420013D71500598D9395F701C98D858315A276
:101E5200930605FE93080002B356D70001486308B3
:101E62001501130800043305A8403318A700336690
:101E7200C8003336C000558E014761BF598E3336D4
:101E8200C000DDBF630B080A330583400DE4B3E6EF
:101E9200B700638306429306F5FF99E6B295BA97B7
:101EA20033B6C500B29729BF1308F07F631D050141
:101EB200BA87B28521BF9306F07FE30BD3FEB70644
:101EC2008000D58FAA86130580036343D5067D451E
:101ED200634BD502130800023308D840339507013B
:101EE200B3D8D500B395050133651501B335B000FC
:101EF2004D8DB3D7D700B305C500BA9733B6C50029
:101F0200B2971A8431BF138506FE9308000233D8B4
:101F1200A70001456387160113050004158D33954B
:101F2200A7004D8D3335A0003365A8008147E1B786
:101F320033E5B7003335A000D5BF9306140013F57F
:101F4200E67F3DE1B3E6B70029E4638B0636B3666C
:101F5200C70085C22E96BA973335B600AA973707BF
:101F620080007D8FB28511C7370780FF7D17F98FFB
:101F7200054413F77500630C073413F7F500914617
:101F82006307D734138745003335B700AA97BA855C
:101F92003DAE99DE598EE30B06E28144B70740005D
:101FA20081451304F07F25A61305F07F638DA630CB
:101FB2002E963335B600BA97AA971395F701058284
:101FC200B365C500858336846DB76356000D631112
:101FD2000308B366C700638D06341305F8FF11E9E1
:101FE2003386C54033B5C500998F898FB2850544C4
:101FF200B1A09306F07FE30BD8DC9306800363C89D
:10200200A608FD4663CFA604130800023308A840C1
:10201200B3160701B358A60033160601B3E616013C
:102022003336C000558E3357A7003386C54033B5CB
:10203200C5003387E740B307A740B2853709800060
:1020420033F727011DD77D1933F92701AE895DAA20
:102052009306F07FE30FD4F0B7068000558F4285D8
:1020620069BF930605FE93080002B356D7000148E4
:1020720063081501130800043305A8403318A700AC
:102082003366C8003336C000558E014779BF598E7A
:102092003336C000DDBF6305080C330583401DE8FD
:1020A20033E8B700630808281308F5FF631B08002C
:1020B200B305B640B307F7403336B600918FB68406
:1020C2003DB79308F07F63101503BA87B2851304F6
:1020D200F07F7DA01308F07FE30903FF370880003B
:1020E200B3E707012A8813058003634605077D4588
:1020F200634D050393080002B38808413395170125
:1021020033DE0501B39515013365C501B335B00062
:102112004D8DB3D70701B305A640B307F740333659
:10212200B600918F1A84B68411BF130508FE130EF0
:102132000002B3D8A70001456308C80113050004D3
:10214200330505413395A7004D8D3335A00033E5A6
:10215200A8008147C9B733E5B7003335A000D5BF22
:10216200130514001375E57F25E933E8B7003365DD
:10217200C70021E8631808006302051CBA87B2850C
:10218200B684C5BBE30705DE3388C540B3B8050195
:102192003385E74033051541B7088000B378150150
:1021A200638A0800B305B640B307F7403336B6007A
:1021B200918FF9B7B365A80063860518AA87C2850F
:1021C2004DBB6318080063010518BA87B285B6844F
:1021D200F5BEE30D05BED1B3B389C54033B53501B4
:1021E2003389E7403309A940370580003375A900D8
:1021F20025C9B309B640B307F740333636013389F0
:10220200C740B684630409064A85EF10E01C130731
:1022120085FFFD4763C2E70693070002998F3319D2
:10222200E900B3D7F900B3E72701B395E900634F9B
:102232008706018F930617007D466345D604130770
:102242000002158F3396E70033D5D500B395E5002C
:10225200498EB335B000D18DB3D7D700014411BB3D
:10226200B3E52901C5F181470144D9A84E85EF1094
:10227200A0161305050261BF930785FDB397F90008
:10228200814575B705171306000233D7E7000145EC
:102292006387C60013050004158D3395A7004D8D85
:1022A2003335A000B365A70081474DBF198C3707AE
:1022B20080FF7D17F98F75B9BA87B2852A8455B91F
:1022C200BA87B2857DB11304F07F81478145370714
:1022D20080007D8F11CB05041307F07F630BE406AA
:1022E200370780FF7D17F98F1397D70113D5350074
:1022F200598D1307F07F8D836319E4005D8D81474B
:1023020009C5B70708000145814413174401B70600
:10231200F07FB207F2406244758FB183FE04D98F19
:1023220033E797004249D244B249BA8505618280B7
:10233200428481B1BA87B2852A8499B581478145A1
:10234200814471B78147EDBF81458144B7074000A1
:1023520089B98147814549BF370710009307F7FFC5
:1023620033F7B700D181F58F93F5F57FD18213084A
:10237200F07F93F6F67F63950501498F054509EBDA
:102382001307F07F01456395E600D18F3335F000E6
:10239200828013D74501B70610009387F6FF1377A3
:1023A200F77F1306E03FED8FFD816354E6041306C9
:1023B200D0416358E600370500801345F5FF2E959E
:1023C2008280D58F93063043998E7D46634DD60029
:1023D2001307D7BEB397E7003355D5005D8D99C972
:1023E2003305A040828013053041198D33D5A700F3
:1023F200FDB701458280411106C622C426C229CDFD
:102402009357F54133C4A7001D8C9354F5012285DF
:10241200EF00907C1307E041A947098F63C8A70228
:10242200AD47898F5505B357F4003314A4002685B0
:10243200B2075207B1837E05D98FB24033E7A700B6
:10244200228522449244BA85410182805515B317F0
:10245200A40026850144E9BF01478147E5BF37074C
:10246200800041117D17B377A70022C426C21354FE
:1024720075019354F50113D575016D8F1374F40F23
:102482001375F50F06C64AC0FD818E070E07B30607
:10249200A4406396B412635CD00605E1630F071093
:1024A2001386F6FF01E6BA97054481A09305F00F63
:1024B200639DB6001304F00FC1A81306F00F630565
:1024C200C40C37060004518F3686ED45854663CD30
:1024D200C50093060002918EB355C7003317D7008B
:1024E2003337E000B3E6E500B697370700047D8F87
:1024F20041CF05041307F00F630AE4223707007E79
:1025020093F617007D178583F98FD58FB5A8B1CAC9
:10251200B306854001EC638507201386F6FF41D69A
:102522009305F00F639CB600BA8769B71306F00FE4
:10253200E30CC5FE37060004D18F3686ED4585468D
:1025420063CDC50093060002918EB3D5C700B39741
:10255200D700B337F000B3E6F500B387E6002A846C
:1025620069B79306140013F6E60F31E20DE8638BA8
:10257200071A19CBBA97370700047D8F11C737079F
:1025820000FC7D17F98F054413F777006301071AE2
:1025920013F7F7009146630CD718910749AAC9D7D8
:1025A20011DB8144B70700021304F00F49A213069E
:1025B200F00F638BC616BA9785833684F1B76350E2
:1025C200D00629E57DDB1386F6FF01E6998F0544E7
:1025D2002DA09305F00FE38FB6ECED45854663CD54
:1025E200C50093060002918EB355C7003317D7007A
:1025F2003337E000B3E6E500958F3709000433F77F
:10260200270159D37D1933F92701F1A01306F00FE1
:10261200E30CC4F637060004518F36867DBFADC287
:10262200B306854015E0638A07141386F6FF09E6B0
:10263200B307F740AE8461BF1308F00F639E060133
:10264200BA871304F00FB9A01306F00FE30AC5FE10
:1026520037060004D18F36866D488546634DC80023
:1026620093060002918E33D8C700B397D700B337D1
:10267200F000B366F800B307D7402A84AE84B5BF32
:102682009306140093F6E60F8DEE0DE491E7814474
:1026920059CFBA87AE84CDBDE30807EEB386E740D3
:1026A20037060004758EB307F7406DF68147A5C261
:1026B200B687D9BDE39607EEE30507EEBA87AE8487
:1026C200D5BB3389E740B7060004B376D90085CE7F
:1026D2003309F740AE844A85EF0010506D15331967
:1026E200A90063488502018D050513040002B35752
:1026F200A9003305A4403319A90033392001B3E7F7
:102702002701014451B5E31809FC81470144814482
:1027120039A8B70700FCFD17098CB377F900ADB5EE
:10272200BA8761BDBA878DB51304F00F81473707A9
:1027320000047D8F11CB05041307F00F6302E4043C
:10274200370700FC7D17F98F1307F00F8D8363168F
:10275200E40081C7B707400081443705807F5E04EB
:10276200A607698CA583B240C18F22441395F40158
:10277200024992445D8D41018280BA87368419BF35
:102782008147D9B7011126CA935475014AC84EC66A
:1027920052C49319950006CE22CC56C293F4F40F7C
:1027A2002E8A93D999001359F501ADC49307F00FFE
:1027B200638FF4068E09B7070004B3E9F900938426
:1027C20014F8814A13557A0113149A001375F50F00
:1027D2002580135AFA0135C59307F00F6300F508F7
:1027E2000E04B70700045D8C130515F88147939614
:1027F2002A00DD8EFD163947334649013385A44050
:102802006367D70637770090130787878A06BA96D9
:1028120098420287638409024E85EF00F03B9307DA
:10282200B5FF9304A0F8B399F900898C59BF9304BA
:10283200F00F894AE38809F88D4A69B78144854ACD
:1028420051B71DC02285EF0030399307B5FF33140D
:10285200F4009307A0F83385A74049BF1305F00F92
:10286200894751D48D4761B70145854749B7131848
:10287200540063FE890C7D1581461354080133D33D
:102882008902C167FD17B377F800C18233F7890265
:102892009A85B38867024207558F637C1701429776
:1028A2009305F3FF63670701637517019305E3FF60
:1028B200429733071741B358870233778702B386AB
:1028C200170393170701468763FCD700C297138744
:1028D200F8FF63E7070163F5D7001387E8FFC297A4
:1028E20013940501958F598CB337F0005D8C130753
:1028F200F507635AE0089377740099C79377F40059
:1029020091466383D7001104B7070008E18F99C786
:10291200B70700F8FD177D8C130705089307E00F32
:102922000D8063C7E7049317770126043707807F7A
:10293200F98F25805D8C1315F601F240418D6244BA
:10294200D2444249B249224A924A05618280939610
:10295200F90193D9190015B74A864E84D6870D47D7
:102962006382E70605476385E7060947E391E7F8CF
:1029720001441307F00F45BF5286D5B73704400014
:1029820001468D47E9BF8547998F6D476342F7043A
:102992001305E509B357F4003314A400333480005F
:1029A2005D8C9377740099C79377F4001147638322
:1029B200E7001104B7070004E18F0D8099CB0144B1
:1029C200054795B7370440001307F00F0146A1BF32
:1029D2000144014789BF93567501B7078000FD176F
:1029E20013D7750193F6F60F1308F00F33F6A7000D
:1029F2001377F70FED8F7D81FD816395060139C253
:102A02007955828063130701E5FF9DEE11E38DCBBB
:102A120001CA6314B5006359D7000DC17D55828088
:102A22007D5591C52E85828063D4E60065D982806A
:102A3200E3E5C7FEE36CF6FE014582800545828030
:102A420065DEE1BFE302D7FC69F7E1DBD9B7935654
:102A52007501B7078000FD1713D7750193F6F60FBE
:102A62001308F00F33F6A7001377F70FED8F7D8170
:102A7200FD816395060139C209458280631307010E
:102A8200E5FF9DEE11E38DCB01CA6314B5006359D6
:102A9200D7000DC17D5582807D5591C52E858280DE
:102AA20063D4E60065D98280E3E5C7FEE36CF6FEF7
:102AB200014582800545828065DEE1BFE302D7FCE5
:102AC20069F7E1DBD9B701114AC81359750126CA62
:102AD2004EC652C49314950006CE22CC56C2137928
:102AE200F90F2E8AA5809359F5016306090693070B
:102AF200F00F630FF9068E04B7070004DD8C13098B
:102B020019F8814A13557A0113149A001375F50FB7
:102B12002580135AFA0135C59307F00F6300F508B3
:102B22000E04B70700045D8C130515F8814713974F
:102B32002A005D8F4A957D17B945B3C64901130630
:102B4200150063E6E506B77500900A079385458B85
:102B52002E97184302879DC02685EF00F007930742
:102B6200B5FF1309A0F8B394F4003309A94051BF8B
:102B72001309F00F894AD9D48D4A69B70149854AA8
:102B820051B71DC02285EF0030059307B5FF3314FE
:102B9200F4009307A0F83385A74049BF1305F00F4F
:102BA200894751D48D4761B70145854749B7C16708
:102BB2001383F7FF13D7040193550401B3F46400A0
:102BC20033746400B3089402330887023304B702F3
:102BD200B385950293D40801C295AE9463F30401C0
:102BE2003E94B3F76400C207B3F86800C697139720
:102BF2006700C1803337E000E9832694D98F1A0435
:102C02005D8CB7070008E18FB5C79357140005889C
:102C12005D8C1307F6076351E0069377740099C73A
:102C22009377F40091456383B7001104B707000856
:102C3200E18F99C7B70700F8FD177D8C13070608C7
:102C42009307E00F0D8063DDE70601441307F00FE1
:102C520085A8CE862684D6870947E388E7FE0D47F6
:102C6200638BE7040547E396E7FA0144014789A825
:102C7200D286DDB72A8671BF8547998F6D47E346B5
:102C8200F7FE1306E609B357F4003314C4003334D5
:102C920080005D8C9377740099C79377F400114795
:102CA2006383E7001104B7070004E18F0D80DDDFC5
:102CB2000144054731A0370440001307F00F814655
:102CC2009317770126043707807FF98F25805D8C63
:102CD2001395F601F240418D6244D2444249B24911
:102CE200224A924A056182803707800041117D178E
:102CF20013D67501B377A70022C46D8F26C2135471
:102D0200750106C64AC01376F60F9306F00F1374C8
:102D1200F40F9354F5018E07FD810E076313D6005D
:102D220019E393C51500B306C44063969512635C1C
:102D3200D00605E2630F07101386F6FF01E6BA9785
:102D4200054481A09305F00F639DB6001304F00FB4
:102D5200C1A81306F00F6305C40C37060004518F97
:102D62003686ED45854663CDC50093060002918EF9
:102D7200B355C7003317D7003337E000B3E6E50099
:102D8200B697370700047D8F41CF05041307F00F74
:102D92006309E4223707007E93F617007D178583C7
:102DA200F98FD58FB5A8B1CAB306864001EC63840A
:102DB20007209385F6FFC1D51305F00F639CA6008B
:102DC200BA8769B79305F00FE30CB6FEB7050004A6
:102DD200CD8FB6856D458546634DB50093060002DD
:102DE2008D8E33D5B700B397D700B337F000B366F3
:102DF200F500B387E600328469B79306140013F630
:102E0200E60F31E20DE8638A071A19CBBA97370742
:102E120000047D8F11C7370700FC7D17F98F054429
:102E220013F777006300071A13F7F7009146630B55
:102E3200D718910741AAC9D711DB8144B70700020D
:102E42001304F00F41A21306F00F638AC616BA9755
:102E520085833684F1B76350D00629E67DDB13867D
:102E6200F6FF01E6998F05442DA09305F00FE38F3D
:102E7200B6ECED45854663CDC50093060002918E02
:102E8200B355C7003317D7003337E000B3E6E50088
:102E9200958F3709000433F7270159D37D1933F988
:102EA2002701F1A01306F00FE30CC4F63706000465
:102EB200518F36867DBFADC2B306864015E0638969
:102EC20007141385F6FF09E5B307F740AE8461BF27
:102ED2001308F00F639E0601BA871304F00FB9A01E
:102EE2001305F00FE30AA6FE37050004C98F3685E5
:102EF2006D488546634DA80093060002898E33D83B
:102F0200A700B397D700B337F000B366F800B30752
:102F1200D7403284AE84B5BF9306140093F6E60F11
:102F22008DEE0DE491E7814451CFBA87AE84CDBDD9
:102F3200E30807EEB386E74037060004758EB30751
:102F4200F7406DF68147B9CEB687D9BDE39607EE55
:102F5200E30507EEBA87AE84D5BB3389E740B706EF
:102F62000004B376D9009DCA3309F740AE844A857E
:102F7200A5216D153319A90063488502018D050548
:102F820013040002B357A9003305A4403319A90062
:102F920033392001B3E72701014459B5E31909FC8C
:102FA20081470144814439A8B70700FCFD17098C09
:102FB200B377F900B5B5BA8769BDBA8795B5130479
:102FC200F00F8147370700047D8F11CB05041307EB
:102FD200F00F6302E404370700FC7D17F98F130733
:102FE200F00F8D836316E40081C7B7074000814468
:102FF2003705807F5E04A607698CA583B240C18F26
:1030020022441395F401024992445D8D410182806C
:10301200BA87368421BF8147D9B737068000135754
:1030220075019307F6FF1377F70F9305E007E98F12
:103032009356F50163D1E5049305D00963D8E50001
:10304200370500801345F5FF3695828033E5C700CA
:103052009307500963DAE7001307A7F63315E50073
:1030620081CE3305A0408280930760093387E74011
:103072003355E500F5B701458280B70580009357C7
:1030820075019386F5FF93F7F70F1306E007E98EB4
:103092001357F501635DF6021306F009198E130545
:1030A200F7FF63D7C702014505E71307500933E568
:1030B200B6006357F7009387A7F63315F5008280B1
:1030C20013076009B307F7403355F50082800145C5
:1030D2008280411106C622C426C255C59357F541C6
:1030E20033C4A7001D8C9354F5012285F524930760
:1030F200E0092A873385A7409307600963C4A702C2
:10310200A14763D5E70061173314E40026045E0586
:103112002580498C1395F401B240418D224492449A
:10312200410182809307900963DDA7009547998F3B
:103132009306B701B357F4003314D400333480003C
:103142005D8C954763D6E7009307B7FF3314F4000D
:10315200B70600FCFD1693777400E18E91C73D8897
:1031620091476303F4009106B7070004F58F89CBFA
:10317200B70700FCFD17FD8E9307F0093385E74082
:1031820013D4360061B78144014449B7411122C4C6
:1031920006C62A84814719CD81249307E009898FC5
:1031A200130760096341F70221476355A7006115C0
:1031B2003314A4002604258013957701B240418D73
:1031C20022444101828013079009635DF7001307CF
:1031D200B50195463317E400898E3337E000335446
:1031E200D400598C15476356A7001307B5FF331453
:1031F200E400370700FC7D1793767400618F91C657
:103202003D8891466303D4001107B7060004F98E86
:1032120081CAB70700FCFD177D8F9307F009898FDC
:103222001354370041BF135775011377F70F41113C
:103232009307170022C426C21314950006C693F7FB
:10324200E70F25809354F5018DC793573400130778
:1032520007387604B2075207B1831395F401D98F68
:10326200B24033E7A700228522449244BA85410145
:10327200828015EB814779DC2285B92AA94763CE82
:10328200A700AD47898F13075501B357F4003314D4
:10329200E40013079038098F75BF930755FFB317E2
:1032A200F4000144FDB7814719C49357340037072E
:1032B20008007604D98F1307F07F69BF13D6450142
:1032C2001376F67F9396C5001307160093D79600E0
:1032D2001377E77F9356D501DD8EFD819317350075
:1032E20049C3130706C81308E00F6348E80863429E
:1032F200E00625556347A70C37058000C98E79453E
:10330200198D7D486343A802130626C833D5A7004A
:10331200B397C700B337F000B396C600D58FC98FF5
:10332200014793F67700A9CE79A879583307E84088
:103332009308000233D7E60001486306150113061D
:1033420026CA3398C600B367F800B337F000D98FA6
:10335200C1BF1A053335A0008E06F583C98ED58FFD
:10336200C9B7D58F01E6B337F0005DBF1307F00F81
:1033720081CB8E06B7070002DDB781471307F00F36
:10338200B7060004FD8E91CA05079306F00F63038A
:10339200D704B70600FCFD16F58F9306F00F8D8358
:1033A2006316D70081C7B707400081453705807F84
:1033B2005E07A607698FA583D98F1395F5015D8DE9
:1033C20082808547014793F6F7001146E38AC6FAE1
:1033D20091077DB78147D1B7C1676376F50293073D
:1033E200F00FB3B7A7008E0737770090930600025D
:1033F2009D8E3355F5009307078F3E9503450500D3
:103402003385A640828037070001C147E36EE5FCA1
:10341200E147D9BFB70700A023A0070023A20700F6
:1034220023A407007D5798CB370700047D17D8CB1C
:1034320023AC0700D843B70601FCFD16758FD8C32D
:1034420037C7C0C01307070C98C3D843C176758F1E
:10345200B1669386060C558FD8C3828013568500B9
:103462001357C500B77700909387079F3D8A3D8B1E
:10347200935645003E973E96034606009375F50027
:1034820003470700BD8ABE95BE9603C8050083C5E3
:103492000600620793160601558FA20533670701DE
:1034A200370600A04D8F93560501518118C2BD8A7F
:1034B2003D895842BE963E9583C606008347050065
:1034C200C1756D8F558FA207D98F5CC28280B706F6
:1034D20000A0DC42370701FC7D17F98F4205370750
:1034E200FF03798D5D8DC8C28280B70700A088472F
:1034F2001345F5FF298105898280B70700A0884717
:103502001375F53F8280411193053005014506C6CA
:10351200A520B24021469305D002014541014DA8A4
:10352200011122CC26CA4AC8AE842A8932843400C8
:10353200194693052003014506CEE12283469100F8
:10354200034581000347B1008345A1008347D100B1
:103552000346C100A206AA9622072310D9002E977D
:10356200A2072390E400B297F2402310F4006244D1
:10357200D24442490561828015E5B70700D013079E
:1035820070022380E70023820700130700F8A107D7
:103592002380E700B7070080938707003E9523004A
:1035A200B5008280B70700D0130770022380E710AE
:1035B20023820710130700F8938787102380E70000
:1035C200B7070080938707003E952300B5008280ED
:1035D20031EDB707008083C70700B70600D0138715
:1035E2000601860793F7F70F2386F600B1069307C5
:1035F20000F92300F700010083470700898BEDFFE4
:103602002380B600C1472300F7000100834707006B
:10361200898BEDFF2380C600930700052300F70086
:10362200010083470700898BEDFF8280B707008086
:10363200938707003E9583470500B70600D013879E
:103642000611860793F7F70F2386F6109386C610A6
:1036520079BF41E5370600801306060003470600DE
:10366200B70600D09387060106071377F70F238664
:10367200E600B106130700F92380E700010003C743
:103682000700098B6DFF2380B60041472380E700C6
:10369200010003C70700098B6DFF2A960347060046
:1036A200060705071377F70F2380E600130700F9D3
:1036B2002380E700010003C70700098B6DFF130792
:1036C20080062380E700010003C70700098B6DFF16
:1036D20003C506001375F50F8280370600801306B6
:1036E2000600B307A60003C70700B70600D09387FA
:1036F200061106071377F70F2386E6109386C61086
:1037020095BF4DE9B70800809388080083C7080079
:10371200370800D013070801860793F7F70F23062F
:10372200F8003108930700F92300F70001008347EE
:103732000700898BEDFF2300B800C1472300F70083
:10374200010083470700898BEDFFAA9883C7080011
:103752008607850793F7F70F2300F800930700F910
:103762002300F700010083470700898BEDFF85479F
:1037720063F6C7067D163696930500022300B7004E
:10378200010083470700898BEDFF83470800850608
:10379200A38FF6FEE314D6FE930780062300F700FC
:1037A200010083470700898BEDFF83470800230050
:1037B200F6008280B708008093880800B387A800CB
:1037C20083C70700370800D013070811860793F74D
:1037D200F70F2306F8101308C810A9B736866DBF75
:1037E2008547739087BF0147731007BF739047BF28
:1037F200739027BFF327403093E707087390473051
:10380200F327003093E7870073900730B70700492A
:103812002547D8C323A407003717030023A60700B0
:10382200130707D498CB23AA0700154798C38280B1
:10383200411122C43704008013044400084006C624
:1038420026C271315D3111ED4D391C40B2409244B6
:10385200AA971CC0B70700499843224498C3410164
:10386200828004405939B7070049898C04C09843C3
:10387200B240224498C3924441018280F32760BF40
:10388200858B91E38280411106C6EF10304E854749
:10389200739067BFB2404101828069712326111281
:1038A200232481122322911223202113232E31114A
:1038B200232C4111232A511123286111232671112E
:1038C20023248111232291112320A111EEDF9936A5
:1038D200EF10904E0D3955232137EF1020422AC8A0
:1038E20002DC02DE6313053E377500901305C5A1A5
:1038F200EF20506437750090130585A3EF20906385
:10390200DC0802D002C8130B81043EDAB707008834
:1039120083A40700B707008803A44700B7070088FD
:1039220003A8470283A707029309000026D43EC4D6
:10393200B707008803AD8700B707008883AC07018B
:10394200B707008803AC4701B707008883AB87013C
:10395200B707008883A7C70022D242C63ECAC16702
:10396200FD173ED885474E893ED6014AB70D0080E5
:1039720079AA03A58D0142055695CD340257854794
:10398200630AF71C8947630FF72685473ED612550F
:10399200EFF0AFE8AA87C207C18722853ECEEFF0DB
:1039A200CFE7AA8A2255C20A93DA0A41EFF0EFE67C
:1039B200AA85C205C18526852ECCEFF00FE6F24717
:1039C20013180501E2451358084163945701638CAB
:1039D200050313950701C205014799461946C1819E
:1039E200418142CCEF108026624813950A011307E9
:1039F200F07F9315080199461946C1814181EF1064
:103A0200E02426D422D203154104EFF08FECB7074D
:103A120000803D8DEFF03F812246B246EFD01FEE8F
:103A22007138AA854A85EFE09FA32A8903156104AC
:103A3200EFF02FEAEFF02FFF2246B246EFD01FEC55
:103A4200EFF0DF87AA854E85EFE07FA1AA89CA85BC
:103A52002285EFE0DFA02A84CE852685EFE03FA015
:103A6200AA84EA852285EFE09FFE63500502228543
:103A7200EA85EFF06FA7AA856A85EFF0EFA6D24537
:103A82002A844A85EFF02F842A89E6852285EFE091
:103A92009FF46350A0022285E685EFF0EFA4AA8589
:103AA2006685EFF06FA4D2452A844A85EFF0AF8194
:103AB2002A89E2852685EFE09FF963500502268573
:103AC200E285EFF06FA2AA856285EFF0EFA1D24501
:103AD200AA844E85EFE03FFFAA89DE852685EFE0C6
:103AE2009FEF6350A0022685DE85EFF0EF9FAA8547
:103AF2005E85EFF06F9FD245AA844E85EFE0BFFC52
:103B0200AA89B7E7ADDE9387D7EA232EF0FEF32723
:103B120000B0F32700B8C167FD175A869305610408
:103B2200C800B37AFA00ED3AC247050AE39307E404
:103B3200831681040316610483154104B77700904C
:103B4200138507A0EF20103F03A58D01420556956E
:103B5200313245BFC129E30A05E25129E31905E2E1
:103B62005255EF00106A03554105F54763F9A70264
:103B7200130725FE4207418363E9E7028357610584
:103B820085461307700736D6E373F7E0130750092B
:103B92006364F70AC167938707803ED8CDBB83571A
:103BA2006105130770076362F704930725FCC207D8
:103BB200C1831307B007E36AF7DC83556105130776
:103BC2001007938765F8C207C183E360F7DCB25739
:103BD200F1CF42568D46EF10604D8357410502D614
:103BE2003EDC835761053EDE5DB313075009637EF9
:103BF200F7061307300B636DF70085473ED6FD4786
:103C02003ED871B3B52EE30205D85255412EA1BF5D
:103C12001307100D6368F70085473ED69307007EB1
:103C22003ED8B5B385461307F00E36D6E361F7D614
:103C32009307F07F3ED8A1BB1307300B6367F700F1
:103C4200C1679387F7813ED899B31307100D636656
:103C5200F700C16781173ED81DBB1307F00EE3685A
:103C6200F7D2C167FD173ED81DB30147930640073F
:103C72001306E0079305A0071305E003EF00107D8C
:103C82003167054889471307876193066007130662
:103C92000008930580071305C003C28A42D6EF10BD
:103CA200C0488257E39557CF2529D5B19396050190
:103CB2001316050142578315C103031581038D476E
:103CC200C1864186EF10405509BFEF00D0258547D8
:103CD2003ED0630E0518377500901305C5A1EF207D
:103CE200702537750090130585A3EF20B024B777B0
:103CF2000090938707A59043D44303C78700B77703
:103D02000090CC089387C7A52EDAB2C4B6C62308A2
:103D1200E1042E88138507098C43D0439447D84782
:103D22002320B8002322C8002324D8002326E80039
:103D3200C1074108E392A7FE03A3070083A8470037
:103D420083D7870037760090232068002314F80079
:103D520023221801130686AF1307400393060014AB
:103D620081450145EF102073130B81045A85854765
:103D720001479306007E11468145EF1000675255B8
:103D8200416481479306F4FF014729468145EF10BC
:103D9200C0650147F9467946930580070145EF0062
:103DA200F06A7D47F9467946930560090145EF00BF
:103DB200F0691307007EF94679469305400B0145E9
:103DC200EF00D0681307F07FF94679469305200D7E
:103DD2000145EF00B06713070480F9467946930561
:103DE20080077945EF0090661307F481F94679461A
:103DF200930560097945EF007065130704FEF946E3
:103E020079469305400B7945EF0050641307F4FFA0
:103E1200F94679469305200D7945EF003063B16488
:103E2200138784618947930660071306C0039305CD
:103E320080070145EF10602F13878461894793063D
:103E4200600713060008930580071305C003EF10EF
:103E5200C02D8947130704FE930660071306600707
:103E6200930580071305800CEF10202C45B4C92858
:103E7200E30C05A689473ED0B9BDB70700E07D57E0
:103E82002388E700130730052380E7002386070015
:103E92008280B70700E02384A700370700E083474A
:103EA2004700858BEDFF034587001375F50F828070
:103EB200B70700E02388A7008280B70700E011E57A
:103EC200130730052380E700828013070005238053
:103ED200E7008280F327103093F7070291E7373526
:103EE2003101130505D082803755FE001305B50256
:103EF2008280F327103093F7070295EFB73731012D
:103F0200938707D0732600B0732700B8B307F50272
:103F12009306803EB3D7D7023E96B337F600BA97E0
:103F2200F32600B0732700B8E36CF7FE6394E70052
:103F3200E3E8C6FE8280B757FE009387B702D9B77F
:103F4200411193058003054506C6EFF0EFE29305A4
:103F5200300A0545EFF0EFEF194781476306E500A8
:103F6200B2403E8541018280054513060008930553
:103F72000008EFF0EFE5B24085473E8541018280BF
:103F820041118945054506C6EFF0AFECB2409337C3
:103F92003500B307F0407D8D41018280011122CCB2
:103FA2008A862A8441468145054506CEEFF06FF5A3
:103FB2008347310083465100034561008345410038
:103FC2000566130606F0A207A20613070014F18F76
:103FD200AE97098FF18E2311F400158F8547F240B9
:103FE2002310E4002312F40062440561828041112F
:103FF200014506C622C4D1351305B00F553D130540
:10400200B00C413D1305C00C69352A840145513578
:104012001305F00F713DB240135554002244058937
:10402200410182804111014506C622C4793513053A
:10403200B00FBD3D1305000CA93D1305100C913DB9
:104042002A840145B9351305F00F9D35B240131589
:104052008401224461857D8141018280797122D46B
:104062004AD04ECE52CC56CA06D626D22A8AAE891B
:1040720032896000930A0101014581351305B00FB1
:10408200053D1305700D31351305800D1935AA84D0
:10409200014501351305F00F0504193DA30F94FEE8
:1040A200E31C54FD8347D1000347C1000346E100EE
:1040B20093D547001207BD8B8346F1004D8FA207AF
:1040C2002310EA00B2502254D18F2390F90023101A
:1040D200D90092540259F249624AD24A4561828019
:1040E200011106CE22CC11A0953F0145F9331305EB
:1040F200B00F7D3B1305B00C693B1305C00C513B5F
:104102002A84014579331305F00F5D339377040256
:104112001306E1006C001305A100F9D7F2406244D6
:1041220005618280397122DC41641307F4FF8D46F8
:104132005146A545014506DE26DA4AD84ED652D466
:1041420056D25AD05ECE62CCEF0050301307F4FF45
:10415200D1460D4681452545EF00502F0145B13B23
:104162001305B00FB1331305000C25331305100CE2
:104172000D332A840145313B62041305F00F61843B
:10418200053BE34D04FC11A0D13D01453D33130530
:10419200B00F393B1305B00CED391305C00CD539FE
:1041A2002A840145FD311305F00F19339377040278
:1041B2001306E1006C001305A100F9D70145F5399A
:1041C2001305B00FF5311305000CE1311305100C86
:1041D200C9312A840145753962041305F00F6184DF
:1041E200C139E35D04FC0145C9391305B00FC9317A
:1041F2001305B00C79391305C00C61392A840145C5
:1042020049391305F00F137404025D3169FC13067A
:10421200E1006C001305A100231501002316010023
:1042220023170100253D014549391305B00F4931D6
:104232002D4585311305F00FA9391305F00F8D397E
:1042420001478D465146A5450145035CA10003592E
:10425200C100EF00B01F0147D1460D4681452545FB
:10426200EF00D01E41641307F4FF8D4651469305BB
:10427200500E0145EF00901D1307F4FFD1460D4685
:104282009305C00D2545EF00701C01453D31130516
:10429200B00F39391305000CED3E1305100CD53E55
:1042A2002A840145FD3662041305F00F6184093149
:1042B200E34D04FC11A05D33014501311305B00F3C
:1042C200C53E1305B00CF1361305C00CD9362A844D
:1042D2000145C1361305F00FE13E93770402130640
:1042E200E1006C001305A100F9D70145F936130569
:1042F200B00F7D3E1305000C693E1305100C513EB4
:104302002A840145793662041305F00F61844D3623
:10431200E35D04FC014555361305B00F513E13050C
:10432200B00C853E1305C00CAD362A840145953686
:104332001305F00F13740402A53E69FC1306E10095
:104342006C001305A1002315010023160100231799
:1043520001002933014595361305B00F913E2D45D5
:104362000D3E1305F00F35361305F00F9136014758
:104372008D4651469305500E01458359A100035BBA
:10438200C100EF00B00C0147D1460D469305C00DA8
:104392002545EF00B00B41641307F4FF8D465146EB
:1043A2009305500E1305C012EF00500A1307F4FFD5
:1043B200D1460D469305C00D13055013EF001009A9
:1043C2000145E53C1305B00FE5341305000CD1346B
:1043D2001305100C7D3C2A840145653C62041305DB
:1043E200F00F6184F134E34D04FC11A085390145DD
:1043F200E9341305B00F6D3C1305B00C593C13059D
:10440200C00C413C2A84014569341305F00F4D3438
:10441200937704021306E1006C001305A100F9D79B
:104422000145613C1305B00F61341305000CEFF038
:104432005FA61305100CEFF0DFA52A840145EFF00B
:104442005FA562041305F00F6184EFF07FA6E359C4
:1044520004FC0145EFF07FA61305B00FEFF05FA556
:104462001305B00CEFF0FFA21305C00CEFF07FA212
:104472002A840145EFF0FFA11305F00F1374040223
:10448200EFF01FA379F41306E1006C001305A100FD
:10449200231501002316010023170100C13601452F
:1044A200EFF0BFA11305B00FEFF09FA02D45EFF085
:1044B2005F9E1305F00FEFF0DF9D1305F00FEFF095
:1044C2003F9F01478D4651469305500E1305C0127A
:1044D200835BA1008354C100EF0040770147D146BE
:1044E2000D469305C00D13055013EF00207641646D
:1044F2001307F4FF8D465146A5451305C012EF0080
:10450200E0741307F4FFD1460D468145130550139D
:10451200EF00C0730145EFF05F9A1305B00FEFF0A3
:104522003F991305000CEFF0DF961305100CEFF026
:104532005F962A840145EFF0DF9562041305F00FC0
:104542006184EFF0FF96E34704FC11A0013E0145B0
:10455200EFF0BF961305B00FEFF09F951305B00C67
:10456200EFF03F931305C00CEFF0BF922A84014590
:10457200EFF03F921305F00FEFF09F939377040251
:104582001306E1006C001305A100E9D30145EFF029
:10459200DF921305B00FEFF0BF911305000CEFF09F
:1045A2005F8F1305100CEFF0DF8E2A840145EFF0C8
:1045B2005F8E62041305F00F6184EFF07F8FE35783
:1045C20004FC0145EFF07F8F1305B00FEFF05F8E13
:1045D2001305B00CEFF0FF8B1305C00CEFF07F8BCF
:1045E2002A840145EFF0FF8A1305F00F13740402C9
:1045F200EFF01F8C79F41306E1006C001305A100A3
:10460200231501002316010023170100EFF01FA557
:104612000145EFF09F8A1305B00FEFF07F892D451A
:10462200EFF03F871305F00FEFF0BF861305F00F91
:10463200EFF01F8801478D465146A5451305C0126C
:10464200035AA100835AC100EF0040600147D146DE
:104652000D46814513055013EF00405F0145EFF011
:10466200DF851305B00FEFF0BF841305000CEFF0E8
:104672005F821305100CEFF0DF812A840145EFF011
:104682005F8162041305F00F6184EFF07F82E347DC
:1046920004FC19A0EFF09F9C0145EFF01F82130567
:1046A200B00FEFF0FF801305B00CEFF08FFE130593
:1046B200C00CEFF00FFE2A840145EFF08FFD1305C9
:1046C200F00FEFF0EFFE937704021306E1006C00A7
:1046D2001305A100E1D333068A01B3867901058669
:1046E200B70500803307690185862394C500370624
:1046F2000080B3875401F250625405872315D60017
:10470200B70600802396E6008587370700802317C7
:10471200F700D2544259B259225A925A025BF24BD2
:10472200624C216182800111014506CE22CC26CA4B
:104732004AC8EFF08FF81305B00FEFF06FF71305CB
:104742000008EFF00FF513051008EFF08FF42A843C
:1047520013052008EFF0EFF3AA840145EFF06FF3A1
:104762001305F00FEFF0CFF4A14701456308F40001
:10477200F2406244D244424905618280C547E399CE
:10478200F4FEEFF08FF31305B00FEFF06FF20D456B
:10479200EFF02FF00945EFF0CFEF1305F00FEFF038
:1047A2002FF12945EFF0EFF481441309100401457C
:1047B200EFF0AFF01305B00F13F4F40FEFF04FEF7B
:1047C20013650408EFF0EFEC13051400136505F808
:1047D2001375F50FEFF0EFEB0145EFF08FEB85046A
:1047E2001305F00FEFF0CFECE39324FD0145EFF05A
:1047F200CFEC1305B00FEFF0AFEB1145EFF06FE91F
:104802000145EFF00FE91305F00FEFF06FEA0145F4
:10481200EFF0AFEA1305B00FEFF08FE913050004D4
:10482200EFF02FE70545EFF0CFE61305F00FEFF0BD
:104832002FE80145EFF06FE81305B00FEFF04FE7F7
:104842002945EFF00FE50545EFF0AFE41305F00F52
:10485200EFF00FE60145EFF04FE61305B00FEFF072
:104862002FE513050002EFF0CFE213050006EFF08B
:104872004FE21305F00FEFF0AFE30145EFF0EFE386
:104882001305B00FEFF0CFE213051002EFF06FE067
:104892000945EFF00FE01305F00FEFF06FE101456E
:1048A200EFF0AFE11305B00FEFF08FE01305100446
:1048B200EFF02FDE1305400AEFF0AFDD1305F00F26
:1048C200EFF00FDF0145EFF04FDF1305B00FEFF010
:1048D2002FDE13056005EFF0CFDB1945EFF06FDB3C
:1048E2001305F00FEFF0CFDC0145EFF00FDD1305FC
:1048F200B00FEFF0EFDB1305A004EFF08FD9054501
:10490200EFF02FD91305F00FEFF08FDA0145EFF03A
:10491200CFDA1305B00FEFF0AFD91305B004EFF003
:104922004FD70545EFF0EFD61305F00FEFF04FD854
:104932000145EFF08FD81305B00FEFF06FD71305D5
:10494200B004EFF00FD50145EFF0AFD41305F00F2F
:10495200EFF00FD60145EFF04FD61305B00FEFF091
:104962002FD513058005EFF0CFD20545EFF06FD2BA
:104972001305F00FEFF0CFD30145EFF00FD413057D
:10498200B00FEFF0EFD22D45EFF0AFD01305F00FDF
:10499200EFF02FD01305F00FEFF08FD10145EFF0BC
:1049A200CFD11305B00FEFF0AFD02545EFF06FCEAA
:1049B2001545EFF00FCE1305F00FEFF06FCF8567BF
:1049C200938707E1370700802314F700930600144A
:1049D200370700802315D700370700809306E010C1
:1049E2002316D700370700802317F700EFE0FFAF49
:1049F200AA870545E38E07D62AC6EFF0AFF2324505
:104A020085BB79711306E1006C0022D42A84130558
:104A1200A10006D626D24AD04ECE52CC56CA5AC889
:104A2200231501002316010023170100EFF00FE305
:104A32000145EFF08FC81305B00FEFF06FC72D459A
:104A4200EFF02FC51305F00FEFF0AFC41305F00F11
:104A5200EFF00FC6B707008003D587008357E10048
:104A6200035BC100370A00882312F400EFE00FF263
:104A7200B7070080AA8403D5C700EFE02FF1B7077C
:104A820000802A8903D5E700835AA100EFE00FF0E6
:104A9200CA85EFE06FA5B7070088AA8503A587023C
:104AA200EFD05FCEAA895A85EFE04FEECA85EFE0DC
:104AB200AFA3AA854E85EFE00F818325CA02EFD00E
:104AC2001F9AB70700802A8903D5A700EFE00FECF1
:104AD200A685EFE06FA1B7070088AA8503A50703A3
:104AE200EFD05FCAAA895685EFE04FEAA685EFE0CC
:104AF200AF9FAA854E85EFD01FFD8325CA02EFD056
:104B02001F96AA84930500004A85EFD05FF481477F
:104B1200634D0500B707008883A547034A85EFD098
:104B22009FEB9307F013634A05042310F4009305E7
:104B320000002685EFD0BFF18147634D0500B7071E
:104B4200008883A587032685EFD0FFE89307F00E40
:104B5200634E0500B2502311F400225492540259BC
:104B6200F249624AD24A424B456182802685EFE091
:104B7200CFD093170501C183F1BF4A85EFE0EFCF94
:104B820093170501C18355B77D162A96131706019F
:104B92004183011121839317850022062181C98F48
:104BA200598E26CA05459384F6FFAE9406CE231687
:104BB200F1002317C10022CC4AC82E89EFF0EFAFD3
:104BC2001305C00FEFF0CFAE1305A002EFF06FACEC
:104BD200C2041305E00FC180EFF08FAD6000034502
:104BE20004000504EFF0EFAA1C08E31AF4FE131701
:104BF20089009397840013598900A18033692701A2
:104C0200DD8C05452316210123179100EFF0EFAA51
:104C12001305C00FEFF0CFA91305B002EFF06FA795
:104C22001305E00FEFF0CFA8600003450400050470
:104C3200EFF02FA61C08E31AF4FE6244F240D244BD
:104C420042491305F00F05616FF08FA6B707008088
:104C520083A747016373F50A011126CABA8437078D
:104C620000800327070106CE22CC4AC84EC663FF46
:104C7200E5063308C5006366F8003386A74042069E
:104C82004182B387D50063E6E700B306B740C206A8
:104C9200C1823309D602EFF03FEF0545EFF0EFA1F5
:104CA2001305C00FEFF0CFA01305C002EFF06F9E07
:104CB2001305E00F93D98400EFF08F9F93F4F40F64
:104CC2000144630B09004E85EFF0AF9C0504268575
:104CD200EFF02F9CE31924FF6244F240D244424990
:104CE200B2491305F00F05616FF08F9CF2406244E8
:104CF200D2444249B2490561828082807971054578
:104D020006D622D426D24AD04ECE52CCEFF0EF9A1B
:104D12001305C00FEFF0CF990545EFF08F971305FC
:104D2200E00FEFF0EF981305F00FEFF06F98130517
:104D32006009EFF00F9CFD5705452316F10023078C
:104D4200F100EFF08F971305C00FEFF06F9611454A
:104D5200EFF02F941305E00FEFF08F9560009304AE
:104D6200F1000145EFF0EF920504A30FA4FEE31A50
:104D720094FE1305F00FEFF0AF938347C100834613
:104D8200D1000347E1000145D58FD98F93F7F70F83
:104D920089CBB250225492540259F249624A456177
:104DA2008280B7F400900D491304F00E938484FFBF
:104DB2000545EFF08F901305C00FEFF06F8F22853E
:104DC200EFF02F8D9379F9071305E00F138A240072
:104DD200EFF00F8E638F090893872900BE945284E7
:104DE200034504000504EFF0CF8AE31B94FEB304ED
:104DF2003A0162091305F00F13598941EFF04F8B05
:104E02006348090003C4040019C803C914004DB75C
:104E120013056009EFF0EF8D03C404007DF4B707BA
:104E220000801308001401479306000F13060014B4
:104E3200814523AA07010145B70700801308000F27
:104E420023A80701EFF09FE00545EFF00F87130558
:104E5200C00FEFF0EF8513059002EFF08F8313057B
:104E6200E00FEFF0EF841305F00FEFF06F840545CC
:104E72000DB7D284BDBF5D71338EB6403303A640F9
:104E82005ED66ECEAE8BB28D9355F3411356FE4174
:104E92004EDE56DAB349C601B3CA6500CAC062D44F
:104EA20086C6A2C4A6C252DC5AD866D26AD0B38AD7
:104EB200BA40B389C9403A8C3E8963CE3A133688E8
:104EC200DE855E873686AA8BEE8693940B01139B52
:104ED20006014E84C28D2E85C180135B0B0163C80F
:104EE2007613B3049B40139D0401135D0D41939708
:104EF20004011358FD01C1836A983EC0135D184036
:104F02006352B51B3687DE868547139B0601AA8D41
:104F1200BA8B3EC2135B0B0193578C003EC4420412
:104F22009377FC0F41808544370A00803EC669A80A
:104F32006313991403274A0163F7EC04B70700804F
:104F420003A707016371EB0485460546DA8566858A
:104F5200EFF09FC30545EFE05FF61305C00FEFE0EA
:104F62003FF51305C002EFE0DFF21305E00FEFE0BB
:104F72003FF42245EFE0FFF13245EFE09FF11305E8
:104F8200F00FEFE0FFF233088D40131D0801135DAF
:104F92000D41420813580801635E0D009247BE9C02
:104FA2008247939D0C0193DD0D413E98131D08012C
:104FB200135D0D4193061B00C206C18663C5DB0C5F
:104FC200139B0601135B0B01939C0D0193DC0C01F7
:104FD200E3C03AF76319990803274A01E375EBFA2C
:104FE200B707008003A70701E3FFECF885460546F3
:104FF200E6855A85B1BF93940B01139B06016E8619
:105002002A875684C180135B0B01E3DC76EDB384FF
:105012006441139D0401135D0D41939704011358DC
:10502200FD01C1836A983EC0135D18406309B50350
:105032003304C7401357F441398C198C63D1AD0244
:1050420036878547DE866E853EC2BA8B3687DE8618
:10505200139B0601AA8DBA8B135B0B0175BDC16749
:10506200FD173EC255BD6287CA864A86E6855A85C5
:10507200EFF0DFBD09BF6287CA864A86DA85668598
:10508200EFF0DFBC09B7B640264496440649F25910
:10509200625AD25A425BB25B225C925C025DF24D72
:1050A20061618280C167FD173EC24DB7411122C4C2
:1050B20006C68548328463921603B707008083A729
:1050C20047016378F500B707008083A7070163ED06
:1050D200F500B2402244410182802244B24032872C
:1050E200368641016FF09FB60546EFF0FFA90545F0
:1050F200EFE0BFDC1305C00FEFE09FDB1305C0023A
:10510200EFE03FD91305E00FEFE09FDA135584007B
:10511200EFE03FD81375F40FEFE0BFD72244B2405F
:105122001305F00F41016FE0BFD8797152CC330AF9
:10513200C50013160A0122D42E849315050126D226
:105142004AD056CA5AC866C2420A931C040106D6FD
:105152004ECE5EC662C4C18541862A8BB684BA8AA7
:105162003E8993DC0C41135A0A016344B608D28982
:105172002A8CCA99B3898941C20993D909015687F0
:10518200CA864E86A2856285EFF05FAC3308940032
:10519200931B080193DB0B0193140801C18456870A
:1051A200CA864E86DE856285EFF05FAA638A9C041A
:1051B20063D494054A94330474414204418056876F
:1051C200A2864A86DE855A85EFF05FA85687A286B8
:1051D2004A86DE852254B25092540259F249D24A8A
:1051E200424BB24B224C924C5285624A45616FF05F
:1051F200FFA5AA89528CB5BFDE87A28B3E845DBF14
:105202005687CA864A86A2855A85EFF03FA45687FA
:10521200CA864A86A2857DBF2E83368EAA883288A8
:105222003A8FBE8E6389D5026304C5006FF0BFC496
:1052320063D4B60036832E8E93150301C181769E08
:10524200B306BE40C206139508017A87C1827686EC
:1052520041816FF0BF9F6354A600B2882A881395DC
:105262000801418133860E01098E4206931503011E
:105272007A87F6864182C1816FF05F9D5D71A2C41B
:105282003E84A147B3978700A6C293940701C180C9
:10529200B385B4023708008003284801CAC02A89AE
:1052A20086C64EDE52DC56DA5AD8139505015ED612
:1052B20062D466D26AD06ECE33089840418136C439
:1052C2006360A8023386C402BA8D370700800327C1
:1052D2000701B307974093150601C18163F1B70235
:1052E200B640264496440649F259625AD25A425B63
:1052F200B25B225C925C025DF24D61618280A686A5
:105302002686EFF07F880545EFE03FBB1305C00F0F
:10531200EFE01FBA1305C002EFE0BFB71305E00FBD
:10532200EFE01FB9CDC013070002CA876354E9003A
:1053320093070002E207E187811737F700908E0793
:10534200130787CFBA973EC6A2474169814C7D19A0
:1053520013DC8D0093DA87003247B3D78C40B3F762
:105362002701BA9703CA0700034B8100014D9D49EB
:1053720093FBFD0F21A8EFE0DFB15A85050DEFE0A9
:105382005FB193170D01C18363F99702B3578D4043
:10539200B3F72701B387F940B357FA40858B568597
:1053A200F9FB6285EFE0FFAE5E85050DEFE07FAEB3
:1053B20093170D01C183E3EB97FC850C93970C01C6
:1053C200C183E3EB97F82644B64096440649F25966
:1053D200625AD25A425BB25B225C925C025DF24D2F
:1053E2001305F00F61616FE0BFAC797126D25EC622
:1053F20006D622D44AD04ECE52CC56CA5AC862C41D
:10540200AA8B03050500A144B394F4002DC9C2047C
:10541200370C00803E892E84328BB689BA8AC180CD
:10542200130C4C01370A0080A2850504CA875687EF
:105432005A86CE864204EFF07FE441809305140041
:10544200B385950283270C0013071B00850B63F5B8
:10545200B702131B0701135B0B0193051B00B385F6
:10546200950283270A010144B3B5B70093C515001D
:10547200B305B040337BBB0003850B0055F5B2503A
:10548200225492540259F249624AD24A424BB24BD6
:10549200224C45618280797152CC368A5EC6BA86C8
:1054A200B28B528606D656CA22D4BA8A26D24AD09D
:1054B2004ECE5AC862C4EFF02FED0545EFE0FF9FD4
:1054C2001305C00FEFE0DF9E1305C002EFE07F9CE3
:1054D2001305E00FEFE0DF9D63870A04130BFAFF69
:1054E200420B8149138C2B00135B0B01630D0A02E3
:1054F2003384490333098B00060906045E946299DA
:1055020083540400090413D58400EFE09F9813F537
:10551200F40FEFE01F98E31524FF8509C20993D920
:105522000901E3E759FD2254B25092540259F2495B
:10553200624AD24A424BB24B224C1305F00F4561EC
:105542006FE01F97370700B083471700898BEDDFA5
:105552002300A7008280370700B083471700858B9E
:10556200EDDF034507001375F50F8280370700B0A2
:1055720083471700858BEDDF03460700B7060080DF
:10558200938686011376F60F90C2370700B08347E1
:105592001700898BEDDF2300C7009842B5476303EC
:1055A200F7008280370700B083471700898BEDDF51
:1055B200A9472300F7008280411106C6EFE09F91C0
:1055C200B7373101938707D06303F504B70700B0FB
:1055D20011472381E7001947A381E700B70700B00D
:1055E20013070004A380E700B75700903707008035
:1055F200938767542322F702B240B75700903707C8
:105602000080938787552320F70241018280B707E4
:1056120000B015472381E7001947A381E7007DBF4A
:10562200717106D722D526D34AD14ECF52CD56CB51
:105632005AC95EC762C566C36AC1EEDE038405004D
:1056420032C645CCB707008803A7070483A74704DF
:105652002E8C2A8D938415003AD83ED69307500299
:105662006319F426830D1C0013070003638AED2CD3
:105672001307D0026380ED2E93070002090C930AF0
:1056820000023ECA02C81307A002639DED24B2477E
:105692008043138A470063560400894733048040DD
:1056A2003EC8830D0C0052C6050C1307E002FD54E0
:1056B200638AED261307C006C24C638FED04638E26
:1056C2000D021387BDFB1377F70F9306300363EACE
:1056D200E600B7F600900A07938646073697184306
:1056E20002872947E38BED3A630D0D626E85029DB9
:1056F20003040C0093041C0035F0BA502A549A5447
:105702000A59FA496A4ADA4A4A4BBA4B2A4C9A4C23
:105712000A4DF65D4D618280830D0C006382ED2897
:1057220093EC4C00050C61BFB247138A7700137AE1
:105732008AFF83270A0003274A0093068A0036C697
:105742003E863E85BA86BA853ED43ACCEFC0DFC0EB
:10575200E315056263C8044AA256624901463685CA
:10576200CA858146EFC02F8F930CB002CA8763436C
:10577200054837070088032B0705832B4705A259E5
:1057820013991700135919004E85CA855A86DE8669
:10579200EFC09FBC631005244E85CA855A86DE86FB
:1057A200EFC06F8B6358A022B7F700909387C706AC
:1057B20023089105130B1105840803870700850749
:1057C2002300EB0003870700050B75FB23000B008A
:1057D2002685EFA0DFD2C2472A89639007706364EF
:1057E20085006F00906F63020D7405095685029D56
:1057F200E31D24FF03050105E30C05EEA949850419
:105802006302356B029D0385040075F99304190048
:10581200E37089EE13050002029DA6878504E31B4F
:10582200F4FEF9B53247A947030407009304470081
:10583200E30CF42463080D4C2285029D26C64DBD5F
:10584200B24783A90700138A47006388096C4E8513
:10585200EFA0FFCA2A8963C5040063F324012689E5
:10586200C247639D076463798900630C0D6E050965
:105872005685029DE31D24FF838A090063890A0479
:10588200638204644E8BA94B631D0D0001AF5685E4
:10589200029D830A0B0063810A02B3079B40638D5A
:1058A2003701050BE3957AFF3545029D5685029D2A
:1058B200830A0B00E3930AFE9304190063798900BB
:1058C20013050002029DA6878504E31BF4FE52C65F
:1058D20005B5A947630BF40E630A0D0C2285029DE0
:1058E200268C39B513870DFD1377F70F2546014432
:1058F200A546E36CE6DA2287131427003A940604DD
:10590200050C6E94830DFCFF130704FD93870DFDB8
:1059120093F7F70FE3F2F6FE3A841307E002FD5421
:10592200E39AEDD8830D0C001307A002639FED02EA
:10593200B247830D1C00090C844391073EC69DBBF0
:1059420093070003830D2C003ECA0D0C930A00033B
:1059520002C815BB930700023ECA8947830D2C007B
:10596200930A00020D0C3EC839BB13870DFD137755
:10597200F70F2546050C8144A546E36DE6D29397C1
:105982002400A6978607050CEE97830DFCFF9384EF
:1059920007FD13870DFD1377F70FE3F2E6FE19BB40
:1059A200830D1C0093ECCC00090C11BBB7060080E0
:1059B2009386C6019C42268CE38C07D2138717007C
:1059C20098C223808700268C25B3630F0D3035459E
:1059D200029D29B713076006E387ED0CA2566247C2
:1059E20001463685BA858146EFB0FFD5630B056661
:1059F200B7070088A259624903A6070683A647068D
:105A02004E85CA85EFB0DFDAE34B052E014B370A2C
:105A1200008803268A058326CA054E85CA85EFB00B
:105A22003FD9634D057803268A058326CA054E852C
:105A3200CA85EFB06FFDB707008803A6070683A6E5
:105A42004706AA892E89EFB0BFD6150BE35105FC94
:105A5200B707008803A6070483A647044E85CA85B4
:105A6200EFB07FDF635905043707008883270702F9
:105A7200032847023ED042D2025692564E85CA852C
:105A8200EFB07FDD6357057AB707008803A6870565
:105A920083A6C7054E85CA85EFB05FE6B7070088C3
:105AA20003A6070483A64704AA892E89EFB0BFDAAA
:105AB2006D1BE34305FC330B9B40E3516027B707A3
:105AC200008803A8070403A74704B707008883A92F
:105AD200870503AAC70511494285BA85635D6973C3
